{
	"src/BlueprintManager.sol": {
		"BlueprintManager": {
			"abi": [
				{
					"inputs": [],
					"name": "AccessDenied",
					"type": "error"
				},
				{
					"inputs": [],
					"name": "BalanceDeltaOverflow",
					"type": "error"
				},
				{
					"inputs": [],
					"name": "InvalidChecksum",
					"type": "error"
				},
				{
					"inputs": [],
					"name": "NoFlashAccountingActive",
					"type": "error"
				},
				{
					"inputs": [],
					"name": "RealizeAccessDenied",
					"type": "error"
				},
				{
					"anonymous": false,
					"inputs": [
						{
							"indexed": true,
							"internalType": "address",
							"name": "owner",
							"type": "address"
						},
						{
							"indexed": true,
							"internalType": "address",
							"name": "spender",
							"type": "address"
						},
						{
							"indexed": true,
							"internalType": "uint256",
							"name": "id",
							"type": "uint256"
						},
						{
							"indexed": false,
							"internalType": "uint256",
							"name": "amount",
							"type": "uint256"
						}
					],
					"name": "Approval",
					"type": "event"
				},
				{
					"anonymous": false,
					"inputs": [
						{
							"indexed": true,
							"internalType": "address",
							"name": "from",
							"type": "address"
						},
						{
							"indexed": true,
							"internalType": "uint256",
							"name": "id",
							"type": "uint256"
						},
						{
							"indexed": false,
							"internalType": "uint256",
							"name": "amount",
							"type": "uint256"
						}
					],
					"name": "Burn",
					"type": "event"
				},
				{
					"anonymous": false,
					"inputs": [
						{
							"indexed": true,
							"internalType": "address",
							"name": "to",
							"type": "address"
						},
						{
							"indexed": true,
							"internalType": "uint256",
							"name": "id",
							"type": "uint256"
						},
						{
							"indexed": false,
							"internalType": "uint256",
							"name": "amount",
							"type": "uint256"
						}
					],
					"name": "Mint",
					"type": "event"
				},
				{
					"anonymous": false,
					"inputs": [
						{
							"indexed": true,
							"internalType": "address",
							"name": "owner",
							"type": "address"
						},
						{
							"indexed": true,
							"internalType": "address",
							"name": "operator",
							"type": "address"
						},
						{
							"indexed": false,
							"internalType": "bool",
							"name": "approved",
							"type": "bool"
						}
					],
					"name": "OperatorSet",
					"type": "event"
				},
				{
					"anonymous": false,
					"inputs": [
						{
							"indexed": true,
							"internalType": "address",
							"name": "from",
							"type": "address"
						},
						{
							"indexed": true,
							"internalType": "address",
							"name": "to",
							"type": "address"
						},
						{
							"indexed": true,
							"internalType": "uint256",
							"name": "id",
							"type": "uint256"
						},
						{
							"indexed": false,
							"internalType": "uint256",
							"name": "amount",
							"type": "uint256"
						}
					],
					"name": "Transfer",
					"type": "event"
				},
				{
					"inputs": [
						{
							"internalType": "address",
							"name": "",
							"type": "address"
						},
						{
							"internalType": "address",
							"name": "",
							"type": "address"
						},
						{
							"internalType": "uint256",
							"name": "",
							"type": "uint256"
						}
					],
					"name": "allowance",
					"outputs": [
						{
							"internalType": "uint256",
							"name": "",
							"type": "uint256"
						}
					],
					"stateMutability": "view",
					"type": "function"
				},
				{
					"inputs": [
						{
							"internalType": "address",
							"name": "spender",
							"type": "address"
						},
						{
							"internalType": "uint256",
							"name": "id",
							"type": "uint256"
						},
						{
							"internalType": "uint256",
							"name": "amount",
							"type": "uint256"
						}
					],
					"name": "approve",
					"outputs": [
						{
							"internalType": "bool",
							"name": "",
							"type": "bool"
						}
					],
					"stateMutability": "nonpayable",
					"type": "function"
				},
				{
					"inputs": [
						{
							"internalType": "address",
							"name": "",
							"type": "address"
						},
						{
							"internalType": "uint256",
							"name": "",
							"type": "uint256"
						},
						{
							"internalType": "uint256",
							"name": "",
							"type": "uint256"
						}
					],
					"name": "balanceOf",
					"outputs": [
						{
							"internalType": "uint256",
							"name": "",
							"type": "uint256"
						}
					],
					"stateMutability": "view",
					"type": "function"
				},
				{
					"inputs": [
						{
							"components": [
								{
									"internalType": "uint256",
									"name": "tokenId",
									"type": "uint256"
								},
								{
									"internalType": "uint256",
									"name": "amount",
									"type": "uint256"
								}
							],
							"internalType": "struct TokenOp[]",
							"name": "ops",
							"type": "tuple[]"
						}
					],
					"name": "burn",
					"outputs": [],
					"stateMutability": "nonpayable",
					"type": "function"
				},
				{
					"inputs": [
						{
							"internalType": "uint256",
							"name": "tokenId",
							"type": "uint256"
						},
						{
							"internalType": "uint256",
							"name": "amount",
							"type": "uint256"
						}
					],
					"name": "burn",
					"outputs": [],
					"stateMutability": "nonpayable",
					"type": "function"
				},
				{
					"inputs": [
						{
							"components": [
								{
									"internalType": "address",
									"name": "sender",
									"type": "address"
								},
								{
									"internalType": "address",
									"name": "blueprint",
									"type": "address"
								},
								{
									"internalType": "bytes",
									"name": "action",
									"type": "bytes"
								},
								{
									"internalType": "bytes32",
									"name": "checksum",
									"type": "bytes32"
								}
							],
							"internalType": "struct BlueprintCall[]",
							"name": "calls",
							"type": "tuple[]"
						}
					],
					"name": "cook",
					"outputs": [],
					"stateMutability": "nonpayable",
					"type": "function"
				},
				{
					"inputs": [
						{
							"internalType": "address",
							"name": "realizer",
							"type": "address"
						},
						{
							"components": [
								{
									"internalType": "address",
									"name": "sender",
									"type": "address"
								},
								{
									"internalType": "address",
									"name": "blueprint",
									"type": "address"
								},
								{
									"internalType": "bytes",
									"name": "action",
									"type": "bytes"
								},
								{
									"internalType": "bytes32",
									"name": "checksum",
									"type": "bytes32"
								}
							],
							"internalType": "struct BlueprintCall[]",
							"name": "calls",
							"type": "tuple[]"
						}
					],
					"name": "cook",
					"outputs": [],
					"stateMutability": "nonpayable",
					"type": "function"
				},
				{
					"inputs": [
						{
							"components": [
								{
									"internalType": "uint256",
									"name": "tokenId",
									"type": "uint256"
								},
								{
									"internalType": "uint256",
									"name": "amount",
									"type": "uint256"
								}
							],
							"internalType": "struct TokenOp[]",
							"name": "ops",
							"type": "tuple[]"
						}
					],
					"name": "credit",
					"outputs": [],
					"stateMutability": "nonpayable",
					"type": "function"
				},
				{
					"inputs": [
						{
							"internalType": "uint256",
							"name": "id",
							"type": "uint256"
						},
						{
							"internalType": "uint256",
							"name": "amount",
							"type": "uint256"
						}
					],
					"name": "credit",
					"outputs": [],
					"stateMutability": "nonpayable",
					"type": "function"
				},
				{
					"inputs": [
						{
							"components": [
								{
									"internalType": "uint256",
									"name": "tokenId",
									"type": "uint256"
								},
								{
									"internalType": "uint256",
									"name": "amount",
									"type": "uint256"
								}
							],
							"internalType": "struct TokenOp[]",
							"name": "ops",
							"type": "tuple[]"
						}
					],
					"name": "debit",
					"outputs": [],
					"stateMutability": "nonpayable",
					"type": "function"
				},
				{
					"inputs": [
						{
							"internalType": "uint256",
							"name": "id",
							"type": "uint256"
						},
						{
							"internalType": "uint256",
							"name": "amount",
							"type": "uint256"
						}
					],
					"name": "debit",
					"outputs": [],
					"stateMutability": "nonpayable",
					"type": "function"
				},
				{
					"inputs": [
						{
							"internalType": "uint256",
							"name": "slot",
							"type": "uint256"
						}
					],
					"name": "exttload",
					"outputs": [
						{
							"internalType": "uint256",
							"name": "value",
							"type": "uint256"
						}
					],
					"stateMutability": "view",
					"type": "function"
				},
				{
					"inputs": [
						{
							"internalType": "address",
							"name": "",
							"type": "address"
						},
						{
							"internalType": "address",
							"name": "",
							"type": "address"
						}
					],
					"name": "isOperator",
					"outputs": [
						{
							"internalType": "bool",
							"name": "",
							"type": "bool"
						}
					],
					"stateMutability": "view",
					"type": "function"
				},
				{
					"inputs": [
						{
							"internalType": "address",
							"name": "to",
							"type": "address"
						},
						{
							"internalType": "uint256",
							"name": "tokenId",
							"type": "uint256"
						},
						{
							"internalType": "uint256",
							"name": "amount",
							"type": "uint256"
						}
					],
					"name": "mint",
					"outputs": [],
					"stateMutability": "nonpayable",
					"type": "function"
				},
				{
					"inputs": [
						{
							"internalType": "address",
							"name": "to",
							"type": "address"
						},
						{
							"components": [
								{
									"internalType": "uint256",
									"name": "tokenId",
									"type": "uint256"
								},
								{
									"internalType": "uint256",
									"name": "amount",
									"type": "uint256"
								}
							],
							"internalType": "struct TokenOp[]",
							"name": "ops",
							"type": "tuple[]"
						}
					],
					"name": "mint",
					"outputs": [],
					"stateMutability": "nonpayable",
					"type": "function"
				},
				{
					"inputs": [
						{
							"internalType": "address",
							"name": "operator",
							"type": "address"
						},
						{
							"internalType": "bool",
							"name": "approved",
							"type": "bool"
						}
					],
					"name": "setOperator",
					"outputs": [
						{
							"internalType": "bool",
							"name": "",
							"type": "bool"
						}
					],
					"stateMutability": "nonpayable",
					"type": "function"
				},
				{
					"inputs": [
						{
							"internalType": "uint256",
							"name": "",
							"type": "uint256"
						}
					],
					"name": "tokenStorage",
					"outputs": [
						{
							"internalType": "uint256",
							"name": "",
							"type": "uint256"
						}
					],
					"stateMutability": "view",
					"type": "function"
				},
				{
					"inputs": [
						{
							"internalType": "address",
							"name": "receiver",
							"type": "address"
						},
						{
							"internalType": "uint256",
							"name": "id",
							"type": "uint256"
						},
						{
							"internalType": "uint256",
							"name": "amount",
							"type": "uint256"
						}
					],
					"name": "transfer",
					"outputs": [
						{
							"internalType": "bool",
							"name": "",
							"type": "bool"
						}
					],
					"stateMutability": "nonpayable",
					"type": "function"
				},
				{
					"inputs": [
						{
							"internalType": "address",
							"name": "sender",
							"type": "address"
						},
						{
							"internalType": "address",
							"name": "receiver",
							"type": "address"
						},
						{
							"internalType": "uint256",
							"name": "id",
							"type": "uint256"
						},
						{
							"internalType": "uint256",
							"name": "amount",
							"type": "uint256"
						}
					],
					"name": "transferFrom",
					"outputs": [
						{
							"internalType": "bool",
							"name": "",
							"type": "bool"
						}
					],
					"stateMutability": "nonpayable",
					"type": "function"
				}
			],
			"devdoc": {
				"kind": "dev",
				"methods": {
					"cook(address,(address,address,bytes,bytes32)[])": {
						"details": "must either be the party represented in each of these calls,      or an operator of the calls[i].sender",
						"params": {
							"calls": "the set of calls to be made"
						}
					},
					"mint(address,(uint256,uint256)[])": {
						"details": "keep in mind that burning (inverting this action) is only possible       via cook invoked by the user or their operator",
						"params": {
							"ops": "the array of Blueprint's token ids and amounts to mint",
							"to": "the address to mint to"
						}
					},
					"mint(address,uint256,uint256)": {
						"details": "keep in mind that burning (inverting this action) is only possible       via cook invoked by the user or their operator",
						"params": {
							"amount": "the token amount to mint",
							"to": "the address to mint to",
							"tokenId": "the Blueprint's token id to mint"
						}
					},
					"transfer(address,uint256,uint256)": {
						"details": "reverts on failure",
						"returns": {
							"_0": "is always true if didn't revert"
						}
					}
				},
				"version": 1
			},
			"evm": {
				"assembly": "    /* \"src/BlueprintManager.sol\":371:12669  contract BlueprintManager is IBlueprintManager, FlashAccounting {... */\n  mstore(0x40, 0x80)\n  callvalue\n  dup1\n  iszero\n  tag_1\n  jumpi\n  revert(0x00, 0x00)\ntag_1:\n  pop\n  dataSize(sub_0)\n  dup1\n  dataOffset(sub_0)\n  0x00\n  codecopy\n  0x00\n  return\nstop\n\nsub_0: assembly {\n        /* \"src/BlueprintManager.sol\":371:12669  contract BlueprintManager is IBlueprintManager, FlashAccounting {... */\n      mstore(0x40, 0x80)\n      callvalue\n      dup1\n      iszero\n      tag_1\n      jumpi\n      revert(0x00, 0x00)\n    tag_1:\n      pop\n      jumpi(tag_2, lt(calldatasize, 0x04))\n      shr(0xe0, calldataload(0x00))\n      dup1\n      0x598af9e7\n      gt\n      tag_22\n      jumpi\n      dup1\n      0xb6363cf2\n      gt\n      tag_23\n      jumpi\n      dup1\n      0xb6363cf2\n      eq\n      tag_17\n      jumpi\n      dup1\n      0xe3033041\n      eq\n      tag_18\n      jumpi\n      dup1\n      0xe747f31c\n      eq\n      tag_19\n      jumpi\n      dup1\n      0xf3178dd1\n      eq\n      tag_20\n      jumpi\n      dup1\n      0xfe99049a\n      eq\n      tag_21\n      jumpi\n      jump(tag_2)\n    tag_23:\n      dup1\n      0x598af9e7\n      eq\n      tag_12\n      jumpi\n      dup1\n      0x62ba62e5\n      eq\n      tag_13\n      jumpi\n      dup1\n      0xa42bff86\n      eq\n      tag_14\n      jumpi\n      dup1\n      0xab7ccc1c\n      eq\n      tag_15\n      jumpi\n      dup1\n      0xb390c0ab\n      eq\n      tag_16\n      jumpi\n      jump(tag_2)\n    tag_22:\n      dup1\n      0x36223ac2\n      gt\n      tag_24\n      jumpi\n      dup1\n      0x36223ac2\n      eq\n      tag_7\n      jumpi\n      dup1\n      0x426a8493\n      eq\n      tag_8\n      jumpi\n      dup1\n      0x52d2accf\n      eq\n      tag_9\n      jumpi\n      dup1\n      0x558a7297\n      eq\n      tag_10\n      jumpi\n      dup1\n      0x56cbfe3e\n      eq\n      tag_11\n      jumpi\n      jump(tag_2)\n    tag_24:\n      dup1\n      0x095bcdb6\n      eq\n      tag_3\n      jumpi\n      dup1\n      0x156e29f6\n      eq\n      tag_4\n      jumpi\n      dup1\n      0x2d760d57\n      eq\n      tag_5\n      jumpi\n      dup1\n      0x355f580e\n      eq\n      tag_6\n      jumpi\n    tag_2:\n      revert(0x00, 0x00)\n        /* \"src/BlueprintManager.sol\":3242:3452  function transfer(... */\n    tag_3:\n      tag_25\n      0x04\n      dup1\n      calldatasize\n      sub\n      dup2\n      add\n      swap1\n      tag_26\n      swap2\n      swap1\n      tag_27\n      jump\t// in\n    tag_26:\n      tag_28\n      jump\t// in\n    tag_25:\n      mload(0x40)\n      tag_29\n      swap2\n      swap1\n      tag_30\n      jump\t// in\n    tag_29:\n      mload(0x40)\n      dup1\n      swap2\n      sub\n      swap1\n      return\n        /* \"src/BlueprintManager.sol\":11190:11373  function mint(address to, uint256 tokenId, uint256 amount) external {... */\n    tag_4:\n      tag_31\n      0x04\n      dup1\n      calldatasize\n      sub\n      dup2\n      add\n      swap1\n      tag_32\n      swap2\n      swap1\n      tag_27\n      jump\t// in\n    tag_32:\n      tag_33\n      jump\t// in\n    tag_31:\n      stop\n        /* \"src/BlueprintManager.sol\":648:715  mapping(address => mapping(uint256 => uint256[2])) public balanceOf */\n    tag_5:\n      tag_34\n      0x04\n      dup1\n      calldatasize\n      sub\n      dup2\n      add\n      swap1\n      tag_35\n      swap2\n      swap1\n      tag_27\n      jump\t// in\n    tag_35:\n      tag_36\n      jump\t// in\n    tag_34:\n      mload(0x40)\n      tag_37\n      swap2\n      swap1\n      tag_38\n      jump\t// in\n    tag_37:\n      mload(0x40)\n      dup1\n      swap2\n      sub\n      swap1\n      return\n        /* \"src/BlueprintManager.sol\":9229:9852  function credit(TokenOp[] calldata ops) external {... */\n    tag_6:\n      tag_39\n      0x04\n      dup1\n      calldatasize\n      sub\n      dup2\n      add\n      swap1\n      tag_40\n      swap2\n      swap1\n      tag_41\n      jump\t// in\n    tag_40:\n      tag_42\n      jump\t// in\n    tag_39:\n      stop\n        /* \"src/BlueprintManager.sol\":11992:12411  function burn(TokenOp[] calldata ops) external {... */\n    tag_7:\n      tag_43\n      0x04\n      dup1\n      calldatasize\n      sub\n      dup2\n      add\n      swap1\n      tag_44\n      swap2\n      swap1\n      tag_41\n      jump\t// in\n    tag_44:\n      tag_45\n      jump\t// in\n    tag_43:\n      stop\n        /* \"src/BlueprintManager.sol\":3819:4078  function approve(... */\n    tag_8:\n      tag_46\n      0x04\n      dup1\n      calldatasize\n      sub\n      dup2\n      add\n      swap1\n      tag_47\n      swap2\n      swap1\n      tag_27\n      jump\t// in\n    tag_47:\n      tag_48\n      jump\t// in\n    tag_46:\n      mload(0x40)\n      tag_49\n      swap2\n      swap1\n      tag_30\n      jump\t// in\n    tag_49:\n      mload(0x40)\n      dup1\n      swap2\n      sub\n      swap1\n      return\n        /* \"src/BlueprintManager.sol\":4686:4910  function cook(BlueprintCall[] calldata calls) external {... */\n    tag_9:\n      tag_50\n      0x04\n      dup1\n      calldatasize\n      sub\n      dup2\n      add\n      swap1\n      tag_51\n      swap2\n      swap1\n      tag_52\n      jump\t// in\n    tag_51:\n      tag_53\n      jump\t// in\n    tag_50:\n      stop\n        /* \"src/BlueprintManager.sol\":4084:4329  function setOperator(... */\n    tag_10:\n      tag_54\n      0x04\n      dup1\n      calldatasize\n      sub\n      dup2\n      add\n      swap1\n      tag_55\n      swap2\n      swap1\n      tag_56\n      jump\t// in\n    tag_55:\n      tag_57\n      jump\t// in\n    tag_54:\n      mload(0x40)\n      tag_58\n      swap2\n      swap1\n      tag_30\n      jump\t// in\n    tag_58:\n      mload(0x40)\n      dup1\n      swap2\n      sub\n      swap1\n      return\n        /* \"src/BlueprintManager.sol\":863:910  mapping(uint256 => uint256) public tokenStorage */\n    tag_11:\n      tag_59\n      0x04\n      dup1\n      calldatasize\n      sub\n      dup2\n      add\n      swap1\n      tag_60\n      swap2\n      swap1\n      tag_61\n      jump\t// in\n    tag_60:\n      tag_62\n      jump\t// in\n    tag_59:\n      mload(0x40)\n      tag_63\n      swap2\n      swap1\n      tag_38\n      jump\t// in\n    tag_63:\n      mload(0x40)\n      dup1\n      swap2\n      sub\n      swap1\n      return\n        /* \"src/BlueprintManager.sol\":764:856  mapping(address => mapping(address => mapping(uint256 => uint256)))... */\n    tag_12:\n      tag_64\n      0x04\n      dup1\n      calldatasize\n      sub\n      dup2\n      add\n      swap1\n      tag_65\n      swap2\n      swap1\n      tag_66\n      jump\t// in\n    tag_65:\n      tag_67\n      jump\t// in\n    tag_64:\n      mload(0x40)\n      tag_68\n      swap2\n      swap1\n      tag_38\n      jump\t// in\n    tag_68:\n      mload(0x40)\n      dup1\n      swap2\n      sub\n      swap1\n      return\n        /* \"src/BlueprintManager.sol\":4335:4680  function cook(address realizer, BlueprintCall[] calldata calls) external {... */\n    tag_13:\n      tag_69\n      0x04\n      dup1\n      calldatasize\n      sub\n      dup2\n      add\n      swap1\n      tag_70\n      swap2\n      swap1\n      tag_71\n      jump\t// in\n    tag_70:\n      tag_72\n      jump\t// in\n    tag_69:\n      stop\n        /* \"src/FlashAccounting.sol\":762:917  function exttload(uint256 slot) external view returns (uint256 value) {... */\n    tag_14:\n      tag_73\n      0x04\n      dup1\n      calldatasize\n      sub\n      dup2\n      add\n      swap1\n      tag_74\n      swap2\n      swap1\n      tag_61\n      jump\t// in\n    tag_74:\n      tag_75\n      jump\t// in\n    tag_73:\n      mload(0x40)\n      tag_76\n      swap2\n      swap1\n      tag_38\n      jump\t// in\n    tag_76:\n      mload(0x40)\n      dup1\n      swap2\n      sub\n      swap1\n      return\n        /* \"src/BlueprintManager.sol\":8620:9223  function credit(uint256 id, uint256 amount) external {... */\n    tag_15:\n      tag_77\n      0x04\n      dup1\n      calldatasize\n      sub\n      dup2\n      add\n      swap1\n      tag_78\n      swap2\n      swap1\n      tag_79\n      jump\t// in\n    tag_78:\n      tag_80\n      jump\t// in\n    tag_77:\n      stop\n        /* \"src/BlueprintManager.sol\":11799:11986  function burn(uint256 tokenId, uint256 amount) external {... */\n    tag_16:\n      tag_81\n      0x04\n      dup1\n      calldatasize\n      sub\n      dup2\n      add\n      swap1\n      tag_82\n      swap2\n      swap1\n      tag_79\n      jump\t// in\n    tag_82:\n      tag_83\n      jump\t// in\n    tag_81:\n      stop\n        /* \"src/BlueprintManager.sol\":539:601  mapping(address => mapping(address => bool)) public isOperator */\n    tag_17:\n      tag_84\n      0x04\n      dup1\n      calldatasize\n      sub\n      dup2\n      add\n      swap1\n      tag_85\n      swap2\n      swap1\n      tag_86\n      jump\t// in\n    tag_85:\n      tag_87\n      jump\t// in\n    tag_84:\n      mload(0x40)\n      tag_88\n      swap2\n      swap1\n      tag_30\n      jump\t// in\n    tag_88:\n      mload(0x40)\n      dup1\n      swap2\n      sub\n      swap1\n      return\n        /* \"src/BlueprintManager.sol\":10514:11184  function debit(TokenOp[] calldata ops) external {... */\n    tag_18:\n      tag_89\n      0x04\n      dup1\n      calldatasize\n      sub\n      dup2\n      add\n      swap1\n      tag_90\n      swap2\n      swap1\n      tag_41\n      jump\t// in\n    tag_90:\n      tag_91\n      jump\t// in\n    tag_89:\n      stop\n        /* \"src/BlueprintManager.sol\":9903:10463  function debit(uint256 id, uint256 amount) external {... */\n    tag_19:\n      tag_92\n      0x04\n      dup1\n      calldatasize\n      sub\n      dup2\n      add\n      swap1\n      tag_93\n      swap2\n      swap1\n      tag_79\n      jump\t// in\n    tag_93:\n      tag_94\n      jump\t// in\n    tag_92:\n      stop\n        /* \"src/BlueprintManager.sol\":11379:11793  function mint(address to, TokenOp[] calldata ops) external {... */\n    tag_20:\n      tag_95\n      0x04\n      dup1\n      calldatasize\n      sub\n      dup2\n      add\n      swap1\n      tag_96\n      swap2\n      swap1\n      tag_97\n      jump\t// in\n    tag_96:\n      tag_98\n      jump\t// in\n    tag_95:\n      stop\n        /* \"src/BlueprintManager.sol\":3458:3813  function transferFrom(... */\n    tag_21:\n      tag_99\n      0x04\n      dup1\n      calldatasize\n      sub\n      dup2\n      add\n      swap1\n      tag_100\n      swap2\n      swap1\n      tag_101\n      jump\t// in\n    tag_100:\n      tag_102\n      jump\t// in\n    tag_99:\n      mload(0x40)\n      tag_103\n      swap2\n      swap1\n      tag_30\n      jump\t// in\n    tag_103:\n      mload(0x40)\n      dup1\n      swap2\n      sub\n      swap1\n      return\n        /* \"src/BlueprintManager.sol\":3242:3452  function transfer(... */\n    tag_28:\n        /* \"src/BlueprintManager.sol\":3360:3364  bool */\n      0x00\n        /* \"src/BlueprintManager.sol\":3376:3423  _transferFrom(msg.sender, receiver, id, amount) */\n      tag_105\n        /* \"src/BlueprintManager.sol\":3390:3400  msg.sender */\n      caller\n        /* \"src/BlueprintManager.sol\":3402:3410  receiver */\n      dup6\n        /* \"src/BlueprintManager.sol\":3412:3414  id */\n      dup6\n        /* \"src/BlueprintManager.sol\":3416:3422  amount */\n      dup6\n        /* \"src/BlueprintManager.sol\":3376:3389  _transferFrom */\n      tag_106\n        /* \"src/BlueprintManager.sol\":3376:3423  _transferFrom(msg.sender, receiver, id, amount) */\n      jump\t// in\n    tag_105:\n        /* \"src/BlueprintManager.sol\":3441:3445  true */\n      0x01\n        /* \"src/BlueprintManager.sol\":3434:3445  return true */\n      swap1\n      pop\n        /* \"src/BlueprintManager.sol\":3242:3452  function transfer(... */\n      swap4\n      swap3\n      pop\n      pop\n      pop\n      jump\t// out\n        /* \"src/BlueprintManager.sol\":11190:11373  function mint(address to, uint256 tokenId, uint256 amount) external {... */\n    tag_33:\n        /* \"src/BlueprintManager.sol\":11268:11326  _mint(to, HashLib.getTokenId(msg.sender, tokenId), amount) */\n      tag_108\n        /* \"src/BlueprintManager.sol\":11274:11276  to */\n      dup4\n        /* \"src/BlueprintManager.sol\":11278:11317  HashLib.getTokenId(msg.sender, tokenId) */\n      tag_109\n        /* \"src/BlueprintManager.sol\":11297:11307  msg.sender */\n      caller\n        /* \"src/BlueprintManager.sol\":11309:11316  tokenId */\n      dup6\n        /* \"src/BlueprintManager.sol\":11278:11296  HashLib.getTokenId */\n      tag_110\n        /* \"src/BlueprintManager.sol\":11278:11317  HashLib.getTokenId(msg.sender, tokenId) */\n      jump\t// in\n    tag_109:\n        /* \"src/BlueprintManager.sol\":11319:11325  amount */\n      dup4\n        /* \"src/BlueprintManager.sol\":11268:11273  _mint */\n      tag_111\n        /* \"src/BlueprintManager.sol\":11268:11326  _mint(to, HashLib.getTokenId(msg.sender, tokenId), amount) */\n      jump\t// in\n    tag_108:\n        /* \"src/BlueprintManager.sol\":11350:11357  tokenId */\n      dup2\n        /* \"src/BlueprintManager.sol\":11346:11348  to */\n      dup4\n        /* \"src/BlueprintManager.sol\":11341:11366  Mint(to, tokenId, amount) */\n      0xffffffffffffffffffffffffffffffffffffffff\n      and\n      0x4c209b5fc8ad50758f13e2e1088ba56a560dff690a1c6fef26394f4c03821c4f\n        /* \"src/BlueprintManager.sol\":11359:11365  amount */\n      dup4\n        /* \"src/BlueprintManager.sol\":11341:11366  Mint(to, tokenId, amount) */\n      mload(0x40)\n      tag_112\n      swap2\n      swap1\n      tag_38\n      jump\t// in\n    tag_112:\n      mload(0x40)\n      dup1\n      swap2\n      sub\n      swap1\n      log3\n        /* \"src/BlueprintManager.sol\":11190:11373  function mint(address to, uint256 tokenId, uint256 amount) external {... */\n      pop\n      pop\n      pop\n      jump\t// out\n        /* \"src/BlueprintManager.sol\":648:715  mapping(address => mapping(uint256 => uint256[2])) public balanceOf */\n    tag_36:\n      mstore(0x20, 0x01)\n      dup3\n      0x00\n      mstore\n      mstore(0x20, keccak256(0x00, 0x40))\n      dup2\n      0x00\n      mstore\n      keccak256(0x00, 0x40)\n      dup2\n      0x02\n      dup2\n      lt\n      tag_113\n      jumpi\n      0x00\n      dup1\n      revert\n    tag_113:\n      add\n      0x00\n      swap3\n      pop\n      swap3\n      pop\n      pop\n      pop\n      sload\n      dup2\n      jump\t// out\n        /* \"src/BlueprintManager.sol\":9229:9852  function credit(TokenOp[] calldata ops) external {... */\n    tag_42:\n        /* \"src/BlueprintManager.sol\":9288:9308  FlashSession session */\n      0x00\n        /* \"src/BlueprintManager.sol\":9311:9330  getCurrentSession() */\n      tag_116\n        /* \"src/BlueprintManager.sol\":9311:9328  getCurrentSession */\n      tag_117\n        /* \"src/BlueprintManager.sol\":9311:9330  getCurrentSession() */\n      jump\t// in\n    tag_116:\n        /* \"src/BlueprintManager.sol\":9288:9330  FlashSession session = getCurrentSession() */\n      swap1\n      pop\n        /* \"src/BlueprintManager.sol\":9355:9383  FlashUserSession userSession */\n      0x00\n        /* \"src/BlueprintManager.sol\":9397:9414  UserClue userClue */\n      0x00\n        /* \"src/BlueprintManager.sol\":9427:9469  initializeUserSession(session, msg.sender) */\n      tag_118\n        /* \"src/BlueprintManager.sol\":9449:9456  session */\n      dup4\n        /* \"src/BlueprintManager.sol\":9458:9468  msg.sender */\n      caller\n        /* \"src/BlueprintManager.sol\":9427:9448  initializeUserSession */\n      tag_119\n        /* \"src/BlueprintManager.sol\":9427:9469  initializeUserSession(session, msg.sender) */\n      jump\t// in\n    tag_118:\n        /* \"src/BlueprintManager.sol\":9341:9469  (... */\n      swap2\n      pop\n      swap2\n      pop\n        /* \"src/BlueprintManager.sol\":9480:9491  uint256 len */\n      0x00\n        /* \"src/BlueprintManager.sol\":9494:9497  ops */\n      dup6\n      dup6\n        /* \"src/BlueprintManager.sol\":9494:9504  ops.length */\n      swap1\n      pop\n        /* \"src/BlueprintManager.sol\":9480:9504  uint256 len = ops.length */\n      swap1\n      pop\n        /* \"src/BlueprintManager.sol\":9519:9528  uint256 i */\n      0x00\n        /* \"src/BlueprintManager.sol\":9531:9532  0 */\n      0x00\n        /* \"src/BlueprintManager.sol\":9519:9532  uint256 i = 0 */\n      swap1\n      pop\n        /* \"src/BlueprintManager.sol\":9514:9801  for (uint256 i = 0; i < len; i++) {... */\n    tag_120:\n        /* \"src/BlueprintManager.sol\":9538:9541  len */\n      dup2\n        /* \"src/BlueprintManager.sol\":9534:9535  i */\n      dup2\n        /* \"src/BlueprintManager.sol\":9534:9541  i < len */\n      lt\n        /* \"src/BlueprintManager.sol\":9514:9801  for (uint256 i = 0; i < len; i++) {... */\n      iszero\n      tag_121\n      jumpi\n        /* \"src/BlueprintManager.sol\":9562:9581  TokenOp calldata op */\n      calldatasize\n        /* \"src/BlueprintManager.sol\":9584:9587  ops */\n      dup8\n      dup8\n        /* \"src/BlueprintManager.sol\":9588:9589  i */\n      dup4\n        /* \"src/BlueprintManager.sol\":9584:9590  ops[i] */\n      dup2\n      dup2\n      lt\n      tag_123\n      jumpi\n      tag_124\n      tag_125\n      jump\t// in\n    tag_124:\n    tag_123:\n      swap1\n      pop\n      0x40\n      mul\n      add\n        /* \"src/BlueprintManager.sol\":9562:9590  TokenOp calldata op = ops[i] */\n      swap1\n      pop\n        /* \"src/BlueprintManager.sol\":9604:9614  uint256 id */\n      0x00\n        /* \"src/BlueprintManager.sol\":9617:9619  op */\n      dup2\n        /* \"src/BlueprintManager.sol\":9617:9627  op.tokenId */\n      0x00\n      add\n      calldataload\n        /* \"src/BlueprintManager.sol\":9604:9627  uint256 id = op.tokenId */\n      swap1\n      pop\n        /* \"src/BlueprintManager.sol\":9641:9655  uint256 amount */\n      0x00\n        /* \"src/BlueprintManager.sol\":9658:9660  op */\n      dup3\n        /* \"src/BlueprintManager.sol\":9658:9667  op.amount */\n      0x20\n      add\n      calldataload\n        /* \"src/BlueprintManager.sol\":9641:9667  uint256 amount = op.amount */\n      swap1\n      pop\n        /* \"src/BlueprintManager.sol\":9692:9747  addUserDebitWithClue(userSession, userClue, id, amount) */\n      tag_126\n        /* \"src/BlueprintManager.sol\":9713:9724  userSession */\n      dup8\n        /* \"src/BlueprintManager.sol\":9726:9734  userClue */\n      dup8\n        /* \"src/BlueprintManager.sol\":9736:9738  id */\n      dup5\n        /* \"src/BlueprintManager.sol\":9740:9746  amount */\n      dup5\n        /* \"src/BlueprintManager.sol\":9692:9712  addUserDebitWithClue */\n      tag_127\n        /* \"src/BlueprintManager.sol\":9692:9747  addUserDebitWithClue(userSession, userClue, id, amount) */\n      jump\t// in\n    tag_126:\n        /* \"src/BlueprintManager.sol\":9681:9747  userClue = addUserDebitWithClue(userSession, userClue, id, amount) */\n      swap6\n      pop\n        /* \"src/BlueprintManager.sol\":9761:9790  _mint(msg.sender, id, amount) */\n      tag_128\n        /* \"src/BlueprintManager.sol\":9767:9777  msg.sender */\n      caller\n        /* \"src/BlueprintManager.sol\":9779:9781  id */\n      dup4\n        /* \"src/BlueprintManager.sol\":9783:9789  amount */\n      dup4\n        /* \"src/BlueprintManager.sol\":9761:9766  _mint */\n      tag_111\n        /* \"src/BlueprintManager.sol\":9761:9790  _mint(msg.sender, id, amount) */\n      jump\t// in\n    tag_128:\n        /* \"src/BlueprintManager.sol\":9548:9801  {... */\n      pop\n      pop\n      pop\n        /* \"src/BlueprintManager.sol\":9543:9546  i++ */\n      dup1\n      dup1\n      0x01\n      add\n      swap2\n      pop\n      pop\n        /* \"src/BlueprintManager.sol\":9514:9801  for (uint256 i = 0; i < len; i++) {... */\n      jump(tag_120)\n    tag_121:\n      pop\n        /* \"src/BlueprintManager.sol\":9810:9845  saveUserClue(userSession, userClue) */\n      tag_129\n        /* \"src/BlueprintManager.sol\":9823:9834  userSession */\n      dup4\n        /* \"src/BlueprintManager.sol\":9836:9844  userClue */\n      dup4\n        /* \"src/BlueprintManager.sol\":9810:9822  saveUserClue */\n      tag_130\n        /* \"src/BlueprintManager.sol\":9810:9845  saveUserClue(userSession, userClue) */\n      jump\t// in\n    tag_129:\n        /* \"src/BlueprintManager.sol\":9278:9852  {... */\n      pop\n      pop\n      pop\n      pop\n        /* \"src/BlueprintManager.sol\":9229:9852  function credit(TokenOp[] calldata ops) external {... */\n      pop\n      pop\n      jump\t// out\n        /* \"src/BlueprintManager.sol\":11992:12411  function burn(TokenOp[] calldata ops) external {... */\n    tag_45:\n        /* \"src/BlueprintManager.sol\":12049:12060  uint256 len */\n      0x00\n        /* \"src/BlueprintManager.sol\":12063:12066  ops */\n      dup3\n      dup3\n        /* \"src/BlueprintManager.sol\":12063:12073  ops.length */\n      swap1\n      pop\n        /* \"src/BlueprintManager.sol\":12049:12073  uint256 len = ops.length */\n      swap1\n      pop\n        /* \"src/BlueprintManager.sol\":12089:12098  uint256 i */\n      0x00\n        /* \"src/BlueprintManager.sol\":12101:12102  0 */\n      0x00\n        /* \"src/BlueprintManager.sol\":12089:12102  uint256 i = 0 */\n      swap1\n      pop\n        /* \"src/BlueprintManager.sol\":12084:12405  for (uint256 i = 0; i < len; i++) {... */\n    tag_132:\n        /* \"src/BlueprintManager.sol\":12108:12111  len */\n      dup2\n        /* \"src/BlueprintManager.sol\":12104:12105  i */\n      dup2\n        /* \"src/BlueprintManager.sol\":12104:12111  i < len */\n      lt\n        /* \"src/BlueprintManager.sol\":12084:12405  for (uint256 i = 0; i < len; i++) {... */\n      iszero\n      tag_133\n      jumpi\n        /* \"src/BlueprintManager.sol\":12150:12160  uint256 id */\n      0x00\n        /* \"src/BlueprintManager.sol\":12163:12209  HashLib.getTokenId(msg.sender, ops[i].tokenId) */\n      tag_135\n        /* \"src/BlueprintManager.sol\":12182:12192  msg.sender */\n      caller\n        /* \"src/BlueprintManager.sol\":12194:12197  ops */\n      dup7\n      dup7\n        /* \"src/BlueprintManager.sol\":12198:12199  i */\n      dup6\n        /* \"src/BlueprintManager.sol\":12194:12200  ops[i] */\n      dup2\n      dup2\n      lt\n      tag_136\n      jumpi\n      tag_137\n      tag_125\n      jump\t// in\n    tag_137:\n    tag_136:\n      swap1\n      pop\n      0x40\n      mul\n      add\n        /* \"src/BlueprintManager.sol\":12194:12208  ops[i].tokenId */\n      0x00\n      add\n      calldataload\n        /* \"src/BlueprintManager.sol\":12163:12181  HashLib.getTokenId */\n      tag_110\n        /* \"src/BlueprintManager.sol\":12163:12209  HashLib.getTokenId(msg.sender, ops[i].tokenId) */\n      jump\t// in\n    tag_135:\n        /* \"src/BlueprintManager.sol\":12150:12209  uint256 id = HashLib.getTokenId(msg.sender, ops[i].tokenId) */\n      swap1\n      pop\n        /* \"src/BlueprintManager.sol\":12227:12263  _burn(msg.sender, id, ops[i].amount) */\n      tag_138\n        /* \"src/BlueprintManager.sol\":12233:12243  msg.sender */\n      caller\n        /* \"src/BlueprintManager.sol\":12245:12247  id */\n      dup3\n        /* \"src/BlueprintManager.sol\":12249:12252  ops */\n      dup8\n      dup8\n        /* \"src/BlueprintManager.sol\":12253:12254  i */\n      dup7\n        /* \"src/BlueprintManager.sol\":12249:12255  ops[i] */\n      dup2\n      dup2\n      lt\n      tag_139\n      jumpi\n      tag_140\n      tag_125\n      jump\t// in\n    tag_140:\n    tag_139:\n      swap1\n      pop\n      0x40\n      mul\n      add\n        /* \"src/BlueprintManager.sol\":12249:12262  ops[i].amount */\n      0x20\n      add\n      calldataload\n        /* \"src/BlueprintManager.sol\":12227:12232  _burn */\n      tag_141\n        /* \"src/BlueprintManager.sol\":12227:12263  _burn(msg.sender, id, ops[i].amount) */\n      jump\t// in\n    tag_138:\n        /* \"src/BlueprintManager.sol\":12304:12307  ops */\n      dup5\n      dup5\n        /* \"src/BlueprintManager.sol\":12308:12309  i */\n      dup4\n        /* \"src/BlueprintManager.sol\":12304:12310  ops[i] */\n      dup2\n      dup2\n      lt\n      tag_142\n      jumpi\n      tag_143\n      tag_125\n      jump\t// in\n    tag_143:\n    tag_142:\n      swap1\n      pop\n      0x40\n      mul\n      add\n        /* \"src/BlueprintManager.sol\":12304:12318  ops[i].tokenId */\n      0x00\n      add\n      calldataload\n        /* \"src/BlueprintManager.sol\":12292:12302  msg.sender */\n      caller\n        /* \"src/BlueprintManager.sol\":12287:12334  Burn(msg.sender, ops[i].tokenId, ops[i].amount) */\n      0xffffffffffffffffffffffffffffffffffffffff\n      and\n      0x49995e5dd6158cf69ad3e9777c46755a1a826a446c6416992167462dad033b2a\n        /* \"src/BlueprintManager.sol\":12320:12323  ops */\n      dup8\n      dup8\n        /* \"src/BlueprintManager.sol\":12324:12325  i */\n      dup7\n        /* \"src/BlueprintManager.sol\":12320:12326  ops[i] */\n      dup2\n      dup2\n      lt\n      tag_144\n      jumpi\n      tag_145\n      tag_125\n      jump\t// in\n    tag_145:\n    tag_144:\n      swap1\n      pop\n      0x40\n      mul\n      add\n        /* \"src/BlueprintManager.sol\":12320:12333  ops[i].amount */\n      0x20\n      add\n      calldataload\n        /* \"src/BlueprintManager.sol\":12287:12334  Burn(msg.sender, ops[i].tokenId, ops[i].amount) */\n      mload(0x40)\n      tag_146\n      swap2\n      swap1\n      tag_38\n      jump\t// in\n    tag_146:\n      mload(0x40)\n      dup1\n      swap2\n      sub\n      swap1\n      log3\n        /* \"src/BlueprintManager.sol\":12132:12395  {... */\n      pop\n        /* \"src/BlueprintManager.sol\":12113:12116  i++ */\n      dup1\n      dup1\n      0x01\n      add\n      swap2\n      pop\n      pop\n        /* \"src/BlueprintManager.sol\":12084:12405  for (uint256 i = 0; i < len; i++) {... */\n      jump(tag_132)\n    tag_133:\n      pop\n        /* \"src/BlueprintManager.sol\":12039:12411  {... */\n      pop\n        /* \"src/BlueprintManager.sol\":11992:12411  function burn(TokenOp[] calldata ops) external {... */\n      pop\n      pop\n      jump\t// out\n        /* \"src/BlueprintManager.sol\":3819:4078  function approve(... */\n    tag_48:\n        /* \"src/BlueprintManager.sol\":3935:3939  bool */\n      0x00\n        /* \"src/BlueprintManager.sol\":3988:3994  amount */\n      dup2\n        /* \"src/BlueprintManager.sol\":3951:3960  allowance */\n      0x02\n        /* \"src/BlueprintManager.sol\":3951:3972  allowance[msg.sender] */\n      0x00\n        /* \"src/BlueprintManager.sol\":3961:3971  msg.sender */\n      caller\n        /* \"src/BlueprintManager.sol\":3951:3972  allowance[msg.sender] */\n      0xffffffffffffffffffffffffffffffffffffffff\n      and\n      0xffffffffffffffffffffffffffffffffffffffff\n      and\n      dup2\n      mstore\n      0x20\n      add\n      swap1\n      dup2\n      mstore\n      0x20\n      add\n      0x00\n      keccak256\n        /* \"src/BlueprintManager.sol\":3951:3981  allowance[msg.sender][spender] */\n      0x00\n        /* \"src/BlueprintManager.sol\":3973:3980  spender */\n      dup7\n        /* \"src/BlueprintManager.sol\":3951:3981  allowance[msg.sender][spender] */\n      0xffffffffffffffffffffffffffffffffffffffff\n      and\n      0xffffffffffffffffffffffffffffffffffffffff\n      and\n      dup2\n      mstore\n      0x20\n      add\n      swap1\n      dup2\n      mstore\n      0x20\n      add\n      0x00\n      keccak256\n        /* \"src/BlueprintManager.sol\":3951:3985  allowance[msg.sender][spender][id] */\n      0x00\n        /* \"src/BlueprintManager.sol\":3982:3984  id */\n      dup6\n        /* \"src/BlueprintManager.sol\":3951:3985  allowance[msg.sender][spender][id] */\n      dup2\n      mstore\n      0x20\n      add\n      swap1\n      dup2\n      mstore\n      0x20\n      add\n      0x00\n      keccak256\n        /* \"src/BlueprintManager.sol\":3951:3994  allowance[msg.sender][spender][id] = amount */\n      dup2\n      swap1\n      sstore\n      pop\n        /* \"src/BlueprintManager.sol\":4039:4041  id */\n      dup3\n        /* \"src/BlueprintManager.sol\":4030:4037  spender */\n      dup5\n        /* \"src/BlueprintManager.sol\":4009:4050  Approval(msg.sender, spender, id, amount) */\n      0xffffffffffffffffffffffffffffffffffffffff\n      and\n        /* \"src/BlueprintManager.sol\":4018:4028  msg.sender */\n      caller\n        /* \"src/BlueprintManager.sol\":4009:4050  Approval(msg.sender, spender, id, amount) */\n      0xffffffffffffffffffffffffffffffffffffffff\n      and\n      0xb3fd5071835887567a0671151121894ddccc2842f1d10bedad13e0d17cace9a7\n        /* \"src/BlueprintManager.sol\":4043:4049  amount */\n      dup6\n        /* \"src/BlueprintManager.sol\":4009:4050  Approval(msg.sender, spender, id, amount) */\n      mload(0x40)\n      tag_148\n      swap2\n      swap1\n      tag_38\n      jump\t// in\n    tag_148:\n      mload(0x40)\n      dup1\n      swap2\n      sub\n      swap1\n      log4\n        /* \"src/BlueprintManager.sol\":4067:4071  true */\n      0x01\n        /* \"src/BlueprintManager.sol\":4060:4071  return true */\n      swap1\n      pop\n        /* \"src/BlueprintManager.sol\":3819:4078  function approve(... */\n      swap4\n      swap3\n      pop\n      pop\n      pop\n      jump\t// out\n        /* \"src/BlueprintManager.sol\":4686:4910  function cook(BlueprintCall[] calldata calls) external {... */\n    tag_53:\n        /* \"src/BlueprintManager.sol\":4751:4771  FlashSession session */\n      0x00\n        /* \"src/BlueprintManager.sol\":4774:4793  getCurrentSession() */\n      tag_150\n        /* \"src/BlueprintManager.sol\":4774:4791  getCurrentSession */\n      tag_117\n        /* \"src/BlueprintManager.sol\":4774:4793  getCurrentSession() */\n      jump\t// in\n    tag_150:\n        /* \"src/BlueprintManager.sol\":4751:4793  FlashSession session = getCurrentSession() */\n      swap1\n      pop\n        /* \"src/BlueprintManager.sol\":4804:4815  uint256 len */\n      0x00\n        /* \"src/BlueprintManager.sol\":4818:4823  calls */\n      dup4\n      dup4\n        /* \"src/BlueprintManager.sol\":4818:4830  calls.length */\n      swap1\n      pop\n        /* \"src/BlueprintManager.sol\":4804:4830  uint256 len = calls.length */\n      swap1\n      pop\n        /* \"src/BlueprintManager.sol\":4845:4854  uint256 k */\n      0x00\n        /* \"src/BlueprintManager.sol\":4857:4858  0 */\n      0x00\n        /* \"src/BlueprintManager.sol\":4845:4858  uint256 k = 0 */\n      swap1\n      pop\n        /* \"src/BlueprintManager.sol\":4840:4903  for (uint256 k = 0; k < len; k++) _flashCook(calls[k], session) */\n    tag_151:\n        /* \"src/BlueprintManager.sol\":4864:4867  len */\n      dup2\n        /* \"src/BlueprintManager.sol\":4860:4861  k */\n      dup2\n        /* \"src/BlueprintManager.sol\":4860:4867  k < len */\n      lt\n        /* \"src/BlueprintManager.sol\":4840:4903  for (uint256 k = 0; k < len; k++) _flashCook(calls[k], session) */\n      iszero\n      tag_152\n      jumpi\n        /* \"src/BlueprintManager.sol\":4874:4903  _flashCook(calls[k], session) */\n      tag_154\n        /* \"src/BlueprintManager.sol\":4885:4890  calls */\n      dup6\n      dup6\n        /* \"src/BlueprintManager.sol\":4891:4892  k */\n      dup4\n        /* \"src/BlueprintManager.sol\":4885:4893  calls[k] */\n      dup2\n      dup2\n      lt\n      tag_155\n      jumpi\n      tag_156\n      tag_125\n      jump\t// in\n    tag_156:\n    tag_155:\n      swap1\n      pop\n      0x20\n      mul\n      dup2\n      add\n      swap1\n      tag_157\n      swap2\n      swap1\n      tag_158\n      jump\t// in\n    tag_157:\n        /* \"src/BlueprintManager.sol\":4895:4902  session */\n      dup5\n        /* \"src/BlueprintManager.sol\":4874:4884  _flashCook */\n      tag_159\n        /* \"src/BlueprintManager.sol\":4874:4903  _flashCook(calls[k], session) */\n      jump\t// in\n    tag_154:\n        /* \"src/BlueprintManager.sol\":4869:4872  k++ */\n      dup1\n      dup1\n      0x01\n      add\n      swap2\n      pop\n      pop\n        /* \"src/BlueprintManager.sol\":4840:4903  for (uint256 k = 0; k < len; k++) _flashCook(calls[k], session) */\n      jump(tag_151)\n    tag_152:\n      pop\n        /* \"src/BlueprintManager.sol\":4741:4910  {... */\n      pop\n      pop\n        /* \"src/BlueprintManager.sol\":4686:4910  function cook(BlueprintCall[] calldata calls) external {... */\n      pop\n      pop\n      jump\t// out\n        /* \"src/BlueprintManager.sol\":4084:4329  function setOperator(... */\n    tag_57:\n        /* \"src/BlueprintManager.sol\":4184:4188  bool */\n      0x00\n        /* \"src/BlueprintManager.sol\":4235:4243  approved */\n      dup2\n        /* \"src/BlueprintManager.sol\":4200:4210  isOperator */\n      0x00\n        /* \"src/BlueprintManager.sol\":4200:4222  isOperator[msg.sender] */\n      0x00\n        /* \"src/BlueprintManager.sol\":4211:4221  msg.sender */\n      caller\n        /* \"src/BlueprintManager.sol\":4200:4222  isOperator[msg.sender] */\n      0xffffffffffffffffffffffffffffffffffffffff\n      and\n      0xffffffffffffffffffffffffffffffffffffffff\n      and\n      dup2\n      mstore\n      0x20\n      add\n      swap1\n      dup2\n      mstore\n      0x20\n      add\n      0x00\n      keccak256\n        /* \"src/BlueprintManager.sol\":4200:4232  isOperator[msg.sender][operator] */\n      0x00\n        /* \"src/BlueprintManager.sol\":4223:4231  operator */\n      dup6\n        /* \"src/BlueprintManager.sol\":4200:4232  isOperator[msg.sender][operator] */\n      0xffffffffffffffffffffffffffffffffffffffff\n      and\n      0xffffffffffffffffffffffffffffffffffffffff\n      and\n      dup2\n      mstore\n      0x20\n      add\n      swap1\n      dup2\n      mstore\n      0x20\n      add\n      0x00\n      keccak256\n      0x00\n        /* \"src/BlueprintManager.sol\":4200:4243  isOperator[msg.sender][operator] = approved */\n      0x0100\n      exp\n      dup2\n      sload\n      dup2\n      0xff\n      mul\n      not\n      and\n      swap1\n      dup4\n      iszero\n      iszero\n      mul\n      or\n      swap1\n      sstore\n      pop\n        /* \"src/BlueprintManager.sol\":4282:4290  operator */\n      dup3\n        /* \"src/BlueprintManager.sol\":4258:4301  OperatorSet(msg.sender, operator, approved) */\n      0xffffffffffffffffffffffffffffffffffffffff\n      and\n        /* \"src/BlueprintManager.sol\":4270:4280  msg.sender */\n      caller\n        /* \"src/BlueprintManager.sol\":4258:4301  OperatorSet(msg.sender, operator, approved) */\n      0xffffffffffffffffffffffffffffffffffffffff\n      and\n      0xceb576d9f15e4e200fdb5096d64d5dfd667e16def20c1eefd14256d8e3faa267\n        /* \"src/BlueprintManager.sol\":4292:4300  approved */\n      dup5\n        /* \"src/BlueprintManager.sol\":4258:4301  OperatorSet(msg.sender, operator, approved) */\n      mload(0x40)\n      tag_161\n      swap2\n      swap1\n      tag_30\n      jump\t// in\n    tag_161:\n      mload(0x40)\n      dup1\n      swap2\n      sub\n      swap1\n      log3\n        /* \"src/BlueprintManager.sol\":4318:4322  true */\n      0x01\n        /* \"src/BlueprintManager.sol\":4311:4322  return true */\n      swap1\n      pop\n        /* \"src/BlueprintManager.sol\":4084:4329  function setOperator(... */\n      swap3\n      swap2\n      pop\n      pop\n      jump\t// out\n        /* \"src/BlueprintManager.sol\":863:910  mapping(uint256 => uint256) public tokenStorage */\n    tag_62:\n      mstore(0x20, 0x03)\n      dup1\n      0x00\n      mstore\n      keccak256(0x00, 0x40)\n      0x00\n      swap2\n      pop\n      swap1\n      pop\n      sload\n      dup2\n      jump\t// out\n        /* \"src/BlueprintManager.sol\":764:856  mapping(address => mapping(address => mapping(uint256 => uint256)))... */\n    tag_67:\n      mstore(0x20, 0x02)\n      dup3\n      0x00\n      mstore\n      mstore(0x20, keccak256(0x00, 0x40))\n      dup2\n      0x00\n      mstore\n      mstore(0x20, keccak256(0x00, 0x40))\n      dup1\n      0x00\n      mstore\n      keccak256(0x00, 0x40)\n      0x00\n      swap3\n      pop\n      swap3\n      pop\n      pop\n      pop\n      sload\n      dup2\n      jump\t// out\n        /* \"src/BlueprintManager.sol\":4335:4680  function cook(address realizer, BlueprintCall[] calldata calls) external {... */\n    tag_72:\n        /* \"src/BlueprintManager.sol\":4419:4439  FlashSession session */\n      0x00\n        /* \"src/BlueprintManager.sol\":4441:4458  MainClue mainClue */\n      0x00\n        /* \"src/BlueprintManager.sol\":4462:4513  openFlashAccounting(... */\n      tag_163\n        /* \"src/BlueprintManager.sol\":4495:4503  realizer */\n      dup6\n        /* \"src/BlueprintManager.sol\":4462:4481  openFlashAccounting */\n      tag_164\n        /* \"src/BlueprintManager.sol\":4462:4513  openFlashAccounting(... */\n      jump\t// in\n    tag_163:\n        /* \"src/BlueprintManager.sol\":4418:4513  (FlashSession session, MainClue mainClue) = openFlashAccounting(... */\n      swap2\n      pop\n      swap2\n      pop\n        /* \"src/BlueprintManager.sol\":4524:4535  uint256 len */\n      0x00\n        /* \"src/BlueprintManager.sol\":4538:4543  calls */\n      dup5\n      dup5\n        /* \"src/BlueprintManager.sol\":4538:4550  calls.length */\n      swap1\n      pop\n        /* \"src/BlueprintManager.sol\":4524:4550  uint256 len = calls.length */\n      swap1\n      pop\n        /* \"src/BlueprintManager.sol\":4565:4574  uint256 k */\n      0x00\n        /* \"src/BlueprintManager.sol\":4577:4578  0 */\n      0x00\n        /* \"src/BlueprintManager.sol\":4565:4578  uint256 k = 0 */\n      swap1\n      pop\n        /* \"src/BlueprintManager.sol\":4560:4623  for (uint256 k = 0; k < len; k++) _flashCook(calls[k], session) */\n    tag_165:\n        /* \"src/BlueprintManager.sol\":4584:4587  len */\n      dup2\n        /* \"src/BlueprintManager.sol\":4580:4581  k */\n      dup2\n        /* \"src/BlueprintManager.sol\":4580:4587  k < len */\n      lt\n        /* \"src/BlueprintManager.sol\":4560:4623  for (uint256 k = 0; k < len; k++) _flashCook(calls[k], session) */\n      iszero\n      tag_166\n      jumpi\n        /* \"src/BlueprintManager.sol\":4594:4623  _flashCook(calls[k], session) */\n      tag_168\n        /* \"src/BlueprintManager.sol\":4605:4610  calls */\n      dup7\n      dup7\n        /* \"src/BlueprintManager.sol\":4611:4612  k */\n      dup4\n        /* \"src/BlueprintManager.sol\":4605:4613  calls[k] */\n      dup2\n      dup2\n      lt\n      tag_169\n      jumpi\n      tag_170\n      tag_125\n      jump\t// in\n    tag_170:\n    tag_169:\n      swap1\n      pop\n      0x20\n      mul\n      dup2\n      add\n      swap1\n      tag_171\n      swap2\n      swap1\n      tag_158\n      jump\t// in\n    tag_171:\n        /* \"src/BlueprintManager.sol\":4615:4622  session */\n      dup6\n        /* \"src/BlueprintManager.sol\":4594:4604  _flashCook */\n      tag_159\n        /* \"src/BlueprintManager.sol\":4594:4623  _flashCook(calls[k], session) */\n      jump\t// in\n    tag_168:\n        /* \"src/BlueprintManager.sol\":4589:4592  k++ */\n      dup1\n      dup1\n      0x01\n      add\n      swap2\n      pop\n      pop\n        /* \"src/BlueprintManager.sol\":4560:4623  for (uint256 k = 0; k < len; k++) _flashCook(calls[k], session) */\n      jump(tag_165)\n    tag_166:\n      pop\n        /* \"src/BlueprintManager.sol\":4634:4673  closeFlashAccounting(mainClue, session) */\n      tag_172\n        /* \"src/BlueprintManager.sol\":4655:4663  mainClue */\n      dup3\n        /* \"src/BlueprintManager.sol\":4665:4672  session */\n      dup5\n        /* \"src/BlueprintManager.sol\":4634:4654  closeFlashAccounting */\n      tag_173\n        /* \"src/BlueprintManager.sol\":4634:4673  closeFlashAccounting(mainClue, session) */\n      jump\t// in\n    tag_172:\n        /* \"src/BlueprintManager.sol\":4408:4680  {... */\n      pop\n      pop\n      pop\n        /* \"src/BlueprintManager.sol\":4335:4680  function cook(address realizer, BlueprintCall[] calldata calls) external {... */\n      pop\n      pop\n      pop\n      jump\t// out\n        /* \"src/FlashAccounting.sol\":762:917  function exttload(uint256 slot) external view returns (uint256 value) {... */\n    tag_75:\n        /* \"src/FlashAccounting.sol\":817:830  uint256 value */\n      0x00\n        /* \"src/FlashAccounting.sol\":896:900  slot */\n      dup2\n        /* \"src/FlashAccounting.sol\":890:901  tload(slot) */\n      tload\n        /* \"src/FlashAccounting.sol\":881:901  value := tload(slot) */\n      swap1\n      pop\n        /* \"src/FlashAccounting.sol\":762:917  function exttload(uint256 slot) external view returns (uint256 value) {... */\n      swap2\n      swap1\n      pop\n      jump\t// out\n        /* \"src/BlueprintManager.sol\":8620:9223  function credit(uint256 id, uint256 amount) external {... */\n    tag_80:\n        /* \"src/BlueprintManager.sol\":8683:8703  FlashSession session */\n      0x00\n        /* \"src/BlueprintManager.sol\":8706:8725  getCurrentSession() */\n      tag_176\n        /* \"src/BlueprintManager.sol\":8706:8723  getCurrentSession */\n      tag_117\n        /* \"src/BlueprintManager.sol\":8706:8725  getCurrentSession() */\n      jump\t// in\n    tag_176:\n        /* \"src/BlueprintManager.sol\":8683:8725  FlashSession session = getCurrentSession() */\n      swap1\n      pop\n        /* \"src/BlueprintManager.sol\":8750:8778  FlashUserSession userSession */\n      0x00\n        /* \"src/BlueprintManager.sol\":8792:8809  UserClue userClue */\n      0x00\n        /* \"src/BlueprintManager.sol\":8822:8864  initializeUserSession(session, msg.sender) */\n      tag_177\n        /* \"src/BlueprintManager.sol\":8844:8851  session */\n      dup4\n        /* \"src/BlueprintManager.sol\":8853:8863  msg.sender */\n      caller\n        /* \"src/BlueprintManager.sol\":8822:8843  initializeUserSession */\n      tag_119\n        /* \"src/BlueprintManager.sol\":8822:8864  initializeUserSession(session, msg.sender) */\n      jump\t// in\n    tag_177:\n        /* \"src/BlueprintManager.sol\":8736:8864  (... */\n      swap2\n      pop\n      swap2\n      pop\n        /* \"src/BlueprintManager.sol\":8875:8895  UserClue newUserClue */\n      0x00\n        /* \"src/BlueprintManager.sol\":8898:9011  addUserDebitWithClue(... */\n      tag_178\n        /* \"src/BlueprintManager.sol\":8932:8943  userSession */\n      dup4\n        /* \"src/BlueprintManager.sol\":8957:8965  userClue */\n      dup4\n        /* \"src/BlueprintManager.sol\":8979:8981  id */\n      dup9\n        /* \"src/BlueprintManager.sol\":8995:9001  amount */\n      dup9\n        /* \"src/BlueprintManager.sol\":8898:8918  addUserDebitWithClue */\n      tag_127\n        /* \"src/BlueprintManager.sol\":8898:9011  addUserDebitWithClue(... */\n      jump\t// in\n    tag_178:\n        /* \"src/BlueprintManager.sol\":8875:9011  UserClue newUserClue = addUserDebitWithClue(... */\n      swap1\n      pop\n        /* \"src/BlueprintManager.sol\":9070:9081  newUserClue */\n      dup1\n        /* \"src/BlueprintManager.sol\":9041:9049  userClue */\n      dup3\n        /* \"src/BlueprintManager.sol\":9025:9082  UserClue.unwrap(userClue) != UserClue.unwrap(newUserClue) */\n      eq\n        /* \"src/BlueprintManager.sol\":9021:9134  if (UserClue.unwrap(userClue) != UserClue.unwrap(newUserClue))... */\n      tag_179\n      jumpi\n        /* \"src/BlueprintManager.sol\":9096:9134  saveUserClue(userSession, newUserClue) */\n      tag_180\n        /* \"src/BlueprintManager.sol\":9109:9120  userSession */\n      dup4\n        /* \"src/BlueprintManager.sol\":9122:9133  newUserClue */\n      dup3\n        /* \"src/BlueprintManager.sol\":9096:9108  saveUserClue */\n      tag_130\n        /* \"src/BlueprintManager.sol\":9096:9134  saveUserClue(userSession, newUserClue) */\n      jump\t// in\n    tag_180:\n        /* \"src/BlueprintManager.sol\":9021:9134  if (UserClue.unwrap(userClue) != UserClue.unwrap(newUserClue))... */\n    tag_179:\n        /* \"src/BlueprintManager.sol\":9144:9173  _mint(msg.sender, id, amount) */\n      tag_181\n        /* \"src/BlueprintManager.sol\":9150:9160  msg.sender */\n      caller\n        /* \"src/BlueprintManager.sol\":9162:9164  id */\n      dup8\n        /* \"src/BlueprintManager.sol\":9166:9172  amount */\n      dup8\n        /* \"src/BlueprintManager.sol\":9144:9149  _mint */\n      tag_111\n        /* \"src/BlueprintManager.sol\":9144:9173  _mint(msg.sender, id, amount) */\n      jump\t// in\n    tag_181:\n        /* \"src/BlueprintManager.sol\":9205:9207  id */\n      dup6\n        /* \"src/BlueprintManager.sol\":9193:9203  msg.sender */\n      caller\n        /* \"src/BlueprintManager.sol\":9188:9216  Mint(msg.sender, id, amount) */\n      0xffffffffffffffffffffffffffffffffffffffff\n      and\n      0x4c209b5fc8ad50758f13e2e1088ba56a560dff690a1c6fef26394f4c03821c4f\n        /* \"src/BlueprintManager.sol\":9209:9215  amount */\n      dup8\n        /* \"src/BlueprintManager.sol\":9188:9216  Mint(msg.sender, id, amount) */\n      mload(0x40)\n      tag_182\n      swap2\n      swap1\n      tag_38\n      jump\t// in\n    tag_182:\n      mload(0x40)\n      dup1\n      swap2\n      sub\n      swap1\n      log3\n        /* \"src/BlueprintManager.sol\":8673:9223  {... */\n      pop\n      pop\n      pop\n      pop\n        /* \"src/BlueprintManager.sol\":8620:9223  function credit(uint256 id, uint256 amount) external {... */\n      pop\n      pop\n      jump\t// out\n        /* \"src/BlueprintManager.sol\":11799:11986  function burn(uint256 tokenId, uint256 amount) external {... */\n    tag_83:\n        /* \"src/BlueprintManager.sol\":11865:11931  _burn(msg.sender, HashLib.getTokenId(msg.sender, tokenId), amount) */\n      tag_184\n        /* \"src/BlueprintManager.sol\":11871:11881  msg.sender */\n      caller\n        /* \"src/BlueprintManager.sol\":11883:11922  HashLib.getTokenId(msg.sender, tokenId) */\n      tag_185\n        /* \"src/BlueprintManager.sol\":11902:11912  msg.sender */\n      caller\n        /* \"src/BlueprintManager.sol\":11914:11921  tokenId */\n      dup6\n        /* \"src/BlueprintManager.sol\":11883:11901  HashLib.getTokenId */\n      tag_110\n        /* \"src/BlueprintManager.sol\":11883:11922  HashLib.getTokenId(msg.sender, tokenId) */\n      jump\t// in\n    tag_185:\n        /* \"src/BlueprintManager.sol\":11924:11930  amount */\n      dup4\n        /* \"src/BlueprintManager.sol\":11865:11870  _burn */\n      tag_141\n        /* \"src/BlueprintManager.sol\":11865:11931  _burn(msg.sender, HashLib.getTokenId(msg.sender, tokenId), amount) */\n      jump\t// in\n    tag_184:\n        /* \"src/BlueprintManager.sol\":11963:11970  tokenId */\n      dup2\n        /* \"src/BlueprintManager.sol\":11951:11961  msg.sender */\n      caller\n        /* \"src/BlueprintManager.sol\":11946:11979  Burn(msg.sender, tokenId, amount) */\n      0xffffffffffffffffffffffffffffffffffffffff\n      and\n      0x49995e5dd6158cf69ad3e9777c46755a1a826a446c6416992167462dad033b2a\n        /* \"src/BlueprintManager.sol\":11972:11978  amount */\n      dup4\n        /* \"src/BlueprintManager.sol\":11946:11979  Burn(msg.sender, tokenId, amount) */\n      mload(0x40)\n      tag_186\n      swap2\n      swap1\n      tag_38\n      jump\t// in\n    tag_186:\n      mload(0x40)\n      dup1\n      swap2\n      sub\n      swap1\n      log3\n        /* \"src/BlueprintManager.sol\":11799:11986  function burn(uint256 tokenId, uint256 amount) external {... */\n      pop\n      pop\n      jump\t// out\n        /* \"src/BlueprintManager.sol\":539:601  mapping(address => mapping(address => bool)) public isOperator */\n    tag_87:\n      mstore(0x20, 0x00)\n      dup2\n      0x00\n      mstore\n      mstore(0x20, keccak256(0x00, 0x40))\n      dup1\n      0x00\n      mstore\n      keccak256(0x00, 0x40)\n      0x00\n      swap2\n      pop\n      swap2\n      pop\n      swap1\n      sload\n      swap1\n      0x0100\n      exp\n      swap1\n      div\n      0xff\n      and\n      dup2\n      jump\t// out\n        /* \"src/BlueprintManager.sol\":10514:11184  function debit(TokenOp[] calldata ops) external {... */\n    tag_91:\n        /* \"src/BlueprintManager.sol\":10572:10592  FlashSession session */\n      0x00\n        /* \"src/BlueprintManager.sol\":10595:10614  getCurrentSession() */\n      tag_188\n        /* \"src/BlueprintManager.sol\":10595:10612  getCurrentSession */\n      tag_117\n        /* \"src/BlueprintManager.sol\":10595:10614  getCurrentSession() */\n      jump\t// in\n    tag_188:\n        /* \"src/BlueprintManager.sol\":10572:10614  FlashSession session = getCurrentSession() */\n      swap1\n      pop\n        /* \"src/BlueprintManager.sol\":10639:10667  FlashUserSession userSession */\n      0x00\n        /* \"src/BlueprintManager.sol\":10681:10698  UserClue userClue */\n      0x00\n        /* \"src/BlueprintManager.sol\":10711:10753  initializeUserSession(session, msg.sender) */\n      tag_189\n        /* \"src/BlueprintManager.sol\":10733:10740  session */\n      dup4\n        /* \"src/BlueprintManager.sol\":10742:10752  msg.sender */\n      caller\n        /* \"src/BlueprintManager.sol\":10711:10732  initializeUserSession */\n      tag_119\n        /* \"src/BlueprintManager.sol\":10711:10753  initializeUserSession(session, msg.sender) */\n      jump\t// in\n    tag_189:\n        /* \"src/BlueprintManager.sol\":10625:10753  (... */\n      swap2\n      pop\n      swap2\n      pop\n        /* \"src/BlueprintManager.sol\":10764:10775  uint256 len */\n      0x00\n        /* \"src/BlueprintManager.sol\":10778:10781  ops */\n      dup6\n      dup6\n        /* \"src/BlueprintManager.sol\":10778:10788  ops.length */\n      swap1\n      pop\n        /* \"src/BlueprintManager.sol\":10764:10788  uint256 len = ops.length */\n      swap1\n      pop\n        /* \"src/BlueprintManager.sol\":10803:10812  uint256 i */\n      0x00\n        /* \"src/BlueprintManager.sol\":10815:10816  0 */\n      0x00\n        /* \"src/BlueprintManager.sol\":10803:10816  uint256 i = 0 */\n      swap1\n      pop\n        /* \"src/BlueprintManager.sol\":10798:11133  for (uint256 i = 0; i < len; i++) {... */\n    tag_190:\n        /* \"src/BlueprintManager.sol\":10822:10825  len */\n      dup2\n        /* \"src/BlueprintManager.sol\":10818:10819  i */\n      dup2\n        /* \"src/BlueprintManager.sol\":10818:10825  i < len */\n      lt\n        /* \"src/BlueprintManager.sol\":10798:11133  for (uint256 i = 0; i < len; i++) {... */\n      iszero\n      tag_191\n      jumpi\n        /* \"src/BlueprintManager.sol\":10846:10865  TokenOp calldata op */\n      calldatasize\n        /* \"src/BlueprintManager.sol\":10868:10871  ops */\n      dup8\n      dup8\n        /* \"src/BlueprintManager.sol\":10872:10873  i */\n      dup4\n        /* \"src/BlueprintManager.sol\":10868:10874  ops[i] */\n      dup2\n      dup2\n      lt\n      tag_193\n      jumpi\n      tag_194\n      tag_125\n      jump\t// in\n    tag_194:\n    tag_193:\n      swap1\n      pop\n      0x40\n      mul\n      add\n        /* \"src/BlueprintManager.sol\":10846:10874  TokenOp calldata op = ops[i] */\n      swap1\n      pop\n        /* \"src/BlueprintManager.sol\":10888:10898  uint256 id */\n      0x00\n        /* \"src/BlueprintManager.sol\":10901:10903  op */\n      dup2\n        /* \"src/BlueprintManager.sol\":10901:10911  op.tokenId */\n      0x00\n      add\n      calldataload\n        /* \"src/BlueprintManager.sol\":10888:10911  uint256 id = op.tokenId */\n      swap1\n      pop\n        /* \"src/BlueprintManager.sol\":10925:10939  uint256 amount */\n      0x00\n        /* \"src/BlueprintManager.sol\":10942:10944  op */\n      dup3\n        /* \"src/BlueprintManager.sol\":10942:10951  op.amount */\n      0x20\n      add\n      calldataload\n        /* \"src/BlueprintManager.sol\":10925:10951  uint256 amount = op.amount */\n      swap1\n      pop\n        /* \"src/BlueprintManager.sol\":10976:11032  addUserCreditWithClue(userSession, userClue, id, amount) */\n      tag_195\n        /* \"src/BlueprintManager.sol\":10998:11009  userSession */\n      dup8\n        /* \"src/BlueprintManager.sol\":11011:11019  userClue */\n      dup8\n        /* \"src/BlueprintManager.sol\":11021:11023  id */\n      dup5\n        /* \"src/BlueprintManager.sol\":11025:11031  amount */\n      dup5\n        /* \"src/BlueprintManager.sol\":10976:10997  addUserCreditWithClue */\n      tag_196\n        /* \"src/BlueprintManager.sol\":10976:11032  addUserCreditWithClue(userSession, userClue, id, amount) */\n      jump\t// in\n    tag_195:\n        /* \"src/BlueprintManager.sol\":10965:11032  userClue = addUserCreditWithClue(userSession, userClue, id, amount) */\n      swap6\n      pop\n        /* \"src/BlueprintManager.sol\":11046:11075  _burn(msg.sender, id, amount) */\n      tag_197\n        /* \"src/BlueprintManager.sol\":11052:11062  msg.sender */\n      caller\n        /* \"src/BlueprintManager.sol\":11064:11066  id */\n      dup4\n        /* \"src/BlueprintManager.sol\":11068:11074  amount */\n      dup4\n        /* \"src/BlueprintManager.sol\":11046:11051  _burn */\n      tag_141\n        /* \"src/BlueprintManager.sol\":11046:11075  _burn(msg.sender, id, amount) */\n      jump\t// in\n    tag_197:\n        /* \"src/BlueprintManager.sol\":11111:11113  id */\n      dup2\n        /* \"src/BlueprintManager.sol\":11099:11109  msg.sender */\n      caller\n        /* \"src/BlueprintManager.sol\":11094:11122  Burn(msg.sender, id, amount) */\n      0xffffffffffffffffffffffffffffffffffffffff\n      and\n      0x49995e5dd6158cf69ad3e9777c46755a1a826a446c6416992167462dad033b2a\n        /* \"src/BlueprintManager.sol\":11115:11121  amount */\n      dup4\n        /* \"src/BlueprintManager.sol\":11094:11122  Burn(msg.sender, id, amount) */\n      mload(0x40)\n      tag_198\n      swap2\n      swap1\n      tag_38\n      jump\t// in\n    tag_198:\n      mload(0x40)\n      dup1\n      swap2\n      sub\n      swap1\n      log3\n        /* \"src/BlueprintManager.sol\":10832:11133  {... */\n      pop\n      pop\n      pop\n        /* \"src/BlueprintManager.sol\":10827:10830  i++ */\n      dup1\n      dup1\n      0x01\n      add\n      swap2\n      pop\n      pop\n        /* \"src/BlueprintManager.sol\":10798:11133  for (uint256 i = 0; i < len; i++) {... */\n      jump(tag_190)\n    tag_191:\n      pop\n        /* \"src/BlueprintManager.sol\":11142:11177  saveUserClue(userSession, userClue) */\n      tag_199\n        /* \"src/BlueprintManager.sol\":11155:11166  userSession */\n      dup4\n        /* \"src/BlueprintManager.sol\":11168:11176  userClue */\n      dup4\n        /* \"src/BlueprintManager.sol\":11142:11154  saveUserClue */\n      tag_130\n        /* \"src/BlueprintManager.sol\":11142:11177  saveUserClue(userSession, userClue) */\n      jump\t// in\n    tag_199:\n        /* \"src/BlueprintManager.sol\":10562:11184  {... */\n      pop\n      pop\n      pop\n      pop\n        /* \"src/BlueprintManager.sol\":10514:11184  function debit(TokenOp[] calldata ops) external {... */\n      pop\n      pop\n      jump\t// out\n        /* \"src/BlueprintManager.sol\":9903:10463  function debit(uint256 id, uint256 amount) external {... */\n    tag_94:\n        /* \"src/BlueprintManager.sol\":9965:9985  FlashSession session */\n      0x00\n        /* \"src/BlueprintManager.sol\":9988:10007  getCurrentSession() */\n      tag_201\n        /* \"src/BlueprintManager.sol\":9988:10005  getCurrentSession */\n      tag_117\n        /* \"src/BlueprintManager.sol\":9988:10007  getCurrentSession() */\n      jump\t// in\n    tag_201:\n        /* \"src/BlueprintManager.sol\":9965:10007  FlashSession session = getCurrentSession() */\n      swap1\n      pop\n        /* \"src/BlueprintManager.sol\":10032:10060  FlashUserSession userSession */\n      0x00\n        /* \"src/BlueprintManager.sol\":10074:10091  UserClue userClue */\n      0x00\n        /* \"src/BlueprintManager.sol\":10104:10146  initializeUserSession(session, msg.sender) */\n      tag_202\n        /* \"src/BlueprintManager.sol\":10126:10133  session */\n      dup4\n        /* \"src/BlueprintManager.sol\":10135:10145  msg.sender */\n      caller\n        /* \"src/BlueprintManager.sol\":10104:10125  initializeUserSession */\n      tag_119\n        /* \"src/BlueprintManager.sol\":10104:10146  initializeUserSession(session, msg.sender) */\n      jump\t// in\n    tag_202:\n        /* \"src/BlueprintManager.sol\":10018:10146  (... */\n      swap2\n      pop\n      swap2\n      pop\n        /* \"src/BlueprintManager.sol\":10157:10177  UserClue newUserClue */\n      0x00\n        /* \"src/BlueprintManager.sol\":10180:10294  addUserCreditWithClue(... */\n      tag_203\n        /* \"src/BlueprintManager.sol\":10215:10226  userSession */\n      dup4\n        /* \"src/BlueprintManager.sol\":10240:10248  userClue */\n      dup4\n        /* \"src/BlueprintManager.sol\":10262:10264  id */\n      dup9\n        /* \"src/BlueprintManager.sol\":10278:10284  amount */\n      dup9\n        /* \"src/BlueprintManager.sol\":10180:10201  addUserCreditWithClue */\n      tag_196\n        /* \"src/BlueprintManager.sol\":10180:10294  addUserCreditWithClue(... */\n      jump\t// in\n    tag_203:\n        /* \"src/BlueprintManager.sol\":10157:10294  UserClue newUserClue = addUserCreditWithClue(... */\n      swap1\n      pop\n        /* \"src/BlueprintManager.sol\":10353:10364  newUserClue */\n      dup1\n        /* \"src/BlueprintManager.sol\":10324:10332  userClue */\n      dup3\n        /* \"src/BlueprintManager.sol\":10308:10365  UserClue.unwrap(userClue) != UserClue.unwrap(newUserClue) */\n      eq\n        /* \"src/BlueprintManager.sol\":10304:10417  if (UserClue.unwrap(userClue) != UserClue.unwrap(newUserClue))... */\n      tag_204\n      jumpi\n        /* \"src/BlueprintManager.sol\":10379:10417  saveUserClue(userSession, newUserClue) */\n      tag_205\n        /* \"src/BlueprintManager.sol\":10392:10403  userSession */\n      dup4\n        /* \"src/BlueprintManager.sol\":10405:10416  newUserClue */\n      dup3\n        /* \"src/BlueprintManager.sol\":10379:10391  saveUserClue */\n      tag_130\n        /* \"src/BlueprintManager.sol\":10379:10417  saveUserClue(userSession, newUserClue) */\n      jump\t// in\n    tag_205:\n        /* \"src/BlueprintManager.sol\":10304:10417  if (UserClue.unwrap(userClue) != UserClue.unwrap(newUserClue))... */\n    tag_204:\n        /* \"src/BlueprintManager.sol\":10427:10456  _burn(msg.sender, id, amount) */\n      tag_206\n        /* \"src/BlueprintManager.sol\":10433:10443  msg.sender */\n      caller\n        /* \"src/BlueprintManager.sol\":10445:10447  id */\n      dup8\n        /* \"src/BlueprintManager.sol\":10449:10455  amount */\n      dup8\n        /* \"src/BlueprintManager.sol\":10427:10432  _burn */\n      tag_141\n        /* \"src/BlueprintManager.sol\":10427:10456  _burn(msg.sender, id, amount) */\n      jump\t// in\n    tag_206:\n        /* \"src/BlueprintManager.sol\":9955:10463  {... */\n      pop\n      pop\n      pop\n      pop\n        /* \"src/BlueprintManager.sol\":9903:10463  function debit(uint256 id, uint256 amount) external {... */\n      pop\n      pop\n      jump\t// out\n        /* \"src/BlueprintManager.sol\":11379:11793  function mint(address to, TokenOp[] calldata ops) external {... */\n    tag_98:\n        /* \"src/BlueprintManager.sol\":11448:11459  uint256 len */\n      0x00\n        /* \"src/BlueprintManager.sol\":11462:11465  ops */\n      dup3\n      dup3\n        /* \"src/BlueprintManager.sol\":11462:11472  ops.length */\n      swap1\n      pop\n        /* \"src/BlueprintManager.sol\":11448:11472  uint256 len = ops.length */\n      swap1\n      pop\n        /* \"src/BlueprintManager.sol\":11488:11497  uint256 i */\n      0x00\n        /* \"src/BlueprintManager.sol\":11500:11501  0 */\n      0x00\n        /* \"src/BlueprintManager.sol\":11488:11501  uint256 i = 0 */\n      swap1\n      pop\n        /* \"src/BlueprintManager.sol\":11483:11787  for (uint256 i = 0; i < len; i++) {... */\n    tag_208:\n        /* \"src/BlueprintManager.sol\":11507:11510  len */\n      dup2\n        /* \"src/BlueprintManager.sol\":11503:11504  i */\n      dup2\n        /* \"src/BlueprintManager.sol\":11503:11510  i < len */\n      lt\n        /* \"src/BlueprintManager.sol\":11483:11787  for (uint256 i = 0; i < len; i++) {... */\n      iszero\n      tag_209\n      jumpi\n        /* \"src/BlueprintManager.sol\":11595:11605  uint256 id */\n      0x00\n        /* \"src/BlueprintManager.sol\":11608:11654  HashLib.getTokenId(msg.sender, ops[i].tokenId) */\n      tag_211\n        /* \"src/BlueprintManager.sol\":11627:11637  msg.sender */\n      caller\n        /* \"src/BlueprintManager.sol\":11639:11642  ops */\n      dup7\n      dup7\n        /* \"src/BlueprintManager.sol\":11643:11644  i */\n      dup6\n        /* \"src/BlueprintManager.sol\":11639:11645  ops[i] */\n      dup2\n      dup2\n      lt\n      tag_212\n      jumpi\n      tag_213\n      tag_125\n      jump\t// in\n    tag_213:\n    tag_212:\n      swap1\n      pop\n      0x40\n      mul\n      add\n        /* \"src/BlueprintManager.sol\":11639:11653  ops[i].tokenId */\n      0x00\n      add\n      calldataload\n        /* \"src/BlueprintManager.sol\":11608:11626  HashLib.getTokenId */\n      tag_110\n        /* \"src/BlueprintManager.sol\":11608:11654  HashLib.getTokenId(msg.sender, ops[i].tokenId) */\n      jump\t// in\n    tag_211:\n        /* \"src/BlueprintManager.sol\":11595:11654  uint256 id = HashLib.getTokenId(msg.sender, ops[i].tokenId) */\n      swap1\n      pop\n        /* \"src/BlueprintManager.sol\":11672:11700  _mint(to, id, ops[i].amount) */\n      tag_214\n        /* \"src/BlueprintManager.sol\":11678:11680  to */\n      dup7\n        /* \"src/BlueprintManager.sol\":11682:11684  id */\n      dup3\n        /* \"src/BlueprintManager.sol\":11686:11689  ops */\n      dup8\n      dup8\n        /* \"src/BlueprintManager.sol\":11690:11691  i */\n      dup7\n        /* \"src/BlueprintManager.sol\":11686:11692  ops[i] */\n      dup2\n      dup2\n      lt\n      tag_215\n      jumpi\n      tag_216\n      tag_125\n      jump\t// in\n    tag_216:\n    tag_215:\n      swap1\n      pop\n      0x40\n      mul\n      add\n        /* \"src/BlueprintManager.sol\":11686:11699  ops[i].amount */\n      0x20\n      add\n      calldataload\n        /* \"src/BlueprintManager.sol\":11672:11677  _mint */\n      tag_111\n        /* \"src/BlueprintManager.sol\":11672:11700  _mint(to, id, ops[i].amount) */\n      jump\t// in\n    tag_214:\n        /* \"src/BlueprintManager.sol\":11732:11735  ops */\n      dup5\n      dup5\n        /* \"src/BlueprintManager.sol\":11736:11737  i */\n      dup4\n        /* \"src/BlueprintManager.sol\":11732:11738  ops[i] */\n      dup2\n      dup2\n      lt\n      tag_217\n      jumpi\n      tag_218\n      tag_125\n      jump\t// in\n    tag_218:\n    tag_217:\n      swap1\n      pop\n      0x40\n      mul\n      add\n        /* \"src/BlueprintManager.sol\":11732:11746  ops[i].tokenId */\n      0x00\n      add\n      calldataload\n        /* \"src/BlueprintManager.sol\":11728:11730  to */\n      dup7\n        /* \"src/BlueprintManager.sol\":11723:11762  Mint(to, ops[i].tokenId, ops[i].amount) */\n      0xffffffffffffffffffffffffffffffffffffffff\n      and\n      0x4c209b5fc8ad50758f13e2e1088ba56a560dff690a1c6fef26394f4c03821c4f\n        /* \"src/BlueprintManager.sol\":11748:11751  ops */\n      dup8\n      dup8\n        /* \"src/BlueprintManager.sol\":11752:11753  i */\n      dup7\n        /* \"src/BlueprintManager.sol\":11748:11754  ops[i] */\n      dup2\n      dup2\n      lt\n      tag_219\n      jumpi\n      tag_220\n      tag_125\n      jump\t// in\n    tag_220:\n    tag_219:\n      swap1\n      pop\n      0x40\n      mul\n      add\n        /* \"src/BlueprintManager.sol\":11748:11761  ops[i].amount */\n      0x20\n      add\n      calldataload\n        /* \"src/BlueprintManager.sol\":11723:11762  Mint(to, ops[i].tokenId, ops[i].amount) */\n      mload(0x40)\n      tag_221\n      swap2\n      swap1\n      tag_38\n      jump\t// in\n    tag_221:\n      mload(0x40)\n      dup1\n      swap2\n      sub\n      swap1\n      log3\n        /* \"src/BlueprintManager.sol\":11577:11777  {... */\n      pop\n        /* \"src/BlueprintManager.sol\":11512:11515  i++ */\n      dup1\n      dup1\n      0x01\n      add\n      swap2\n      pop\n      pop\n        /* \"src/BlueprintManager.sol\":11483:11787  for (uint256 i = 0; i < len; i++) {... */\n      jump(tag_208)\n    tag_209:\n      pop\n        /* \"src/BlueprintManager.sol\":11438:11793  {... */\n      pop\n        /* \"src/BlueprintManager.sol\":11379:11793  function mint(address to, TokenOp[] calldata ops) external {... */\n      pop\n      pop\n      pop\n      jump\t// out\n        /* \"src/BlueprintManager.sol\":3458:3813  function transferFrom(... */\n    tag_102:\n        /* \"src/BlueprintManager.sol\":3604:3608  bool */\n      0x00\n        /* \"src/BlueprintManager.sol\":3638:3644  sender */\n      dup5\n        /* \"src/BlueprintManager.sol\":3624:3644  msg.sender != sender */\n      0xffffffffffffffffffffffffffffffffffffffff\n      and\n        /* \"src/BlueprintManager.sol\":3624:3634  msg.sender */\n      caller\n        /* \"src/BlueprintManager.sol\":3624:3644  msg.sender != sender */\n      0xffffffffffffffffffffffffffffffffffffffff\n      and\n      eq\n      iszero\n        /* \"src/BlueprintManager.sol\":3624:3679  msg.sender != sender && !isOperator[sender][msg.sender] */\n      dup1\n      iszero\n      tag_223\n      jumpi\n      pop\n        /* \"src/BlueprintManager.sol\":3649:3659  isOperator */\n      0x00\n        /* \"src/BlueprintManager.sol\":3649:3667  isOperator[sender] */\n      0x00\n        /* \"src/BlueprintManager.sol\":3660:3666  sender */\n      dup7\n        /* \"src/BlueprintManager.sol\":3649:3667  isOperator[sender] */\n      0xffffffffffffffffffffffffffffffffffffffff\n      and\n      0xffffffffffffffffffffffffffffffffffffffff\n      and\n      dup2\n      mstore\n      0x20\n      add\n      swap1\n      dup2\n      mstore\n      0x20\n      add\n      0x00\n      keccak256\n        /* \"src/BlueprintManager.sol\":3649:3679  isOperator[sender][msg.sender] */\n      0x00\n        /* \"src/BlueprintManager.sol\":3668:3678  msg.sender */\n      caller\n        /* \"src/BlueprintManager.sol\":3649:3679  isOperator[sender][msg.sender] */\n      0xffffffffffffffffffffffffffffffffffffffff\n      and\n      0xffffffffffffffffffffffffffffffffffffffff\n      and\n      dup2\n      mstore\n      0x20\n      add\n      swap1\n      dup2\n      mstore\n      0x20\n      add\n      0x00\n      keccak256\n      0x00\n      swap1\n      sload\n      swap1\n      0x0100\n      exp\n      swap1\n      div\n      0xff\n      and\n        /* \"src/BlueprintManager.sol\":3648:3679  !isOperator[sender][msg.sender] */\n      iszero\n        /* \"src/BlueprintManager.sol\":3624:3679  msg.sender != sender && !isOperator[sender][msg.sender] */\n    tag_223:\n        /* \"src/BlueprintManager.sol\":3620:3730  if (msg.sender != sender && !isOperator[sender][msg.sender])... */\n      iszero\n      tag_224\n      jumpi\n        /* \"src/BlueprintManager.sol\":3693:3730  _decreaseApproval(sender, id, amount) */\n      tag_225\n        /* \"src/BlueprintManager.sol\":3711:3717  sender */\n      dup6\n        /* \"src/BlueprintManager.sol\":3719:3721  id */\n      dup5\n        /* \"src/BlueprintManager.sol\":3723:3729  amount */\n      dup5\n        /* \"src/BlueprintManager.sol\":3693:3710  _decreaseApproval */\n      tag_226\n        /* \"src/BlueprintManager.sol\":3693:3730  _decreaseApproval(sender, id, amount) */\n      jump\t// in\n    tag_225:\n        /* \"src/BlueprintManager.sol\":3620:3730  if (msg.sender != sender && !isOperator[sender][msg.sender])... */\n    tag_224:\n        /* \"src/BlueprintManager.sol\":3741:3784  _transferFrom(sender, receiver, id, amount) */\n      tag_227\n        /* \"src/BlueprintManager.sol\":3755:3761  sender */\n      dup6\n        /* \"src/BlueprintManager.sol\":3763:3771  receiver */\n      dup6\n        /* \"src/BlueprintManager.sol\":3773:3775  id */\n      dup6\n        /* \"src/BlueprintManager.sol\":3777:3783  amount */\n      dup6\n        /* \"src/BlueprintManager.sol\":3741:3754  _transferFrom */\n      tag_106\n        /* \"src/BlueprintManager.sol\":3741:3784  _transferFrom(sender, receiver, id, amount) */\n      jump\t// in\n    tag_227:\n        /* \"src/BlueprintManager.sol\":3802:3806  true */\n      0x01\n        /* \"src/BlueprintManager.sol\":3795:3806  return true */\n      swap1\n      pop\n        /* \"src/BlueprintManager.sol\":3458:3813  function transferFrom(... */\n      swap5\n      swap4\n      pop\n      pop\n      pop\n      pop\n      jump\t// out\n        /* \"src/BlueprintManager.sol\":2548:2788  function _transferFrom(... */\n    tag_106:\n        /* \"src/BlueprintManager.sol\":2682:2705  _burn(from, id, amount) */\n      tag_229\n        /* \"src/BlueprintManager.sol\":2688:2692  from */\n      dup5\n        /* \"src/BlueprintManager.sol\":2694:2696  id */\n      dup4\n        /* \"src/BlueprintManager.sol\":2698:2704  amount */\n      dup4\n        /* \"src/BlueprintManager.sol\":2682:2687  _burn */\n      tag_141\n        /* \"src/BlueprintManager.sol\":2682:2705  _burn(from, id, amount) */\n      jump\t// in\n    tag_229:\n        /* \"src/BlueprintManager.sol\":2715:2736  _mint(to, id, amount) */\n      tag_230\n        /* \"src/BlueprintManager.sol\":2721:2723  to */\n      dup4\n        /* \"src/BlueprintManager.sol\":2725:2727  id */\n      dup4\n        /* \"src/BlueprintManager.sol\":2729:2735  amount */\n      dup4\n        /* \"src/BlueprintManager.sol\":2715:2720  _mint */\n      tag_111\n        /* \"src/BlueprintManager.sol\":2715:2736  _mint(to, id, amount) */\n      jump\t// in\n    tag_230:\n        /* \"src/BlueprintManager.sol\":2770:2772  id */\n      dup2\n        /* \"src/BlueprintManager.sol\":2766:2768  to */\n      dup4\n        /* \"src/BlueprintManager.sol\":2751:2781  Transfer(from, to, id, amount) */\n      0xffffffffffffffffffffffffffffffffffffffff\n      and\n        /* \"src/BlueprintManager.sol\":2760:2764  from */\n      dup6\n        /* \"src/BlueprintManager.sol\":2751:2781  Transfer(from, to, id, amount) */\n      0xffffffffffffffffffffffffffffffffffffffff\n      and\n      0x9ed053bb818ff08b8353cd46f78db1f0799f31c9e4458fdb425c10eccd2efc44\n        /* \"src/BlueprintManager.sol\":2774:2780  amount */\n      dup5\n        /* \"src/BlueprintManager.sol\":2751:2781  Transfer(from, to, id, amount) */\n      mload(0x40)\n      tag_231\n      swap2\n      swap1\n      tag_38\n      jump\t// in\n    tag_231:\n      mload(0x40)\n      dup1\n      swap2\n      sub\n      swap1\n      log4\n        /* \"src/BlueprintManager.sol\":2548:2788  function _transferFrom(... */\n      pop\n      pop\n      pop\n      pop\n      jump\t// out\n        /* \"src/libraries/HashLib.sol\":147:365  function getTokenId(... */\n    tag_110:\n        /* \"src/libraries/HashLib.sol\":237:247  uint256 id */\n      0x00\n        /* \"src/libraries/HashLib.sol\":293:302  blueprint */\n      dup3\n        /* \"src/libraries/HashLib.sol\":290:291  0 */\n      0x00\n        /* \"src/libraries/HashLib.sol\":283:303  mstore(0, blueprint) */\n      mstore\n        /* \"src/libraries/HashLib.sol\":320:329  foreignId */\n      dup2\n        /* \"src/libraries/HashLib.sol\":314:318  0x20 */\n      0x20\n        /* \"src/libraries/HashLib.sol\":307:330  mstore(0x20, foreignId) */\n      mstore\n        /* \"src/libraries/HashLib.sol\":355:357  52 */\n      0x34\n        /* \"src/libraries/HashLib.sol\":351:353  12 */\n      0x0c\n        /* \"src/libraries/HashLib.sol\":341:358  keccak256(12, 52) */\n      keccak256\n        /* \"src/libraries/HashLib.sol\":335:358  id := keccak256(12, 52) */\n      swap1\n      pop\n        /* \"src/libraries/HashLib.sol\":147:365  function getTokenId(... */\n      swap3\n      swap2\n      pop\n      pop\n      jump\t// out\n        /* \"src/BlueprintManager.sol\":1729:2075  function _mint(address to, uint256 id, uint256 amount) internal override {... */\n    tag_111:\n        /* \"src/BlueprintManager.sol\":1812:1830  uint256 packedData */\n      0x00\n        /* \"src/BlueprintManager.sol\":1833:1845  tokenStorage */\n      0x03\n        /* \"src/BlueprintManager.sol\":1833:1849  tokenStorage[id] */\n      0x00\n        /* \"src/BlueprintManager.sol\":1846:1848  id */\n      dup5\n        /* \"src/BlueprintManager.sol\":1833:1849  tokenStorage[id] */\n      dup2\n      mstore\n      0x20\n      add\n      swap1\n      dup2\n      mstore\n      0x20\n      add\n      0x00\n      keccak256\n      sload\n        /* \"src/BlueprintManager.sol\":1812:1849  uint256 packedData = tokenStorage[id] */\n      swap1\n      pop\n        /* \"src/BlueprintManager.sol\":1859:1876  uint256 newAmount */\n      0x00\n        /* \"src/BlueprintManager.sol\":1903:1917  (1 << 255) - 1 */\n      0x7fffffffffffffffffffffffffffffffffffffffffffffffffffffffffffffff\n        /* \"src/BlueprintManager.sol\":1889:1899  packedData */\n      dup3\n        /* \"src/BlueprintManager.sol\":1889:1918  packedData & ((1 << 255) - 1) */\n      and\n        /* \"src/BlueprintManager.sol\":1879:1885  amount */\n      dup4\n        /* \"src/BlueprintManager.sol\":1879:1919  amount + (packedData & ((1 << 255) - 1)) */\n      tag_234\n      swap2\n      swap1\n      tag_235\n      jump\t// in\n    tag_234:\n        /* \"src/BlueprintManager.sol\":1859:1919  uint256 newAmount = amount + (packedData & ((1 << 255) - 1)) */\n      swap1\n      pop\n        /* \"src/BlueprintManager.sol\":2002:2011  newAmount */\n      dup1\n        /* \"src/BlueprintManager.sol\":1989:1997  1 << 255 */\n      0x8000000000000000000000000000000000000000000000000000000000000000\n        /* \"src/BlueprintManager.sol\":1975:1985  packedData */\n      dup4\n        /* \"src/BlueprintManager.sol\":1975:1998  packedData & (1 << 255) */\n      and\n        /* \"src/BlueprintManager.sol\":1974:2011  (packedData & (1 << 255)) | newAmount */\n      or\n        /* \"src/BlueprintManager.sol\":1955:1967  tokenStorage */\n      0x03\n        /* \"src/BlueprintManager.sol\":1955:1971  tokenStorage[id] */\n      0x00\n        /* \"src/BlueprintManager.sol\":1968:1970  id */\n      dup7\n        /* \"src/BlueprintManager.sol\":1955:1971  tokenStorage[id] */\n      dup2\n      mstore\n      0x20\n      add\n      swap1\n      dup2\n      mstore\n      0x20\n      add\n      0x00\n      keccak256\n        /* \"src/BlueprintManager.sol\":1955:2011  tokenStorage[id] = (packedData & (1 << 255)) | newAmount */\n      dup2\n      swap1\n      sstore\n      pop\n        /* \"src/BlueprintManager.sol\":2057:2059  id */\n      dup4\n        /* \"src/BlueprintManager.sol\":2053:2055  to */\n      dup6\n        /* \"src/BlueprintManager.sol\":2048:2068  Mint(to, id, amount) */\n      0xffffffffffffffffffffffffffffffffffffffff\n      and\n      0x4c209b5fc8ad50758f13e2e1088ba56a560dff690a1c6fef26394f4c03821c4f\n        /* \"src/BlueprintManager.sol\":2061:2067  amount */\n      dup6\n        /* \"src/BlueprintManager.sol\":2048:2068  Mint(to, id, amount) */\n      mload(0x40)\n      tag_236\n      swap2\n      swap1\n      tag_38\n      jump\t// in\n    tag_236:\n      mload(0x40)\n      dup1\n      swap2\n      sub\n      swap1\n      log3\n        /* \"src/BlueprintManager.sol\":1802:2075  {... */\n      pop\n      pop\n        /* \"src/BlueprintManager.sol\":1729:2075  function _mint(address to, uint256 id, uint256 amount) internal override {... */\n      pop\n      pop\n      pop\n      jump\t// out\n        /* \"src/FlashAccounting.sol\":923:1559  function getCurrentSession() internal view returns (FlashSession session) {... */\n    tag_117:\n        /* \"src/FlashAccounting.sol\":975:995  FlashSession session */\n      0x00\n        /* \"src/FlashAccounting.sol\":1007:1023  address realizer */\n      0x00\n        /* \"src/FlashAccounting.sol\":1033:1050  uint256 mainIndex */\n      0x00\n        /* \"src/FlashAccounting.sol\":1121:1122  0 */\n      0x00\n        /* \"src/FlashAccounting.sol\":1115:1123  tload(0) */\n      tload\n        /* \"src/FlashAccounting.sol\":1163:1175  _96_BIT_FLAG */\n      0xffffffffffffffffffffffff\n        /* \"src/FlashAccounting.sol\":1153:1161  mainClue */\n      dup2\n        /* \"src/FlashAccounting.sol\":1149:1176  and(mainClue, _96_BIT_FLAG) */\n      and\n        /* \"src/FlashAccounting.sol\":1136:1176  mainIndex := and(mainClue, _96_BIT_FLAG) */\n      swap2\n      pop\n        /* \"src/FlashAccounting.sol\":1209:1217  mainClue */\n      dup1\n        /* \"src/FlashAccounting.sol\":1205:1207  96 */\n      0x60\n        /* \"src/FlashAccounting.sol\":1201:1218  shr(96, mainClue) */\n      shr\n        /* \"src/FlashAccounting.sol\":1189:1218  realizer := shr(96, mainClue) */\n      swap3\n      pop\n        /* \"src/FlashAccounting.sol\":1085:1228  {... */\n      pop\n        /* \"src/FlashAccounting.sol\":1255:1256  0 */\n      0x00\n        /* \"src/FlashAccounting.sol\":1242:1251  mainIndex */\n      dup2\n        /* \"src/FlashAccounting.sol\":1242:1256  mainIndex == 0 */\n      sub\n        /* \"src/FlashAccounting.sol\":1238:1290  if (mainIndex == 0) revert NoFlashAccountingActive() */\n      tag_238\n      jumpi\n        /* \"src/FlashAccounting.sol\":1265:1290  NoFlashAccountingActive() */\n      mload(0x40)\n      0x97013e4300000000000000000000000000000000000000000000000000000000\n      dup2\n      mstore\n      0x04\n      add\n      mload(0x40)\n      dup1\n      swap2\n      sub\n      swap1\n      revert\n        /* \"src/FlashAccounting.sol\":1238:1290  if (mainIndex == 0) revert NoFlashAccountingActive() */\n    tag_238:\n        /* \"src/FlashAccounting.sol\":1365:1366  1 */\n      0x01\n        /* \"src/FlashAccounting.sol\":1354:1363  mainIndex */\n      dup2\n        /* \"src/FlashAccounting.sol\":1350:1367  sub(mainIndex, 1) */\n      sub\n        /* \"src/FlashAccounting.sol\":1347:1348  0 */\n      0x00\n        /* \"src/FlashAccounting.sol\":1340:1368  mstore(0, sub(mainIndex, 1)) */\n      mstore\n        /* \"src/FlashAccounting.sol\":1394:1395  0 */\n      0x00\n        /* \"src/FlashAccounting.sol\":1388:1392  0x20 */\n      0x20\n        /* \"src/FlashAccounting.sol\":1381:1396  mstore(0x20, 0) */\n      mstore\n        /* \"src/FlashAccounting.sol\":1435:1437  44 */\n      0x2c\n        /* \"src/FlashAccounting.sol\":1431:1433  20 */\n      0x14\n        /* \"src/FlashAccounting.sol\":1421:1438  keccak256(20, 44) */\n      keccak256\n        /* \"src/FlashAccounting.sol\":1410:1438  session := keccak256(20, 44) */\n      swap3\n      pop\n        /* \"src/FlashAccounting.sol\":1482:1483  0 */\n      0x00\n        /* \"src/FlashAccounting.sol\":1462:1484  realizer != address(0) */\n      0xffffffffffffffffffffffffffffffffffffffff\n      and\n        /* \"src/FlashAccounting.sol\":1462:1470  realizer */\n      dup3\n        /* \"src/FlashAccounting.sol\":1462:1484  realizer != address(0) */\n      0xffffffffffffffffffffffffffffffffffffffff\n      and\n      eq\n      iszero\n        /* \"src/FlashAccounting.sol\":1462:1510  realizer != address(0) && realizer != msg.sender */\n      dup1\n      iszero\n      tag_239\n      jumpi\n      pop\n        /* \"src/FlashAccounting.sol\":1500:1510  msg.sender */\n      caller\n        /* \"src/FlashAccounting.sol\":1488:1510  realizer != msg.sender */\n      0xffffffffffffffffffffffffffffffffffffffff\n      and\n        /* \"src/FlashAccounting.sol\":1488:1496  realizer */\n      dup3\n        /* \"src/FlashAccounting.sol\":1488:1510  realizer != msg.sender */\n      0xffffffffffffffffffffffffffffffffffffffff\n      and\n      eq\n      iszero\n        /* \"src/FlashAccounting.sol\":1462:1510  realizer != address(0) && realizer != msg.sender */\n    tag_239:\n        /* \"src/FlashAccounting.sol\":1458:1552  if (realizer != address(0) && realizer != msg.sender)... */\n      iszero\n      tag_240\n      jumpi\n        /* \"src/FlashAccounting.sol\":1531:1552  RealizeAccessDenied() */\n      mload(0x40)\n      0x1230858900000000000000000000000000000000000000000000000000000000\n      dup2\n      mstore\n      0x04\n      add\n      mload(0x40)\n      dup1\n      swap2\n      sub\n      swap1\n      revert\n        /* \"src/FlashAccounting.sol\":1458:1552  if (realizer != address(0) && realizer != msg.sender)... */\n    tag_240:\n        /* \"src/FlashAccounting.sol\":997:1559  {... */\n      pop\n      pop\n        /* \"src/FlashAccounting.sol\":923:1559  function getCurrentSession() internal view returns (FlashSession session) {... */\n      swap1\n      jump\t// out\n        /* \"src/FlashAccounting.sol\":2842:3446  function initializeUserSession(... */\n    tag_119:\n        /* \"src/FlashAccounting.sol\":2949:2977  FlashUserSession userSession */\n      0x00\n        /* \"src/FlashAccounting.sol\":2979:2996  UserClue userClue */\n      0x00\n        /* \"src/FlashAccounting.sol\":3022:3051  getUserSession(session, user) */\n      tag_242\n        /* \"src/FlashAccounting.sol\":3037:3044  session */\n      dup5\n        /* \"src/FlashAccounting.sol\":3046:3050  user */\n      dup5\n        /* \"src/FlashAccounting.sol\":3022:3036  getUserSession */\n      tag_243\n        /* \"src/FlashAccounting.sol\":3022:3051  getUserSession(session, user) */\n      jump\t// in\n    tag_242:\n        /* \"src/FlashAccounting.sol\":3008:3051  userSession = getUserSession(session, user) */\n      swap2\n      pop\n        /* \"src/FlashAccounting.sol\":3103:3114  userSession */\n      dup2\n        /* \"src/FlashAccounting.sol\":3097:3115  tload(userSession) */\n      tload\n        /* \"src/FlashAccounting.sol\":3085:3115  userClue := tload(userSession) */\n      swap1\n      pop\n        /* \"src/FlashAccounting.sol\":3139:3147  userClue */\n      dup1\n        /* \"src/FlashAccounting.sol\":3129:3389  if iszero(userClue) {... */\n      tag_244\n      jumpi\n        /* \"src/FlashAccounting.sol\":3206:3207  1 */\n      0x01\n        /* \"src/FlashAccounting.sol\":3196:3203  session */\n      dup5\n        /* \"src/FlashAccounting.sol\":3190:3204  tload(session) */\n      tload\n        /* \"src/FlashAccounting.sol\":3186:3208  add(tload(session), 1) */\n      add\n        /* \"src/FlashAccounting.sol\":3241:3252  sessionClue */\n      dup1\n        /* \"src/FlashAccounting.sol\":3232:3239  session */\n      dup6\n        /* \"src/FlashAccounting.sol\":3225:3253  tstore(session, sessionClue) */\n      tstore\n        /* \"src/FlashAccounting.sol\":3370:3374  user */\n      dup4\n        /* \"src/FlashAccounting.sol\":3356:3367  sessionClue */\n      dup2\n        /* \"src/FlashAccounting.sol\":3347:3354  session */\n      dup7\n        /* \"src/FlashAccounting.sol\":3343:3368  add(session, sessionClue) */\n      add\n        /* \"src/FlashAccounting.sol\":3336:3375  tstore(add(session, sessionClue), user) */\n      tstore\n        /* \"src/FlashAccounting.sol\":3149:3389  {... */\n      pop\n        /* \"src/FlashAccounting.sol\":3129:3389  if iszero(userClue) {... */\n    tag_244:\n        /* \"src/FlashAccounting.sol\":2842:3446  function initializeUserSession(... */\n      swap3\n      pop\n      swap3\n      swap1\n      pop\n      jump\t// out\n        /* \"src/FlashAccounting.sol\":6060:7941  function addUserDebitWithClue(... */\n    tag_127:\n        /* \"src/FlashAccounting.sol\":6223:6231  UserClue */\n      0x00\n        /* \"src/FlashAccounting.sol\":6292:6294  id */\n      dup3\n        /* \"src/FlashAccounting.sol\":6289:6290  0 */\n      0x00\n        /* \"src/FlashAccounting.sol\":6282:6295  mstore(0, id) */\n      mstore\n        /* \"src/FlashAccounting.sol\":6321:6332  userSession */\n      dup5\n        /* \"src/FlashAccounting.sol\":6315:6319  0x20 */\n      0x20\n        /* \"src/FlashAccounting.sol\":6308:6333  mstore(0x20, userSession) */\n      mstore\n        /* \"src/FlashAccounting.sol\":6377:6381  0x40 */\n      0x40\n        /* \"src/FlashAccounting.sol\":6374:6375  0 */\n      0x00\n        /* \"src/FlashAccounting.sol\":6364:6382  keccak256(0, 0x40) */\n      keccak256\n        /* \"src/FlashAccounting.sol\":6479:6488  deltaSlot */\n      dup1\n        /* \"src/FlashAccounting.sol\":6473:6489  tload(deltaSlot) */\n      tload\n        /* \"src/FlashAccounting.sol\":6523:6531  deltaVal */\n      dup1\n        /* \"src/FlashAccounting.sol\":6520:6521  1 */\n      0x01\n        /* \"src/FlashAccounting.sol\":6516:6532  sar(1, deltaVal) */\n      sar\n        /* \"src/FlashAccounting.sol\":6572:6578  amount */\n      dup5\n        /* \"src/FlashAccounting.sol\":6565:6570  delta */\n      dup2\n        /* \"src/FlashAccounting.sol\":6561:6579  sub(delta, amount) */\n      sub\n        /* \"src/FlashAccounting.sol\":6803:6804  2 */\n      0x02\n        /* \"src/FlashAccounting.sol\":6792:6800  newDelta */\n      dup2\n        /* \"src/FlashAccounting.sol\":6787:6790  254 */\n      0xfe\n        /* \"src/FlashAccounting.sol\":6783:6801  shr(254, newDelta) */\n      shr\n        /* \"src/FlashAccounting.sol\":6780:6805  eq(shr(254, newDelta), 2) */\n      eq\n        /* \"src/FlashAccounting.sol\":6769:6777  newDelta */\n      dup2\n        /* \"src/FlashAccounting.sol\":6762:6767  delta */\n      dup4\n        /* \"src/FlashAccounting.sol\":6758:6778  slt(delta, newDelta) */\n      slt\n        /* \"src/FlashAccounting.sol\":6755:6806  or(slt(delta, newDelta), eq(shr(254, newDelta), 2)) */\n      or\n        /* \"src/FlashAccounting.sol\":6824:6825  1 */\n      0x01\n        /* \"src/FlashAccounting.sol\":6819:7482  case 1 {... */\n      dup2\n      eq\n      tag_247\n      jumpi\n        /* \"src/FlashAccounting.sol\":7585:7586  1 */\n      0x01\n        /* \"src/FlashAccounting.sol\":7575:7583  deltaVal */\n      dup5\n        /* \"src/FlashAccounting.sol\":7571:7587  and(deltaVal, 1) */\n      and\n        /* \"src/FlashAccounting.sol\":7560:7568  newDelta */\n      dup3\n        /* \"src/FlashAccounting.sol\":7557:7558  1 */\n      0x01\n        /* \"src/FlashAccounting.sol\":7553:7569  shl(1, newDelta) */\n      shl\n        /* \"src/FlashAccounting.sol\":7550:7588  or(shl(1, newDelta), and(deltaVal, 1)) */\n      or\n        /* \"src/FlashAccounting.sol\":7539:7548  deltaSlot */\n      dup6\n        /* \"src/FlashAccounting.sol\":7532:7589  tstore(deltaSlot, or(shl(1, newDelta), and(deltaVal, 1))) */\n      tstore\n        /* \"src/FlashAccounting.sol\":6748:7603  switch or(slt(delta, newDelta), eq(shr(254, newDelta), 2))... */\n      jump(tag_246)\n        /* \"src/FlashAccounting.sol\":6819:7482  case 1 {... */\n    tag_247:\n        /* \"src/FlashAccounting.sol\":6879:6880  1 */\n      0x01\n        /* \"src/FlashAccounting.sol\":6868:6877  deltaSlot */\n      dup6\n        /* \"src/FlashAccounting.sol\":6864:6881  add(deltaSlot, 1) */\n      add\n        /* \"src/FlashAccounting.sol\":7011:7021  _2_POW_254 */\n      0x4000000000000000000000000000000000000000000000000000000000000000\n        /* \"src/FlashAccounting.sol\":7001:7009  newDelta */\n      dup4\n        /* \"src/FlashAccounting.sol\":6997:7022  add(newDelta, _2_POW_254) */\n      add\n        /* \"src/FlashAccounting.sol\":6992:6995  255 */\n      0xff\n        /* \"src/FlashAccounting.sol\":6988:7023  shr(255, add(newDelta, _2_POW_254)) */\n      shr\n        /* \"src/FlashAccounting.sol\":6985:6986  2 */\n      0x02\n        /* \"src/FlashAccounting.sol\":6981:7024  sub(2, shr(255, add(newDelta, _2_POW_254))) */\n      sub\n        /* \"src/FlashAccounting.sol\":7122:7123  0 */\n      0x00\n        /* \"src/FlashAccounting.sol\":7157:7158  1 */\n      0x01\n        /* \"src/FlashAccounting.sol\":7147:7155  deltaVal */\n      dup8\n        /* \"src/FlashAccounting.sol\":7143:7159  and(deltaVal, 1) */\n      and\n        /* \"src/FlashAccounting.sol\":7140:7231  if and(deltaVal, 1) {... */\n      iszero\n      tag_248\n      jumpi\n        /* \"src/FlashAccounting.sol\":7200:7212  preDeltaSlot */\n      dup3\n        /* \"src/FlashAccounting.sol\":7194:7213  tload(preDeltaSlot) */\n      tload\n        /* \"src/FlashAccounting.sol\":7182:7213  preDelta := tload(preDeltaSlot) */\n      swap1\n      pop\n        /* \"src/FlashAccounting.sol\":7140:7231  if and(deltaVal, 1) {... */\n    tag_248:\n        /* \"src/FlashAccounting.sol\":7274:7279  carry */\n      dup2\n        /* \"src/FlashAccounting.sol\":7264:7272  preDelta */\n      dup2\n        /* \"src/FlashAccounting.sol\":7260:7280  sub(preDelta, carry) */\n      sub\n        /* \"src/FlashAccounting.sol\":7248:7280  preDelta := sub(preDelta, carry) */\n      swap1\n      pop\n        /* \"src/FlashAccounting.sol\":7319:7327  preDelta */\n      dup1\n        /* \"src/FlashAccounting.sol\":7305:7317  preDeltaSlot */\n      dup4\n        /* \"src/FlashAccounting.sol\":7298:7328  tstore(preDeltaSlot, preDelta) */\n      tstore\n        /* \"src/FlashAccounting.sol\":7439:7447  preDelta */\n      dup1\n        /* \"src/FlashAccounting.sol\":7432:7448  iszero(preDelta) */\n      iszero\n        /* \"src/FlashAccounting.sol\":7425:7449  iszero(iszero(preDelta)) */\n      iszero\n        /* \"src/FlashAccounting.sol\":7414:7422  newDelta */\n      dup6\n        /* \"src/FlashAccounting.sol\":7411:7412  1 */\n      0x01\n        /* \"src/FlashAccounting.sol\":7407:7423  shl(1, newDelta) */\n      shl\n        /* \"src/FlashAccounting.sol\":7404:7450  or(shl(1, newDelta), iszero(iszero(preDelta))) */\n      or\n        /* \"src/FlashAccounting.sol\":7373:7382  deltaSlot */\n      dup9\n        /* \"src/FlashAccounting.sol\":7345:7468  tstore(... */\n      tstore\n        /* \"src/FlashAccounting.sol\":6826:7482  {... */\n      pop\n      pop\n      pop\n        /* \"src/FlashAccounting.sol\":6748:7603  switch or(slt(delta, newDelta), eq(shr(254, newDelta), 2))... */\n    tag_246:\n      pop\n        /* \"src/FlashAccounting.sol\":7681:7689  deltaVal */\n      dup3\n        /* \"src/FlashAccounting.sol\":7671:7899  if iszero(deltaVal) {... */\n      tag_249\n      jumpi\n        /* \"src/FlashAccounting.sol\":7735:7736  1 */\n      0x01\n        /* \"src/FlashAccounting.sol\":7725:7733  userClue */\n      dup9\n        /* \"src/FlashAccounting.sol\":7721:7737  add(userClue, 1) */\n      add\n        /* \"src/FlashAccounting.sol\":7709:7737  userClue := add(userClue, 1) */\n      swap8\n      pop\n        /* \"src/FlashAccounting.sol\":7882:7884  id */\n      dup7\n        /* \"src/FlashAccounting.sol\":7871:7879  userClue */\n      dup9\n        /* \"src/FlashAccounting.sol\":7858:7869  userSession */\n      dup11\n        /* \"src/FlashAccounting.sol\":7854:7880  add(userSession, userClue) */\n      add\n        /* \"src/FlashAccounting.sol\":7847:7885  tstore(add(userSession, userClue), id) */\n      tstore\n        /* \"src/FlashAccounting.sol\":7671:7899  if iszero(deltaVal) {... */\n    tag_249:\n        /* \"src/FlashAccounting.sol\":6268:7909  {... */\n      pop\n      pop\n      pop\n      pop\n        /* \"src/FlashAccounting.sol\":7926:7934  userClue */\n      dup4\n        /* \"src/FlashAccounting.sol\":7919:7934  return userClue */\n      swap1\n      pop\n        /* \"src/FlashAccounting.sol\":6060:7941  function addUserDebitWithClue(... */\n      swap5\n      swap4\n      pop\n      pop\n      pop\n      pop\n      jump\t// out\n        /* \"src/FlashAccounting.sol\":7947:8143  function saveUserClue(... */\n    tag_130:\n        /* \"src/FlashAccounting.sol\":8118:8126  userClue */\n      dup1\n        /* \"src/FlashAccounting.sol\":8105:8116  userSession */\n      dup3\n        /* \"src/FlashAccounting.sol\":8098:8127  tstore(userSession, userClue) */\n      tstore\n        /* \"src/FlashAccounting.sol\":7947:8143  function saveUserClue(... */\n      pop\n      pop\n      jump\t// out\n        /* \"src/BlueprintManager.sol\":2081:2542  function _burn(address from, uint256 id, uint256 amount) internal override {... */\n    tag_141:\n        /* \"src/BlueprintManager.sol\":2166:2184  uint256 packedData */\n      0x00\n        /* \"src/BlueprintManager.sol\":2187:2199  tokenStorage */\n      0x03\n        /* \"src/BlueprintManager.sol\":2187:2203  tokenStorage[id] */\n      0x00\n        /* \"src/BlueprintManager.sol\":2200:2202  id */\n      dup5\n        /* \"src/BlueprintManager.sol\":2187:2203  tokenStorage[id] */\n      dup2\n      mstore\n      0x20\n      add\n      swap1\n      dup2\n      mstore\n      0x20\n      add\n      0x00\n      keccak256\n      sload\n        /* \"src/BlueprintManager.sol\":2166:2203  uint256 packedData = tokenStorage[id] */\n      swap1\n      pop\n        /* \"src/BlueprintManager.sol\":2213:2234  uint256 currentAmount */\n      0x00\n        /* \"src/BlueprintManager.sol\":2251:2265  (1 << 255) - 1 */\n      0x7fffffffffffffffffffffffffffffffffffffffffffffffffffffffffffffff\n        /* \"src/BlueprintManager.sol\":2237:2247  packedData */\n      dup3\n        /* \"src/BlueprintManager.sol\":2237:2266  packedData & ((1 << 255) - 1) */\n      and\n        /* \"src/BlueprintManager.sol\":2213:2266  uint256 currentAmount = packedData & ((1 << 255) - 1) */\n      swap1\n      pop\n        /* \"src/BlueprintManager.sol\":2327:2333  amount */\n      dup3\n        /* \"src/BlueprintManager.sol\":2310:2323  currentAmount */\n      dup2\n        /* \"src/BlueprintManager.sol\":2310:2333  currentAmount >= amount */\n      lt\n      iszero\n        /* \"src/BlueprintManager.sol\":2302:2358  require(currentAmount >= amount, \"Insufficient balance\") */\n      tag_252\n      jumpi\n      mload(0x40)\n      0x08c379a000000000000000000000000000000000000000000000000000000000\n      dup2\n      mstore\n      0x04\n      add\n      tag_253\n      swap1\n      tag_254\n      jump\t// in\n    tag_253:\n      mload(0x40)\n      dup1\n      swap2\n      sub\n      swap1\n      revert\n    tag_252:\n        /* \"src/BlueprintManager.sol\":2368:2385  uint256 newAmount */\n      0x00\n        /* \"src/BlueprintManager.sol\":2404:2410  amount */\n      dup4\n        /* \"src/BlueprintManager.sol\":2388:2401  currentAmount */\n      dup3\n        /* \"src/BlueprintManager.sol\":2388:2410  currentAmount - amount */\n      tag_255\n      swap2\n      swap1\n      tag_256\n      jump\t// in\n    tag_255:\n        /* \"src/BlueprintManager.sol\":2368:2410  uint256 newAmount = currentAmount - amount */\n      swap1\n      pop\n        /* \"src/BlueprintManager.sol\":2467:2476  newAmount */\n      dup1\n        /* \"src/BlueprintManager.sol\":2454:2462  1 << 255 */\n      0x8000000000000000000000000000000000000000000000000000000000000000\n        /* \"src/BlueprintManager.sol\":2440:2450  packedData */\n      dup5\n        /* \"src/BlueprintManager.sol\":2440:2463  packedData & (1 << 255) */\n      and\n        /* \"src/BlueprintManager.sol\":2439:2476  (packedData & (1 << 255)) | newAmount */\n      or\n        /* \"src/BlueprintManager.sol\":2420:2432  tokenStorage */\n      0x03\n        /* \"src/BlueprintManager.sol\":2420:2436  tokenStorage[id] */\n      0x00\n        /* \"src/BlueprintManager.sol\":2433:2435  id */\n      dup8\n        /* \"src/BlueprintManager.sol\":2420:2436  tokenStorage[id] */\n      dup2\n      mstore\n      0x20\n      add\n      swap1\n      dup2\n      mstore\n      0x20\n      add\n      0x00\n      keccak256\n        /* \"src/BlueprintManager.sol\":2420:2476  tokenStorage[id] = (packedData & (1 << 255)) | newAmount */\n      dup2\n      swap1\n      sstore\n      pop\n        /* \"src/BlueprintManager.sol\":2524:2526  id */\n      dup5\n        /* \"src/BlueprintManager.sol\":2518:2522  from */\n      dup7\n        /* \"src/BlueprintManager.sol\":2513:2535  Burn(from, id, amount) */\n      0xffffffffffffffffffffffffffffffffffffffff\n      and\n      0x49995e5dd6158cf69ad3e9777c46755a1a826a446c6416992167462dad033b2a\n        /* \"src/BlueprintManager.sol\":2528:2534  amount */\n      dup7\n        /* \"src/BlueprintManager.sol\":2513:2535  Burn(from, id, amount) */\n      mload(0x40)\n      tag_257\n      swap2\n      swap1\n      tag_38\n      jump\t// in\n    tag_257:\n      mload(0x40)\n      dup1\n      swap2\n      sub\n      swap1\n      log3\n        /* \"src/BlueprintManager.sol\":2156:2542  {... */\n      pop\n      pop\n      pop\n        /* \"src/BlueprintManager.sol\":2081:2542  function _burn(address from, uint256 id, uint256 amount) internal override {... */\n      pop\n      pop\n      pop\n      jump\t// out\n        /* \"src/BlueprintManager.sol\":5590:8614  function _flashCook(... */\n    tag_159:\n        /* \"src/BlueprintManager.sol\":5702:5719  address blueprint */\n      0x00\n        /* \"src/BlueprintManager.sol\":5722:5726  call */\n      dup3\n        /* \"src/BlueprintManager.sol\":5722:5736  call.blueprint */\n      0x20\n      add\n      0x20\n      dup2\n      add\n      swap1\n      tag_259\n      swap2\n      swap1\n      tag_260\n      jump\t// in\n    tag_259:\n        /* \"src/BlueprintManager.sol\":5702:5736  address blueprint = call.blueprint */\n      swap1\n      pop\n        /* \"src/BlueprintManager.sol\":5747:5766  bool checkApprovals */\n      0x00\n        /* \"src/BlueprintManager.sol\":5776:5790  address sender */\n      0x00\n        /* \"src/BlueprintManager.sol\":5793:5797  call */\n      dup5\n        /* \"src/BlueprintManager.sol\":5793:5804  call.sender */\n      0x00\n      add\n      0x20\n      dup2\n      add\n      swap1\n      tag_261\n      swap2\n      swap1\n      tag_260\n      jump\t// in\n    tag_261:\n        /* \"src/BlueprintManager.sol\":5776:5804  address sender = call.sender */\n      swap1\n      pop\n        /* \"src/BlueprintManager.sol\":5836:5837  0 */\n      0x00\n        /* \"src/BlueprintManager.sol\":5818:5838  sender == address(0) */\n      0xffffffffffffffffffffffffffffffffffffffff\n      and\n        /* \"src/BlueprintManager.sol\":5818:5824  sender */\n      dup2\n        /* \"src/BlueprintManager.sol\":5818:5838  sender == address(0) */\n      0xffffffffffffffffffffffffffffffffffffffff\n      and\n      sub\n        /* \"src/BlueprintManager.sol\":5814:6024  if (sender == address(0)) {... */\n      tag_262\n      jumpi\n        /* \"src/BlueprintManager.sol\":5890:5900  msg.sender */\n      caller\n        /* \"src/BlueprintManager.sol\":5881:5900  sender = msg.sender */\n      swap1\n      pop\n        /* \"src/BlueprintManager.sol\":5814:6024  if (sender == address(0)) {... */\n      jump(tag_263)\n    tag_262:\n        /* \"src/BlueprintManager.sol\":5931:5941  msg.sender */\n      caller\n        /* \"src/BlueprintManager.sol\":5921:5941  sender != msg.sender */\n      0xffffffffffffffffffffffffffffffffffffffff\n      and\n        /* \"src/BlueprintManager.sol\":5921:5927  sender */\n      dup2\n        /* \"src/BlueprintManager.sol\":5921:5941  sender != msg.sender */\n      0xffffffffffffffffffffffffffffffffffffffff\n      and\n      eq\n      iszero\n        /* \"src/BlueprintManager.sol\":5921:5976  sender != msg.sender && !isOperator[sender][msg.sender] */\n      dup1\n      iszero\n      tag_264\n      jumpi\n      pop\n        /* \"src/BlueprintManager.sol\":5946:5956  isOperator */\n      0x00\n        /* \"src/BlueprintManager.sol\":5946:5964  isOperator[sender] */\n      0x00\n        /* \"src/BlueprintManager.sol\":5957:5963  sender */\n      dup3\n        /* \"src/BlueprintManager.sol\":5946:5964  isOperator[sender] */\n      0xffffffffffffffffffffffffffffffffffffffff\n      and\n      0xffffffffffffffffffffffffffffffffffffffff\n      and\n      dup2\n      mstore\n      0x20\n      add\n      swap1\n      dup2\n      mstore\n      0x20\n      add\n      0x00\n      keccak256\n        /* \"src/BlueprintManager.sol\":5946:5976  isOperator[sender][msg.sender] */\n      0x00\n        /* \"src/BlueprintManager.sol\":5965:5975  msg.sender */\n      caller\n        /* \"src/BlueprintManager.sol\":5946:5976  isOperator[sender][msg.sender] */\n      0xffffffffffffffffffffffffffffffffffffffff\n      and\n      0xffffffffffffffffffffffffffffffffffffffff\n      and\n      dup2\n      mstore\n      0x20\n      add\n      swap1\n      dup2\n      mstore\n      0x20\n      add\n      0x00\n      keccak256\n      0x00\n      swap1\n      sload\n      swap1\n      0x0100\n      exp\n      swap1\n      div\n      0xff\n      and\n        /* \"src/BlueprintManager.sol\":5945:5976  !isOperator[sender][msg.sender] */\n      iszero\n        /* \"src/BlueprintManager.sol\":5921:5976  sender != msg.sender && !isOperator[sender][msg.sender] */\n    tag_264:\n        /* \"src/BlueprintManager.sol\":5917:6024  if (sender != msg.sender && !isOperator[sender][msg.sender]) {... */\n      iszero\n      tag_265\n      jumpi\n        /* \"src/BlueprintManager.sol\":6009:6013  true */\n      0x01\n        /* \"src/BlueprintManager.sol\":5992:6013  checkApprovals = true */\n      swap2\n      pop\n        /* \"src/BlueprintManager.sol\":5917:6024  if (sender != msg.sender && !isOperator[sender][msg.sender]) {... */\n    tag_265:\n        /* \"src/BlueprintManager.sol\":5814:6024  if (sender == address(0)) {... */\n    tag_263:\n        /* \"src/BlueprintManager.sol\":6048:6070  TokenOp[] memory mint_ */\n      0x00\n        /* \"src/BlueprintManager.sol\":6084:6106  TokenOp[] memory burn_ */\n      0x00\n        /* \"src/BlueprintManager.sol\":6120:6141  TokenOp[] memory give */\n      0x00\n        /* \"src/BlueprintManager.sol\":6155:6176  TokenOp[] memory take */\n      0x00\n        /* \"src/BlueprintManager.sol\":6189:6209  _executeAction(call) */\n      tag_266\n        /* \"src/BlueprintManager.sol\":6204:6208  call */\n      dup10\n        /* \"src/BlueprintManager.sol\":6189:6203  _executeAction */\n      tag_267\n        /* \"src/BlueprintManager.sol\":6189:6209  _executeAction(call) */\n      jump\t// in\n    tag_266:\n        /* \"src/BlueprintManager.sol\":6034:6209  (... */\n      swap4\n      pop\n      swap4\n      pop\n      swap4\n      pop\n      swap4\n      pop\n        /* \"src/BlueprintManager.sol\":6234:6264  FlashUserSession senderSession */\n      0x00\n        /* \"src/BlueprintManager.sol\":6278:6297  UserClue senderClue */\n      0x00\n        /* \"src/BlueprintManager.sol\":6310:6348  initializeUserSession(session, sender) */\n      tag_268\n        /* \"src/BlueprintManager.sol\":6332:6339  session */\n      dup11\n        /* \"src/BlueprintManager.sol\":6341:6347  sender */\n      dup9\n        /* \"src/BlueprintManager.sol\":6310:6331  initializeUserSession */\n      tag_119\n        /* \"src/BlueprintManager.sol\":6310:6348  initializeUserSession(session, sender) */\n      jump\t// in\n    tag_268:\n        /* \"src/BlueprintManager.sol\":6220:6348  (... */\n      swap2\n      pop\n      swap2\n      pop\n        /* \"src/BlueprintManager.sol\":6364:6373  uint256 i */\n      0x00\n        /* \"src/BlueprintManager.sol\":6376:6377  0 */\n      0x00\n        /* \"src/BlueprintManager.sol\":6364:6377  uint256 i = 0 */\n      swap1\n      pop\n        /* \"src/BlueprintManager.sol\":6359:6632  for (uint256 i = 0; i < mint_.length; i++) {... */\n    tag_269:\n        /* \"src/BlueprintManager.sol\":6383:6388  mint_ */\n      dup7\n        /* \"src/BlueprintManager.sol\":6383:6395  mint_.length */\n      mload\n        /* \"src/BlueprintManager.sol\":6379:6380  i */\n      dup2\n        /* \"src/BlueprintManager.sol\":6379:6395  i < mint_.length */\n      lt\n        /* \"src/BlueprintManager.sol\":6359:6632  for (uint256 i = 0; i < mint_.length; i++) {... */\n      iszero\n      tag_270\n      jumpi\n        /* \"src/BlueprintManager.sol\":6429:6621  addUserCreditWithClue(... */\n      tag_272\n        /* \"src/BlueprintManager.sol\":6468:6481  senderSession */\n      dup4\n        /* \"src/BlueprintManager.sol\":6499:6509  senderClue */\n      dup4\n        /* \"src/BlueprintManager.sol\":6527:6574  HashLib.getTokenId(blueprint, mint_[i].tokenId) */\n      tag_273\n        /* \"src/BlueprintManager.sol\":6546:6555  blueprint */\n      dup14\n        /* \"src/BlueprintManager.sol\":6557:6562  mint_ */\n      dup12\n        /* \"src/BlueprintManager.sol\":6563:6564  i */\n      dup7\n        /* \"src/BlueprintManager.sol\":6557:6565  mint_[i] */\n      dup2\n      mload\n      dup2\n      lt\n      tag_274\n      jumpi\n      tag_275\n      tag_125\n      jump\t// in\n    tag_275:\n    tag_274:\n      0x20\n      mul\n      0x20\n      add\n      add\n      mload\n        /* \"src/BlueprintManager.sol\":6557:6573  mint_[i].tokenId */\n      0x00\n      add\n      mload\n        /* \"src/BlueprintManager.sol\":6527:6545  HashLib.getTokenId */\n      tag_110\n        /* \"src/BlueprintManager.sol\":6527:6574  HashLib.getTokenId(blueprint, mint_[i].tokenId) */\n      jump\t// in\n    tag_273:\n        /* \"src/BlueprintManager.sol\":6592:6597  mint_ */\n      dup11\n        /* \"src/BlueprintManager.sol\":6598:6599  i */\n      dup6\n        /* \"src/BlueprintManager.sol\":6592:6600  mint_[i] */\n      dup2\n      mload\n      dup2\n      lt\n      tag_276\n      jumpi\n      tag_277\n      tag_125\n      jump\t// in\n    tag_277:\n    tag_276:\n      0x20\n      mul\n      0x20\n      add\n      add\n      mload\n        /* \"src/BlueprintManager.sol\":6592:6607  mint_[i].amount */\n      0x20\n      add\n      mload\n        /* \"src/BlueprintManager.sol\":6429:6450  addUserCreditWithClue */\n      tag_196\n        /* \"src/BlueprintManager.sol\":6429:6621  addUserCreditWithClue(... */\n      jump\t// in\n    tag_272:\n        /* \"src/BlueprintManager.sol\":6416:6621  senderClue = addUserCreditWithClue(... */\n      swap2\n      pop\n        /* \"src/BlueprintManager.sol\":6397:6400  i++ */\n      dup1\n      dup1\n      0x01\n      add\n      swap2\n      pop\n      pop\n        /* \"src/BlueprintManager.sol\":6359:6632  for (uint256 i = 0; i < mint_.length; i++) {... */\n      jump(tag_269)\n    tag_270:\n      pop\n        /* \"src/BlueprintManager.sol\":6647:6656  uint256 i */\n      0x00\n        /* \"src/BlueprintManager.sol\":6659:6660  0 */\n      0x00\n        /* \"src/BlueprintManager.sol\":6647:6660  uint256 i = 0 */\n      swap1\n      pop\n        /* \"src/BlueprintManager.sol\":6642:7068  for (uint256 i = 0; i < burn_.length; i++) {... */\n    tag_278:\n        /* \"src/BlueprintManager.sol\":6666:6671  burn_ */\n      dup6\n        /* \"src/BlueprintManager.sol\":6666:6678  burn_.length */\n      mload\n        /* \"src/BlueprintManager.sol\":6662:6663  i */\n      dup2\n        /* \"src/BlueprintManager.sol\":6662:6678  i < burn_.length */\n      lt\n        /* \"src/BlueprintManager.sol\":6642:7068  for (uint256 i = 0; i < burn_.length; i++) {... */\n      iszero\n      tag_279\n      jumpi\n        /* \"src/BlueprintManager.sol\":6699:6714  uint256 tokenId */\n      0x00\n        /* \"src/BlueprintManager.sol\":6717:6764  HashLib.getTokenId(blueprint, burn_[i].tokenId) */\n      tag_281\n        /* \"src/BlueprintManager.sol\":6736:6745  blueprint */\n      dup12\n        /* \"src/BlueprintManager.sol\":6747:6752  burn_ */\n      dup9\n        /* \"src/BlueprintManager.sol\":6753:6754  i */\n      dup5\n        /* \"src/BlueprintManager.sol\":6747:6755  burn_[i] */\n      dup2\n      mload\n      dup2\n      lt\n      tag_282\n      jumpi\n      tag_283\n      tag_125\n      jump\t// in\n    tag_283:\n    tag_282:\n      0x20\n      mul\n      0x20\n      add\n      add\n      mload\n        /* \"src/BlueprintManager.sol\":6747:6763  burn_[i].tokenId */\n      0x00\n      add\n      mload\n        /* \"src/BlueprintManager.sol\":6717:6735  HashLib.getTokenId */\n      tag_110\n        /* \"src/BlueprintManager.sol\":6717:6764  HashLib.getTokenId(blueprint, burn_[i].tokenId) */\n      jump\t// in\n    tag_281:\n        /* \"src/BlueprintManager.sol\":6699:6764  uint256 tokenId = HashLib.getTokenId(blueprint, burn_[i].tokenId) */\n      swap1\n      pop\n        /* \"src/BlueprintManager.sol\":6778:6792  uint256 amount */\n      0x00\n        /* \"src/BlueprintManager.sol\":6795:6800  burn_ */\n      dup8\n        /* \"src/BlueprintManager.sol\":6801:6802  i */\n      dup4\n        /* \"src/BlueprintManager.sol\":6795:6803  burn_[i] */\n      dup2\n      mload\n      dup2\n      lt\n      tag_284\n      jumpi\n      tag_285\n      tag_125\n      jump\t// in\n    tag_285:\n    tag_284:\n      0x20\n      mul\n      0x20\n      add\n      add\n      mload\n        /* \"src/BlueprintManager.sol\":6795:6810  burn_[i].amount */\n      0x20\n      add\n      mload\n        /* \"src/BlueprintManager.sol\":6778:6810  uint256 amount = burn_[i].amount */\n      swap1\n      pop\n        /* \"src/BlueprintManager.sol\":6829:6843  checkApprovals */\n      dup11\n        /* \"src/BlueprintManager.sol\":6825:6887  if (checkApprovals) _decreaseApproval(sender, tokenId, amount) */\n      iszero\n      tag_286\n      jumpi\n        /* \"src/BlueprintManager.sol\":6845:6887  _decreaseApproval(sender, tokenId, amount) */\n      tag_287\n        /* \"src/BlueprintManager.sol\":6863:6869  sender */\n      dup11\n        /* \"src/BlueprintManager.sol\":6871:6878  tokenId */\n      dup4\n        /* \"src/BlueprintManager.sol\":6880:6886  amount */\n      dup4\n        /* \"src/BlueprintManager.sol\":6845:6862  _decreaseApproval */\n      tag_226\n        /* \"src/BlueprintManager.sol\":6845:6887  _decreaseApproval(sender, tokenId, amount) */\n      jump\t// in\n    tag_287:\n        /* \"src/BlueprintManager.sol\":6825:6887  if (checkApprovals) _decreaseApproval(sender, tokenId, amount) */\n    tag_286:\n        /* \"src/BlueprintManager.sol\":6915:7057  addUserDebitWithClue(... */\n      tag_288\n        /* \"src/BlueprintManager.sol\":6953:6966  senderSession */\n      dup6\n        /* \"src/BlueprintManager.sol\":6984:6994  senderClue */\n      dup6\n        /* \"src/BlueprintManager.sol\":7012:7019  tokenId */\n      dup5\n        /* \"src/BlueprintManager.sol\":7037:7043  amount */\n      dup5\n        /* \"src/BlueprintManager.sol\":6915:6935  addUserDebitWithClue */\n      tag_127\n        /* \"src/BlueprintManager.sol\":6915:7057  addUserDebitWithClue(... */\n      jump\t// in\n    tag_288:\n        /* \"src/BlueprintManager.sol\":6902:7057  senderClue = addUserDebitWithClue(... */\n      swap4\n      pop\n        /* \"src/BlueprintManager.sol\":6685:7068  {... */\n      pop\n      pop\n        /* \"src/BlueprintManager.sol\":6680:6683  i++ */\n      dup1\n      dup1\n      0x01\n      add\n      swap2\n      pop\n      pop\n        /* \"src/BlueprintManager.sol\":6642:7068  for (uint256 i = 0; i < burn_.length; i++) {... */\n      jump(tag_278)\n    tag_279:\n      pop\n        /* \"src/BlueprintManager.sol\":7095:7101  sender */\n      dup7\n        /* \"src/BlueprintManager.sol\":7082:7101  blueprint != sender */\n      0xffffffffffffffffffffffffffffffffffffffff\n      and\n        /* \"src/BlueprintManager.sol\":7082:7091  blueprint */\n      dup10\n        /* \"src/BlueprintManager.sol\":7082:7101  blueprint != sender */\n      0xffffffffffffffffffffffffffffffffffffffff\n      and\n      eq\n      iszero\n        /* \"src/BlueprintManager.sol\":7082:7143  blueprint != sender && (give.length != 0 || take.length != 0) */\n      dup1\n      iszero\n      tag_289\n      jumpi\n      pop\n        /* \"src/BlueprintManager.sol\":7121:7122  0 */\n      0x00\n        /* \"src/BlueprintManager.sol\":7106:7110  give */\n      dup5\n        /* \"src/BlueprintManager.sol\":7106:7117  give.length */\n      mload\n        /* \"src/BlueprintManager.sol\":7106:7122  give.length != 0 */\n      eq\n      iszero\n        /* \"src/BlueprintManager.sol\":7106:7142  give.length != 0 || take.length != 0 */\n      dup1\n      tag_290\n      jumpi\n      pop\n        /* \"src/BlueprintManager.sol\":7141:7142  0 */\n      0x00\n        /* \"src/BlueprintManager.sol\":7126:7130  take */\n      dup4\n        /* \"src/BlueprintManager.sol\":7126:7137  take.length */\n      mload\n        /* \"src/BlueprintManager.sol\":7126:7142  take.length != 0 */\n      eq\n      iszero\n        /* \"src/BlueprintManager.sol\":7106:7142  give.length != 0 || take.length != 0 */\n    tag_290:\n        /* \"src/BlueprintManager.sol\":7082:7143  blueprint != sender && (give.length != 0 || take.length != 0) */\n    tag_289:\n        /* \"src/BlueprintManager.sol\":7078:8559  if (blueprint != sender && (give.length != 0 || take.length != 0)) {... */\n      iszero\n      tag_291\n      jumpi\n        /* \"src/BlueprintManager.sol\":7177:7210  FlashUserSession blueprintSession */\n      0x00\n        /* \"src/BlueprintManager.sol\":7228:7250  UserClue blueprintClue */\n      0x00\n        /* \"src/BlueprintManager.sol\":7267:7308  initializeUserSession(session, blueprint) */\n      tag_292\n        /* \"src/BlueprintManager.sol\":7289:7296  session */\n      dup13\n        /* \"src/BlueprintManager.sol\":7298:7307  blueprint */\n      dup13\n        /* \"src/BlueprintManager.sol\":7267:7288  initializeUserSession */\n      tag_119\n        /* \"src/BlueprintManager.sol\":7267:7308  initializeUserSession(session, blueprint) */\n      jump\t// in\n    tag_292:\n        /* \"src/BlueprintManager.sol\":7159:7308  (... */\n      swap2\n      pop\n      swap2\n      pop\n        /* \"src/BlueprintManager.sol\":7328:7337  uint256 i */\n      0x00\n        /* \"src/BlueprintManager.sol\":7340:7341  0 */\n      0x00\n        /* \"src/BlueprintManager.sol\":7328:7341  uint256 i = 0 */\n      swap1\n      pop\n        /* \"src/BlueprintManager.sol\":7323:7861  for (uint256 i = 0; i < give.length; i++) {... */\n    tag_293:\n        /* \"src/BlueprintManager.sol\":7347:7351  give */\n      dup7\n        /* \"src/BlueprintManager.sol\":7347:7358  give.length */\n      mload\n        /* \"src/BlueprintManager.sol\":7343:7344  i */\n      dup2\n        /* \"src/BlueprintManager.sol\":7343:7358  i < give.length */\n      lt\n        /* \"src/BlueprintManager.sol\":7323:7861  for (uint256 i = 0; i < give.length; i++) {... */\n      iszero\n      tag_294\n      jumpi\n        /* \"src/BlueprintManager.sol\":7383:7393  uint256 id */\n      0x00\n        /* \"src/BlueprintManager.sol\":7396:7400  give */\n      dup8\n        /* \"src/BlueprintManager.sol\":7401:7402  i */\n      dup3\n        /* \"src/BlueprintManager.sol\":7396:7403  give[i] */\n      dup2\n      mload\n      dup2\n      lt\n      tag_296\n      jumpi\n      tag_297\n      tag_125\n      jump\t// in\n    tag_297:\n    tag_296:\n      0x20\n      mul\n      0x20\n      add\n      add\n      mload\n        /* \"src/BlueprintManager.sol\":7396:7411  give[i].tokenId */\n      0x00\n      add\n      mload\n        /* \"src/BlueprintManager.sol\":7383:7411  uint256 id = give[i].tokenId */\n      swap1\n      pop\n        /* \"src/BlueprintManager.sol\":7429:7443  uint256 amount */\n      0x00\n        /* \"src/BlueprintManager.sol\":7446:7450  give */\n      dup9\n        /* \"src/BlueprintManager.sol\":7451:7452  i */\n      dup4\n        /* \"src/BlueprintManager.sol\":7446:7453  give[i] */\n      dup2\n      mload\n      dup2\n      lt\n      tag_298\n      jumpi\n      tag_299\n      tag_125\n      jump\t// in\n    tag_299:\n    tag_298:\n      0x20\n      mul\n      0x20\n      add\n      add\n      mload\n        /* \"src/BlueprintManager.sol\":7446:7460  give[i].amount */\n      0x20\n      add\n      mload\n        /* \"src/BlueprintManager.sol\":7429:7460  uint256 amount = give[i].amount */\n      swap1\n      pop\n        /* \"src/BlueprintManager.sol\":7491:7649  addUserCreditWithClue(... */\n      tag_300\n        /* \"src/BlueprintManager.sol\":7534:7547  senderSession */\n      dup8\n        /* \"src/BlueprintManager.sol\":7569:7579  senderClue */\n      dup8\n        /* \"src/BlueprintManager.sol\":7601:7603  id */\n      dup5\n        /* \"src/BlueprintManager.sol\":7625:7631  amount */\n      dup5\n        /* \"src/BlueprintManager.sol\":7491:7512  addUserCreditWithClue */\n      tag_196\n        /* \"src/BlueprintManager.sol\":7491:7649  addUserCreditWithClue(... */\n      jump\t// in\n    tag_300:\n        /* \"src/BlueprintManager.sol\":7478:7649  senderClue = addUserCreditWithClue(... */\n      swap6\n      pop\n        /* \"src/BlueprintManager.sol\":7683:7846  addUserDebitWithClue(... */\n      tag_301\n        /* \"src/BlueprintManager.sol\":7725:7741  blueprintSession */\n      dup6\n        /* \"src/BlueprintManager.sol\":7763:7776  blueprintClue */\n      dup6\n        /* \"src/BlueprintManager.sol\":7798:7800  id */\n      dup5\n        /* \"src/BlueprintManager.sol\":7822:7828  amount */\n      dup5\n        /* \"src/BlueprintManager.sol\":7683:7703  addUserDebitWithClue */\n      tag_127\n        /* \"src/BlueprintManager.sol\":7683:7846  addUserDebitWithClue(... */\n      jump\t// in\n    tag_301:\n        /* \"src/BlueprintManager.sol\":7667:7846  blueprintClue = addUserDebitWithClue(... */\n      swap4\n      pop\n        /* \"src/BlueprintManager.sol\":7365:7861  {... */\n      pop\n      pop\n        /* \"src/BlueprintManager.sol\":7360:7363  i++ */\n      dup1\n      dup1\n      0x01\n      add\n      swap2\n      pop\n      pop\n        /* \"src/BlueprintManager.sol\":7323:7861  for (uint256 i = 0; i < give.length; i++) {... */\n      jump(tag_293)\n    tag_294:\n      pop\n        /* \"src/BlueprintManager.sol\":7880:7889  uint256 i */\n      0x00\n        /* \"src/BlueprintManager.sol\":7892:7893  0 */\n      0x00\n        /* \"src/BlueprintManager.sol\":7880:7893  uint256 i = 0 */\n      swap1\n      pop\n        /* \"src/BlueprintManager.sol\":7875:8490  for (uint256 i = 0; i < take.length; i++) {... */\n    tag_302:\n        /* \"src/BlueprintManager.sol\":7899:7903  take */\n      dup6\n        /* \"src/BlueprintManager.sol\":7899:7910  take.length */\n      mload\n        /* \"src/BlueprintManager.sol\":7895:7896  i */\n      dup2\n        /* \"src/BlueprintManager.sol\":7895:7910  i < take.length */\n      lt\n        /* \"src/BlueprintManager.sol\":7875:8490  for (uint256 i = 0; i < take.length; i++) {... */\n      iszero\n      tag_303\n      jumpi\n        /* \"src/BlueprintManager.sol\":7935:7945  uint256 id */\n      0x00\n        /* \"src/BlueprintManager.sol\":7948:7952  take */\n      dup7\n        /* \"src/BlueprintManager.sol\":7953:7954  i */\n      dup3\n        /* \"src/BlueprintManager.sol\":7948:7955  take[i] */\n      dup2\n      mload\n      dup2\n      lt\n      tag_305\n      jumpi\n      tag_306\n      tag_125\n      jump\t// in\n    tag_306:\n    tag_305:\n      0x20\n      mul\n      0x20\n      add\n      add\n      mload\n        /* \"src/BlueprintManager.sol\":7948:7963  take[i].tokenId */\n      0x00\n      add\n      mload\n        /* \"src/BlueprintManager.sol\":7935:7963  uint256 id = take[i].tokenId */\n      swap1\n      pop\n        /* \"src/BlueprintManager.sol\":7981:7995  uint256 amount */\n      0x00\n        /* \"src/BlueprintManager.sol\":7998:8002  take */\n      dup8\n        /* \"src/BlueprintManager.sol\":8003:8004  i */\n      dup4\n        /* \"src/BlueprintManager.sol\":7998:8005  take[i] */\n      dup2\n      mload\n      dup2\n      lt\n      tag_307\n      jumpi\n      tag_308\n      tag_125\n      jump\t// in\n    tag_308:\n    tag_307:\n      0x20\n      mul\n      0x20\n      add\n      add\n      mload\n        /* \"src/BlueprintManager.sol\":7998:8012  take[i].amount */\n      0x20\n      add\n      mload\n        /* \"src/BlueprintManager.sol\":7981:8012  uint256 amount = take[i].amount */\n      swap1\n      pop\n        /* \"src/BlueprintManager.sol\":8035:8049  checkApprovals */\n      dup13\n        /* \"src/BlueprintManager.sol\":8031:8088  if (checkApprovals) _decreaseApproval(sender, id, amount) */\n      iszero\n      tag_309\n      jumpi\n        /* \"src/BlueprintManager.sol\":8051:8088  _decreaseApproval(sender, id, amount) */\n      tag_310\n        /* \"src/BlueprintManager.sol\":8069:8075  sender */\n      dup13\n        /* \"src/BlueprintManager.sol\":8077:8079  id */\n      dup4\n        /* \"src/BlueprintManager.sol\":8081:8087  amount */\n      dup4\n        /* \"src/BlueprintManager.sol\":8051:8068  _decreaseApproval */\n      tag_226\n        /* \"src/BlueprintManager.sol\":8051:8088  _decreaseApproval(sender, id, amount) */\n      jump\t// in\n    tag_310:\n        /* \"src/BlueprintManager.sol\":8031:8088  if (checkApprovals) _decreaseApproval(sender, id, amount) */\n    tag_309:\n        /* \"src/BlueprintManager.sol\":8120:8277  addUserDebitWithClue(... */\n      tag_311\n        /* \"src/BlueprintManager.sol\":8162:8175  senderSession */\n      dup8\n        /* \"src/BlueprintManager.sol\":8197:8207  senderClue */\n      dup8\n        /* \"src/BlueprintManager.sol\":8229:8231  id */\n      dup5\n        /* \"src/BlueprintManager.sol\":8253:8259  amount */\n      dup5\n        /* \"src/BlueprintManager.sol\":8120:8140  addUserDebitWithClue */\n      tag_127\n        /* \"src/BlueprintManager.sol\":8120:8277  addUserDebitWithClue(... */\n      jump\t// in\n    tag_311:\n        /* \"src/BlueprintManager.sol\":8107:8277  senderClue = addUserDebitWithClue(... */\n      swap6\n      pop\n        /* \"src/BlueprintManager.sol\":8311:8475  addUserCreditWithClue(... */\n      tag_312\n        /* \"src/BlueprintManager.sol\":8354:8370  blueprintSession */\n      dup6\n        /* \"src/BlueprintManager.sol\":8392:8405  blueprintClue */\n      dup6\n        /* \"src/BlueprintManager.sol\":8427:8429  id */\n      dup5\n        /* \"src/BlueprintManager.sol\":8451:8457  amount */\n      dup5\n        /* \"src/BlueprintManager.sol\":8311:8332  addUserCreditWithClue */\n      tag_196\n        /* \"src/BlueprintManager.sol\":8311:8475  addUserCreditWithClue(... */\n      jump\t// in\n    tag_312:\n        /* \"src/BlueprintManager.sol\":8295:8475  blueprintClue = addUserCreditWithClue(... */\n      swap4\n      pop\n        /* \"src/BlueprintManager.sol\":7917:8490  {... */\n      pop\n      pop\n        /* \"src/BlueprintManager.sol\":7912:7915  i++ */\n      dup1\n      dup1\n      0x01\n      add\n      swap2\n      pop\n      pop\n        /* \"src/BlueprintManager.sol\":7875:8490  for (uint256 i = 0; i < take.length; i++) {... */\n      jump(tag_302)\n    tag_303:\n      pop\n        /* \"src/BlueprintManager.sol\":8503:8548  saveUserClue(blueprintSession, blueprintClue) */\n      tag_313\n        /* \"src/BlueprintManager.sol\":8516:8532  blueprintSession */\n      dup3\n        /* \"src/BlueprintManager.sol\":8534:8547  blueprintClue */\n      dup3\n        /* \"src/BlueprintManager.sol\":8503:8515  saveUserClue */\n      tag_130\n        /* \"src/BlueprintManager.sol\":8503:8548  saveUserClue(blueprintSession, blueprintClue) */\n      jump\t// in\n    tag_313:\n        /* \"src/BlueprintManager.sol\":7145:8559  {... */\n      pop\n      pop\n        /* \"src/BlueprintManager.sol\":7078:8559  if (blueprint != sender && (give.length != 0 || take.length != 0)) {... */\n    tag_291:\n        /* \"src/BlueprintManager.sol\":8568:8607  saveUserClue(senderSession, senderClue) */\n      tag_314\n        /* \"src/BlueprintManager.sol\":8581:8594  senderSession */\n      dup3\n        /* \"src/BlueprintManager.sol\":8596:8606  senderClue */\n      dup3\n        /* \"src/BlueprintManager.sol\":8568:8580  saveUserClue */\n      tag_130\n        /* \"src/BlueprintManager.sol\":8568:8607  saveUserClue(senderSession, senderClue) */\n      jump\t// in\n    tag_314:\n        /* \"src/BlueprintManager.sol\":5692:8614  {... */\n      pop\n      pop\n      pop\n      pop\n      pop\n      pop\n      pop\n      pop\n      pop\n        /* \"src/BlueprintManager.sol\":5590:8614  function _flashCook(... */\n      pop\n      pop\n      jump\t// out\n        /* \"src/FlashAccounting.sol\":1682:2118  function openFlashAccounting(... */\n    tag_164:\n        /* \"src/FlashAccounting.sol\":1761:1781  FlashSession session */\n      0x00\n        /* \"src/FlashAccounting.sol\":1783:1800  MainClue mainClue */\n      0x00\n        /* \"src/FlashAccounting.sol\":1869:1870  0 */\n      0x00\n        /* \"src/FlashAccounting.sol\":1863:1871  tload(0) */\n      tload\n        /* \"src/FlashAccounting.sol\":1851:1871  mainClue := tload(0) */\n      swap1\n      pop\n        /* \"src/FlashAccounting.sol\":1982:1983  1 */\n      0x01\n        /* \"src/FlashAccounting.sol\":1967:1979  _96_BIT_FLAG */\n      0xffffffffffffffffffffffff\n        /* \"src/FlashAccounting.sol\":1957:1965  mainClue */\n      dup3\n        /* \"src/FlashAccounting.sol\":1953:1980  and(mainClue, _96_BIT_FLAG) */\n      and\n        /* \"src/FlashAccounting.sol\":1949:1984  add(and(mainClue, _96_BIT_FLAG), 1) */\n      add\n        /* \"src/FlashAccounting.sol\":1938:1946  realizer */\n      dup4\n        /* \"src/FlashAccounting.sol\":1934:1936  96 */\n      0x60\n        /* \"src/FlashAccounting.sol\":1930:1947  shl(96, realizer) */\n      shl\n        /* \"src/FlashAccounting.sol\":1927:1985  or(shl(96, realizer), add(and(mainClue, _96_BIT_FLAG), 1)) */\n      or\n        /* \"src/FlashAccounting.sol\":1908:1909  0 */\n      0x00\n        /* \"src/FlashAccounting.sol\":1884:1999  tstore(... */\n      tstore\n        /* \"src/FlashAccounting.sol\":2023:2031  mainClue */\n      dup1\n        /* \"src/FlashAccounting.sol\":2020:2021  0 */\n      0x00\n        /* \"src/FlashAccounting.sol\":2013:2032  mstore(0, mainClue) */\n      mstore\n        /* \"src/FlashAccounting.sol\":2058:2059  0 */\n      0x00\n        /* \"src/FlashAccounting.sol\":2052:2056  0x20 */\n      0x20\n        /* \"src/FlashAccounting.sol\":2045:2060  mstore(0x20, 0) */\n      mstore\n        /* \"src/FlashAccounting.sol\":2099:2101  44 */\n      0x2c\n        /* \"src/FlashAccounting.sol\":2095:2097  20 */\n      0x14\n        /* \"src/FlashAccounting.sol\":2085:2102  keccak256(20, 44) */\n      keccak256\n        /* \"src/FlashAccounting.sol\":2074:2102  session := keccak256(20, 44) */\n      swap2\n      pop\n        /* \"src/FlashAccounting.sol\":1682:2118  function openFlashAccounting(... */\n      swap2\n      pop\n      swap2\n      jump\t// out\n        /* \"src/FlashAccounting.sol\":2124:2343  function closeFlashAccounting(... */\n    tag_173:\n        /* \"src/FlashAccounting.sol\":2236:2258  settleSession(session) */\n      tag_317\n        /* \"src/FlashAccounting.sol\":2250:2257  session */\n      dup2\n        /* \"src/FlashAccounting.sol\":2236:2249  settleSession */\n      tag_318\n        /* \"src/FlashAccounting.sol\":2236:2258  settleSession(session) */\n      jump\t// in\n    tag_317:\n        /* \"src/FlashAccounting.sol\":2318:2326  mainClue */\n      dup2\n        /* \"src/FlashAccounting.sol\":2315:2316  0 */\n      0x00\n        /* \"src/FlashAccounting.sol\":2308:2327  tstore(0, mainClue) */\n      tstore\n        /* \"src/FlashAccounting.sol\":2124:2343  function closeFlashAccounting(... */\n      pop\n      pop\n      jump\t// out\n        /* \"src/FlashAccounting.sol\":3814:5692  function addUserCreditWithClue(... */\n    tag_196:\n        /* \"src/FlashAccounting.sol\":3978:3986  UserClue */\n      0x00\n        /* \"src/FlashAccounting.sol\":4047:4049  id */\n      dup3\n        /* \"src/FlashAccounting.sol\":4044:4045  0 */\n      0x00\n        /* \"src/FlashAccounting.sol\":4037:4050  mstore(0, id) */\n      mstore\n        /* \"src/FlashAccounting.sol\":4076:4087  userSession */\n      dup5\n        /* \"src/FlashAccounting.sol\":4070:4074  0x20 */\n      0x20\n        /* \"src/FlashAccounting.sol\":4063:4088  mstore(0x20, userSession) */\n      mstore\n        /* \"src/FlashAccounting.sol\":4132:4136  0x40 */\n      0x40\n        /* \"src/FlashAccounting.sol\":4129:4130  0 */\n      0x00\n        /* \"src/FlashAccounting.sol\":4119:4137  keccak256(0, 0x40) */\n      keccak256\n        /* \"src/FlashAccounting.sol\":4234:4243  deltaSlot */\n      dup1\n        /* \"src/FlashAccounting.sol\":4228:4244  tload(deltaSlot) */\n      tload\n        /* \"src/FlashAccounting.sol\":4278:4286  deltaVal */\n      dup1\n        /* \"src/FlashAccounting.sol\":4275:4276  1 */\n      0x01\n        /* \"src/FlashAccounting.sol\":4271:4287  sar(1, deltaVal) */\n      sar\n        /* \"src/FlashAccounting.sol\":4327:4333  amount */\n      dup5\n        /* \"src/FlashAccounting.sol\":4320:4325  delta */\n      dup2\n        /* \"src/FlashAccounting.sol\":4316:4334  add(delta, amount) */\n      add\n        /* \"src/FlashAccounting.sol\":4554:4555  1 */\n      0x01\n        /* \"src/FlashAccounting.sol\":4543:4551  newDelta */\n      dup2\n        /* \"src/FlashAccounting.sol\":4538:4541  254 */\n      0xfe\n        /* \"src/FlashAccounting.sol\":4534:4552  shr(254, newDelta) */\n      shr\n        /* \"src/FlashAccounting.sol\":4531:4556  eq(shr(254, newDelta), 1) */\n      eq\n        /* \"src/FlashAccounting.sol\":4523:4528  delta */\n      dup3\n        /* \"src/FlashAccounting.sol\":4513:4521  newDelta */\n      dup3\n        /* \"src/FlashAccounting.sol\":4509:4529  slt(newDelta, delta) */\n      slt\n        /* \"src/FlashAccounting.sol\":4506:4557  or(slt(newDelta, delta), eq(shr(254, newDelta), 1)) */\n      or\n        /* \"src/FlashAccounting.sol\":4575:4576  1 */\n      0x01\n        /* \"src/FlashAccounting.sol\":4570:5233  case 1 {... */\n      dup2\n      eq\n      tag_321\n      jumpi\n        /* \"src/FlashAccounting.sol\":5336:5337  1 */\n      0x01\n        /* \"src/FlashAccounting.sol\":5326:5334  deltaVal */\n      dup5\n        /* \"src/FlashAccounting.sol\":5322:5338  and(deltaVal, 1) */\n      and\n        /* \"src/FlashAccounting.sol\":5311:5319  newDelta */\n      dup3\n        /* \"src/FlashAccounting.sol\":5308:5309  1 */\n      0x01\n        /* \"src/FlashAccounting.sol\":5304:5320  shl(1, newDelta) */\n      shl\n        /* \"src/FlashAccounting.sol\":5301:5339  or(shl(1, newDelta), and(deltaVal, 1)) */\n      or\n        /* \"src/FlashAccounting.sol\":5290:5299  deltaSlot */\n      dup6\n        /* \"src/FlashAccounting.sol\":5283:5340  tstore(deltaSlot, or(shl(1, newDelta), and(deltaVal, 1))) */\n      tstore\n        /* \"src/FlashAccounting.sol\":4499:5354  switch or(slt(newDelta, delta), eq(shr(254, newDelta), 1))... */\n      jump(tag_320)\n        /* \"src/FlashAccounting.sol\":4570:5233  case 1 {... */\n    tag_321:\n        /* \"src/FlashAccounting.sol\":4630:4631  1 */\n      0x01\n        /* \"src/FlashAccounting.sol\":4619:4628  deltaSlot */\n      dup6\n        /* \"src/FlashAccounting.sol\":4615:4632  add(deltaSlot, 1) */\n      add\n        /* \"src/FlashAccounting.sol\":4762:4772  _2_POW_254 */\n      0x4000000000000000000000000000000000000000000000000000000000000000\n        /* \"src/FlashAccounting.sol\":4752:4760  newDelta */\n      dup4\n        /* \"src/FlashAccounting.sol\":4748:4773  add(newDelta, _2_POW_254) */\n      add\n        /* \"src/FlashAccounting.sol\":4743:4746  255 */\n      0xff\n        /* \"src/FlashAccounting.sol\":4739:4774  shr(255, add(newDelta, _2_POW_254)) */\n      shr\n        /* \"src/FlashAccounting.sol\":4736:4737  2 */\n      0x02\n        /* \"src/FlashAccounting.sol\":4732:4775  sub(2, shr(255, add(newDelta, _2_POW_254))) */\n      sub\n        /* \"src/FlashAccounting.sol\":4873:4874  0 */\n      0x00\n        /* \"src/FlashAccounting.sol\":4908:4909  1 */\n      0x01\n        /* \"src/FlashAccounting.sol\":4898:4906  deltaVal */\n      dup8\n        /* \"src/FlashAccounting.sol\":4894:4910  and(deltaVal, 1) */\n      and\n        /* \"src/FlashAccounting.sol\":4891:4982  if and(deltaVal, 1) {... */\n      iszero\n      tag_322\n      jumpi\n        /* \"src/FlashAccounting.sol\":4951:4963  preDeltaSlot */\n      dup3\n        /* \"src/FlashAccounting.sol\":4945:4964  tload(preDeltaSlot) */\n      tload\n        /* \"src/FlashAccounting.sol\":4933:4964  preDelta := tload(preDeltaSlot) */\n      swap1\n      pop\n        /* \"src/FlashAccounting.sol\":4891:4982  if and(deltaVal, 1) {... */\n    tag_322:\n        /* \"src/FlashAccounting.sol\":5025:5030  carry */\n      dup2\n        /* \"src/FlashAccounting.sol\":5015:5023  preDelta */\n      dup2\n        /* \"src/FlashAccounting.sol\":5011:5031  add(preDelta, carry) */\n      add\n        /* \"src/FlashAccounting.sol\":4999:5031  preDelta := add(preDelta, carry) */\n      swap1\n      pop\n        /* \"src/FlashAccounting.sol\":5070:5078  preDelta */\n      dup1\n        /* \"src/FlashAccounting.sol\":5056:5068  preDeltaSlot */\n      dup4\n        /* \"src/FlashAccounting.sol\":5049:5079  tstore(preDeltaSlot, preDelta) */\n      tstore\n        /* \"src/FlashAccounting.sol\":5190:5198  preDelta */\n      dup1\n        /* \"src/FlashAccounting.sol\":5183:5199  iszero(preDelta) */\n      iszero\n        /* \"src/FlashAccounting.sol\":5176:5200  iszero(iszero(preDelta)) */\n      iszero\n        /* \"src/FlashAccounting.sol\":5165:5173  newDelta */\n      dup6\n        /* \"src/FlashAccounting.sol\":5162:5163  1 */\n      0x01\n        /* \"src/FlashAccounting.sol\":5158:5174  shl(1, newDelta) */\n      shl\n        /* \"src/FlashAccounting.sol\":5155:5201  or(shl(1, newDelta), iszero(iszero(preDelta))) */\n      or\n        /* \"src/FlashAccounting.sol\":5124:5133  deltaSlot */\n      dup9\n        /* \"src/FlashAccounting.sol\":5096:5219  tstore(... */\n      tstore\n        /* \"src/FlashAccounting.sol\":4577:5233  {... */\n      pop\n      pop\n      pop\n        /* \"src/FlashAccounting.sol\":4499:5354  switch or(slt(newDelta, delta), eq(shr(254, newDelta), 1))... */\n    tag_320:\n      pop\n        /* \"src/FlashAccounting.sol\":5432:5440  deltaVal */\n      dup3\n        /* \"src/FlashAccounting.sol\":5422:5650  if iszero(deltaVal) {... */\n      tag_323\n      jumpi\n        /* \"src/FlashAccounting.sol\":5486:5487  1 */\n      0x01\n        /* \"src/FlashAccounting.sol\":5476:5484  userClue */\n      dup9\n        /* \"src/FlashAccounting.sol\":5472:5488  add(userClue, 1) */\n      add\n        /* \"src/FlashAccounting.sol\":5460:5488  userClue := add(userClue, 1) */\n      swap8\n      pop\n        /* \"src/FlashAccounting.sol\":5633:5635  id */\n      dup7\n        /* \"src/FlashAccounting.sol\":5622:5630  userClue */\n      dup9\n        /* \"src/FlashAccounting.sol\":5609:5620  userSession */\n      dup11\n        /* \"src/FlashAccounting.sol\":5605:5631  add(userSession, userClue) */\n      add\n        /* \"src/FlashAccounting.sol\":5598:5636  tstore(add(userSession, userClue), id) */\n      tstore\n        /* \"src/FlashAccounting.sol\":5422:5650  if iszero(deltaVal) {... */\n    tag_323:\n        /* \"src/FlashAccounting.sol\":4023:5660  {... */\n      pop\n      pop\n      pop\n      pop\n        /* \"src/FlashAccounting.sol\":5677:5685  userClue */\n      dup4\n        /* \"src/FlashAccounting.sol\":5670:5685  return userClue */\n      swap1\n      pop\n        /* \"src/FlashAccounting.sol\":3814:5692  function addUserCreditWithClue(... */\n      swap5\n      swap4\n      pop\n      pop\n      pop\n      pop\n      jump\t// out\n        /* \"src/BlueprintManager.sol\":2794:3080  function _decreaseApproval(... */\n    tag_226:\n        /* \"src/BlueprintManager.sol\":2914:2929  uint256 allowed */\n      0x00\n        /* \"src/BlueprintManager.sol\":2932:2941  allowance */\n      0x02\n        /* \"src/BlueprintManager.sol\":2932:2949  allowance[sender] */\n      0x00\n        /* \"src/BlueprintManager.sol\":2942:2948  sender */\n      dup6\n        /* \"src/BlueprintManager.sol\":2932:2949  allowance[sender] */\n      0xffffffffffffffffffffffffffffffffffffffff\n      and\n      0xffffffffffffffffffffffffffffffffffffffff\n      and\n      dup2\n      mstore\n      0x20\n      add\n      swap1\n      dup2\n      mstore\n      0x20\n      add\n      0x00\n      keccak256\n        /* \"src/BlueprintManager.sol\":2932:2961  allowance[sender][msg.sender] */\n      0x00\n        /* \"src/BlueprintManager.sol\":2950:2960  msg.sender */\n      caller\n        /* \"src/BlueprintManager.sol\":2932:2961  allowance[sender][msg.sender] */\n      0xffffffffffffffffffffffffffffffffffffffff\n      and\n      0xffffffffffffffffffffffffffffffffffffffff\n      and\n      dup2\n      mstore\n      0x20\n      add\n      swap1\n      dup2\n      mstore\n      0x20\n      add\n      0x00\n      keccak256\n        /* \"src/BlueprintManager.sol\":2932:2965  allowance[sender][msg.sender][id] */\n      0x00\n        /* \"src/BlueprintManager.sol\":2962:2964  id */\n      dup5\n        /* \"src/BlueprintManager.sol\":2932:2965  allowance[sender][msg.sender][id] */\n      dup2\n      mstore\n      0x20\n      add\n      swap1\n      dup2\n      mstore\n      0x20\n      add\n      0x00\n      keccak256\n      sload\n        /* \"src/BlueprintManager.sol\":2914:2965  uint256 allowed = allowance[sender][msg.sender][id] */\n      swap1\n      pop\n        /* \"src/BlueprintManager.sol\":2990:3007  type(uint256).max */\n      0xffffffffffffffffffffffffffffffffffffffffffffffffffffffffffffffff\n        /* \"src/BlueprintManager.sol\":2979:2986  allowed */\n      dup2\n        /* \"src/BlueprintManager.sol\":2979:3007  allowed != type(uint256).max */\n      eq\n        /* \"src/BlueprintManager.sol\":2975:3073  if (allowed != type(uint256).max)... */\n      tag_325\n      jumpi\n        /* \"src/BlueprintManager.sol\":3067:3073  amount */\n      dup2\n        /* \"src/BlueprintManager.sol\":3057:3064  allowed */\n      dup2\n        /* \"src/BlueprintManager.sol\":3057:3073  allowed - amount */\n      tag_326\n      swap2\n      swap1\n      tag_256\n      jump\t// in\n    tag_326:\n        /* \"src/BlueprintManager.sol\":3021:3030  allowance */\n      0x02\n        /* \"src/BlueprintManager.sol\":3021:3038  allowance[sender] */\n      0x00\n        /* \"src/BlueprintManager.sol\":3031:3037  sender */\n      dup7\n        /* \"src/BlueprintManager.sol\":3021:3038  allowance[sender] */\n      0xffffffffffffffffffffffffffffffffffffffff\n      and\n      0xffffffffffffffffffffffffffffffffffffffff\n      and\n      dup2\n      mstore\n      0x20\n      add\n      swap1\n      dup2\n      mstore\n      0x20\n      add\n      0x00\n      keccak256\n        /* \"src/BlueprintManager.sol\":3021:3050  allowance[sender][msg.sender] */\n      0x00\n        /* \"src/BlueprintManager.sol\":3039:3049  msg.sender */\n      caller\n        /* \"src/BlueprintManager.sol\":3021:3050  allowance[sender][msg.sender] */\n      0xffffffffffffffffffffffffffffffffffffffff\n      and\n      0xffffffffffffffffffffffffffffffffffffffff\n      and\n      dup2\n      mstore\n      0x20\n      add\n      swap1\n      dup2\n      mstore\n      0x20\n      add\n      0x00\n      keccak256\n        /* \"src/BlueprintManager.sol\":3021:3054  allowance[sender][msg.sender][id] */\n      0x00\n        /* \"src/BlueprintManager.sol\":3051:3053  id */\n      dup6\n        /* \"src/BlueprintManager.sol\":3021:3054  allowance[sender][msg.sender][id] */\n      dup2\n      mstore\n      0x20\n      add\n      swap1\n      dup2\n      mstore\n      0x20\n      add\n      0x00\n      keccak256\n        /* \"src/BlueprintManager.sol\":3021:3073  allowance[sender][msg.sender][id] = allowed - amount */\n      dup2\n      swap1\n      sstore\n      pop\n        /* \"src/BlueprintManager.sol\":2975:3073  if (allowed != type(uint256).max)... */\n    tag_325:\n        /* \"src/BlueprintManager.sol\":2904:3080  {... */\n      pop\n        /* \"src/BlueprintManager.sol\":2794:3080  function _decreaseApproval(... */\n      pop\n      pop\n      pop\n      jump\t// out\n        /* \"src/FlashAccounting.sol\":2349:2644  function getUserSession(... */\n    tag_243:\n        /* \"src/FlashAccounting.sol\":2454:2482  FlashUserSession userSession */\n      0x00\n        /* \"src/FlashAccounting.sol\":2543:2547  user */\n      dup2\n        /* \"src/FlashAccounting.sol\":2540:2541  0 */\n      0x00\n        /* \"src/FlashAccounting.sol\":2533:2548  mstore(0, user) */\n      mstore\n        /* \"src/FlashAccounting.sol\":2574:2581  session */\n      dup3\n        /* \"src/FlashAccounting.sol\":2568:2572  0x20 */\n      0x20\n        /* \"src/FlashAccounting.sol\":2561:2582  mstore(0x20, session) */\n      mstore\n        /* \"src/FlashAccounting.sol\":2625:2627  52 */\n      0x34\n        /* \"src/FlashAccounting.sol\":2621:2623  12 */\n      0x0c\n        /* \"src/FlashAccounting.sol\":2611:2628  keccak256(12, 52) */\n      keccak256\n        /* \"src/FlashAccounting.sol\":2596:2628  userSession := keccak256(12, 52) */\n      swap1\n      pop\n        /* \"src/FlashAccounting.sol\":2349:2644  function getUserSession(... */\n      swap3\n      swap2\n      pop\n      pop\n      jump\t// out\n        /* \"src/BlueprintManager.sol\":4916:5584  function _executeAction(... */\n    tag_267:\n        /* \"src/BlueprintManager.sol\":5030:5052  TokenOp[] memory mint_ */\n      0x60\n        /* \"src/BlueprintManager.sol\":5066:5088  TokenOp[] memory burn_ */\n      dup1\n        /* \"src/BlueprintManager.sol\":5102:5123  TokenOp[] memory give */\n      0x60\n        /* \"src/BlueprintManager.sol\":5137:5158  TokenOp[] memory take */\n      dup1\n        /* \"src/BlueprintManager.sol\":5267:5271  call */\n      dup5\n        /* \"src/BlueprintManager.sol\":5267:5281  call.blueprint */\n      0x20\n      add\n      0x20\n      dup2\n      add\n      swap1\n      tag_329\n      swap2\n      swap1\n      tag_260\n      jump\t// in\n    tag_329:\n        /* \"src/BlueprintManager.sol\":5256:5296  IBlueprint(call.blueprint).executeAction */\n      0xffffffffffffffffffffffffffffffffffffffff\n      and\n      0xa129568d\n        /* \"src/BlueprintManager.sol\":5310:5314  call */\n      dup7\n        /* \"src/BlueprintManager.sol\":5310:5321  call.action */\n      dup1\n      0x40\n      add\n      swap1\n      tag_330\n      swap2\n      swap1\n      tag_331\n      jump\t// in\n    tag_330:\n        /* \"src/BlueprintManager.sol\":5256:5331  IBlueprint(call.blueprint).executeAction(... */\n      mload(0x40)\n      dup4\n      0xffffffff\n      and\n      0xe0\n      shl\n      dup2\n      mstore\n      0x04\n      add\n      tag_332\n      swap3\n      swap2\n      swap1\n      tag_333\n      jump\t// in\n    tag_332:\n      0x00\n      mload(0x40)\n      dup1\n      dup4\n      sub\n      dup2\n      0x00\n      dup8\n      gas\n      call\n      iszero\n      dup1\n      iszero\n      tag_335\n      jumpi\n      returndatacopy(0x00, 0x00, returndatasize)\n      revert(0x00, returndatasize)\n    tag_335:\n      pop\n      pop\n      pop\n      pop\n      mload(0x40)\n      returndatasize\n      0x00\n      dup3\n      returndatacopy\n      returndatasize\n      not(0x1f)\n      0x1f\n      dup3\n      add\n      and\n      dup3\n      add\n      dup1\n      0x40\n      mstore\n      pop\n      dup2\n      add\n      swap1\n      tag_336\n      swap2\n      swap1\n      tag_337\n      jump\t// in\n    tag_336:\n        /* \"src/BlueprintManager.sol\":5227:5331  (mint_, burn_, give, take) = IBlueprint(call.blueprint).executeAction(... */\n      dup1\n      swap5\n      pop\n      dup2\n      swap6\n      pop\n      dup3\n      swap7\n      pop\n      dup4\n      swap8\n      pop\n      pop\n      pop\n      pop\n      pop\n        /* \"src/BlueprintManager.sol\":5363:5364  0 */\n      0x00\n        /* \"src/BlueprintManager.sol\":5346:5364  call.checksum != 0 */\n      0x00\n      shl\n        /* \"src/BlueprintManager.sol\":5346:5350  call */\n      dup6\n        /* \"src/BlueprintManager.sol\":5346:5359  call.checksum */\n      0x60\n      add\n      calldataload\n        /* \"src/BlueprintManager.sol\":5346:5364  call.checksum != 0 */\n      eq\n        /* \"src/BlueprintManager.sol\":5342:5578  if (call.checksum != 0) {... */\n      tag_338\n      jumpi\n        /* \"src/BlueprintManager.sol\":5451:5467  bytes32 expected */\n      0x00\n        /* \"src/BlueprintManager.sol\":5470:5497  HashLib.hashActionResults() */\n      tag_339\n        /* \"src/BlueprintManager.sol\":5470:5495  HashLib.hashActionResults */\n      tag_340\n        /* \"src/BlueprintManager.sol\":5470:5497  HashLib.hashActionResults() */\n      jump\t// in\n    tag_339:\n        /* \"src/BlueprintManager.sol\":5451:5497  bytes32 expected = HashLib.hashActionResults() */\n      swap1\n      pop\n        /* \"src/BlueprintManager.sol\":5533:5541  expected */\n      dup1\n        /* \"src/BlueprintManager.sol\":5516:5520  call */\n      dup7\n        /* \"src/BlueprintManager.sol\":5516:5529  call.checksum */\n      0x60\n      add\n      calldataload\n        /* \"src/BlueprintManager.sol\":5516:5541  call.checksum != expected */\n      eq\n        /* \"src/BlueprintManager.sol\":5512:5567  if (call.checksum != expected) revert InvalidChecksum() */\n      tag_341\n      jumpi\n        /* \"src/BlueprintManager.sol\":5550:5567  InvalidChecksum() */\n      mload(0x40)\n      0x6f0632bf00000000000000000000000000000000000000000000000000000000\n      dup2\n      mstore\n      0x04\n      add\n      mload(0x40)\n      dup1\n      swap2\n      sub\n      swap1\n      revert\n        /* \"src/BlueprintManager.sol\":5512:5567  if (call.checksum != expected) revert InvalidChecksum() */\n    tag_341:\n        /* \"src/BlueprintManager.sol\":5366:5578  {... */\n      pop\n        /* \"src/BlueprintManager.sol\":5342:5578  if (call.checksum != 0) {... */\n    tag_338:\n        /* \"src/BlueprintManager.sol\":4916:5584  function _executeAction(... */\n      swap2\n      swap4\n      pop\n      swap2\n      swap4\n      jump\t// out\n        /* \"src/FlashAccounting.sol\":10618:11258  function settleSession(FlashSession session) private {... */\n    tag_318:\n        /* \"src/FlashAccounting.sol\":10681:10704  SessionClue sessionClue */\n      0x00\n        /* \"src/FlashAccounting.sol\":10774:10781  session */\n      dup2\n        /* \"src/FlashAccounting.sol\":10768:10782  tload(session) */\n      tload\n        /* \"src/FlashAccounting.sol\":10753:10782  sessionClue := tload(session) */\n      swap1\n      pop\n        /* \"src/FlashAccounting.sol\":10802:10813  uint256 len */\n      0x00\n        /* \"src/FlashAccounting.sol\":10835:10846  sessionClue */\n      dup2\n        /* \"src/FlashAccounting.sol\":10802:10847  uint256 len = SessionClue.unwrap(sessionClue) */\n      swap1\n      pop\n        /* \"src/FlashAccounting.sol\":10862:10871  uint256 i */\n      0x00\n        /* \"src/FlashAccounting.sol\":10874:10875  0 */\n      0x00\n        /* \"src/FlashAccounting.sol\":10862:10875  uint256 i = 0 */\n      swap1\n      pop\n        /* \"src/FlashAccounting.sol\":10857:11252  for (uint256 i = 0; i < len; ) {... */\n    tag_343:\n        /* \"src/FlashAccounting.sol\":10881:10884  len */\n      dup2\n        /* \"src/FlashAccounting.sol\":10877:10878  i */\n      dup2\n        /* \"src/FlashAccounting.sol\":10877:10884  i < len */\n      lt\n        /* \"src/FlashAccounting.sol\":10857:11252  for (uint256 i = 0; i < len; ) {... */\n      iszero\n      tag_344\n      jumpi\n        /* \"src/FlashAccounting.sol\":10902:10914  address user */\n      0x00\n        /* \"src/FlashAccounting.sol\":10983:10984  i */\n      dup2\n        /* \"src/FlashAccounting.sol\":10980:10981  1 */\n      0x01\n        /* \"src/FlashAccounting.sol\":10976:10985  add(1, i) */\n      add\n        /* \"src/FlashAccounting.sol\":10971:10985  i := add(1, i) */\n      swap2\n      pop\n        /* \"src/FlashAccounting.sol\":11029:11030  i */\n      dup2\n        /* \"src/FlashAccounting.sol\":11020:11027  session */\n      dup6\n        /* \"src/FlashAccounting.sol\":11016:11031  add(session, i) */\n      add\n        /* \"src/FlashAccounting.sol\":11010:11032  tload(add(session, i)) */\n      tload\n        /* \"src/FlashAccounting.sol\":11002:11032  user := tload(add(session, i)) */\n      swap1\n      pop\n        /* \"src/FlashAccounting.sol\":11060:11115  settleUserBalances(getUserSession(session, user), user) */\n      tag_346\n        /* \"src/FlashAccounting.sol\":11079:11108  getUserSession(session, user) */\n      tag_347\n        /* \"src/FlashAccounting.sol\":11094:11101  session */\n      dup7\n        /* \"src/FlashAccounting.sol\":11103:11107  user */\n      dup4\n        /* \"src/FlashAccounting.sol\":11079:11093  getUserSession */\n      tag_243\n        /* \"src/FlashAccounting.sol\":11079:11108  getUserSession(session, user) */\n      jump\t// in\n    tag_347:\n        /* \"src/FlashAccounting.sol\":11110:11114  user */\n      dup3\n        /* \"src/FlashAccounting.sol\":11060:11078  settleUserBalances */\n      tag_348\n        /* \"src/FlashAccounting.sol\":11060:11115  settleUserBalances(getUserSession(session, user), user) */\n      jump\t// in\n    tag_346:\n        /* \"src/FlashAccounting.sol\":11226:11227  0 */\n      0x00\n        /* \"src/FlashAccounting.sol\":11217:11224  session */\n      dup6\n        /* \"src/FlashAccounting.sol\":11210:11228  tstore(session, 0) */\n      tstore\n        /* \"src/FlashAccounting.sol\":11155:11242  {... */\n      pop\n        /* \"src/FlashAccounting.sol\":10857:11252  for (uint256 i = 0; i < len; ) {... */\n      jump(tag_343)\n    tag_344:\n      pop\n        /* \"src/FlashAccounting.sol\":10671:11258  {... */\n      pop\n      pop\n        /* \"src/FlashAccounting.sol\":10618:11258  function settleSession(FlashSession session) private {... */\n      pop\n      jump\t// out\n        /* \"src/libraries/HashLib.sol\":368:1016  function hashActionResults() internal pure returns (bytes32 res) {... */\n    tag_340:\n        /* \"src/libraries/HashLib.sol\":420:431  bytes32 res */\n      0x00\n        /* \"src/libraries/HashLib.sol\":484:488  0x40 */\n      0x40\n        /* \"src/libraries/HashLib.sol\":478:489  mload(0x40) */\n      mload\n        /* \"src/libraries/HashLib.sol\":508:511  ptr */\n      dup1\n        /* \"src/libraries/HashLib.sol\":538:542  0x80 */\n      0x80\n        /* \"src/libraries/HashLib.sol\":535:536  0 */\n      0x00\n        /* \"src/libraries/HashLib.sol\":530:533  ptr */\n      dup4\n        /* \"src/libraries/HashLib.sol\":515:543  returndatacopy(ptr, 0, 0x80) */\n      returndatacopy\n        /* \"src/libraries/HashLib.sol\":577:581  0x80 */\n      0x80\n        /* \"src/libraries/HashLib.sol\":572:575  ptr */\n      dup3\n        /* \"src/libraries/HashLib.sol\":568:582  add(ptr, 0x80) */\n      add\n        /* \"src/libraries/HashLib.sol\":548:973  for {let scratch := add(ptr, 0x80)} lt(ptr, scratch) {ptr := add(ptr, 0x20)} {... */\n    tag_350:\n        /* \"src/libraries/HashLib.sol\":592:599  scratch */\n      dup1\n        /* \"src/libraries/HashLib.sol\":587:590  ptr */\n      dup4\n        /* \"src/libraries/HashLib.sol\":584:600  lt(ptr, scratch) */\n      lt\n        /* \"src/libraries/HashLib.sol\":548:973  for {let scratch := add(ptr, 0x80)} lt(ptr, scratch) {ptr := add(ptr, 0x20)} {... */\n      iszero\n      tag_352\n      jumpi\n        /* \"src/libraries/HashLib.sol\":651:654  ptr */\n      dup3\n        /* \"src/libraries/HashLib.sol\":645:655  mload(ptr) */\n      mload\n        /* \"src/libraries/HashLib.sol\":692:696  0x20 */\n      0x20\n        /* \"src/libraries/HashLib.sol\":684:690  retPtr */\n      dup2\n        /* \"src/libraries/HashLib.sol\":675:682  scratch */\n      dup4\n        /* \"src/libraries/HashLib.sol\":660:697  returndatacopy(scratch, retPtr, 0x20) */\n      returndatacopy\n        /* \"src/libraries/HashLib.sol\":792:799  scratch */\n      dup2\n        /* \"src/libraries/HashLib.sol\":786:800  mload(scratch) */\n      mload\n        /* \"src/libraries/HashLib.sol\":783:784  6 */\n      0x06\n        /* \"src/libraries/HashLib.sol\":779:801  shl(6, mload(scratch)) */\n      shl\n        /* \"src/libraries/HashLib.sol\":873:877  0x20 */\n      0x20\n        /* \"src/libraries/HashLib.sol\":865:871  retPtr */\n      dup3\n        /* \"src/libraries/HashLib.sol\":861:878  add(retPtr, 0x20) */\n      add\n        /* \"src/libraries/HashLib.sol\":851:878  retPtr := add(retPtr, 0x20) */\n      swap2\n      pop\n        /* \"src/libraries/HashLib.sol\":915:922  byteLen */\n      dup1\n        /* \"src/libraries/HashLib.sol\":907:913  retPtr */\n      dup3\n        /* \"src/libraries/HashLib.sol\":898:905  scratch */\n      dup5\n        /* \"src/libraries/HashLib.sol\":883:923  returndatacopy(scratch, retPtr, byteLen) */\n      returndatacopy\n        /* \"src/libraries/HashLib.sol\":959:966  byteLen */\n      dup1\n        /* \"src/libraries/HashLib.sol\":950:957  scratch */\n      dup4\n        /* \"src/libraries/HashLib.sol\":940:967  keccak256(scratch, byteLen) */\n      keccak256\n        /* \"src/libraries/HashLib.sol\":935:938  ptr */\n      dup6\n        /* \"src/libraries/HashLib.sol\":928:968  mstore(ptr, keccak256(scratch, byteLen)) */\n      mstore\n        /* \"src/libraries/HashLib.sol\":625:973  {... */\n      pop\n      pop\n        /* \"src/libraries/HashLib.sol\":618:622  0x20 */\n      0x20\n        /* \"src/libraries/HashLib.sol\":613:616  ptr */\n      dup4\n        /* \"src/libraries/HashLib.sol\":609:623  add(ptr, 0x20) */\n      add\n        /* \"src/libraries/HashLib.sol\":602:623  ptr := add(ptr, 0x20) */\n      swap3\n      pop\n        /* \"src/libraries/HashLib.sol\":548:973  for {let scratch := add(ptr, 0x80)} lt(ptr, scratch) {ptr := add(ptr, 0x20)} {... */\n      jump(tag_350)\n    tag_352:\n        /* \"src/libraries/HashLib.sol\":552:583  {let scratch := add(ptr, 0x80)} */\n      pop\n        /* \"src/libraries/HashLib.sol\":1004:1008  0x80 */\n      0x80\n        /* \"src/libraries/HashLib.sol\":995:1002  initPtr */\n      dup2\n        /* \"src/libraries/HashLib.sol\":985:1009  keccak256(initPtr, 0x80) */\n      keccak256\n        /* \"src/libraries/HashLib.sol\":978:1009  res := keccak256(initPtr, 0x80) */\n      swap3\n      pop\n        /* \"src/libraries/HashLib.sol\":462:1013  {... */\n      pop\n      pop\n        /* \"src/libraries/HashLib.sol\":368:1016  function hashActionResults() internal pure returns (bytes32 res) {... */\n      swap1\n      jump\t// out\n        /* \"src/FlashAccounting.sol\":8149:10612  function settleUserBalances(... */\n    tag_348:\n        /* \"src/FlashAccounting.sol\":8261:8278  UserClue userClue */\n      0x00\n        /* \"src/FlashAccounting.sol\":8281:8305  getUserClue(userSession) */\n      tag_354\n        /* \"src/FlashAccounting.sol\":8293:8304  userSession */\n      dup4\n        /* \"src/FlashAccounting.sol\":8281:8292  getUserClue */\n      tag_355\n        /* \"src/FlashAccounting.sol\":8281:8305  getUserClue(userSession) */\n      jump\t// in\n    tag_354:\n        /* \"src/FlashAccounting.sol\":8261:8305  UserClue userClue = getUserClue(userSession) */\n      swap1\n      pop\n        /* \"src/FlashAccounting.sol\":8321:8330  uint256 i */\n      0x00\n        /* \"src/FlashAccounting.sol\":8333:8334  0 */\n      0x00\n        /* \"src/FlashAccounting.sol\":8321:8334  uint256 i = 0 */\n      swap1\n      pop\n        /* \"src/FlashAccounting.sol\":8316:10470  for (uint256 i = 0; i < UserClue.unwrap(userClue); ) {... */\n    tag_356:\n        /* \"src/FlashAccounting.sol\":8356:8364  userClue */\n      dup2\n        /* \"src/FlashAccounting.sol\":8336:8337  i */\n      dup2\n        /* \"src/FlashAccounting.sol\":8336:8365  i < UserClue.unwrap(userClue) */\n      lt\n        /* \"src/FlashAccounting.sol\":8316:10470  for (uint256 i = 0; i < UserClue.unwrap(userClue); ) {... */\n      iszero\n      tag_357\n      jumpi\n        /* \"src/FlashAccounting.sol\":8383:8393  uint256 id */\n      0x00\n        /* \"src/FlashAccounting.sol\":8407:8419  int256 delta */\n      0x00\n        /* \"src/FlashAccounting.sol\":8433:8450  uint256 deltaSlot */\n      0x00\n        /* \"src/FlashAccounting.sol\":8520:8521  i */\n      dup4\n        /* \"src/FlashAccounting.sol\":8517:8518  1 */\n      0x01\n        /* \"src/FlashAccounting.sol\":8513:8522  add(1, i) */\n      add\n        /* \"src/FlashAccounting.sol\":8508:8522  i := add(1, i) */\n      swap4\n      pop\n        /* \"src/FlashAccounting.sol\":8568:8569  i */\n      dup4\n        /* \"src/FlashAccounting.sol\":8555:8566  userSession */\n      dup8\n        /* \"src/FlashAccounting.sol\":8551:8570  add(userSession, i) */\n      add\n        /* \"src/FlashAccounting.sol\":8545:8571  tload(add(userSession, i)) */\n      tload\n        /* \"src/FlashAccounting.sol\":8539:8571  id := tload(add(userSession, i)) */\n      swap3\n      pop\n        /* \"src/FlashAccounting.sol\":8599:8601  id */\n      dup3\n        /* \"src/FlashAccounting.sol\":8596:8597  0 */\n      0x00\n        /* \"src/FlashAccounting.sol\":8589:8602  mstore(0, id) */\n      mstore\n        /* \"src/FlashAccounting.sol\":8632:8643  userSession */\n      dup7\n        /* \"src/FlashAccounting.sol\":8626:8630  0x20 */\n      0x20\n        /* \"src/FlashAccounting.sol\":8619:8644  mstore(0x20, userSession) */\n      mstore\n        /* \"src/FlashAccounting.sol\":8687:8691  0x40 */\n      0x40\n        /* \"src/FlashAccounting.sol\":8684:8685  0 */\n      0x00\n        /* \"src/FlashAccounting.sol\":8674:8692  keccak256(0, 0x40) */\n      keccak256\n        /* \"src/FlashAccounting.sol\":8661:8692  deltaSlot := keccak256(0, 0x40) */\n      swap1\n      pop\n        /* \"src/FlashAccounting.sol\":8725:8734  deltaSlot */\n      dup1\n        /* \"src/FlashAccounting.sol\":8719:8735  tload(deltaSlot) */\n      tload\n        /* \"src/FlashAccounting.sol\":8710:8735  delta := tload(deltaSlot) */\n      swap2\n      pop\n        /* \"src/FlashAccounting.sol\":8776:8777  0 */\n      0x00\n        /* \"src/FlashAccounting.sol\":8767:8772  delta */\n      dup3\n        /* \"src/FlashAccounting.sol\":8767:8777  delta == 0 */\n      sub\n        /* \"src/FlashAccounting.sol\":8763:8787  if (delta == 0) continue */\n      tag_359\n      jumpi\n        /* \"src/FlashAccounting.sol\":8779:8787  continue */\n      pop\n      pop\n      pop\n      jump(tag_358)\n        /* \"src/FlashAccounting.sol\":8763:8787  if (delta == 0) continue */\n    tag_359:\n        /* \"src/FlashAccounting.sol\":8802:8811  bool more */\n      0x00\n        /* \"src/FlashAccounting.sol\":8887:8888  1 */\n      0x01\n        /* \"src/FlashAccounting.sol\":8880:8885  delta */\n      dup4\n        /* \"src/FlashAccounting.sol\":8876:8889  and(delta, 1) */\n      and\n        /* \"src/FlashAccounting.sol\":8868:8889  more := and(delta, 1) */\n      swap1\n      pop\n        /* \"src/FlashAccounting.sol\":8922:8927  delta */\n      dup3\n        /* \"src/FlashAccounting.sol\":8919:8920  1 */\n      0x01\n        /* \"src/FlashAccounting.sol\":8915:8928  sar(1, delta) */\n      sar\n        /* \"src/FlashAccounting.sol\":8906:8928  delta := sar(1, delta) */\n      swap3\n      pop\n        /* \"src/FlashAccounting.sol\":9111:9112  0 */\n      0x00\n        /* \"src/FlashAccounting.sol\":9100:9109  deltaSlot */\n      dup3\n        /* \"src/FlashAccounting.sol\":9093:9113  tstore(deltaSlot, 0) */\n      tstore\n        /* \"src/FlashAccounting.sol\":9173:9177  more */\n      dup1\n        /* \"src/FlashAccounting.sol\":9169:10446  if (more) {... */\n      iszero\n      tag_360\n      jumpi\n        /* \"src/FlashAccounting.sol\":9201:9217  int256 extension */\n      0x00\n        /* \"src/FlashAccounting.sol\":9324:9325  1 */\n      0x01\n        /* \"src/FlashAccounting.sol\":9313:9322  deltaSlot */\n      dup4\n        /* \"src/FlashAccounting.sol\":9309:9326  add(deltaSlot, 1) */\n      add\n        /* \"src/FlashAccounting.sol\":9303:9327  tload(add(deltaSlot, 1)) */\n      tload\n        /* \"src/FlashAccounting.sol\":9290:9327  extension := tload(add(deltaSlot, 1)) */\n      swap1\n      pop\n        /* \"src/FlashAccounting.sol\":9388:9390  -2 */\n      0xfffffffffffffffffffffffffffffffffffffffffffffffffffffffffffffffe\n        /* \"src/FlashAccounting.sol\":9375:9384  extension */\n      dup2\n        /* \"src/FlashAccounting.sol\":9375:9390  extension == -2 */\n      sub\n        /* \"src/FlashAccounting.sol\":9371:10275  if (extension == -2) {... */\n      tag_361\n      jumpi\n        /* \"src/FlashAccounting.sol\":9430:9431  0 */\n      0x00\n        /* \"src/FlashAccounting.sol\":9422:9427  delta */\n      dup5\n        /* \"src/FlashAccounting.sol\":9422:9431  delta < 0 */\n      slt\n        /* \"src/FlashAccounting.sol\":9418:9462  if (delta < 0) revert BalanceDeltaOverflow() */\n      iszero\n      tag_362\n      jumpi\n        /* \"src/FlashAccounting.sol\":9440:9462  BalanceDeltaOverflow() */\n      mload(0x40)\n      0x778214eb00000000000000000000000000000000000000000000000000000000\n      dup2\n      mstore\n      0x04\n      add\n      mload(0x40)\n      dup1\n      swap2\n      sub\n      swap1\n      revert\n        /* \"src/FlashAccounting.sol\":9418:9462  if (delta < 0) revert BalanceDeltaOverflow() */\n    tag_362:\n        /* \"src/FlashAccounting.sol\":9553:9585  _burn(user, id, uint256(-delta)) */\n      tag_363\n        /* \"src/FlashAccounting.sol\":9559:9563  user */\n      dup9\n        /* \"src/FlashAccounting.sol\":9565:9567  id */\n      dup7\n        /* \"src/FlashAccounting.sol\":9578:9583  delta */\n      dup7\n        /* \"src/FlashAccounting.sol\":9577:9583  -delta */\n      0x00\n      sub\n        /* \"src/FlashAccounting.sol\":9553:9558  _burn */\n      tag_141\n        /* \"src/FlashAccounting.sol\":9553:9585  _burn(user, id, uint256(-delta)) */\n      jump\t// in\n    tag_363:\n        /* \"src/FlashAccounting.sol\":9371:10275  if (extension == -2) {... */\n      jump(tag_364)\n    tag_361:\n        /* \"src/FlashAccounting.sol\":9631:9633  -1 */\n      0xffffffffffffffffffffffffffffffffffffffffffffffffffffffffffffffff\n        /* \"src/FlashAccounting.sol\":9618:9627  extension */\n      dup2\n        /* \"src/FlashAccounting.sol\":9618:9633  extension == -1 */\n      sub\n        /* \"src/FlashAccounting.sol\":9614:10275  if (extension == -1) {... */\n      tag_365\n      jumpi\n        /* \"src/FlashAccounting.sol\":9661:9706  _burn(user, id, uint256(-delta) + (1 << 255)) */\n      tag_366\n        /* \"src/FlashAccounting.sol\":9667:9671  user */\n      dup9\n        /* \"src/FlashAccounting.sol\":9673:9675  id */\n      dup7\n        /* \"src/FlashAccounting.sol\":9696:9704  1 << 255 */\n      0x8000000000000000000000000000000000000000000000000000000000000000\n        /* \"src/FlashAccounting.sol\":9686:9691  delta */\n      dup8\n        /* \"src/FlashAccounting.sol\":9685:9691  -delta */\n      0x00\n      sub\n        /* \"src/FlashAccounting.sol\":9677:9705  uint256(-delta) + (1 << 255) */\n      add\n        /* \"src/FlashAccounting.sol\":9661:9666  _burn */\n      tag_141\n        /* \"src/FlashAccounting.sol\":9661:9706  _burn(user, id, uint256(-delta) + (1 << 255)) */\n      jump\t// in\n    tag_366:\n        /* \"src/FlashAccounting.sol\":9614:10275  if (extension == -1) {... */\n      jump(tag_367)\n    tag_365:\n        /* \"src/FlashAccounting.sol\":9891:9892  1 */\n      0x01\n        /* \"src/FlashAccounting.sol\":9878:9887  extension */\n      dup2\n        /* \"src/FlashAccounting.sol\":9878:9892  extension == 1 */\n      sub\n        /* \"src/FlashAccounting.sol\":9874:10275  if (extension == 1) {... */\n      tag_368\n      jumpi\n        /* \"src/FlashAccounting.sol\":9920:9964  _mint(user, id, uint256(delta) + (1 << 255)) */\n      tag_369\n        /* \"src/FlashAccounting.sol\":9926:9930  user */\n      dup9\n        /* \"src/FlashAccounting.sol\":9932:9934  id */\n      dup7\n        /* \"src/FlashAccounting.sol\":9954:9962  1 << 255 */\n      0x8000000000000000000000000000000000000000000000000000000000000000\n        /* \"src/FlashAccounting.sol\":9944:9949  delta */\n      dup8\n        /* \"src/FlashAccounting.sol\":9936:9963  uint256(delta) + (1 << 255) */\n      add\n        /* \"src/FlashAccounting.sol\":9920:9925  _mint */\n      tag_111\n        /* \"src/FlashAccounting.sol\":9920:9964  _mint(user, id, uint256(delta) + (1 << 255)) */\n      jump\t// in\n    tag_369:\n        /* \"src/FlashAccounting.sol\":9874:10275  if (extension == 1) {... */\n      jump(tag_370)\n    tag_368:\n        /* \"src/FlashAccounting.sol\":10010:10011  2 */\n      0x02\n        /* \"src/FlashAccounting.sol\":9997:10006  extension */\n      dup2\n        /* \"src/FlashAccounting.sol\":9997:10011  extension == 2 */\n      sub\n        /* \"src/FlashAccounting.sol\":9993:10275  if (extension == 2) {... */\n      tag_371\n      jumpi\n        /* \"src/FlashAccounting.sol\":10052:10053  0 */\n      0x00\n        /* \"src/FlashAccounting.sol\":10043:10048  delta */\n      dup5\n        /* \"src/FlashAccounting.sol\":10043:10053  delta >= 0 */\n      slt\n        /* \"src/FlashAccounting.sol\":10039:10084  if (delta >= 0) revert BalanceDeltaOverflow() */\n      tag_372\n      jumpi\n        /* \"src/FlashAccounting.sol\":10062:10084  BalanceDeltaOverflow() */\n      mload(0x40)\n      0x778214eb00000000000000000000000000000000000000000000000000000000\n      dup2\n      mstore\n      0x04\n      add\n      mload(0x40)\n      dup1\n      swap2\n      sub\n      swap1\n      revert\n        /* \"src/FlashAccounting.sol\":10039:10084  if (delta >= 0) revert BalanceDeltaOverflow() */\n    tag_372:\n        /* \"src/FlashAccounting.sol\":10186:10217  _mint(user, id, uint256(delta)) */\n      tag_373\n        /* \"src/FlashAccounting.sol\":10192:10196  user */\n      dup9\n        /* \"src/FlashAccounting.sol\":10198:10200  id */\n      dup7\n        /* \"src/FlashAccounting.sol\":10210:10215  delta */\n      dup7\n        /* \"src/FlashAccounting.sol\":10186:10191  _mint */\n      tag_111\n        /* \"src/FlashAccounting.sol\":10186:10217  _mint(user, id, uint256(delta)) */\n      jump\t// in\n    tag_373:\n        /* \"src/FlashAccounting.sol\":9993:10275  if (extension == 2) {... */\n      jump(tag_374)\n    tag_371:\n        /* \"src/FlashAccounting.sol\":10253:10275  BalanceDeltaOverflow() */\n      mload(0x40)\n      0x778214eb00000000000000000000000000000000000000000000000000000000\n      dup2\n      mstore\n      0x04\n      add\n      mload(0x40)\n      dup1\n      swap2\n      sub\n      swap1\n      revert\n        /* \"src/FlashAccounting.sol\":9993:10275  if (extension == 2) {... */\n    tag_374:\n        /* \"src/FlashAccounting.sol\":9874:10275  if (extension == 1) {... */\n    tag_370:\n        /* \"src/FlashAccounting.sol\":9614:10275  if (extension == -1) {... */\n    tag_367:\n        /* \"src/FlashAccounting.sol\":9371:10275  if (extension == -2) {... */\n    tag_364:\n        /* \"src/FlashAccounting.sol\":9179:10294  {... */\n      pop\n        /* \"src/FlashAccounting.sol\":9169:10446  if (more) {... */\n      jump(tag_375)\n    tag_360:\n        /* \"src/FlashAccounting.sol\":10334:10335  0 */\n      0x00\n        /* \"src/FlashAccounting.sol\":10326:10331  delta */\n      dup4\n        /* \"src/FlashAccounting.sol\":10326:10335  delta < 0 */\n      slt\n        /* \"src/FlashAccounting.sol\":10322:10427  if (delta < 0) _burn(user, id, uint256(-delta));... */\n      iszero\n      tag_376\n      jumpi\n        /* \"src/FlashAccounting.sol\":10337:10369  _burn(user, id, uint256(-delta)) */\n      tag_377\n        /* \"src/FlashAccounting.sol\":10343:10347  user */\n      dup8\n        /* \"src/FlashAccounting.sol\":10349:10351  id */\n      dup6\n        /* \"src/FlashAccounting.sol\":10362:10367  delta */\n      dup6\n        /* \"src/FlashAccounting.sol\":10361:10367  -delta */\n      0x00\n      sub\n        /* \"src/FlashAccounting.sol\":10337:10342  _burn */\n      tag_141\n        /* \"src/FlashAccounting.sol\":10337:10369  _burn(user, id, uint256(-delta)) */\n      jump\t// in\n    tag_377:\n        /* \"src/FlashAccounting.sol\":10322:10427  if (delta < 0) _burn(user, id, uint256(-delta));... */\n      jump(tag_378)\n    tag_376:\n        /* \"src/FlashAccounting.sol\":10396:10427  _mint(user, id, uint256(delta)) */\n      tag_379\n        /* \"src/FlashAccounting.sol\":10402:10406  user */\n      dup8\n        /* \"src/FlashAccounting.sol\":10408:10410  id */\n      dup6\n        /* \"src/FlashAccounting.sol\":10420:10425  delta */\n      dup6\n        /* \"src/FlashAccounting.sol\":10396:10401  _mint */\n      tag_111\n        /* \"src/FlashAccounting.sol\":10396:10427  _mint(user, id, uint256(delta)) */\n      jump\t// in\n    tag_379:\n        /* \"src/FlashAccounting.sol\":10322:10427  if (delta < 0) _burn(user, id, uint256(-delta));... */\n    tag_378:\n        /* \"src/FlashAccounting.sol\":9169:10446  if (more) {... */\n    tag_375:\n        /* \"src/FlashAccounting.sol\":8369:10470  {... */\n      pop\n      pop\n      pop\n      pop\n        /* \"src/FlashAccounting.sol\":8316:10470  for (uint256 i = 0; i < UserClue.unwrap(userClue); ) {... */\n    tag_358:\n      jump(tag_356)\n    tag_357:\n      pop\n        /* \"src/FlashAccounting.sol\":10594:10595  0 */\n      0x00\n        /* \"src/FlashAccounting.sol\":10581:10592  userSession */\n      dup4\n        /* \"src/FlashAccounting.sol\":10574:10596  tstore(userSession, 0) */\n      tstore\n        /* \"src/FlashAccounting.sol\":10505:10606  {... */\n      pop\n        /* \"src/FlashAccounting.sol\":8149:10612  function settleUserBalances(... */\n      pop\n      pop\n      jump\t// out\n        /* \"src/FlashAccounting.sol\":2650:2836  function getUserClue(... */\n    tag_355:\n        /* \"src/FlashAccounting.sol\":2738:2755  UserClue userClue */\n      0x00\n        /* \"src/FlashAccounting.sol\":2808:2819  userSession */\n      dup2\n        /* \"src/FlashAccounting.sol\":2802:2820  tload(userSession) */\n      tload\n        /* \"src/FlashAccounting.sol\":2790:2820  userClue := tload(userSession) */\n      swap1\n      pop\n        /* \"src/FlashAccounting.sol\":2650:2836  function getUserClue(... */\n      swap2\n      swap1\n      pop\n      jump\t// out\n        /* \"#utility.yul\":7:82   */\n    tag_381:\n        /* \"#utility.yul\":40:46   */\n      0x00\n        /* \"#utility.yul\":73:75   */\n      0x40\n        /* \"#utility.yul\":67:76   */\n      mload\n        /* \"#utility.yul\":57:76   */\n      swap1\n      pop\n        /* \"#utility.yul\":7:82   */\n      swap1\n      jump\t// out\n        /* \"#utility.yul\":88:205   */\n    tag_382:\n        /* \"#utility.yul\":197:198   */\n      0x00\n        /* \"#utility.yul\":194:195   */\n      0x00\n        /* \"#utility.yul\":187:199   */\n      revert\n        /* \"#utility.yul\":211:328   */\n    tag_383:\n        /* \"#utility.yul\":320:321   */\n      0x00\n        /* \"#utility.yul\":317:318   */\n      0x00\n        /* \"#utility.yul\":310:322   */\n      revert\n        /* \"#utility.yul\":334:460   */\n    tag_384:\n        /* \"#utility.yul\":371:378   */\n      0x00\n        /* \"#utility.yul\":411:453   */\n      0xffffffffffffffffffffffffffffffffffffffff\n        /* \"#utility.yul\":404:409   */\n      dup3\n        /* \"#utility.yul\":400:454   */\n      and\n        /* \"#utility.yul\":389:454   */\n      swap1\n      pop\n        /* \"#utility.yul\":334:460   */\n      swap2\n      swap1\n      pop\n      jump\t// out\n        /* \"#utility.yul\":466:562   */\n    tag_385:\n        /* \"#utility.yul\":503:510   */\n      0x00\n        /* \"#utility.yul\":532:556   */\n      tag_428\n        /* \"#utility.yul\":550:555   */\n      dup3\n        /* \"#utility.yul\":532:556   */\n      tag_384\n      jump\t// in\n    tag_428:\n        /* \"#utility.yul\":521:556   */\n      swap1\n      pop\n        /* \"#utility.yul\":466:562   */\n      swap2\n      swap1\n      pop\n      jump\t// out\n        /* \"#utility.yul\":568:690   */\n    tag_386:\n        /* \"#utility.yul\":641:665   */\n      tag_430\n        /* \"#utility.yul\":659:664   */\n      dup2\n        /* \"#utility.yul\":641:665   */\n      tag_385\n      jump\t// in\n    tag_430:\n        /* \"#utility.yul\":634:639   */\n      dup2\n        /* \"#utility.yul\":631:666   */\n      eq\n        /* \"#utility.yul\":621:684   */\n      tag_431\n      jumpi\n        /* \"#utility.yul\":680:681   */\n      0x00\n        /* \"#utility.yul\":677:678   */\n      0x00\n        /* \"#utility.yul\":670:682   */\n      revert\n        /* \"#utility.yul\":621:684   */\n    tag_431:\n        /* \"#utility.yul\":568:690   */\n      pop\n      jump\t// out\n        /* \"#utility.yul\":696:835   */\n    tag_387:\n        /* \"#utility.yul\":742:747   */\n      0x00\n        /* \"#utility.yul\":780:786   */\n      dup2\n        /* \"#utility.yul\":767:787   */\n      calldataload\n        /* \"#utility.yul\":758:787   */\n      swap1\n      pop\n        /* \"#utility.yul\":796:829   */\n      tag_433\n        /* \"#utility.yul\":823:828   */\n      dup2\n        /* \"#utility.yul\":796:829   */\n      tag_386\n      jump\t// in\n    tag_433:\n        /* \"#utility.yul\":696:835   */\n      swap3\n      swap2\n      pop\n      pop\n      jump\t// out\n        /* \"#utility.yul\":841:918   */\n    tag_388:\n        /* \"#utility.yul\":878:885   */\n      0x00\n        /* \"#utility.yul\":907:912   */\n      dup2\n        /* \"#utility.yul\":896:912   */\n      swap1\n      pop\n        /* \"#utility.yul\":841:918   */\n      swap2\n      swap1\n      pop\n      jump\t// out\n        /* \"#utility.yul\":924:1046   */\n    tag_389:\n        /* \"#utility.yul\":997:1021   */\n      tag_436\n        /* \"#utility.yul\":1015:1020   */\n      dup2\n        /* \"#utility.yul\":997:1021   */\n      tag_388\n      jump\t// in\n    tag_436:\n        /* \"#utility.yul\":990:995   */\n      dup2\n        /* \"#utility.yul\":987:1022   */\n      eq\n        /* \"#utility.yul\":977:1040   */\n      tag_437\n      jumpi\n        /* \"#utility.yul\":1036:1037   */\n      0x00\n        /* \"#utility.yul\":1033:1034   */\n      0x00\n        /* \"#utility.yul\":1026:1038   */\n      revert\n        /* \"#utility.yul\":977:1040   */\n    tag_437:\n        /* \"#utility.yul\":924:1046   */\n      pop\n      jump\t// out\n        /* \"#utility.yul\":1052:1191   */\n    tag_390:\n        /* \"#utility.yul\":1098:1103   */\n      0x00\n        /* \"#utility.yul\":1136:1142   */\n      dup2\n        /* \"#utility.yul\":1123:1143   */\n      calldataload\n        /* \"#utility.yul\":1114:1143   */\n      swap1\n      pop\n        /* \"#utility.yul\":1152:1185   */\n      tag_439\n        /* \"#utility.yul\":1179:1184   */\n      dup2\n        /* \"#utility.yul\":1152:1185   */\n      tag_389\n      jump\t// in\n    tag_439:\n        /* \"#utility.yul\":1052:1191   */\n      swap3\n      swap2\n      pop\n      pop\n      jump\t// out\n        /* \"#utility.yul\":1197:1816   */\n    tag_27:\n        /* \"#utility.yul\":1274:1280   */\n      0x00\n        /* \"#utility.yul\":1282:1288   */\n      0x00\n        /* \"#utility.yul\":1290:1296   */\n      0x00\n        /* \"#utility.yul\":1339:1341   */\n      0x60\n        /* \"#utility.yul\":1327:1336   */\n      dup5\n        /* \"#utility.yul\":1318:1325   */\n      dup7\n        /* \"#utility.yul\":1314:1337   */\n      sub\n        /* \"#utility.yul\":1310:1342   */\n      slt\n        /* \"#utility.yul\":1307:1426   */\n      iszero\n      tag_441\n      jumpi\n        /* \"#utility.yul\":1345:1424   */\n      tag_442\n      tag_382\n      jump\t// in\n    tag_442:\n        /* \"#utility.yul\":1307:1426   */\n    tag_441:\n        /* \"#utility.yul\":1465:1466   */\n      0x00\n        /* \"#utility.yul\":1490:1543   */\n      tag_443\n        /* \"#utility.yul\":1535:1542   */\n      dup7\n        /* \"#utility.yul\":1526:1532   */\n      dup3\n        /* \"#utility.yul\":1515:1524   */\n      dup8\n        /* \"#utility.yul\":1511:1533   */\n      add\n        /* \"#utility.yul\":1490:1543   */\n      tag_387\n      jump\t// in\n    tag_443:\n        /* \"#utility.yul\":1480:1543   */\n      swap4\n      pop\n        /* \"#utility.yul\":1436:1553   */\n      pop\n        /* \"#utility.yul\":1592:1594   */\n      0x20\n        /* \"#utility.yul\":1618:1671   */\n      tag_444\n        /* \"#utility.yul\":1663:1670   */\n      dup7\n        /* \"#utility.yul\":1654:1660   */\n      dup3\n        /* \"#utility.yul\":1643:1652   */\n      dup8\n        /* \"#utility.yul\":1639:1661   */\n      add\n        /* \"#utility.yul\":1618:1671   */\n      tag_390\n      jump\t// in\n    tag_444:\n        /* \"#utility.yul\":1608:1671   */\n      swap3\n      pop\n        /* \"#utility.yul\":1563:1681   */\n      pop\n        /* \"#utility.yul\":1720:1722   */\n      0x40\n        /* \"#utility.yul\":1746:1799   */\n      tag_445\n        /* \"#utility.yul\":1791:1798   */\n      dup7\n        /* \"#utility.yul\":1782:1788   */\n      dup3\n        /* \"#utility.yul\":1771:1780   */\n      dup8\n        /* \"#utility.yul\":1767:1789   */\n      add\n        /* \"#utility.yul\":1746:1799   */\n      tag_390\n      jump\t// in\n    tag_445:\n        /* \"#utility.yul\":1736:1799   */\n      swap2\n      pop\n        /* \"#utility.yul\":1691:1809   */\n      pop\n        /* \"#utility.yul\":1197:1816   */\n      swap3\n      pop\n      swap3\n      pop\n      swap3\n      jump\t// out\n        /* \"#utility.yul\":1822:1912   */\n    tag_391:\n        /* \"#utility.yul\":1856:1863   */\n      0x00\n        /* \"#utility.yul\":1899:1904   */\n      dup2\n        /* \"#utility.yul\":1892:1905   */\n      iszero\n        /* \"#utility.yul\":1885:1906   */\n      iszero\n        /* \"#utility.yul\":1874:1906   */\n      swap1\n      pop\n        /* \"#utility.yul\":1822:1912   */\n      swap2\n      swap1\n      pop\n      jump\t// out\n        /* \"#utility.yul\":1918:2027   */\n    tag_392:\n        /* \"#utility.yul\":1999:2020   */\n      tag_448\n        /* \"#utility.yul\":2014:2019   */\n      dup2\n        /* \"#utility.yul\":1999:2020   */\n      tag_391\n      jump\t// in\n    tag_448:\n        /* \"#utility.yul\":1994:1997   */\n      dup3\n        /* \"#utility.yul\":1987:2021   */\n      mstore\n        /* \"#utility.yul\":1918:2027   */\n      pop\n      pop\n      jump\t// out\n        /* \"#utility.yul\":2033:2243   */\n    tag_30:\n        /* \"#utility.yul\":2120:2124   */\n      0x00\n        /* \"#utility.yul\":2158:2160   */\n      0x20\n        /* \"#utility.yul\":2147:2156   */\n      dup3\n        /* \"#utility.yul\":2143:2161   */\n      add\n        /* \"#utility.yul\":2135:2161   */\n      swap1\n      pop\n        /* \"#utility.yul\":2171:2236   */\n      tag_450\n        /* \"#utility.yul\":2233:2234   */\n      0x00\n        /* \"#utility.yul\":2222:2231   */\n      dup4\n        /* \"#utility.yul\":2218:2235   */\n      add\n        /* \"#utility.yul\":2209:2215   */\n      dup5\n        /* \"#utility.yul\":2171:2236   */\n      tag_392\n      jump\t// in\n    tag_450:\n        /* \"#utility.yul\":2033:2243   */\n      swap3\n      swap2\n      pop\n      pop\n      jump\t// out\n        /* \"#utility.yul\":2249:2367   */\n    tag_393:\n        /* \"#utility.yul\":2336:2360   */\n      tag_452\n        /* \"#utility.yul\":2354:2359   */\n      dup2\n        /* \"#utility.yul\":2336:2360   */\n      tag_388\n      jump\t// in\n    tag_452:\n        /* \"#utility.yul\":2331:2334   */\n      dup3\n        /* \"#utility.yul\":2324:2361   */\n      mstore\n        /* \"#utility.yul\":2249:2367   */\n      pop\n      pop\n      jump\t// out\n        /* \"#utility.yul\":2373:2595   */\n    tag_38:\n        /* \"#utility.yul\":2466:2470   */\n      0x00\n        /* \"#utility.yul\":2504:2506   */\n      0x20\n        /* \"#utility.yul\":2493:2502   */\n      dup3\n        /* \"#utility.yul\":2489:2507   */\n      add\n        /* \"#utility.yul\":2481:2507   */\n      swap1\n      pop\n        /* \"#utility.yul\":2517:2588   */\n      tag_454\n        /* \"#utility.yul\":2585:2586   */\n      0x00\n        /* \"#utility.yul\":2574:2583   */\n      dup4\n        /* \"#utility.yul\":2570:2587   */\n      add\n        /* \"#utility.yul\":2561:2567   */\n      dup5\n        /* \"#utility.yul\":2517:2588   */\n      tag_393\n      jump\t// in\n    tag_454:\n        /* \"#utility.yul\":2373:2595   */\n      swap3\n      swap2\n      pop\n      pop\n      jump\t// out\n        /* \"#utility.yul\":2601:2718   */\n    tag_394:\n        /* \"#utility.yul\":2710:2711   */\n      0x00\n        /* \"#utility.yul\":2707:2708   */\n      0x00\n        /* \"#utility.yul\":2700:2712   */\n      revert\n        /* \"#utility.yul\":2724:2841   */\n    tag_395:\n        /* \"#utility.yul\":2833:2834   */\n      0x00\n        /* \"#utility.yul\":2830:2831   */\n      0x00\n        /* \"#utility.yul\":2823:2835   */\n      revert\n        /* \"#utility.yul\":2847:2964   */\n    tag_396:\n        /* \"#utility.yul\":2956:2957   */\n      0x00\n        /* \"#utility.yul\":2953:2954   */\n      0x00\n        /* \"#utility.yul\":2946:2958   */\n      revert\n        /* \"#utility.yul\":2994:3589   */\n    tag_397:\n        /* \"#utility.yul\":3094:3102   */\n      0x00\n        /* \"#utility.yul\":3104:3110   */\n      0x00\n        /* \"#utility.yul\":3154:3157   */\n      dup4\n        /* \"#utility.yul\":3147:3151   */\n      0x1f\n        /* \"#utility.yul\":3139:3145   */\n      dup5\n        /* \"#utility.yul\":3135:3152   */\n      add\n        /* \"#utility.yul\":3131:3158   */\n      slt\n        /* \"#utility.yul\":3121:3243   */\n      tag_459\n      jumpi\n        /* \"#utility.yul\":3162:3241   */\n      tag_460\n      tag_394\n      jump\t// in\n    tag_460:\n        /* \"#utility.yul\":3121:3243   */\n    tag_459:\n        /* \"#utility.yul\":3275:3281   */\n      dup3\n        /* \"#utility.yul\":3262:3282   */\n      calldataload\n        /* \"#utility.yul\":3252:3282   */\n      swap1\n      pop\n        /* \"#utility.yul\":3305:3323   */\n      0xffffffffffffffff\n        /* \"#utility.yul\":3297:3303   */\n      dup2\n        /* \"#utility.yul\":3294:3324   */\n      gt\n        /* \"#utility.yul\":3291:3408   */\n      iszero\n      tag_461\n      jumpi\n        /* \"#utility.yul\":3327:3406   */\n      tag_462\n      tag_395\n      jump\t// in\n    tag_462:\n        /* \"#utility.yul\":3291:3408   */\n    tag_461:\n        /* \"#utility.yul\":3441:3445   */\n      0x20\n        /* \"#utility.yul\":3433:3439   */\n      dup4\n        /* \"#utility.yul\":3429:3446   */\n      add\n        /* \"#utility.yul\":3417:3446   */\n      swap2\n      pop\n        /* \"#utility.yul\":3495:3498   */\n      dup4\n        /* \"#utility.yul\":3487:3491   */\n      0x40\n        /* \"#utility.yul\":3479:3485   */\n      dup3\n        /* \"#utility.yul\":3475:3492   */\n      mul\n        /* \"#utility.yul\":3465:3473   */\n      dup4\n        /* \"#utility.yul\":3461:3493   */\n      add\n        /* \"#utility.yul\":3458:3499   */\n      gt\n        /* \"#utility.yul\":3455:3583   */\n      iszero\n      tag_463\n      jumpi\n        /* \"#utility.yul\":3502:3581   */\n      tag_464\n      tag_396\n      jump\t// in\n    tag_464:\n        /* \"#utility.yul\":3455:3583   */\n    tag_463:\n        /* \"#utility.yul\":2994:3589   */\n      swap3\n      pop\n      swap3\n      swap1\n      pop\n      jump\t// out\n        /* \"#utility.yul\":3595:4208   */\n    tag_41:\n        /* \"#utility.yul\":3708:3714   */\n      0x00\n        /* \"#utility.yul\":3716:3722   */\n      0x00\n        /* \"#utility.yul\":3765:3767   */\n      0x20\n        /* \"#utility.yul\":3753:3762   */\n      dup4\n        /* \"#utility.yul\":3744:3751   */\n      dup6\n        /* \"#utility.yul\":3740:3763   */\n      sub\n        /* \"#utility.yul\":3736:3768   */\n      slt\n        /* \"#utility.yul\":3733:3852   */\n      iszero\n      tag_466\n      jumpi\n        /* \"#utility.yul\":3771:3850   */\n      tag_467\n      tag_382\n      jump\t// in\n    tag_467:\n        /* \"#utility.yul\":3733:3852   */\n    tag_466:\n        /* \"#utility.yul\":3919:3920   */\n      0x00\n        /* \"#utility.yul\":3908:3917   */\n      dup4\n        /* \"#utility.yul\":3904:3921   */\n      add\n        /* \"#utility.yul\":3891:3922   */\n      calldataload\n        /* \"#utility.yul\":3949:3967   */\n      0xffffffffffffffff\n        /* \"#utility.yul\":3941:3947   */\n      dup2\n        /* \"#utility.yul\":3938:3968   */\n      gt\n        /* \"#utility.yul\":3935:4052   */\n      iszero\n      tag_468\n      jumpi\n        /* \"#utility.yul\":3971:4050   */\n      tag_469\n      tag_383\n      jump\t// in\n    tag_469:\n        /* \"#utility.yul\":3935:4052   */\n    tag_468:\n        /* \"#utility.yul\":4084:4191   */\n      tag_470\n        /* \"#utility.yul\":4183:4190   */\n      dup6\n        /* \"#utility.yul\":4174:4180   */\n      dup3\n        /* \"#utility.yul\":4163:4172   */\n      dup7\n        /* \"#utility.yul\":4159:4181   */\n      add\n        /* \"#utility.yul\":4084:4191   */\n      tag_397\n      jump\t// in\n    tag_470:\n        /* \"#utility.yul\":4066:4191   */\n      swap3\n      pop\n      swap3\n      pop\n        /* \"#utility.yul\":3862:4201   */\n      pop\n        /* \"#utility.yul\":3595:4208   */\n      swap3\n      pop\n      swap3\n      swap1\n      pop\n      jump\t// out\n        /* \"#utility.yul\":4244:4845   */\n    tag_398:\n        /* \"#utility.yul\":4350:4358   */\n      0x00\n        /* \"#utility.yul\":4360:4366   */\n      0x00\n        /* \"#utility.yul\":4410:4413   */\n      dup4\n        /* \"#utility.yul\":4403:4407   */\n      0x1f\n        /* \"#utility.yul\":4395:4401   */\n      dup5\n        /* \"#utility.yul\":4391:4408   */\n      add\n        /* \"#utility.yul\":4387:4414   */\n      slt\n        /* \"#utility.yul\":4377:4499   */\n      tag_472\n      jumpi\n        /* \"#utility.yul\":4418:4497   */\n      tag_473\n      tag_394\n      jump\t// in\n    tag_473:\n        /* \"#utility.yul\":4377:4499   */\n    tag_472:\n        /* \"#utility.yul\":4531:4537   */\n      dup3\n        /* \"#utility.yul\":4518:4538   */\n      calldataload\n        /* \"#utility.yul\":4508:4538   */\n      swap1\n      pop\n        /* \"#utility.yul\":4561:4579   */\n      0xffffffffffffffff\n        /* \"#utility.yul\":4553:4559   */\n      dup2\n        /* \"#utility.yul\":4550:4580   */\n      gt\n        /* \"#utility.yul\":4547:4664   */\n      iszero\n      tag_474\n      jumpi\n        /* \"#utility.yul\":4583:4662   */\n      tag_475\n      tag_395\n      jump\t// in\n    tag_475:\n        /* \"#utility.yul\":4547:4664   */\n    tag_474:\n        /* \"#utility.yul\":4697:4701   */\n      0x20\n        /* \"#utility.yul\":4689:4695   */\n      dup4\n        /* \"#utility.yul\":4685:4702   */\n      add\n        /* \"#utility.yul\":4673:4702   */\n      swap2\n      pop\n        /* \"#utility.yul\":4751:4754   */\n      dup4\n        /* \"#utility.yul\":4743:4747   */\n      0x20\n        /* \"#utility.yul\":4735:4741   */\n      dup3\n        /* \"#utility.yul\":4731:4748   */\n      mul\n        /* \"#utility.yul\":4721:4729   */\n      dup4\n        /* \"#utility.yul\":4717:4749   */\n      add\n        /* \"#utility.yul\":4714:4755   */\n      gt\n        /* \"#utility.yul\":4711:4839   */\n      iszero\n      tag_476\n      jumpi\n        /* \"#utility.yul\":4758:4837   */\n      tag_477\n      tag_396\n      jump\t// in\n    tag_477:\n        /* \"#utility.yul\":4711:4839   */\n    tag_476:\n        /* \"#utility.yul\":4244:4845   */\n      swap3\n      pop\n      swap3\n      swap1\n      pop\n      jump\t// out\n        /* \"#utility.yul\":4851:5476   */\n    tag_52:\n        /* \"#utility.yul\":4970:4976   */\n      0x00\n        /* \"#utility.yul\":4978:4984   */\n      0x00\n        /* \"#utility.yul\":5027:5029   */\n      0x20\n        /* \"#utility.yul\":5015:5024   */\n      dup4\n        /* \"#utility.yul\":5006:5013   */\n      dup6\n        /* \"#utility.yul\":5002:5025   */\n      sub\n        /* \"#utility.yul\":4998:5030   */\n      slt\n        /* \"#utility.yul\":4995:5114   */\n      iszero\n      tag_479\n      jumpi\n        /* \"#utility.yul\":5033:5112   */\n      tag_480\n      tag_382\n      jump\t// in\n    tag_480:\n        /* \"#utility.yul\":4995:5114   */\n    tag_479:\n        /* \"#utility.yul\":5181:5182   */\n      0x00\n        /* \"#utility.yul\":5170:5179   */\n      dup4\n        /* \"#utility.yul\":5166:5183   */\n      add\n        /* \"#utility.yul\":5153:5184   */\n      calldataload\n        /* \"#utility.yul\":5211:5229   */\n      0xffffffffffffffff\n        /* \"#utility.yul\":5203:5209   */\n      dup2\n        /* \"#utility.yul\":5200:5230   */\n      gt\n        /* \"#utility.yul\":5197:5314   */\n      iszero\n      tag_481\n      jumpi\n        /* \"#utility.yul\":5233:5312   */\n      tag_482\n      tag_383\n      jump\t// in\n    tag_482:\n        /* \"#utility.yul\":5197:5314   */\n    tag_481:\n        /* \"#utility.yul\":5346:5459   */\n      tag_483\n        /* \"#utility.yul\":5451:5458   */\n      dup6\n        /* \"#utility.yul\":5442:5448   */\n      dup3\n        /* \"#utility.yul\":5431:5440   */\n      dup7\n        /* \"#utility.yul\":5427:5449   */\n      add\n        /* \"#utility.yul\":5346:5459   */\n      tag_398\n      jump\t// in\n    tag_483:\n        /* \"#utility.yul\":5328:5459   */\n      swap3\n      pop\n      swap3\n      pop\n        /* \"#utility.yul\":5124:5469   */\n      pop\n        /* \"#utility.yul\":4851:5476   */\n      swap3\n      pop\n      swap3\n      swap1\n      pop\n      jump\t// out\n        /* \"#utility.yul\":5482:5598   */\n    tag_399:\n        /* \"#utility.yul\":5552:5573   */\n      tag_485\n        /* \"#utility.yul\":5567:5572   */\n      dup2\n        /* \"#utility.yul\":5552:5573   */\n      tag_391\n      jump\t// in\n    tag_485:\n        /* \"#utility.yul\":5545:5550   */\n      dup2\n        /* \"#utility.yul\":5542:5574   */\n      eq\n        /* \"#utility.yul\":5532:5592   */\n      tag_486\n      jumpi\n        /* \"#utility.yul\":5588:5589   */\n      0x00\n        /* \"#utility.yul\":5585:5586   */\n      0x00\n        /* \"#utility.yul\":5578:5590   */\n      revert\n        /* \"#utility.yul\":5532:5592   */\n    tag_486:\n        /* \"#utility.yul\":5482:5598   */\n      pop\n      jump\t// out\n        /* \"#utility.yul\":5604:5737   */\n    tag_400:\n        /* \"#utility.yul\":5647:5652   */\n      0x00\n        /* \"#utility.yul\":5685:5691   */\n      dup2\n        /* \"#utility.yul\":5672:5692   */\n      calldataload\n        /* \"#utility.yul\":5663:5692   */\n      swap1\n      pop\n        /* \"#utility.yul\":5701:5731   */\n      tag_488\n        /* \"#utility.yul\":5725:5730   */\n      dup2\n        /* \"#utility.yul\":5701:5731   */\n      tag_399\n      jump\t// in\n    tag_488:\n        /* \"#utility.yul\":5604:5737   */\n      swap3\n      swap2\n      pop\n      pop\n      jump\t// out\n        /* \"#utility.yul\":5743:6211   */\n    tag_56:\n        /* \"#utility.yul\":5808:5814   */\n      0x00\n        /* \"#utility.yul\":5816:5822   */\n      0x00\n        /* \"#utility.yul\":5865:5867   */\n      0x40\n        /* \"#utility.yul\":5853:5862   */\n      dup4\n        /* \"#utility.yul\":5844:5851   */\n      dup6\n        /* \"#utility.yul\":5840:5863   */\n      sub\n        /* \"#utility.yul\":5836:5868   */\n      slt\n        /* \"#utility.yul\":5833:5952   */\n      iszero\n      tag_490\n      jumpi\n        /* \"#utility.yul\":5871:5950   */\n      tag_491\n      tag_382\n      jump\t// in\n    tag_491:\n        /* \"#utility.yul\":5833:5952   */\n    tag_490:\n        /* \"#utility.yul\":5991:5992   */\n      0x00\n        /* \"#utility.yul\":6016:6069   */\n      tag_492\n        /* \"#utility.yul\":6061:6068   */\n      dup6\n        /* \"#utility.yul\":6052:6058   */\n      dup3\n        /* \"#utility.yul\":6041:6050   */\n      dup7\n        /* \"#utility.yul\":6037:6059   */\n      add\n        /* \"#utility.yul\":6016:6069   */\n      tag_387\n      jump\t// in\n    tag_492:\n        /* \"#utility.yul\":6006:6069   */\n      swap3\n      pop\n        /* \"#utility.yul\":5962:6079   */\n      pop\n        /* \"#utility.yul\":6118:6120   */\n      0x20\n        /* \"#utility.yul\":6144:6194   */\n      tag_493\n        /* \"#utility.yul\":6186:6193   */\n      dup6\n        /* \"#utility.yul\":6177:6183   */\n      dup3\n        /* \"#utility.yul\":6166:6175   */\n      dup7\n        /* \"#utility.yul\":6162:6184   */\n      add\n        /* \"#utility.yul\":6144:6194   */\n      tag_400\n      jump\t// in\n    tag_493:\n        /* \"#utility.yul\":6134:6194   */\n      swap2\n      pop\n        /* \"#utility.yul\":6089:6204   */\n      pop\n        /* \"#utility.yul\":5743:6211   */\n      swap3\n      pop\n      swap3\n      swap1\n      pop\n      jump\t// out\n        /* \"#utility.yul\":6217:6546   */\n    tag_61:\n        /* \"#utility.yul\":6276:6282   */\n      0x00\n        /* \"#utility.yul\":6325:6327   */\n      0x20\n        /* \"#utility.yul\":6313:6322   */\n      dup3\n        /* \"#utility.yul\":6304:6311   */\n      dup5\n        /* \"#utility.yul\":6300:6323   */\n      sub\n        /* \"#utility.yul\":6296:6328   */\n      slt\n        /* \"#utility.yul\":6293:6412   */\n      iszero\n      tag_495\n      jumpi\n        /* \"#utility.yul\":6331:6410   */\n      tag_496\n      tag_382\n      jump\t// in\n    tag_496:\n        /* \"#utility.yul\":6293:6412   */\n    tag_495:\n        /* \"#utility.yul\":6451:6452   */\n      0x00\n        /* \"#utility.yul\":6476:6529   */\n      tag_497\n        /* \"#utility.yul\":6521:6528   */\n      dup5\n        /* \"#utility.yul\":6512:6518   */\n      dup3\n        /* \"#utility.yul\":6501:6510   */\n      dup6\n        /* \"#utility.yul\":6497:6519   */\n      add\n        /* \"#utility.yul\":6476:6529   */\n      tag_390\n      jump\t// in\n    tag_497:\n        /* \"#utility.yul\":6466:6529   */\n      swap2\n      pop\n        /* \"#utility.yul\":6422:6539   */\n      pop\n        /* \"#utility.yul\":6217:6546   */\n      swap3\n      swap2\n      pop\n      pop\n      jump\t// out\n        /* \"#utility.yul\":6552:7171   */\n    tag_66:\n        /* \"#utility.yul\":6629:6635   */\n      0x00\n        /* \"#utility.yul\":6637:6643   */\n      0x00\n        /* \"#utility.yul\":6645:6651   */\n      0x00\n        /* \"#utility.yul\":6694:6696   */\n      0x60\n        /* \"#utility.yul\":6682:6691   */\n      dup5\n        /* \"#utility.yul\":6673:6680   */\n      dup7\n        /* \"#utility.yul\":6669:6692   */\n      sub\n        /* \"#utility.yul\":6665:6697   */\n      slt\n        /* \"#utility.yul\":6662:6781   */\n      iszero\n      tag_499\n      jumpi\n        /* \"#utility.yul\":6700:6779   */\n      tag_500\n      tag_382\n      jump\t// in\n    tag_500:\n        /* \"#utility.yul\":6662:6781   */\n    tag_499:\n        /* \"#utility.yul\":6820:6821   */\n      0x00\n        /* \"#utility.yul\":6845:6898   */\n      tag_501\n        /* \"#utility.yul\":6890:6897   */\n      dup7\n        /* \"#utility.yul\":6881:6887   */\n      dup3\n        /* \"#utility.yul\":6870:6879   */\n      dup8\n        /* \"#utility.yul\":6866:6888   */\n      add\n        /* \"#utility.yul\":6845:6898   */\n      tag_387\n      jump\t// in\n    tag_501:\n        /* \"#utility.yul\":6835:6898   */\n      swap4\n      pop\n        /* \"#utility.yul\":6791:6908   */\n      pop\n        /* \"#utility.yul\":6947:6949   */\n      0x20\n        /* \"#utility.yul\":6973:7026   */\n      tag_502\n        /* \"#utility.yul\":7018:7025   */\n      dup7\n        /* \"#utility.yul\":7009:7015   */\n      dup3\n        /* \"#utility.yul\":6998:7007   */\n      dup8\n        /* \"#utility.yul\":6994:7016   */\n      add\n        /* \"#utility.yul\":6973:7026   */\n      tag_387\n      jump\t// in\n    tag_502:\n        /* \"#utility.yul\":6963:7026   */\n      swap3\n      pop\n        /* \"#utility.yul\":6918:7036   */\n      pop\n        /* \"#utility.yul\":7075:7077   */\n      0x40\n        /* \"#utility.yul\":7101:7154   */\n      tag_503\n        /* \"#utility.yul\":7146:7153   */\n      dup7\n        /* \"#utility.yul\":7137:7143   */\n      dup3\n        /* \"#utility.yul\":7126:7135   */\n      dup8\n        /* \"#utility.yul\":7122:7144   */\n      add\n        /* \"#utility.yul\":7101:7154   */\n      tag_390\n      jump\t// in\n    tag_503:\n        /* \"#utility.yul\":7091:7154   */\n      swap2\n      pop\n        /* \"#utility.yul\":7046:7164   */\n      pop\n        /* \"#utility.yul\":6552:7171   */\n      swap3\n      pop\n      swap3\n      pop\n      swap3\n      jump\t// out\n        /* \"#utility.yul\":7177:7947   */\n    tag_71:\n        /* \"#utility.yul\":7305:7311   */\n      0x00\n        /* \"#utility.yul\":7313:7319   */\n      0x00\n        /* \"#utility.yul\":7321:7327   */\n      0x00\n        /* \"#utility.yul\":7370:7372   */\n      0x40\n        /* \"#utility.yul\":7358:7367   */\n      dup5\n        /* \"#utility.yul\":7349:7356   */\n      dup7\n        /* \"#utility.yul\":7345:7368   */\n      sub\n        /* \"#utility.yul\":7341:7373   */\n      slt\n        /* \"#utility.yul\":7338:7457   */\n      iszero\n      tag_505\n      jumpi\n        /* \"#utility.yul\":7376:7455   */\n      tag_506\n      tag_382\n      jump\t// in\n    tag_506:\n        /* \"#utility.yul\":7338:7457   */\n    tag_505:\n        /* \"#utility.yul\":7496:7497   */\n      0x00\n        /* \"#utility.yul\":7521:7574   */\n      tag_507\n        /* \"#utility.yul\":7566:7573   */\n      dup7\n        /* \"#utility.yul\":7557:7563   */\n      dup3\n        /* \"#utility.yul\":7546:7555   */\n      dup8\n        /* \"#utility.yul\":7542:7564   */\n      add\n        /* \"#utility.yul\":7521:7574   */\n      tag_387\n      jump\t// in\n    tag_507:\n        /* \"#utility.yul\":7511:7574   */\n      swap4\n      pop\n        /* \"#utility.yul\":7467:7584   */\n      pop\n        /* \"#utility.yul\":7651:7653   */\n      0x20\n        /* \"#utility.yul\":7640:7649   */\n      dup5\n        /* \"#utility.yul\":7636:7654   */\n      add\n        /* \"#utility.yul\":7623:7655   */\n      calldataload\n        /* \"#utility.yul\":7682:7700   */\n      0xffffffffffffffff\n        /* \"#utility.yul\":7674:7680   */\n      dup2\n        /* \"#utility.yul\":7671:7701   */\n      gt\n        /* \"#utility.yul\":7668:7785   */\n      iszero\n      tag_508\n      jumpi\n        /* \"#utility.yul\":7704:7783   */\n      tag_509\n      tag_383\n      jump\t// in\n    tag_509:\n        /* \"#utility.yul\":7668:7785   */\n    tag_508:\n        /* \"#utility.yul\":7817:7930   */\n      tag_510\n        /* \"#utility.yul\":7922:7929   */\n      dup7\n        /* \"#utility.yul\":7913:7919   */\n      dup3\n        /* \"#utility.yul\":7902:7911   */\n      dup8\n        /* \"#utility.yul\":7898:7920   */\n      add\n        /* \"#utility.yul\":7817:7930   */\n      tag_398\n      jump\t// in\n    tag_510:\n        /* \"#utility.yul\":7799:7930   */\n      swap3\n      pop\n      swap3\n      pop\n        /* \"#utility.yul\":7594:7940   */\n      pop\n        /* \"#utility.yul\":7177:7947   */\n      swap3\n      pop\n      swap3\n      pop\n      swap3\n      jump\t// out\n        /* \"#utility.yul\":7953:8427   */\n    tag_79:\n        /* \"#utility.yul\":8021:8027   */\n      0x00\n        /* \"#utility.yul\":8029:8035   */\n      0x00\n        /* \"#utility.yul\":8078:8080   */\n      0x40\n        /* \"#utility.yul\":8066:8075   */\n      dup4\n        /* \"#utility.yul\":8057:8064   */\n      dup6\n        /* \"#utility.yul\":8053:8076   */\n      sub\n        /* \"#utility.yul\":8049:8081   */\n      slt\n        /* \"#utility.yul\":8046:8165   */\n      iszero\n      tag_512\n      jumpi\n        /* \"#utility.yul\":8084:8163   */\n      tag_513\n      tag_382\n      jump\t// in\n    tag_513:\n        /* \"#utility.yul\":8046:8165   */\n    tag_512:\n        /* \"#utility.yul\":8204:8205   */\n      0x00\n        /* \"#utility.yul\":8229:8282   */\n      tag_514\n        /* \"#utility.yul\":8274:8281   */\n      dup6\n        /* \"#utility.yul\":8265:8271   */\n      dup3\n        /* \"#utility.yul\":8254:8263   */\n      dup7\n        /* \"#utility.yul\":8250:8272   */\n      add\n        /* \"#utility.yul\":8229:8282   */\n      tag_390\n      jump\t// in\n    tag_514:\n        /* \"#utility.yul\":8219:8282   */\n      swap3\n      pop\n        /* \"#utility.yul\":8175:8292   */\n      pop\n        /* \"#utility.yul\":8331:8333   */\n      0x20\n        /* \"#utility.yul\":8357:8410   */\n      tag_515\n        /* \"#utility.yul\":8402:8409   */\n      dup6\n        /* \"#utility.yul\":8393:8399   */\n      dup3\n        /* \"#utility.yul\":8382:8391   */\n      dup7\n        /* \"#utility.yul\":8378:8400   */\n      add\n        /* \"#utility.yul\":8357:8410   */\n      tag_390\n      jump\t// in\n    tag_515:\n        /* \"#utility.yul\":8347:8410   */\n      swap2\n      pop\n        /* \"#utility.yul\":8302:8420   */\n      pop\n        /* \"#utility.yul\":7953:8427   */\n      swap3\n      pop\n      swap3\n      swap1\n      pop\n      jump\t// out\n        /* \"#utility.yul\":8433:8907   */\n    tag_86:\n        /* \"#utility.yul\":8501:8507   */\n      0x00\n        /* \"#utility.yul\":8509:8515   */\n      0x00\n        /* \"#utility.yul\":8558:8560   */\n      0x40\n        /* \"#utility.yul\":8546:8555   */\n      dup4\n        /* \"#utility.yul\":8537:8544   */\n      dup6\n        /* \"#utility.yul\":8533:8556   */\n      sub\n        /* \"#utility.yul\":8529:8561   */\n      slt\n        /* \"#utility.yul\":8526:8645   */\n      iszero\n      tag_517\n      jumpi\n        /* \"#utility.yul\":8564:8643   */\n      tag_518\n      tag_382\n      jump\t// in\n    tag_518:\n        /* \"#utility.yul\":8526:8645   */\n    tag_517:\n        /* \"#utility.yul\":8684:8685   */\n      0x00\n        /* \"#utility.yul\":8709:8762   */\n      tag_519\n        /* \"#utility.yul\":8754:8761   */\n      dup6\n        /* \"#utility.yul\":8745:8751   */\n      dup3\n        /* \"#utility.yul\":8734:8743   */\n      dup7\n        /* \"#utility.yul\":8730:8752   */\n      add\n        /* \"#utility.yul\":8709:8762   */\n      tag_387\n      jump\t// in\n    tag_519:\n        /* \"#utility.yul\":8699:8762   */\n      swap3\n      pop\n        /* \"#utility.yul\":8655:8772   */\n      pop\n        /* \"#utility.yul\":8811:8813   */\n      0x20\n        /* \"#utility.yul\":8837:8890   */\n      tag_520\n        /* \"#utility.yul\":8882:8889   */\n      dup6\n        /* \"#utility.yul\":8873:8879   */\n      dup3\n        /* \"#utility.yul\":8862:8871   */\n      dup7\n        /* \"#utility.yul\":8858:8880   */\n      add\n        /* \"#utility.yul\":8837:8890   */\n      tag_387\n      jump\t// in\n    tag_520:\n        /* \"#utility.yul\":8827:8890   */\n      swap2\n      pop\n        /* \"#utility.yul\":8782:8900   */\n      pop\n        /* \"#utility.yul\":8433:8907   */\n      swap3\n      pop\n      swap3\n      swap1\n      pop\n      jump\t// out\n        /* \"#utility.yul\":8913:9671   */\n    tag_97:\n        /* \"#utility.yul\":9035:9041   */\n      0x00\n        /* \"#utility.yul\":9043:9049   */\n      0x00\n        /* \"#utility.yul\":9051:9057   */\n      0x00\n        /* \"#utility.yul\":9100:9102   */\n      0x40\n        /* \"#utility.yul\":9088:9097   */\n      dup5\n        /* \"#utility.yul\":9079:9086   */\n      dup7\n        /* \"#utility.yul\":9075:9098   */\n      sub\n        /* \"#utility.yul\":9071:9103   */\n      slt\n        /* \"#utility.yul\":9068:9187   */\n      iszero\n      tag_522\n      jumpi\n        /* \"#utility.yul\":9106:9185   */\n      tag_523\n      tag_382\n      jump\t// in\n    tag_523:\n        /* \"#utility.yul\":9068:9187   */\n    tag_522:\n        /* \"#utility.yul\":9226:9227   */\n      0x00\n        /* \"#utility.yul\":9251:9304   */\n      tag_524\n        /* \"#utility.yul\":9296:9303   */\n      dup7\n        /* \"#utility.yul\":9287:9293   */\n      dup3\n        /* \"#utility.yul\":9276:9285   */\n      dup8\n        /* \"#utility.yul\":9272:9294   */\n      add\n        /* \"#utility.yul\":9251:9304   */\n      tag_387\n      jump\t// in\n    tag_524:\n        /* \"#utility.yul\":9241:9304   */\n      swap4\n      pop\n        /* \"#utility.yul\":9197:9314   */\n      pop\n        /* \"#utility.yul\":9381:9383   */\n      0x20\n        /* \"#utility.yul\":9370:9379   */\n      dup5\n        /* \"#utility.yul\":9366:9384   */\n      add\n        /* \"#utility.yul\":9353:9385   */\n      calldataload\n        /* \"#utility.yul\":9412:9430   */\n      0xffffffffffffffff\n        /* \"#utility.yul\":9404:9410   */\n      dup2\n        /* \"#utility.yul\":9401:9431   */\n      gt\n        /* \"#utility.yul\":9398:9515   */\n      iszero\n      tag_525\n      jumpi\n        /* \"#utility.yul\":9434:9513   */\n      tag_526\n      tag_383\n      jump\t// in\n    tag_526:\n        /* \"#utility.yul\":9398:9515   */\n    tag_525:\n        /* \"#utility.yul\":9547:9654   */\n      tag_527\n        /* \"#utility.yul\":9646:9653   */\n      dup7\n        /* \"#utility.yul\":9637:9643   */\n      dup3\n        /* \"#utility.yul\":9626:9635   */\n      dup8\n        /* \"#utility.yul\":9622:9644   */\n      add\n        /* \"#utility.yul\":9547:9654   */\n      tag_397\n      jump\t// in\n    tag_527:\n        /* \"#utility.yul\":9529:9654   */\n      swap3\n      pop\n      swap3\n      pop\n        /* \"#utility.yul\":9324:9664   */\n      pop\n        /* \"#utility.yul\":8913:9671   */\n      swap3\n      pop\n      swap3\n      pop\n      swap3\n      jump\t// out\n        /* \"#utility.yul\":9677:10442   */\n    tag_101:\n        /* \"#utility.yul\":9763:9769   */\n      0x00\n        /* \"#utility.yul\":9771:9777   */\n      0x00\n        /* \"#utility.yul\":9779:9785   */\n      0x00\n        /* \"#utility.yul\":9787:9793   */\n      0x00\n        /* \"#utility.yul\":9836:9839   */\n      0x80\n        /* \"#utility.yul\":9824:9833   */\n      dup6\n        /* \"#utility.yul\":9815:9822   */\n      dup8\n        /* \"#utility.yul\":9811:9834   */\n      sub\n        /* \"#utility.yul\":9807:9840   */\n      slt\n        /* \"#utility.yul\":9804:9924   */\n      iszero\n      tag_529\n      jumpi\n        /* \"#utility.yul\":9843:9922   */\n      tag_530\n      tag_382\n      jump\t// in\n    tag_530:\n        /* \"#utility.yul\":9804:9924   */\n    tag_529:\n        /* \"#utility.yul\":9963:9964   */\n      0x00\n        /* \"#utility.yul\":9988:10041   */\n      tag_531\n        /* \"#utility.yul\":10033:10040   */\n      dup8\n        /* \"#utility.yul\":10024:10030   */\n      dup3\n        /* \"#utility.yul\":10013:10022   */\n      dup9\n        /* \"#utility.yul\":10009:10031   */\n      add\n        /* \"#utility.yul\":9988:10041   */\n      tag_387\n      jump\t// in\n    tag_531:\n        /* \"#utility.yul\":9978:10041   */\n      swap5\n      pop\n        /* \"#utility.yul\":9934:10051   */\n      pop\n        /* \"#utility.yul\":10090:10092   */\n      0x20\n        /* \"#utility.yul\":10116:10169   */\n      tag_532\n        /* \"#utility.yul\":10161:10168   */\n      dup8\n        /* \"#utility.yul\":10152:10158   */\n      dup3\n        /* \"#utility.yul\":10141:10150   */\n      dup9\n        /* \"#utility.yul\":10137:10159   */\n      add\n        /* \"#utility.yul\":10116:10169   */\n      tag_387\n      jump\t// in\n    tag_532:\n        /* \"#utility.yul\":10106:10169   */\n      swap4\n      pop\n        /* \"#utility.yul\":10061:10179   */\n      pop\n        /* \"#utility.yul\":10218:10220   */\n      0x40\n        /* \"#utility.yul\":10244:10297   */\n      tag_533\n        /* \"#utility.yul\":10289:10296   */\n      dup8\n        /* \"#utility.yul\":10280:10286   */\n      dup3\n        /* \"#utility.yul\":10269:10278   */\n      dup9\n        /* \"#utility.yul\":10265:10287   */\n      add\n        /* \"#utility.yul\":10244:10297   */\n      tag_390\n      jump\t// in\n    tag_533:\n        /* \"#utility.yul\":10234:10297   */\n      swap3\n      pop\n        /* \"#utility.yul\":10189:10307   */\n      pop\n        /* \"#utility.yul\":10346:10348   */\n      0x60\n        /* \"#utility.yul\":10372:10425   */\n      tag_534\n        /* \"#utility.yul\":10417:10424   */\n      dup8\n        /* \"#utility.yul\":10408:10414   */\n      dup3\n        /* \"#utility.yul\":10397:10406   */\n      dup9\n        /* \"#utility.yul\":10393:10415   */\n      add\n        /* \"#utility.yul\":10372:10425   */\n      tag_390\n      jump\t// in\n    tag_534:\n        /* \"#utility.yul\":10362:10425   */\n      swap2\n      pop\n        /* \"#utility.yul\":10317:10435   */\n      pop\n        /* \"#utility.yul\":9677:10442   */\n      swap3\n      swap6\n      swap2\n      swap5\n      pop\n      swap3\n      pop\n      jump\t// out\n        /* \"#utility.yul\":10448:10628   */\n    tag_125:\n        /* \"#utility.yul\":10496:10573   */\n      0x4e487b7100000000000000000000000000000000000000000000000000000000\n        /* \"#utility.yul\":10493:10494   */\n      0x00\n        /* \"#utility.yul\":10486:10574   */\n      mstore\n        /* \"#utility.yul\":10593:10597   */\n      0x32\n        /* \"#utility.yul\":10590:10591   */\n      0x04\n        /* \"#utility.yul\":10583:10598   */\n      mstore\n        /* \"#utility.yul\":10617:10621   */\n      0x24\n        /* \"#utility.yul\":10614:10615   */\n      0x00\n        /* \"#utility.yul\":10607:10622   */\n      revert\n        /* \"#utility.yul\":10634:10751   */\n    tag_401:\n        /* \"#utility.yul\":10743:10744   */\n      0x00\n        /* \"#utility.yul\":10740:10741   */\n      0x00\n        /* \"#utility.yul\":10733:10745   */\n      revert\n        /* \"#utility.yul\":10757:10874   */\n    tag_402:\n        /* \"#utility.yul\":10866:10867   */\n      0x00\n        /* \"#utility.yul\":10863:10864   */\n      0x00\n        /* \"#utility.yul\":10856:10868   */\n      revert\n        /* \"#utility.yul\":10880:10997   */\n    tag_403:\n        /* \"#utility.yul\":10989:10990   */\n      0x00\n        /* \"#utility.yul\":10986:10987   */\n      0x00\n        /* \"#utility.yul\":10979:10991   */\n      revert\n        /* \"#utility.yul\":11003:11402   */\n    tag_158:\n        /* \"#utility.yul\":11102:11106   */\n      0x00\n        /* \"#utility.yul\":11156:11167   */\n      dup3\n        /* \"#utility.yul\":11143:11168   */\n      calldataload\n        /* \"#utility.yul\":11256:11257   */\n      0x01\n        /* \"#utility.yul\":11250:11254   */\n      0x80\n        /* \"#utility.yul\":11246:11258   */\n      sub\n        /* \"#utility.yul\":11235:11243   */\n      dup4\n        /* \"#utility.yul\":11219:11233   */\n      calldatasize\n        /* \"#utility.yul\":11215:11244   */\n      sub\n        /* \"#utility.yul\":11211:11259   */\n      sub\n        /* \"#utility.yul\":11191:11209   */\n      dup2\n        /* \"#utility.yul\":11187:11260   */\n      slt\n        /* \"#utility.yul\":11177:11345   */\n      tag_540\n      jumpi\n        /* \"#utility.yul\":11264:11343   */\n      tag_541\n      tag_401\n      jump\t// in\n    tag_541:\n        /* \"#utility.yul\":11177:11345   */\n    tag_540:\n        /* \"#utility.yul\":11376:11394   */\n      dup1\n        /* \"#utility.yul\":11366:11374   */\n      dup4\n        /* \"#utility.yul\":11362:11395   */\n      add\n        /* \"#utility.yul\":11354:11395   */\n      swap2\n      pop\n        /* \"#utility.yul\":11107:11402   */\n      pop\n        /* \"#utility.yul\":11003:11402   */\n      swap3\n      swap2\n      pop\n      pop\n      jump\t// out\n        /* \"#utility.yul\":11408:11588   */\n    tag_404:\n        /* \"#utility.yul\":11456:11533   */\n      0x4e487b7100000000000000000000000000000000000000000000000000000000\n        /* \"#utility.yul\":11453:11454   */\n      0x00\n        /* \"#utility.yul\":11446:11534   */\n      mstore\n        /* \"#utility.yul\":11553:11557   */\n      0x11\n        /* \"#utility.yul\":11550:11551   */\n      0x04\n        /* \"#utility.yul\":11543:11558   */\n      mstore\n        /* \"#utility.yul\":11577:11581   */\n      0x24\n        /* \"#utility.yul\":11574:11575   */\n      0x00\n        /* \"#utility.yul\":11567:11582   */\n      revert\n        /* \"#utility.yul\":11594:11785   */\n    tag_235:\n        /* \"#utility.yul\":11634:11637   */\n      0x00\n        /* \"#utility.yul\":11653:11673   */\n      tag_544\n        /* \"#utility.yul\":11671:11672   */\n      dup3\n        /* \"#utility.yul\":11653:11673   */\n      tag_388\n      jump\t// in\n    tag_544:\n        /* \"#utility.yul\":11648:11673   */\n      swap2\n      pop\n        /* \"#utility.yul\":11687:11707   */\n      tag_545\n        /* \"#utility.yul\":11705:11706   */\n      dup4\n        /* \"#utility.yul\":11687:11707   */\n      tag_388\n      jump\t// in\n    tag_545:\n        /* \"#utility.yul\":11682:11707   */\n      swap3\n      pop\n        /* \"#utility.yul\":11730:11731   */\n      dup3\n        /* \"#utility.yul\":11727:11728   */\n      dup3\n        /* \"#utility.yul\":11723:11732   */\n      add\n        /* \"#utility.yul\":11716:11732   */\n      swap1\n      pop\n        /* \"#utility.yul\":11751:11754   */\n      dup1\n        /* \"#utility.yul\":11748:11749   */\n      dup3\n        /* \"#utility.yul\":11745:11755   */\n      gt\n        /* \"#utility.yul\":11742:11778   */\n      iszero\n      tag_546\n      jumpi\n        /* \"#utility.yul\":11758:11776   */\n      tag_547\n      tag_404\n      jump\t// in\n    tag_547:\n        /* \"#utility.yul\":11742:11778   */\n    tag_546:\n        /* \"#utility.yul\":11594:11785   */\n      swap3\n      swap2\n      pop\n      pop\n      jump\t// out\n        /* \"#utility.yul\":11791:11960   */\n    tag_405:\n        /* \"#utility.yul\":11875:11886   */\n      0x00\n        /* \"#utility.yul\":11909:11915   */\n      dup3\n        /* \"#utility.yul\":11904:11907   */\n      dup3\n        /* \"#utility.yul\":11897:11916   */\n      mstore\n        /* \"#utility.yul\":11949:11953   */\n      0x20\n        /* \"#utility.yul\":11944:11947   */\n      dup3\n        /* \"#utility.yul\":11940:11954   */\n      add\n        /* \"#utility.yul\":11925:11954   */\n      swap1\n      pop\n        /* \"#utility.yul\":11791:11960   */\n      swap3\n      swap2\n      pop\n      pop\n      jump\t// out\n        /* \"#utility.yul\":11966:12136   */\n    tag_406:\n        /* \"#utility.yul\":12106:12128   */\n      0x496e73756666696369656e742062616c616e6365000000000000000000000000\n        /* \"#utility.yul\":12102:12103   */\n      0x00\n        /* \"#utility.yul\":12094:12100   */\n      dup3\n        /* \"#utility.yul\":12090:12104   */\n      add\n        /* \"#utility.yul\":12083:12129   */\n      mstore\n        /* \"#utility.yul\":11966:12136   */\n      pop\n      jump\t// out\n        /* \"#utility.yul\":12142:12508   */\n    tag_407:\n        /* \"#utility.yul\":12284:12287   */\n      0x00\n        /* \"#utility.yul\":12305:12372   */\n      tag_551\n        /* \"#utility.yul\":12369:12371   */\n      0x14\n        /* \"#utility.yul\":12364:12367   */\n      dup4\n        /* \"#utility.yul\":12305:12372   */\n      tag_405\n      jump\t// in\n    tag_551:\n        /* \"#utility.yul\":12298:12372   */\n      swap2\n      pop\n        /* \"#utility.yul\":12381:12474   */\n      tag_552\n        /* \"#utility.yul\":12470:12473   */\n      dup3\n        /* \"#utility.yul\":12381:12474   */\n      tag_406\n      jump\t// in\n    tag_552:\n        /* \"#utility.yul\":12499:12501   */\n      0x20\n        /* \"#utility.yul\":12494:12497   */\n      dup3\n        /* \"#utility.yul\":12490:12502   */\n      add\n        /* \"#utility.yul\":12483:12502   */\n      swap1\n      pop\n        /* \"#utility.yul\":12142:12508   */\n      swap2\n      swap1\n      pop\n      jump\t// out\n        /* \"#utility.yul\":12514:12933   */\n    tag_254:\n        /* \"#utility.yul\":12680:12684   */\n      0x00\n        /* \"#utility.yul\":12718:12720   */\n      0x20\n        /* \"#utility.yul\":12707:12716   */\n      dup3\n        /* \"#utility.yul\":12703:12721   */\n      add\n        /* \"#utility.yul\":12695:12721   */\n      swap1\n      pop\n        /* \"#utility.yul\":12767:12776   */\n      dup2\n        /* \"#utility.yul\":12761:12765   */\n      dup2\n        /* \"#utility.yul\":12757:12777   */\n      sub\n        /* \"#utility.yul\":12753:12754   */\n      0x00\n        /* \"#utility.yul\":12742:12751   */\n      dup4\n        /* \"#utility.yul\":12738:12755   */\n      add\n        /* \"#utility.yul\":12731:12778   */\n      mstore\n        /* \"#utility.yul\":12795:12926   */\n      tag_554\n        /* \"#utility.yul\":12921:12925   */\n      dup2\n        /* \"#utility.yul\":12795:12926   */\n      tag_407\n      jump\t// in\n    tag_554:\n        /* \"#utility.yul\":12787:12926   */\n      swap1\n      pop\n        /* \"#utility.yul\":12514:12933   */\n      swap2\n      swap1\n      pop\n      jump\t// out\n        /* \"#utility.yul\":12939:13133   */\n    tag_256:\n        /* \"#utility.yul\":12979:12983   */\n      0x00\n        /* \"#utility.yul\":12999:13019   */\n      tag_556\n        /* \"#utility.yul\":13017:13018   */\n      dup3\n        /* \"#utility.yul\":12999:13019   */\n      tag_388\n      jump\t// in\n    tag_556:\n        /* \"#utility.yul\":12994:13019   */\n      swap2\n      pop\n        /* \"#utility.yul\":13033:13053   */\n      tag_557\n        /* \"#utility.yul\":13051:13052   */\n      dup4\n        /* \"#utility.yul\":13033:13053   */\n      tag_388\n      jump\t// in\n    tag_557:\n        /* \"#utility.yul\":13028:13053   */\n      swap3\n      pop\n        /* \"#utility.yul\":13077:13078   */\n      dup3\n        /* \"#utility.yul\":13074:13075   */\n      dup3\n        /* \"#utility.yul\":13070:13079   */\n      sub\n        /* \"#utility.yul\":13062:13079   */\n      swap1\n      pop\n        /* \"#utility.yul\":13101:13102   */\n      dup2\n        /* \"#utility.yul\":13095:13099   */\n      dup2\n        /* \"#utility.yul\":13092:13103   */\n      gt\n        /* \"#utility.yul\":13089:13126   */\n      iszero\n      tag_558\n      jumpi\n        /* \"#utility.yul\":13106:13124   */\n      tag_559\n      tag_404\n      jump\t// in\n    tag_559:\n        /* \"#utility.yul\":13089:13126   */\n    tag_558:\n        /* \"#utility.yul\":12939:13133   */\n      swap3\n      swap2\n      pop\n      pop\n      jump\t// out\n        /* \"#utility.yul\":13139:13468   */\n    tag_260:\n        /* \"#utility.yul\":13198:13204   */\n      0x00\n        /* \"#utility.yul\":13247:13249   */\n      0x20\n        /* \"#utility.yul\":13235:13244   */\n      dup3\n        /* \"#utility.yul\":13226:13233   */\n      dup5\n        /* \"#utility.yul\":13222:13245   */\n      sub\n        /* \"#utility.yul\":13218:13250   */\n      slt\n        /* \"#utility.yul\":13215:13334   */\n      iszero\n      tag_561\n      jumpi\n        /* \"#utility.yul\":13253:13332   */\n      tag_562\n      tag_382\n      jump\t// in\n    tag_562:\n        /* \"#utility.yul\":13215:13334   */\n    tag_561:\n        /* \"#utility.yul\":13373:13374   */\n      0x00\n        /* \"#utility.yul\":13398:13451   */\n      tag_563\n        /* \"#utility.yul\":13443:13450   */\n      dup5\n        /* \"#utility.yul\":13434:13440   */\n      dup3\n        /* \"#utility.yul\":13423:13432   */\n      dup6\n        /* \"#utility.yul\":13419:13441   */\n      add\n        /* \"#utility.yul\":13398:13451   */\n      tag_387\n      jump\t// in\n    tag_563:\n        /* \"#utility.yul\":13388:13451   */\n      swap2\n      pop\n        /* \"#utility.yul\":13344:13461   */\n      pop\n        /* \"#utility.yul\":13139:13468   */\n      swap3\n      swap2\n      pop\n      pop\n      jump\t// out\n        /* \"#utility.yul\":13474:14198   */\n    tag_331:\n        /* \"#utility.yul\":13551:13555   */\n      0x00\n        /* \"#utility.yul\":13557:13563   */\n      0x00\n        /* \"#utility.yul\":13613:13624   */\n      dup4\n        /* \"#utility.yul\":13600:13625   */\n      calldataload\n        /* \"#utility.yul\":13713:13714   */\n      0x01\n        /* \"#utility.yul\":13707:13711   */\n      0x20\n        /* \"#utility.yul\":13703:13715   */\n      sub\n        /* \"#utility.yul\":13692:13700   */\n      dup5\n        /* \"#utility.yul\":13676:13690   */\n      calldatasize\n        /* \"#utility.yul\":13672:13701   */\n      sub\n        /* \"#utility.yul\":13668:13716   */\n      sub\n        /* \"#utility.yul\":13648:13666   */\n      dup2\n        /* \"#utility.yul\":13644:13717   */\n      slt\n        /* \"#utility.yul\":13634:13802   */\n      tag_565\n      jumpi\n        /* \"#utility.yul\":13721:13800   */\n      tag_566\n      tag_401\n      jump\t// in\n    tag_566:\n        /* \"#utility.yul\":13634:13802   */\n    tag_565:\n        /* \"#utility.yul\":13833:13851   */\n      dup1\n        /* \"#utility.yul\":13823:13831   */\n      dup5\n        /* \"#utility.yul\":13819:13852   */\n      add\n        /* \"#utility.yul\":13811:13852   */\n      swap3\n      pop\n        /* \"#utility.yul\":13885:13889   */\n      dup3\n        /* \"#utility.yul\":13872:13890   */\n      calldataload\n        /* \"#utility.yul\":13862:13890   */\n      swap2\n      pop\n        /* \"#utility.yul\":13913:13931   */\n      0xffffffffffffffff\n        /* \"#utility.yul\":13905:13911   */\n      dup3\n        /* \"#utility.yul\":13902:13932   */\n      gt\n        /* \"#utility.yul\":13899:14016   */\n      iszero\n      tag_567\n      jumpi\n        /* \"#utility.yul\":13935:14014   */\n      tag_568\n      tag_402\n      jump\t// in\n    tag_568:\n        /* \"#utility.yul\":13899:14016   */\n    tag_567:\n        /* \"#utility.yul\":14043:14045   */\n      0x20\n        /* \"#utility.yul\":14037:14041   */\n      dup4\n        /* \"#utility.yul\":14033:14046   */\n      add\n        /* \"#utility.yul\":14025:14046   */\n      swap3\n      pop\n        /* \"#utility.yul\":14100:14104   */\n      0x01\n        /* \"#utility.yul\":14092:14098   */\n      dup3\n        /* \"#utility.yul\":14088:14105   */\n      mul\n        /* \"#utility.yul\":14072:14086   */\n      calldatasize\n        /* \"#utility.yul\":14068:14106   */\n      sub\n        /* \"#utility.yul\":14062:14066   */\n      dup4\n        /* \"#utility.yul\":14058:14107   */\n      sgt\n        /* \"#utility.yul\":14055:14191   */\n      iszero\n      tag_569\n      jumpi\n        /* \"#utility.yul\":14110:14189   */\n      tag_570\n      tag_403\n      jump\t// in\n    tag_570:\n        /* \"#utility.yul\":14055:14191   */\n    tag_569:\n        /* \"#utility.yul\":13564:14198   */\n      pop\n        /* \"#utility.yul\":13474:14198   */\n      swap3\n      pop\n      swap3\n      swap1\n      pop\n      jump\t// out\n        /* \"#utility.yul\":14204:14372   */\n    tag_408:\n        /* \"#utility.yul\":14287:14298   */\n      0x00\n        /* \"#utility.yul\":14321:14327   */\n      dup3\n        /* \"#utility.yul\":14316:14319   */\n      dup3\n        /* \"#utility.yul\":14309:14328   */\n      mstore\n        /* \"#utility.yul\":14361:14365   */\n      0x20\n        /* \"#utility.yul\":14356:14359   */\n      dup3\n        /* \"#utility.yul\":14352:14366   */\n      add\n        /* \"#utility.yul\":14337:14366   */\n      swap1\n      pop\n        /* \"#utility.yul\":14204:14372   */\n      swap3\n      swap2\n      pop\n      pop\n      jump\t// out\n        /* \"#utility.yul\":14378:14526   */\n    tag_409:\n        /* \"#utility.yul\":14476:14482   */\n      dup3\n        /* \"#utility.yul\":14471:14474   */\n      dup2\n        /* \"#utility.yul\":14466:14469   */\n      dup4\n        /* \"#utility.yul\":14453:14483   */\n      calldatacopy\n        /* \"#utility.yul\":14517:14518   */\n      0x00\n        /* \"#utility.yul\":14508:14514   */\n      dup4\n        /* \"#utility.yul\":14503:14506   */\n      dup4\n        /* \"#utility.yul\":14499:14515   */\n      add\n        /* \"#utility.yul\":14492:14519   */\n      mstore\n        /* \"#utility.yul\":14378:14526   */\n      pop\n      pop\n      pop\n      jump\t// out\n        /* \"#utility.yul\":14532:14634   */\n    tag_410:\n        /* \"#utility.yul\":14573:14579   */\n      0x00\n        /* \"#utility.yul\":14624:14626   */\n      0x1f\n        /* \"#utility.yul\":14620:14627   */\n      not\n        /* \"#utility.yul\":14615:14617   */\n      0x1f\n        /* \"#utility.yul\":14608:14613   */\n      dup4\n        /* \"#utility.yul\":14604:14618   */\n      add\n        /* \"#utility.yul\":14600:14628   */\n      and\n        /* \"#utility.yul\":14590:14628   */\n      swap1\n      pop\n        /* \"#utility.yul\":14532:14634   */\n      swap2\n      swap1\n      pop\n      jump\t// out\n        /* \"#utility.yul\":14662:14976   */\n    tag_411:\n        /* \"#utility.yul\":14758:14761   */\n      0x00\n        /* \"#utility.yul\":14779:14849   */\n      tag_575\n        /* \"#utility.yul\":14842:14848   */\n      dup4\n        /* \"#utility.yul\":14837:14840   */\n      dup6\n        /* \"#utility.yul\":14779:14849   */\n      tag_408\n      jump\t// in\n    tag_575:\n        /* \"#utility.yul\":14772:14849   */\n      swap4\n      pop\n        /* \"#utility.yul\":14859:14915   */\n      tag_576\n        /* \"#utility.yul\":14908:14914   */\n      dup4\n        /* \"#utility.yul\":14903:14906   */\n      dup6\n        /* \"#utility.yul\":14896:14901   */\n      dup5\n        /* \"#utility.yul\":14859:14915   */\n      tag_409\n      jump\t// in\n    tag_576:\n        /* \"#utility.yul\":14940:14969   */\n      tag_577\n        /* \"#utility.yul\":14962:14968   */\n      dup4\n        /* \"#utility.yul\":14940:14969   */\n      tag_410\n      jump\t// in\n    tag_577:\n        /* \"#utility.yul\":14935:14938   */\n      dup5\n        /* \"#utility.yul\":14931:14970   */\n      add\n        /* \"#utility.yul\":14924:14970   */\n      swap1\n      pop\n        /* \"#utility.yul\":14662:14976   */\n      swap4\n      swap3\n      pop\n      pop\n      pop\n      jump\t// out\n        /* \"#utility.yul\":14982:15311   */\n    tag_333:\n        /* \"#utility.yul\":15103:15107   */\n      0x00\n        /* \"#utility.yul\":15141:15143   */\n      0x20\n        /* \"#utility.yul\":15130:15139   */\n      dup3\n        /* \"#utility.yul\":15126:15144   */\n      add\n        /* \"#utility.yul\":15118:15144   */\n      swap1\n      pop\n        /* \"#utility.yul\":15190:15199   */\n      dup2\n        /* \"#utility.yul\":15184:15188   */\n      dup2\n        /* \"#utility.yul\":15180:15200   */\n      sub\n        /* \"#utility.yul\":15176:15177   */\n      0x00\n        /* \"#utility.yul\":15165:15174   */\n      dup4\n        /* \"#utility.yul\":15161:15178   */\n      add\n        /* \"#utility.yul\":15154:15201   */\n      mstore\n        /* \"#utility.yul\":15218:15304   */\n      tag_579\n        /* \"#utility.yul\":15299:15303   */\n      dup2\n        /* \"#utility.yul\":15290:15296   */\n      dup5\n        /* \"#utility.yul\":15282:15288   */\n      dup7\n        /* \"#utility.yul\":15218:15304   */\n      tag_411\n      jump\t// in\n    tag_579:\n        /* \"#utility.yul\":15210:15304   */\n      swap1\n      pop\n        /* \"#utility.yul\":14982:15311   */\n      swap4\n      swap3\n      pop\n      pop\n      pop\n      jump\t// out\n        /* \"#utility.yul\":15317:15497   */\n    tag_412:\n        /* \"#utility.yul\":15365:15442   */\n      0x4e487b7100000000000000000000000000000000000000000000000000000000\n        /* \"#utility.yul\":15362:15363   */\n      0x00\n        /* \"#utility.yul\":15355:15443   */\n      mstore\n        /* \"#utility.yul\":15462:15466   */\n      0x41\n        /* \"#utility.yul\":15459:15460   */\n      0x04\n        /* \"#utility.yul\":15452:15467   */\n      mstore\n        /* \"#utility.yul\":15486:15490   */\n      0x24\n        /* \"#utility.yul\":15483:15484   */\n      0x00\n        /* \"#utility.yul\":15476:15491   */\n      revert\n        /* \"#utility.yul\":15503:15784   */\n    tag_413:\n        /* \"#utility.yul\":15586:15613   */\n      tag_582\n        /* \"#utility.yul\":15608:15612   */\n      dup3\n        /* \"#utility.yul\":15586:15613   */\n      tag_410\n      jump\t// in\n    tag_582:\n        /* \"#utility.yul\":15578:15584   */\n      dup2\n        /* \"#utility.yul\":15574:15614   */\n      add\n        /* \"#utility.yul\":15716:15722   */\n      dup2\n        /* \"#utility.yul\":15704:15714   */\n      dup2\n        /* \"#utility.yul\":15701:15723   */\n      lt\n        /* \"#utility.yul\":15680:15698   */\n      0xffffffffffffffff\n        /* \"#utility.yul\":15668:15678   */\n      dup3\n        /* \"#utility.yul\":15665:15699   */\n      gt\n        /* \"#utility.yul\":15662:15724   */\n      or\n        /* \"#utility.yul\":15659:15747   */\n      iszero\n      tag_583\n      jumpi\n        /* \"#utility.yul\":15727:15745   */\n      tag_584\n      tag_412\n      jump\t// in\n    tag_584:\n        /* \"#utility.yul\":15659:15747   */\n    tag_583:\n        /* \"#utility.yul\":15767:15777   */\n      dup1\n        /* \"#utility.yul\":15763:15765   */\n      0x40\n        /* \"#utility.yul\":15756:15778   */\n      mstore\n        /* \"#utility.yul\":15546:15784   */\n      pop\n        /* \"#utility.yul\":15503:15784   */\n      pop\n      pop\n      jump\t// out\n        /* \"#utility.yul\":15790:15919   */\n    tag_414:\n        /* \"#utility.yul\":15824:15830   */\n      0x00\n        /* \"#utility.yul\":15851:15871   */\n      tag_586\n      tag_381\n      jump\t// in\n    tag_586:\n        /* \"#utility.yul\":15841:15871   */\n      swap1\n      pop\n        /* \"#utility.yul\":15880:15913   */\n      tag_587\n        /* \"#utility.yul\":15908:15912   */\n      dup3\n        /* \"#utility.yul\":15900:15906   */\n      dup3\n        /* \"#utility.yul\":15880:15913   */\n      tag_413\n      jump\t// in\n    tag_587:\n        /* \"#utility.yul\":15790:15919   */\n      swap2\n      swap1\n      pop\n      jump\t// out\n        /* \"#utility.yul\":15925:16261   */\n    tag_415:\n        /* \"#utility.yul\":16027:16031   */\n      0x00\n        /* \"#utility.yul\":16117:16135   */\n      0xffffffffffffffff\n        /* \"#utility.yul\":16109:16115   */\n      dup3\n        /* \"#utility.yul\":16106:16136   */\n      gt\n        /* \"#utility.yul\":16103:16159   */\n      iszero\n      tag_589\n      jumpi\n        /* \"#utility.yul\":16139:16157   */\n      tag_590\n      tag_412\n      jump\t// in\n    tag_590:\n        /* \"#utility.yul\":16103:16159   */\n    tag_589:\n        /* \"#utility.yul\":16189:16193   */\n      0x20\n        /* \"#utility.yul\":16181:16187   */\n      dup3\n        /* \"#utility.yul\":16177:16194   */\n      mul\n        /* \"#utility.yul\":16169:16194   */\n      swap1\n      pop\n        /* \"#utility.yul\":16249:16253   */\n      0x20\n        /* \"#utility.yul\":16243:16247   */\n      dup2\n        /* \"#utility.yul\":16239:16254   */\n      add\n        /* \"#utility.yul\":16231:16254   */\n      swap1\n      pop\n        /* \"#utility.yul\":15925:16261   */\n      swap2\n      swap1\n      pop\n      jump\t// out\n        /* \"#utility.yul\":16267:16384   */\n    tag_416:\n        /* \"#utility.yul\":16376:16377   */\n      0x00\n        /* \"#utility.yul\":16373:16374   */\n      0x00\n        /* \"#utility.yul\":16366:16378   */\n      revert\n        /* \"#utility.yul\":16513:16656   */\n    tag_418:\n        /* \"#utility.yul\":16570:16575   */\n      0x00\n        /* \"#utility.yul\":16601:16607   */\n      dup2\n        /* \"#utility.yul\":16595:16608   */\n      mload\n        /* \"#utility.yul\":16586:16608   */\n      swap1\n      pop\n        /* \"#utility.yul\":16617:16650   */\n      tag_594\n        /* \"#utility.yul\":16644:16649   */\n      dup2\n        /* \"#utility.yul\":16617:16650   */\n      tag_389\n      jump\t// in\n    tag_594:\n        /* \"#utility.yul\":16513:16656   */\n      swap3\n      swap2\n      pop\n      pop\n      jump\t// out\n        /* \"#utility.yul\":16684:17296   */\n    tag_419:\n        /* \"#utility.yul\":16769:16774   */\n      0x00\n        /* \"#utility.yul\":16813:16817   */\n      0x40\n        /* \"#utility.yul\":16801:16810   */\n      dup3\n        /* \"#utility.yul\":16796:16799   */\n      dup5\n        /* \"#utility.yul\":16792:16811   */\n      sub\n        /* \"#utility.yul\":16788:16818   */\n      slt\n        /* \"#utility.yul\":16785:16902   */\n      iszero\n      tag_596\n      jumpi\n        /* \"#utility.yul\":16821:16900   */\n      tag_597\n      tag_416\n      jump\t// in\n    tag_597:\n        /* \"#utility.yul\":16785:16902   */\n    tag_596:\n        /* \"#utility.yul\":16920:16941   */\n      tag_598\n        /* \"#utility.yul\":16936:16940   */\n      0x40\n        /* \"#utility.yul\":16920:16941   */\n      tag_414\n      jump\t// in\n    tag_598:\n        /* \"#utility.yul\":16911:16941   */\n      swap1\n      pop\n        /* \"#utility.yul\":17003:17004   */\n      0x00\n        /* \"#utility.yul\":17043:17103   */\n      tag_599\n        /* \"#utility.yul\":17099:17102   */\n      dup5\n        /* \"#utility.yul\":17090:17096   */\n      dup3\n        /* \"#utility.yul\":17079:17088   */\n      dup6\n        /* \"#utility.yul\":17075:17097   */\n      add\n        /* \"#utility.yul\":17043:17103   */\n      tag_418\n      jump\t// in\n    tag_599:\n        /* \"#utility.yul\":17036:17040   */\n      0x00\n        /* \"#utility.yul\":17029:17034   */\n      dup4\n        /* \"#utility.yul\":17025:17041   */\n      add\n        /* \"#utility.yul\":17018:17104   */\n      mstore\n        /* \"#utility.yul\":16951:17115   */\n      pop\n        /* \"#utility.yul\":17176:17178   */\n      0x20\n        /* \"#utility.yul\":17217:17277   */\n      tag_600\n        /* \"#utility.yul\":17273:17276   */\n      dup5\n        /* \"#utility.yul\":17264:17270   */\n      dup3\n        /* \"#utility.yul\":17253:17262   */\n      dup6\n        /* \"#utility.yul\":17249:17271   */\n      add\n        /* \"#utility.yul\":17217:17277   */\n      tag_418\n      jump\t// in\n    tag_600:\n        /* \"#utility.yul\":17210:17214   */\n      0x20\n        /* \"#utility.yul\":17203:17208   */\n      dup4\n        /* \"#utility.yul\":17199:17215   */\n      add\n        /* \"#utility.yul\":17192:17278   */\n      mstore\n        /* \"#utility.yul\":17125:17289   */\n      pop\n        /* \"#utility.yul\":16684:17296   */\n      swap3\n      swap2\n      pop\n      pop\n      jump\t// out\n        /* \"#utility.yul\":17326:18133   */\n    tag_420:\n        /* \"#utility.yul\":17458:17463   */\n      0x00\n        /* \"#utility.yul\":17483:17589   */\n      tag_602\n        /* \"#utility.yul\":17499:17588   */\n      tag_603\n        /* \"#utility.yul\":17581:17587   */\n      dup5\n        /* \"#utility.yul\":17499:17588   */\n      tag_415\n      jump\t// in\n    tag_603:\n        /* \"#utility.yul\":17483:17589   */\n      tag_414\n      jump\t// in\n    tag_602:\n        /* \"#utility.yul\":17474:17589   */\n      swap1\n      pop\n        /* \"#utility.yul\":17609:17614   */\n      dup1\n        /* \"#utility.yul\":17638:17644   */\n      dup4\n        /* \"#utility.yul\":17631:17636   */\n      dup3\n        /* \"#utility.yul\":17624:17645   */\n      mstore\n        /* \"#utility.yul\":17672:17676   */\n      0x20\n        /* \"#utility.yul\":17665:17670   */\n      dup3\n        /* \"#utility.yul\":17661:17677   */\n      add\n        /* \"#utility.yul\":17654:17677   */\n      swap1\n      pop\n        /* \"#utility.yul\":17725:17729   */\n      0x40\n        /* \"#utility.yul\":17717:17723   */\n      dup5\n        /* \"#utility.yul\":17713:17730   */\n      mul\n        /* \"#utility.yul\":17705:17711   */\n      dup4\n        /* \"#utility.yul\":17701:17731   */\n      add\n        /* \"#utility.yul\":17754:17757   */\n      dup6\n        /* \"#utility.yul\":17746:17752   */\n      dup2\n        /* \"#utility.yul\":17743:17758   */\n      gt\n        /* \"#utility.yul\":17740:17862   */\n      iszero\n      tag_604\n      jumpi\n        /* \"#utility.yul\":17773:17852   */\n      tag_605\n      tag_396\n      jump\t// in\n    tag_605:\n        /* \"#utility.yul\":17740:17862   */\n    tag_604:\n        /* \"#utility.yul\":17888:17894   */\n      dup4\n        /* \"#utility.yul\":17871:18127   */\n    tag_606:\n        /* \"#utility.yul\":17905:17911   */\n      dup2\n        /* \"#utility.yul\":17900:17903   */\n      dup2\n        /* \"#utility.yul\":17897:17912   */\n      lt\n        /* \"#utility.yul\":17871:18127   */\n      iszero\n      tag_608\n      jumpi\n        /* \"#utility.yul\":17980:17983   */\n      dup1\n        /* \"#utility.yul\":18009:18082   */\n      tag_609\n        /* \"#utility.yul\":18078:18081   */\n      dup9\n        /* \"#utility.yul\":18066:18076   */\n      dup3\n        /* \"#utility.yul\":18009:18082   */\n      tag_419\n      jump\t// in\n    tag_609:\n        /* \"#utility.yul\":18004:18007   */\n      dup5\n        /* \"#utility.yul\":17997:18083   */\n      mstore\n        /* \"#utility.yul\":18112:18116   */\n      0x20\n        /* \"#utility.yul\":18107:18110   */\n      dup5\n        /* \"#utility.yul\":18103:18117   */\n      add\n        /* \"#utility.yul\":18096:18117   */\n      swap4\n      pop\n        /* \"#utility.yul\":17947:18127   */\n      pop\n        /* \"#utility.yul\":17931:17935   */\n      0x40\n        /* \"#utility.yul\":17926:17929   */\n      dup2\n        /* \"#utility.yul\":17922:17936   */\n      add\n        /* \"#utility.yul\":17915:17936   */\n      swap1\n      pop\n        /* \"#utility.yul\":17871:18127   */\n      jump(tag_606)\n    tag_608:\n        /* \"#utility.yul\":17875:17896   */\n      pop\n        /* \"#utility.yul\":17464:18133   */\n      pop\n      pop\n        /* \"#utility.yul\":17326:18133   */\n      swap4\n      swap3\n      pop\n      pop\n      pop\n      jump\t// out\n        /* \"#utility.yul\":18163:18598   */\n    tag_421:\n        /* \"#utility.yul\":18270:18275   */\n      0x00\n        /* \"#utility.yul\":18319:18322   */\n      dup3\n        /* \"#utility.yul\":18312:18316   */\n      0x1f\n        /* \"#utility.yul\":18304:18310   */\n      dup4\n        /* \"#utility.yul\":18300:18317   */\n      add\n        /* \"#utility.yul\":18296:18323   */\n      slt\n        /* \"#utility.yul\":18286:18408   */\n      tag_611\n      jumpi\n        /* \"#utility.yul\":18327:18406   */\n      tag_612\n      tag_394\n      jump\t// in\n    tag_612:\n        /* \"#utility.yul\":18286:18408   */\n    tag_611:\n        /* \"#utility.yul\":18437:18443   */\n      dup2\n        /* \"#utility.yul\":18431:18444   */\n      mload\n        /* \"#utility.yul\":18462:18592   */\n      tag_613\n        /* \"#utility.yul\":18588:18591   */\n      dup5\n        /* \"#utility.yul\":18580:18586   */\n      dup3\n        /* \"#utility.yul\":18573:18577   */\n      0x20\n        /* \"#utility.yul\":18565:18571   */\n      dup7\n        /* \"#utility.yul\":18561:18578   */\n      add\n        /* \"#utility.yul\":18462:18592   */\n      tag_420\n      jump\t// in\n    tag_613:\n        /* \"#utility.yul\":18453:18592   */\n      swap2\n      pop\n        /* \"#utility.yul\":18276:18598   */\n      pop\n        /* \"#utility.yul\":18163:18598   */\n      swap3\n      swap2\n      pop\n      pop\n      jump\t// out\n        /* \"#utility.yul\":18604:20436   */\n    tag_337:\n        /* \"#utility.yul\":18901:18907   */\n      0x00\n        /* \"#utility.yul\":18909:18915   */\n      0x00\n        /* \"#utility.yul\":18917:18923   */\n      0x00\n        /* \"#utility.yul\":18925:18931   */\n      0x00\n        /* \"#utility.yul\":18974:18977   */\n      0x80\n        /* \"#utility.yul\":18962:18971   */\n      dup6\n        /* \"#utility.yul\":18953:18960   */\n      dup8\n        /* \"#utility.yul\":18949:18972   */\n      sub\n        /* \"#utility.yul\":18945:18978   */\n      slt\n        /* \"#utility.yul\":18942:19062   */\n      iszero\n      tag_615\n      jumpi\n        /* \"#utility.yul\":18981:19060   */\n      tag_616\n      tag_382\n      jump\t// in\n    tag_616:\n        /* \"#utility.yul\":18942:19062   */\n    tag_615:\n        /* \"#utility.yul\":19122:19123   */\n      0x00\n        /* \"#utility.yul\":19111:19120   */\n      dup6\n        /* \"#utility.yul\":19107:19124   */\n      add\n        /* \"#utility.yul\":19101:19125   */\n      mload\n        /* \"#utility.yul\":19152:19170   */\n      0xffffffffffffffff\n        /* \"#utility.yul\":19144:19150   */\n      dup2\n        /* \"#utility.yul\":19141:19171   */\n      gt\n        /* \"#utility.yul\":19138:19255   */\n      iszero\n      tag_617\n      jumpi\n        /* \"#utility.yul\":19174:19253   */\n      tag_618\n      tag_383\n      jump\t// in\n    tag_618:\n        /* \"#utility.yul\":19138:19255   */\n    tag_617:\n        /* \"#utility.yul\":19279:19393   */\n      tag_619\n        /* \"#utility.yul\":19385:19392   */\n      dup8\n        /* \"#utility.yul\":19376:19382   */\n      dup3\n        /* \"#utility.yul\":19365:19374   */\n      dup9\n        /* \"#utility.yul\":19361:19383   */\n      add\n        /* \"#utility.yul\":19279:19393   */\n      tag_421\n      jump\t// in\n    tag_619:\n        /* \"#utility.yul\":19269:19393   */\n      swap5\n      pop\n        /* \"#utility.yul\":19072:19403   */\n      pop\n        /* \"#utility.yul\":19463:19465   */\n      0x20\n        /* \"#utility.yul\":19452:19461   */\n      dup6\n        /* \"#utility.yul\":19448:19466   */\n      add\n        /* \"#utility.yul\":19442:19467   */\n      mload\n        /* \"#utility.yul\":19494:19512   */\n      0xffffffffffffffff\n        /* \"#utility.yul\":19486:19492   */\n      dup2\n        /* \"#utility.yul\":19483:19513   */\n      gt\n        /* \"#utility.yul\":19480:19597   */\n      iszero\n      tag_620\n      jumpi\n        /* \"#utility.yul\":19516:19595   */\n      tag_621\n      tag_383\n      jump\t// in\n    tag_621:\n        /* \"#utility.yul\":19480:19597   */\n    tag_620:\n        /* \"#utility.yul\":19621:19735   */\n      tag_622\n        /* \"#utility.yul\":19727:19734   */\n      dup8\n        /* \"#utility.yul\":19718:19724   */\n      dup3\n        /* \"#utility.yul\":19707:19716   */\n      dup9\n        /* \"#utility.yul\":19703:19725   */\n      add\n        /* \"#utility.yul\":19621:19735   */\n      tag_421\n      jump\t// in\n    tag_622:\n        /* \"#utility.yul\":19611:19735   */\n      swap4\n      pop\n        /* \"#utility.yul\":19413:19745   */\n      pop\n        /* \"#utility.yul\":19805:19807   */\n      0x40\n        /* \"#utility.yul\":19794:19803   */\n      dup6\n        /* \"#utility.yul\":19790:19808   */\n      add\n        /* \"#utility.yul\":19784:19809   */\n      mload\n        /* \"#utility.yul\":19836:19854   */\n      0xffffffffffffffff\n        /* \"#utility.yul\":19828:19834   */\n      dup2\n        /* \"#utility.yul\":19825:19855   */\n      gt\n        /* \"#utility.yul\":19822:19939   */\n      iszero\n      tag_623\n      jumpi\n        /* \"#utility.yul\":19858:19937   */\n      tag_624\n      tag_383\n      jump\t// in\n    tag_624:\n        /* \"#utility.yul\":19822:19939   */\n    tag_623:\n        /* \"#utility.yul\":19963:20077   */\n      tag_625\n        /* \"#utility.yul\":20069:20076   */\n      dup8\n        /* \"#utility.yul\":20060:20066   */\n      dup3\n        /* \"#utility.yul\":20049:20058   */\n      dup9\n        /* \"#utility.yul\":20045:20067   */\n      add\n        /* \"#utility.yul\":19963:20077   */\n      tag_421\n      jump\t// in\n    tag_625:\n        /* \"#utility.yul\":19953:20077   */\n      swap3\n      pop\n        /* \"#utility.yul\":19755:20087   */\n      pop\n        /* \"#utility.yul\":20147:20149   */\n      0x60\n        /* \"#utility.yul\":20136:20145   */\n      dup6\n        /* \"#utility.yul\":20132:20150   */\n      add\n        /* \"#utility.yul\":20126:20151   */\n      mload\n        /* \"#utility.yul\":20178:20196   */\n      0xffffffffffffffff\n        /* \"#utility.yul\":20170:20176   */\n      dup2\n        /* \"#utility.yul\":20167:20197   */\n      gt\n        /* \"#utility.yul\":20164:20281   */\n      iszero\n      tag_626\n      jumpi\n        /* \"#utility.yul\":20200:20279   */\n      tag_627\n      tag_383\n      jump\t// in\n    tag_627:\n        /* \"#utility.yul\":20164:20281   */\n    tag_626:\n        /* \"#utility.yul\":20305:20419   */\n      tag_628\n        /* \"#utility.yul\":20411:20418   */\n      dup8\n        /* \"#utility.yul\":20402:20408   */\n      dup3\n        /* \"#utility.yul\":20391:20400   */\n      dup9\n        /* \"#utility.yul\":20387:20409   */\n      add\n        /* \"#utility.yul\":20305:20419   */\n      tag_421\n      jump\t// in\n    tag_628:\n        /* \"#utility.yul\":20295:20419   */\n      swap2\n      pop\n        /* \"#utility.yul\":20097:20429   */\n      pop\n        /* \"#utility.yul\":18604:20436   */\n      swap3\n      swap6\n      swap2\n      swap5\n      pop\n      swap3\n      pop\n      jump\t// out\n\n    auxdata: 0xa26469706673582212202c7333742426137814cbe9bcfa73534928c10e06d5215be1cdaa5abbd097c94364736f6c634300081c0033\n}\n",
				"bytecode": {
					"linkReferences": {},
					"object": "6080604052348015600e575f5ffd5b5061263a8061001c5f395ff3fe608060405234801561000f575f5ffd5b506004361061011f575f3560e01c8063598af9e7116100ab578063b6363cf21161006f578063b6363cf214610337578063e303304114610367578063e747f31c14610383578063f3178dd11461039f578063fe99049a146103bb5761011f565b8063598af9e71461028357806362ba62e5146102b3578063a42bff86146102cf578063ab7ccc1c146102ff578063b390c0ab1461031b5761011f565b806336223ac2116100f257806336223ac2146101bb578063426a8493146101d757806352d2accf14610207578063558a72971461022357806356cbfe3e146102535761011f565b8063095bcdb614610123578063156e29f6146101535780632d760d571461016f578063355f580e1461019f575b5f5ffd5b61013d60048036038101906101389190611cab565b6103eb565b60405161014a9190611d15565b60405180910390f35b61016d60048036038101906101689190611cab565b610403565b005b61018960048036038101906101849190611cab565b61046b565b6040516101969190611d3d565b60405180910390f35b6101b960048036038101906101b49190611db7565b61049a565b005b6101d560048036038101906101d09190611db7565b610530565b005b6101f160048036038101906101ec9190611cab565b61062d565b6040516101fe9190611d15565b60405180910390f35b610221600480360381019061021c9190611e57565b61072b565b005b61023d60048036038101906102389190611ecc565b61078c565b60405161024a9190611d15565b60405180910390f35b61026d60048036038101906102689190611f0a565b61088a565b60405161027a9190611d3d565b60405180910390f35b61029d60048036038101906102989190611f35565b61089f565b6040516102aa9190611d3d565b60405180910390f35b6102cd60048036038101906102c89190611f85565b6108ca565b005b6102e960048036038101906102e49190611f0a565b61093b565b6040516102f69190611d3d565b60405180910390f35b61031960048036038101906103149190611fe2565b610945565b005b61033560048036038101906103309190611fe2565b6109e3565b005b610351600480360381019061034c9190612020565b610a4a565b60405161035e9190611d15565b60405180910390f35b610381600480360381019061037c9190611db7565b610a73565b005b61039d60048036038101906103989190611fe2565b610b58565b005b6103b960048036038101906103b4919061205e565b610ba7565b005b6103d560048036038101906103d091906120bb565b610ca5565b6040516103e29190611d15565b60405180910390f35b5f6103f833858585610d8c565b600190509392505050565b610417836104113385610e0e565b83610e23565b818373ffffffffffffffffffffffffffffffffffffffff167f4c209b5fc8ad50758f13e2e1088ba56a560dff690a1c6fef26394f4c03821c4f8360405161045e9190611d3d565b60405180910390a3505050565b6001602052825f5260405f20602052815f5260405f20816002811061048e575f80fd5b015f9250925050505481565b5f6104a3610ef9565b90505f5f6104b18333611004565b915091505f8585905090505f5f90505b8181101561051d57368787838181106104dd576104dc61211f565b5b90506040020190505f815f013590505f8260200135905061050087878484611031565b955061050d338383610e23565b50505080806001019150506104c1565b5061052883836110dc565b505050505050565b5f8282905090505f5f90505b81811015610627575f61056a3386868581811061055c5761055b61211f565b5b9050604002015f0135610e0e565b905061059333828787868181106105845761058361211f565b5b905060400201602001356110e3565b8484838181106105a6576105a561211f565b5b9050604002015f01353373ffffffffffffffffffffffffffffffffffffffff167f49995e5dd6158cf69ad3e9777c46755a1a826a446c6416992167462dad033b2a8787868181106105fa576105f961211f565b5b905060400201602001356040516106119190611d3d565b60405180910390a350808060010191505061053c565b50505050565b5f8160025f3373ffffffffffffffffffffffffffffffffffffffff1673ffffffffffffffffffffffffffffffffffffffff1681526020019081526020015f205f8673ffffffffffffffffffffffffffffffffffffffff1673ffffffffffffffffffffffffffffffffffffffff1681526020019081526020015f205f8581526020019081526020015f2081905550828473ffffffffffffffffffffffffffffffffffffffff163373ffffffffffffffffffffffffffffffffffffffff167fb3fd5071835887567a0671151121894ddccc2842f1d10bedad13e0d17cace9a7856040516107189190611d3d565b60405180910390a4600190509392505050565b5f610734610ef9565b90505f8383905090505f5f90505b81811015610785576107788585838181106107605761075f61211f565b5b90506020028101906107729190612158565b84611201565b8080600101915050610742565b5050505050565b5f815f5f3373ffffffffffffffffffffffffffffffffffffffff1673ffffffffffffffffffffffffffffffffffffffff1681526020019081526020015f205f8573ffffffffffffffffffffffffffffffffffffffff1673ffffffffffffffffffffffffffffffffffffffff1681526020019081526020015f205f6101000a81548160ff0219169083151502179055508273ffffffffffffffffffffffffffffffffffffffff163373ffffffffffffffffffffffffffffffffffffffff167fceb576d9f15e4e200fdb5096d64d5dfd667e16def20c1eefd14256d8e3faa267846040516108789190611d15565b60405180910390a36001905092915050565b6003602052805f5260405f205f915090505481565b6002602052825f5260405f20602052815f5260405f20602052805f5260405f205f9250925050505481565b5f5f6108d5856115db565b915091505f8484905090505f5f90505b818110156109285761091b8686838181106109035761090261211f565b5b90506020028101906109159190612158565b85611201565b80806001019150506108e5565b50610933828461160d565b505050505050565b5f815c9050919050565b5f61094e610ef9565b90505f5f61095c8333611004565b915091505f61096d83838888611031565b90508082146109815761098083826110dc565b5b61098c338787610e23565b853373ffffffffffffffffffffffffffffffffffffffff167f4c209b5fc8ad50758f13e2e1088ba56a560dff690a1c6fef26394f4c03821c4f876040516109d39190611d3d565b60405180910390a3505050505050565b6109f7336109f13385610e0e565b836110e3565b813373ffffffffffffffffffffffffffffffffffffffff167f49995e5dd6158cf69ad3e9777c46755a1a826a446c6416992167462dad033b2a83604051610a3e9190611d3d565b60405180910390a35050565b5f602052815f5260405f20602052805f5260405f205f915091509054906101000a900460ff1681565b5f610a7c610ef9565b90505f5f610a8a8333611004565b915091505f8585905090505f5f90505b81811015610b455736878783818110610ab657610ab561211f565b5b90506040020190505f815f013590505f82602001359050610ad98787848461161d565b9550610ae63383836110e3565b813373ffffffffffffffffffffffffffffffffffffffff167f49995e5dd6158cf69ad3e9777c46755a1a826a446c6416992167462dad033b2a83604051610b2d9190611d3d565b60405180910390a35050508080600101915050610a9a565b50610b5083836110dc565b505050505050565b5f610b61610ef9565b90505f5f610b6f8333611004565b915091505f610b808383888861161d565b9050808214610b9457610b9383826110dc565b5b610b9f3387876110e3565b505050505050565b5f8282905090505f5f90505b81811015610c9e575f610be133868685818110610bd357610bd261211f565b5b9050604002015f0135610e0e565b9050610c0a8682878786818110610bfb57610bfa61211f565b5b90506040020160200135610e23565b848483818110610c1d57610c1c61211f565b5b9050604002015f01358673ffffffffffffffffffffffffffffffffffffffff167f4c209b5fc8ad50758f13e2e1088ba56a560dff690a1c6fef26394f4c03821c4f878786818110610c7157610c7061211f565b5b90506040020160200135604051610c889190611d3d565b60405180910390a3508080600101915050610bb3565b5050505050565b5f8473ffffffffffffffffffffffffffffffffffffffff163373ffffffffffffffffffffffffffffffffffffffff1614158015610d6357505f5f8673ffffffffffffffffffffffffffffffffffffffff1673ffffffffffffffffffffffffffffffffffffffff1681526020019081526020015f205f3373ffffffffffffffffffffffffffffffffffffffff1673ffffffffffffffffffffffffffffffffffffffff1681526020019081526020015f205f9054906101000a900460ff16155b15610d7457610d738584846116c8565b5b610d8085858585610d8c565b60019050949350505050565b610d978483836110e3565b610da2838383610e23565b818373ffffffffffffffffffffffffffffffffffffffff168573ffffffffffffffffffffffffffffffffffffffff167f9ed053bb818ff08b8353cd46f78db1f0799f31c9e4458fdb425c10eccd2efc4484604051610e009190611d3d565b60405180910390a450505050565b5f825f52816020526034600c20905092915050565b5f60035f8481526020019081526020015f205490505f7f7fffffffffffffffffffffffffffffffffffffffffffffffffffffffffffffff821683610e6791906121ac565b9050807f800000000000000000000000000000000000000000000000000000000000000083161760035f8681526020019081526020015f2081905550838573ffffffffffffffffffffffffffffffffffffffff167f4c209b5fc8ad50758f13e2e1088ba56a560dff690a1c6fef26394f4c03821c4f85604051610eea9190611d3d565b60405180910390a35050505050565b5f5f5f5f5c6bffffffffffffffffffffffff811691508060601c9250505f8103610f4f576040517f97013e4300000000000000000000000000000000000000000000000000000000815260040160405180910390fd5b600181035f525f602052602c60142092505f73ffffffffffffffffffffffffffffffffffffffff168273ffffffffffffffffffffffffffffffffffffffff1614158015610fc857503373ffffffffffffffffffffffffffffffffffffffff168273ffffffffffffffffffffffffffffffffffffffff1614155b15610fff576040517f1230858900000000000000000000000000000000000000000000000000000000815260040160405180910390fd5b505090565b5f5f6110108484611818565b9150815c90508061102a576001845c0180855d838186015d505b9250929050565b5f825f528460205260405f20805c8060011d84810360028160fe1c14818312176001811461106957600184168260011b17855d6110bb565b600185017f4000000000000000000000000000000000000000000000000000000000000000830160ff1c6002035f60018716156110a557825c90505b818103905080835d8015158560011b17885d5050505b50826110cd5760018801975086888a015d5b50505050839050949350505050565b80825d5050565b5f60035f8481526020019081526020015f205490505f7f7fffffffffffffffffffffffffffffffffffffffffffffffffffffffffffffff8216905082811015611161576040517f08c379a000000000000000000000000000000000000000000000000000000000815260040161115890612239565b60405180910390fd5b5f838261116e9190612257565b9050807f800000000000000000000000000000000000000000000000000000000000000084161760035f8781526020019081526020015f2081905550848673ffffffffffffffffffffffffffffffffffffffff167f49995e5dd6158cf69ad3e9777c46755a1a826a446c6416992167462dad033b2a866040516111f19190611d3d565b60405180910390a3505050505050565b5f826020016020810190611215919061228a565b90505f5f845f01602081019061122b919061228a565b90505f73ffffffffffffffffffffffffffffffffffffffff168173ffffffffffffffffffffffffffffffffffffffff160361126857339050611330565b3373ffffffffffffffffffffffffffffffffffffffff168173ffffffffffffffffffffffffffffffffffffffff161415801561132557505f5f8273ffffffffffffffffffffffffffffffffffffffff1673ffffffffffffffffffffffffffffffffffffffff1681526020019081526020015f205f3373ffffffffffffffffffffffffffffffffffffffff1673ffffffffffffffffffffffffffffffffffffffff1681526020019081526020015f205f9054906101000a900460ff16155b1561132f57600191505b5b5f5f5f5f61133d8961182d565b93509350935093505f5f6113518a88611004565b915091505f5f90505b86518110156113c2576113b3838361138f8d8b868151811061137f5761137e61211f565b5b60200260200101515f0151610e0e565b8a85815181106113a2576113a161211f565b5b60200260200101516020015161161d565b9150808060010191505061135a565b505f5f90505b855181101561144c575f6113f98b8884815181106113e9576113e861211f565b5b60200260200101515f0151610e0e565b90505f87838151811061140f5761140e61211f565b5b60200260200101516020015190508a1561142f5761142e8a83836116c8565b5b61143b85858484611031565b9350505080806001019150506113c8565b508673ffffffffffffffffffffffffffffffffffffffff168973ffffffffffffffffffffffffffffffffffffffff161415801561149657505f845114158061149557505f835114155b5b156115c4575f5f6114a78c8c611004565b915091505f5f90505b8651811015611527575f8782815181106114cd576114cc61211f565b5b60200260200101515f015190505f8883815181106114ee576114ed61211f565b5b60200260200101516020015190506115088787848461161d565b955061151685858484611031565b9350505080806001019150506114b0565b505f5f90505b85518110156115b6575f86828151811061154a5761154961211f565b5b60200260200101515f015190505f87838151811061156b5761156a61211f565b5b60200260200101516020015190508c1561158b5761158a8c83836116c8565b5b61159787878484611031565b95506115a58585848461161d565b93505050808060010191505061152d565b506115c182826110dc565b50505b6115ce82826110dc565b5050505050505050505050565b5f5f5f5c905060016bffffffffffffffffffffffff8216018360601b175f5d805f525f602052602c6014209150915091565b6116168161193f565b815f5d5050565b5f825f528460205260405f20805c8060011d84810160018160fe1c14828212176001811461165557600184168260011b17855d6116a7565b600185017f4000000000000000000000000000000000000000000000000000000000000000830160ff1c6002035f600187161561169157825c90505b818101905080835d8015158560011b17885d5050505b50826116b95760018801975086888a015d5b50505050839050949350505050565b5f60025f8573ffffffffffffffffffffffffffffffffffffffff1673ffffffffffffffffffffffffffffffffffffffff1681526020019081526020015f205f3373ffffffffffffffffffffffffffffffffffffffff1673ffffffffffffffffffffffffffffffffffffffff1681526020019081526020015f205f8481526020019081526020015f205490507fffffffffffffffffffffffffffffffffffffffffffffffffffffffffffffffff81146118125781816117869190612257565b60025f8673ffffffffffffffffffffffffffffffffffffffff1673ffffffffffffffffffffffffffffffffffffffff1681526020019081526020015f205f3373ffffffffffffffffffffffffffffffffffffffff1673ffffffffffffffffffffffffffffffffffffffff1681526020019081526020015f205f8581526020019081526020015f20819055505b50505050565b5f815f52826020526034600c20905092915050565b606080606080846020016020810190611846919061228a565b73ffffffffffffffffffffffffffffffffffffffff1663a129568d86806040019061187191906122b5565b6040518363ffffffff1660e01b815260040161188e929190612371565b5f604051808303815f875af11580156118a9573d5f5f3e3d5ffd5b505050506040513d5f823e3d601f19601f820116820180604052508101906118d19190612530565b809450819550829650839750505050505f5f1b856060013514611938575f6118f7611984565b905080866060013514611936576040517f6f0632bf00000000000000000000000000000000000000000000000000000000815260040160405180910390fd5b505b9193509193565b5f815c90505f8190505f5f90505b8181101561197e575f8160010191508185015c905061197561196f8683611818565b826119cf565b5f855d5061194d565b50505050565b5f6040518060805f833e608082015b808310156119c3578251602081833e815160061b6020820191508082843e80832085525050602083019250611993565b50608081209250505090565b5f6119d983611c03565b90505f5f90505b81811015611bfa575f5f5f8360010193508387015c9250825f528660205260405f209050805c91505f8203611a1757505050611bf5565b5f6001831690508260011d92505f825d8015611bc9575f600183015c90507ffffffffffffffffffffffffffffffffffffffffffffffffffffffffffffffffe8103611aa8575f841215611a96576040517f778214eb00000000000000000000000000000000000000000000000000000000815260040160405180910390fd5b611aa38886865f036110e3565b611bc3565b7fffffffffffffffffffffffffffffffffffffffffffffffffffffffffffffffff8103611b0357611afe88867f8000000000000000000000000000000000000000000000000000000000000000875f03016110e3565b611bc2565b60018103611b3d57611b3888867f80000000000000000000000000000000000000000000000000000000000000008701610e23565b611bc1565b60028103611b8e575f8412611b7e576040517f778214eb00000000000000000000000000000000000000000000000000000000815260040160405180910390fd5b611b89888686610e23565b611bc0565b6040517f778214eb00000000000000000000000000000000000000000000000000000000815260040160405180910390fd5b5b5b5b50611bf0565b5f831215611be357611bde8785855f036110e3565b611bef565b611bee878585610e23565b5b5b505050505b6119e0565b505f835d505050565b5f815c9050919050565b5f604051905090565b5f5ffd5b5f5ffd5b5f73ffffffffffffffffffffffffffffffffffffffff82169050919050565b5f611c4782611c1e565b9050919050565b611c5781611c3d565b8114611c61575f5ffd5b50565b5f81359050611c7281611c4e565b92915050565b5f819050919050565b611c8a81611c78565b8114611c94575f5ffd5b50565b5f81359050611ca581611c81565b92915050565b5f5f5f60608486031215611cc257611cc1611c16565b5b5f611ccf86828701611c64565b9350506020611ce086828701611c97565b9250506040611cf186828701611c97565b9150509250925092565b5f8115159050919050565b611d0f81611cfb565b82525050565b5f602082019050611d285f830184611d06565b92915050565b611d3781611c78565b82525050565b5f602082019050611d505f830184611d2e565b92915050565b5f5ffd5b5f5ffd5b5f5ffd5b5f5f83601f840112611d7757611d76611d56565b5b8235905067ffffffffffffffff811115611d9457611d93611d5a565b5b602083019150836040820283011115611db057611daf611d5e565b5b9250929050565b5f5f60208385031215611dcd57611dcc611c16565b5b5f83013567ffffffffffffffff811115611dea57611de9611c1a565b5b611df685828601611d62565b92509250509250929050565b5f5f83601f840112611e1757611e16611d56565b5b8235905067ffffffffffffffff811115611e3457611e33611d5a565b5b602083019150836020820283011115611e5057611e4f611d5e565b5b9250929050565b5f5f60208385031215611e6d57611e6c611c16565b5b5f83013567ffffffffffffffff811115611e8a57611e89611c1a565b5b611e9685828601611e02565b92509250509250929050565b611eab81611cfb565b8114611eb5575f5ffd5b50565b5f81359050611ec681611ea2565b92915050565b5f5f60408385031215611ee257611ee1611c16565b5b5f611eef85828601611c64565b9250506020611f0085828601611eb8565b9150509250929050565b5f60208284031215611f1f57611f1e611c16565b5b5f611f2c84828501611c97565b91505092915050565b5f5f5f60608486031215611f4c57611f4b611c16565b5b5f611f5986828701611c64565b9350506020611f6a86828701611c64565b9250506040611f7b86828701611c97565b9150509250925092565b5f5f5f60408486031215611f9c57611f9b611c16565b5b5f611fa986828701611c64565b935050602084013567ffffffffffffffff811115611fca57611fc9611c1a565b5b611fd686828701611e02565b92509250509250925092565b5f5f60408385031215611ff857611ff7611c16565b5b5f61200585828601611c97565b925050602061201685828601611c97565b9150509250929050565b5f5f6040838503121561203657612035611c16565b5b5f61204385828601611c64565b925050602061205485828601611c64565b9150509250929050565b5f5f5f6040848603121561207557612074611c16565b5b5f61208286828701611c64565b935050602084013567ffffffffffffffff8111156120a3576120a2611c1a565b5b6120af86828701611d62565b92509250509250925092565b5f5f5f5f608085870312156120d3576120d2611c16565b5b5f6120e087828801611c64565b94505060206120f187828801611c64565b935050604061210287828801611c97565b925050606061211387828801611c97565b91505092959194509250565b7f4e487b71000000000000000000000000000000000000000000000000000000005f52603260045260245ffd5b5f5ffd5b5f5ffd5b5f5ffd5b5f823560016080038336030381126121735761217261214c565b5b80830191505092915050565b7f4e487b71000000000000000000000000000000000000000000000000000000005f52601160045260245ffd5b5f6121b682611c78565b91506121c183611c78565b92508282019050808211156121d9576121d861217f565b5b92915050565b5f82825260208201905092915050565b7f496e73756666696369656e742062616c616e63650000000000000000000000005f82015250565b5f6122236014836121df565b915061222e826121ef565b602082019050919050565b5f6020820190508181035f83015261225081612217565b9050919050565b5f61226182611c78565b915061226c83611c78565b92508282039050818111156122845761228361217f565b5b92915050565b5f6020828403121561229f5761229e611c16565b5b5f6122ac84828501611c64565b91505092915050565b5f5f833560016020038436030381126122d1576122d061214c565b5b80840192508235915067ffffffffffffffff8211156122f3576122f2612150565b5b60208301925060018202360383131561230f5761230e612154565b5b509250929050565b5f82825260208201905092915050565b828183375f83830152505050565b5f601f19601f8301169050919050565b5f6123508385612317565b935061235d838584612327565b61236683612335565b840190509392505050565b5f6020820190508181035f83015261238a818486612345565b90509392505050565b7f4e487b71000000000000000000000000000000000000000000000000000000005f52604160045260245ffd5b6123c982612335565b810181811067ffffffffffffffff821117156123e8576123e7612393565b5b80604052505050565b5f6123fa611c0d565b905061240682826123c0565b919050565b5f67ffffffffffffffff82111561242557612424612393565b5b602082029050602081019050919050565b5f5ffd5b5f8151905061244881611c81565b92915050565b5f6040828403121561246357612462612436565b5b61246d60406123f1565b90505f61247c8482850161243a565b5f83015250602061248f8482850161243a565b60208301525092915050565b5f6124ad6124a88461240b565b6123f1565b905080838252602082019050604084028301858111156124d0576124cf611d5e565b5b835b818110156124f957806124e5888261244e565b8452602084019350506040810190506124d2565b5050509392505050565b5f82601f83011261251757612516611d56565b5b815161252784826020860161249b565b91505092915050565b5f5f5f5f6080858703121561254857612547611c16565b5b5f85015167ffffffffffffffff81111561256557612564611c1a565b5b61257187828801612503565b945050602085015167ffffffffffffffff81111561259257612591611c1a565b5b61259e87828801612503565b935050604085015167ffffffffffffffff8111156125bf576125be611c1a565b5b6125cb87828801612503565b925050606085015167ffffffffffffffff8111156125ec576125eb611c1a565b5b6125f887828801612503565b9150509295919450925056fea26469706673582212202c7333742426137814cbe9bcfa73534928c10e06d5215be1cdaa5abbd097c94364736f6c634300081c0033",
					"opcodes": "PUSH1 0x80 PUSH1 0x40 MSTORE CALLVALUE DUP1 ISZERO PUSH1 0xE JUMPI PUSH0 PUSH0 REVERT JUMPDEST POP PUSH2 0x263A DUP1 PUSH2 0x1C PUSH0 CODECOPY PUSH0 RETURN INVALID PUSH1 0x80 PUSH1 0x40 MSTORE CALLVALUE DUP1 ISZERO PUSH2 0xF JUMPI PUSH0 PUSH0 REVERT JUMPDEST POP PUSH1 0x4 CALLDATASIZE LT PUSH2 0x11F JUMPI PUSH0 CALLDATALOAD PUSH1 0xE0 SHR DUP1 PUSH4 0x598AF9E7 GT PUSH2 0xAB JUMPI DUP1 PUSH4 0xB6363CF2 GT PUSH2 0x6F JUMPI DUP1 PUSH4 0xB6363CF2 EQ PUSH2 0x337 JUMPI DUP1 PUSH4 0xE3033041 EQ PUSH2 0x367 JUMPI DUP1 PUSH4 0xE747F31C EQ PUSH2 0x383 JUMPI DUP1 PUSH4 0xF3178DD1 EQ PUSH2 0x39F JUMPI DUP1 PUSH4 0xFE99049A EQ PUSH2 0x3BB JUMPI PUSH2 0x11F JUMP JUMPDEST DUP1 PUSH4 0x598AF9E7 EQ PUSH2 0x283 JUMPI DUP1 PUSH4 0x62BA62E5 EQ PUSH2 0x2B3 JUMPI DUP1 PUSH4 0xA42BFF86 EQ PUSH2 0x2CF JUMPI DUP1 PUSH4 0xAB7CCC1C EQ PUSH2 0x2FF JUMPI DUP1 PUSH4 0xB390C0AB EQ PUSH2 0x31B JUMPI PUSH2 0x11F JUMP JUMPDEST DUP1 PUSH4 0x36223AC2 GT PUSH2 0xF2 JUMPI DUP1 PUSH4 0x36223AC2 EQ PUSH2 0x1BB JUMPI DUP1 PUSH4 0x426A8493 EQ PUSH2 0x1D7 JUMPI DUP1 PUSH4 0x52D2ACCF EQ PUSH2 0x207 JUMPI DUP1 PUSH4 0x558A7297 EQ PUSH2 0x223 JUMPI DUP1 PUSH4 0x56CBFE3E EQ PUSH2 0x253 JUMPI PUSH2 0x11F JUMP JUMPDEST DUP1 PUSH4 0x95BCDB6 EQ PUSH2 0x123 JUMPI DUP1 PUSH4 0x156E29F6 EQ PUSH2 0x153 JUMPI DUP1 PUSH4 0x2D760D57 EQ PUSH2 0x16F JUMPI DUP1 PUSH4 0x355F580E EQ PUSH2 0x19F JUMPI JUMPDEST PUSH0 PUSH0 REVERT JUMPDEST PUSH2 0x13D PUSH1 0x4 DUP1 CALLDATASIZE SUB DUP2 ADD SWAP1 PUSH2 0x138 SWAP2 SWAP1 PUSH2 0x1CAB JUMP JUMPDEST PUSH2 0x3EB JUMP JUMPDEST PUSH1 0x40 MLOAD PUSH2 0x14A SWAP2 SWAP1 PUSH2 0x1D15 JUMP JUMPDEST PUSH1 0x40 MLOAD DUP1 SWAP2 SUB SWAP1 RETURN JUMPDEST PUSH2 0x16D PUSH1 0x4 DUP1 CALLDATASIZE SUB DUP2 ADD SWAP1 PUSH2 0x168 SWAP2 SWAP1 PUSH2 0x1CAB JUMP JUMPDEST PUSH2 0x403 JUMP JUMPDEST STOP JUMPDEST PUSH2 0x189 PUSH1 0x4 DUP1 CALLDATASIZE SUB DUP2 ADD SWAP1 PUSH2 0x184 SWAP2 SWAP1 PUSH2 0x1CAB JUMP JUMPDEST PUSH2 0x46B JUMP JUMPDEST PUSH1 0x40 MLOAD PUSH2 0x196 SWAP2 SWAP1 PUSH2 0x1D3D JUMP JUMPDEST PUSH1 0x40 MLOAD DUP1 SWAP2 SUB SWAP1 RETURN JUMPDEST PUSH2 0x1B9 PUSH1 0x4 DUP1 CALLDATASIZE SUB DUP2 ADD SWAP1 PUSH2 0x1B4 SWAP2 SWAP1 PUSH2 0x1DB7 JUMP JUMPDEST PUSH2 0x49A JUMP JUMPDEST STOP JUMPDEST PUSH2 0x1D5 PUSH1 0x4 DUP1 CALLDATASIZE SUB DUP2 ADD SWAP1 PUSH2 0x1D0 SWAP2 SWAP1 PUSH2 0x1DB7 JUMP JUMPDEST PUSH2 0x530 JUMP JUMPDEST STOP JUMPDEST PUSH2 0x1F1 PUSH1 0x4 DUP1 CALLDATASIZE SUB DUP2 ADD SWAP1 PUSH2 0x1EC SWAP2 SWAP1 PUSH2 0x1CAB JUMP JUMPDEST PUSH2 0x62D JUMP JUMPDEST PUSH1 0x40 MLOAD PUSH2 0x1FE SWAP2 SWAP1 PUSH2 0x1D15 JUMP JUMPDEST PUSH1 0x40 MLOAD DUP1 SWAP2 SUB SWAP1 RETURN JUMPDEST PUSH2 0x221 PUSH1 0x4 DUP1 CALLDATASIZE SUB DUP2 ADD SWAP1 PUSH2 0x21C SWAP2 SWAP1 PUSH2 0x1E57 JUMP JUMPDEST PUSH2 0x72B JUMP JUMPDEST STOP JUMPDEST PUSH2 0x23D PUSH1 0x4 DUP1 CALLDATASIZE SUB DUP2 ADD SWAP1 PUSH2 0x238 SWAP2 SWAP1 PUSH2 0x1ECC JUMP JUMPDEST PUSH2 0x78C JUMP JUMPDEST PUSH1 0x40 MLOAD PUSH2 0x24A SWAP2 SWAP1 PUSH2 0x1D15 JUMP JUMPDEST PUSH1 0x40 MLOAD DUP1 SWAP2 SUB SWAP1 RETURN JUMPDEST PUSH2 0x26D PUSH1 0x4 DUP1 CALLDATASIZE SUB DUP2 ADD SWAP1 PUSH2 0x268 SWAP2 SWAP1 PUSH2 0x1F0A JUMP JUMPDEST PUSH2 0x88A JUMP JUMPDEST PUSH1 0x40 MLOAD PUSH2 0x27A SWAP2 SWAP1 PUSH2 0x1D3D JUMP JUMPDEST PUSH1 0x40 MLOAD DUP1 SWAP2 SUB SWAP1 RETURN JUMPDEST PUSH2 0x29D PUSH1 0x4 DUP1 CALLDATASIZE SUB DUP2 ADD SWAP1 PUSH2 0x298 SWAP2 SWAP1 PUSH2 0x1F35 JUMP JUMPDEST PUSH2 0x89F JUMP JUMPDEST PUSH1 0x40 MLOAD PUSH2 0x2AA SWAP2 SWAP1 PUSH2 0x1D3D JUMP JUMPDEST PUSH1 0x40 MLOAD DUP1 SWAP2 SUB SWAP1 RETURN JUMPDEST PUSH2 0x2CD PUSH1 0x4 DUP1 CALLDATASIZE SUB DUP2 ADD SWAP1 PUSH2 0x2C8 SWAP2 SWAP1 PUSH2 0x1F85 JUMP JUMPDEST PUSH2 0x8CA JUMP JUMPDEST STOP JUMPDEST PUSH2 0x2E9 PUSH1 0x4 DUP1 CALLDATASIZE SUB DUP2 ADD SWAP1 PUSH2 0x2E4 SWAP2 SWAP1 PUSH2 0x1F0A JUMP JUMPDEST PUSH2 0x93B JUMP JUMPDEST PUSH1 0x40 MLOAD PUSH2 0x2F6 SWAP2 SWAP1 PUSH2 0x1D3D JUMP JUMPDEST PUSH1 0x40 MLOAD DUP1 SWAP2 SUB SWAP1 RETURN JUMPDEST PUSH2 0x319 PUSH1 0x4 DUP1 CALLDATASIZE SUB DUP2 ADD SWAP1 PUSH2 0x314 SWAP2 SWAP1 PUSH2 0x1FE2 JUMP JUMPDEST PUSH2 0x945 JUMP JUMPDEST STOP JUMPDEST PUSH2 0x335 PUSH1 0x4 DUP1 CALLDATASIZE SUB DUP2 ADD SWAP1 PUSH2 0x330 SWAP2 SWAP1 PUSH2 0x1FE2 JUMP JUMPDEST PUSH2 0x9E3 JUMP JUMPDEST STOP JUMPDEST PUSH2 0x351 PUSH1 0x4 DUP1 CALLDATASIZE SUB DUP2 ADD SWAP1 PUSH2 0x34C SWAP2 SWAP1 PUSH2 0x2020 JUMP JUMPDEST PUSH2 0xA4A JUMP JUMPDEST PUSH1 0x40 MLOAD PUSH2 0x35E SWAP2 SWAP1 PUSH2 0x1D15 JUMP JUMPDEST PUSH1 0x40 MLOAD DUP1 SWAP2 SUB SWAP1 RETURN JUMPDEST PUSH2 0x381 PUSH1 0x4 DUP1 CALLDATASIZE SUB DUP2 ADD SWAP1 PUSH2 0x37C SWAP2 SWAP1 PUSH2 0x1DB7 JUMP JUMPDEST PUSH2 0xA73 JUMP JUMPDEST STOP JUMPDEST PUSH2 0x39D PUSH1 0x4 DUP1 CALLDATASIZE SUB DUP2 ADD SWAP1 PUSH2 0x398 SWAP2 SWAP1 PUSH2 0x1FE2 JUMP JUMPDEST PUSH2 0xB58 JUMP JUMPDEST STOP JUMPDEST PUSH2 0x3B9 PUSH1 0x4 DUP1 CALLDATASIZE SUB DUP2 ADD SWAP1 PUSH2 0x3B4 SWAP2 SWAP1 PUSH2 0x205E JUMP JUMPDEST PUSH2 0xBA7 JUMP JUMPDEST STOP JUMPDEST PUSH2 0x3D5 PUSH1 0x4 DUP1 CALLDATASIZE SUB DUP2 ADD SWAP1 PUSH2 0x3D0 SWAP2 SWAP1 PUSH2 0x20BB JUMP JUMPDEST PUSH2 0xCA5 JUMP JUMPDEST PUSH1 0x40 MLOAD PUSH2 0x3E2 SWAP2 SWAP1 PUSH2 0x1D15 JUMP JUMPDEST PUSH1 0x40 MLOAD DUP1 SWAP2 SUB SWAP1 RETURN JUMPDEST PUSH0 PUSH2 0x3F8 CALLER DUP6 DUP6 DUP6 PUSH2 0xD8C JUMP JUMPDEST PUSH1 0x1 SWAP1 POP SWAP4 SWAP3 POP POP POP JUMP JUMPDEST PUSH2 0x417 DUP4 PUSH2 0x411 CALLER DUP6 PUSH2 0xE0E JUMP JUMPDEST DUP4 PUSH2 0xE23 JUMP JUMPDEST DUP2 DUP4 PUSH20 0xFFFFFFFFFFFFFFFFFFFFFFFFFFFFFFFFFFFFFFFF AND PUSH32 0x4C209B5FC8AD50758F13E2E1088BA56A560DFF690A1C6FEF26394F4C03821C4F DUP4 PUSH1 0x40 MLOAD PUSH2 0x45E SWAP2 SWAP1 PUSH2 0x1D3D JUMP JUMPDEST PUSH1 0x40 MLOAD DUP1 SWAP2 SUB SWAP1 LOG3 POP POP POP JUMP JUMPDEST PUSH1 0x1 PUSH1 0x20 MSTORE DUP3 PUSH0 MSTORE PUSH1 0x40 PUSH0 KECCAK256 PUSH1 0x20 MSTORE DUP2 PUSH0 MSTORE PUSH1 0x40 PUSH0 KECCAK256 DUP2 PUSH1 0x2 DUP2 LT PUSH2 0x48E JUMPI PUSH0 DUP1 REVERT JUMPDEST ADD PUSH0 SWAP3 POP SWAP3 POP POP POP SLOAD DUP2 JUMP JUMPDEST PUSH0 PUSH2 0x4A3 PUSH2 0xEF9 JUMP JUMPDEST SWAP1 POP PUSH0 PUSH0 PUSH2 0x4B1 DUP4 CALLER PUSH2 0x1004 JUMP JUMPDEST SWAP2 POP SWAP2 POP PUSH0 DUP6 DUP6 SWAP1 POP SWAP1 POP PUSH0 PUSH0 SWAP1 POP JUMPDEST DUP2 DUP2 LT ISZERO PUSH2 0x51D JUMPI CALLDATASIZE DUP8 DUP8 DUP4 DUP2 DUP2 LT PUSH2 0x4DD JUMPI PUSH2 0x4DC PUSH2 0x211F JUMP JUMPDEST JUMPDEST SWAP1 POP PUSH1 0x40 MUL ADD SWAP1 POP PUSH0 DUP2 PUSH0 ADD CALLDATALOAD SWAP1 POP PUSH0 DUP3 PUSH1 0x20 ADD CALLDATALOAD SWAP1 POP PUSH2 0x500 DUP8 DUP8 DUP5 DUP5 PUSH2 0x1031 JUMP JUMPDEST SWAP6 POP PUSH2 0x50D CALLER DUP4 DUP4 PUSH2 0xE23 JUMP JUMPDEST POP POP POP DUP1 DUP1 PUSH1 0x1 ADD SWAP2 POP POP PUSH2 0x4C1 JUMP JUMPDEST POP PUSH2 0x528 DUP4 DUP4 PUSH2 0x10DC JUMP JUMPDEST POP POP POP POP POP POP JUMP JUMPDEST PUSH0 DUP3 DUP3 SWAP1 POP SWAP1 POP PUSH0 PUSH0 SWAP1 POP JUMPDEST DUP2 DUP2 LT ISZERO PUSH2 0x627 JUMPI PUSH0 PUSH2 0x56A CALLER DUP7 DUP7 DUP6 DUP2 DUP2 LT PUSH2 0x55C JUMPI PUSH2 0x55B PUSH2 0x211F JUMP JUMPDEST JUMPDEST SWAP1 POP PUSH1 0x40 MUL ADD PUSH0 ADD CALLDATALOAD PUSH2 0xE0E JUMP JUMPDEST SWAP1 POP PUSH2 0x593 CALLER DUP3 DUP8 DUP8 DUP7 DUP2 DUP2 LT PUSH2 0x584 JUMPI PUSH2 0x583 PUSH2 0x211F JUMP JUMPDEST JUMPDEST SWAP1 POP PUSH1 0x40 MUL ADD PUSH1 0x20 ADD CALLDATALOAD PUSH2 0x10E3 JUMP JUMPDEST DUP5 DUP5 DUP4 DUP2 DUP2 LT PUSH2 0x5A6 JUMPI PUSH2 0x5A5 PUSH2 0x211F JUMP JUMPDEST JUMPDEST SWAP1 POP PUSH1 0x40 MUL ADD PUSH0 ADD CALLDATALOAD CALLER PUSH20 0xFFFFFFFFFFFFFFFFFFFFFFFFFFFFFFFFFFFFFFFF AND PUSH32 0x49995E5DD6158CF69AD3E9777C46755A1A826A446C6416992167462DAD033B2A DUP8 DUP8 DUP7 DUP2 DUP2 LT PUSH2 0x5FA JUMPI PUSH2 0x5F9 PUSH2 0x211F JUMP JUMPDEST JUMPDEST SWAP1 POP PUSH1 0x40 MUL ADD PUSH1 0x20 ADD CALLDATALOAD PUSH1 0x40 MLOAD PUSH2 0x611 SWAP2 SWAP1 PUSH2 0x1D3D JUMP JUMPDEST PUSH1 0x40 MLOAD DUP1 SWAP2 SUB SWAP1 LOG3 POP DUP1 DUP1 PUSH1 0x1 ADD SWAP2 POP POP PUSH2 0x53C JUMP JUMPDEST POP POP POP POP JUMP JUMPDEST PUSH0 DUP2 PUSH1 0x2 PUSH0 CALLER PUSH20 0xFFFFFFFFFFFFFFFFFFFFFFFFFFFFFFFFFFFFFFFF AND PUSH20 0xFFFFFFFFFFFFFFFFFFFFFFFFFFFFFFFFFFFFFFFF AND DUP2 MSTORE PUSH1 0x20 ADD SWAP1 DUP2 MSTORE PUSH1 0x20 ADD PUSH0 KECCAK256 PUSH0 DUP7 PUSH20 0xFFFFFFFFFFFFFFFFFFFFFFFFFFFFFFFFFFFFFFFF AND PUSH20 0xFFFFFFFFFFFFFFFFFFFFFFFFFFFFFFFFFFFFFFFF AND DUP2 MSTORE PUSH1 0x20 ADD SWAP1 DUP2 MSTORE PUSH1 0x20 ADD PUSH0 KECCAK256 PUSH0 DUP6 DUP2 MSTORE PUSH1 0x20 ADD SWAP1 DUP2 MSTORE PUSH1 0x20 ADD PUSH0 KECCAK256 DUP2 SWAP1 SSTORE POP DUP3 DUP5 PUSH20 0xFFFFFFFFFFFFFFFFFFFFFFFFFFFFFFFFFFFFFFFF AND CALLER PUSH20 0xFFFFFFFFFFFFFFFFFFFFFFFFFFFFFFFFFFFFFFFF AND PUSH32 0xB3FD5071835887567A0671151121894DDCCC2842F1D10BEDAD13E0D17CACE9A7 DUP6 PUSH1 0x40 MLOAD PUSH2 0x718 SWAP2 SWAP1 PUSH2 0x1D3D JUMP JUMPDEST PUSH1 0x40 MLOAD DUP1 SWAP2 SUB SWAP1 LOG4 PUSH1 0x1 SWAP1 POP SWAP4 SWAP3 POP POP POP JUMP JUMPDEST PUSH0 PUSH2 0x734 PUSH2 0xEF9 JUMP JUMPDEST SWAP1 POP PUSH0 DUP4 DUP4 SWAP1 POP SWAP1 POP PUSH0 PUSH0 SWAP1 POP JUMPDEST DUP2 DUP2 LT ISZERO PUSH2 0x785 JUMPI PUSH2 0x778 DUP6 DUP6 DUP4 DUP2 DUP2 LT PUSH2 0x760 JUMPI PUSH2 0x75F PUSH2 0x211F JUMP JUMPDEST JUMPDEST SWAP1 POP PUSH1 0x20 MUL DUP2 ADD SWAP1 PUSH2 0x772 SWAP2 SWAP1 PUSH2 0x2158 JUMP JUMPDEST DUP5 PUSH2 0x1201 JUMP JUMPDEST DUP1 DUP1 PUSH1 0x1 ADD SWAP2 POP POP PUSH2 0x742 JUMP JUMPDEST POP POP POP POP POP JUMP JUMPDEST PUSH0 DUP2 PUSH0 PUSH0 CALLER PUSH20 0xFFFFFFFFFFFFFFFFFFFFFFFFFFFFFFFFFFFFFFFF AND PUSH20 0xFFFFFFFFFFFFFFFFFFFFFFFFFFFFFFFFFFFFFFFF AND DUP2 MSTORE PUSH1 0x20 ADD SWAP1 DUP2 MSTORE PUSH1 0x20 ADD PUSH0 KECCAK256 PUSH0 DUP6 PUSH20 0xFFFFFFFFFFFFFFFFFFFFFFFFFFFFFFFFFFFFFFFF AND PUSH20 0xFFFFFFFFFFFFFFFFFFFFFFFFFFFFFFFFFFFFFFFF AND DUP2 MSTORE PUSH1 0x20 ADD SWAP1 DUP2 MSTORE PUSH1 0x20 ADD PUSH0 KECCAK256 PUSH0 PUSH2 0x100 EXP DUP2 SLOAD DUP2 PUSH1 0xFF MUL NOT AND SWAP1 DUP4 ISZERO ISZERO MUL OR SWAP1 SSTORE POP DUP3 PUSH20 0xFFFFFFFFFFFFFFFFFFFFFFFFFFFFFFFFFFFFFFFF AND CALLER PUSH20 0xFFFFFFFFFFFFFFFFFFFFFFFFFFFFFFFFFFFFFFFF AND PUSH32 0xCEB576D9F15E4E200FDB5096D64D5DFD667E16DEF20C1EEFD14256D8E3FAA267 DUP5 PUSH1 0x40 MLOAD PUSH2 0x878 SWAP2 SWAP1 PUSH2 0x1D15 JUMP JUMPDEST PUSH1 0x40 MLOAD DUP1 SWAP2 SUB SWAP1 LOG3 PUSH1 0x1 SWAP1 POP SWAP3 SWAP2 POP POP JUMP JUMPDEST PUSH1 0x3 PUSH1 0x20 MSTORE DUP1 PUSH0 MSTORE PUSH1 0x40 PUSH0 KECCAK256 PUSH0 SWAP2 POP SWAP1 POP SLOAD DUP2 JUMP JUMPDEST PUSH1 0x2 PUSH1 0x20 MSTORE DUP3 PUSH0 MSTORE PUSH1 0x40 PUSH0 KECCAK256 PUSH1 0x20 MSTORE DUP2 PUSH0 MSTORE PUSH1 0x40 PUSH0 KECCAK256 PUSH1 0x20 MSTORE DUP1 PUSH0 MSTORE PUSH1 0x40 PUSH0 KECCAK256 PUSH0 SWAP3 POP SWAP3 POP POP POP SLOAD DUP2 JUMP JUMPDEST PUSH0 PUSH0 PUSH2 0x8D5 DUP6 PUSH2 0x15DB JUMP JUMPDEST SWAP2 POP SWAP2 POP PUSH0 DUP5 DUP5 SWAP1 POP SWAP1 POP PUSH0 PUSH0 SWAP1 POP JUMPDEST DUP2 DUP2 LT ISZERO PUSH2 0x928 JUMPI PUSH2 0x91B DUP7 DUP7 DUP4 DUP2 DUP2 LT PUSH2 0x903 JUMPI PUSH2 0x902 PUSH2 0x211F JUMP JUMPDEST JUMPDEST SWAP1 POP PUSH1 0x20 MUL DUP2 ADD SWAP1 PUSH2 0x915 SWAP2 SWAP1 PUSH2 0x2158 JUMP JUMPDEST DUP6 PUSH2 0x1201 JUMP JUMPDEST DUP1 DUP1 PUSH1 0x1 ADD SWAP2 POP POP PUSH2 0x8E5 JUMP JUMPDEST POP PUSH2 0x933 DUP3 DUP5 PUSH2 0x160D JUMP JUMPDEST POP POP POP POP POP POP JUMP JUMPDEST PUSH0 DUP2 TLOAD SWAP1 POP SWAP2 SWAP1 POP JUMP JUMPDEST PUSH0 PUSH2 0x94E PUSH2 0xEF9 JUMP JUMPDEST SWAP1 POP PUSH0 PUSH0 PUSH2 0x95C DUP4 CALLER PUSH2 0x1004 JUMP JUMPDEST SWAP2 POP SWAP2 POP PUSH0 PUSH2 0x96D DUP4 DUP4 DUP9 DUP9 PUSH2 0x1031 JUMP JUMPDEST SWAP1 POP DUP1 DUP3 EQ PUSH2 0x981 JUMPI PUSH2 0x980 DUP4 DUP3 PUSH2 0x10DC JUMP JUMPDEST JUMPDEST PUSH2 0x98C CALLER DUP8 DUP8 PUSH2 0xE23 JUMP JUMPDEST DUP6 CALLER PUSH20 0xFFFFFFFFFFFFFFFFFFFFFFFFFFFFFFFFFFFFFFFF AND PUSH32 0x4C209B5FC8AD50758F13E2E1088BA56A560DFF690A1C6FEF26394F4C03821C4F DUP8 PUSH1 0x40 MLOAD PUSH2 0x9D3 SWAP2 SWAP1 PUSH2 0x1D3D JUMP JUMPDEST PUSH1 0x40 MLOAD DUP1 SWAP2 SUB SWAP1 LOG3 POP POP POP POP POP POP JUMP JUMPDEST PUSH2 0x9F7 CALLER PUSH2 0x9F1 CALLER DUP6 PUSH2 0xE0E JUMP JUMPDEST DUP4 PUSH2 0x10E3 JUMP JUMPDEST DUP2 CALLER PUSH20 0xFFFFFFFFFFFFFFFFFFFFFFFFFFFFFFFFFFFFFFFF AND PUSH32 0x49995E5DD6158CF69AD3E9777C46755A1A826A446C6416992167462DAD033B2A DUP4 PUSH1 0x40 MLOAD PUSH2 0xA3E SWAP2 SWAP1 PUSH2 0x1D3D JUMP JUMPDEST PUSH1 0x40 MLOAD DUP1 SWAP2 SUB SWAP1 LOG3 POP POP JUMP JUMPDEST PUSH0 PUSH1 0x20 MSTORE DUP2 PUSH0 MSTORE PUSH1 0x40 PUSH0 KECCAK256 PUSH1 0x20 MSTORE DUP1 PUSH0 MSTORE PUSH1 0x40 PUSH0 KECCAK256 PUSH0 SWAP2 POP SWAP2 POP SWAP1 SLOAD SWAP1 PUSH2 0x100 EXP SWAP1 DIV PUSH1 0xFF AND DUP2 JUMP JUMPDEST PUSH0 PUSH2 0xA7C PUSH2 0xEF9 JUMP JUMPDEST SWAP1 POP PUSH0 PUSH0 PUSH2 0xA8A DUP4 CALLER PUSH2 0x1004 JUMP JUMPDEST SWAP2 POP SWAP2 POP PUSH0 DUP6 DUP6 SWAP1 POP SWAP1 POP PUSH0 PUSH0 SWAP1 POP JUMPDEST DUP2 DUP2 LT ISZERO PUSH2 0xB45 JUMPI CALLDATASIZE DUP8 DUP8 DUP4 DUP2 DUP2 LT PUSH2 0xAB6 JUMPI PUSH2 0xAB5 PUSH2 0x211F JUMP JUMPDEST JUMPDEST SWAP1 POP PUSH1 0x40 MUL ADD SWAP1 POP PUSH0 DUP2 PUSH0 ADD CALLDATALOAD SWAP1 POP PUSH0 DUP3 PUSH1 0x20 ADD CALLDATALOAD SWAP1 POP PUSH2 0xAD9 DUP8 DUP8 DUP5 DUP5 PUSH2 0x161D JUMP JUMPDEST SWAP6 POP PUSH2 0xAE6 CALLER DUP4 DUP4 PUSH2 0x10E3 JUMP JUMPDEST DUP2 CALLER PUSH20 0xFFFFFFFFFFFFFFFFFFFFFFFFFFFFFFFFFFFFFFFF AND PUSH32 0x49995E5DD6158CF69AD3E9777C46755A1A826A446C6416992167462DAD033B2A DUP4 PUSH1 0x40 MLOAD PUSH2 0xB2D SWAP2 SWAP1 PUSH2 0x1D3D JUMP JUMPDEST PUSH1 0x40 MLOAD DUP1 SWAP2 SUB SWAP1 LOG3 POP POP POP DUP1 DUP1 PUSH1 0x1 ADD SWAP2 POP POP PUSH2 0xA9A JUMP JUMPDEST POP PUSH2 0xB50 DUP4 DUP4 PUSH2 0x10DC JUMP JUMPDEST POP POP POP POP POP POP JUMP JUMPDEST PUSH0 PUSH2 0xB61 PUSH2 0xEF9 JUMP JUMPDEST SWAP1 POP PUSH0 PUSH0 PUSH2 0xB6F DUP4 CALLER PUSH2 0x1004 JUMP JUMPDEST SWAP2 POP SWAP2 POP PUSH0 PUSH2 0xB80 DUP4 DUP4 DUP9 DUP9 PUSH2 0x161D JUMP JUMPDEST SWAP1 POP DUP1 DUP3 EQ PUSH2 0xB94 JUMPI PUSH2 0xB93 DUP4 DUP3 PUSH2 0x10DC JUMP JUMPDEST JUMPDEST PUSH2 0xB9F CALLER DUP8 DUP8 PUSH2 0x10E3 JUMP JUMPDEST POP POP POP POP POP POP JUMP JUMPDEST PUSH0 DUP3 DUP3 SWAP1 POP SWAP1 POP PUSH0 PUSH0 SWAP1 POP JUMPDEST DUP2 DUP2 LT ISZERO PUSH2 0xC9E JUMPI PUSH0 PUSH2 0xBE1 CALLER DUP7 DUP7 DUP6 DUP2 DUP2 LT PUSH2 0xBD3 JUMPI PUSH2 0xBD2 PUSH2 0x211F JUMP JUMPDEST JUMPDEST SWAP1 POP PUSH1 0x40 MUL ADD PUSH0 ADD CALLDATALOAD PUSH2 0xE0E JUMP JUMPDEST SWAP1 POP PUSH2 0xC0A DUP7 DUP3 DUP8 DUP8 DUP7 DUP2 DUP2 LT PUSH2 0xBFB JUMPI PUSH2 0xBFA PUSH2 0x211F JUMP JUMPDEST JUMPDEST SWAP1 POP PUSH1 0x40 MUL ADD PUSH1 0x20 ADD CALLDATALOAD PUSH2 0xE23 JUMP JUMPDEST DUP5 DUP5 DUP4 DUP2 DUP2 LT PUSH2 0xC1D JUMPI PUSH2 0xC1C PUSH2 0x211F JUMP JUMPDEST JUMPDEST SWAP1 POP PUSH1 0x40 MUL ADD PUSH0 ADD CALLDATALOAD DUP7 PUSH20 0xFFFFFFFFFFFFFFFFFFFFFFFFFFFFFFFFFFFFFFFF AND PUSH32 0x4C209B5FC8AD50758F13E2E1088BA56A560DFF690A1C6FEF26394F4C03821C4F DUP8 DUP8 DUP7 DUP2 DUP2 LT PUSH2 0xC71 JUMPI PUSH2 0xC70 PUSH2 0x211F JUMP JUMPDEST JUMPDEST SWAP1 POP PUSH1 0x40 MUL ADD PUSH1 0x20 ADD CALLDATALOAD PUSH1 0x40 MLOAD PUSH2 0xC88 SWAP2 SWAP1 PUSH2 0x1D3D JUMP JUMPDEST PUSH1 0x40 MLOAD DUP1 SWAP2 SUB SWAP1 LOG3 POP DUP1 DUP1 PUSH1 0x1 ADD SWAP2 POP POP PUSH2 0xBB3 JUMP JUMPDEST POP POP POP POP POP JUMP JUMPDEST PUSH0 DUP5 PUSH20 0xFFFFFFFFFFFFFFFFFFFFFFFFFFFFFFFFFFFFFFFF AND CALLER PUSH20 0xFFFFFFFFFFFFFFFFFFFFFFFFFFFFFFFFFFFFFFFF AND EQ ISZERO DUP1 ISZERO PUSH2 0xD63 JUMPI POP PUSH0 PUSH0 DUP7 PUSH20 0xFFFFFFFFFFFFFFFFFFFFFFFFFFFFFFFFFFFFFFFF AND PUSH20 0xFFFFFFFFFFFFFFFFFFFFFFFFFFFFFFFFFFFFFFFF AND DUP2 MSTORE PUSH1 0x20 ADD SWAP1 DUP2 MSTORE PUSH1 0x20 ADD PUSH0 KECCAK256 PUSH0 CALLER PUSH20 0xFFFFFFFFFFFFFFFFFFFFFFFFFFFFFFFFFFFFFFFF AND PUSH20 0xFFFFFFFFFFFFFFFFFFFFFFFFFFFFFFFFFFFFFFFF AND DUP2 MSTORE PUSH1 0x20 ADD SWAP1 DUP2 MSTORE PUSH1 0x20 ADD PUSH0 KECCAK256 PUSH0 SWAP1 SLOAD SWAP1 PUSH2 0x100 EXP SWAP1 DIV PUSH1 0xFF AND ISZERO JUMPDEST ISZERO PUSH2 0xD74 JUMPI PUSH2 0xD73 DUP6 DUP5 DUP5 PUSH2 0x16C8 JUMP JUMPDEST JUMPDEST PUSH2 0xD80 DUP6 DUP6 DUP6 DUP6 PUSH2 0xD8C JUMP JUMPDEST PUSH1 0x1 SWAP1 POP SWAP5 SWAP4 POP POP POP POP JUMP JUMPDEST PUSH2 0xD97 DUP5 DUP4 DUP4 PUSH2 0x10E3 JUMP JUMPDEST PUSH2 0xDA2 DUP4 DUP4 DUP4 PUSH2 0xE23 JUMP JUMPDEST DUP2 DUP4 PUSH20 0xFFFFFFFFFFFFFFFFFFFFFFFFFFFFFFFFFFFFFFFF AND DUP6 PUSH20 0xFFFFFFFFFFFFFFFFFFFFFFFFFFFFFFFFFFFFFFFF AND PUSH32 0x9ED053BB818FF08B8353CD46F78DB1F0799F31C9E4458FDB425C10ECCD2EFC44 DUP5 PUSH1 0x40 MLOAD PUSH2 0xE00 SWAP2 SWAP1 PUSH2 0x1D3D JUMP JUMPDEST PUSH1 0x40 MLOAD DUP1 SWAP2 SUB SWAP1 LOG4 POP POP POP POP JUMP JUMPDEST PUSH0 DUP3 PUSH0 MSTORE DUP2 PUSH1 0x20 MSTORE PUSH1 0x34 PUSH1 0xC KECCAK256 SWAP1 POP SWAP3 SWAP2 POP POP JUMP JUMPDEST PUSH0 PUSH1 0x3 PUSH0 DUP5 DUP2 MSTORE PUSH1 0x20 ADD SWAP1 DUP2 MSTORE PUSH1 0x20 ADD PUSH0 KECCAK256 SLOAD SWAP1 POP PUSH0 PUSH32 0x7FFFFFFFFFFFFFFFFFFFFFFFFFFFFFFFFFFFFFFFFFFFFFFFFFFFFFFFFFFFFFFF DUP3 AND DUP4 PUSH2 0xE67 SWAP2 SWAP1 PUSH2 0x21AC JUMP JUMPDEST SWAP1 POP DUP1 PUSH32 0x8000000000000000000000000000000000000000000000000000000000000000 DUP4 AND OR PUSH1 0x3 PUSH0 DUP7 DUP2 MSTORE PUSH1 0x20 ADD SWAP1 DUP2 MSTORE PUSH1 0x20 ADD PUSH0 KECCAK256 DUP2 SWAP1 SSTORE POP DUP4 DUP6 PUSH20 0xFFFFFFFFFFFFFFFFFFFFFFFFFFFFFFFFFFFFFFFF AND PUSH32 0x4C209B5FC8AD50758F13E2E1088BA56A560DFF690A1C6FEF26394F4C03821C4F DUP6 PUSH1 0x40 MLOAD PUSH2 0xEEA SWAP2 SWAP1 PUSH2 0x1D3D JUMP JUMPDEST PUSH1 0x40 MLOAD DUP1 SWAP2 SUB SWAP1 LOG3 POP POP POP POP POP JUMP JUMPDEST PUSH0 PUSH0 PUSH0 PUSH0 TLOAD PUSH12 0xFFFFFFFFFFFFFFFFFFFFFFFF DUP2 AND SWAP2 POP DUP1 PUSH1 0x60 SHR SWAP3 POP POP PUSH0 DUP2 SUB PUSH2 0xF4F JUMPI PUSH1 0x40 MLOAD PUSH32 0x97013E4300000000000000000000000000000000000000000000000000000000 DUP2 MSTORE PUSH1 0x4 ADD PUSH1 0x40 MLOAD DUP1 SWAP2 SUB SWAP1 REVERT JUMPDEST PUSH1 0x1 DUP2 SUB PUSH0 MSTORE PUSH0 PUSH1 0x20 MSTORE PUSH1 0x2C PUSH1 0x14 KECCAK256 SWAP3 POP PUSH0 PUSH20 0xFFFFFFFFFFFFFFFFFFFFFFFFFFFFFFFFFFFFFFFF AND DUP3 PUSH20 0xFFFFFFFFFFFFFFFFFFFFFFFFFFFFFFFFFFFFFFFF AND EQ ISZERO DUP1 ISZERO PUSH2 0xFC8 JUMPI POP CALLER PUSH20 0xFFFFFFFFFFFFFFFFFFFFFFFFFFFFFFFFFFFFFFFF AND DUP3 PUSH20 0xFFFFFFFFFFFFFFFFFFFFFFFFFFFFFFFFFFFFFFFF AND EQ ISZERO JUMPDEST ISZERO PUSH2 0xFFF JUMPI PUSH1 0x40 MLOAD PUSH32 0x1230858900000000000000000000000000000000000000000000000000000000 DUP2 MSTORE PUSH1 0x4 ADD PUSH1 0x40 MLOAD DUP1 SWAP2 SUB SWAP1 REVERT JUMPDEST POP POP SWAP1 JUMP JUMPDEST PUSH0 PUSH0 PUSH2 0x1010 DUP5 DUP5 PUSH2 0x1818 JUMP JUMPDEST SWAP2 POP DUP2 TLOAD SWAP1 POP DUP1 PUSH2 0x102A JUMPI PUSH1 0x1 DUP5 TLOAD ADD DUP1 DUP6 TSTORE DUP4 DUP2 DUP7 ADD TSTORE POP JUMPDEST SWAP3 POP SWAP3 SWAP1 POP JUMP JUMPDEST PUSH0 DUP3 PUSH0 MSTORE DUP5 PUSH1 0x20 MSTORE PUSH1 0x40 PUSH0 KECCAK256 DUP1 TLOAD DUP1 PUSH1 0x1 SAR DUP5 DUP2 SUB PUSH1 0x2 DUP2 PUSH1 0xFE SHR EQ DUP2 DUP4 SLT OR PUSH1 0x1 DUP2 EQ PUSH2 0x1069 JUMPI PUSH1 0x1 DUP5 AND DUP3 PUSH1 0x1 SHL OR DUP6 TSTORE PUSH2 0x10BB JUMP JUMPDEST PUSH1 0x1 DUP6 ADD PUSH32 0x4000000000000000000000000000000000000000000000000000000000000000 DUP4 ADD PUSH1 0xFF SHR PUSH1 0x2 SUB PUSH0 PUSH1 0x1 DUP8 AND ISZERO PUSH2 0x10A5 JUMPI DUP3 TLOAD SWAP1 POP JUMPDEST DUP2 DUP2 SUB SWAP1 POP DUP1 DUP4 TSTORE DUP1 ISZERO ISZERO DUP6 PUSH1 0x1 SHL OR DUP9 TSTORE POP POP POP JUMPDEST POP DUP3 PUSH2 0x10CD JUMPI PUSH1 0x1 DUP9 ADD SWAP8 POP DUP7 DUP9 DUP11 ADD TSTORE JUMPDEST POP POP POP POP DUP4 SWAP1 POP SWAP5 SWAP4 POP POP POP POP JUMP JUMPDEST DUP1 DUP3 TSTORE POP POP JUMP JUMPDEST PUSH0 PUSH1 0x3 PUSH0 DUP5 DUP2 MSTORE PUSH1 0x20 ADD SWAP1 DUP2 MSTORE PUSH1 0x20 ADD PUSH0 KECCAK256 SLOAD SWAP1 POP PUSH0 PUSH32 0x7FFFFFFFFFFFFFFFFFFFFFFFFFFFFFFFFFFFFFFFFFFFFFFFFFFFFFFFFFFFFFFF DUP3 AND SWAP1 POP DUP3 DUP2 LT ISZERO PUSH2 0x1161 JUMPI PUSH1 0x40 MLOAD PUSH32 0x8C379A000000000000000000000000000000000000000000000000000000000 DUP2 MSTORE PUSH1 0x4 ADD PUSH2 0x1158 SWAP1 PUSH2 0x2239 JUMP JUMPDEST PUSH1 0x40 MLOAD DUP1 SWAP2 SUB SWAP1 REVERT JUMPDEST PUSH0 DUP4 DUP3 PUSH2 0x116E SWAP2 SWAP1 PUSH2 0x2257 JUMP JUMPDEST SWAP1 POP DUP1 PUSH32 0x8000000000000000000000000000000000000000000000000000000000000000 DUP5 AND OR PUSH1 0x3 PUSH0 DUP8 DUP2 MSTORE PUSH1 0x20 ADD SWAP1 DUP2 MSTORE PUSH1 0x20 ADD PUSH0 KECCAK256 DUP2 SWAP1 SSTORE POP DUP5 DUP7 PUSH20 0xFFFFFFFFFFFFFFFFFFFFFFFFFFFFFFFFFFFFFFFF AND PUSH32 0x49995E5DD6158CF69AD3E9777C46755A1A826A446C6416992167462DAD033B2A DUP7 PUSH1 0x40 MLOAD PUSH2 0x11F1 SWAP2 SWAP1 PUSH2 0x1D3D JUMP JUMPDEST PUSH1 0x40 MLOAD DUP1 SWAP2 SUB SWAP1 LOG3 POP POP POP POP POP POP JUMP JUMPDEST PUSH0 DUP3 PUSH1 0x20 ADD PUSH1 0x20 DUP2 ADD SWAP1 PUSH2 0x1215 SWAP2 SWAP1 PUSH2 0x228A JUMP JUMPDEST SWAP1 POP PUSH0 PUSH0 DUP5 PUSH0 ADD PUSH1 0x20 DUP2 ADD SWAP1 PUSH2 0x122B SWAP2 SWAP1 PUSH2 0x228A JUMP JUMPDEST SWAP1 POP PUSH0 PUSH20 0xFFFFFFFFFFFFFFFFFFFFFFFFFFFFFFFFFFFFFFFF AND DUP2 PUSH20 0xFFFFFFFFFFFFFFFFFFFFFFFFFFFFFFFFFFFFFFFF AND SUB PUSH2 0x1268 JUMPI CALLER SWAP1 POP PUSH2 0x1330 JUMP JUMPDEST CALLER PUSH20 0xFFFFFFFFFFFFFFFFFFFFFFFFFFFFFFFFFFFFFFFF AND DUP2 PUSH20 0xFFFFFFFFFFFFFFFFFFFFFFFFFFFFFFFFFFFFFFFF AND EQ ISZERO DUP1 ISZERO PUSH2 0x1325 JUMPI POP PUSH0 PUSH0 DUP3 PUSH20 0xFFFFFFFFFFFFFFFFFFFFFFFFFFFFFFFFFFFFFFFF AND PUSH20 0xFFFFFFFFFFFFFFFFFFFFFFFFFFFFFFFFFFFFFFFF AND DUP2 MSTORE PUSH1 0x20 ADD SWAP1 DUP2 MSTORE PUSH1 0x20 ADD PUSH0 KECCAK256 PUSH0 CALLER PUSH20 0xFFFFFFFFFFFFFFFFFFFFFFFFFFFFFFFFFFFFFFFF AND PUSH20 0xFFFFFFFFFFFFFFFFFFFFFFFFFFFFFFFFFFFFFFFF AND DUP2 MSTORE PUSH1 0x20 ADD SWAP1 DUP2 MSTORE PUSH1 0x20 ADD PUSH0 KECCAK256 PUSH0 SWAP1 SLOAD SWAP1 PUSH2 0x100 EXP SWAP1 DIV PUSH1 0xFF AND ISZERO JUMPDEST ISZERO PUSH2 0x132F JUMPI PUSH1 0x1 SWAP2 POP JUMPDEST JUMPDEST PUSH0 PUSH0 PUSH0 PUSH0 PUSH2 0x133D DUP10 PUSH2 0x182D JUMP JUMPDEST SWAP4 POP SWAP4 POP SWAP4 POP SWAP4 POP PUSH0 PUSH0 PUSH2 0x1351 DUP11 DUP9 PUSH2 0x1004 JUMP JUMPDEST SWAP2 POP SWAP2 POP PUSH0 PUSH0 SWAP1 POP JUMPDEST DUP7 MLOAD DUP2 LT ISZERO PUSH2 0x13C2 JUMPI PUSH2 0x13B3 DUP4 DUP4 PUSH2 0x138F DUP14 DUP12 DUP7 DUP2 MLOAD DUP2 LT PUSH2 0x137F JUMPI PUSH2 0x137E PUSH2 0x211F JUMP JUMPDEST JUMPDEST PUSH1 0x20 MUL PUSH1 0x20 ADD ADD MLOAD PUSH0 ADD MLOAD PUSH2 0xE0E JUMP JUMPDEST DUP11 DUP6 DUP2 MLOAD DUP2 LT PUSH2 0x13A2 JUMPI PUSH2 0x13A1 PUSH2 0x211F JUMP JUMPDEST JUMPDEST PUSH1 0x20 MUL PUSH1 0x20 ADD ADD MLOAD PUSH1 0x20 ADD MLOAD PUSH2 0x161D JUMP JUMPDEST SWAP2 POP DUP1 DUP1 PUSH1 0x1 ADD SWAP2 POP POP PUSH2 0x135A JUMP JUMPDEST POP PUSH0 PUSH0 SWAP1 POP JUMPDEST DUP6 MLOAD DUP2 LT ISZERO PUSH2 0x144C JUMPI PUSH0 PUSH2 0x13F9 DUP12 DUP9 DUP5 DUP2 MLOAD DUP2 LT PUSH2 0x13E9 JUMPI PUSH2 0x13E8 PUSH2 0x211F JUMP JUMPDEST JUMPDEST PUSH1 0x20 MUL PUSH1 0x20 ADD ADD MLOAD PUSH0 ADD MLOAD PUSH2 0xE0E JUMP JUMPDEST SWAP1 POP PUSH0 DUP8 DUP4 DUP2 MLOAD DUP2 LT PUSH2 0x140F JUMPI PUSH2 0x140E PUSH2 0x211F JUMP JUMPDEST JUMPDEST PUSH1 0x20 MUL PUSH1 0x20 ADD ADD MLOAD PUSH1 0x20 ADD MLOAD SWAP1 POP DUP11 ISZERO PUSH2 0x142F JUMPI PUSH2 0x142E DUP11 DUP4 DUP4 PUSH2 0x16C8 JUMP JUMPDEST JUMPDEST PUSH2 0x143B DUP6 DUP6 DUP5 DUP5 PUSH2 0x1031 JUMP JUMPDEST SWAP4 POP POP POP DUP1 DUP1 PUSH1 0x1 ADD SWAP2 POP POP PUSH2 0x13C8 JUMP JUMPDEST POP DUP7 PUSH20 0xFFFFFFFFFFFFFFFFFFFFFFFFFFFFFFFFFFFFFFFF AND DUP10 PUSH20 0xFFFFFFFFFFFFFFFFFFFFFFFFFFFFFFFFFFFFFFFF AND EQ ISZERO DUP1 ISZERO PUSH2 0x1496 JUMPI POP PUSH0 DUP5 MLOAD EQ ISZERO DUP1 PUSH2 0x1495 JUMPI POP PUSH0 DUP4 MLOAD EQ ISZERO JUMPDEST JUMPDEST ISZERO PUSH2 0x15C4 JUMPI PUSH0 PUSH0 PUSH2 0x14A7 DUP13 DUP13 PUSH2 0x1004 JUMP JUMPDEST SWAP2 POP SWAP2 POP PUSH0 PUSH0 SWAP1 POP JUMPDEST DUP7 MLOAD DUP2 LT ISZERO PUSH2 0x1527 JUMPI PUSH0 DUP8 DUP3 DUP2 MLOAD DUP2 LT PUSH2 0x14CD JUMPI PUSH2 0x14CC PUSH2 0x211F JUMP JUMPDEST JUMPDEST PUSH1 0x20 MUL PUSH1 0x20 ADD ADD MLOAD PUSH0 ADD MLOAD SWAP1 POP PUSH0 DUP9 DUP4 DUP2 MLOAD DUP2 LT PUSH2 0x14EE JUMPI PUSH2 0x14ED PUSH2 0x211F JUMP JUMPDEST JUMPDEST PUSH1 0x20 MUL PUSH1 0x20 ADD ADD MLOAD PUSH1 0x20 ADD MLOAD SWAP1 POP PUSH2 0x1508 DUP8 DUP8 DUP5 DUP5 PUSH2 0x161D JUMP JUMPDEST SWAP6 POP PUSH2 0x1516 DUP6 DUP6 DUP5 DUP5 PUSH2 0x1031 JUMP JUMPDEST SWAP4 POP POP POP DUP1 DUP1 PUSH1 0x1 ADD SWAP2 POP POP PUSH2 0x14B0 JUMP JUMPDEST POP PUSH0 PUSH0 SWAP1 POP JUMPDEST DUP6 MLOAD DUP2 LT ISZERO PUSH2 0x15B6 JUMPI PUSH0 DUP7 DUP3 DUP2 MLOAD DUP2 LT PUSH2 0x154A JUMPI PUSH2 0x1549 PUSH2 0x211F JUMP JUMPDEST JUMPDEST PUSH1 0x20 MUL PUSH1 0x20 ADD ADD MLOAD PUSH0 ADD MLOAD SWAP1 POP PUSH0 DUP8 DUP4 DUP2 MLOAD DUP2 LT PUSH2 0x156B JUMPI PUSH2 0x156A PUSH2 0x211F JUMP JUMPDEST JUMPDEST PUSH1 0x20 MUL PUSH1 0x20 ADD ADD MLOAD PUSH1 0x20 ADD MLOAD SWAP1 POP DUP13 ISZERO PUSH2 0x158B JUMPI PUSH2 0x158A DUP13 DUP4 DUP4 PUSH2 0x16C8 JUMP JUMPDEST JUMPDEST PUSH2 0x1597 DUP8 DUP8 DUP5 DUP5 PUSH2 0x1031 JUMP JUMPDEST SWAP6 POP PUSH2 0x15A5 DUP6 DUP6 DUP5 DUP5 PUSH2 0x161D JUMP JUMPDEST SWAP4 POP POP POP DUP1 DUP1 PUSH1 0x1 ADD SWAP2 POP POP PUSH2 0x152D JUMP JUMPDEST POP PUSH2 0x15C1 DUP3 DUP3 PUSH2 0x10DC JUMP JUMPDEST POP POP JUMPDEST PUSH2 0x15CE DUP3 DUP3 PUSH2 0x10DC JUMP JUMPDEST POP POP POP POP POP POP POP POP POP POP POP JUMP JUMPDEST PUSH0 PUSH0 PUSH0 TLOAD SWAP1 POP PUSH1 0x1 PUSH12 0xFFFFFFFFFFFFFFFFFFFFFFFF DUP3 AND ADD DUP4 PUSH1 0x60 SHL OR PUSH0 TSTORE DUP1 PUSH0 MSTORE PUSH0 PUSH1 0x20 MSTORE PUSH1 0x2C PUSH1 0x14 KECCAK256 SWAP2 POP SWAP2 POP SWAP2 JUMP JUMPDEST PUSH2 0x1616 DUP2 PUSH2 0x193F JUMP JUMPDEST DUP2 PUSH0 TSTORE POP POP JUMP JUMPDEST PUSH0 DUP3 PUSH0 MSTORE DUP5 PUSH1 0x20 MSTORE PUSH1 0x40 PUSH0 KECCAK256 DUP1 TLOAD DUP1 PUSH1 0x1 SAR DUP5 DUP2 ADD PUSH1 0x1 DUP2 PUSH1 0xFE SHR EQ DUP3 DUP3 SLT OR PUSH1 0x1 DUP2 EQ PUSH2 0x1655 JUMPI PUSH1 0x1 DUP5 AND DUP3 PUSH1 0x1 SHL OR DUP6 TSTORE PUSH2 0x16A7 JUMP JUMPDEST PUSH1 0x1 DUP6 ADD PUSH32 0x4000000000000000000000000000000000000000000000000000000000000000 DUP4 ADD PUSH1 0xFF SHR PUSH1 0x2 SUB PUSH0 PUSH1 0x1 DUP8 AND ISZERO PUSH2 0x1691 JUMPI DUP3 TLOAD SWAP1 POP JUMPDEST DUP2 DUP2 ADD SWAP1 POP DUP1 DUP4 TSTORE DUP1 ISZERO ISZERO DUP6 PUSH1 0x1 SHL OR DUP9 TSTORE POP POP POP JUMPDEST POP DUP3 PUSH2 0x16B9 JUMPI PUSH1 0x1 DUP9 ADD SWAP8 POP DUP7 DUP9 DUP11 ADD TSTORE JUMPDEST POP POP POP POP DUP4 SWAP1 POP SWAP5 SWAP4 POP POP POP POP JUMP JUMPDEST PUSH0 PUSH1 0x2 PUSH0 DUP6 PUSH20 0xFFFFFFFFFFFFFFFFFFFFFFFFFFFFFFFFFFFFFFFF AND PUSH20 0xFFFFFFFFFFFFFFFFFFFFFFFFFFFFFFFFFFFFFFFF AND DUP2 MSTORE PUSH1 0x20 ADD SWAP1 DUP2 MSTORE PUSH1 0x20 ADD PUSH0 KECCAK256 PUSH0 CALLER PUSH20 0xFFFFFFFFFFFFFFFFFFFFFFFFFFFFFFFFFFFFFFFF AND PUSH20 0xFFFFFFFFFFFFFFFFFFFFFFFFFFFFFFFFFFFFFFFF AND DUP2 MSTORE PUSH1 0x20 ADD SWAP1 DUP2 MSTORE PUSH1 0x20 ADD PUSH0 KECCAK256 PUSH0 DUP5 DUP2 MSTORE PUSH1 0x20 ADD SWAP1 DUP2 MSTORE PUSH1 0x20 ADD PUSH0 KECCAK256 SLOAD SWAP1 POP PUSH32 0xFFFFFFFFFFFFFFFFFFFFFFFFFFFFFFFFFFFFFFFFFFFFFFFFFFFFFFFFFFFFFFFF DUP2 EQ PUSH2 0x1812 JUMPI DUP2 DUP2 PUSH2 0x1786 SWAP2 SWAP1 PUSH2 0x2257 JUMP JUMPDEST PUSH1 0x2 PUSH0 DUP7 PUSH20 0xFFFFFFFFFFFFFFFFFFFFFFFFFFFFFFFFFFFFFFFF AND PUSH20 0xFFFFFFFFFFFFFFFFFFFFFFFFFFFFFFFFFFFFFFFF AND DUP2 MSTORE PUSH1 0x20 ADD SWAP1 DUP2 MSTORE PUSH1 0x20 ADD PUSH0 KECCAK256 PUSH0 CALLER PUSH20 0xFFFFFFFFFFFFFFFFFFFFFFFFFFFFFFFFFFFFFFFF AND PUSH20 0xFFFFFFFFFFFFFFFFFFFFFFFFFFFFFFFFFFFFFFFF AND DUP2 MSTORE PUSH1 0x20 ADD SWAP1 DUP2 MSTORE PUSH1 0x20 ADD PUSH0 KECCAK256 PUSH0 DUP6 DUP2 MSTORE PUSH1 0x20 ADD SWAP1 DUP2 MSTORE PUSH1 0x20 ADD PUSH0 KECCAK256 DUP2 SWAP1 SSTORE POP JUMPDEST POP POP POP POP JUMP JUMPDEST PUSH0 DUP2 PUSH0 MSTORE DUP3 PUSH1 0x20 MSTORE PUSH1 0x34 PUSH1 0xC KECCAK256 SWAP1 POP SWAP3 SWAP2 POP POP JUMP JUMPDEST PUSH1 0x60 DUP1 PUSH1 0x60 DUP1 DUP5 PUSH1 0x20 ADD PUSH1 0x20 DUP2 ADD SWAP1 PUSH2 0x1846 SWAP2 SWAP1 PUSH2 0x228A JUMP JUMPDEST PUSH20 0xFFFFFFFFFFFFFFFFFFFFFFFFFFFFFFFFFFFFFFFF AND PUSH4 0xA129568D DUP7 DUP1 PUSH1 0x40 ADD SWAP1 PUSH2 0x1871 SWAP2 SWAP1 PUSH2 0x22B5 JUMP JUMPDEST PUSH1 0x40 MLOAD DUP4 PUSH4 0xFFFFFFFF AND PUSH1 0xE0 SHL DUP2 MSTORE PUSH1 0x4 ADD PUSH2 0x188E SWAP3 SWAP2 SWAP1 PUSH2 0x2371 JUMP JUMPDEST PUSH0 PUSH1 0x40 MLOAD DUP1 DUP4 SUB DUP2 PUSH0 DUP8 GAS CALL ISZERO DUP1 ISZERO PUSH2 0x18A9 JUMPI RETURNDATASIZE PUSH0 PUSH0 RETURNDATACOPY RETURNDATASIZE PUSH0 REVERT JUMPDEST POP POP POP POP PUSH1 0x40 MLOAD RETURNDATASIZE PUSH0 DUP3 RETURNDATACOPY RETURNDATASIZE PUSH1 0x1F NOT PUSH1 0x1F DUP3 ADD AND DUP3 ADD DUP1 PUSH1 0x40 MSTORE POP DUP2 ADD SWAP1 PUSH2 0x18D1 SWAP2 SWAP1 PUSH2 0x2530 JUMP JUMPDEST DUP1 SWAP5 POP DUP2 SWAP6 POP DUP3 SWAP7 POP DUP4 SWAP8 POP POP POP POP POP PUSH0 PUSH0 SHL DUP6 PUSH1 0x60 ADD CALLDATALOAD EQ PUSH2 0x1938 JUMPI PUSH0 PUSH2 0x18F7 PUSH2 0x1984 JUMP JUMPDEST SWAP1 POP DUP1 DUP7 PUSH1 0x60 ADD CALLDATALOAD EQ PUSH2 0x1936 JUMPI PUSH1 0x40 MLOAD PUSH32 0x6F0632BF00000000000000000000000000000000000000000000000000000000 DUP2 MSTORE PUSH1 0x4 ADD PUSH1 0x40 MLOAD DUP1 SWAP2 SUB SWAP1 REVERT JUMPDEST POP JUMPDEST SWAP2 SWAP4 POP SWAP2 SWAP4 JUMP JUMPDEST PUSH0 DUP2 TLOAD SWAP1 POP PUSH0 DUP2 SWAP1 POP PUSH0 PUSH0 SWAP1 POP JUMPDEST DUP2 DUP2 LT ISZERO PUSH2 0x197E JUMPI PUSH0 DUP2 PUSH1 0x1 ADD SWAP2 POP DUP2 DUP6 ADD TLOAD SWAP1 POP PUSH2 0x1975 PUSH2 0x196F DUP7 DUP4 PUSH2 0x1818 JUMP JUMPDEST DUP3 PUSH2 0x19CF JUMP JUMPDEST PUSH0 DUP6 TSTORE POP PUSH2 0x194D JUMP JUMPDEST POP POP POP POP JUMP JUMPDEST PUSH0 PUSH1 0x40 MLOAD DUP1 PUSH1 0x80 PUSH0 DUP4 RETURNDATACOPY PUSH1 0x80 DUP3 ADD JUMPDEST DUP1 DUP4 LT ISZERO PUSH2 0x19C3 JUMPI DUP3 MLOAD PUSH1 0x20 DUP2 DUP4 RETURNDATACOPY DUP2 MLOAD PUSH1 0x6 SHL PUSH1 0x20 DUP3 ADD SWAP2 POP DUP1 DUP3 DUP5 RETURNDATACOPY DUP1 DUP4 KECCAK256 DUP6 MSTORE POP POP PUSH1 0x20 DUP4 ADD SWAP3 POP PUSH2 0x1993 JUMP JUMPDEST POP PUSH1 0x80 DUP2 KECCAK256 SWAP3 POP POP POP SWAP1 JUMP JUMPDEST PUSH0 PUSH2 0x19D9 DUP4 PUSH2 0x1C03 JUMP JUMPDEST SWAP1 POP PUSH0 PUSH0 SWAP1 POP JUMPDEST DUP2 DUP2 LT ISZERO PUSH2 0x1BFA JUMPI PUSH0 PUSH0 PUSH0 DUP4 PUSH1 0x1 ADD SWAP4 POP DUP4 DUP8 ADD TLOAD SWAP3 POP DUP3 PUSH0 MSTORE DUP7 PUSH1 0x20 MSTORE PUSH1 0x40 PUSH0 KECCAK256 SWAP1 POP DUP1 TLOAD SWAP2 POP PUSH0 DUP3 SUB PUSH2 0x1A17 JUMPI POP POP POP PUSH2 0x1BF5 JUMP JUMPDEST PUSH0 PUSH1 0x1 DUP4 AND SWAP1 POP DUP3 PUSH1 0x1 SAR SWAP3 POP PUSH0 DUP3 TSTORE DUP1 ISZERO PUSH2 0x1BC9 JUMPI PUSH0 PUSH1 0x1 DUP4 ADD TLOAD SWAP1 POP PUSH32 0xFFFFFFFFFFFFFFFFFFFFFFFFFFFFFFFFFFFFFFFFFFFFFFFFFFFFFFFFFFFFFFFE DUP2 SUB PUSH2 0x1AA8 JUMPI PUSH0 DUP5 SLT ISZERO PUSH2 0x1A96 JUMPI PUSH1 0x40 MLOAD PUSH32 0x778214EB00000000000000000000000000000000000000000000000000000000 DUP2 MSTORE PUSH1 0x4 ADD PUSH1 0x40 MLOAD DUP1 SWAP2 SUB SWAP1 REVERT JUMPDEST PUSH2 0x1AA3 DUP9 DUP7 DUP7 PUSH0 SUB PUSH2 0x10E3 JUMP JUMPDEST PUSH2 0x1BC3 JUMP JUMPDEST PUSH32 0xFFFFFFFFFFFFFFFFFFFFFFFFFFFFFFFFFFFFFFFFFFFFFFFFFFFFFFFFFFFFFFFF DUP2 SUB PUSH2 0x1B03 JUMPI PUSH2 0x1AFE DUP9 DUP7 PUSH32 0x8000000000000000000000000000000000000000000000000000000000000000 DUP8 PUSH0 SUB ADD PUSH2 0x10E3 JUMP JUMPDEST PUSH2 0x1BC2 JUMP JUMPDEST PUSH1 0x1 DUP2 SUB PUSH2 0x1B3D JUMPI PUSH2 0x1B38 DUP9 DUP7 PUSH32 0x8000000000000000000000000000000000000000000000000000000000000000 DUP8 ADD PUSH2 0xE23 JUMP JUMPDEST PUSH2 0x1BC1 JUMP JUMPDEST PUSH1 0x2 DUP2 SUB PUSH2 0x1B8E JUMPI PUSH0 DUP5 SLT PUSH2 0x1B7E JUMPI PUSH1 0x40 MLOAD PUSH32 0x778214EB00000000000000000000000000000000000000000000000000000000 DUP2 MSTORE PUSH1 0x4 ADD PUSH1 0x40 MLOAD DUP1 SWAP2 SUB SWAP1 REVERT JUMPDEST PUSH2 0x1B89 DUP9 DUP7 DUP7 PUSH2 0xE23 JUMP JUMPDEST PUSH2 0x1BC0 JUMP JUMPDEST PUSH1 0x40 MLOAD PUSH32 0x778214EB00000000000000000000000000000000000000000000000000000000 DUP2 MSTORE PUSH1 0x4 ADD PUSH1 0x40 MLOAD DUP1 SWAP2 SUB SWAP1 REVERT JUMPDEST JUMPDEST JUMPDEST JUMPDEST POP PUSH2 0x1BF0 JUMP JUMPDEST PUSH0 DUP4 SLT ISZERO PUSH2 0x1BE3 JUMPI PUSH2 0x1BDE DUP8 DUP6 DUP6 PUSH0 SUB PUSH2 0x10E3 JUMP JUMPDEST PUSH2 0x1BEF JUMP JUMPDEST PUSH2 0x1BEE DUP8 DUP6 DUP6 PUSH2 0xE23 JUMP JUMPDEST JUMPDEST JUMPDEST POP POP POP POP JUMPDEST PUSH2 0x19E0 JUMP JUMPDEST POP PUSH0 DUP4 TSTORE POP POP POP JUMP JUMPDEST PUSH0 DUP2 TLOAD SWAP1 POP SWAP2 SWAP1 POP JUMP JUMPDEST PUSH0 PUSH1 0x40 MLOAD SWAP1 POP SWAP1 JUMP JUMPDEST PUSH0 PUSH0 REVERT JUMPDEST PUSH0 PUSH0 REVERT JUMPDEST PUSH0 PUSH20 0xFFFFFFFFFFFFFFFFFFFFFFFFFFFFFFFFFFFFFFFF DUP3 AND SWAP1 POP SWAP2 SWAP1 POP JUMP JUMPDEST PUSH0 PUSH2 0x1C47 DUP3 PUSH2 0x1C1E JUMP JUMPDEST SWAP1 POP SWAP2 SWAP1 POP JUMP JUMPDEST PUSH2 0x1C57 DUP2 PUSH2 0x1C3D JUMP JUMPDEST DUP2 EQ PUSH2 0x1C61 JUMPI PUSH0 PUSH0 REVERT JUMPDEST POP JUMP JUMPDEST PUSH0 DUP2 CALLDATALOAD SWAP1 POP PUSH2 0x1C72 DUP2 PUSH2 0x1C4E JUMP JUMPDEST SWAP3 SWAP2 POP POP JUMP JUMPDEST PUSH0 DUP2 SWAP1 POP SWAP2 SWAP1 POP JUMP JUMPDEST PUSH2 0x1C8A DUP2 PUSH2 0x1C78 JUMP JUMPDEST DUP2 EQ PUSH2 0x1C94 JUMPI PUSH0 PUSH0 REVERT JUMPDEST POP JUMP JUMPDEST PUSH0 DUP2 CALLDATALOAD SWAP1 POP PUSH2 0x1CA5 DUP2 PUSH2 0x1C81 JUMP JUMPDEST SWAP3 SWAP2 POP POP JUMP JUMPDEST PUSH0 PUSH0 PUSH0 PUSH1 0x60 DUP5 DUP7 SUB SLT ISZERO PUSH2 0x1CC2 JUMPI PUSH2 0x1CC1 PUSH2 0x1C16 JUMP JUMPDEST JUMPDEST PUSH0 PUSH2 0x1CCF DUP7 DUP3 DUP8 ADD PUSH2 0x1C64 JUMP JUMPDEST SWAP4 POP POP PUSH1 0x20 PUSH2 0x1CE0 DUP7 DUP3 DUP8 ADD PUSH2 0x1C97 JUMP JUMPDEST SWAP3 POP POP PUSH1 0x40 PUSH2 0x1CF1 DUP7 DUP3 DUP8 ADD PUSH2 0x1C97 JUMP JUMPDEST SWAP2 POP POP SWAP3 POP SWAP3 POP SWAP3 JUMP JUMPDEST PUSH0 DUP2 ISZERO ISZERO SWAP1 POP SWAP2 SWAP1 POP JUMP JUMPDEST PUSH2 0x1D0F DUP2 PUSH2 0x1CFB JUMP JUMPDEST DUP3 MSTORE POP POP JUMP JUMPDEST PUSH0 PUSH1 0x20 DUP3 ADD SWAP1 POP PUSH2 0x1D28 PUSH0 DUP4 ADD DUP5 PUSH2 0x1D06 JUMP JUMPDEST SWAP3 SWAP2 POP POP JUMP JUMPDEST PUSH2 0x1D37 DUP2 PUSH2 0x1C78 JUMP JUMPDEST DUP3 MSTORE POP POP JUMP JUMPDEST PUSH0 PUSH1 0x20 DUP3 ADD SWAP1 POP PUSH2 0x1D50 PUSH0 DUP4 ADD DUP5 PUSH2 0x1D2E JUMP JUMPDEST SWAP3 SWAP2 POP POP JUMP JUMPDEST PUSH0 PUSH0 REVERT JUMPDEST PUSH0 PUSH0 REVERT JUMPDEST PUSH0 PUSH0 REVERT JUMPDEST PUSH0 PUSH0 DUP4 PUSH1 0x1F DUP5 ADD SLT PUSH2 0x1D77 JUMPI PUSH2 0x1D76 PUSH2 0x1D56 JUMP JUMPDEST JUMPDEST DUP3 CALLDATALOAD SWAP1 POP PUSH8 0xFFFFFFFFFFFFFFFF DUP2 GT ISZERO PUSH2 0x1D94 JUMPI PUSH2 0x1D93 PUSH2 0x1D5A JUMP JUMPDEST JUMPDEST PUSH1 0x20 DUP4 ADD SWAP2 POP DUP4 PUSH1 0x40 DUP3 MUL DUP4 ADD GT ISZERO PUSH2 0x1DB0 JUMPI PUSH2 0x1DAF PUSH2 0x1D5E JUMP JUMPDEST JUMPDEST SWAP3 POP SWAP3 SWAP1 POP JUMP JUMPDEST PUSH0 PUSH0 PUSH1 0x20 DUP4 DUP6 SUB SLT ISZERO PUSH2 0x1DCD JUMPI PUSH2 0x1DCC PUSH2 0x1C16 JUMP JUMPDEST JUMPDEST PUSH0 DUP4 ADD CALLDATALOAD PUSH8 0xFFFFFFFFFFFFFFFF DUP2 GT ISZERO PUSH2 0x1DEA JUMPI PUSH2 0x1DE9 PUSH2 0x1C1A JUMP JUMPDEST JUMPDEST PUSH2 0x1DF6 DUP6 DUP3 DUP7 ADD PUSH2 0x1D62 JUMP JUMPDEST SWAP3 POP SWAP3 POP POP SWAP3 POP SWAP3 SWAP1 POP JUMP JUMPDEST PUSH0 PUSH0 DUP4 PUSH1 0x1F DUP5 ADD SLT PUSH2 0x1E17 JUMPI PUSH2 0x1E16 PUSH2 0x1D56 JUMP JUMPDEST JUMPDEST DUP3 CALLDATALOAD SWAP1 POP PUSH8 0xFFFFFFFFFFFFFFFF DUP2 GT ISZERO PUSH2 0x1E34 JUMPI PUSH2 0x1E33 PUSH2 0x1D5A JUMP JUMPDEST JUMPDEST PUSH1 0x20 DUP4 ADD SWAP2 POP DUP4 PUSH1 0x20 DUP3 MUL DUP4 ADD GT ISZERO PUSH2 0x1E50 JUMPI PUSH2 0x1E4F PUSH2 0x1D5E JUMP JUMPDEST JUMPDEST SWAP3 POP SWAP3 SWAP1 POP JUMP JUMPDEST PUSH0 PUSH0 PUSH1 0x20 DUP4 DUP6 SUB SLT ISZERO PUSH2 0x1E6D JUMPI PUSH2 0x1E6C PUSH2 0x1C16 JUMP JUMPDEST JUMPDEST PUSH0 DUP4 ADD CALLDATALOAD PUSH8 0xFFFFFFFFFFFFFFFF DUP2 GT ISZERO PUSH2 0x1E8A JUMPI PUSH2 0x1E89 PUSH2 0x1C1A JUMP JUMPDEST JUMPDEST PUSH2 0x1E96 DUP6 DUP3 DUP7 ADD PUSH2 0x1E02 JUMP JUMPDEST SWAP3 POP SWAP3 POP POP SWAP3 POP SWAP3 SWAP1 POP JUMP JUMPDEST PUSH2 0x1EAB DUP2 PUSH2 0x1CFB JUMP JUMPDEST DUP2 EQ PUSH2 0x1EB5 JUMPI PUSH0 PUSH0 REVERT JUMPDEST POP JUMP JUMPDEST PUSH0 DUP2 CALLDATALOAD SWAP1 POP PUSH2 0x1EC6 DUP2 PUSH2 0x1EA2 JUMP JUMPDEST SWAP3 SWAP2 POP POP JUMP JUMPDEST PUSH0 PUSH0 PUSH1 0x40 DUP4 DUP6 SUB SLT ISZERO PUSH2 0x1EE2 JUMPI PUSH2 0x1EE1 PUSH2 0x1C16 JUMP JUMPDEST JUMPDEST PUSH0 PUSH2 0x1EEF DUP6 DUP3 DUP7 ADD PUSH2 0x1C64 JUMP JUMPDEST SWAP3 POP POP PUSH1 0x20 PUSH2 0x1F00 DUP6 DUP3 DUP7 ADD PUSH2 0x1EB8 JUMP JUMPDEST SWAP2 POP POP SWAP3 POP SWAP3 SWAP1 POP JUMP JUMPDEST PUSH0 PUSH1 0x20 DUP3 DUP5 SUB SLT ISZERO PUSH2 0x1F1F JUMPI PUSH2 0x1F1E PUSH2 0x1C16 JUMP JUMPDEST JUMPDEST PUSH0 PUSH2 0x1F2C DUP5 DUP3 DUP6 ADD PUSH2 0x1C97 JUMP JUMPDEST SWAP2 POP POP SWAP3 SWAP2 POP POP JUMP JUMPDEST PUSH0 PUSH0 PUSH0 PUSH1 0x60 DUP5 DUP7 SUB SLT ISZERO PUSH2 0x1F4C JUMPI PUSH2 0x1F4B PUSH2 0x1C16 JUMP JUMPDEST JUMPDEST PUSH0 PUSH2 0x1F59 DUP7 DUP3 DUP8 ADD PUSH2 0x1C64 JUMP JUMPDEST SWAP4 POP POP PUSH1 0x20 PUSH2 0x1F6A DUP7 DUP3 DUP8 ADD PUSH2 0x1C64 JUMP JUMPDEST SWAP3 POP POP PUSH1 0x40 PUSH2 0x1F7B DUP7 DUP3 DUP8 ADD PUSH2 0x1C97 JUMP JUMPDEST SWAP2 POP POP SWAP3 POP SWAP3 POP SWAP3 JUMP JUMPDEST PUSH0 PUSH0 PUSH0 PUSH1 0x40 DUP5 DUP7 SUB SLT ISZERO PUSH2 0x1F9C JUMPI PUSH2 0x1F9B PUSH2 0x1C16 JUMP JUMPDEST JUMPDEST PUSH0 PUSH2 0x1FA9 DUP7 DUP3 DUP8 ADD PUSH2 0x1C64 JUMP JUMPDEST SWAP4 POP POP PUSH1 0x20 DUP5 ADD CALLDATALOAD PUSH8 0xFFFFFFFFFFFFFFFF DUP2 GT ISZERO PUSH2 0x1FCA JUMPI PUSH2 0x1FC9 PUSH2 0x1C1A JUMP JUMPDEST JUMPDEST PUSH2 0x1FD6 DUP7 DUP3 DUP8 ADD PUSH2 0x1E02 JUMP JUMPDEST SWAP3 POP SWAP3 POP POP SWAP3 POP SWAP3 POP SWAP3 JUMP JUMPDEST PUSH0 PUSH0 PUSH1 0x40 DUP4 DUP6 SUB SLT ISZERO PUSH2 0x1FF8 JUMPI PUSH2 0x1FF7 PUSH2 0x1C16 JUMP JUMPDEST JUMPDEST PUSH0 PUSH2 0x2005 DUP6 DUP3 DUP7 ADD PUSH2 0x1C97 JUMP JUMPDEST SWAP3 POP POP PUSH1 0x20 PUSH2 0x2016 DUP6 DUP3 DUP7 ADD PUSH2 0x1C97 JUMP JUMPDEST SWAP2 POP POP SWAP3 POP SWAP3 SWAP1 POP JUMP JUMPDEST PUSH0 PUSH0 PUSH1 0x40 DUP4 DUP6 SUB SLT ISZERO PUSH2 0x2036 JUMPI PUSH2 0x2035 PUSH2 0x1C16 JUMP JUMPDEST JUMPDEST PUSH0 PUSH2 0x2043 DUP6 DUP3 DUP7 ADD PUSH2 0x1C64 JUMP JUMPDEST SWAP3 POP POP PUSH1 0x20 PUSH2 0x2054 DUP6 DUP3 DUP7 ADD PUSH2 0x1C64 JUMP JUMPDEST SWAP2 POP POP SWAP3 POP SWAP3 SWAP1 POP JUMP JUMPDEST PUSH0 PUSH0 PUSH0 PUSH1 0x40 DUP5 DUP7 SUB SLT ISZERO PUSH2 0x2075 JUMPI PUSH2 0x2074 PUSH2 0x1C16 JUMP JUMPDEST JUMPDEST PUSH0 PUSH2 0x2082 DUP7 DUP3 DUP8 ADD PUSH2 0x1C64 JUMP JUMPDEST SWAP4 POP POP PUSH1 0x20 DUP5 ADD CALLDATALOAD PUSH8 0xFFFFFFFFFFFFFFFF DUP2 GT ISZERO PUSH2 0x20A3 JUMPI PUSH2 0x20A2 PUSH2 0x1C1A JUMP JUMPDEST JUMPDEST PUSH2 0x20AF DUP7 DUP3 DUP8 ADD PUSH2 0x1D62 JUMP JUMPDEST SWAP3 POP SWAP3 POP POP SWAP3 POP SWAP3 POP SWAP3 JUMP JUMPDEST PUSH0 PUSH0 PUSH0 PUSH0 PUSH1 0x80 DUP6 DUP8 SUB SLT ISZERO PUSH2 0x20D3 JUMPI PUSH2 0x20D2 PUSH2 0x1C16 JUMP JUMPDEST JUMPDEST PUSH0 PUSH2 0x20E0 DUP8 DUP3 DUP9 ADD PUSH2 0x1C64 JUMP JUMPDEST SWAP5 POP POP PUSH1 0x20 PUSH2 0x20F1 DUP8 DUP3 DUP9 ADD PUSH2 0x1C64 JUMP JUMPDEST SWAP4 POP POP PUSH1 0x40 PUSH2 0x2102 DUP8 DUP3 DUP9 ADD PUSH2 0x1C97 JUMP JUMPDEST SWAP3 POP POP PUSH1 0x60 PUSH2 0x2113 DUP8 DUP3 DUP9 ADD PUSH2 0x1C97 JUMP JUMPDEST SWAP2 POP POP SWAP3 SWAP6 SWAP2 SWAP5 POP SWAP3 POP JUMP JUMPDEST PUSH32 0x4E487B7100000000000000000000000000000000000000000000000000000000 PUSH0 MSTORE PUSH1 0x32 PUSH1 0x4 MSTORE PUSH1 0x24 PUSH0 REVERT JUMPDEST PUSH0 PUSH0 REVERT JUMPDEST PUSH0 PUSH0 REVERT JUMPDEST PUSH0 PUSH0 REVERT JUMPDEST PUSH0 DUP3 CALLDATALOAD PUSH1 0x1 PUSH1 0x80 SUB DUP4 CALLDATASIZE SUB SUB DUP2 SLT PUSH2 0x2173 JUMPI PUSH2 0x2172 PUSH2 0x214C JUMP JUMPDEST JUMPDEST DUP1 DUP4 ADD SWAP2 POP POP SWAP3 SWAP2 POP POP JUMP JUMPDEST PUSH32 0x4E487B7100000000000000000000000000000000000000000000000000000000 PUSH0 MSTORE PUSH1 0x11 PUSH1 0x4 MSTORE PUSH1 0x24 PUSH0 REVERT JUMPDEST PUSH0 PUSH2 0x21B6 DUP3 PUSH2 0x1C78 JUMP JUMPDEST SWAP2 POP PUSH2 0x21C1 DUP4 PUSH2 0x1C78 JUMP JUMPDEST SWAP3 POP DUP3 DUP3 ADD SWAP1 POP DUP1 DUP3 GT ISZERO PUSH2 0x21D9 JUMPI PUSH2 0x21D8 PUSH2 0x217F JUMP JUMPDEST JUMPDEST SWAP3 SWAP2 POP POP JUMP JUMPDEST PUSH0 DUP3 DUP3 MSTORE PUSH1 0x20 DUP3 ADD SWAP1 POP SWAP3 SWAP2 POP POP JUMP JUMPDEST PUSH32 0x496E73756666696369656E742062616C616E6365000000000000000000000000 PUSH0 DUP3 ADD MSTORE POP JUMP JUMPDEST PUSH0 PUSH2 0x2223 PUSH1 0x14 DUP4 PUSH2 0x21DF JUMP JUMPDEST SWAP2 POP PUSH2 0x222E DUP3 PUSH2 0x21EF JUMP JUMPDEST PUSH1 0x20 DUP3 ADD SWAP1 POP SWAP2 SWAP1 POP JUMP JUMPDEST PUSH0 PUSH1 0x20 DUP3 ADD SWAP1 POP DUP2 DUP2 SUB PUSH0 DUP4 ADD MSTORE PUSH2 0x2250 DUP2 PUSH2 0x2217 JUMP JUMPDEST SWAP1 POP SWAP2 SWAP1 POP JUMP JUMPDEST PUSH0 PUSH2 0x2261 DUP3 PUSH2 0x1C78 JUMP JUMPDEST SWAP2 POP PUSH2 0x226C DUP4 PUSH2 0x1C78 JUMP JUMPDEST SWAP3 POP DUP3 DUP3 SUB SWAP1 POP DUP2 DUP2 GT ISZERO PUSH2 0x2284 JUMPI PUSH2 0x2283 PUSH2 0x217F JUMP JUMPDEST JUMPDEST SWAP3 SWAP2 POP POP JUMP JUMPDEST PUSH0 PUSH1 0x20 DUP3 DUP5 SUB SLT ISZERO PUSH2 0x229F JUMPI PUSH2 0x229E PUSH2 0x1C16 JUMP JUMPDEST JUMPDEST PUSH0 PUSH2 0x22AC DUP5 DUP3 DUP6 ADD PUSH2 0x1C64 JUMP JUMPDEST SWAP2 POP POP SWAP3 SWAP2 POP POP JUMP JUMPDEST PUSH0 PUSH0 DUP4 CALLDATALOAD PUSH1 0x1 PUSH1 0x20 SUB DUP5 CALLDATASIZE SUB SUB DUP2 SLT PUSH2 0x22D1 JUMPI PUSH2 0x22D0 PUSH2 0x214C JUMP JUMPDEST JUMPDEST DUP1 DUP5 ADD SWAP3 POP DUP3 CALLDATALOAD SWAP2 POP PUSH8 0xFFFFFFFFFFFFFFFF DUP3 GT ISZERO PUSH2 0x22F3 JUMPI PUSH2 0x22F2 PUSH2 0x2150 JUMP JUMPDEST JUMPDEST PUSH1 0x20 DUP4 ADD SWAP3 POP PUSH1 0x1 DUP3 MUL CALLDATASIZE SUB DUP4 SGT ISZERO PUSH2 0x230F JUMPI PUSH2 0x230E PUSH2 0x2154 JUMP JUMPDEST JUMPDEST POP SWAP3 POP SWAP3 SWAP1 POP JUMP JUMPDEST PUSH0 DUP3 DUP3 MSTORE PUSH1 0x20 DUP3 ADD SWAP1 POP SWAP3 SWAP2 POP POP JUMP JUMPDEST DUP3 DUP2 DUP4 CALLDATACOPY PUSH0 DUP4 DUP4 ADD MSTORE POP POP POP JUMP JUMPDEST PUSH0 PUSH1 0x1F NOT PUSH1 0x1F DUP4 ADD AND SWAP1 POP SWAP2 SWAP1 POP JUMP JUMPDEST PUSH0 PUSH2 0x2350 DUP4 DUP6 PUSH2 0x2317 JUMP JUMPDEST SWAP4 POP PUSH2 0x235D DUP4 DUP6 DUP5 PUSH2 0x2327 JUMP JUMPDEST PUSH2 0x2366 DUP4 PUSH2 0x2335 JUMP JUMPDEST DUP5 ADD SWAP1 POP SWAP4 SWAP3 POP POP POP JUMP JUMPDEST PUSH0 PUSH1 0x20 DUP3 ADD SWAP1 POP DUP2 DUP2 SUB PUSH0 DUP4 ADD MSTORE PUSH2 0x238A DUP2 DUP5 DUP7 PUSH2 0x2345 JUMP JUMPDEST SWAP1 POP SWAP4 SWAP3 POP POP POP JUMP JUMPDEST PUSH32 0x4E487B7100000000000000000000000000000000000000000000000000000000 PUSH0 MSTORE PUSH1 0x41 PUSH1 0x4 MSTORE PUSH1 0x24 PUSH0 REVERT JUMPDEST PUSH2 0x23C9 DUP3 PUSH2 0x2335 JUMP JUMPDEST DUP2 ADD DUP2 DUP2 LT PUSH8 0xFFFFFFFFFFFFFFFF DUP3 GT OR ISZERO PUSH2 0x23E8 JUMPI PUSH2 0x23E7 PUSH2 0x2393 JUMP JUMPDEST JUMPDEST DUP1 PUSH1 0x40 MSTORE POP POP POP JUMP JUMPDEST PUSH0 PUSH2 0x23FA PUSH2 0x1C0D JUMP JUMPDEST SWAP1 POP PUSH2 0x2406 DUP3 DUP3 PUSH2 0x23C0 JUMP JUMPDEST SWAP2 SWAP1 POP JUMP JUMPDEST PUSH0 PUSH8 0xFFFFFFFFFFFFFFFF DUP3 GT ISZERO PUSH2 0x2425 JUMPI PUSH2 0x2424 PUSH2 0x2393 JUMP JUMPDEST JUMPDEST PUSH1 0x20 DUP3 MUL SWAP1 POP PUSH1 0x20 DUP2 ADD SWAP1 POP SWAP2 SWAP1 POP JUMP JUMPDEST PUSH0 PUSH0 REVERT JUMPDEST PUSH0 DUP2 MLOAD SWAP1 POP PUSH2 0x2448 DUP2 PUSH2 0x1C81 JUMP JUMPDEST SWAP3 SWAP2 POP POP JUMP JUMPDEST PUSH0 PUSH1 0x40 DUP3 DUP5 SUB SLT ISZERO PUSH2 0x2463 JUMPI PUSH2 0x2462 PUSH2 0x2436 JUMP JUMPDEST JUMPDEST PUSH2 0x246D PUSH1 0x40 PUSH2 0x23F1 JUMP JUMPDEST SWAP1 POP PUSH0 PUSH2 0x247C DUP5 DUP3 DUP6 ADD PUSH2 0x243A JUMP JUMPDEST PUSH0 DUP4 ADD MSTORE POP PUSH1 0x20 PUSH2 0x248F DUP5 DUP3 DUP6 ADD PUSH2 0x243A JUMP JUMPDEST PUSH1 0x20 DUP4 ADD MSTORE POP SWAP3 SWAP2 POP POP JUMP JUMPDEST PUSH0 PUSH2 0x24AD PUSH2 0x24A8 DUP5 PUSH2 0x240B JUMP JUMPDEST PUSH2 0x23F1 JUMP JUMPDEST SWAP1 POP DUP1 DUP4 DUP3 MSTORE PUSH1 0x20 DUP3 ADD SWAP1 POP PUSH1 0x40 DUP5 MUL DUP4 ADD DUP6 DUP2 GT ISZERO PUSH2 0x24D0 JUMPI PUSH2 0x24CF PUSH2 0x1D5E JUMP JUMPDEST JUMPDEST DUP4 JUMPDEST DUP2 DUP2 LT ISZERO PUSH2 0x24F9 JUMPI DUP1 PUSH2 0x24E5 DUP9 DUP3 PUSH2 0x244E JUMP JUMPDEST DUP5 MSTORE PUSH1 0x20 DUP5 ADD SWAP4 POP POP PUSH1 0x40 DUP2 ADD SWAP1 POP PUSH2 0x24D2 JUMP JUMPDEST POP POP POP SWAP4 SWAP3 POP POP POP JUMP JUMPDEST PUSH0 DUP3 PUSH1 0x1F DUP4 ADD SLT PUSH2 0x2517 JUMPI PUSH2 0x2516 PUSH2 0x1D56 JUMP JUMPDEST JUMPDEST DUP2 MLOAD PUSH2 0x2527 DUP5 DUP3 PUSH1 0x20 DUP7 ADD PUSH2 0x249B JUMP JUMPDEST SWAP2 POP POP SWAP3 SWAP2 POP POP JUMP JUMPDEST PUSH0 PUSH0 PUSH0 PUSH0 PUSH1 0x80 DUP6 DUP8 SUB SLT ISZERO PUSH2 0x2548 JUMPI PUSH2 0x2547 PUSH2 0x1C16 JUMP JUMPDEST JUMPDEST PUSH0 DUP6 ADD MLOAD PUSH8 0xFFFFFFFFFFFFFFFF DUP2 GT ISZERO PUSH2 0x2565 JUMPI PUSH2 0x2564 PUSH2 0x1C1A JUMP JUMPDEST JUMPDEST PUSH2 0x2571 DUP8 DUP3 DUP9 ADD PUSH2 0x2503 JUMP JUMPDEST SWAP5 POP POP PUSH1 0x20 DUP6 ADD MLOAD PUSH8 0xFFFFFFFFFFFFFFFF DUP2 GT ISZERO PUSH2 0x2592 JUMPI PUSH2 0x2591 PUSH2 0x1C1A JUMP JUMPDEST JUMPDEST PUSH2 0x259E DUP8 DUP3 DUP9 ADD PUSH2 0x2503 JUMP JUMPDEST SWAP4 POP POP PUSH1 0x40 DUP6 ADD MLOAD PUSH8 0xFFFFFFFFFFFFFFFF DUP2 GT ISZERO PUSH2 0x25BF JUMPI PUSH2 0x25BE PUSH2 0x1C1A JUMP JUMPDEST JUMPDEST PUSH2 0x25CB DUP8 DUP3 DUP9 ADD PUSH2 0x2503 JUMP JUMPDEST SWAP3 POP POP PUSH1 0x60 DUP6 ADD MLOAD PUSH8 0xFFFFFFFFFFFFFFFF DUP2 GT ISZERO PUSH2 0x25EC JUMPI PUSH2 0x25EB PUSH2 0x1C1A JUMP JUMPDEST JUMPDEST PUSH2 0x25F8 DUP8 DUP3 DUP9 ADD PUSH2 0x2503 JUMP JUMPDEST SWAP2 POP POP SWAP3 SWAP6 SWAP2 SWAP5 POP SWAP3 POP JUMP INVALID LOG2 PUSH5 0x6970667358 0x22 SLT KECCAK256 0x2C PUSH20 0x33742426137814CBE9BCFA73534928C10E06D521 JUMPDEST 0xE1 0xCD 0xAA GAS 0xBB 0xD0 SWAP8 0xC9 NUMBER PUSH5 0x736F6C6343 STOP ADDMOD SHR STOP CALLER "
				},
				"gasEstimates": {
					"creation": {
						"codeDepositCost": "1957200",
						"executionCost": "2067",
						"totalCost": "1959267"
					},
					"external": {
						"allowance(address,address,uint256)": "infinite",
						"approve(address,uint256,uint256)": "infinite",
						"balanceOf(address,uint256,uint256)": "infinite",
						"burn((uint256,uint256)[])": "infinite",
						"burn(uint256,uint256)": "infinite",
						"cook((address,address,bytes,bytes32)[])": "infinite",
						"cook(address,(address,address,bytes,bytes32)[])": "infinite",
						"credit((uint256,uint256)[])": "infinite",
						"credit(uint256,uint256)": "infinite",
						"debit((uint256,uint256)[])": "infinite",
						"debit(uint256,uint256)": "infinite",
						"exttload(uint256)": "infinite",
						"isOperator(address,address)": "infinite",
						"mint(address,(uint256,uint256)[])": "infinite",
						"mint(address,uint256,uint256)": "infinite",
						"setOperator(address,bool)": "infinite",
						"tokenStorage(uint256)": "infinite",
						"transfer(address,uint256,uint256)": "infinite",
						"transferFrom(address,address,uint256,uint256)": "infinite"
					},
					"internal": {
						"_burn(address,uint256,uint256)": "infinite",
						"_decreaseApproval(address,uint256,uint256)": "infinite",
						"_executeAction(struct BlueprintCall calldata)": "infinite",
						"_flashCook(struct BlueprintCall calldata,FlashSession)": "infinite",
						"_mint(address,uint256,uint256)": "infinite",
						"_transferFrom(address,address,uint256,uint256)": "infinite",
						"updateTokenData(uint256,uint256)": "infinite"
					}
				},
				"methodIdentifiers": {
					"allowance(address,address,uint256)": "598af9e7",
					"approve(address,uint256,uint256)": "426a8493",
					"balanceOf(address,uint256,uint256)": "2d760d57",
					"burn((uint256,uint256)[])": "36223ac2",
					"burn(uint256,uint256)": "b390c0ab",
					"cook((address,address,bytes,bytes32)[])": "52d2accf",
					"cook(address,(address,address,bytes,bytes32)[])": "62ba62e5",
					"credit((uint256,uint256)[])": "355f580e",
					"credit(uint256,uint256)": "ab7ccc1c",
					"debit((uint256,uint256)[])": "e3033041",
					"debit(uint256,uint256)": "e747f31c",
					"exttload(uint256)": "a42bff86",
					"isOperator(address,address)": "b6363cf2",
					"mint(address,(uint256,uint256)[])": "f3178dd1",
					"mint(address,uint256,uint256)": "156e29f6",
					"setOperator(address,bool)": "558a7297",
					"tokenStorage(uint256)": "56cbfe3e",
					"transfer(address,uint256,uint256)": "095bcdb6",
					"transferFrom(address,address,uint256,uint256)": "fe99049a"
				}
			},
			"storageLayout": {
				"storage": [
					{
						"astId": 30,
						"contract": "src/BlueprintManager.sol:BlueprintManager",
						"label": "isOperator",
						"offset": 0,
						"slot": "0",
						"type": "t_mapping(t_address,t_mapping(t_address,t_bool))"
					},
					{
						"astId": 39,
						"contract": "src/BlueprintManager.sol:BlueprintManager",
						"label": "balanceOf",
						"offset": 0,
						"slot": "1",
						"type": "t_mapping(t_address,t_mapping(t_uint256,t_array(t_uint256)2_storage))"
					},
					{
						"astId": 48,
						"contract": "src/BlueprintManager.sol:BlueprintManager",
						"label": "allowance",
						"offset": 0,
						"slot": "2",
						"type": "t_mapping(t_address,t_mapping(t_address,t_mapping(t_uint256,t_uint256)))"
					},
					{
						"astId": 52,
						"contract": "src/BlueprintManager.sol:BlueprintManager",
						"label": "tokenStorage",
						"offset": 0,
						"slot": "3",
						"type": "t_mapping(t_uint256,t_uint256)"
					}
				],
				"types": {
					"t_address": {
						"encoding": "inplace",
						"label": "address",
						"numberOfBytes": "20"
					},
					"t_array(t_uint256)2_storage": {
						"base": "t_uint256",
						"encoding": "inplace",
						"label": "uint256[2]",
						"numberOfBytes": "64"
					},
					"t_bool": {
						"encoding": "inplace",
						"label": "bool",
						"numberOfBytes": "1"
					},
					"t_mapping(t_address,t_bool)": {
						"encoding": "mapping",
						"key": "t_address",
						"label": "mapping(address => bool)",
						"numberOfBytes": "32",
						"value": "t_bool"
					},
					"t_mapping(t_address,t_mapping(t_address,t_bool))": {
						"encoding": "mapping",
						"key": "t_address",
						"label": "mapping(address => mapping(address => bool))",
						"numberOfBytes": "32",
						"value": "t_mapping(t_address,t_bool)"
					},
					"t_mapping(t_address,t_mapping(t_address,t_mapping(t_uint256,t_uint256)))": {
						"encoding": "mapping",
						"key": "t_address",
						"label": "mapping(address => mapping(address => mapping(uint256 => uint256)))",
						"numberOfBytes": "32",
						"value": "t_mapping(t_address,t_mapping(t_uint256,t_uint256))"
					},
					"t_mapping(t_address,t_mapping(t_uint256,t_array(t_uint256)2_storage))": {
						"encoding": "mapping",
						"key": "t_address",
						"label": "mapping(address => mapping(uint256 => uint256[2]))",
						"numberOfBytes": "32",
						"value": "t_mapping(t_uint256,t_array(t_uint256)2_storage)"
					},
					"t_mapping(t_address,t_mapping(t_uint256,t_uint256))": {
						"encoding": "mapping",
						"key": "t_address",
						"label": "mapping(address => mapping(uint256 => uint256))",
						"numberOfBytes": "32",
						"value": "t_mapping(t_uint256,t_uint256)"
					},
					"t_mapping(t_uint256,t_array(t_uint256)2_storage)": {
						"encoding": "mapping",
						"key": "t_uint256",
						"label": "mapping(uint256 => uint256[2])",
						"numberOfBytes": "32",
						"value": "t_array(t_uint256)2_storage"
					},
					"t_mapping(t_uint256,t_uint256)": {
						"encoding": "mapping",
						"key": "t_uint256",
						"label": "mapping(uint256 => uint256)",
						"numberOfBytes": "32",
						"value": "t_uint256"
					},
					"t_uint256": {
						"encoding": "inplace",
						"label": "uint256",
						"numberOfBytes": "32"
					}
				}
			},
			"userdoc": {
				"events": {
					"Approval(address,address,uint256,uint256)": {
						"notice": "Emitted when approval is given"
					},
					"Burn(address,uint256,uint256)": {
						"notice": "Emitted when tokens are burned"
					},
					"Mint(address,uint256,uint256)": {
						"notice": "Emitted when tokens are minted"
					},
					"OperatorSet(address,address,bool)": {
						"notice": "Emitted when an operator is set"
					},
					"Transfer(address,address,uint256,uint256)": {
						"notice": "Emitted when tokens are transferred"
					}
				},
				"kind": "user",
				"methods": {
					"allowance(address,address,uint256)": {
						"notice": "eip-6909 allowance mapping"
					},
					"balanceOf(address,uint256,uint256)": {
						"notice": "eip-6909 balance mapping"
					},
					"cook(address,(address,address,bytes,bytes32)[])": {
						"notice": "executes a series of calls to Blueprints"
					},
					"isOperator(address,address)": {
						"notice": "eip-6909 operator mapping"
					},
					"mint(address,(uint256,uint256)[])": {
						"notice": "mints many types of tokens according to the `ops` array"
					},
					"mint(address,uint256,uint256)": {
						"notice": "mints single type tokens according to the TokenOp"
					},
					"transfer(address,uint256,uint256)": {
						"notice": "transfers `amount` of token `id` to `receiver`"
					}
				},
				"version": 1
			}
		}
	}
}