{
	"src/BlueprintManager.sol": {
		"BlueprintManager": {
			"abi": [
				{
					"inputs": [],
					"name": "AccessDenied",
					"type": "error"
				},
				{
					"inputs": [],
					"name": "BalanceDeltaOverflow",
					"type": "error"
				},
				{
					"inputs": [],
					"name": "InvalidChecksum",
					"type": "error"
				},
				{
					"inputs": [],
					"name": "NoFlashAccountingActive",
					"type": "error"
				},
				{
					"inputs": [],
					"name": "RealizeAccessDenied",
					"type": "error"
				},
				{
					"anonymous": false,
					"inputs": [
						{
							"indexed": true,
							"internalType": "address",
							"name": "owner",
							"type": "address"
						},
						{
							"indexed": true,
							"internalType": "address",
							"name": "spender",
							"type": "address"
						},
						{
							"indexed": true,
							"internalType": "uint256",
							"name": "id",
							"type": "uint256"
						},
						{
							"indexed": false,
							"internalType": "uint256",
							"name": "amount",
							"type": "uint256"
						}
					],
					"name": "Approval",
					"type": "event"
				},
				{
					"anonymous": false,
					"inputs": [
						{
							"indexed": true,
							"internalType": "address",
							"name": "from",
							"type": "address"
						},
						{
							"indexed": true,
							"internalType": "uint256",
							"name": "id",
							"type": "uint256"
						},
						{
							"indexed": false,
							"internalType": "uint256",
							"name": "amount",
							"type": "uint256"
						}
					],
					"name": "Burn",
					"type": "event"
				},
				{
					"anonymous": false,
					"inputs": [
						{
							"indexed": true,
							"internalType": "address",
							"name": "to",
							"type": "address"
						},
						{
							"indexed": true,
							"internalType": "uint256",
							"name": "id",
							"type": "uint256"
						},
						{
							"indexed": false,
							"internalType": "uint256",
							"name": "amount",
							"type": "uint256"
						}
					],
					"name": "Mint",
					"type": "event"
				},
				{
					"anonymous": false,
					"inputs": [
						{
							"indexed": true,
							"internalType": "address",
							"name": "owner",
							"type": "address"
						},
						{
							"indexed": true,
							"internalType": "address",
							"name": "operator",
							"type": "address"
						},
						{
							"indexed": false,
							"internalType": "bool",
							"name": "approved",
							"type": "bool"
						}
					],
					"name": "OperatorSet",
					"type": "event"
				},
				{
					"anonymous": false,
					"inputs": [
						{
							"indexed": true,
							"internalType": "address",
							"name": "from",
							"type": "address"
						},
						{
							"indexed": true,
							"internalType": "address",
							"name": "to",
							"type": "address"
						},
						{
							"indexed": true,
							"internalType": "uint256",
							"name": "id",
							"type": "uint256"
						},
						{
							"indexed": false,
							"internalType": "uint256",
							"name": "amount",
							"type": "uint256"
						}
					],
					"name": "Transfer",
					"type": "event"
				},
				{
					"inputs": [
						{
							"internalType": "address",
							"name": "",
							"type": "address"
						},
						{
							"internalType": "address",
							"name": "",
							"type": "address"
						},
						{
							"internalType": "uint256",
							"name": "",
							"type": "uint256"
						}
					],
					"name": "allowance",
					"outputs": [
						{
							"internalType": "uint256",
							"name": "",
							"type": "uint256"
						}
					],
					"stateMutability": "view",
					"type": "function"
				},
				{
					"inputs": [
						{
							"internalType": "address",
							"name": "spender",
							"type": "address"
						},
						{
							"internalType": "uint256",
							"name": "id",
							"type": "uint256"
						},
						{
							"internalType": "uint256",
							"name": "amount",
							"type": "uint256"
						}
					],
					"name": "approve",
					"outputs": [
						{
							"internalType": "bool",
							"name": "",
							"type": "bool"
						}
					],
					"stateMutability": "nonpayable",
					"type": "function"
				},
				{
					"inputs": [
						{
							"internalType": "address",
							"name": "",
							"type": "address"
						},
						{
							"internalType": "uint256",
							"name": "",
							"type": "uint256"
						}
					],
					"name": "balanceOf",
					"outputs": [
						{
							"internalType": "uint256",
							"name": "",
							"type": "uint256"
						}
					],
					"stateMutability": "view",
					"type": "function"
				},
				{
					"inputs": [
						{
							"components": [
								{
									"internalType": "uint256",
									"name": "tokenId",
									"type": "uint256"
								},
								{
									"internalType": "uint256",
									"name": "amount",
									"type": "uint256"
								}
							],
							"internalType": "struct TokenOp[]",
							"name": "ops",
							"type": "tuple[]"
						}
					],
					"name": "burn",
					"outputs": [],
					"stateMutability": "nonpayable",
					"type": "function"
				},
				{
					"inputs": [
						{
							"internalType": "uint256",
							"name": "tokenId",
							"type": "uint256"
						},
						{
							"internalType": "uint256",
							"name": "amount",
							"type": "uint256"
						}
					],
					"name": "burn",
					"outputs": [],
					"stateMutability": "nonpayable",
					"type": "function"
				},
				{
					"inputs": [
						{
							"components": [
								{
									"internalType": "address",
									"name": "sender",
									"type": "address"
								},
								{
									"internalType": "address",
									"name": "blueprint",
									"type": "address"
								},
								{
									"internalType": "bytes",
									"name": "action",
									"type": "bytes"
								},
								{
									"internalType": "bytes32",
									"name": "checksum",
									"type": "bytes32"
								}
							],
							"internalType": "struct BlueprintCall[]",
							"name": "calls",
							"type": "tuple[]"
						}
					],
					"name": "cook",
					"outputs": [],
					"stateMutability": "nonpayable",
					"type": "function"
				},
				{
					"inputs": [
						{
							"internalType": "address",
							"name": "realizer",
							"type": "address"
						},
						{
							"components": [
								{
									"internalType": "address",
									"name": "sender",
									"type": "address"
								},
								{
									"internalType": "address",
									"name": "blueprint",
									"type": "address"
								},
								{
									"internalType": "bytes",
									"name": "action",
									"type": "bytes"
								},
								{
									"internalType": "bytes32",
									"name": "checksum",
									"type": "bytes32"
								}
							],
							"internalType": "struct BlueprintCall[]",
							"name": "calls",
							"type": "tuple[]"
						}
					],
					"name": "cook",
					"outputs": [],
					"stateMutability": "nonpayable",
					"type": "function"
				},
				{
					"inputs": [
						{
							"components": [
								{
									"internalType": "uint256",
									"name": "tokenId",
									"type": "uint256"
								},
								{
									"internalType": "uint256",
									"name": "amount",
									"type": "uint256"
								}
							],
							"internalType": "struct TokenOp[]",
							"name": "ops",
							"type": "tuple[]"
						}
					],
					"name": "credit",
					"outputs": [],
					"stateMutability": "nonpayable",
					"type": "function"
				},
				{
					"inputs": [
						{
							"internalType": "uint256",
							"name": "id",
							"type": "uint256"
						},
						{
							"internalType": "uint256",
							"name": "amount",
							"type": "uint256"
						}
					],
					"name": "credit",
					"outputs": [],
					"stateMutability": "nonpayable",
					"type": "function"
				},
				{
					"inputs": [
						{
							"components": [
								{
									"internalType": "uint256",
									"name": "tokenId",
									"type": "uint256"
								},
								{
									"internalType": "uint256",
									"name": "amount",
									"type": "uint256"
								}
							],
							"internalType": "struct TokenOp[]",
							"name": "ops",
							"type": "tuple[]"
						}
					],
					"name": "debit",
					"outputs": [],
					"stateMutability": "nonpayable",
					"type": "function"
				},
				{
					"inputs": [
						{
							"internalType": "uint256",
							"name": "id",
							"type": "uint256"
						},
						{
							"internalType": "uint256",
							"name": "amount",
							"type": "uint256"
						}
					],
					"name": "debit",
					"outputs": [],
					"stateMutability": "nonpayable",
					"type": "function"
				},
				{
					"inputs": [
						{
							"internalType": "uint256",
							"name": "slot",
							"type": "uint256"
						}
					],
					"name": "exttload",
					"outputs": [
						{
							"internalType": "uint256",
							"name": "value",
							"type": "uint256"
						}
					],
					"stateMutability": "view",
					"type": "function"
				},
				{
					"inputs": [
						{
							"internalType": "address",
							"name": "",
							"type": "address"
						},
						{
							"internalType": "address",
							"name": "",
							"type": "address"
						}
					],
					"name": "isOperator",
					"outputs": [
						{
							"internalType": "bool",
							"name": "",
							"type": "bool"
						}
					],
					"stateMutability": "view",
					"type": "function"
				},
				{
					"inputs": [
						{
							"internalType": "address",
							"name": "to",
							"type": "address"
						},
						{
							"internalType": "uint256",
							"name": "tokenId",
							"type": "uint256"
						},
						{
							"internalType": "uint256",
							"name": "amount",
							"type": "uint256"
						}
					],
					"name": "mint",
					"outputs": [],
					"stateMutability": "nonpayable",
					"type": "function"
				},
				{
					"inputs": [
						{
							"internalType": "address",
							"name": "to",
							"type": "address"
						},
						{
							"components": [
								{
									"internalType": "uint256",
									"name": "tokenId",
									"type": "uint256"
								},
								{
									"internalType": "uint256",
									"name": "amount",
									"type": "uint256"
								}
							],
							"internalType": "struct TokenOp[]",
							"name": "ops",
							"type": "tuple[]"
						}
					],
					"name": "mint",
					"outputs": [],
					"stateMutability": "nonpayable",
					"type": "function"
				},
				{
					"inputs": [
						{
							"internalType": "address",
							"name": "operator",
							"type": "address"
						},
						{
							"internalType": "bool",
							"name": "approved",
							"type": "bool"
						}
					],
					"name": "setOperator",
					"outputs": [
						{
							"internalType": "bool",
							"name": "",
							"type": "bool"
						}
					],
					"stateMutability": "nonpayable",
					"type": "function"
				},
				{
					"inputs": [
						{
							"internalType": "address",
							"name": "receiver",
							"type": "address"
						},
						{
							"internalType": "uint256",
							"name": "id",
							"type": "uint256"
						},
						{
							"internalType": "uint256",
							"name": "amount",
							"type": "uint256"
						}
					],
					"name": "transfer",
					"outputs": [
						{
							"internalType": "bool",
							"name": "",
							"type": "bool"
						}
					],
					"stateMutability": "nonpayable",
					"type": "function"
				},
				{
					"inputs": [
						{
							"internalType": "address",
							"name": "sender",
							"type": "address"
						},
						{
							"internalType": "address",
							"name": "receiver",
							"type": "address"
						},
						{
							"internalType": "uint256",
							"name": "id",
							"type": "uint256"
						},
						{
							"internalType": "uint256",
							"name": "amount",
							"type": "uint256"
						}
					],
					"name": "transferFrom",
					"outputs": [
						{
							"internalType": "bool",
							"name": "",
							"type": "bool"
						}
					],
					"stateMutability": "nonpayable",
					"type": "function"
				}
			],
			"devdoc": {
				"kind": "dev",
				"methods": {
					"cook(address,(address,address,bytes,bytes32)[])": {
						"details": "must either be the party represented in each of these calls,      or an operator of the calls[i].sender",
						"params": {
							"calls": "the set of calls to be made"
						}
					},
					"mint(address,(uint256,uint256)[])": {
						"details": "keep in mind that burning (inverting this action) is only possible       via cook invoked by the user or their operator",
						"params": {
							"ops": "the array of Blueprint's token ids and amounts to mint",
							"to": "the address to mint to"
						}
					},
					"mint(address,uint256,uint256)": {
						"details": "keep in mind that burning (inverting this action) is only possible       via cook invoked by the user or their operator",
						"params": {
							"amount": "the token amount to mint",
							"to": "the address to mint to",
							"tokenId": "the Blueprint's token id to mint"
						}
					},
					"transfer(address,uint256,uint256)": {
						"details": "reverts on failure",
						"returns": {
							"_0": "is always true if didn't revert"
						}
					}
				},
				"version": 1
			},
			"evm": {
				"assembly": "    /* \"src/BlueprintManager.sol\":384:9023  contract BlueprintManager is IBlueprintManager, FlashAccounting {... */\n  mstore(0x40, 0x80)\n  callvalue\n  dup1\n  iszero\n  tag_1\n  jumpi\n  revert(0x00, 0x00)\ntag_1:\n  pop\n  dataSize(sub_0)\n  dup1\n  dataOffset(sub_0)\n  0x00\n  codecopy\n  0x00\n  return\nstop\n\nsub_0: assembly {\n        /* \"src/BlueprintManager.sol\":384:9023  contract BlueprintManager is IBlueprintManager, FlashAccounting {... */\n      mstore(0x40, 0x80)\n      callvalue\n      dup1\n      iszero\n      tag_1\n      jumpi\n      revert(0x00, 0x00)\n    tag_1:\n      pop\n      jumpi(tag_2, lt(calldatasize, 0x04))\n      shr(0xe0, calldataload(0x00))\n      dup1\n      0x62ba62e5\n      gt\n      tag_21\n      jumpi\n      dup1\n      0xb6363cf2\n      gt\n      tag_22\n      jumpi\n      dup1\n      0xb6363cf2\n      eq\n      tag_16\n      jumpi\n      dup1\n      0xe3033041\n      eq\n      tag_17\n      jumpi\n      dup1\n      0xe747f31c\n      eq\n      tag_18\n      jumpi\n      dup1\n      0xf3178dd1\n      eq\n      tag_19\n      jumpi\n      dup1\n      0xfe99049a\n      eq\n      tag_20\n      jumpi\n      jump(tag_2)\n    tag_22:\n      dup1\n      0x62ba62e5\n      eq\n      tag_12\n      jumpi\n      dup1\n      0xa42bff86\n      eq\n      tag_13\n      jumpi\n      dup1\n      0xab7ccc1c\n      eq\n      tag_14\n      jumpi\n      dup1\n      0xb390c0ab\n      eq\n      tag_15\n      jumpi\n      jump(tag_2)\n    tag_21:\n      dup1\n      0x36223ac2\n      gt\n      tag_23\n      jumpi\n      dup1\n      0x36223ac2\n      eq\n      tag_7\n      jumpi\n      dup1\n      0x426a8493\n      eq\n      tag_8\n      jumpi\n      dup1\n      0x52d2accf\n      eq\n      tag_9\n      jumpi\n      dup1\n      0x558a7297\n      eq\n      tag_10\n      jumpi\n      dup1\n      0x598af9e7\n      eq\n      tag_11\n      jumpi\n      jump(tag_2)\n    tag_23:\n      dup1\n      0xfdd58e\n      eq\n      tag_3\n      jumpi\n      dup1\n      0x095bcdb6\n      eq\n      tag_4\n      jumpi\n      dup1\n      0x156e29f6\n      eq\n      tag_5\n      jumpi\n      dup1\n      0x355f580e\n      eq\n      tag_6\n      jumpi\n    tag_2:\n      revert(0x00, 0x00)\n        /* \"src/BlueprintManager.sol\":643:707  mapping(address => mapping(uint256 => uint256)) public balanceOf */\n    tag_3:\n      tag_24\n      0x04\n      dup1\n      calldatasize\n      sub\n      dup2\n      add\n      swap1\n      tag_25\n      swap2\n      swap1\n      tag_26\n      jump\t// in\n    tag_25:\n      tag_27\n      jump\t// in\n    tag_24:\n      mload(0x40)\n      tag_28\n      swap2\n      swap1\n      tag_29\n      jump\t// in\n    tag_28:\n      mload(0x40)\n      dup1\n      swap2\n      sub\n      swap1\n      return\n        /* \"src/BlueprintManager.sol\":2413:2587  function transfer(... */\n    tag_4:\n      tag_30\n      0x04\n      dup1\n      calldatasize\n      sub\n      dup2\n      add\n      swap1\n      tag_31\n      swap2\n      swap1\n      tag_32\n      jump\t// in\n    tag_31:\n      tag_33\n      jump\t// in\n    tag_30:\n      mload(0x40)\n      tag_34\n      swap2\n      swap1\n      tag_35\n      jump\t// in\n    tag_34:\n      mload(0x40)\n      dup1\n      swap2\n      sub\n      swap1\n      return\n        /* \"src/BlueprintManager.sol\":8342:8476  function mint(address to, uint256 tokenId, uint256 amount) external {... */\n    tag_5:\n      tag_36\n      0x04\n      dup1\n      calldatasize\n      sub\n      dup2\n      add\n      swap1\n      tag_37\n      swap2\n      swap1\n      tag_32\n      jump\t// in\n    tag_37:\n      tag_38\n      jump\t// in\n    tag_36:\n      stop\n        /* \"src/BlueprintManager.sol\":6804:7312  function credit(TokenOp[] calldata ops) external {... */\n    tag_6:\n      tag_39\n      0x04\n      dup1\n      calldatasize\n      sub\n      dup2\n      add\n      swap1\n      tag_40\n      swap2\n      swap1\n      tag_41\n      jump\t// in\n    tag_40:\n      tag_42\n      jump\t// in\n    tag_39:\n      stop\n        /* \"src/BlueprintManager.sol\":8820:9021  function burn(TokenOp[] calldata ops) external {... */\n    tag_7:\n      tag_43\n      0x04\n      dup1\n      calldatasize\n      sub\n      dup2\n      add\n      swap1\n      tag_44\n      swap2\n      swap1\n      tag_41\n      jump\t// in\n    tag_44:\n      tag_45\n      jump\t// in\n    tag_43:\n      stop\n        /* \"src/BlueprintManager.sol\":2891:3108  function approve(... */\n    tag_8:\n      tag_46\n      0x04\n      dup1\n      calldatasize\n      sub\n      dup2\n      add\n      swap1\n      tag_47\n      swap2\n      swap1\n      tag_32\n      jump\t// in\n    tag_47:\n      tag_48\n      jump\t// in\n    tag_46:\n      mload(0x40)\n      tag_49\n      swap2\n      swap1\n      tag_35\n      jump\t// in\n    tag_49:\n      mload(0x40)\n      dup1\n      swap2\n      sub\n      swap1\n      return\n        /* \"src/BlueprintManager.sol\":3625:3831  function cook(BlueprintCall[] calldata calls) external {... */\n    tag_9:\n      tag_50\n      0x04\n      dup1\n      calldatasize\n      sub\n      dup2\n      add\n      swap1\n      tag_51\n      swap2\n      swap1\n      tag_52\n      jump\t// in\n    tag_51:\n      tag_53\n      jump\t// in\n    tag_50:\n      stop\n        /* \"src/BlueprintManager.sol\":3111:3320  function setOperator(... */\n    tag_10:\n      tag_54\n      0x04\n      dup1\n      calldatasize\n      sub\n      dup2\n      add\n      swap1\n      tag_55\n      swap2\n      swap1\n      tag_56\n      jump\t// in\n    tag_55:\n      tag_57\n      jump\t// in\n    tag_54:\n      mload(0x40)\n      tag_58\n      swap2\n      swap1\n      tag_35\n      jump\t// in\n    tag_58:\n      mload(0x40)\n      dup1\n      swap2\n      sub\n      swap1\n      return\n        /* \"src/BlueprintManager.sol\":750:834  mapping(address => mapping(address => mapping(uint256 => uint256))) public allowance */\n    tag_11:\n      tag_59\n      0x04\n      dup1\n      calldatasize\n      sub\n      dup2\n      add\n      swap1\n      tag_60\n      swap2\n      swap1\n      tag_61\n      jump\t// in\n    tag_60:\n      tag_62\n      jump\t// in\n    tag_59:\n      mload(0x40)\n      tag_63\n      swap2\n      swap1\n      tag_29\n      jump\t// in\n    tag_63:\n      mload(0x40)\n      dup1\n      swap2\n      sub\n      swap1\n      return\n        /* \"src/BlueprintManager.sol\":3323:3622  function cook(address realizer, BlueprintCall[] calldata calls) external {... */\n    tag_12:\n      tag_64\n      0x04\n      dup1\n      calldatasize\n      sub\n      dup2\n      add\n      swap1\n      tag_65\n      swap2\n      swap1\n      tag_66\n      jump\t// in\n    tag_65:\n      tag_67\n      jump\t// in\n    tag_64:\n      stop\n        /* \"src/FlashAccounting.sol\":743:874  function exttload(uint256 slot) external view returns (uint256 value) {... */\n    tag_13:\n      tag_68\n      0x04\n      dup1\n      calldatasize\n      sub\n      dup2\n      add\n      swap1\n      tag_69\n      swap2\n      swap1\n      tag_70\n      jump\t// in\n    tag_69:\n      tag_71\n      jump\t// in\n    tag_68:\n      mload(0x40)\n      tag_72\n      swap2\n      swap1\n      tag_29\n      jump\t// in\n    tag_72:\n      mload(0x40)\n      dup1\n      swap2\n      sub\n      swap1\n      return\n        /* \"src/BlueprintManager.sol\":6372:6801  function credit(uint256 id, uint256 amount) external {... */\n    tag_14:\n      tag_73\n      0x04\n      dup1\n      calldatasize\n      sub\n      dup2\n      add\n      swap1\n      tag_74\n      swap2\n      swap1\n      tag_75\n      jump\t// in\n    tag_74:\n      tag_76\n      jump\t// in\n    tag_73:\n      stop\n        /* \"src/BlueprintManager.sol\":8687:8817  function burn(uint256 tokenId, uint256 amount) external {... */\n    tag_15:\n      tag_77\n      0x04\n      dup1\n      calldatasize\n      sub\n      dup2\n      add\n      swap1\n      tag_78\n      swap2\n      swap1\n      tag_75\n      jump\t// in\n    tag_78:\n      tag_79\n      jump\t// in\n    tag_77:\n      stop\n        /* \"src/BlueprintManager.sol\":540:602  mapping(address => mapping(address => bool)) public isOperator */\n    tag_16:\n      tag_80\n      0x04\n      dup1\n      calldatasize\n      sub\n      dup2\n      add\n      swap1\n      tag_81\n      swap2\n      swap1\n      tag_82\n      jump\t// in\n    tag_81:\n      tag_83\n      jump\t// in\n    tag_80:\n      mload(0x40)\n      tag_84\n      swap2\n      swap1\n      tag_35\n      jump\t// in\n    tag_84:\n      mload(0x40)\n      dup1\n      swap2\n      sub\n      swap1\n      return\n        /* \"src/BlueprintManager.sol\":7831:8339  function debit(TokenOp[] calldata ops) external {... */\n    tag_17:\n      tag_85\n      0x04\n      dup1\n      calldatasize\n      sub\n      dup2\n      add\n      swap1\n      tag_86\n      swap2\n      swap1\n      tag_41\n      jump\t// in\n    tag_86:\n      tag_87\n      jump\t// in\n    tag_85:\n      stop\n        /* \"src/BlueprintManager.sol\":7357:7786  function debit(uint256 id, uint256 amount) external {... */\n    tag_18:\n      tag_88\n      0x04\n      dup1\n      calldatasize\n      sub\n      dup2\n      add\n      swap1\n      tag_89\n      swap2\n      swap1\n      tag_75\n      jump\t// in\n    tag_89:\n      tag_90\n      jump\t// in\n    tag_88:\n      stop\n        /* \"src/BlueprintManager.sol\":8479:8684  function mint(address to, TokenOp[] calldata ops) external {... */\n    tag_19:\n      tag_91\n      0x04\n      dup1\n      calldatasize\n      sub\n      dup2\n      add\n      swap1\n      tag_92\n      swap2\n      swap1\n      tag_93\n      jump\t// in\n    tag_92:\n      tag_94\n      jump\t// in\n    tag_91:\n      stop\n        /* \"src/BlueprintManager.sol\":2590:2888  function transferFrom(... */\n    tag_20:\n      tag_95\n      0x04\n      dup1\n      calldatasize\n      sub\n      dup2\n      add\n      swap1\n      tag_96\n      swap2\n      swap1\n      tag_97\n      jump\t// in\n    tag_96:\n      tag_98\n      jump\t// in\n    tag_95:\n      mload(0x40)\n      tag_99\n      swap2\n      swap1\n      tag_35\n      jump\t// in\n    tag_99:\n      mload(0x40)\n      dup1\n      swap2\n      sub\n      swap1\n      return\n        /* \"src/BlueprintManager.sol\":643:707  mapping(address => mapping(uint256 => uint256)) public balanceOf */\n    tag_27:\n      mstore(0x20, 0x01)\n      dup2\n      0x00\n      mstore\n      mstore(0x20, keccak256(0x00, 0x40))\n      dup1\n      0x00\n      mstore\n      keccak256(0x00, 0x40)\n      0x00\n      swap2\n      pop\n      swap2\n      pop\n      pop\n      sload\n      dup2\n      jump\t// out\n        /* \"src/BlueprintManager.sol\":2413:2587  function transfer(... */\n    tag_33:\n        /* \"src/BlueprintManager.sol\":2510:2514  bool */\n      0x00\n        /* \"src/BlueprintManager.sol\":2520:2567  _transferFrom(msg.sender, receiver, id, amount) */\n      tag_101\n        /* \"src/BlueprintManager.sol\":2534:2544  msg.sender */\n      caller\n        /* \"src/BlueprintManager.sol\":2546:2554  receiver */\n      dup6\n        /* \"src/BlueprintManager.sol\":2556:2558  id */\n      dup6\n        /* \"src/BlueprintManager.sol\":2560:2566  amount */\n      dup6\n        /* \"src/BlueprintManager.sol\":2520:2533  _transferFrom */\n      tag_102\n        /* \"src/BlueprintManager.sol\":2520:2567  _transferFrom(msg.sender, receiver, id, amount) */\n      jump\t// in\n    tag_101:\n        /* \"src/BlueprintManager.sol\":2579:2583  true */\n      0x01\n        /* \"src/BlueprintManager.sol\":2572:2583  return true */\n      swap1\n      pop\n        /* \"src/BlueprintManager.sol\":2413:2587  function transfer(... */\n      swap4\n      swap3\n      pop\n      pop\n      pop\n      jump\t// out\n        /* \"src/BlueprintManager.sol\":8342:8476  function mint(address to, uint256 tokenId, uint256 amount) external {... */\n    tag_38:\n        /* \"src/BlueprintManager.sol\":8414:8472  _mint(to, HashLib.getTokenId(msg.sender, tokenId), amount) */\n      tag_104\n        /* \"src/BlueprintManager.sol\":8420:8422  to */\n      dup4\n        /* \"src/BlueprintManager.sol\":8424:8463  HashLib.getTokenId(msg.sender, tokenId) */\n      tag_105\n        /* \"src/BlueprintManager.sol\":8443:8453  msg.sender */\n      caller\n        /* \"src/BlueprintManager.sol\":8455:8462  tokenId */\n      dup6\n        /* \"src/BlueprintManager.sol\":8424:8442  HashLib.getTokenId */\n      tag_106\n        /* \"src/BlueprintManager.sol\":8424:8463  HashLib.getTokenId(msg.sender, tokenId) */\n      jump\t// in\n    tag_105:\n        /* \"src/BlueprintManager.sol\":8465:8471  amount */\n      dup4\n        /* \"src/BlueprintManager.sol\":8414:8419  _mint */\n      tag_107\n        /* \"src/BlueprintManager.sol\":8414:8472  _mint(to, HashLib.getTokenId(msg.sender, tokenId), amount) */\n      jump\t// in\n    tag_104:\n        /* \"src/BlueprintManager.sol\":8342:8476  function mint(address to, uint256 tokenId, uint256 amount) external {... */\n      pop\n      pop\n      pop\n      jump\t// out\n        /* \"src/BlueprintManager.sol\":6804:7312  function credit(TokenOp[] calldata ops) external {... */\n    tag_42:\n        /* \"src/BlueprintManager.sol\":6857:6877  FlashSession session */\n      0x00\n        /* \"src/BlueprintManager.sol\":6880:6899  getCurrentSession() */\n      tag_109\n        /* \"src/BlueprintManager.sol\":6880:6897  getCurrentSession */\n      tag_110\n        /* \"src/BlueprintManager.sol\":6880:6899  getCurrentSession() */\n      jump\t// in\n    tag_109:\n        /* \"src/BlueprintManager.sol\":6857:6899  FlashSession session = getCurrentSession() */\n      swap1\n      pop\n        /* \"src/BlueprintManager.sol\":6905:6933  FlashUserSession userSession */\n      0x00\n        /* \"src/BlueprintManager.sol\":6935:6952  UserClue userClue */\n      0x00\n        /* \"src/BlueprintManager.sol\":6959:7001  initializeUserSession(session, msg.sender) */\n      tag_111\n        /* \"src/BlueprintManager.sol\":6981:6988  session */\n      dup4\n        /* \"src/BlueprintManager.sol\":6990:7000  msg.sender */\n      caller\n        /* \"src/BlueprintManager.sol\":6959:6980  initializeUserSession */\n      tag_112\n        /* \"src/BlueprintManager.sol\":6959:7001  initializeUserSession(session, msg.sender) */\n      jump\t// in\n    tag_111:\n        /* \"src/BlueprintManager.sol\":6904:7001  (FlashUserSession userSession, UserClue userClue) =... */\n      swap2\n      pop\n      swap2\n      pop\n        /* \"src/BlueprintManager.sol\":7006:7017  uint256 len */\n      0x00\n        /* \"src/BlueprintManager.sol\":7020:7023  ops */\n      dup6\n      dup6\n        /* \"src/BlueprintManager.sol\":7020:7030  ops.length */\n      swap1\n      pop\n        /* \"src/BlueprintManager.sol\":7006:7030  uint256 len = ops.length */\n      swap1\n      pop\n        /* \"src/BlueprintManager.sol\":7039:7048  uint256 i */\n      0x00\n        /* \"src/BlueprintManager.sol\":7051:7052  0 */\n      0x00\n        /* \"src/BlueprintManager.sol\":7039:7052  uint256 i = 0 */\n      swap1\n      pop\n        /* \"src/BlueprintManager.sol\":7034:7270  for (uint256 i = 0; i < len; i++) {... */\n    tag_113:\n        /* \"src/BlueprintManager.sol\":7058:7061  len */\n      dup2\n        /* \"src/BlueprintManager.sol\":7054:7055  i */\n      dup2\n        /* \"src/BlueprintManager.sol\":7054:7061  i < len */\n      lt\n        /* \"src/BlueprintManager.sol\":7034:7270  for (uint256 i = 0; i < len; i++) {... */\n      iszero\n      tag_114\n      jumpi\n        /* \"src/BlueprintManager.sol\":7073:7092  TokenOp calldata op */\n      calldatasize\n        /* \"src/BlueprintManager.sol\":7095:7098  ops */\n      dup8\n      dup8\n        /* \"src/BlueprintManager.sol\":7099:7100  i */\n      dup4\n        /* \"src/BlueprintManager.sol\":7095:7101  ops[i] */\n      dup2\n      dup2\n      lt\n      tag_116\n      jumpi\n      tag_117\n      tag_118\n      jump\t// in\n    tag_117:\n    tag_116:\n      swap1\n      pop\n      0x40\n      mul\n      add\n        /* \"src/BlueprintManager.sol\":7073:7101  TokenOp calldata op = ops[i] */\n      swap1\n      pop\n        /* \"src/BlueprintManager.sol\":7106:7116  uint256 id */\n      0x00\n        /* \"src/BlueprintManager.sol\":7119:7121  op */\n      dup2\n        /* \"src/BlueprintManager.sol\":7119:7129  op.tokenId */\n      0x00\n      add\n      calldataload\n        /* \"src/BlueprintManager.sol\":7106:7129  uint256 id = op.tokenId */\n      swap1\n      pop\n        /* \"src/BlueprintManager.sol\":7134:7148  uint256 amount */\n      0x00\n        /* \"src/BlueprintManager.sol\":7151:7153  op */\n      dup3\n        /* \"src/BlueprintManager.sol\":7151:7160  op.amount */\n      0x20\n      add\n      calldataload\n        /* \"src/BlueprintManager.sol\":7134:7160  uint256 amount = op.amount */\n      swap1\n      pop\n        /* \"src/BlueprintManager.sol\":7176:7231  addUserDebitWithClue(userSession, userClue, id, amount) */\n      tag_119\n        /* \"src/BlueprintManager.sol\":7197:7208  userSession */\n      dup8\n        /* \"src/BlueprintManager.sol\":7210:7218  userClue */\n      dup8\n        /* \"src/BlueprintManager.sol\":7220:7222  id */\n      dup5\n        /* \"src/BlueprintManager.sol\":7224:7230  amount */\n      dup5\n        /* \"src/BlueprintManager.sol\":7176:7196  addUserDebitWithClue */\n      tag_120\n        /* \"src/BlueprintManager.sol\":7176:7231  addUserDebitWithClue(userSession, userClue, id, amount) */\n      jump\t// in\n    tag_119:\n        /* \"src/BlueprintManager.sol\":7165:7231  userClue = addUserDebitWithClue(userSession, userClue, id, amount) */\n      swap6\n      pop\n        /* \"src/BlueprintManager.sol\":7236:7265  _mint(msg.sender, id, amount) */\n      tag_121\n        /* \"src/BlueprintManager.sol\":7242:7252  msg.sender */\n      caller\n        /* \"src/BlueprintManager.sol\":7254:7256  id */\n      dup4\n        /* \"src/BlueprintManager.sol\":7258:7264  amount */\n      dup4\n        /* \"src/BlueprintManager.sol\":7236:7241  _mint */\n      tag_107\n        /* \"src/BlueprintManager.sol\":7236:7265  _mint(msg.sender, id, amount) */\n      jump\t// in\n    tag_121:\n        /* \"src/BlueprintManager.sol\":7068:7270  {... */\n      pop\n      pop\n      pop\n        /* \"src/BlueprintManager.sol\":7063:7066  i++ */\n      dup1\n      dup1\n      0x01\n      add\n      swap2\n      pop\n      pop\n        /* \"src/BlueprintManager.sol\":7034:7270  for (uint256 i = 0; i < len; i++) {... */\n      jump(tag_113)\n    tag_114:\n      pop\n        /* \"src/BlueprintManager.sol\":7273:7308  saveUserClue(userSession, userClue) */\n      tag_122\n        /* \"src/BlueprintManager.sol\":7286:7297  userSession */\n      dup4\n        /* \"src/BlueprintManager.sol\":7299:7307  userClue */\n      dup4\n        /* \"src/BlueprintManager.sol\":7273:7285  saveUserClue */\n      tag_123\n        /* \"src/BlueprintManager.sol\":7273:7308  saveUserClue(userSession, userClue) */\n      jump\t// in\n    tag_122:\n        /* \"src/BlueprintManager.sol\":6853:7312  {... */\n      pop\n      pop\n      pop\n      pop\n        /* \"src/BlueprintManager.sol\":6804:7312  function credit(TokenOp[] calldata ops) external {... */\n      pop\n      pop\n      jump\t// out\n        /* \"src/BlueprintManager.sol\":8820:9021  function burn(TokenOp[] calldata ops) external {... */\n    tag_45:\n        /* \"src/BlueprintManager.sol\":8871:8882  uint256 len */\n      0x00\n        /* \"src/BlueprintManager.sol\":8885:8888  ops */\n      dup3\n      dup3\n        /* \"src/BlueprintManager.sol\":8885:8895  ops.length */\n      swap1\n      pop\n        /* \"src/BlueprintManager.sol\":8871:8895  uint256 len = ops.length */\n      swap1\n      pop\n        /* \"src/BlueprintManager.sol\":8905:8914  uint256 i */\n      0x00\n        /* \"src/BlueprintManager.sol\":8917:8918  0 */\n      0x00\n        /* \"src/BlueprintManager.sol\":8905:8918  uint256 i = 0 */\n      swap1\n      pop\n        /* \"src/BlueprintManager.sol\":8900:9017  for (uint256 i = 0; i < len; i++)... */\n    tag_125:\n        /* \"src/BlueprintManager.sol\":8924:8927  len */\n      dup2\n        /* \"src/BlueprintManager.sol\":8920:8921  i */\n      dup2\n        /* \"src/BlueprintManager.sol\":8920:8927  i < len */\n      lt\n        /* \"src/BlueprintManager.sol\":8900:9017  for (uint256 i = 0; i < len; i++)... */\n      iszero\n      tag_126\n      jumpi\n        /* \"src/BlueprintManager.sol\":8937:9017  _burn(msg.sender, HashLib.getTokenId(msg.sender, ops[i].tokenId), ops[i].amount) */\n      tag_128\n        /* \"src/BlueprintManager.sol\":8943:8953  msg.sender */\n      caller\n        /* \"src/BlueprintManager.sol\":8955:9001  HashLib.getTokenId(msg.sender, ops[i].tokenId) */\n      tag_129\n        /* \"src/BlueprintManager.sol\":8974:8984  msg.sender */\n      caller\n        /* \"src/BlueprintManager.sol\":8986:8989  ops */\n      dup8\n      dup8\n        /* \"src/BlueprintManager.sol\":8990:8991  i */\n      dup7\n        /* \"src/BlueprintManager.sol\":8986:8992  ops[i] */\n      dup2\n      dup2\n      lt\n      tag_130\n      jumpi\n      tag_131\n      tag_118\n      jump\t// in\n    tag_131:\n    tag_130:\n      swap1\n      pop\n      0x40\n      mul\n      add\n        /* \"src/BlueprintManager.sol\":8986:9000  ops[i].tokenId */\n      0x00\n      add\n      calldataload\n        /* \"src/BlueprintManager.sol\":8955:8973  HashLib.getTokenId */\n      tag_106\n        /* \"src/BlueprintManager.sol\":8955:9001  HashLib.getTokenId(msg.sender, ops[i].tokenId) */\n      jump\t// in\n    tag_129:\n        /* \"src/BlueprintManager.sol\":9003:9006  ops */\n      dup7\n      dup7\n        /* \"src/BlueprintManager.sol\":9007:9008  i */\n      dup6\n        /* \"src/BlueprintManager.sol\":9003:9009  ops[i] */\n      dup2\n      dup2\n      lt\n      tag_132\n      jumpi\n      tag_133\n      tag_118\n      jump\t// in\n    tag_133:\n    tag_132:\n      swap1\n      pop\n      0x40\n      mul\n      add\n        /* \"src/BlueprintManager.sol\":9003:9016  ops[i].amount */\n      0x20\n      add\n      calldataload\n        /* \"src/BlueprintManager.sol\":8937:8942  _burn */\n      tag_134\n        /* \"src/BlueprintManager.sol\":8937:9017  _burn(msg.sender, HashLib.getTokenId(msg.sender, ops[i].tokenId), ops[i].amount) */\n      jump\t// in\n    tag_128:\n        /* \"src/BlueprintManager.sol\":8929:8932  i++ */\n      dup1\n      dup1\n      0x01\n      add\n      swap2\n      pop\n      pop\n        /* \"src/BlueprintManager.sol\":8900:9017  for (uint256 i = 0; i < len; i++)... */\n      jump(tag_125)\n    tag_126:\n      pop\n        /* \"src/BlueprintManager.sol\":8867:9021  {... */\n      pop\n        /* \"src/BlueprintManager.sol\":8820:9021  function burn(TokenOp[] calldata ops) external {... */\n      pop\n      pop\n      jump\t// out\n        /* \"src/BlueprintManager.sol\":2891:3108  function approve(... */\n    tag_48:\n        /* \"src/BlueprintManager.sol\":2986:2990  bool */\n      0x00\n        /* \"src/BlueprintManager.sol\":3033:3039  amount */\n      dup2\n        /* \"src/BlueprintManager.sol\":2996:3005  allowance */\n      0x02\n        /* \"src/BlueprintManager.sol\":2996:3017  allowance[msg.sender] */\n      0x00\n        /* \"src/BlueprintManager.sol\":3006:3016  msg.sender */\n      caller\n        /* \"src/BlueprintManager.sol\":2996:3017  allowance[msg.sender] */\n      0xffffffffffffffffffffffffffffffffffffffff\n      and\n      0xffffffffffffffffffffffffffffffffffffffff\n      and\n      dup2\n      mstore\n      0x20\n      add\n      swap1\n      dup2\n      mstore\n      0x20\n      add\n      0x00\n      keccak256\n        /* \"src/BlueprintManager.sol\":2996:3026  allowance[msg.sender][spender] */\n      0x00\n        /* \"src/BlueprintManager.sol\":3018:3025  spender */\n      dup7\n        /* \"src/BlueprintManager.sol\":2996:3026  allowance[msg.sender][spender] */\n      0xffffffffffffffffffffffffffffffffffffffff\n      and\n      0xffffffffffffffffffffffffffffffffffffffff\n      and\n      dup2\n      mstore\n      0x20\n      add\n      swap1\n      dup2\n      mstore\n      0x20\n      add\n      0x00\n      keccak256\n        /* \"src/BlueprintManager.sol\":2996:3030  allowance[msg.sender][spender][id] */\n      0x00\n        /* \"src/BlueprintManager.sol\":3027:3029  id */\n      dup6\n        /* \"src/BlueprintManager.sol\":2996:3030  allowance[msg.sender][spender][id] */\n      dup2\n      mstore\n      0x20\n      add\n      swap1\n      dup2\n      mstore\n      0x20\n      add\n      0x00\n      keccak256\n        /* \"src/BlueprintManager.sol\":2996:3039  allowance[msg.sender][spender][id] = amount */\n      dup2\n      swap1\n      sstore\n      pop\n        /* \"src/BlueprintManager.sol\":3078:3080  id */\n      dup3\n        /* \"src/BlueprintManager.sol\":3069:3076  spender */\n      dup5\n        /* \"src/BlueprintManager.sol\":3048:3089  Approval(msg.sender, spender, id, amount) */\n      0xffffffffffffffffffffffffffffffffffffffff\n      and\n        /* \"src/BlueprintManager.sol\":3057:3067  msg.sender */\n      caller\n        /* \"src/BlueprintManager.sol\":3048:3089  Approval(msg.sender, spender, id, amount) */\n      0xffffffffffffffffffffffffffffffffffffffff\n      and\n      0xb3fd5071835887567a0671151121894ddccc2842f1d10bedad13e0d17cace9a7\n        /* \"src/BlueprintManager.sol\":3082:3088  amount */\n      dup6\n        /* \"src/BlueprintManager.sol\":3048:3089  Approval(msg.sender, spender, id, amount) */\n      mload(0x40)\n      tag_136\n      swap2\n      swap1\n      tag_29\n      jump\t// in\n    tag_136:\n      mload(0x40)\n      dup1\n      swap2\n      sub\n      swap1\n      log4\n        /* \"src/BlueprintManager.sol\":3100:3104  true */\n      0x01\n        /* \"src/BlueprintManager.sol\":3093:3104  return true */\n      swap1\n      pop\n        /* \"src/BlueprintManager.sol\":2891:3108  function approve(... */\n      swap4\n      swap3\n      pop\n      pop\n      pop\n      jump\t// out\n        /* \"src/BlueprintManager.sol\":3625:3831  function cook(BlueprintCall[] calldata calls) external {... */\n    tag_53:\n        /* \"src/BlueprintManager.sol\":3684:3704  FlashSession session */\n      0x00\n        /* \"src/BlueprintManager.sol\":3707:3726  getCurrentSession() */\n      tag_138\n        /* \"src/BlueprintManager.sol\":3707:3724  getCurrentSession */\n      tag_110\n        /* \"src/BlueprintManager.sol\":3707:3726  getCurrentSession() */\n      jump\t// in\n    tag_138:\n        /* \"src/BlueprintManager.sol\":3684:3726  FlashSession session = getCurrentSession() */\n      swap1\n      pop\n        /* \"src/BlueprintManager.sol\":3731:3742  uint256 len */\n      0x00\n        /* \"src/BlueprintManager.sol\":3745:3750  calls */\n      dup4\n      dup4\n        /* \"src/BlueprintManager.sol\":3745:3757  calls.length */\n      swap1\n      pop\n        /* \"src/BlueprintManager.sol\":3731:3757  uint256 len = calls.length */\n      swap1\n      pop\n        /* \"src/BlueprintManager.sol\":3766:3775  uint256 k */\n      0x00\n        /* \"src/BlueprintManager.sol\":3778:3779  0 */\n      0x00\n        /* \"src/BlueprintManager.sol\":3766:3779  uint256 k = 0 */\n      swap1\n      pop\n        /* \"src/BlueprintManager.sol\":3761:3827  for (uint256 k = 0; k < len; k++)... */\n    tag_139:\n        /* \"src/BlueprintManager.sol\":3785:3788  len */\n      dup2\n        /* \"src/BlueprintManager.sol\":3781:3782  k */\n      dup2\n        /* \"src/BlueprintManager.sol\":3781:3788  k < len */\n      lt\n        /* \"src/BlueprintManager.sol\":3761:3827  for (uint256 k = 0; k < len; k++)... */\n      iszero\n      tag_140\n      jumpi\n        /* \"src/BlueprintManager.sol\":3798:3827  _flashCook(calls[k], session) */\n      tag_142\n        /* \"src/BlueprintManager.sol\":3809:3814  calls */\n      dup6\n      dup6\n        /* \"src/BlueprintManager.sol\":3815:3816  k */\n      dup4\n        /* \"src/BlueprintManager.sol\":3809:3817  calls[k] */\n      dup2\n      dup2\n      lt\n      tag_143\n      jumpi\n      tag_144\n      tag_118\n      jump\t// in\n    tag_144:\n    tag_143:\n      swap1\n      pop\n      0x20\n      mul\n      dup2\n      add\n      swap1\n      tag_145\n      swap2\n      swap1\n      tag_146\n      jump\t// in\n    tag_145:\n        /* \"src/BlueprintManager.sol\":3819:3826  session */\n      dup5\n        /* \"src/BlueprintManager.sol\":3798:3808  _flashCook */\n      tag_147\n        /* \"src/BlueprintManager.sol\":3798:3827  _flashCook(calls[k], session) */\n      jump\t// in\n    tag_142:\n        /* \"src/BlueprintManager.sol\":3790:3793  k++ */\n      dup1\n      dup1\n      0x01\n      add\n      swap2\n      pop\n      pop\n        /* \"src/BlueprintManager.sol\":3761:3827  for (uint256 k = 0; k < len; k++)... */\n      jump(tag_139)\n    tag_140:\n      pop\n        /* \"src/BlueprintManager.sol\":3680:3831  {... */\n      pop\n      pop\n        /* \"src/BlueprintManager.sol\":3625:3831  function cook(BlueprintCall[] calldata calls) external {... */\n      pop\n      pop\n      jump\t// out\n        /* \"src/BlueprintManager.sol\":3111:3320  function setOperator(... */\n    tag_57:\n        /* \"src/BlueprintManager.sol\":3196:3200  bool */\n      0x00\n        /* \"src/BlueprintManager.sol\":3241:3249  approved */\n      dup2\n        /* \"src/BlueprintManager.sol\":3206:3216  isOperator */\n      0x00\n        /* \"src/BlueprintManager.sol\":3206:3228  isOperator[msg.sender] */\n      0x00\n        /* \"src/BlueprintManager.sol\":3217:3227  msg.sender */\n      caller\n        /* \"src/BlueprintManager.sol\":3206:3228  isOperator[msg.sender] */\n      0xffffffffffffffffffffffffffffffffffffffff\n      and\n      0xffffffffffffffffffffffffffffffffffffffff\n      and\n      dup2\n      mstore\n      0x20\n      add\n      swap1\n      dup2\n      mstore\n      0x20\n      add\n      0x00\n      keccak256\n        /* \"src/BlueprintManager.sol\":3206:3238  isOperator[msg.sender][operator] */\n      0x00\n        /* \"src/BlueprintManager.sol\":3229:3237  operator */\n      dup6\n        /* \"src/BlueprintManager.sol\":3206:3238  isOperator[msg.sender][operator] */\n      0xffffffffffffffffffffffffffffffffffffffff\n      and\n      0xffffffffffffffffffffffffffffffffffffffff\n      and\n      dup2\n      mstore\n      0x20\n      add\n      swap1\n      dup2\n      mstore\n      0x20\n      add\n      0x00\n      keccak256\n      0x00\n        /* \"src/BlueprintManager.sol\":3206:3249  isOperator[msg.sender][operator] = approved */\n      0x0100\n      exp\n      dup2\n      sload\n      dup2\n      0xff\n      mul\n      not\n      and\n      swap1\n      dup4\n      iszero\n      iszero\n      mul\n      or\n      swap1\n      sstore\n      pop\n        /* \"src/BlueprintManager.sol\":3282:3290  operator */\n      dup3\n        /* \"src/BlueprintManager.sol\":3258:3301  OperatorSet(msg.sender, operator, approved) */\n      0xffffffffffffffffffffffffffffffffffffffff\n      and\n        /* \"src/BlueprintManager.sol\":3270:3280  msg.sender */\n      caller\n        /* \"src/BlueprintManager.sol\":3258:3301  OperatorSet(msg.sender, operator, approved) */\n      0xffffffffffffffffffffffffffffffffffffffff\n      and\n      0xceb576d9f15e4e200fdb5096d64d5dfd667e16def20c1eefd14256d8e3faa267\n        /* \"src/BlueprintManager.sol\":3292:3300  approved */\n      dup5\n        /* \"src/BlueprintManager.sol\":3258:3301  OperatorSet(msg.sender, operator, approved) */\n      mload(0x40)\n      tag_149\n      swap2\n      swap1\n      tag_35\n      jump\t// in\n    tag_149:\n      mload(0x40)\n      dup1\n      swap2\n      sub\n      swap1\n      log3\n        /* \"src/BlueprintManager.sol\":3312:3316  true */\n      0x01\n        /* \"src/BlueprintManager.sol\":3305:3316  return true */\n      swap1\n      pop\n        /* \"src/BlueprintManager.sol\":3111:3320  function setOperator(... */\n      swap3\n      swap2\n      pop\n      pop\n      jump\t// out\n        /* \"src/BlueprintManager.sol\":750:834  mapping(address => mapping(address => mapping(uint256 => uint256))) public allowance */\n    tag_62:\n      mstore(0x20, 0x02)\n      dup3\n      0x00\n      mstore\n      mstore(0x20, keccak256(0x00, 0x40))\n      dup2\n      0x00\n      mstore\n      mstore(0x20, keccak256(0x00, 0x40))\n      dup1\n      0x00\n      mstore\n      keccak256(0x00, 0x40)\n      0x00\n      swap3\n      pop\n      swap3\n      pop\n      pop\n      pop\n      sload\n      dup2\n      jump\t// out\n        /* \"src/BlueprintManager.sol\":3323:3622  function cook(address realizer, BlueprintCall[] calldata calls) external {... */\n    tag_67:\n        /* \"src/BlueprintManager.sol\":3401:3421  FlashSession session */\n      0x00\n        /* \"src/BlueprintManager.sol\":3423:3440  MainClue mainClue */\n      0x00\n        /* \"src/BlueprintManager.sol\":3444:3473  openFlashAccounting(realizer) */\n      tag_151\n        /* \"src/BlueprintManager.sol\":3464:3472  realizer */\n      dup6\n        /* \"src/BlueprintManager.sol\":3444:3463  openFlashAccounting */\n      tag_152\n        /* \"src/BlueprintManager.sol\":3444:3473  openFlashAccounting(realizer) */\n      jump\t// in\n    tag_151:\n        /* \"src/BlueprintManager.sol\":3400:3473  (FlashSession session, MainClue mainClue) = openFlashAccounting(realizer) */\n      swap2\n      pop\n      swap2\n      pop\n        /* \"src/BlueprintManager.sol\":3478:3489  uint256 len */\n      0x00\n        /* \"src/BlueprintManager.sol\":3492:3497  calls */\n      dup5\n      dup5\n        /* \"src/BlueprintManager.sol\":3492:3504  calls.length */\n      swap1\n      pop\n        /* \"src/BlueprintManager.sol\":3478:3504  uint256 len = calls.length */\n      swap1\n      pop\n        /* \"src/BlueprintManager.sol\":3513:3522  uint256 k */\n      0x00\n        /* \"src/BlueprintManager.sol\":3525:3526  0 */\n      0x00\n        /* \"src/BlueprintManager.sol\":3513:3526  uint256 k = 0 */\n      swap1\n      pop\n        /* \"src/BlueprintManager.sol\":3508:3574  for (uint256 k = 0; k < len; k++)... */\n    tag_153:\n        /* \"src/BlueprintManager.sol\":3532:3535  len */\n      dup2\n        /* \"src/BlueprintManager.sol\":3528:3529  k */\n      dup2\n        /* \"src/BlueprintManager.sol\":3528:3535  k < len */\n      lt\n        /* \"src/BlueprintManager.sol\":3508:3574  for (uint256 k = 0; k < len; k++)... */\n      iszero\n      tag_154\n      jumpi\n        /* \"src/BlueprintManager.sol\":3545:3574  _flashCook(calls[k], session) */\n      tag_156\n        /* \"src/BlueprintManager.sol\":3556:3561  calls */\n      dup7\n      dup7\n        /* \"src/BlueprintManager.sol\":3562:3563  k */\n      dup4\n        /* \"src/BlueprintManager.sol\":3556:3564  calls[k] */\n      dup2\n      dup2\n      lt\n      tag_157\n      jumpi\n      tag_158\n      tag_118\n      jump\t// in\n    tag_158:\n    tag_157:\n      swap1\n      pop\n      0x20\n      mul\n      dup2\n      add\n      swap1\n      tag_159\n      swap2\n      swap1\n      tag_146\n      jump\t// in\n    tag_159:\n        /* \"src/BlueprintManager.sol\":3566:3573  session */\n      dup6\n        /* \"src/BlueprintManager.sol\":3545:3555  _flashCook */\n      tag_147\n        /* \"src/BlueprintManager.sol\":3545:3574  _flashCook(calls[k], session) */\n      jump\t// in\n    tag_156:\n        /* \"src/BlueprintManager.sol\":3537:3540  k++ */\n      dup1\n      dup1\n      0x01\n      add\n      swap2\n      pop\n      pop\n        /* \"src/BlueprintManager.sol\":3508:3574  for (uint256 k = 0; k < len; k++)... */\n      jump(tag_153)\n    tag_154:\n      pop\n        /* \"src/BlueprintManager.sol\":3579:3618  closeFlashAccounting(mainClue, session) */\n      tag_160\n        /* \"src/BlueprintManager.sol\":3600:3608  mainClue */\n      dup3\n        /* \"src/BlueprintManager.sol\":3610:3617  session */\n      dup5\n        /* \"src/BlueprintManager.sol\":3579:3599  closeFlashAccounting */\n      tag_161\n        /* \"src/BlueprintManager.sol\":3579:3618  closeFlashAccounting(mainClue, session) */\n      jump\t// in\n    tag_160:\n        /* \"src/BlueprintManager.sol\":3396:3622  {... */\n      pop\n      pop\n      pop\n        /* \"src/BlueprintManager.sol\":3323:3622  function cook(address realizer, BlueprintCall[] calldata calls) external {... */\n      pop\n      pop\n      pop\n      jump\t// out\n        /* \"src/FlashAccounting.sol\":743:874  function exttload(uint256 slot) external view returns (uint256 value) {... */\n    tag_71:\n        /* \"src/FlashAccounting.sol\":798:811  uint256 value */\n      0x00\n        /* \"src/FlashAccounting.sol\":862:866  slot */\n      dup2\n        /* \"src/FlashAccounting.sol\":856:867  tload(slot) */\n      tload\n        /* \"src/FlashAccounting.sol\":847:867  value := tload(slot) */\n      swap1\n      pop\n        /* \"src/FlashAccounting.sol\":743:874  function exttload(uint256 slot) external view returns (uint256 value) {... */\n      swap2\n      swap1\n      pop\n      jump\t// out\n        /* \"src/BlueprintManager.sol\":6372:6801  function credit(uint256 id, uint256 amount) external {... */\n    tag_76:\n        /* \"src/BlueprintManager.sol\":6429:6449  FlashSession session */\n      0x00\n        /* \"src/BlueprintManager.sol\":6452:6471  getCurrentSession() */\n      tag_164\n        /* \"src/BlueprintManager.sol\":6452:6469  getCurrentSession */\n      tag_110\n        /* \"src/BlueprintManager.sol\":6452:6471  getCurrentSession() */\n      jump\t// in\n    tag_164:\n        /* \"src/BlueprintManager.sol\":6429:6471  FlashSession session = getCurrentSession() */\n      swap1\n      pop\n        /* \"src/BlueprintManager.sol\":6477:6505  FlashUserSession userSession */\n      0x00\n        /* \"src/BlueprintManager.sol\":6507:6524  UserClue userClue */\n      0x00\n        /* \"src/BlueprintManager.sol\":6531:6573  initializeUserSession(session, msg.sender) */\n      tag_165\n        /* \"src/BlueprintManager.sol\":6553:6560  session */\n      dup4\n        /* \"src/BlueprintManager.sol\":6562:6572  msg.sender */\n      caller\n        /* \"src/BlueprintManager.sol\":6531:6552  initializeUserSession */\n      tag_112\n        /* \"src/BlueprintManager.sol\":6531:6573  initializeUserSession(session, msg.sender) */\n      jump\t// in\n    tag_165:\n        /* \"src/BlueprintManager.sol\":6476:6573  (FlashUserSession userSession, UserClue userClue) =... */\n      swap2\n      pop\n      swap2\n      pop\n        /* \"src/BlueprintManager.sol\":6578:6598  UserClue newUserClue */\n      0x00\n        /* \"src/BlueprintManager.sol\":6601:6656  addUserDebitWithClue(userSession, userClue, id, amount) */\n      tag_166\n        /* \"src/BlueprintManager.sol\":6622:6633  userSession */\n      dup4\n        /* \"src/BlueprintManager.sol\":6635:6643  userClue */\n      dup4\n        /* \"src/BlueprintManager.sol\":6645:6647  id */\n      dup9\n        /* \"src/BlueprintManager.sol\":6649:6655  amount */\n      dup9\n        /* \"src/BlueprintManager.sol\":6601:6621  addUserDebitWithClue */\n      tag_120\n        /* \"src/BlueprintManager.sol\":6601:6656  addUserDebitWithClue(userSession, userClue, id, amount) */\n      jump\t// in\n    tag_166:\n        /* \"src/BlueprintManager.sol\":6578:6656  UserClue newUserClue = addUserDebitWithClue(userSession, userClue, id, amount) */\n      swap1\n      pop\n        /* \"src/BlueprintManager.sol\":6709:6720  newUserClue */\n      dup1\n        /* \"src/BlueprintManager.sol\":6680:6688  userClue */\n      dup3\n        /* \"src/BlueprintManager.sol\":6664:6721  UserClue.unwrap(userClue) != UserClue.unwrap(newUserClue) */\n      eq\n        /* \"src/BlueprintManager.sol\":6660:6764  if (UserClue.unwrap(userClue) != UserClue.unwrap(newUserClue))... */\n      tag_167\n      jumpi\n        /* \"src/BlueprintManager.sol\":6726:6764  saveUserClue(userSession, newUserClue) */\n      tag_168\n        /* \"src/BlueprintManager.sol\":6739:6750  userSession */\n      dup4\n        /* \"src/BlueprintManager.sol\":6752:6763  newUserClue */\n      dup3\n        /* \"src/BlueprintManager.sol\":6726:6738  saveUserClue */\n      tag_123\n        /* \"src/BlueprintManager.sol\":6726:6764  saveUserClue(userSession, newUserClue) */\n      jump\t// in\n    tag_168:\n        /* \"src/BlueprintManager.sol\":6660:6764  if (UserClue.unwrap(userClue) != UserClue.unwrap(newUserClue))... */\n    tag_167:\n        /* \"src/BlueprintManager.sol\":6768:6797  _mint(msg.sender, id, amount) */\n      tag_169\n        /* \"src/BlueprintManager.sol\":6774:6784  msg.sender */\n      caller\n        /* \"src/BlueprintManager.sol\":6786:6788  id */\n      dup8\n        /* \"src/BlueprintManager.sol\":6790:6796  amount */\n      dup8\n        /* \"src/BlueprintManager.sol\":6768:6773  _mint */\n      tag_107\n        /* \"src/BlueprintManager.sol\":6768:6797  _mint(msg.sender, id, amount) */\n      jump\t// in\n    tag_169:\n        /* \"src/BlueprintManager.sol\":6425:6801  {... */\n      pop\n      pop\n      pop\n      pop\n        /* \"src/BlueprintManager.sol\":6372:6801  function credit(uint256 id, uint256 amount) external {... */\n      pop\n      pop\n      jump\t// out\n        /* \"src/BlueprintManager.sol\":8687:8817  function burn(uint256 tokenId, uint256 amount) external {... */\n    tag_79:\n        /* \"src/BlueprintManager.sol\":8747:8813  _burn(msg.sender, HashLib.getTokenId(msg.sender, tokenId), amount) */\n      tag_171\n        /* \"src/BlueprintManager.sol\":8753:8763  msg.sender */\n      caller\n        /* \"src/BlueprintManager.sol\":8765:8804  HashLib.getTokenId(msg.sender, tokenId) */\n      tag_172\n        /* \"src/BlueprintManager.sol\":8784:8794  msg.sender */\n      caller\n        /* \"src/BlueprintManager.sol\":8796:8803  tokenId */\n      dup6\n        /* \"src/BlueprintManager.sol\":8765:8783  HashLib.getTokenId */\n      tag_106\n        /* \"src/BlueprintManager.sol\":8765:8804  HashLib.getTokenId(msg.sender, tokenId) */\n      jump\t// in\n    tag_172:\n        /* \"src/BlueprintManager.sol\":8806:8812  amount */\n      dup4\n        /* \"src/BlueprintManager.sol\":8747:8752  _burn */\n      tag_134\n        /* \"src/BlueprintManager.sol\":8747:8813  _burn(msg.sender, HashLib.getTokenId(msg.sender, tokenId), amount) */\n      jump\t// in\n    tag_171:\n        /* \"src/BlueprintManager.sol\":8687:8817  function burn(uint256 tokenId, uint256 amount) external {... */\n      pop\n      pop\n      jump\t// out\n        /* \"src/BlueprintManager.sol\":540:602  mapping(address => mapping(address => bool)) public isOperator */\n    tag_83:\n      mstore(0x20, 0x00)\n      dup2\n      0x00\n      mstore\n      mstore(0x20, keccak256(0x00, 0x40))\n      dup1\n      0x00\n      mstore\n      keccak256(0x00, 0x40)\n      0x00\n      swap2\n      pop\n      swap2\n      pop\n      swap1\n      sload\n      swap1\n      0x0100\n      exp\n      swap1\n      div\n      0xff\n      and\n      dup2\n      jump\t// out\n        /* \"src/BlueprintManager.sol\":7831:8339  function debit(TokenOp[] calldata ops) external {... */\n    tag_87:\n        /* \"src/BlueprintManager.sol\":7883:7903  FlashSession session */\n      0x00\n        /* \"src/BlueprintManager.sol\":7906:7925  getCurrentSession() */\n      tag_174\n        /* \"src/BlueprintManager.sol\":7906:7923  getCurrentSession */\n      tag_110\n        /* \"src/BlueprintManager.sol\":7906:7925  getCurrentSession() */\n      jump\t// in\n    tag_174:\n        /* \"src/BlueprintManager.sol\":7883:7925  FlashSession session = getCurrentSession() */\n      swap1\n      pop\n        /* \"src/BlueprintManager.sol\":7931:7959  FlashUserSession userSession */\n      0x00\n        /* \"src/BlueprintManager.sol\":7961:7978  UserClue userClue */\n      0x00\n        /* \"src/BlueprintManager.sol\":7985:8027  initializeUserSession(session, msg.sender) */\n      tag_175\n        /* \"src/BlueprintManager.sol\":8007:8014  session */\n      dup4\n        /* \"src/BlueprintManager.sol\":8016:8026  msg.sender */\n      caller\n        /* \"src/BlueprintManager.sol\":7985:8006  initializeUserSession */\n      tag_112\n        /* \"src/BlueprintManager.sol\":7985:8027  initializeUserSession(session, msg.sender) */\n      jump\t// in\n    tag_175:\n        /* \"src/BlueprintManager.sol\":7930:8027  (FlashUserSession userSession, UserClue userClue) =... */\n      swap2\n      pop\n      swap2\n      pop\n        /* \"src/BlueprintManager.sol\":8032:8043  uint256 len */\n      0x00\n        /* \"src/BlueprintManager.sol\":8046:8049  ops */\n      dup6\n      dup6\n        /* \"src/BlueprintManager.sol\":8046:8056  ops.length */\n      swap1\n      pop\n        /* \"src/BlueprintManager.sol\":8032:8056  uint256 len = ops.length */\n      swap1\n      pop\n        /* \"src/BlueprintManager.sol\":8065:8074  uint256 i */\n      0x00\n        /* \"src/BlueprintManager.sol\":8077:8078  0 */\n      0x00\n        /* \"src/BlueprintManager.sol\":8065:8078  uint256 i = 0 */\n      swap1\n      pop\n        /* \"src/BlueprintManager.sol\":8060:8297  for (uint256 i = 0; i < len; i++) {... */\n    tag_176:\n        /* \"src/BlueprintManager.sol\":8084:8087  len */\n      dup2\n        /* \"src/BlueprintManager.sol\":8080:8081  i */\n      dup2\n        /* \"src/BlueprintManager.sol\":8080:8087  i < len */\n      lt\n        /* \"src/BlueprintManager.sol\":8060:8297  for (uint256 i = 0; i < len; i++) {... */\n      iszero\n      tag_177\n      jumpi\n        /* \"src/BlueprintManager.sol\":8099:8118  TokenOp calldata op */\n      calldatasize\n        /* \"src/BlueprintManager.sol\":8121:8124  ops */\n      dup8\n      dup8\n        /* \"src/BlueprintManager.sol\":8125:8126  i */\n      dup4\n        /* \"src/BlueprintManager.sol\":8121:8127  ops[i] */\n      dup2\n      dup2\n      lt\n      tag_179\n      jumpi\n      tag_180\n      tag_118\n      jump\t// in\n    tag_180:\n    tag_179:\n      swap1\n      pop\n      0x40\n      mul\n      add\n        /* \"src/BlueprintManager.sol\":8099:8127  TokenOp calldata op = ops[i] */\n      swap1\n      pop\n        /* \"src/BlueprintManager.sol\":8132:8142  uint256 id */\n      0x00\n        /* \"src/BlueprintManager.sol\":8145:8147  op */\n      dup2\n        /* \"src/BlueprintManager.sol\":8145:8155  op.tokenId */\n      0x00\n      add\n      calldataload\n        /* \"src/BlueprintManager.sol\":8132:8155  uint256 id = op.tokenId */\n      swap1\n      pop\n        /* \"src/BlueprintManager.sol\":8160:8174  uint256 amount */\n      0x00\n        /* \"src/BlueprintManager.sol\":8177:8179  op */\n      dup3\n        /* \"src/BlueprintManager.sol\":8177:8186  op.amount */\n      0x20\n      add\n      calldataload\n        /* \"src/BlueprintManager.sol\":8160:8186  uint256 amount = op.amount */\n      swap1\n      pop\n        /* \"src/BlueprintManager.sol\":8202:8258  addUserCreditWithClue(userSession, userClue, id, amount) */\n      tag_181\n        /* \"src/BlueprintManager.sol\":8224:8235  userSession */\n      dup8\n        /* \"src/BlueprintManager.sol\":8237:8245  userClue */\n      dup8\n        /* \"src/BlueprintManager.sol\":8247:8249  id */\n      dup5\n        /* \"src/BlueprintManager.sol\":8251:8257  amount */\n      dup5\n        /* \"src/BlueprintManager.sol\":8202:8223  addUserCreditWithClue */\n      tag_182\n        /* \"src/BlueprintManager.sol\":8202:8258  addUserCreditWithClue(userSession, userClue, id, amount) */\n      jump\t// in\n    tag_181:\n        /* \"src/BlueprintManager.sol\":8191:8258  userClue = addUserCreditWithClue(userSession, userClue, id, amount) */\n      swap6\n      pop\n        /* \"src/BlueprintManager.sol\":8263:8292  _burn(msg.sender, id, amount) */\n      tag_183\n        /* \"src/BlueprintManager.sol\":8269:8279  msg.sender */\n      caller\n        /* \"src/BlueprintManager.sol\":8281:8283  id */\n      dup4\n        /* \"src/BlueprintManager.sol\":8285:8291  amount */\n      dup4\n        /* \"src/BlueprintManager.sol\":8263:8268  _burn */\n      tag_134\n        /* \"src/BlueprintManager.sol\":8263:8292  _burn(msg.sender, id, amount) */\n      jump\t// in\n    tag_183:\n        /* \"src/BlueprintManager.sol\":8094:8297  {... */\n      pop\n      pop\n      pop\n        /* \"src/BlueprintManager.sol\":8089:8092  i++ */\n      dup1\n      dup1\n      0x01\n      add\n      swap2\n      pop\n      pop\n        /* \"src/BlueprintManager.sol\":8060:8297  for (uint256 i = 0; i < len; i++) {... */\n      jump(tag_176)\n    tag_177:\n      pop\n        /* \"src/BlueprintManager.sol\":8300:8335  saveUserClue(userSession, userClue) */\n      tag_184\n        /* \"src/BlueprintManager.sol\":8313:8324  userSession */\n      dup4\n        /* \"src/BlueprintManager.sol\":8326:8334  userClue */\n      dup4\n        /* \"src/BlueprintManager.sol\":8300:8312  saveUserClue */\n      tag_123\n        /* \"src/BlueprintManager.sol\":8300:8335  saveUserClue(userSession, userClue) */\n      jump\t// in\n    tag_184:\n        /* \"src/BlueprintManager.sol\":7879:8339  {... */\n      pop\n      pop\n      pop\n      pop\n        /* \"src/BlueprintManager.sol\":7831:8339  function debit(TokenOp[] calldata ops) external {... */\n      pop\n      pop\n      jump\t// out\n        /* \"src/BlueprintManager.sol\":7357:7786  function debit(uint256 id, uint256 amount) external {... */\n    tag_90:\n        /* \"src/BlueprintManager.sol\":7413:7433  FlashSession session */\n      0x00\n        /* \"src/BlueprintManager.sol\":7436:7455  getCurrentSession() */\n      tag_186\n        /* \"src/BlueprintManager.sol\":7436:7453  getCurrentSession */\n      tag_110\n        /* \"src/BlueprintManager.sol\":7436:7455  getCurrentSession() */\n      jump\t// in\n    tag_186:\n        /* \"src/BlueprintManager.sol\":7413:7455  FlashSession session = getCurrentSession() */\n      swap1\n      pop\n        /* \"src/BlueprintManager.sol\":7461:7489  FlashUserSession userSession */\n      0x00\n        /* \"src/BlueprintManager.sol\":7491:7508  UserClue userClue */\n      0x00\n        /* \"src/BlueprintManager.sol\":7515:7557  initializeUserSession(session, msg.sender) */\n      tag_187\n        /* \"src/BlueprintManager.sol\":7537:7544  session */\n      dup4\n        /* \"src/BlueprintManager.sol\":7546:7556  msg.sender */\n      caller\n        /* \"src/BlueprintManager.sol\":7515:7536  initializeUserSession */\n      tag_112\n        /* \"src/BlueprintManager.sol\":7515:7557  initializeUserSession(session, msg.sender) */\n      jump\t// in\n    tag_187:\n        /* \"src/BlueprintManager.sol\":7460:7557  (FlashUserSession userSession, UserClue userClue) =... */\n      swap2\n      pop\n      swap2\n      pop\n        /* \"src/BlueprintManager.sol\":7562:7582  UserClue newUserClue */\n      0x00\n        /* \"src/BlueprintManager.sol\":7585:7641  addUserCreditWithClue(userSession, userClue, id, amount) */\n      tag_188\n        /* \"src/BlueprintManager.sol\":7607:7618  userSession */\n      dup4\n        /* \"src/BlueprintManager.sol\":7620:7628  userClue */\n      dup4\n        /* \"src/BlueprintManager.sol\":7630:7632  id */\n      dup9\n        /* \"src/BlueprintManager.sol\":7634:7640  amount */\n      dup9\n        /* \"src/BlueprintManager.sol\":7585:7606  addUserCreditWithClue */\n      tag_182\n        /* \"src/BlueprintManager.sol\":7585:7641  addUserCreditWithClue(userSession, userClue, id, amount) */\n      jump\t// in\n    tag_188:\n        /* \"src/BlueprintManager.sol\":7562:7641  UserClue newUserClue = addUserCreditWithClue(userSession, userClue, id, amount) */\n      swap1\n      pop\n        /* \"src/BlueprintManager.sol\":7694:7705  newUserClue */\n      dup1\n        /* \"src/BlueprintManager.sol\":7665:7673  userClue */\n      dup3\n        /* \"src/BlueprintManager.sol\":7649:7706  UserClue.unwrap(userClue) != UserClue.unwrap(newUserClue) */\n      eq\n        /* \"src/BlueprintManager.sol\":7645:7749  if (UserClue.unwrap(userClue) != UserClue.unwrap(newUserClue))... */\n      tag_189\n      jumpi\n        /* \"src/BlueprintManager.sol\":7711:7749  saveUserClue(userSession, newUserClue) */\n      tag_190\n        /* \"src/BlueprintManager.sol\":7724:7735  userSession */\n      dup4\n        /* \"src/BlueprintManager.sol\":7737:7748  newUserClue */\n      dup3\n        /* \"src/BlueprintManager.sol\":7711:7723  saveUserClue */\n      tag_123\n        /* \"src/BlueprintManager.sol\":7711:7749  saveUserClue(userSession, newUserClue) */\n      jump\t// in\n    tag_190:\n        /* \"src/BlueprintManager.sol\":7645:7749  if (UserClue.unwrap(userClue) != UserClue.unwrap(newUserClue))... */\n    tag_189:\n        /* \"src/BlueprintManager.sol\":7753:7782  _burn(msg.sender, id, amount) */\n      tag_191\n        /* \"src/BlueprintManager.sol\":7759:7769  msg.sender */\n      caller\n        /* \"src/BlueprintManager.sol\":7771:7773  id */\n      dup8\n        /* \"src/BlueprintManager.sol\":7775:7781  amount */\n      dup8\n        /* \"src/BlueprintManager.sol\":7753:7758  _burn */\n      tag_134\n        /* \"src/BlueprintManager.sol\":7753:7782  _burn(msg.sender, id, amount) */\n      jump\t// in\n    tag_191:\n        /* \"src/BlueprintManager.sol\":7409:7786  {... */\n      pop\n      pop\n      pop\n      pop\n        /* \"src/BlueprintManager.sol\":7357:7786  function debit(uint256 id, uint256 amount) external {... */\n      pop\n      pop\n      jump\t// out\n        /* \"src/BlueprintManager.sol\":8479:8684  function mint(address to, TokenOp[] calldata ops) external {... */\n    tag_94:\n        /* \"src/BlueprintManager.sol\":8542:8553  uint256 len */\n      0x00\n        /* \"src/BlueprintManager.sol\":8556:8559  ops */\n      dup3\n      dup3\n        /* \"src/BlueprintManager.sol\":8556:8566  ops.length */\n      swap1\n      pop\n        /* \"src/BlueprintManager.sol\":8542:8566  uint256 len = ops.length */\n      swap1\n      pop\n        /* \"src/BlueprintManager.sol\":8576:8585  uint256 i */\n      0x00\n        /* \"src/BlueprintManager.sol\":8588:8589  0 */\n      0x00\n        /* \"src/BlueprintManager.sol\":8576:8589  uint256 i = 0 */\n      swap1\n      pop\n        /* \"src/BlueprintManager.sol\":8571:8680  for (uint256 i = 0; i < len; i++)... */\n    tag_193:\n        /* \"src/BlueprintManager.sol\":8595:8598  len */\n      dup2\n        /* \"src/BlueprintManager.sol\":8591:8592  i */\n      dup2\n        /* \"src/BlueprintManager.sol\":8591:8598  i < len */\n      lt\n        /* \"src/BlueprintManager.sol\":8571:8680  for (uint256 i = 0; i < len; i++)... */\n      iszero\n      tag_194\n      jumpi\n        /* \"src/BlueprintManager.sol\":8608:8680  _mint(to, HashLib.getTokenId(msg.sender, ops[i].tokenId), ops[i].amount) */\n      tag_196\n        /* \"src/BlueprintManager.sol\":8614:8616  to */\n      dup6\n        /* \"src/BlueprintManager.sol\":8618:8664  HashLib.getTokenId(msg.sender, ops[i].tokenId) */\n      tag_197\n        /* \"src/BlueprintManager.sol\":8637:8647  msg.sender */\n      caller\n        /* \"src/BlueprintManager.sol\":8649:8652  ops */\n      dup8\n      dup8\n        /* \"src/BlueprintManager.sol\":8653:8654  i */\n      dup7\n        /* \"src/BlueprintManager.sol\":8649:8655  ops[i] */\n      dup2\n      dup2\n      lt\n      tag_198\n      jumpi\n      tag_199\n      tag_118\n      jump\t// in\n    tag_199:\n    tag_198:\n      swap1\n      pop\n      0x40\n      mul\n      add\n        /* \"src/BlueprintManager.sol\":8649:8663  ops[i].tokenId */\n      0x00\n      add\n      calldataload\n        /* \"src/BlueprintManager.sol\":8618:8636  HashLib.getTokenId */\n      tag_106\n        /* \"src/BlueprintManager.sol\":8618:8664  HashLib.getTokenId(msg.sender, ops[i].tokenId) */\n      jump\t// in\n    tag_197:\n        /* \"src/BlueprintManager.sol\":8666:8669  ops */\n      dup7\n      dup7\n        /* \"src/BlueprintManager.sol\":8670:8671  i */\n      dup6\n        /* \"src/BlueprintManager.sol\":8666:8672  ops[i] */\n      dup2\n      dup2\n      lt\n      tag_200\n      jumpi\n      tag_201\n      tag_118\n      jump\t// in\n    tag_201:\n    tag_200:\n      swap1\n      pop\n      0x40\n      mul\n      add\n        /* \"src/BlueprintManager.sol\":8666:8679  ops[i].amount */\n      0x20\n      add\n      calldataload\n        /* \"src/BlueprintManager.sol\":8608:8613  _mint */\n      tag_107\n        /* \"src/BlueprintManager.sol\":8608:8680  _mint(to, HashLib.getTokenId(msg.sender, ops[i].tokenId), ops[i].amount) */\n      jump\t// in\n    tag_196:\n        /* \"src/BlueprintManager.sol\":8600:8603  i++ */\n      dup1\n      dup1\n      0x01\n      add\n      swap2\n      pop\n      pop\n        /* \"src/BlueprintManager.sol\":8571:8680  for (uint256 i = 0; i < len; i++)... */\n      jump(tag_193)\n    tag_194:\n      pop\n        /* \"src/BlueprintManager.sol\":8538:8684  {... */\n      pop\n        /* \"src/BlueprintManager.sol\":8479:8684  function mint(address to, TokenOp[] calldata ops) external {... */\n      pop\n      pop\n      pop\n      jump\t// out\n        /* \"src/BlueprintManager.sol\":2590:2888  function transferFrom(... */\n    tag_98:\n        /* \"src/BlueprintManager.sol\":2709:2713  bool */\n      0x00\n        /* \"src/BlueprintManager.sol\":2737:2743  sender */\n      dup5\n        /* \"src/BlueprintManager.sol\":2723:2743  msg.sender != sender */\n      0xffffffffffffffffffffffffffffffffffffffff\n      and\n        /* \"src/BlueprintManager.sol\":2723:2733  msg.sender */\n      caller\n        /* \"src/BlueprintManager.sol\":2723:2743  msg.sender != sender */\n      0xffffffffffffffffffffffffffffffffffffffff\n      and\n      eq\n      iszero\n        /* \"src/BlueprintManager.sol\":2723:2778  msg.sender != sender && !isOperator[sender][msg.sender] */\n      dup1\n      iszero\n      tag_203\n      jumpi\n      pop\n        /* \"src/BlueprintManager.sol\":2748:2758  isOperator */\n      0x00\n        /* \"src/BlueprintManager.sol\":2748:2766  isOperator[sender] */\n      0x00\n        /* \"src/BlueprintManager.sol\":2759:2765  sender */\n      dup7\n        /* \"src/BlueprintManager.sol\":2748:2766  isOperator[sender] */\n      0xffffffffffffffffffffffffffffffffffffffff\n      and\n      0xffffffffffffffffffffffffffffffffffffffff\n      and\n      dup2\n      mstore\n      0x20\n      add\n      swap1\n      dup2\n      mstore\n      0x20\n      add\n      0x00\n      keccak256\n        /* \"src/BlueprintManager.sol\":2748:2778  isOperator[sender][msg.sender] */\n      0x00\n        /* \"src/BlueprintManager.sol\":2767:2777  msg.sender */\n      caller\n        /* \"src/BlueprintManager.sol\":2748:2778  isOperator[sender][msg.sender] */\n      0xffffffffffffffffffffffffffffffffffffffff\n      and\n      0xffffffffffffffffffffffffffffffffffffffff\n      and\n      dup2\n      mstore\n      0x20\n      add\n      swap1\n      dup2\n      mstore\n      0x20\n      add\n      0x00\n      keccak256\n      0x00\n      swap1\n      sload\n      swap1\n      0x0100\n      exp\n      swap1\n      div\n      0xff\n      and\n        /* \"src/BlueprintManager.sol\":2747:2778  !isOperator[sender][msg.sender] */\n      iszero\n        /* \"src/BlueprintManager.sol\":2723:2778  msg.sender != sender && !isOperator[sender][msg.sender] */\n    tag_203:\n        /* \"src/BlueprintManager.sol\":2719:2820  if (msg.sender != sender && !isOperator[sender][msg.sender])... */\n      iszero\n      tag_204\n      jumpi\n        /* \"src/BlueprintManager.sol\":2783:2820  _decreaseApproval(sender, id, amount) */\n      tag_205\n        /* \"src/BlueprintManager.sol\":2801:2807  sender */\n      dup6\n        /* \"src/BlueprintManager.sol\":2809:2811  id */\n      dup5\n        /* \"src/BlueprintManager.sol\":2813:2819  amount */\n      dup5\n        /* \"src/BlueprintManager.sol\":2783:2800  _decreaseApproval */\n      tag_206\n        /* \"src/BlueprintManager.sol\":2783:2820  _decreaseApproval(sender, id, amount) */\n      jump\t// in\n    tag_205:\n        /* \"src/BlueprintManager.sol\":2719:2820  if (msg.sender != sender && !isOperator[sender][msg.sender])... */\n    tag_204:\n        /* \"src/BlueprintManager.sol\":2825:2868  _transferFrom(sender, receiver, id, amount) */\n      tag_207\n        /* \"src/BlueprintManager.sol\":2839:2845  sender */\n      dup6\n        /* \"src/BlueprintManager.sol\":2847:2855  receiver */\n      dup6\n        /* \"src/BlueprintManager.sol\":2857:2859  id */\n      dup6\n        /* \"src/BlueprintManager.sol\":2861:2867  amount */\n      dup6\n        /* \"src/BlueprintManager.sol\":2825:2838  _transferFrom */\n      tag_102\n        /* \"src/BlueprintManager.sol\":2825:2868  _transferFrom(sender, receiver, id, amount) */\n      jump\t// in\n    tag_207:\n        /* \"src/BlueprintManager.sol\":2880:2884  true */\n      0x01\n        /* \"src/BlueprintManager.sol\":2873:2884  return true */\n      swap1\n      pop\n        /* \"src/BlueprintManager.sol\":2590:2888  function transferFrom(... */\n      swap5\n      swap4\n      pop\n      pop\n      pop\n      pop\n      jump\t// out\n        /* \"src/BlueprintManager.sol\":1842:2034  function _transferFrom(... */\n    tag_102:\n        /* \"src/BlueprintManager.sol\":1943:1966  _burn(from, id, amount) */\n      tag_209\n        /* \"src/BlueprintManager.sol\":1949:1953  from */\n      dup5\n        /* \"src/BlueprintManager.sol\":1955:1957  id */\n      dup4\n        /* \"src/BlueprintManager.sol\":1959:1965  amount */\n      dup4\n        /* \"src/BlueprintManager.sol\":1943:1948  _burn */\n      tag_134\n        /* \"src/BlueprintManager.sol\":1943:1966  _burn(from, id, amount) */\n      jump\t// in\n    tag_209:\n        /* \"src/BlueprintManager.sol\":1970:1991  _mint(to, id, amount) */\n      tag_210\n        /* \"src/BlueprintManager.sol\":1976:1978  to */\n      dup4\n        /* \"src/BlueprintManager.sol\":1980:1982  id */\n      dup4\n        /* \"src/BlueprintManager.sol\":1984:1990  amount */\n      dup4\n        /* \"src/BlueprintManager.sol\":1970:1975  _mint */\n      tag_107\n        /* \"src/BlueprintManager.sol\":1970:1991  _mint(to, id, amount) */\n      jump\t// in\n    tag_210:\n        /* \"src/BlueprintManager.sol\":2019:2021  id */\n      dup2\n        /* \"src/BlueprintManager.sol\":2015:2017  to */\n      dup4\n        /* \"src/BlueprintManager.sol\":2000:2030  Transfer(from, to, id, amount) */\n      0xffffffffffffffffffffffffffffffffffffffff\n      and\n        /* \"src/BlueprintManager.sol\":2009:2013  from */\n      dup6\n        /* \"src/BlueprintManager.sol\":2000:2030  Transfer(from, to, id, amount) */\n      0xffffffffffffffffffffffffffffffffffffffff\n      and\n      0x9ed053bb818ff08b8353cd46f78db1f0799f31c9e4458fdb425c10eccd2efc44\n        /* \"src/BlueprintManager.sol\":2023:2029  amount */\n      dup5\n        /* \"src/BlueprintManager.sol\":2000:2030  Transfer(from, to, id, amount) */\n      mload(0x40)\n      tag_211\n      swap2\n      swap1\n      tag_29\n      jump\t// in\n    tag_211:\n      mload(0x40)\n      dup1\n      swap2\n      sub\n      swap1\n      log4\n        /* \"src/BlueprintManager.sol\":1842:2034  function _transferFrom(... */\n      pop\n      pop\n      pop\n      pop\n      jump\t// out\n        /* \"src/libraries/HashLib.sol\":147:365  function getTokenId(... */\n    tag_106:\n        /* \"src/libraries/HashLib.sol\":237:247  uint256 id */\n      0x00\n        /* \"src/libraries/HashLib.sol\":293:302  blueprint */\n      dup3\n        /* \"src/libraries/HashLib.sol\":290:291  0 */\n      0x00\n        /* \"src/libraries/HashLib.sol\":283:303  mstore(0, blueprint) */\n      mstore\n        /* \"src/libraries/HashLib.sol\":320:329  foreignId */\n      dup2\n        /* \"src/libraries/HashLib.sol\":314:318  0x20 */\n      0x20\n        /* \"src/libraries/HashLib.sol\":307:330  mstore(0x20, foreignId) */\n      mstore\n        /* \"src/libraries/HashLib.sol\":355:357  52 */\n      0x34\n        /* \"src/libraries/HashLib.sol\":351:353  12 */\n      0x0c\n        /* \"src/libraries/HashLib.sol\":341:358  keccak256(12, 52) */\n      keccak256\n        /* \"src/libraries/HashLib.sol\":335:358  id := keccak256(12, 52) */\n      swap1\n      pop\n        /* \"src/libraries/HashLib.sol\":147:365  function getTokenId(... */\n      swap3\n      swap2\n      pop\n      pop\n      jump\t// out\n        /* \"src/BlueprintManager.sol\":1490:1627  function _mint(address to, uint256 id, uint256 amount) internal override {... */\n    tag_107:\n        /* \"src/BlueprintManager.sol\":1588:1594  amount */\n      dup1\n        /* \"src/BlueprintManager.sol\":1567:1576  balanceOf */\n      0x01\n        /* \"src/BlueprintManager.sol\":1567:1580  balanceOf[to] */\n      0x00\n        /* \"src/BlueprintManager.sol\":1577:1579  to */\n      dup6\n        /* \"src/BlueprintManager.sol\":1567:1580  balanceOf[to] */\n      0xffffffffffffffffffffffffffffffffffffffff\n      and\n      0xffffffffffffffffffffffffffffffffffffffff\n      and\n      dup2\n      mstore\n      0x20\n      add\n      swap1\n      dup2\n      mstore\n      0x20\n      add\n      0x00\n      keccak256\n        /* \"src/BlueprintManager.sol\":1567:1584  balanceOf[to][id] */\n      0x00\n        /* \"src/BlueprintManager.sol\":1581:1583  id */\n      dup5\n        /* \"src/BlueprintManager.sol\":1567:1584  balanceOf[to][id] */\n      dup2\n      mstore\n      0x20\n      add\n      swap1\n      dup2\n      mstore\n      0x20\n      add\n      0x00\n      keccak256\n      0x00\n        /* \"src/BlueprintManager.sol\":1567:1594  balanceOf[to][id] += amount */\n      dup3\n      dup3\n      sload\n      tag_214\n      swap2\n      swap1\n      tag_215\n      jump\t// in\n    tag_214:\n      swap3\n      pop\n      pop\n      dup2\n      swap1\n      sstore\n      pop\n        /* \"src/BlueprintManager.sol\":1612:1614  id */\n      dup2\n        /* \"src/BlueprintManager.sol\":1608:1610  to */\n      dup4\n        /* \"src/BlueprintManager.sol\":1603:1623  Mint(to, id, amount) */\n      0xffffffffffffffffffffffffffffffffffffffff\n      and\n      0x4c209b5fc8ad50758f13e2e1088ba56a560dff690a1c6fef26394f4c03821c4f\n        /* \"src/BlueprintManager.sol\":1616:1622  amount */\n      dup4\n        /* \"src/BlueprintManager.sol\":1603:1623  Mint(to, id, amount) */\n      mload(0x40)\n      tag_216\n      swap2\n      swap1\n      tag_29\n      jump\t// in\n    tag_216:\n      mload(0x40)\n      dup1\n      swap2\n      sub\n      swap1\n      log3\n        /* \"src/BlueprintManager.sol\":1490:1627  function _mint(address to, uint256 id, uint256 amount) internal override {... */\n      pop\n      pop\n      pop\n      jump\t// out\n        /* \"src/FlashAccounting.sol\":877:1407  function getCurrentSession() internal view returns (... */\n    tag_110:\n        /* \"src/FlashAccounting.sol\":932:952  FlashSession session */\n      0x00\n        /* \"src/FlashAccounting.sol\":960:976  address realizer */\n      0x00\n        /* \"src/FlashAccounting.sol\":980:997  uint256 mainIndex */\n      0x00\n        /* \"src/FlashAccounting.sol\":1053:1054  0 */\n      0x00\n        /* \"src/FlashAccounting.sol\":1047:1055  tload(0) */\n      tload\n        /* \"src/FlashAccounting.sol\":1086:1098  _96_BIT_FLAG */\n      0xffffffffffffffffffffffff\n        /* \"src/FlashAccounting.sol\":1076:1084  mainClue */\n      dup2\n        /* \"src/FlashAccounting.sol\":1072:1099  and(mainClue, _96_BIT_FLAG) */\n      and\n        /* \"src/FlashAccounting.sol\":1059:1099  mainIndex := and(mainClue, _96_BIT_FLAG) */\n      swap2\n      pop\n        /* \"src/FlashAccounting.sol\":1123:1131  mainClue */\n      dup1\n        /* \"src/FlashAccounting.sol\":1119:1121  96 */\n      0x60\n        /* \"src/FlashAccounting.sol\":1115:1132  shr(96, mainClue) */\n      shr\n        /* \"src/FlashAccounting.sol\":1103:1132  realizer := shr(96, mainClue) */\n      swap3\n      pop\n        /* \"src/FlashAccounting.sol\":1026:1136  {... */\n      pop\n        /* \"src/FlashAccounting.sol\":1157:1158  0 */\n      0x00\n        /* \"src/FlashAccounting.sol\":1144:1153  mainIndex */\n      dup2\n        /* \"src/FlashAccounting.sol\":1144:1158  mainIndex == 0 */\n      sub\n        /* \"src/FlashAccounting.sol\":1140:1195  if (mainIndex == 0)... */\n      tag_218\n      jumpi\n        /* \"src/FlashAccounting.sol\":1170:1195  NoFlashAccountingActive() */\n      mload(0x40)\n      0x97013e4300000000000000000000000000000000000000000000000000000000\n      dup2\n      mstore\n      0x04\n      add\n      mload(0x40)\n      dup1\n      swap2\n      sub\n      swap1\n      revert\n        /* \"src/FlashAccounting.sol\":1140:1195  if (mainIndex == 0)... */\n    tag_218:\n        /* \"src/FlashAccounting.sol\":1255:1256  1 */\n      0x01\n        /* \"src/FlashAccounting.sol\":1244:1253  mainIndex */\n      dup2\n        /* \"src/FlashAccounting.sol\":1240:1257  sub(mainIndex, 1) */\n      sub\n        /* \"src/FlashAccounting.sol\":1237:1238  0 */\n      0x00\n        /* \"src/FlashAccounting.sol\":1230:1258  mstore(0, sub(mainIndex, 1)) */\n      mstore\n        /* \"src/FlashAccounting.sol\":1275:1276  0 */\n      0x00\n        /* \"src/FlashAccounting.sol\":1269:1273  0x20 */\n      0x20\n        /* \"src/FlashAccounting.sol\":1262:1277  mstore(0x20, 0) */\n      mstore\n        /* \"src/FlashAccounting.sol\":1307:1309  44 */\n      0x2c\n        /* \"src/FlashAccounting.sol\":1303:1305  20 */\n      0x14\n        /* \"src/FlashAccounting.sol\":1293:1310  keccak256(20, 44) */\n      keccak256\n        /* \"src/FlashAccounting.sol\":1282:1310  session := keccak256(20, 44) */\n      swap3\n      pop\n        /* \"src/FlashAccounting.sol\":1342:1343  0 */\n      0x00\n        /* \"src/FlashAccounting.sol\":1322:1344  realizer != address(0) */\n      0xffffffffffffffffffffffffffffffffffffffff\n      and\n        /* \"src/FlashAccounting.sol\":1322:1330  realizer */\n      dup3\n        /* \"src/FlashAccounting.sol\":1322:1344  realizer != address(0) */\n      0xffffffffffffffffffffffffffffffffffffffff\n      and\n      eq\n      iszero\n        /* \"src/FlashAccounting.sol\":1322:1370  realizer != address(0) && realizer != msg.sender */\n      dup1\n      iszero\n      tag_219\n      jumpi\n      pop\n        /* \"src/FlashAccounting.sol\":1360:1370  msg.sender */\n      caller\n        /* \"src/FlashAccounting.sol\":1348:1370  realizer != msg.sender */\n      0xffffffffffffffffffffffffffffffffffffffff\n      and\n        /* \"src/FlashAccounting.sol\":1348:1356  realizer */\n      dup3\n        /* \"src/FlashAccounting.sol\":1348:1370  realizer != msg.sender */\n      0xffffffffffffffffffffffffffffffffffffffff\n      and\n      eq\n      iszero\n        /* \"src/FlashAccounting.sol\":1322:1370  realizer != address(0) && realizer != msg.sender */\n    tag_219:\n        /* \"src/FlashAccounting.sol\":1318:1403  if (realizer != address(0) && realizer != msg.sender)... */\n      iszero\n      tag_220\n      jumpi\n        /* \"src/FlashAccounting.sol\":1382:1403  RealizeAccessDenied() */\n      mload(0x40)\n      0x1230858900000000000000000000000000000000000000000000000000000000\n      dup2\n      mstore\n      0x04\n      add\n      mload(0x40)\n      dup1\n      swap2\n      sub\n      swap1\n      revert\n        /* \"src/FlashAccounting.sol\":1318:1403  if (realizer != address(0) && realizer != msg.sender)... */\n    tag_220:\n        /* \"src/FlashAccounting.sol\":956:1407  {... */\n      pop\n      pop\n        /* \"src/FlashAccounting.sol\":877:1407  function getCurrentSession() internal view returns (... */\n      swap1\n      jump\t// out\n        /* \"src/FlashAccounting.sol\":2416:2910  function initializeUserSession(... */\n    tag_112:\n        /* \"src/FlashAccounting.sol\":2511:2539  FlashUserSession userSession */\n      0x00\n        /* \"src/FlashAccounting.sol\":2543:2560  UserClue userClue */\n      0x00\n        /* \"src/FlashAccounting.sol\":2582:2611  getUserSession(session, user) */\n      tag_222\n        /* \"src/FlashAccounting.sol\":2597:2604  session */\n      dup5\n        /* \"src/FlashAccounting.sol\":2606:2610  user */\n      dup5\n        /* \"src/FlashAccounting.sol\":2582:2596  getUserSession */\n      tag_223\n        /* \"src/FlashAccounting.sol\":2582:2611  getUserSession(session, user) */\n      jump\t// in\n    tag_222:\n        /* \"src/FlashAccounting.sol\":2568:2611  userSession = getUserSession(session, user) */\n      swap2\n      pop\n        /* \"src/FlashAccounting.sol\":2648:2659  userSession */\n      dup2\n        /* \"src/FlashAccounting.sol\":2642:2660  tload(userSession) */\n      tload\n        /* \"src/FlashAccounting.sol\":2630:2660  userClue := tload(userSession) */\n      swap1\n      pop\n        /* \"src/FlashAccounting.sol\":2675:2683  userClue */\n      dup1\n        /* \"src/FlashAccounting.sol\":2665:2868  if iszero(userClue) {... */\n      tag_224\n      jumpi\n        /* \"src/FlashAccounting.sol\":2730:2731  1 */\n      0x01\n        /* \"src/FlashAccounting.sol\":2720:2727  session */\n      dup5\n        /* \"src/FlashAccounting.sol\":2714:2728  tload(session) */\n      tload\n        /* \"src/FlashAccounting.sol\":2710:2732  add(tload(session), 1) */\n      add\n        /* \"src/FlashAccounting.sol\":2753:2764  sessionClue */\n      dup1\n        /* \"src/FlashAccounting.sol\":2744:2751  session */\n      dup6\n        /* \"src/FlashAccounting.sol\":2737:2765  tstore(session, sessionClue) */\n      tstore\n        /* \"src/FlashAccounting.sol\":2858:2862  user */\n      dup4\n        /* \"src/FlashAccounting.sol\":2844:2855  sessionClue */\n      dup2\n        /* \"src/FlashAccounting.sol\":2835:2842  session */\n      dup7\n        /* \"src/FlashAccounting.sol\":2831:2856  add(session, sessionClue) */\n      add\n        /* \"src/FlashAccounting.sol\":2824:2863  tstore(add(session, sessionClue), user) */\n      tstore\n        /* \"src/FlashAccounting.sol\":2685:2868  {... */\n      pop\n        /* \"src/FlashAccounting.sol\":2665:2868  if iszero(userClue) {... */\n    tag_224:\n        /* \"src/FlashAccounting.sol\":2416:2910  function initializeUserSession(... */\n      swap3\n      pop\n      swap3\n      swap1\n      pop\n      jump\t// out\n        /* \"src/FlashAccounting.sol\":5104:6607  function addUserDebitWithClue(... */\n    tag_120:\n        /* \"src/FlashAccounting.sol\":5240:5248  UserClue */\n      0x00\n        /* \"src/FlashAccounting.sol\":5294:5296  id */\n      dup3\n        /* \"src/FlashAccounting.sol\":5291:5292  0 */\n      0x00\n        /* \"src/FlashAccounting.sol\":5284:5297  mstore(0, id) */\n      mstore\n        /* \"src/FlashAccounting.sol\":5314:5325  userSession */\n      dup5\n        /* \"src/FlashAccounting.sol\":5308:5312  0x20 */\n      0x20\n        /* \"src/FlashAccounting.sol\":5301:5326  mstore(0x20, userSession) */\n      mstore\n        /* \"src/FlashAccounting.sol\":5361:5365  0x40 */\n      0x40\n        /* \"src/FlashAccounting.sol\":5358:5359  0 */\n      0x00\n        /* \"src/FlashAccounting.sol\":5348:5366  keccak256(0, 0x40) */\n      keccak256\n        /* \"src/FlashAccounting.sol\":5445:5454  deltaSlot */\n      dup1\n        /* \"src/FlashAccounting.sol\":5439:5455  tload(deltaSlot) */\n      tload\n        /* \"src/FlashAccounting.sol\":5480:5488  deltaVal */\n      dup1\n        /* \"src/FlashAccounting.sol\":5477:5478  1 */\n      0x01\n        /* \"src/FlashAccounting.sol\":5473:5489  sar(1, deltaVal) */\n      sar\n        /* \"src/FlashAccounting.sol\":5520:5526  amount */\n      dup5\n        /* \"src/FlashAccounting.sol\":5513:5518  delta */\n      dup2\n        /* \"src/FlashAccounting.sol\":5509:5527  sub(delta, amount) */\n      sub\n        /* \"src/FlashAccounting.sol\":5724:5725  2 */\n      0x02\n        /* \"src/FlashAccounting.sol\":5713:5721  newDelta */\n      dup2\n        /* \"src/FlashAccounting.sol\":5708:5711  254 */\n      0xfe\n        /* \"src/FlashAccounting.sol\":5704:5722  shr(254, newDelta) */\n      shr\n        /* \"src/FlashAccounting.sol\":5701:5726  eq(shr(254, newDelta), 2) */\n      eq\n        /* \"src/FlashAccounting.sol\":5690:5698  newDelta */\n      dup2\n        /* \"src/FlashAccounting.sol\":5683:5688  delta */\n      dup4\n        /* \"src/FlashAccounting.sol\":5679:5699  slt(delta, newDelta) */\n      slt\n        /* \"src/FlashAccounting.sol\":5676:5727  or(slt(delta, newDelta), eq(shr(254, newDelta), 2)) */\n      or\n        /* \"src/FlashAccounting.sol\":5736:5737  1 */\n      0x01\n        /* \"src/FlashAccounting.sol\":5731:6227  case 1 {... */\n      dup2\n      eq\n      tag_227\n      jumpi\n        /* \"src/FlashAccounting.sol\":6337:6338  1 */\n      0x01\n        /* \"src/FlashAccounting.sol\":6327:6335  deltaVal */\n      dup5\n        /* \"src/FlashAccounting.sol\":6323:6339  and(deltaVal, 1) */\n      and\n        /* \"src/FlashAccounting.sol\":6305:6313  newDelta */\n      dup3\n        /* \"src/FlashAccounting.sol\":6302:6303  1 */\n      0x01\n        /* \"src/FlashAccounting.sol\":6298:6314  shl(1, newDelta) */\n      shl\n        /* \"src/FlashAccounting.sol\":6287:6347  or(... */\n      or\n        /* \"src/FlashAccounting.sol\":6270:6279  deltaSlot */\n      dup6\n        /* \"src/FlashAccounting.sol\":6256:6354  tstore(... */\n      tstore\n        /* \"src/FlashAccounting.sol\":5669:6359  switch or(slt(delta, newDelta), eq(shr(254, newDelta), 2))... */\n      jump(tag_226)\n        /* \"src/FlashAccounting.sol\":5731:6227  case 1 {... */\n    tag_227:\n        /* \"src/FlashAccounting.sol\":5779:5780  1 */\n      0x01\n        /* \"src/FlashAccounting.sol\":5768:5777  deltaSlot */\n      dup6\n        /* \"src/FlashAccounting.sol\":5764:5781  add(deltaSlot, 1) */\n      add\n        /* \"src/FlashAccounting.sol\":5887:5897  _2_POW_254 */\n      0x4000000000000000000000000000000000000000000000000000000000000000\n        /* \"src/FlashAccounting.sol\":5877:5885  newDelta */\n      dup4\n        /* \"src/FlashAccounting.sol\":5873:5898  add(newDelta, _2_POW_254) */\n      add\n        /* \"src/FlashAccounting.sol\":5868:5871  255 */\n      0xff\n        /* \"src/FlashAccounting.sol\":5864:5899  shr(255, add(newDelta, _2_POW_254)) */\n      shr\n        /* \"src/FlashAccounting.sol\":5861:5862  2 */\n      0x02\n        /* \"src/FlashAccounting.sol\":5857:5900  sub(2, shr(255, add(newDelta, _2_POW_254))) */\n      sub\n        /* \"src/FlashAccounting.sol\":5974:5975  0 */\n      0x00\n        /* \"src/FlashAccounting.sol\":5997:5998  1 */\n      0x01\n        /* \"src/FlashAccounting.sol\":5987:5995  deltaVal */\n      dup8\n        /* \"src/FlashAccounting.sol\":5983:5999  and(deltaVal, 1) */\n      and\n        /* \"src/FlashAccounting.sol\":5980:6044  if and(deltaVal, 1) {... */\n      iszero\n      tag_228\n      jumpi\n        /* \"src/FlashAccounting.sol\":6025:6037  preDeltaSlot */\n      dup3\n        /* \"src/FlashAccounting.sol\":6019:6038  tload(preDeltaSlot) */\n      tload\n        /* \"src/FlashAccounting.sol\":6007:6038  preDelta := tload(preDeltaSlot) */\n      swap1\n      pop\n        /* \"src/FlashAccounting.sol\":5980:6044  if and(deltaVal, 1) {... */\n    tag_228:\n        /* \"src/FlashAccounting.sol\":6075:6080  carry */\n      dup2\n        /* \"src/FlashAccounting.sol\":6065:6073  preDelta */\n      dup2\n        /* \"src/FlashAccounting.sol\":6061:6081  sub(preDelta, carry) */\n      sub\n        /* \"src/FlashAccounting.sol\":6049:6081  preDelta := sub(preDelta, carry) */\n      swap1\n      pop\n        /* \"src/FlashAccounting.sol\":6108:6116  preDelta */\n      dup1\n        /* \"src/FlashAccounting.sol\":6094:6106  preDeltaSlot */\n      dup4\n        /* \"src/FlashAccounting.sol\":6087:6117  tstore(preDeltaSlot, preDelta) */\n      tstore\n        /* \"src/FlashAccounting.sol\":6199:6207  preDelta */\n      dup1\n        /* \"src/FlashAccounting.sol\":6192:6208  iszero(preDelta) */\n      iszero\n        /* \"src/FlashAccounting.sol\":6185:6209  iszero(iszero(preDelta)) */\n      iszero\n        /* \"src/FlashAccounting.sol\":6168:6176  newDelta */\n      dup6\n        /* \"src/FlashAccounting.sol\":6165:6166  1 */\n      0x01\n        /* \"src/FlashAccounting.sol\":6161:6177  shl(1, newDelta) */\n      shl\n        /* \"src/FlashAccounting.sol\":6151:6216  or(... */\n      or\n        /* \"src/FlashAccounting.sol\":6135:6144  deltaSlot */\n      dup9\n        /* \"src/FlashAccounting.sol\":6122:6222  tstore(... */\n      tstore\n        /* \"src/FlashAccounting.sol\":5738:6227  {... */\n      pop\n      pop\n      pop\n        /* \"src/FlashAccounting.sol\":5669:6359  switch or(slt(delta, newDelta), eq(shr(254, newDelta), 2))... */\n    tag_226:\n      pop\n        /* \"src/FlashAccounting.sol\":6419:6427  deltaVal */\n      dup3\n        /* \"src/FlashAccounting.sol\":6409:6580  if iszero(deltaVal) {... */\n      tag_229\n      jumpi\n        /* \"src/FlashAccounting.sol\":6461:6462  1 */\n      0x01\n        /* \"src/FlashAccounting.sol\":6451:6459  userClue */\n      dup9\n        /* \"src/FlashAccounting.sol\":6447:6463  add(userClue, 1) */\n      add\n        /* \"src/FlashAccounting.sol\":6435:6463  userClue := add(userClue, 1) */\n      swap8\n      pop\n        /* \"src/FlashAccounting.sol\":6572:6574  id */\n      dup7\n        /* \"src/FlashAccounting.sol\":6561:6569  userClue */\n      dup9\n        /* \"src/FlashAccounting.sol\":6548:6559  userSession */\n      dup11\n        /* \"src/FlashAccounting.sol\":6544:6570  add(userSession, userClue) */\n      add\n        /* \"src/FlashAccounting.sol\":6537:6575  tstore(add(userSession, userClue), id) */\n      tstore\n        /* \"src/FlashAccounting.sol\":6409:6580  if iszero(deltaVal) {... */\n    tag_229:\n        /* \"src/FlashAccounting.sol\":5279:6584  {... */\n      pop\n      pop\n      pop\n      pop\n        /* \"src/FlashAccounting.sol\":6595:6603  userClue */\n      dup4\n        /* \"src/FlashAccounting.sol\":6588:6603  return userClue */\n      swap1\n      pop\n        /* \"src/FlashAccounting.sol\":5104:6607  function addUserDebitWithClue(... */\n      swap5\n      swap4\n      pop\n      pop\n      pop\n      pop\n      jump\t// out\n        /* \"src/FlashAccounting.sol\":6610:6760  function saveUserClue(FlashUserSession userSession, UserClue userClue) internal {... */\n    tag_123:\n        /* \"src/FlashAccounting.sol\":6744:6752  userClue */\n      dup1\n        /* \"src/FlashAccounting.sol\":6731:6742  userSession */\n      dup3\n        /* \"src/FlashAccounting.sol\":6724:6753  tstore(userSession, userClue) */\n      tstore\n        /* \"src/FlashAccounting.sol\":6610:6760  function saveUserClue(FlashUserSession userSession, UserClue userClue) internal {... */\n      pop\n      pop\n      jump\t// out\n        /* \"src/BlueprintManager.sol\":1630:1839  function _burn(address from, uint256 id, uint256 amount) internal override {... */\n    tag_134:\n        /* \"src/BlueprintManager.sol\":1740:1746  amount */\n      dup1\n        /* \"src/BlueprintManager.sol\":1717:1726  balanceOf */\n      0x01\n        /* \"src/BlueprintManager.sol\":1717:1732  balanceOf[from] */\n      0x00\n        /* \"src/BlueprintManager.sol\":1727:1731  from */\n      dup6\n        /* \"src/BlueprintManager.sol\":1717:1732  balanceOf[from] */\n      0xffffffffffffffffffffffffffffffffffffffff\n      and\n      0xffffffffffffffffffffffffffffffffffffffff\n      and\n      dup2\n      mstore\n      0x20\n      add\n      swap1\n      dup2\n      mstore\n      0x20\n      add\n      0x00\n      keccak256\n        /* \"src/BlueprintManager.sol\":1717:1736  balanceOf[from][id] */\n      0x00\n        /* \"src/BlueprintManager.sol\":1733:1735  id */\n      dup5\n        /* \"src/BlueprintManager.sol\":1717:1736  balanceOf[from][id] */\n      dup2\n      mstore\n      0x20\n      add\n      swap1\n      dup2\n      mstore\n      0x20\n      add\n      0x00\n      keccak256\n      sload\n        /* \"src/BlueprintManager.sol\":1717:1746  balanceOf[from][id] >= amount */\n      lt\n      iszero\n        /* \"src/BlueprintManager.sol\":1709:1771  require(balanceOf[from][id] >= amount, \"Insufficient balance\") */\n      tag_232\n      jumpi\n      mload(0x40)\n      0x08c379a000000000000000000000000000000000000000000000000000000000\n      dup2\n      mstore\n      0x04\n      add\n      tag_233\n      swap1\n      tag_234\n      jump\t// in\n    tag_233:\n      mload(0x40)\n      dup1\n      swap2\n      sub\n      swap1\n      revert\n    tag_232:\n        /* \"src/BlueprintManager.sol\":1798:1804  amount */\n      dup1\n        /* \"src/BlueprintManager.sol\":1775:1784  balanceOf */\n      0x01\n        /* \"src/BlueprintManager.sol\":1775:1790  balanceOf[from] */\n      0x00\n        /* \"src/BlueprintManager.sol\":1785:1789  from */\n      dup6\n        /* \"src/BlueprintManager.sol\":1775:1790  balanceOf[from] */\n      0xffffffffffffffffffffffffffffffffffffffff\n      and\n      0xffffffffffffffffffffffffffffffffffffffff\n      and\n      dup2\n      mstore\n      0x20\n      add\n      swap1\n      dup2\n      mstore\n      0x20\n      add\n      0x00\n      keccak256\n        /* \"src/BlueprintManager.sol\":1775:1794  balanceOf[from][id] */\n      0x00\n        /* \"src/BlueprintManager.sol\":1791:1793  id */\n      dup5\n        /* \"src/BlueprintManager.sol\":1775:1794  balanceOf[from][id] */\n      dup2\n      mstore\n      0x20\n      add\n      swap1\n      dup2\n      mstore\n      0x20\n      add\n      0x00\n      keccak256\n      0x00\n        /* \"src/BlueprintManager.sol\":1775:1804  balanceOf[from][id] -= amount */\n      dup3\n      dup3\n      sload\n      tag_235\n      swap2\n      swap1\n      tag_236\n      jump\t// in\n    tag_235:\n      swap3\n      pop\n      pop\n      dup2\n      swap1\n      sstore\n      pop\n        /* \"src/BlueprintManager.sol\":1824:1826  id */\n      dup2\n        /* \"src/BlueprintManager.sol\":1818:1822  from */\n      dup4\n        /* \"src/BlueprintManager.sol\":1813:1835  Burn(from, id, amount) */\n      0xffffffffffffffffffffffffffffffffffffffff\n      and\n      0x49995e5dd6158cf69ad3e9777c46755a1a826a446c6416992167462dad033b2a\n        /* \"src/BlueprintManager.sol\":1828:1834  amount */\n      dup4\n        /* \"src/BlueprintManager.sol\":1813:1835  Burn(from, id, amount) */\n      mload(0x40)\n      tag_237\n      swap2\n      swap1\n      tag_29\n      jump\t// in\n    tag_237:\n      mload(0x40)\n      dup1\n      swap2\n      sub\n      swap1\n      log3\n        /* \"src/BlueprintManager.sol\":1630:1839  function _burn(address from, uint256 id, uint256 amount) internal override {... */\n      pop\n      pop\n      pop\n      jump\t// out\n        /* \"src/BlueprintManager.sol\":4353:6369  function _flashCook(BlueprintCall calldata call, FlashSession session) internal {... */\n    tag_147:\n        /* \"src/BlueprintManager.sol\":4437:4454  address blueprint */\n      0x00\n        /* \"src/BlueprintManager.sol\":4457:4461  call */\n      dup3\n        /* \"src/BlueprintManager.sol\":4457:4471  call.blueprint */\n      0x20\n      add\n      0x20\n      dup2\n      add\n      swap1\n      tag_239\n      swap2\n      swap1\n      tag_240\n      jump\t// in\n    tag_239:\n        /* \"src/BlueprintManager.sol\":4437:4471  address blueprint = call.blueprint */\n      swap1\n      pop\n        /* \"src/BlueprintManager.sol\":4476:4495  bool checkApprovals */\n      0x00\n        /* \"src/BlueprintManager.sol\":4499:4513  address sender */\n      0x00\n        /* \"src/BlueprintManager.sol\":4516:4520  call */\n      dup5\n        /* \"src/BlueprintManager.sol\":4516:4527  call.sender */\n      0x00\n      add\n      0x20\n      dup2\n      add\n      swap1\n      tag_241\n      swap2\n      swap1\n      tag_240\n      jump\t// in\n    tag_241:\n        /* \"src/BlueprintManager.sol\":4499:4527  address sender = call.sender */\n      swap1\n      pop\n        /* \"src/BlueprintManager.sol\":4553:4554  0 */\n      0x00\n        /* \"src/BlueprintManager.sol\":4535:4555  sender == address(0) */\n      0xffffffffffffffffffffffffffffffffffffffff\n      and\n        /* \"src/BlueprintManager.sol\":4535:4541  sender */\n      dup2\n        /* \"src/BlueprintManager.sol\":4535:4555  sender == address(0) */\n      0xffffffffffffffffffffffffffffffffffffffff\n      and\n      sub\n        /* \"src/BlueprintManager.sol\":4531:4684  if (sender == address(0)) {... */\n      tag_242\n      jumpi\n        /* \"src/BlueprintManager.sol\":4571:4581  msg.sender */\n      caller\n        /* \"src/BlueprintManager.sol\":4562:4581  sender = msg.sender */\n      swap1\n      pop\n        /* \"src/BlueprintManager.sol\":4531:4684  if (sender == address(0)) {... */\n      jump(tag_243)\n    tag_242:\n        /* \"src/BlueprintManager.sol\":4606:4616  msg.sender */\n      caller\n        /* \"src/BlueprintManager.sol\":4596:4616  sender != msg.sender */\n      0xffffffffffffffffffffffffffffffffffffffff\n      and\n        /* \"src/BlueprintManager.sol\":4596:4602  sender */\n      dup2\n        /* \"src/BlueprintManager.sol\":4596:4616  sender != msg.sender */\n      0xffffffffffffffffffffffffffffffffffffffff\n      and\n      eq\n      iszero\n        /* \"src/BlueprintManager.sol\":4596:4651  sender != msg.sender && !isOperator[sender][msg.sender] */\n      dup1\n      iszero\n      tag_244\n      jumpi\n      pop\n        /* \"src/BlueprintManager.sol\":4621:4631  isOperator */\n      0x00\n        /* \"src/BlueprintManager.sol\":4621:4639  isOperator[sender] */\n      0x00\n        /* \"src/BlueprintManager.sol\":4632:4638  sender */\n      dup3\n        /* \"src/BlueprintManager.sol\":4621:4639  isOperator[sender] */\n      0xffffffffffffffffffffffffffffffffffffffff\n      and\n      0xffffffffffffffffffffffffffffffffffffffff\n      and\n      dup2\n      mstore\n      0x20\n      add\n      swap1\n      dup2\n      mstore\n      0x20\n      add\n      0x00\n      keccak256\n        /* \"src/BlueprintManager.sol\":4621:4651  isOperator[sender][msg.sender] */\n      0x00\n        /* \"src/BlueprintManager.sol\":4640:4650  msg.sender */\n      caller\n        /* \"src/BlueprintManager.sol\":4621:4651  isOperator[sender][msg.sender] */\n      0xffffffffffffffffffffffffffffffffffffffff\n      and\n      0xffffffffffffffffffffffffffffffffffffffff\n      and\n      dup2\n      mstore\n      0x20\n      add\n      swap1\n      dup2\n      mstore\n      0x20\n      add\n      0x00\n      keccak256\n      0x00\n      swap1\n      sload\n      swap1\n      0x0100\n      exp\n      swap1\n      div\n      0xff\n      and\n        /* \"src/BlueprintManager.sol\":4620:4651  !isOperator[sender][msg.sender] */\n      iszero\n        /* \"src/BlueprintManager.sol\":4596:4651  sender != msg.sender && !isOperator[sender][msg.sender] */\n    tag_244:\n        /* \"src/BlueprintManager.sol\":4592:4684  if (sender != msg.sender && !isOperator[sender][msg.sender]) {... */\n      iszero\n      tag_245\n      jumpi\n        /* \"src/BlueprintManager.sol\":4675:4679  true */\n      0x01\n        /* \"src/BlueprintManager.sol\":4658:4679  checkApprovals = true */\n      swap2\n      pop\n        /* \"src/BlueprintManager.sol\":4592:4684  if (sender != msg.sender && !isOperator[sender][msg.sender]) {... */\n    tag_245:\n        /* \"src/BlueprintManager.sol\":4531:4684  if (sender == address(0)) {... */\n    tag_243:\n        /* \"src/BlueprintManager.sol\":4693:4714  TokenOp[] memory mint */\n      0x00\n        /* \"src/BlueprintManager.sol\":4719:4740  TokenOp[] memory burn */\n      0x00\n        /* \"src/BlueprintManager.sol\":4745:4766  TokenOp[] memory give */\n      0x00\n        /* \"src/BlueprintManager.sol\":4771:4792  TokenOp[] memory take */\n      0x00\n        /* \"src/BlueprintManager.sol\":4799:4819  _executeAction(call) */\n      tag_246\n        /* \"src/BlueprintManager.sol\":4814:4818  call */\n      dup10\n        /* \"src/BlueprintManager.sol\":4799:4813  _executeAction */\n      tag_247\n        /* \"src/BlueprintManager.sol\":4799:4819  _executeAction(call) */\n      jump\t// in\n    tag_246:\n        /* \"src/BlueprintManager.sol\":4688:4819  (... */\n      swap4\n      pop\n      swap4\n      pop\n      swap4\n      pop\n      swap4\n      pop\n        /* \"src/BlueprintManager.sol\":4825:4855  FlashUserSession senderSession */\n      0x00\n        /* \"src/BlueprintManager.sol\":4857:4876  UserClue senderClue */\n      0x00\n        /* \"src/BlueprintManager.sol\":4883:4921  initializeUserSession(session, sender) */\n      tag_248\n        /* \"src/BlueprintManager.sol\":4905:4912  session */\n      dup11\n        /* \"src/BlueprintManager.sol\":4914:4920  sender */\n      dup9\n        /* \"src/BlueprintManager.sol\":4883:4904  initializeUserSession */\n      tag_112\n        /* \"src/BlueprintManager.sol\":4883:4921  initializeUserSession(session, sender) */\n      jump\t// in\n    tag_248:\n        /* \"src/BlueprintManager.sol\":4824:4921  (FlashUserSession senderSession, UserClue senderClue) =... */\n      swap2\n      pop\n      swap2\n      pop\n        /* \"src/BlueprintManager.sol\":4931:4940  uint256 i */\n      0x00\n        /* \"src/BlueprintManager.sol\":4943:4944  0 */\n      0x00\n        /* \"src/BlueprintManager.sol\":4931:4944  uint256 i = 0 */\n      swap1\n      pop\n        /* \"src/BlueprintManager.sol\":4926:5124  for (uint256 i = 0; i < mint.length; i++) {... */\n    tag_249:\n        /* \"src/BlueprintManager.sol\":4950:4954  mint */\n      dup7\n        /* \"src/BlueprintManager.sol\":4950:4961  mint.length */\n      mload\n        /* \"src/BlueprintManager.sol\":4946:4947  i */\n      dup2\n        /* \"src/BlueprintManager.sol\":4946:4961  i < mint.length */\n      lt\n        /* \"src/BlueprintManager.sol\":4926:5124  for (uint256 i = 0; i < mint.length; i++) {... */\n      iszero\n      tag_250\n      jumpi\n        /* \"src/BlueprintManager.sol\":4986:5119  addUserCreditWithClue(... */\n      tag_252\n        /* \"src/BlueprintManager.sol\":5013:5026  senderSession */\n      dup4\n        /* \"src/BlueprintManager.sol\":5032:5042  senderClue */\n      dup4\n        /* \"src/BlueprintManager.sol\":5048:5094  HashLib.getTokenId(blueprint, mint[i].tokenId) */\n      tag_253\n        /* \"src/BlueprintManager.sol\":5067:5076  blueprint */\n      dup14\n        /* \"src/BlueprintManager.sol\":5078:5082  mint */\n      dup12\n        /* \"src/BlueprintManager.sol\":5083:5084  i */\n      dup7\n        /* \"src/BlueprintManager.sol\":5078:5085  mint[i] */\n      dup2\n      mload\n      dup2\n      lt\n      tag_254\n      jumpi\n      tag_255\n      tag_118\n      jump\t// in\n    tag_255:\n    tag_254:\n      0x20\n      mul\n      0x20\n      add\n      add\n      mload\n        /* \"src/BlueprintManager.sol\":5078:5093  mint[i].tokenId */\n      0x00\n      add\n      mload\n        /* \"src/BlueprintManager.sol\":5048:5066  HashLib.getTokenId */\n      tag_106\n        /* \"src/BlueprintManager.sol\":5048:5094  HashLib.getTokenId(blueprint, mint[i].tokenId) */\n      jump\t// in\n    tag_253:\n        /* \"src/BlueprintManager.sol\":5100:5104  mint */\n      dup11\n        /* \"src/BlueprintManager.sol\":5105:5106  i */\n      dup6\n        /* \"src/BlueprintManager.sol\":5100:5107  mint[i] */\n      dup2\n      mload\n      dup2\n      lt\n      tag_256\n      jumpi\n      tag_257\n      tag_118\n      jump\t// in\n    tag_257:\n    tag_256:\n      0x20\n      mul\n      0x20\n      add\n      add\n      mload\n        /* \"src/BlueprintManager.sol\":5100:5114  mint[i].amount */\n      0x20\n      add\n      mload\n        /* \"src/BlueprintManager.sol\":4986:5007  addUserCreditWithClue */\n      tag_182\n        /* \"src/BlueprintManager.sol\":4986:5119  addUserCreditWithClue(... */\n      jump\t// in\n    tag_252:\n        /* \"src/BlueprintManager.sol\":4973:5119  senderClue = addUserCreditWithClue(... */\n      swap2\n      pop\n        /* \"src/BlueprintManager.sol\":4963:4966  i++ */\n      dup1\n      dup1\n      0x01\n      add\n      swap2\n      pop\n      pop\n        /* \"src/BlueprintManager.sol\":4926:5124  for (uint256 i = 0; i < mint.length; i++) {... */\n      jump(tag_249)\n    tag_250:\n      pop\n        /* \"src/BlueprintManager.sol\":5133:5142  uint256 i */\n      0x00\n        /* \"src/BlueprintManager.sol\":5145:5146  0 */\n      0x00\n        /* \"src/BlueprintManager.sol\":5133:5146  uint256 i = 0 */\n      swap1\n      pop\n        /* \"src/BlueprintManager.sol\":5128:5435  for (uint256 i = 0; i < burn.length; i++) {... */\n    tag_258:\n        /* \"src/BlueprintManager.sol\":5152:5156  burn */\n      dup6\n        /* \"src/BlueprintManager.sol\":5152:5163  burn.length */\n      mload\n        /* \"src/BlueprintManager.sol\":5148:5149  i */\n      dup2\n        /* \"src/BlueprintManager.sol\":5148:5163  i < burn.length */\n      lt\n        /* \"src/BlueprintManager.sol\":5128:5435  for (uint256 i = 0; i < burn.length; i++) {... */\n      iszero\n      tag_259\n      jumpi\n        /* \"src/BlueprintManager.sol\":5175:5190  uint256 tokenId */\n      0x00\n        /* \"src/BlueprintManager.sol\":5193:5239  HashLib.getTokenId(blueprint, burn[i].tokenId) */\n      tag_261\n        /* \"src/BlueprintManager.sol\":5212:5221  blueprint */\n      dup12\n        /* \"src/BlueprintManager.sol\":5223:5227  burn */\n      dup9\n        /* \"src/BlueprintManager.sol\":5228:5229  i */\n      dup5\n        /* \"src/BlueprintManager.sol\":5223:5230  burn[i] */\n      dup2\n      mload\n      dup2\n      lt\n      tag_262\n      jumpi\n      tag_263\n      tag_118\n      jump\t// in\n    tag_263:\n    tag_262:\n      0x20\n      mul\n      0x20\n      add\n      add\n      mload\n        /* \"src/BlueprintManager.sol\":5223:5238  burn[i].tokenId */\n      0x00\n      add\n      mload\n        /* \"src/BlueprintManager.sol\":5193:5211  HashLib.getTokenId */\n      tag_106\n        /* \"src/BlueprintManager.sol\":5193:5239  HashLib.getTokenId(blueprint, burn[i].tokenId) */\n      jump\t// in\n    tag_261:\n        /* \"src/BlueprintManager.sol\":5175:5239  uint256 tokenId = HashLib.getTokenId(blueprint, burn[i].tokenId) */\n      swap1\n      pop\n        /* \"src/BlueprintManager.sol\":5244:5258  uint256 amount */\n      0x00\n        /* \"src/BlueprintManager.sol\":5261:5265  burn */\n      dup8\n        /* \"src/BlueprintManager.sol\":5266:5267  i */\n      dup4\n        /* \"src/BlueprintManager.sol\":5261:5268  burn[i] */\n      dup2\n      mload\n      dup2\n      lt\n      tag_264\n      jumpi\n      tag_265\n      tag_118\n      jump\t// in\n    tag_265:\n    tag_264:\n      0x20\n      mul\n      0x20\n      add\n      add\n      mload\n        /* \"src/BlueprintManager.sol\":5261:5275  burn[i].amount */\n      0x20\n      add\n      mload\n        /* \"src/BlueprintManager.sol\":5244:5275  uint256 amount = burn[i].amount */\n      swap1\n      pop\n        /* \"src/BlueprintManager.sol\":5285:5299  checkApprovals */\n      dup11\n        /* \"src/BlueprintManager.sol\":5281:5347  if (checkApprovals)... */\n      iszero\n      tag_266\n      jumpi\n        /* \"src/BlueprintManager.sol\":5305:5347  _decreaseApproval(sender, tokenId, amount) */\n      tag_267\n        /* \"src/BlueprintManager.sol\":5323:5329  sender */\n      dup11\n        /* \"src/BlueprintManager.sol\":5331:5338  tokenId */\n      dup4\n        /* \"src/BlueprintManager.sol\":5340:5346  amount */\n      dup4\n        /* \"src/BlueprintManager.sol\":5305:5322  _decreaseApproval */\n      tag_206\n        /* \"src/BlueprintManager.sol\":5305:5347  _decreaseApproval(sender, tokenId, amount) */\n      jump\t// in\n    tag_267:\n        /* \"src/BlueprintManager.sol\":5281:5347  if (checkApprovals)... */\n    tag_266:\n        /* \"src/BlueprintManager.sol\":5366:5430  addUserDebitWithClue(senderSession, senderClue, tokenId, amount) */\n      tag_268\n        /* \"src/BlueprintManager.sol\":5387:5400  senderSession */\n      dup6\n        /* \"src/BlueprintManager.sol\":5402:5412  senderClue */\n      dup6\n        /* \"src/BlueprintManager.sol\":5414:5421  tokenId */\n      dup5\n        /* \"src/BlueprintManager.sol\":5423:5429  amount */\n      dup5\n        /* \"src/BlueprintManager.sol\":5366:5386  addUserDebitWithClue */\n      tag_120\n        /* \"src/BlueprintManager.sol\":5366:5430  addUserDebitWithClue(senderSession, senderClue, tokenId, amount) */\n      jump\t// in\n    tag_268:\n        /* \"src/BlueprintManager.sol\":5353:5430  senderClue = addUserDebitWithClue(senderSession, senderClue, tokenId, amount) */\n      swap4\n      pop\n        /* \"src/BlueprintManager.sol\":5170:5435  {... */\n      pop\n      pop\n        /* \"src/BlueprintManager.sol\":5165:5168  i++ */\n      dup1\n      dup1\n      0x01\n      add\n      swap2\n      pop\n      pop\n        /* \"src/BlueprintManager.sol\":5128:5435  for (uint256 i = 0; i < burn.length; i++) {... */\n      jump(tag_258)\n    tag_259:\n      pop\n        /* \"src/BlueprintManager.sol\":5456:5462  sender */\n      dup7\n        /* \"src/BlueprintManager.sol\":5443:5462  blueprint != sender */\n      0xffffffffffffffffffffffffffffffffffffffff\n      and\n        /* \"src/BlueprintManager.sol\":5443:5452  blueprint */\n      dup10\n        /* \"src/BlueprintManager.sol\":5443:5462  blueprint != sender */\n      0xffffffffffffffffffffffffffffffffffffffff\n      and\n      eq\n      iszero\n        /* \"src/BlueprintManager.sol\":5443:5504  blueprint != sender && (give.length != 0 || take.length != 0) */\n      dup1\n      iszero\n      tag_269\n      jumpi\n      pop\n        /* \"src/BlueprintManager.sol\":5482:5483  0 */\n      0x00\n        /* \"src/BlueprintManager.sol\":5467:5471  give */\n      dup5\n        /* \"src/BlueprintManager.sol\":5467:5478  give.length */\n      mload\n        /* \"src/BlueprintManager.sol\":5467:5483  give.length != 0 */\n      eq\n      iszero\n        /* \"src/BlueprintManager.sol\":5467:5503  give.length != 0 || take.length != 0 */\n      dup1\n      tag_270\n      jumpi\n      pop\n        /* \"src/BlueprintManager.sol\":5502:5503  0 */\n      0x00\n        /* \"src/BlueprintManager.sol\":5487:5491  take */\n      dup4\n        /* \"src/BlueprintManager.sol\":5487:5498  take.length */\n      mload\n        /* \"src/BlueprintManager.sol\":5487:5503  take.length != 0 */\n      eq\n      iszero\n        /* \"src/BlueprintManager.sol\":5467:5503  give.length != 0 || take.length != 0 */\n    tag_270:\n        /* \"src/BlueprintManager.sol\":5443:5504  blueprint != sender && (give.length != 0 || take.length != 0) */\n    tag_269:\n        /* \"src/BlueprintManager.sol\":5439:6323  if (blueprint != sender && (give.length != 0 || take.length != 0)) {... */\n      iszero\n      tag_271\n      jumpi\n        /* \"src/BlueprintManager.sol\":5512:5545  FlashUserSession blueprintSession */\n      0x00\n        /* \"src/BlueprintManager.sol\":5547:5569  UserClue blueprintClue */\n      0x00\n        /* \"src/BlueprintManager.sol\":5577:5618  initializeUserSession(session, blueprint) */\n      tag_272\n        /* \"src/BlueprintManager.sol\":5599:5606  session */\n      dup13\n        /* \"src/BlueprintManager.sol\":5608:5617  blueprint */\n      dup13\n        /* \"src/BlueprintManager.sol\":5577:5598  initializeUserSession */\n      tag_112\n        /* \"src/BlueprintManager.sol\":5577:5618  initializeUserSession(session, blueprint) */\n      jump\t// in\n    tag_272:\n        /* \"src/BlueprintManager.sol\":5511:5618  (FlashUserSession blueprintSession, UserClue blueprintClue) =... */\n      swap2\n      pop\n      swap2\n      pop\n        /* \"src/BlueprintManager.sol\":5629:5638  uint256 i */\n      0x00\n        /* \"src/BlueprintManager.sol\":5641:5642  0 */\n      0x00\n        /* \"src/BlueprintManager.sol\":5629:5642  uint256 i = 0 */\n      swap1\n      pop\n        /* \"src/BlueprintManager.sol\":5624:5909  for (uint256 i = 0; i < give.length; i++) {... */\n    tag_273:\n        /* \"src/BlueprintManager.sol\":5648:5652  give */\n      dup7\n        /* \"src/BlueprintManager.sol\":5648:5659  give.length */\n      mload\n        /* \"src/BlueprintManager.sol\":5644:5645  i */\n      dup2\n        /* \"src/BlueprintManager.sol\":5644:5659  i < give.length */\n      lt\n        /* \"src/BlueprintManager.sol\":5624:5909  for (uint256 i = 0; i < give.length; i++) {... */\n      iszero\n      tag_274\n      jumpi\n        /* \"src/BlueprintManager.sol\":5672:5682  uint256 id */\n      0x00\n        /* \"src/BlueprintManager.sol\":5685:5689  give */\n      dup8\n        /* \"src/BlueprintManager.sol\":5690:5691  i */\n      dup3\n        /* \"src/BlueprintManager.sol\":5685:5692  give[i] */\n      dup2\n      mload\n      dup2\n      lt\n      tag_276\n      jumpi\n      tag_277\n      tag_118\n      jump\t// in\n    tag_277:\n    tag_276:\n      0x20\n      mul\n      0x20\n      add\n      add\n      mload\n        /* \"src/BlueprintManager.sol\":5685:5700  give[i].tokenId */\n      0x00\n      add\n      mload\n        /* \"src/BlueprintManager.sol\":5672:5700  uint256 id = give[i].tokenId */\n      swap1\n      pop\n        /* \"src/BlueprintManager.sol\":5706:5720  uint256 amount */\n      0x00\n        /* \"src/BlueprintManager.sol\":5723:5727  give */\n      dup9\n        /* \"src/BlueprintManager.sol\":5728:5729  i */\n      dup4\n        /* \"src/BlueprintManager.sol\":5723:5730  give[i] */\n      dup2\n      mload\n      dup2\n      lt\n      tag_278\n      jumpi\n      tag_279\n      tag_118\n      jump\t// in\n    tag_279:\n    tag_278:\n      0x20\n      mul\n      0x20\n      add\n      add\n      mload\n        /* \"src/BlueprintManager.sol\":5723:5737  give[i].amount */\n      0x20\n      add\n      mload\n        /* \"src/BlueprintManager.sol\":5706:5737  uint256 amount = give[i].amount */\n      swap1\n      pop\n        /* \"src/BlueprintManager.sol\":5756:5816  addUserCreditWithClue(senderSession, senderClue, id, amount) */\n      tag_280\n        /* \"src/BlueprintManager.sol\":5778:5791  senderSession */\n      dup8\n        /* \"src/BlueprintManager.sol\":5793:5803  senderClue */\n      dup8\n        /* \"src/BlueprintManager.sol\":5805:5807  id */\n      dup5\n        /* \"src/BlueprintManager.sol\":5809:5815  amount */\n      dup5\n        /* \"src/BlueprintManager.sol\":5756:5777  addUserCreditWithClue */\n      tag_182\n        /* \"src/BlueprintManager.sol\":5756:5816  addUserCreditWithClue(senderSession, senderClue, id, amount) */\n      jump\t// in\n    tag_280:\n        /* \"src/BlueprintManager.sol\":5743:5816  senderClue = addUserCreditWithClue(senderSession, senderClue, id, amount) */\n      swap6\n      pop\n        /* \"src/BlueprintManager.sol\":5838:5903  addUserDebitWithClue(blueprintSession, blueprintClue, id, amount) */\n      tag_281\n        /* \"src/BlueprintManager.sol\":5859:5875  blueprintSession */\n      dup6\n        /* \"src/BlueprintManager.sol\":5877:5890  blueprintClue */\n      dup6\n        /* \"src/BlueprintManager.sol\":5892:5894  id */\n      dup5\n        /* \"src/BlueprintManager.sol\":5896:5902  amount */\n      dup5\n        /* \"src/BlueprintManager.sol\":5838:5858  addUserDebitWithClue */\n      tag_120\n        /* \"src/BlueprintManager.sol\":5838:5903  addUserDebitWithClue(blueprintSession, blueprintClue, id, amount) */\n      jump\t// in\n    tag_281:\n        /* \"src/BlueprintManager.sol\":5822:5903  blueprintClue = addUserDebitWithClue(blueprintSession, blueprintClue, id, amount) */\n      swap4\n      pop\n        /* \"src/BlueprintManager.sol\":5666:5909  {... */\n      pop\n      pop\n        /* \"src/BlueprintManager.sol\":5661:5664  i++ */\n      dup1\n      dup1\n      0x01\n      add\n      swap2\n      pop\n      pop\n        /* \"src/BlueprintManager.sol\":5624:5909  for (uint256 i = 0; i < give.length; i++) {... */\n      jump(tag_273)\n    tag_274:\n      pop\n        /* \"src/BlueprintManager.sol\":5919:5928  uint256 i */\n      0x00\n        /* \"src/BlueprintManager.sol\":5931:5932  0 */\n      0x00\n        /* \"src/BlueprintManager.sol\":5919:5932  uint256 i = 0 */\n      swap1\n      pop\n        /* \"src/BlueprintManager.sol\":5914:6269  for (uint256 i = 0; i < take.length; i++) {... */\n    tag_282:\n        /* \"src/BlueprintManager.sol\":5938:5942  take */\n      dup6\n        /* \"src/BlueprintManager.sol\":5938:5949  take.length */\n      mload\n        /* \"src/BlueprintManager.sol\":5934:5935  i */\n      dup2\n        /* \"src/BlueprintManager.sol\":5934:5949  i < take.length */\n      lt\n        /* \"src/BlueprintManager.sol\":5914:6269  for (uint256 i = 0; i < take.length; i++) {... */\n      iszero\n      tag_283\n      jumpi\n        /* \"src/BlueprintManager.sol\":5962:5972  uint256 id */\n      0x00\n        /* \"src/BlueprintManager.sol\":5975:5979  take */\n      dup7\n        /* \"src/BlueprintManager.sol\":5980:5981  i */\n      dup3\n        /* \"src/BlueprintManager.sol\":5975:5982  take[i] */\n      dup2\n      mload\n      dup2\n      lt\n      tag_285\n      jumpi\n      tag_286\n      tag_118\n      jump\t// in\n    tag_286:\n    tag_285:\n      0x20\n      mul\n      0x20\n      add\n      add\n      mload\n        /* \"src/BlueprintManager.sol\":5975:5990  take[i].tokenId */\n      0x00\n      add\n      mload\n        /* \"src/BlueprintManager.sol\":5962:5990  uint256 id = take[i].tokenId */\n      swap1\n      pop\n        /* \"src/BlueprintManager.sol\":5996:6010  uint256 amount */\n      0x00\n        /* \"src/BlueprintManager.sol\":6013:6017  take */\n      dup8\n        /* \"src/BlueprintManager.sol\":6018:6019  i */\n      dup4\n        /* \"src/BlueprintManager.sol\":6013:6020  take[i] */\n      dup2\n      mload\n      dup2\n      lt\n      tag_287\n      jumpi\n      tag_288\n      tag_118\n      jump\t// in\n    tag_288:\n    tag_287:\n      0x20\n      mul\n      0x20\n      add\n      add\n      mload\n        /* \"src/BlueprintManager.sol\":6013:6027  take[i].amount */\n      0x20\n      add\n      mload\n        /* \"src/BlueprintManager.sol\":5996:6027  uint256 amount = take[i].amount */\n      swap1\n      pop\n        /* \"src/BlueprintManager.sol\":6038:6052  checkApprovals */\n      dup13\n        /* \"src/BlueprintManager.sol\":6034:6096  if (checkApprovals)... */\n      iszero\n      tag_289\n      jumpi\n        /* \"src/BlueprintManager.sol\":6059:6096  _decreaseApproval(sender, id, amount) */\n      tag_290\n        /* \"src/BlueprintManager.sol\":6077:6083  sender */\n      dup13\n        /* \"src/BlueprintManager.sol\":6085:6087  id */\n      dup4\n        /* \"src/BlueprintManager.sol\":6089:6095  amount */\n      dup4\n        /* \"src/BlueprintManager.sol\":6059:6076  _decreaseApproval */\n      tag_206\n        /* \"src/BlueprintManager.sol\":6059:6096  _decreaseApproval(sender, id, amount) */\n      jump\t// in\n    tag_290:\n        /* \"src/BlueprintManager.sol\":6034:6096  if (checkApprovals)... */\n    tag_289:\n        /* \"src/BlueprintManager.sol\":6116:6175  addUserDebitWithClue(senderSession, senderClue, id, amount) */\n      tag_291\n        /* \"src/BlueprintManager.sol\":6137:6150  senderSession */\n      dup8\n        /* \"src/BlueprintManager.sol\":6152:6162  senderClue */\n      dup8\n        /* \"src/BlueprintManager.sol\":6164:6166  id */\n      dup5\n        /* \"src/BlueprintManager.sol\":6168:6174  amount */\n      dup5\n        /* \"src/BlueprintManager.sol\":6116:6136  addUserDebitWithClue */\n      tag_120\n        /* \"src/BlueprintManager.sol\":6116:6175  addUserDebitWithClue(senderSession, senderClue, id, amount) */\n      jump\t// in\n    tag_291:\n        /* \"src/BlueprintManager.sol\":6103:6175  senderClue = addUserDebitWithClue(senderSession, senderClue, id, amount) */\n      swap6\n      pop\n        /* \"src/BlueprintManager.sol\":6197:6263  addUserCreditWithClue(blueprintSession, blueprintClue, id, amount) */\n      tag_292\n        /* \"src/BlueprintManager.sol\":6219:6235  blueprintSession */\n      dup6\n        /* \"src/BlueprintManager.sol\":6237:6250  blueprintClue */\n      dup6\n        /* \"src/BlueprintManager.sol\":6252:6254  id */\n      dup5\n        /* \"src/BlueprintManager.sol\":6256:6262  amount */\n      dup5\n        /* \"src/BlueprintManager.sol\":6197:6218  addUserCreditWithClue */\n      tag_182\n        /* \"src/BlueprintManager.sol\":6197:6263  addUserCreditWithClue(blueprintSession, blueprintClue, id, amount) */\n      jump\t// in\n    tag_292:\n        /* \"src/BlueprintManager.sol\":6181:6263  blueprintClue = addUserCreditWithClue(blueprintSession, blueprintClue, id, amount) */\n      swap4\n      pop\n        /* \"src/BlueprintManager.sol\":5956:6269  {... */\n      pop\n      pop\n        /* \"src/BlueprintManager.sol\":5951:5954  i++ */\n      dup1\n      dup1\n      0x01\n      add\n      swap2\n      pop\n      pop\n        /* \"src/BlueprintManager.sol\":5914:6269  for (uint256 i = 0; i < take.length; i++) {... */\n      jump(tag_282)\n    tag_283:\n      pop\n        /* \"src/BlueprintManager.sol\":6273:6318  saveUserClue(blueprintSession, blueprintClue) */\n      tag_293\n        /* \"src/BlueprintManager.sol\":6286:6302  blueprintSession */\n      dup3\n        /* \"src/BlueprintManager.sol\":6304:6317  blueprintClue */\n      dup3\n        /* \"src/BlueprintManager.sol\":6273:6285  saveUserClue */\n      tag_123\n        /* \"src/BlueprintManager.sol\":6273:6318  saveUserClue(blueprintSession, blueprintClue) */\n      jump\t// in\n    tag_293:\n        /* \"src/BlueprintManager.sol\":5506:6323  {... */\n      pop\n      pop\n        /* \"src/BlueprintManager.sol\":5439:6323  if (blueprint != sender && (give.length != 0 || take.length != 0)) {... */\n    tag_271:\n        /* \"src/BlueprintManager.sol\":6326:6365  saveUserClue(senderSession, senderClue) */\n      tag_294\n        /* \"src/BlueprintManager.sol\":6339:6352  senderSession */\n      dup3\n        /* \"src/BlueprintManager.sol\":6354:6364  senderClue */\n      dup3\n        /* \"src/BlueprintManager.sol\":6326:6338  saveUserClue */\n      tag_123\n        /* \"src/BlueprintManager.sol\":6326:6365  saveUserClue(senderSession, senderClue) */\n      jump\t// in\n    tag_294:\n        /* \"src/BlueprintManager.sol\":4433:6369  {... */\n      pop\n      pop\n      pop\n      pop\n      pop\n      pop\n      pop\n      pop\n      pop\n        /* \"src/BlueprintManager.sol\":4353:6369  function _flashCook(BlueprintCall calldata call, FlashSession session) internal {... */\n      pop\n      pop\n      jump\t// out\n        /* \"src/FlashAccounting.sol\":1521:1844  function openFlashAccounting(address realizer) internal returns (... */\n    tag_152:\n        /* \"src/FlashAccounting.sol\":1589:1609  FlashSession session */\n      0x00\n        /* \"src/FlashAccounting.sol\":1613:1630  MainClue mainClue */\n      0x00\n        /* \"src/FlashAccounting.sol\":1686:1687  0 */\n      0x00\n        /* \"src/FlashAccounting.sol\":1680:1688  tload(0) */\n      tload\n        /* \"src/FlashAccounting.sol\":1668:1688  mainClue := tload(0) */\n      swap1\n      pop\n        /* \"src/FlashAccounting.sol\":1757:1758  1 */\n      0x01\n        /* \"src/FlashAccounting.sol\":1742:1754  _96_BIT_FLAG */\n      0xffffffffffffffffffffffff\n        /* \"src/FlashAccounting.sol\":1732:1740  mainClue */\n      dup3\n        /* \"src/FlashAccounting.sol\":1728:1755  and(mainClue, _96_BIT_FLAG) */\n      and\n        /* \"src/FlashAccounting.sol\":1724:1759  add(and(mainClue, _96_BIT_FLAG), 1) */\n      add\n        /* \"src/FlashAccounting.sol\":1713:1721  realizer */\n      dup4\n        /* \"src/FlashAccounting.sol\":1709:1711  96 */\n      0x60\n        /* \"src/FlashAccounting.sol\":1705:1722  shl(96, realizer) */\n      shl\n        /* \"src/FlashAccounting.sol\":1702:1760  or(shl(96, realizer), add(and(mainClue, _96_BIT_FLAG), 1)) */\n      or\n        /* \"src/FlashAccounting.sol\":1699:1700  0 */\n      0x00\n        /* \"src/FlashAccounting.sol\":1692:1761  tstore(0, or(shl(96, realizer), add(and(mainClue, _96_BIT_FLAG), 1))) */\n      tstore\n        /* \"src/FlashAccounting.sol\":1776:1784  mainClue */\n      dup1\n        /* \"src/FlashAccounting.sol\":1773:1774  0 */\n      0x00\n        /* \"src/FlashAccounting.sol\":1766:1785  mstore(0, mainClue) */\n      mstore\n        /* \"src/FlashAccounting.sol\":1802:1803  0 */\n      0x00\n        /* \"src/FlashAccounting.sol\":1796:1800  0x20 */\n      0x20\n        /* \"src/FlashAccounting.sol\":1789:1804  mstore(0x20, 0) */\n      mstore\n        /* \"src/FlashAccounting.sol\":1834:1836  44 */\n      0x2c\n        /* \"src/FlashAccounting.sol\":1830:1832  20 */\n      0x14\n        /* \"src/FlashAccounting.sol\":1820:1837  keccak256(20, 44) */\n      keccak256\n        /* \"src/FlashAccounting.sol\":1809:1837  session := keccak256(20, 44) */\n      swap2\n      pop\n        /* \"src/FlashAccounting.sol\":1521:1844  function openFlashAccounting(address realizer) internal returns (... */\n      swap2\n      pop\n      swap2\n      jump\t// out\n        /* \"src/FlashAccounting.sol\":1847:2021  function closeFlashAccounting(... */\n    tag_161:\n        /* \"src/FlashAccounting.sol\":1938:1960  settleSession(session) */\n      tag_297\n        /* \"src/FlashAccounting.sol\":1952:1959  session */\n      dup2\n        /* \"src/FlashAccounting.sol\":1938:1951  settleSession */\n      tag_298\n        /* \"src/FlashAccounting.sol\":1938:1960  settleSession(session) */\n      jump\t// in\n    tag_297:\n        /* \"src/FlashAccounting.sol\":2005:2013  mainClue */\n      dup2\n        /* \"src/FlashAccounting.sol\":2002:2003  0 */\n      0x00\n        /* \"src/FlashAccounting.sol\":1995:2014  tstore(0, mainClue) */\n      tstore\n        /* \"src/FlashAccounting.sol\":1847:2021  function closeFlashAccounting(... */\n      pop\n      pop\n      jump\t// out\n        /* \"src/FlashAccounting.sol\":3257:4757  function addUserCreditWithClue(... */\n    tag_182:\n        /* \"src/FlashAccounting.sol\":3394:3402  UserClue */\n      0x00\n        /* \"src/FlashAccounting.sol\":3448:3450  id */\n      dup3\n        /* \"src/FlashAccounting.sol\":3445:3446  0 */\n      0x00\n        /* \"src/FlashAccounting.sol\":3438:3451  mstore(0, id) */\n      mstore\n        /* \"src/FlashAccounting.sol\":3468:3479  userSession */\n      dup5\n        /* \"src/FlashAccounting.sol\":3462:3466  0x20 */\n      0x20\n        /* \"src/FlashAccounting.sol\":3455:3480  mstore(0x20, userSession) */\n      mstore\n        /* \"src/FlashAccounting.sol\":3515:3519  0x40 */\n      0x40\n        /* \"src/FlashAccounting.sol\":3512:3513  0 */\n      0x00\n        /* \"src/FlashAccounting.sol\":3502:3520  keccak256(0, 0x40) */\n      keccak256\n        /* \"src/FlashAccounting.sol\":3599:3608  deltaSlot */\n      dup1\n        /* \"src/FlashAccounting.sol\":3593:3609  tload(deltaSlot) */\n      tload\n        /* \"src/FlashAccounting.sol\":3634:3642  deltaVal */\n      dup1\n        /* \"src/FlashAccounting.sol\":3631:3632  1 */\n      0x01\n        /* \"src/FlashAccounting.sol\":3627:3643  sar(1, deltaVal) */\n      sar\n        /* \"src/FlashAccounting.sol\":3674:3680  amount */\n      dup5\n        /* \"src/FlashAccounting.sol\":3667:3672  delta */\n      dup2\n        /* \"src/FlashAccounting.sol\":3663:3681  add(delta, amount) */\n      add\n        /* \"src/FlashAccounting.sol\":3874:3875  1 */\n      0x01\n        /* \"src/FlashAccounting.sol\":3863:3871  newDelta */\n      dup2\n        /* \"src/FlashAccounting.sol\":3858:3861  254 */\n      0xfe\n        /* \"src/FlashAccounting.sol\":3854:3872  shr(254, newDelta) */\n      shr\n        /* \"src/FlashAccounting.sol\":3851:3876  eq(shr(254, newDelta), 1) */\n      eq\n        /* \"src/FlashAccounting.sol\":3843:3848  delta */\n      dup3\n        /* \"src/FlashAccounting.sol\":3833:3841  newDelta */\n      dup3\n        /* \"src/FlashAccounting.sol\":3829:3849  slt(newDelta, delta) */\n      slt\n        /* \"src/FlashAccounting.sol\":3826:3877  or(slt(newDelta, delta), eq(shr(254, newDelta), 1)) */\n      or\n        /* \"src/FlashAccounting.sol\":3886:3887  1 */\n      0x01\n        /* \"src/FlashAccounting.sol\":3881:4377  case 1 {... */\n      dup2\n      eq\n      tag_301\n      jumpi\n        /* \"src/FlashAccounting.sol\":4487:4488  1 */\n      0x01\n        /* \"src/FlashAccounting.sol\":4477:4485  deltaVal */\n      dup5\n        /* \"src/FlashAccounting.sol\":4473:4489  and(deltaVal, 1) */\n      and\n        /* \"src/FlashAccounting.sol\":4455:4463  newDelta */\n      dup3\n        /* \"src/FlashAccounting.sol\":4452:4453  1 */\n      0x01\n        /* \"src/FlashAccounting.sol\":4448:4464  shl(1, newDelta) */\n      shl\n        /* \"src/FlashAccounting.sol\":4437:4497  or(... */\n      or\n        /* \"src/FlashAccounting.sol\":4420:4429  deltaSlot */\n      dup6\n        /* \"src/FlashAccounting.sol\":4406:4504  tstore(... */\n      tstore\n        /* \"src/FlashAccounting.sol\":3819:4509  switch or(slt(newDelta, delta), eq(shr(254, newDelta), 1))... */\n      jump(tag_300)\n        /* \"src/FlashAccounting.sol\":3881:4377  case 1 {... */\n    tag_301:\n        /* \"src/FlashAccounting.sol\":3929:3930  1 */\n      0x01\n        /* \"src/FlashAccounting.sol\":3918:3927  deltaSlot */\n      dup6\n        /* \"src/FlashAccounting.sol\":3914:3931  add(deltaSlot, 1) */\n      add\n        /* \"src/FlashAccounting.sol\":4037:4047  _2_POW_254 */\n      0x4000000000000000000000000000000000000000000000000000000000000000\n        /* \"src/FlashAccounting.sol\":4027:4035  newDelta */\n      dup4\n        /* \"src/FlashAccounting.sol\":4023:4048  add(newDelta, _2_POW_254) */\n      add\n        /* \"src/FlashAccounting.sol\":4018:4021  255 */\n      0xff\n        /* \"src/FlashAccounting.sol\":4014:4049  shr(255, add(newDelta, _2_POW_254)) */\n      shr\n        /* \"src/FlashAccounting.sol\":4011:4012  2 */\n      0x02\n        /* \"src/FlashAccounting.sol\":4007:4050  sub(2, shr(255, add(newDelta, _2_POW_254))) */\n      sub\n        /* \"src/FlashAccounting.sol\":4124:4125  0 */\n      0x00\n        /* \"src/FlashAccounting.sol\":4147:4148  1 */\n      0x01\n        /* \"src/FlashAccounting.sol\":4137:4145  deltaVal */\n      dup8\n        /* \"src/FlashAccounting.sol\":4133:4149  and(deltaVal, 1) */\n      and\n        /* \"src/FlashAccounting.sol\":4130:4194  if and(deltaVal, 1) {... */\n      iszero\n      tag_302\n      jumpi\n        /* \"src/FlashAccounting.sol\":4175:4187  preDeltaSlot */\n      dup3\n        /* \"src/FlashAccounting.sol\":4169:4188  tload(preDeltaSlot) */\n      tload\n        /* \"src/FlashAccounting.sol\":4157:4188  preDelta := tload(preDeltaSlot) */\n      swap1\n      pop\n        /* \"src/FlashAccounting.sol\":4130:4194  if and(deltaVal, 1) {... */\n    tag_302:\n        /* \"src/FlashAccounting.sol\":4225:4230  carry */\n      dup2\n        /* \"src/FlashAccounting.sol\":4215:4223  preDelta */\n      dup2\n        /* \"src/FlashAccounting.sol\":4211:4231  add(preDelta, carry) */\n      add\n        /* \"src/FlashAccounting.sol\":4199:4231  preDelta := add(preDelta, carry) */\n      swap1\n      pop\n        /* \"src/FlashAccounting.sol\":4258:4266  preDelta */\n      dup1\n        /* \"src/FlashAccounting.sol\":4244:4256  preDeltaSlot */\n      dup4\n        /* \"src/FlashAccounting.sol\":4237:4267  tstore(preDeltaSlot, preDelta) */\n      tstore\n        /* \"src/FlashAccounting.sol\":4349:4357  preDelta */\n      dup1\n        /* \"src/FlashAccounting.sol\":4342:4358  iszero(preDelta) */\n      iszero\n        /* \"src/FlashAccounting.sol\":4335:4359  iszero(iszero(preDelta)) */\n      iszero\n        /* \"src/FlashAccounting.sol\":4318:4326  newDelta */\n      dup6\n        /* \"src/FlashAccounting.sol\":4315:4316  1 */\n      0x01\n        /* \"src/FlashAccounting.sol\":4311:4327  shl(1, newDelta) */\n      shl\n        /* \"src/FlashAccounting.sol\":4301:4366  or(... */\n      or\n        /* \"src/FlashAccounting.sol\":4285:4294  deltaSlot */\n      dup9\n        /* \"src/FlashAccounting.sol\":4272:4372  tstore(... */\n      tstore\n        /* \"src/FlashAccounting.sol\":3888:4377  {... */\n      pop\n      pop\n      pop\n        /* \"src/FlashAccounting.sol\":3819:4509  switch or(slt(newDelta, delta), eq(shr(254, newDelta), 1))... */\n    tag_300:\n      pop\n        /* \"src/FlashAccounting.sol\":4569:4577  deltaVal */\n      dup3\n        /* \"src/FlashAccounting.sol\":4559:4730  if iszero(deltaVal) {... */\n      tag_303\n      jumpi\n        /* \"src/FlashAccounting.sol\":4611:4612  1 */\n      0x01\n        /* \"src/FlashAccounting.sol\":4601:4609  userClue */\n      dup9\n        /* \"src/FlashAccounting.sol\":4597:4613  add(userClue, 1) */\n      add\n        /* \"src/FlashAccounting.sol\":4585:4613  userClue := add(userClue, 1) */\n      swap8\n      pop\n        /* \"src/FlashAccounting.sol\":4722:4724  id */\n      dup7\n        /* \"src/FlashAccounting.sol\":4711:4719  userClue */\n      dup9\n        /* \"src/FlashAccounting.sol\":4698:4709  userSession */\n      dup11\n        /* \"src/FlashAccounting.sol\":4694:4720  add(userSession, userClue) */\n      add\n        /* \"src/FlashAccounting.sol\":4687:4725  tstore(add(userSession, userClue), id) */\n      tstore\n        /* \"src/FlashAccounting.sol\":4559:4730  if iszero(deltaVal) {... */\n    tag_303:\n        /* \"src/FlashAccounting.sol\":3433:4734  {... */\n      pop\n      pop\n      pop\n      pop\n        /* \"src/FlashAccounting.sol\":4745:4753  userClue */\n      dup4\n        /* \"src/FlashAccounting.sol\":4738:4753  return userClue */\n      swap1\n      pop\n        /* \"src/FlashAccounting.sol\":3257:4757  function addUserCreditWithClue(... */\n      swap5\n      swap4\n      pop\n      pop\n      pop\n      pop\n      jump\t// out\n        /* \"src/BlueprintManager.sol\":2037:2269  function _decreaseApproval(address sender, uint256 id, uint256 amount) internal {... */\n    tag_206:\n        /* \"src/BlueprintManager.sol\":2121:2136  uint256 allowed */\n      0x00\n        /* \"src/BlueprintManager.sol\":2139:2148  allowance */\n      0x02\n        /* \"src/BlueprintManager.sol\":2139:2156  allowance[sender] */\n      0x00\n        /* \"src/BlueprintManager.sol\":2149:2155  sender */\n      dup6\n        /* \"src/BlueprintManager.sol\":2139:2156  allowance[sender] */\n      0xffffffffffffffffffffffffffffffffffffffff\n      and\n      0xffffffffffffffffffffffffffffffffffffffff\n      and\n      dup2\n      mstore\n      0x20\n      add\n      swap1\n      dup2\n      mstore\n      0x20\n      add\n      0x00\n      keccak256\n        /* \"src/BlueprintManager.sol\":2139:2168  allowance[sender][msg.sender] */\n      0x00\n        /* \"src/BlueprintManager.sol\":2157:2167  msg.sender */\n      caller\n        /* \"src/BlueprintManager.sol\":2139:2168  allowance[sender][msg.sender] */\n      0xffffffffffffffffffffffffffffffffffffffff\n      and\n      0xffffffffffffffffffffffffffffffffffffffff\n      and\n      dup2\n      mstore\n      0x20\n      add\n      swap1\n      dup2\n      mstore\n      0x20\n      add\n      0x00\n      keccak256\n        /* \"src/BlueprintManager.sol\":2139:2172  allowance[sender][msg.sender][id] */\n      0x00\n        /* \"src/BlueprintManager.sol\":2169:2171  id */\n      dup5\n        /* \"src/BlueprintManager.sol\":2139:2172  allowance[sender][msg.sender][id] */\n      dup2\n      mstore\n      0x20\n      add\n      swap1\n      dup2\n      mstore\n      0x20\n      add\n      0x00\n      keccak256\n      sload\n        /* \"src/BlueprintManager.sol\":2121:2172  uint256 allowed = allowance[sender][msg.sender][id] */\n      swap1\n      pop\n        /* \"src/BlueprintManager.sol\":2191:2208  type(uint256).max */\n      0xffffffffffffffffffffffffffffffffffffffffffffffffffffffffffffffff\n        /* \"src/BlueprintManager.sol\":2180:2187  allowed */\n      dup2\n        /* \"src/BlueprintManager.sol\":2180:2208  allowed != type(uint256).max */\n      eq\n        /* \"src/BlueprintManager.sol\":2176:2265  if (allowed != type(uint256).max)... */\n      tag_305\n      jumpi\n        /* \"src/BlueprintManager.sol\":2259:2265  amount */\n      dup2\n        /* \"src/BlueprintManager.sol\":2249:2256  allowed */\n      dup2\n        /* \"src/BlueprintManager.sol\":2249:2265  allowed - amount */\n      tag_306\n      swap2\n      swap1\n      tag_236\n      jump\t// in\n    tag_306:\n        /* \"src/BlueprintManager.sol\":2213:2222  allowance */\n      0x02\n        /* \"src/BlueprintManager.sol\":2213:2230  allowance[sender] */\n      0x00\n        /* \"src/BlueprintManager.sol\":2223:2229  sender */\n      dup7\n        /* \"src/BlueprintManager.sol\":2213:2230  allowance[sender] */\n      0xffffffffffffffffffffffffffffffffffffffff\n      and\n      0xffffffffffffffffffffffffffffffffffffffff\n      and\n      dup2\n      mstore\n      0x20\n      add\n      swap1\n      dup2\n      mstore\n      0x20\n      add\n      0x00\n      keccak256\n        /* \"src/BlueprintManager.sol\":2213:2242  allowance[sender][msg.sender] */\n      0x00\n        /* \"src/BlueprintManager.sol\":2231:2241  msg.sender */\n      caller\n        /* \"src/BlueprintManager.sol\":2213:2242  allowance[sender][msg.sender] */\n      0xffffffffffffffffffffffffffffffffffffffff\n      and\n      0xffffffffffffffffffffffffffffffffffffffff\n      and\n      dup2\n      mstore\n      0x20\n      add\n      swap1\n      dup2\n      mstore\n      0x20\n      add\n      0x00\n      keccak256\n        /* \"src/BlueprintManager.sol\":2213:2246  allowance[sender][msg.sender][id] */\n      0x00\n        /* \"src/BlueprintManager.sol\":2243:2245  id */\n      dup6\n        /* \"src/BlueprintManager.sol\":2213:2246  allowance[sender][msg.sender][id] */\n      dup2\n      mstore\n      0x20\n      add\n      swap1\n      dup2\n      mstore\n      0x20\n      add\n      0x00\n      keccak256\n        /* \"src/BlueprintManager.sol\":2213:2265  allowance[sender][msg.sender][id] = allowed - amount */\n      dup2\n      swap1\n      sstore\n      pop\n        /* \"src/BlueprintManager.sol\":2176:2265  if (allowed != type(uint256).max)... */\n    tag_305:\n        /* \"src/BlueprintManager.sol\":2117:2269  {... */\n      pop\n        /* \"src/BlueprintManager.sol\":2037:2269  function _decreaseApproval(address sender, uint256 id, uint256 amount) internal {... */\n      pop\n      pop\n      pop\n      jump\t// out\n        /* \"src/FlashAccounting.sol\":2024:2262  function getUserSession(... */\n    tag_223:\n        /* \"src/FlashAccounting.sol\":2114:2142  FlashUserSession userSession */\n      0x00\n        /* \"src/FlashAccounting.sol\":2188:2192  user */\n      dup2\n        /* \"src/FlashAccounting.sol\":2185:2186  0 */\n      0x00\n        /* \"src/FlashAccounting.sol\":2178:2193  mstore(0, user) */\n      mstore\n        /* \"src/FlashAccounting.sol\":2210:2217  session */\n      dup3\n        /* \"src/FlashAccounting.sol\":2204:2208  0x20 */\n      0x20\n        /* \"src/FlashAccounting.sol\":2197:2218  mstore(0x20, session) */\n      mstore\n        /* \"src/FlashAccounting.sol\":2252:2254  52 */\n      0x34\n        /* \"src/FlashAccounting.sol\":2248:2250  12 */\n      0x0c\n        /* \"src/FlashAccounting.sol\":2238:2255  keccak256(12, 52) */\n      keccak256\n        /* \"src/FlashAccounting.sol\":2223:2255  userSession := keccak256(12, 52) */\n      swap1\n      pop\n        /* \"src/FlashAccounting.sol\":2024:2262  function getUserSession(... */\n      swap3\n      swap2\n      pop\n      pop\n      jump\t// out\n        /* \"src/BlueprintManager.sol\":3834:4350  function _executeAction(... */\n    tag_247:\n        /* \"src/BlueprintManager.sol\":3913:3934  TokenOp[] memory mint */\n      0x60\n        /* \"src/BlueprintManager.sol\":3938:3959  TokenOp[] memory burn */\n      dup1\n        /* \"src/BlueprintManager.sol\":3963:3984  TokenOp[] memory give */\n      0x60\n        /* \"src/BlueprintManager.sol\":3988:4009  TokenOp[] memory take */\n      dup1\n        /* \"src/BlueprintManager.sol\":4093:4097  call */\n      dup5\n        /* \"src/BlueprintManager.sol\":4093:4107  call.blueprint */\n      0x20\n      add\n      0x20\n      dup2\n      add\n      swap1\n      tag_309\n      swap2\n      swap1\n      tag_240\n      jump\t// in\n    tag_309:\n        /* \"src/BlueprintManager.sol\":4082:4122  IBlueprint(call.blueprint).executeAction */\n      0xffffffffffffffffffffffffffffffffffffffff\n      and\n      0xa129568d\n        /* \"src/BlueprintManager.sol\":4123:4127  call */\n      dup7\n        /* \"src/BlueprintManager.sol\":4123:4134  call.action */\n      dup1\n      0x40\n      add\n      swap1\n      tag_310\n      swap2\n      swap1\n      tag_311\n      jump\t// in\n    tag_310:\n        /* \"src/BlueprintManager.sol\":4082:4135  IBlueprint(call.blueprint).executeAction(call.action) */\n      mload(0x40)\n      dup4\n      0xffffffff\n      and\n      0xe0\n      shl\n      dup2\n      mstore\n      0x04\n      add\n      tag_312\n      swap3\n      swap2\n      swap1\n      tag_313\n      jump\t// in\n    tag_312:\n      0x00\n      mload(0x40)\n      dup1\n      dup4\n      sub\n      dup2\n      0x00\n      dup8\n      gas\n      call\n      iszero\n      dup1\n      iszero\n      tag_315\n      jumpi\n      returndatacopy(0x00, 0x00, returndatasize)\n      revert(0x00, returndatasize)\n    tag_315:\n      pop\n      pop\n      pop\n      pop\n      mload(0x40)\n      returndatasize\n      0x00\n      dup3\n      returndatacopy\n      returndatasize\n      not(0x1f)\n      0x1f\n      dup3\n      add\n      and\n      dup3\n      add\n      dup1\n      0x40\n      mstore\n      pop\n      dup2\n      add\n      swap1\n      tag_316\n      swap2\n      swap1\n      tag_317\n      jump\t// in\n    tag_316:\n        /* \"src/BlueprintManager.sol\":4055:4135  (mint, burn, give, take) = IBlueprint(call.blueprint).executeAction(call.action) */\n      dup1\n      swap5\n      pop\n      dup2\n      swap6\n      pop\n      dup3\n      swap7\n      pop\n      dup4\n      swap8\n      pop\n      pop\n      pop\n      pop\n      pop\n        /* \"src/BlueprintManager.sol\":4161:4162  0 */\n      0x00\n        /* \"src/BlueprintManager.sol\":4144:4162  call.checksum != 0 */\n      0x00\n      shl\n        /* \"src/BlueprintManager.sol\":4144:4148  call */\n      dup6\n        /* \"src/BlueprintManager.sol\":4144:4157  call.checksum */\n      0x60\n      add\n      calldataload\n        /* \"src/BlueprintManager.sol\":4144:4162  call.checksum != 0 */\n      eq\n        /* \"src/BlueprintManager.sol\":4140:4347  if (call.checksum != 0) {... */\n      tag_318\n      jumpi\n        /* \"src/BlueprintManager.sol\":4231:4247  bytes32 expected */\n      0x00\n        /* \"src/BlueprintManager.sol\":4250:4277  HashLib.hashActionResults() */\n      tag_319\n        /* \"src/BlueprintManager.sol\":4250:4275  HashLib.hashActionResults */\n      tag_320\n        /* \"src/BlueprintManager.sol\":4250:4277  HashLib.hashActionResults() */\n      jump\t// in\n    tag_319:\n        /* \"src/BlueprintManager.sol\":4231:4277  bytes32 expected = HashLib.hashActionResults() */\n      swap1\n      pop\n        /* \"src/BlueprintManager.sol\":4304:4312  expected */\n      dup1\n        /* \"src/BlueprintManager.sol\":4287:4291  call */\n      dup7\n        /* \"src/BlueprintManager.sol\":4287:4300  call.checksum */\n      0x60\n      add\n      calldataload\n        /* \"src/BlueprintManager.sol\":4287:4312  call.checksum != expected */\n      eq\n        /* \"src/BlueprintManager.sol\":4283:4342  if (call.checksum != expected)... */\n      tag_321\n      jumpi\n        /* \"src/BlueprintManager.sol\":4325:4342  InvalidChecksum() */\n      mload(0x40)\n      0x6f0632bf00000000000000000000000000000000000000000000000000000000\n      dup2\n      mstore\n      0x04\n      add\n      mload(0x40)\n      dup1\n      swap2\n      sub\n      swap1\n      revert\n        /* \"src/BlueprintManager.sol\":4283:4342  if (call.checksum != expected)... */\n    tag_321:\n        /* \"src/BlueprintManager.sol\":4164:4347  {... */\n      pop\n        /* \"src/BlueprintManager.sol\":4140:4347  if (call.checksum != 0) {... */\n    tag_318:\n        /* \"src/BlueprintManager.sol\":3834:4350  function _executeAction(... */\n      swap2\n      swap4\n      pop\n      swap2\n      swap4\n      jump\t// out\n        /* \"src/FlashAccounting.sol\":8572:9045  function settleSession(... */\n    tag_298:\n        /* \"src/FlashAccounting.sol\":8634:8657  SessionClue sessionClue */\n      0x00\n        /* \"src/FlashAccounting.sol\":8712:8719  session */\n      dup2\n        /* \"src/FlashAccounting.sol\":8706:8720  tload(session) */\n      tload\n        /* \"src/FlashAccounting.sol\":8691:8720  sessionClue := tload(session) */\n      swap1\n      pop\n        /* \"src/FlashAccounting.sol\":8733:8742  uint256 i */\n      0x00\n        /* \"src/FlashAccounting.sol\":8745:8746  0 */\n      0x00\n        /* \"src/FlashAccounting.sol\":8733:8746  uint256 i = 0 */\n      swap1\n      pop\n        /* \"src/FlashAccounting.sol\":8728:9042  for (uint256 i = 0; i < SessionClue.unwrap(sessionClue);) {... */\n    tag_323:\n        /* \"src/FlashAccounting.sol\":8771:8782  sessionClue */\n      dup2\n        /* \"src/FlashAccounting.sol\":8748:8749  i */\n      dup2\n        /* \"src/FlashAccounting.sol\":8748:8783  i < SessionClue.unwrap(sessionClue) */\n      lt\n        /* \"src/FlashAccounting.sol\":8728:9042  for (uint256 i = 0; i < SessionClue.unwrap(sessionClue);) {... */\n      iszero\n      tag_324\n      jumpi\n        /* \"src/FlashAccounting.sol\":8791:8803  address user */\n      0x00\n        /* \"src/FlashAccounting.sol\":8851:8852  i */\n      dup2\n        /* \"src/FlashAccounting.sol\":8848:8849  1 */\n      0x01\n        /* \"src/FlashAccounting.sol\":8844:8853  add(1, i) */\n      add\n        /* \"src/FlashAccounting.sol\":8839:8853  i := add(1, i) */\n      swap2\n      pop\n        /* \"src/FlashAccounting.sol\":8885:8886  i */\n      dup2\n        /* \"src/FlashAccounting.sol\":8876:8883  session */\n      dup5\n        /* \"src/FlashAccounting.sol\":8872:8887  add(session, i) */\n      add\n        /* \"src/FlashAccounting.sol\":8866:8888  tload(add(session, i)) */\n      tload\n        /* \"src/FlashAccounting.sol\":8858:8888  user := tload(add(session, i)) */\n      swap1\n      pop\n        /* \"src/FlashAccounting.sol\":8898:8953  settleUserBalances(getUserSession(session, user), user) */\n      tag_326\n        /* \"src/FlashAccounting.sol\":8917:8946  getUserSession(session, user) */\n      tag_327\n        /* \"src/FlashAccounting.sol\":8932:8939  session */\n      dup6\n        /* \"src/FlashAccounting.sol\":8941:8945  user */\n      dup4\n        /* \"src/FlashAccounting.sol\":8917:8931  getUserSession */\n      tag_223\n        /* \"src/FlashAccounting.sol\":8917:8946  getUserSession(session, user) */\n      jump\t// in\n    tag_327:\n        /* \"src/FlashAccounting.sol\":8948:8952  user */\n      dup3\n        /* \"src/FlashAccounting.sol\":8898:8916  settleUserBalances */\n      tag_328\n        /* \"src/FlashAccounting.sol\":8898:8953  settleUserBalances(getUserSession(session, user), user) */\n      jump\t// in\n    tag_326:\n        /* \"src/FlashAccounting.sol\":9031:9032  0 */\n      0x00\n        /* \"src/FlashAccounting.sol\":9022:9029  session */\n      dup5\n        /* \"src/FlashAccounting.sol\":9015:9033  tstore(session, 0) */\n      tstore\n        /* \"src/FlashAccounting.sol\":8984:9038  {... */\n      pop\n        /* \"src/FlashAccounting.sol\":8728:9042  for (uint256 i = 0; i < SessionClue.unwrap(sessionClue);) {... */\n      jump(tag_323)\n    tag_324:\n      pop\n        /* \"src/FlashAccounting.sol\":8630:9045  {... */\n      pop\n        /* \"src/FlashAccounting.sol\":8572:9045  function settleSession(... */\n      pop\n      jump\t// out\n        /* \"src/libraries/HashLib.sol\":368:1016  function hashActionResults() internal pure returns (bytes32 res) {... */\n    tag_320:\n        /* \"src/libraries/HashLib.sol\":420:431  bytes32 res */\n      0x00\n        /* \"src/libraries/HashLib.sol\":484:488  0x40 */\n      0x40\n        /* \"src/libraries/HashLib.sol\":478:489  mload(0x40) */\n      mload\n        /* \"src/libraries/HashLib.sol\":508:511  ptr */\n      dup1\n        /* \"src/libraries/HashLib.sol\":538:542  0x80 */\n      0x80\n        /* \"src/libraries/HashLib.sol\":535:536  0 */\n      0x00\n        /* \"src/libraries/HashLib.sol\":530:533  ptr */\n      dup4\n        /* \"src/libraries/HashLib.sol\":515:543  returndatacopy(ptr, 0, 0x80) */\n      returndatacopy\n        /* \"src/libraries/HashLib.sol\":577:581  0x80 */\n      0x80\n        /* \"src/libraries/HashLib.sol\":572:575  ptr */\n      dup3\n        /* \"src/libraries/HashLib.sol\":568:582  add(ptr, 0x80) */\n      add\n        /* \"src/libraries/HashLib.sol\":548:973  for {let scratch := add(ptr, 0x80)} lt(ptr, scratch) {ptr := add(ptr, 0x20)} {... */\n    tag_330:\n        /* \"src/libraries/HashLib.sol\":592:599  scratch */\n      dup1\n        /* \"src/libraries/HashLib.sol\":587:590  ptr */\n      dup4\n        /* \"src/libraries/HashLib.sol\":584:600  lt(ptr, scratch) */\n      lt\n        /* \"src/libraries/HashLib.sol\":548:973  for {let scratch := add(ptr, 0x80)} lt(ptr, scratch) {ptr := add(ptr, 0x20)} {... */\n      iszero\n      tag_332\n      jumpi\n        /* \"src/libraries/HashLib.sol\":651:654  ptr */\n      dup3\n        /* \"src/libraries/HashLib.sol\":645:655  mload(ptr) */\n      mload\n        /* \"src/libraries/HashLib.sol\":692:696  0x20 */\n      0x20\n        /* \"src/libraries/HashLib.sol\":684:690  retPtr */\n      dup2\n        /* \"src/libraries/HashLib.sol\":675:682  scratch */\n      dup4\n        /* \"src/libraries/HashLib.sol\":660:697  returndatacopy(scratch, retPtr, 0x20) */\n      returndatacopy\n        /* \"src/libraries/HashLib.sol\":792:799  scratch */\n      dup2\n        /* \"src/libraries/HashLib.sol\":786:800  mload(scratch) */\n      mload\n        /* \"src/libraries/HashLib.sol\":783:784  6 */\n      0x06\n        /* \"src/libraries/HashLib.sol\":779:801  shl(6, mload(scratch)) */\n      shl\n        /* \"src/libraries/HashLib.sol\":873:877  0x20 */\n      0x20\n        /* \"src/libraries/HashLib.sol\":865:871  retPtr */\n      dup3\n        /* \"src/libraries/HashLib.sol\":861:878  add(retPtr, 0x20) */\n      add\n        /* \"src/libraries/HashLib.sol\":851:878  retPtr := add(retPtr, 0x20) */\n      swap2\n      pop\n        /* \"src/libraries/HashLib.sol\":915:922  byteLen */\n      dup1\n        /* \"src/libraries/HashLib.sol\":907:913  retPtr */\n      dup3\n        /* \"src/libraries/HashLib.sol\":898:905  scratch */\n      dup5\n        /* \"src/libraries/HashLib.sol\":883:923  returndatacopy(scratch, retPtr, byteLen) */\n      returndatacopy\n        /* \"src/libraries/HashLib.sol\":959:966  byteLen */\n      dup1\n        /* \"src/libraries/HashLib.sol\":950:957  scratch */\n      dup4\n        /* \"src/libraries/HashLib.sol\":940:967  keccak256(scratch, byteLen) */\n      keccak256\n        /* \"src/libraries/HashLib.sol\":935:938  ptr */\n      dup6\n        /* \"src/libraries/HashLib.sol\":928:968  mstore(ptr, keccak256(scratch, byteLen)) */\n      mstore\n        /* \"src/libraries/HashLib.sol\":625:973  {... */\n      pop\n      pop\n        /* \"src/libraries/HashLib.sol\":618:622  0x20 */\n      0x20\n        /* \"src/libraries/HashLib.sol\":613:616  ptr */\n      dup4\n        /* \"src/libraries/HashLib.sol\":609:623  add(ptr, 0x20) */\n      add\n        /* \"src/libraries/HashLib.sol\":602:623  ptr := add(ptr, 0x20) */\n      swap3\n      pop\n        /* \"src/libraries/HashLib.sol\":548:973  for {let scratch := add(ptr, 0x80)} lt(ptr, scratch) {ptr := add(ptr, 0x20)} {... */\n      jump(tag_330)\n    tag_332:\n        /* \"src/libraries/HashLib.sol\":552:583  {let scratch := add(ptr, 0x80)} */\n      pop\n        /* \"src/libraries/HashLib.sol\":1004:1008  0x80 */\n      0x80\n        /* \"src/libraries/HashLib.sol\":995:1002  initPtr */\n      dup2\n        /* \"src/libraries/HashLib.sol\":985:1009  keccak256(initPtr, 0x80) */\n      keccak256\n        /* \"src/libraries/HashLib.sol\":978:1009  res := keccak256(initPtr, 0x80) */\n      swap3\n      pop\n        /* \"src/libraries/HashLib.sol\":462:1013  {... */\n      pop\n      pop\n        /* \"src/libraries/HashLib.sol\":368:1016  function hashActionResults() internal pure returns (bytes32 res) {... */\n      swap1\n      jump\t// out\n        /* \"src/FlashAccounting.sol\":6763:8569  function settleUserBalances(FlashUserSession userSession, address user) private {... */\n    tag_328:\n        /* \"src/FlashAccounting.sol\":6847:6864  UserClue userClue */\n      0x00\n        /* \"src/FlashAccounting.sol\":6867:6891  getUserClue(userSession) */\n      tag_334\n        /* \"src/FlashAccounting.sol\":6879:6890  userSession */\n      dup4\n        /* \"src/FlashAccounting.sol\":6867:6878  getUserClue */\n      tag_335\n        /* \"src/FlashAccounting.sol\":6867:6891  getUserClue(userSession) */\n      jump\t// in\n    tag_334:\n        /* \"src/FlashAccounting.sol\":6847:6891  UserClue userClue = getUserClue(userSession) */\n      swap1\n      pop\n        /* \"src/FlashAccounting.sol\":6901:6910  uint256 i */\n      0x00\n        /* \"src/FlashAccounting.sol\":6913:6914  0 */\n      0x00\n        /* \"src/FlashAccounting.sol\":6901:6914  uint256 i = 0 */\n      swap1\n      pop\n        /* \"src/FlashAccounting.sol\":6896:8460  for (uint256 i = 0; i < UserClue.unwrap(userClue);) {... */\n    tag_336:\n        /* \"src/FlashAccounting.sol\":6936:6944  userClue */\n      dup2\n        /* \"src/FlashAccounting.sol\":6916:6917  i */\n      dup2\n        /* \"src/FlashAccounting.sol\":6916:6945  i < UserClue.unwrap(userClue) */\n      lt\n        /* \"src/FlashAccounting.sol\":6896:8460  for (uint256 i = 0; i < UserClue.unwrap(userClue);) {... */\n      iszero\n      tag_337\n      jumpi\n        /* \"src/FlashAccounting.sol\":6953:6963  uint256 id */\n      0x00\n        /* \"src/FlashAccounting.sol\":6968:6980  int256 delta */\n      0x00\n        /* \"src/FlashAccounting.sol\":6985:7002  uint256 deltaSlot */\n      0x00\n        /* \"src/FlashAccounting.sol\":7051:7052  i */\n      dup4\n        /* \"src/FlashAccounting.sol\":7048:7049  1 */\n      0x01\n        /* \"src/FlashAccounting.sol\":7044:7053  add(1, i) */\n      add\n        /* \"src/FlashAccounting.sol\":7039:7053  i := add(1, i) */\n      swap4\n      pop\n        /* \"src/FlashAccounting.sol\":7087:7088  i */\n      dup4\n        /* \"src/FlashAccounting.sol\":7074:7085  userSession */\n      dup8\n        /* \"src/FlashAccounting.sol\":7070:7089  add(userSession, i) */\n      add\n        /* \"src/FlashAccounting.sol\":7064:7090  tload(add(userSession, i)) */\n      tload\n        /* \"src/FlashAccounting.sol\":7058:7090  id := tload(add(userSession, i)) */\n      swap3\n      pop\n        /* \"src/FlashAccounting.sol\":7106:7108  id */\n      dup3\n        /* \"src/FlashAccounting.sol\":7103:7104  0 */\n      0x00\n        /* \"src/FlashAccounting.sol\":7096:7109  mstore(0, id) */\n      mstore\n        /* \"src/FlashAccounting.sol\":7127:7138  userSession */\n      dup7\n        /* \"src/FlashAccounting.sol\":7121:7125  0x20 */\n      0x20\n        /* \"src/FlashAccounting.sol\":7114:7139  mstore(0x20, userSession) */\n      mstore\n        /* \"src/FlashAccounting.sol\":7170:7174  0x40 */\n      0x40\n        /* \"src/FlashAccounting.sol\":7167:7168  0 */\n      0x00\n        /* \"src/FlashAccounting.sol\":7157:7175  keccak256(0, 0x40) */\n      keccak256\n        /* \"src/FlashAccounting.sol\":7144:7175  deltaSlot := keccak256(0, 0x40) */\n      swap1\n      pop\n        /* \"src/FlashAccounting.sol\":7196:7205  deltaSlot */\n      dup1\n        /* \"src/FlashAccounting.sol\":7190:7206  tload(deltaSlot) */\n      tload\n        /* \"src/FlashAccounting.sol\":7181:7206  delta := tload(deltaSlot) */\n      swap2\n      pop\n        /* \"src/FlashAccounting.sol\":7229:7230  0 */\n      0x00\n        /* \"src/FlashAccounting.sol\":7220:7225  delta */\n      dup3\n        /* \"src/FlashAccounting.sol\":7220:7230  delta == 0 */\n      sub\n        /* \"src/FlashAccounting.sol\":7216:7244  if (delta == 0)... */\n      tag_339\n      jumpi\n        /* \"src/FlashAccounting.sol\":7236:7244  continue */\n      pop\n      pop\n      pop\n      jump(tag_338)\n        /* \"src/FlashAccounting.sol\":7216:7244  if (delta == 0)... */\n    tag_339:\n        /* \"src/FlashAccounting.sol\":7250:7259  bool more */\n      0x00\n        /* \"src/FlashAccounting.sol\":7314:7315  1 */\n      0x01\n        /* \"src/FlashAccounting.sol\":7307:7312  delta */\n      dup4\n        /* \"src/FlashAccounting.sol\":7303:7316  and(delta, 1) */\n      and\n        /* \"src/FlashAccounting.sol\":7295:7316  more := and(delta, 1) */\n      swap1\n      pop\n        /* \"src/FlashAccounting.sol\":7337:7342  delta */\n      dup3\n        /* \"src/FlashAccounting.sol\":7334:7335  1 */\n      0x01\n        /* \"src/FlashAccounting.sol\":7330:7343  sar(1, delta) */\n      sar\n        /* \"src/FlashAccounting.sol\":7321:7343  delta := sar(1, delta) */\n      swap3\n      pop\n        /* \"src/FlashAccounting.sol\":7490:7491  0 */\n      0x00\n        /* \"src/FlashAccounting.sol\":7479:7488  deltaSlot */\n      dup3\n        /* \"src/FlashAccounting.sol\":7472:7492  tstore(deltaSlot, 0) */\n      tstore\n        /* \"src/FlashAccounting.sol\":7522:7526  more */\n      dup1\n        /* \"src/FlashAccounting.sol\":7518:8451  if (more) {... */\n      iszero\n      tag_340\n      jumpi\n        /* \"src/FlashAccounting.sol\":7535:7551  int256 extension */\n      0x00\n        /* \"src/FlashAccounting.sol\":7625:7626  1 */\n      0x01\n        /* \"src/FlashAccounting.sol\":7614:7623  deltaSlot */\n      dup4\n        /* \"src/FlashAccounting.sol\":7610:7627  add(deltaSlot, 1) */\n      add\n        /* \"src/FlashAccounting.sol\":7604:7628  tload(add(deltaSlot, 1)) */\n      tload\n        /* \"src/FlashAccounting.sol\":7591:7628  extension := tload(add(deltaSlot, 1)) */\n      swap1\n      pop\n        /* \"src/FlashAccounting.sol\":7659:7661  -2 */\n      0xfffffffffffffffffffffffffffffffffffffffffffffffffffffffffffffffe\n        /* \"src/FlashAccounting.sol\":7646:7655  extension */\n      dup2\n        /* \"src/FlashAccounting.sol\":7646:7661  extension == -2 */\n      sub\n        /* \"src/FlashAccounting.sol\":7642:8322  if (extension == -2) {... */\n      tag_341\n      jumpi\n        /* \"src/FlashAccounting.sol\":7683:7684  0 */\n      0x00\n        /* \"src/FlashAccounting.sol\":7675:7680  delta */\n      dup5\n        /* \"src/FlashAccounting.sol\":7675:7684  delta < 0 */\n      slt\n        /* \"src/FlashAccounting.sol\":7671:7722  if (delta < 0)... */\n      iszero\n      tag_342\n      jumpi\n        /* \"src/FlashAccounting.sol\":7700:7722  BalanceDeltaOverflow() */\n      mload(0x40)\n      0x778214eb00000000000000000000000000000000000000000000000000000000\n      dup2\n      mstore\n      0x04\n      add\n      mload(0x40)\n      dup1\n      swap2\n      sub\n      swap1\n      revert\n        /* \"src/FlashAccounting.sol\":7671:7722  if (delta < 0)... */\n    tag_342:\n        /* \"src/FlashAccounting.sol\":7777:7809  _burn(user, id, uint256(-delta)) */\n      tag_343\n        /* \"src/FlashAccounting.sol\":7783:7787  user */\n      dup9\n        /* \"src/FlashAccounting.sol\":7789:7791  id */\n      dup7\n        /* \"src/FlashAccounting.sol\":7802:7807  delta */\n      dup7\n        /* \"src/FlashAccounting.sol\":7801:7807  -delta */\n      0x00\n      sub\n        /* \"src/FlashAccounting.sol\":7777:7782  _burn */\n      tag_134\n        /* \"src/FlashAccounting.sol\":7777:7809  _burn(user, id, uint256(-delta)) */\n      jump\t// in\n    tag_343:\n        /* \"src/FlashAccounting.sol\":7642:8322  if (extension == -2) {... */\n      jump(tag_344)\n    tag_341:\n        /* \"src/FlashAccounting.sol\":7840:7842  -1 */\n      0xffffffffffffffffffffffffffffffffffffffffffffffffffffffffffffffff\n        /* \"src/FlashAccounting.sol\":7827:7836  extension */\n      dup2\n        /* \"src/FlashAccounting.sol\":7827:7842  extension == -1 */\n      sub\n        /* \"src/FlashAccounting.sol\":7823:8322  if (extension == -1) {... */\n      tag_345\n      jumpi\n        /* \"src/FlashAccounting.sol\":7852:7897  _burn(user, id, uint256(-delta) + (1 << 255)) */\n      tag_346\n        /* \"src/FlashAccounting.sol\":7858:7862  user */\n      dup9\n        /* \"src/FlashAccounting.sol\":7864:7866  id */\n      dup7\n        /* \"src/FlashAccounting.sol\":7887:7895  1 << 255 */\n      0x8000000000000000000000000000000000000000000000000000000000000000\n        /* \"src/FlashAccounting.sol\":7877:7882  delta */\n      dup8\n        /* \"src/FlashAccounting.sol\":7876:7882  -delta */\n      0x00\n      sub\n        /* \"src/FlashAccounting.sol\":7868:7896  uint256(-delta) + (1 << 255) */\n      add\n        /* \"src/FlashAccounting.sol\":7852:7857  _burn */\n      tag_134\n        /* \"src/FlashAccounting.sol\":7852:7897  _burn(user, id, uint256(-delta) + (1 << 255)) */\n      jump\t// in\n    tag_346:\n        /* \"src/FlashAccounting.sol\":7823:8322  if (extension == -1) {... */\n      jump(tag_347)\n    tag_345:\n        /* \"src/FlashAccounting.sol\":8027:8028  1 */\n      0x01\n        /* \"src/FlashAccounting.sol\":8014:8023  extension */\n      dup2\n        /* \"src/FlashAccounting.sol\":8014:8028  extension == 1 */\n      sub\n        /* \"src/FlashAccounting.sol\":8010:8322  if (extension == 1) {... */\n      tag_348\n      jumpi\n        /* \"src/FlashAccounting.sol\":8038:8082  _mint(user, id, uint256(delta) + (1 << 255)) */\n      tag_349\n        /* \"src/FlashAccounting.sol\":8044:8048  user */\n      dup9\n        /* \"src/FlashAccounting.sol\":8050:8052  id */\n      dup7\n        /* \"src/FlashAccounting.sol\":8072:8080  1 << 255 */\n      0x8000000000000000000000000000000000000000000000000000000000000000\n        /* \"src/FlashAccounting.sol\":8062:8067  delta */\n      dup8\n        /* \"src/FlashAccounting.sol\":8054:8081  uint256(delta) + (1 << 255) */\n      add\n        /* \"src/FlashAccounting.sol\":8038:8043  _mint */\n      tag_107\n        /* \"src/FlashAccounting.sol\":8038:8082  _mint(user, id, uint256(delta) + (1 << 255)) */\n      jump\t// in\n    tag_349:\n        /* \"src/FlashAccounting.sol\":8010:8322  if (extension == 1) {... */\n      jump(tag_350)\n    tag_348:\n        /* \"src/FlashAccounting.sol\":8113:8114  2 */\n      0x02\n        /* \"src/FlashAccounting.sol\":8100:8109  extension */\n      dup2\n        /* \"src/FlashAccounting.sol\":8100:8114  extension == 2 */\n      sub\n        /* \"src/FlashAccounting.sol\":8096:8322  if (extension == 2) {... */\n      tag_351\n      jumpi\n        /* \"src/FlashAccounting.sol\":8137:8138  0 */\n      0x00\n        /* \"src/FlashAccounting.sol\":8128:8133  delta */\n      dup5\n        /* \"src/FlashAccounting.sol\":8128:8138  delta >= 0 */\n      slt\n        /* \"src/FlashAccounting.sol\":8124:8176  if (delta >= 0)... */\n      tag_352\n      jumpi\n        /* \"src/FlashAccounting.sol\":8154:8176  BalanceDeltaOverflow() */\n      mload(0x40)\n      0x778214eb00000000000000000000000000000000000000000000000000000000\n      dup2\n      mstore\n      0x04\n      add\n      mload(0x40)\n      dup1\n      swap2\n      sub\n      swap1\n      revert\n        /* \"src/FlashAccounting.sol\":8124:8176  if (delta >= 0)... */\n    tag_352:\n        /* \"src/FlashAccounting.sol\":8242:8273  _mint(user, id, uint256(delta)) */\n      tag_353\n        /* \"src/FlashAccounting.sol\":8248:8252  user */\n      dup9\n        /* \"src/FlashAccounting.sol\":8254:8256  id */\n      dup7\n        /* \"src/FlashAccounting.sol\":8266:8271  delta */\n      dup7\n        /* \"src/FlashAccounting.sol\":8242:8247  _mint */\n      tag_107\n        /* \"src/FlashAccounting.sol\":8242:8273  _mint(user, id, uint256(delta)) */\n      jump\t// in\n    tag_353:\n        /* \"src/FlashAccounting.sol\":8096:8322  if (extension == 2) {... */\n      jump(tag_354)\n    tag_351:\n        /* \"src/FlashAccounting.sol\":8300:8322  BalanceDeltaOverflow() */\n      mload(0x40)\n      0x778214eb00000000000000000000000000000000000000000000000000000000\n      dup2\n      mstore\n      0x04\n      add\n      mload(0x40)\n      dup1\n      swap2\n      sub\n      swap1\n      revert\n        /* \"src/FlashAccounting.sol\":8096:8322  if (extension == 2) {... */\n    tag_354:\n        /* \"src/FlashAccounting.sol\":8010:8322  if (extension == 1) {... */\n    tag_350:\n        /* \"src/FlashAccounting.sol\":7823:8322  if (extension == -1) {... */\n    tag_347:\n        /* \"src/FlashAccounting.sol\":7642:8322  if (extension == -2) {... */\n    tag_344:\n        /* \"src/FlashAccounting.sol\":7528:8329  {... */\n      pop\n        /* \"src/FlashAccounting.sol\":7518:8451  if (more) {... */\n      jump(tag_355)\n    tag_340:\n        /* \"src/FlashAccounting.sol\":8354:8355  0 */\n      0x00\n        /* \"src/FlashAccounting.sol\":8346:8351  delta */\n      dup4\n        /* \"src/FlashAccounting.sol\":8346:8355  delta < 0 */\n      slt\n        /* \"src/FlashAccounting.sol\":8342:8444  if (delta < 0)... */\n      iszero\n      tag_356\n      jumpi\n        /* \"src/FlashAccounting.sol\":8363:8395  _burn(user, id, uint256(-delta)) */\n      tag_357\n        /* \"src/FlashAccounting.sol\":8369:8373  user */\n      dup8\n        /* \"src/FlashAccounting.sol\":8375:8377  id */\n      dup6\n        /* \"src/FlashAccounting.sol\":8388:8393  delta */\n      dup6\n        /* \"src/FlashAccounting.sol\":8387:8393  -delta */\n      0x00\n      sub\n        /* \"src/FlashAccounting.sol\":8363:8368  _burn */\n      tag_134\n        /* \"src/FlashAccounting.sol\":8363:8395  _burn(user, id, uint256(-delta)) */\n      jump\t// in\n    tag_357:\n        /* \"src/FlashAccounting.sol\":8342:8444  if (delta < 0)... */\n      jump(tag_358)\n    tag_356:\n        /* \"src/FlashAccounting.sol\":8413:8444  _mint(user, id, uint256(delta)) */\n      tag_359\n        /* \"src/FlashAccounting.sol\":8419:8423  user */\n      dup8\n        /* \"src/FlashAccounting.sol\":8425:8427  id */\n      dup6\n        /* \"src/FlashAccounting.sol\":8437:8442  delta */\n      dup6\n        /* \"src/FlashAccounting.sol\":8413:8418  _mint */\n      tag_107\n        /* \"src/FlashAccounting.sol\":8413:8444  _mint(user, id, uint256(delta)) */\n      jump\t// in\n    tag_359:\n        /* \"src/FlashAccounting.sol\":8342:8444  if (delta < 0)... */\n    tag_358:\n        /* \"src/FlashAccounting.sol\":7518:8451  if (more) {... */\n    tag_355:\n        /* \"src/FlashAccounting.sol\":6948:8460  {... */\n      pop\n      pop\n      pop\n      pop\n        /* \"src/FlashAccounting.sol\":6896:8460  for (uint256 i = 0; i < UserClue.unwrap(userClue);) {... */\n    tag_338:\n      jump(tag_336)\n    tag_337:\n      pop\n        /* \"src/FlashAccounting.sol\":8560:8561  0 */\n      0x00\n        /* \"src/FlashAccounting.sol\":8547:8558  userSession */\n      dup4\n        /* \"src/FlashAccounting.sol\":8540:8562  tstore(userSession, 0) */\n      tstore\n        /* \"src/FlashAccounting.sol\":8489:8566  {... */\n      pop\n        /* \"src/FlashAccounting.sol\":6763:8569  function settleUserBalances(FlashUserSession userSession, address user) private {... */\n      pop\n      pop\n      jump\t// out\n        /* \"src/FlashAccounting.sol\":2265:2413  function getUserClue(FlashUserSession userSession) internal view returns (UserClue userClue) {... */\n    tag_335:\n        /* \"src/FlashAccounting.sol\":2339:2356  UserClue userClue */\n      0x00\n        /* \"src/FlashAccounting.sol\":2394:2405  userSession */\n      dup2\n        /* \"src/FlashAccounting.sol\":2388:2406  tload(userSession) */\n      tload\n        /* \"src/FlashAccounting.sol\":2376:2406  userClue := tload(userSession) */\n      swap1\n      pop\n        /* \"src/FlashAccounting.sol\":2265:2413  function getUserClue(FlashUserSession userSession) internal view returns (UserClue userClue) {... */\n      swap2\n      swap1\n      pop\n      jump\t// out\n        /* \"#utility.yul\":7:82   */\n    tag_361:\n        /* \"#utility.yul\":40:46   */\n      0x00\n        /* \"#utility.yul\":73:75   */\n      0x40\n        /* \"#utility.yul\":67:76   */\n      mload\n        /* \"#utility.yul\":57:76   */\n      swap1\n      pop\n        /* \"#utility.yul\":7:82   */\n      swap1\n      jump\t// out\n        /* \"#utility.yul\":88:205   */\n    tag_362:\n        /* \"#utility.yul\":197:198   */\n      0x00\n        /* \"#utility.yul\":194:195   */\n      0x00\n        /* \"#utility.yul\":187:199   */\n      revert\n        /* \"#utility.yul\":211:328   */\n    tag_363:\n        /* \"#utility.yul\":320:321   */\n      0x00\n        /* \"#utility.yul\":317:318   */\n      0x00\n        /* \"#utility.yul\":310:322   */\n      revert\n        /* \"#utility.yul\":334:460   */\n    tag_364:\n        /* \"#utility.yul\":371:378   */\n      0x00\n        /* \"#utility.yul\":411:453   */\n      0xffffffffffffffffffffffffffffffffffffffff\n        /* \"#utility.yul\":404:409   */\n      dup3\n        /* \"#utility.yul\":400:454   */\n      and\n        /* \"#utility.yul\":389:454   */\n      swap1\n      pop\n        /* \"#utility.yul\":334:460   */\n      swap2\n      swap1\n      pop\n      jump\t// out\n        /* \"#utility.yul\":466:562   */\n    tag_365:\n        /* \"#utility.yul\":503:510   */\n      0x00\n        /* \"#utility.yul\":532:556   */\n      tag_408\n        /* \"#utility.yul\":550:555   */\n      dup3\n        /* \"#utility.yul\":532:556   */\n      tag_364\n      jump\t// in\n    tag_408:\n        /* \"#utility.yul\":521:556   */\n      swap1\n      pop\n        /* \"#utility.yul\":466:562   */\n      swap2\n      swap1\n      pop\n      jump\t// out\n        /* \"#utility.yul\":568:690   */\n    tag_366:\n        /* \"#utility.yul\":641:665   */\n      tag_410\n        /* \"#utility.yul\":659:664   */\n      dup2\n        /* \"#utility.yul\":641:665   */\n      tag_365\n      jump\t// in\n    tag_410:\n        /* \"#utility.yul\":634:639   */\n      dup2\n        /* \"#utility.yul\":631:666   */\n      eq\n        /* \"#utility.yul\":621:684   */\n      tag_411\n      jumpi\n        /* \"#utility.yul\":680:681   */\n      0x00\n        /* \"#utility.yul\":677:678   */\n      0x00\n        /* \"#utility.yul\":670:682   */\n      revert\n        /* \"#utility.yul\":621:684   */\n    tag_411:\n        /* \"#utility.yul\":568:690   */\n      pop\n      jump\t// out\n        /* \"#utility.yul\":696:835   */\n    tag_367:\n        /* \"#utility.yul\":742:747   */\n      0x00\n        /* \"#utility.yul\":780:786   */\n      dup2\n        /* \"#utility.yul\":767:787   */\n      calldataload\n        /* \"#utility.yul\":758:787   */\n      swap1\n      pop\n        /* \"#utility.yul\":796:829   */\n      tag_413\n        /* \"#utility.yul\":823:828   */\n      dup2\n        /* \"#utility.yul\":796:829   */\n      tag_366\n      jump\t// in\n    tag_413:\n        /* \"#utility.yul\":696:835   */\n      swap3\n      swap2\n      pop\n      pop\n      jump\t// out\n        /* \"#utility.yul\":841:918   */\n    tag_368:\n        /* \"#utility.yul\":878:885   */\n      0x00\n        /* \"#utility.yul\":907:912   */\n      dup2\n        /* \"#utility.yul\":896:912   */\n      swap1\n      pop\n        /* \"#utility.yul\":841:918   */\n      swap2\n      swap1\n      pop\n      jump\t// out\n        /* \"#utility.yul\":924:1046   */\n    tag_369:\n        /* \"#utility.yul\":997:1021   */\n      tag_416\n        /* \"#utility.yul\":1015:1020   */\n      dup2\n        /* \"#utility.yul\":997:1021   */\n      tag_368\n      jump\t// in\n    tag_416:\n        /* \"#utility.yul\":990:995   */\n      dup2\n        /* \"#utility.yul\":987:1022   */\n      eq\n        /* \"#utility.yul\":977:1040   */\n      tag_417\n      jumpi\n        /* \"#utility.yul\":1036:1037   */\n      0x00\n        /* \"#utility.yul\":1033:1034   */\n      0x00\n        /* \"#utility.yul\":1026:1038   */\n      revert\n        /* \"#utility.yul\":977:1040   */\n    tag_417:\n        /* \"#utility.yul\":924:1046   */\n      pop\n      jump\t// out\n        /* \"#utility.yul\":1052:1191   */\n    tag_370:\n        /* \"#utility.yul\":1098:1103   */\n      0x00\n        /* \"#utility.yul\":1136:1142   */\n      dup2\n        /* \"#utility.yul\":1123:1143   */\n      calldataload\n        /* \"#utility.yul\":1114:1143   */\n      swap1\n      pop\n        /* \"#utility.yul\":1152:1185   */\n      tag_419\n        /* \"#utility.yul\":1179:1184   */\n      dup2\n        /* \"#utility.yul\":1152:1185   */\n      tag_369\n      jump\t// in\n    tag_419:\n        /* \"#utility.yul\":1052:1191   */\n      swap3\n      swap2\n      pop\n      pop\n      jump\t// out\n        /* \"#utility.yul\":1197:1671   */\n    tag_26:\n        /* \"#utility.yul\":1265:1271   */\n      0x00\n        /* \"#utility.yul\":1273:1279   */\n      0x00\n        /* \"#utility.yul\":1322:1324   */\n      0x40\n        /* \"#utility.yul\":1310:1319   */\n      dup4\n        /* \"#utility.yul\":1301:1308   */\n      dup6\n        /* \"#utility.yul\":1297:1320   */\n      sub\n        /* \"#utility.yul\":1293:1325   */\n      slt\n        /* \"#utility.yul\":1290:1409   */\n      iszero\n      tag_421\n      jumpi\n        /* \"#utility.yul\":1328:1407   */\n      tag_422\n      tag_362\n      jump\t// in\n    tag_422:\n        /* \"#utility.yul\":1290:1409   */\n    tag_421:\n        /* \"#utility.yul\":1448:1449   */\n      0x00\n        /* \"#utility.yul\":1473:1526   */\n      tag_423\n        /* \"#utility.yul\":1518:1525   */\n      dup6\n        /* \"#utility.yul\":1509:1515   */\n      dup3\n        /* \"#utility.yul\":1498:1507   */\n      dup7\n        /* \"#utility.yul\":1494:1516   */\n      add\n        /* \"#utility.yul\":1473:1526   */\n      tag_367\n      jump\t// in\n    tag_423:\n        /* \"#utility.yul\":1463:1526   */\n      swap3\n      pop\n        /* \"#utility.yul\":1419:1536   */\n      pop\n        /* \"#utility.yul\":1575:1577   */\n      0x20\n        /* \"#utility.yul\":1601:1654   */\n      tag_424\n        /* \"#utility.yul\":1646:1653   */\n      dup6\n        /* \"#utility.yul\":1637:1643   */\n      dup3\n        /* \"#utility.yul\":1626:1635   */\n      dup7\n        /* \"#utility.yul\":1622:1644   */\n      add\n        /* \"#utility.yul\":1601:1654   */\n      tag_370\n      jump\t// in\n    tag_424:\n        /* \"#utility.yul\":1591:1654   */\n      swap2\n      pop\n        /* \"#utility.yul\":1546:1664   */\n      pop\n        /* \"#utility.yul\":1197:1671   */\n      swap3\n      pop\n      swap3\n      swap1\n      pop\n      jump\t// out\n        /* \"#utility.yul\":1677:1795   */\n    tag_371:\n        /* \"#utility.yul\":1764:1788   */\n      tag_426\n        /* \"#utility.yul\":1782:1787   */\n      dup2\n        /* \"#utility.yul\":1764:1788   */\n      tag_368\n      jump\t// in\n    tag_426:\n        /* \"#utility.yul\":1759:1762   */\n      dup3\n        /* \"#utility.yul\":1752:1789   */\n      mstore\n        /* \"#utility.yul\":1677:1795   */\n      pop\n      pop\n      jump\t// out\n        /* \"#utility.yul\":1801:2023   */\n    tag_29:\n        /* \"#utility.yul\":1894:1898   */\n      0x00\n        /* \"#utility.yul\":1932:1934   */\n      0x20\n        /* \"#utility.yul\":1921:1930   */\n      dup3\n        /* \"#utility.yul\":1917:1935   */\n      add\n        /* \"#utility.yul\":1909:1935   */\n      swap1\n      pop\n        /* \"#utility.yul\":1945:2016   */\n      tag_428\n        /* \"#utility.yul\":2013:2014   */\n      0x00\n        /* \"#utility.yul\":2002:2011   */\n      dup4\n        /* \"#utility.yul\":1998:2015   */\n      add\n        /* \"#utility.yul\":1989:1995   */\n      dup5\n        /* \"#utility.yul\":1945:2016   */\n      tag_371\n      jump\t// in\n    tag_428:\n        /* \"#utility.yul\":1801:2023   */\n      swap3\n      swap2\n      pop\n      pop\n      jump\t// out\n        /* \"#utility.yul\":2029:2648   */\n    tag_32:\n        /* \"#utility.yul\":2106:2112   */\n      0x00\n        /* \"#utility.yul\":2114:2120   */\n      0x00\n        /* \"#utility.yul\":2122:2128   */\n      0x00\n        /* \"#utility.yul\":2171:2173   */\n      0x60\n        /* \"#utility.yul\":2159:2168   */\n      dup5\n        /* \"#utility.yul\":2150:2157   */\n      dup7\n        /* \"#utility.yul\":2146:2169   */\n      sub\n        /* \"#utility.yul\":2142:2174   */\n      slt\n        /* \"#utility.yul\":2139:2258   */\n      iszero\n      tag_430\n      jumpi\n        /* \"#utility.yul\":2177:2256   */\n      tag_431\n      tag_362\n      jump\t// in\n    tag_431:\n        /* \"#utility.yul\":2139:2258   */\n    tag_430:\n        /* \"#utility.yul\":2297:2298   */\n      0x00\n        /* \"#utility.yul\":2322:2375   */\n      tag_432\n        /* \"#utility.yul\":2367:2374   */\n      dup7\n        /* \"#utility.yul\":2358:2364   */\n      dup3\n        /* \"#utility.yul\":2347:2356   */\n      dup8\n        /* \"#utility.yul\":2343:2365   */\n      add\n        /* \"#utility.yul\":2322:2375   */\n      tag_367\n      jump\t// in\n    tag_432:\n        /* \"#utility.yul\":2312:2375   */\n      swap4\n      pop\n        /* \"#utility.yul\":2268:2385   */\n      pop\n        /* \"#utility.yul\":2424:2426   */\n      0x20\n        /* \"#utility.yul\":2450:2503   */\n      tag_433\n        /* \"#utility.yul\":2495:2502   */\n      dup7\n        /* \"#utility.yul\":2486:2492   */\n      dup3\n        /* \"#utility.yul\":2475:2484   */\n      dup8\n        /* \"#utility.yul\":2471:2493   */\n      add\n        /* \"#utility.yul\":2450:2503   */\n      tag_370\n      jump\t// in\n    tag_433:\n        /* \"#utility.yul\":2440:2503   */\n      swap3\n      pop\n        /* \"#utility.yul\":2395:2513   */\n      pop\n        /* \"#utility.yul\":2552:2554   */\n      0x40\n        /* \"#utility.yul\":2578:2631   */\n      tag_434\n        /* \"#utility.yul\":2623:2630   */\n      dup7\n        /* \"#utility.yul\":2614:2620   */\n      dup3\n        /* \"#utility.yul\":2603:2612   */\n      dup8\n        /* \"#utility.yul\":2599:2621   */\n      add\n        /* \"#utility.yul\":2578:2631   */\n      tag_370\n      jump\t// in\n    tag_434:\n        /* \"#utility.yul\":2568:2631   */\n      swap2\n      pop\n        /* \"#utility.yul\":2523:2641   */\n      pop\n        /* \"#utility.yul\":2029:2648   */\n      swap3\n      pop\n      swap3\n      pop\n      swap3\n      jump\t// out\n        /* \"#utility.yul\":2654:2744   */\n    tag_372:\n        /* \"#utility.yul\":2688:2695   */\n      0x00\n        /* \"#utility.yul\":2731:2736   */\n      dup2\n        /* \"#utility.yul\":2724:2737   */\n      iszero\n        /* \"#utility.yul\":2717:2738   */\n      iszero\n        /* \"#utility.yul\":2706:2738   */\n      swap1\n      pop\n        /* \"#utility.yul\":2654:2744   */\n      swap2\n      swap1\n      pop\n      jump\t// out\n        /* \"#utility.yul\":2750:2859   */\n    tag_373:\n        /* \"#utility.yul\":2831:2852   */\n      tag_437\n        /* \"#utility.yul\":2846:2851   */\n      dup2\n        /* \"#utility.yul\":2831:2852   */\n      tag_372\n      jump\t// in\n    tag_437:\n        /* \"#utility.yul\":2826:2829   */\n      dup3\n        /* \"#utility.yul\":2819:2853   */\n      mstore\n        /* \"#utility.yul\":2750:2859   */\n      pop\n      pop\n      jump\t// out\n        /* \"#utility.yul\":2865:3075   */\n    tag_35:\n        /* \"#utility.yul\":2952:2956   */\n      0x00\n        /* \"#utility.yul\":2990:2992   */\n      0x20\n        /* \"#utility.yul\":2979:2988   */\n      dup3\n        /* \"#utility.yul\":2975:2993   */\n      add\n        /* \"#utility.yul\":2967:2993   */\n      swap1\n      pop\n        /* \"#utility.yul\":3003:3068   */\n      tag_439\n        /* \"#utility.yul\":3065:3066   */\n      0x00\n        /* \"#utility.yul\":3054:3063   */\n      dup4\n        /* \"#utility.yul\":3050:3067   */\n      add\n        /* \"#utility.yul\":3041:3047   */\n      dup5\n        /* \"#utility.yul\":3003:3068   */\n      tag_373\n      jump\t// in\n    tag_439:\n        /* \"#utility.yul\":2865:3075   */\n      swap3\n      swap2\n      pop\n      pop\n      jump\t// out\n        /* \"#utility.yul\":3081:3198   */\n    tag_374:\n        /* \"#utility.yul\":3190:3191   */\n      0x00\n        /* \"#utility.yul\":3187:3188   */\n      0x00\n        /* \"#utility.yul\":3180:3192   */\n      revert\n        /* \"#utility.yul\":3204:3321   */\n    tag_375:\n        /* \"#utility.yul\":3313:3314   */\n      0x00\n        /* \"#utility.yul\":3310:3311   */\n      0x00\n        /* \"#utility.yul\":3303:3315   */\n      revert\n        /* \"#utility.yul\":3327:3444   */\n    tag_376:\n        /* \"#utility.yul\":3436:3437   */\n      0x00\n        /* \"#utility.yul\":3433:3434   */\n      0x00\n        /* \"#utility.yul\":3426:3438   */\n      revert\n        /* \"#utility.yul\":3474:4069   */\n    tag_377:\n        /* \"#utility.yul\":3574:3582   */\n      0x00\n        /* \"#utility.yul\":3584:3590   */\n      0x00\n        /* \"#utility.yul\":3634:3637   */\n      dup4\n        /* \"#utility.yul\":3627:3631   */\n      0x1f\n        /* \"#utility.yul\":3619:3625   */\n      dup5\n        /* \"#utility.yul\":3615:3632   */\n      add\n        /* \"#utility.yul\":3611:3638   */\n      slt\n        /* \"#utility.yul\":3601:3723   */\n      tag_444\n      jumpi\n        /* \"#utility.yul\":3642:3721   */\n      tag_445\n      tag_374\n      jump\t// in\n    tag_445:\n        /* \"#utility.yul\":3601:3723   */\n    tag_444:\n        /* \"#utility.yul\":3755:3761   */\n      dup3\n        /* \"#utility.yul\":3742:3762   */\n      calldataload\n        /* \"#utility.yul\":3732:3762   */\n      swap1\n      pop\n        /* \"#utility.yul\":3785:3803   */\n      0xffffffffffffffff\n        /* \"#utility.yul\":3777:3783   */\n      dup2\n        /* \"#utility.yul\":3774:3804   */\n      gt\n        /* \"#utility.yul\":3771:3888   */\n      iszero\n      tag_446\n      jumpi\n        /* \"#utility.yul\":3807:3886   */\n      tag_447\n      tag_375\n      jump\t// in\n    tag_447:\n        /* \"#utility.yul\":3771:3888   */\n    tag_446:\n        /* \"#utility.yul\":3921:3925   */\n      0x20\n        /* \"#utility.yul\":3913:3919   */\n      dup4\n        /* \"#utility.yul\":3909:3926   */\n      add\n        /* \"#utility.yul\":3897:3926   */\n      swap2\n      pop\n        /* \"#utility.yul\":3975:3978   */\n      dup4\n        /* \"#utility.yul\":3967:3971   */\n      0x40\n        /* \"#utility.yul\":3959:3965   */\n      dup3\n        /* \"#utility.yul\":3955:3972   */\n      mul\n        /* \"#utility.yul\":3945:3953   */\n      dup4\n        /* \"#utility.yul\":3941:3973   */\n      add\n        /* \"#utility.yul\":3938:3979   */\n      gt\n        /* \"#utility.yul\":3935:4063   */\n      iszero\n      tag_448\n      jumpi\n        /* \"#utility.yul\":3982:4061   */\n      tag_449\n      tag_376\n      jump\t// in\n    tag_449:\n        /* \"#utility.yul\":3935:4063   */\n    tag_448:\n        /* \"#utility.yul\":3474:4069   */\n      swap3\n      pop\n      swap3\n      swap1\n      pop\n      jump\t// out\n        /* \"#utility.yul\":4075:4688   */\n    tag_41:\n        /* \"#utility.yul\":4188:4194   */\n      0x00\n        /* \"#utility.yul\":4196:4202   */\n      0x00\n        /* \"#utility.yul\":4245:4247   */\n      0x20\n        /* \"#utility.yul\":4233:4242   */\n      dup4\n        /* \"#utility.yul\":4224:4231   */\n      dup6\n        /* \"#utility.yul\":4220:4243   */\n      sub\n        /* \"#utility.yul\":4216:4248   */\n      slt\n        /* \"#utility.yul\":4213:4332   */\n      iszero\n      tag_451\n      jumpi\n        /* \"#utility.yul\":4251:4330   */\n      tag_452\n      tag_362\n      jump\t// in\n    tag_452:\n        /* \"#utility.yul\":4213:4332   */\n    tag_451:\n        /* \"#utility.yul\":4399:4400   */\n      0x00\n        /* \"#utility.yul\":4388:4397   */\n      dup4\n        /* \"#utility.yul\":4384:4401   */\n      add\n        /* \"#utility.yul\":4371:4402   */\n      calldataload\n        /* \"#utility.yul\":4429:4447   */\n      0xffffffffffffffff\n        /* \"#utility.yul\":4421:4427   */\n      dup2\n        /* \"#utility.yul\":4418:4448   */\n      gt\n        /* \"#utility.yul\":4415:4532   */\n      iszero\n      tag_453\n      jumpi\n        /* \"#utility.yul\":4451:4530   */\n      tag_454\n      tag_363\n      jump\t// in\n    tag_454:\n        /* \"#utility.yul\":4415:4532   */\n    tag_453:\n        /* \"#utility.yul\":4564:4671   */\n      tag_455\n        /* \"#utility.yul\":4663:4670   */\n      dup6\n        /* \"#utility.yul\":4654:4660   */\n      dup3\n        /* \"#utility.yul\":4643:4652   */\n      dup7\n        /* \"#utility.yul\":4639:4661   */\n      add\n        /* \"#utility.yul\":4564:4671   */\n      tag_377\n      jump\t// in\n    tag_455:\n        /* \"#utility.yul\":4546:4671   */\n      swap3\n      pop\n      swap3\n      pop\n        /* \"#utility.yul\":4342:4681   */\n      pop\n        /* \"#utility.yul\":4075:4688   */\n      swap3\n      pop\n      swap3\n      swap1\n      pop\n      jump\t// out\n        /* \"#utility.yul\":4724:5325   */\n    tag_378:\n        /* \"#utility.yul\":4830:4838   */\n      0x00\n        /* \"#utility.yul\":4840:4846   */\n      0x00\n        /* \"#utility.yul\":4890:4893   */\n      dup4\n        /* \"#utility.yul\":4883:4887   */\n      0x1f\n        /* \"#utility.yul\":4875:4881   */\n      dup5\n        /* \"#utility.yul\":4871:4888   */\n      add\n        /* \"#utility.yul\":4867:4894   */\n      slt\n        /* \"#utility.yul\":4857:4979   */\n      tag_457\n      jumpi\n        /* \"#utility.yul\":4898:4977   */\n      tag_458\n      tag_374\n      jump\t// in\n    tag_458:\n        /* \"#utility.yul\":4857:4979   */\n    tag_457:\n        /* \"#utility.yul\":5011:5017   */\n      dup3\n        /* \"#utility.yul\":4998:5018   */\n      calldataload\n        /* \"#utility.yul\":4988:5018   */\n      swap1\n      pop\n        /* \"#utility.yul\":5041:5059   */\n      0xffffffffffffffff\n        /* \"#utility.yul\":5033:5039   */\n      dup2\n        /* \"#utility.yul\":5030:5060   */\n      gt\n        /* \"#utility.yul\":5027:5144   */\n      iszero\n      tag_459\n      jumpi\n        /* \"#utility.yul\":5063:5142   */\n      tag_460\n      tag_375\n      jump\t// in\n    tag_460:\n        /* \"#utility.yul\":5027:5144   */\n    tag_459:\n        /* \"#utility.yul\":5177:5181   */\n      0x20\n        /* \"#utility.yul\":5169:5175   */\n      dup4\n        /* \"#utility.yul\":5165:5182   */\n      add\n        /* \"#utility.yul\":5153:5182   */\n      swap2\n      pop\n        /* \"#utility.yul\":5231:5234   */\n      dup4\n        /* \"#utility.yul\":5223:5227   */\n      0x20\n        /* \"#utility.yul\":5215:5221   */\n      dup3\n        /* \"#utility.yul\":5211:5228   */\n      mul\n        /* \"#utility.yul\":5201:5209   */\n      dup4\n        /* \"#utility.yul\":5197:5229   */\n      add\n        /* \"#utility.yul\":5194:5235   */\n      gt\n        /* \"#utility.yul\":5191:5319   */\n      iszero\n      tag_461\n      jumpi\n        /* \"#utility.yul\":5238:5317   */\n      tag_462\n      tag_376\n      jump\t// in\n    tag_462:\n        /* \"#utility.yul\":5191:5319   */\n    tag_461:\n        /* \"#utility.yul\":4724:5325   */\n      swap3\n      pop\n      swap3\n      swap1\n      pop\n      jump\t// out\n        /* \"#utility.yul\":5331:5956   */\n    tag_52:\n        /* \"#utility.yul\":5450:5456   */\n      0x00\n        /* \"#utility.yul\":5458:5464   */\n      0x00\n        /* \"#utility.yul\":5507:5509   */\n      0x20\n        /* \"#utility.yul\":5495:5504   */\n      dup4\n        /* \"#utility.yul\":5486:5493   */\n      dup6\n        /* \"#utility.yul\":5482:5505   */\n      sub\n        /* \"#utility.yul\":5478:5510   */\n      slt\n        /* \"#utility.yul\":5475:5594   */\n      iszero\n      tag_464\n      jumpi\n        /* \"#utility.yul\":5513:5592   */\n      tag_465\n      tag_362\n      jump\t// in\n    tag_465:\n        /* \"#utility.yul\":5475:5594   */\n    tag_464:\n        /* \"#utility.yul\":5661:5662   */\n      0x00\n        /* \"#utility.yul\":5650:5659   */\n      dup4\n        /* \"#utility.yul\":5646:5663   */\n      add\n        /* \"#utility.yul\":5633:5664   */\n      calldataload\n        /* \"#utility.yul\":5691:5709   */\n      0xffffffffffffffff\n        /* \"#utility.yul\":5683:5689   */\n      dup2\n        /* \"#utility.yul\":5680:5710   */\n      gt\n        /* \"#utility.yul\":5677:5794   */\n      iszero\n      tag_466\n      jumpi\n        /* \"#utility.yul\":5713:5792   */\n      tag_467\n      tag_363\n      jump\t// in\n    tag_467:\n        /* \"#utility.yul\":5677:5794   */\n    tag_466:\n        /* \"#utility.yul\":5826:5939   */\n      tag_468\n        /* \"#utility.yul\":5931:5938   */\n      dup6\n        /* \"#utility.yul\":5922:5928   */\n      dup3\n        /* \"#utility.yul\":5911:5920   */\n      dup7\n        /* \"#utility.yul\":5907:5929   */\n      add\n        /* \"#utility.yul\":5826:5939   */\n      tag_378\n      jump\t// in\n    tag_468:\n        /* \"#utility.yul\":5808:5939   */\n      swap3\n      pop\n      swap3\n      pop\n        /* \"#utility.yul\":5604:5949   */\n      pop\n        /* \"#utility.yul\":5331:5956   */\n      swap3\n      pop\n      swap3\n      swap1\n      pop\n      jump\t// out\n        /* \"#utility.yul\":5962:6078   */\n    tag_379:\n        /* \"#utility.yul\":6032:6053   */\n      tag_470\n        /* \"#utility.yul\":6047:6052   */\n      dup2\n        /* \"#utility.yul\":6032:6053   */\n      tag_372\n      jump\t// in\n    tag_470:\n        /* \"#utility.yul\":6025:6030   */\n      dup2\n        /* \"#utility.yul\":6022:6054   */\n      eq\n        /* \"#utility.yul\":6012:6072   */\n      tag_471\n      jumpi\n        /* \"#utility.yul\":6068:6069   */\n      0x00\n        /* \"#utility.yul\":6065:6066   */\n      0x00\n        /* \"#utility.yul\":6058:6070   */\n      revert\n        /* \"#utility.yul\":6012:6072   */\n    tag_471:\n        /* \"#utility.yul\":5962:6078   */\n      pop\n      jump\t// out\n        /* \"#utility.yul\":6084:6217   */\n    tag_380:\n        /* \"#utility.yul\":6127:6132   */\n      0x00\n        /* \"#utility.yul\":6165:6171   */\n      dup2\n        /* \"#utility.yul\":6152:6172   */\n      calldataload\n        /* \"#utility.yul\":6143:6172   */\n      swap1\n      pop\n        /* \"#utility.yul\":6181:6211   */\n      tag_473\n        /* \"#utility.yul\":6205:6210   */\n      dup2\n        /* \"#utility.yul\":6181:6211   */\n      tag_379\n      jump\t// in\n    tag_473:\n        /* \"#utility.yul\":6084:6217   */\n      swap3\n      swap2\n      pop\n      pop\n      jump\t// out\n        /* \"#utility.yul\":6223:6691   */\n    tag_56:\n        /* \"#utility.yul\":6288:6294   */\n      0x00\n        /* \"#utility.yul\":6296:6302   */\n      0x00\n        /* \"#utility.yul\":6345:6347   */\n      0x40\n        /* \"#utility.yul\":6333:6342   */\n      dup4\n        /* \"#utility.yul\":6324:6331   */\n      dup6\n        /* \"#utility.yul\":6320:6343   */\n      sub\n        /* \"#utility.yul\":6316:6348   */\n      slt\n        /* \"#utility.yul\":6313:6432   */\n      iszero\n      tag_475\n      jumpi\n        /* \"#utility.yul\":6351:6430   */\n      tag_476\n      tag_362\n      jump\t// in\n    tag_476:\n        /* \"#utility.yul\":6313:6432   */\n    tag_475:\n        /* \"#utility.yul\":6471:6472   */\n      0x00\n        /* \"#utility.yul\":6496:6549   */\n      tag_477\n        /* \"#utility.yul\":6541:6548   */\n      dup6\n        /* \"#utility.yul\":6532:6538   */\n      dup3\n        /* \"#utility.yul\":6521:6530   */\n      dup7\n        /* \"#utility.yul\":6517:6539   */\n      add\n        /* \"#utility.yul\":6496:6549   */\n      tag_367\n      jump\t// in\n    tag_477:\n        /* \"#utility.yul\":6486:6549   */\n      swap3\n      pop\n        /* \"#utility.yul\":6442:6559   */\n      pop\n        /* \"#utility.yul\":6598:6600   */\n      0x20\n        /* \"#utility.yul\":6624:6674   */\n      tag_478\n        /* \"#utility.yul\":6666:6673   */\n      dup6\n        /* \"#utility.yul\":6657:6663   */\n      dup3\n        /* \"#utility.yul\":6646:6655   */\n      dup7\n        /* \"#utility.yul\":6642:6664   */\n      add\n        /* \"#utility.yul\":6624:6674   */\n      tag_380\n      jump\t// in\n    tag_478:\n        /* \"#utility.yul\":6614:6674   */\n      swap2\n      pop\n        /* \"#utility.yul\":6569:6684   */\n      pop\n        /* \"#utility.yul\":6223:6691   */\n      swap3\n      pop\n      swap3\n      swap1\n      pop\n      jump\t// out\n        /* \"#utility.yul\":6697:7316   */\n    tag_61:\n        /* \"#utility.yul\":6774:6780   */\n      0x00\n        /* \"#utility.yul\":6782:6788   */\n      0x00\n        /* \"#utility.yul\":6790:6796   */\n      0x00\n        /* \"#utility.yul\":6839:6841   */\n      0x60\n        /* \"#utility.yul\":6827:6836   */\n      dup5\n        /* \"#utility.yul\":6818:6825   */\n      dup7\n        /* \"#utility.yul\":6814:6837   */\n      sub\n        /* \"#utility.yul\":6810:6842   */\n      slt\n        /* \"#utility.yul\":6807:6926   */\n      iszero\n      tag_480\n      jumpi\n        /* \"#utility.yul\":6845:6924   */\n      tag_481\n      tag_362\n      jump\t// in\n    tag_481:\n        /* \"#utility.yul\":6807:6926   */\n    tag_480:\n        /* \"#utility.yul\":6965:6966   */\n      0x00\n        /* \"#utility.yul\":6990:7043   */\n      tag_482\n        /* \"#utility.yul\":7035:7042   */\n      dup7\n        /* \"#utility.yul\":7026:7032   */\n      dup3\n        /* \"#utility.yul\":7015:7024   */\n      dup8\n        /* \"#utility.yul\":7011:7033   */\n      add\n        /* \"#utility.yul\":6990:7043   */\n      tag_367\n      jump\t// in\n    tag_482:\n        /* \"#utility.yul\":6980:7043   */\n      swap4\n      pop\n        /* \"#utility.yul\":6936:7053   */\n      pop\n        /* \"#utility.yul\":7092:7094   */\n      0x20\n        /* \"#utility.yul\":7118:7171   */\n      tag_483\n        /* \"#utility.yul\":7163:7170   */\n      dup7\n        /* \"#utility.yul\":7154:7160   */\n      dup3\n        /* \"#utility.yul\":7143:7152   */\n      dup8\n        /* \"#utility.yul\":7139:7161   */\n      add\n        /* \"#utility.yul\":7118:7171   */\n      tag_367\n      jump\t// in\n    tag_483:\n        /* \"#utility.yul\":7108:7171   */\n      swap3\n      pop\n        /* \"#utility.yul\":7063:7181   */\n      pop\n        /* \"#utility.yul\":7220:7222   */\n      0x40\n        /* \"#utility.yul\":7246:7299   */\n      tag_484\n        /* \"#utility.yul\":7291:7298   */\n      dup7\n        /* \"#utility.yul\":7282:7288   */\n      dup3\n        /* \"#utility.yul\":7271:7280   */\n      dup8\n        /* \"#utility.yul\":7267:7289   */\n      add\n        /* \"#utility.yul\":7246:7299   */\n      tag_370\n      jump\t// in\n    tag_484:\n        /* \"#utility.yul\":7236:7299   */\n      swap2\n      pop\n        /* \"#utility.yul\":7191:7309   */\n      pop\n        /* \"#utility.yul\":6697:7316   */\n      swap3\n      pop\n      swap3\n      pop\n      swap3\n      jump\t// out\n        /* \"#utility.yul\":7322:8092   */\n    tag_66:\n        /* \"#utility.yul\":7450:7456   */\n      0x00\n        /* \"#utility.yul\":7458:7464   */\n      0x00\n        /* \"#utility.yul\":7466:7472   */\n      0x00\n        /* \"#utility.yul\":7515:7517   */\n      0x40\n        /* \"#utility.yul\":7503:7512   */\n      dup5\n        /* \"#utility.yul\":7494:7501   */\n      dup7\n        /* \"#utility.yul\":7490:7513   */\n      sub\n        /* \"#utility.yul\":7486:7518   */\n      slt\n        /* \"#utility.yul\":7483:7602   */\n      iszero\n      tag_486\n      jumpi\n        /* \"#utility.yul\":7521:7600   */\n      tag_487\n      tag_362\n      jump\t// in\n    tag_487:\n        /* \"#utility.yul\":7483:7602   */\n    tag_486:\n        /* \"#utility.yul\":7641:7642   */\n      0x00\n        /* \"#utility.yul\":7666:7719   */\n      tag_488\n        /* \"#utility.yul\":7711:7718   */\n      dup7\n        /* \"#utility.yul\":7702:7708   */\n      dup3\n        /* \"#utility.yul\":7691:7700   */\n      dup8\n        /* \"#utility.yul\":7687:7709   */\n      add\n        /* \"#utility.yul\":7666:7719   */\n      tag_367\n      jump\t// in\n    tag_488:\n        /* \"#utility.yul\":7656:7719   */\n      swap4\n      pop\n        /* \"#utility.yul\":7612:7729   */\n      pop\n        /* \"#utility.yul\":7796:7798   */\n      0x20\n        /* \"#utility.yul\":7785:7794   */\n      dup5\n        /* \"#utility.yul\":7781:7799   */\n      add\n        /* \"#utility.yul\":7768:7800   */\n      calldataload\n        /* \"#utility.yul\":7827:7845   */\n      0xffffffffffffffff\n        /* \"#utility.yul\":7819:7825   */\n      dup2\n        /* \"#utility.yul\":7816:7846   */\n      gt\n        /* \"#utility.yul\":7813:7930   */\n      iszero\n      tag_489\n      jumpi\n        /* \"#utility.yul\":7849:7928   */\n      tag_490\n      tag_363\n      jump\t// in\n    tag_490:\n        /* \"#utility.yul\":7813:7930   */\n    tag_489:\n        /* \"#utility.yul\":7962:8075   */\n      tag_491\n        /* \"#utility.yul\":8067:8074   */\n      dup7\n        /* \"#utility.yul\":8058:8064   */\n      dup3\n        /* \"#utility.yul\":8047:8056   */\n      dup8\n        /* \"#utility.yul\":8043:8065   */\n      add\n        /* \"#utility.yul\":7962:8075   */\n      tag_378\n      jump\t// in\n    tag_491:\n        /* \"#utility.yul\":7944:8075   */\n      swap3\n      pop\n      swap3\n      pop\n        /* \"#utility.yul\":7739:8085   */\n      pop\n        /* \"#utility.yul\":7322:8092   */\n      swap3\n      pop\n      swap3\n      pop\n      swap3\n      jump\t// out\n        /* \"#utility.yul\":8098:8427   */\n    tag_70:\n        /* \"#utility.yul\":8157:8163   */\n      0x00\n        /* \"#utility.yul\":8206:8208   */\n      0x20\n        /* \"#utility.yul\":8194:8203   */\n      dup3\n        /* \"#utility.yul\":8185:8192   */\n      dup5\n        /* \"#utility.yul\":8181:8204   */\n      sub\n        /* \"#utility.yul\":8177:8209   */\n      slt\n        /* \"#utility.yul\":8174:8293   */\n      iszero\n      tag_493\n      jumpi\n        /* \"#utility.yul\":8212:8291   */\n      tag_494\n      tag_362\n      jump\t// in\n    tag_494:\n        /* \"#utility.yul\":8174:8293   */\n    tag_493:\n        /* \"#utility.yul\":8332:8333   */\n      0x00\n        /* \"#utility.yul\":8357:8410   */\n      tag_495\n        /* \"#utility.yul\":8402:8409   */\n      dup5\n        /* \"#utility.yul\":8393:8399   */\n      dup3\n        /* \"#utility.yul\":8382:8391   */\n      dup6\n        /* \"#utility.yul\":8378:8400   */\n      add\n        /* \"#utility.yul\":8357:8410   */\n      tag_370\n      jump\t// in\n    tag_495:\n        /* \"#utility.yul\":8347:8410   */\n      swap2\n      pop\n        /* \"#utility.yul\":8303:8420   */\n      pop\n        /* \"#utility.yul\":8098:8427   */\n      swap3\n      swap2\n      pop\n      pop\n      jump\t// out\n        /* \"#utility.yul\":8433:8907   */\n    tag_75:\n        /* \"#utility.yul\":8501:8507   */\n      0x00\n        /* \"#utility.yul\":8509:8515   */\n      0x00\n        /* \"#utility.yul\":8558:8560   */\n      0x40\n        /* \"#utility.yul\":8546:8555   */\n      dup4\n        /* \"#utility.yul\":8537:8544   */\n      dup6\n        /* \"#utility.yul\":8533:8556   */\n      sub\n        /* \"#utility.yul\":8529:8561   */\n      slt\n        /* \"#utility.yul\":8526:8645   */\n      iszero\n      tag_497\n      jumpi\n        /* \"#utility.yul\":8564:8643   */\n      tag_498\n      tag_362\n      jump\t// in\n    tag_498:\n        /* \"#utility.yul\":8526:8645   */\n    tag_497:\n        /* \"#utility.yul\":8684:8685   */\n      0x00\n        /* \"#utility.yul\":8709:8762   */\n      tag_499\n        /* \"#utility.yul\":8754:8761   */\n      dup6\n        /* \"#utility.yul\":8745:8751   */\n      dup3\n        /* \"#utility.yul\":8734:8743   */\n      dup7\n        /* \"#utility.yul\":8730:8752   */\n      add\n        /* \"#utility.yul\":8709:8762   */\n      tag_370\n      jump\t// in\n    tag_499:\n        /* \"#utility.yul\":8699:8762   */\n      swap3\n      pop\n        /* \"#utility.yul\":8655:8772   */\n      pop\n        /* \"#utility.yul\":8811:8813   */\n      0x20\n        /* \"#utility.yul\":8837:8890   */\n      tag_500\n        /* \"#utility.yul\":8882:8889   */\n      dup6\n        /* \"#utility.yul\":8873:8879   */\n      dup3\n        /* \"#utility.yul\":8862:8871   */\n      dup7\n        /* \"#utility.yul\":8858:8880   */\n      add\n        /* \"#utility.yul\":8837:8890   */\n      tag_370\n      jump\t// in\n    tag_500:\n        /* \"#utility.yul\":8827:8890   */\n      swap2\n      pop\n        /* \"#utility.yul\":8782:8900   */\n      pop\n        /* \"#utility.yul\":8433:8907   */\n      swap3\n      pop\n      swap3\n      swap1\n      pop\n      jump\t// out\n        /* \"#utility.yul\":8913:9387   */\n    tag_82:\n        /* \"#utility.yul\":8981:8987   */\n      0x00\n        /* \"#utility.yul\":8989:8995   */\n      0x00\n        /* \"#utility.yul\":9038:9040   */\n      0x40\n        /* \"#utility.yul\":9026:9035   */\n      dup4\n        /* \"#utility.yul\":9017:9024   */\n      dup6\n        /* \"#utility.yul\":9013:9036   */\n      sub\n        /* \"#utility.yul\":9009:9041   */\n      slt\n        /* \"#utility.yul\":9006:9125   */\n      iszero\n      tag_502\n      jumpi\n        /* \"#utility.yul\":9044:9123   */\n      tag_503\n      tag_362\n      jump\t// in\n    tag_503:\n        /* \"#utility.yul\":9006:9125   */\n    tag_502:\n        /* \"#utility.yul\":9164:9165   */\n      0x00\n        /* \"#utility.yul\":9189:9242   */\n      tag_504\n        /* \"#utility.yul\":9234:9241   */\n      dup6\n        /* \"#utility.yul\":9225:9231   */\n      dup3\n        /* \"#utility.yul\":9214:9223   */\n      dup7\n        /* \"#utility.yul\":9210:9232   */\n      add\n        /* \"#utility.yul\":9189:9242   */\n      tag_367\n      jump\t// in\n    tag_504:\n        /* \"#utility.yul\":9179:9242   */\n      swap3\n      pop\n        /* \"#utility.yul\":9135:9252   */\n      pop\n        /* \"#utility.yul\":9291:9293   */\n      0x20\n        /* \"#utility.yul\":9317:9370   */\n      tag_505\n        /* \"#utility.yul\":9362:9369   */\n      dup6\n        /* \"#utility.yul\":9353:9359   */\n      dup3\n        /* \"#utility.yul\":9342:9351   */\n      dup7\n        /* \"#utility.yul\":9338:9360   */\n      add\n        /* \"#utility.yul\":9317:9370   */\n      tag_367\n      jump\t// in\n    tag_505:\n        /* \"#utility.yul\":9307:9370   */\n      swap2\n      pop\n        /* \"#utility.yul\":9262:9380   */\n      pop\n        /* \"#utility.yul\":8913:9387   */\n      swap3\n      pop\n      swap3\n      swap1\n      pop\n      jump\t// out\n        /* \"#utility.yul\":9393:10151   */\n    tag_93:\n        /* \"#utility.yul\":9515:9521   */\n      0x00\n        /* \"#utility.yul\":9523:9529   */\n      0x00\n        /* \"#utility.yul\":9531:9537   */\n      0x00\n        /* \"#utility.yul\":9580:9582   */\n      0x40\n        /* \"#utility.yul\":9568:9577   */\n      dup5\n        /* \"#utility.yul\":9559:9566   */\n      dup7\n        /* \"#utility.yul\":9555:9578   */\n      sub\n        /* \"#utility.yul\":9551:9583   */\n      slt\n        /* \"#utility.yul\":9548:9667   */\n      iszero\n      tag_507\n      jumpi\n        /* \"#utility.yul\":9586:9665   */\n      tag_508\n      tag_362\n      jump\t// in\n    tag_508:\n        /* \"#utility.yul\":9548:9667   */\n    tag_507:\n        /* \"#utility.yul\":9706:9707   */\n      0x00\n        /* \"#utility.yul\":9731:9784   */\n      tag_509\n        /* \"#utility.yul\":9776:9783   */\n      dup7\n        /* \"#utility.yul\":9767:9773   */\n      dup3\n        /* \"#utility.yul\":9756:9765   */\n      dup8\n        /* \"#utility.yul\":9752:9774   */\n      add\n        /* \"#utility.yul\":9731:9784   */\n      tag_367\n      jump\t// in\n    tag_509:\n        /* \"#utility.yul\":9721:9784   */\n      swap4\n      pop\n        /* \"#utility.yul\":9677:9794   */\n      pop\n        /* \"#utility.yul\":9861:9863   */\n      0x20\n        /* \"#utility.yul\":9850:9859   */\n      dup5\n        /* \"#utility.yul\":9846:9864   */\n      add\n        /* \"#utility.yul\":9833:9865   */\n      calldataload\n        /* \"#utility.yul\":9892:9910   */\n      0xffffffffffffffff\n        /* \"#utility.yul\":9884:9890   */\n      dup2\n        /* \"#utility.yul\":9881:9911   */\n      gt\n        /* \"#utility.yul\":9878:9995   */\n      iszero\n      tag_510\n      jumpi\n        /* \"#utility.yul\":9914:9993   */\n      tag_511\n      tag_363\n      jump\t// in\n    tag_511:\n        /* \"#utility.yul\":9878:9995   */\n    tag_510:\n        /* \"#utility.yul\":10027:10134   */\n      tag_512\n        /* \"#utility.yul\":10126:10133   */\n      dup7\n        /* \"#utility.yul\":10117:10123   */\n      dup3\n        /* \"#utility.yul\":10106:10115   */\n      dup8\n        /* \"#utility.yul\":10102:10124   */\n      add\n        /* \"#utility.yul\":10027:10134   */\n      tag_377\n      jump\t// in\n    tag_512:\n        /* \"#utility.yul\":10009:10134   */\n      swap3\n      pop\n      swap3\n      pop\n        /* \"#utility.yul\":9804:10144   */\n      pop\n        /* \"#utility.yul\":9393:10151   */\n      swap3\n      pop\n      swap3\n      pop\n      swap3\n      jump\t// out\n        /* \"#utility.yul\":10157:10922   */\n    tag_97:\n        /* \"#utility.yul\":10243:10249   */\n      0x00\n        /* \"#utility.yul\":10251:10257   */\n      0x00\n        /* \"#utility.yul\":10259:10265   */\n      0x00\n        /* \"#utility.yul\":10267:10273   */\n      0x00\n        /* \"#utility.yul\":10316:10319   */\n      0x80\n        /* \"#utility.yul\":10304:10313   */\n      dup6\n        /* \"#utility.yul\":10295:10302   */\n      dup8\n        /* \"#utility.yul\":10291:10314   */\n      sub\n        /* \"#utility.yul\":10287:10320   */\n      slt\n        /* \"#utility.yul\":10284:10404   */\n      iszero\n      tag_514\n      jumpi\n        /* \"#utility.yul\":10323:10402   */\n      tag_515\n      tag_362\n      jump\t// in\n    tag_515:\n        /* \"#utility.yul\":10284:10404   */\n    tag_514:\n        /* \"#utility.yul\":10443:10444   */\n      0x00\n        /* \"#utility.yul\":10468:10521   */\n      tag_516\n        /* \"#utility.yul\":10513:10520   */\n      dup8\n        /* \"#utility.yul\":10504:10510   */\n      dup3\n        /* \"#utility.yul\":10493:10502   */\n      dup9\n        /* \"#utility.yul\":10489:10511   */\n      add\n        /* \"#utility.yul\":10468:10521   */\n      tag_367\n      jump\t// in\n    tag_516:\n        /* \"#utility.yul\":10458:10521   */\n      swap5\n      pop\n        /* \"#utility.yul\":10414:10531   */\n      pop\n        /* \"#utility.yul\":10570:10572   */\n      0x20\n        /* \"#utility.yul\":10596:10649   */\n      tag_517\n        /* \"#utility.yul\":10641:10648   */\n      dup8\n        /* \"#utility.yul\":10632:10638   */\n      dup3\n        /* \"#utility.yul\":10621:10630   */\n      dup9\n        /* \"#utility.yul\":10617:10639   */\n      add\n        /* \"#utility.yul\":10596:10649   */\n      tag_367\n      jump\t// in\n    tag_517:\n        /* \"#utility.yul\":10586:10649   */\n      swap4\n      pop\n        /* \"#utility.yul\":10541:10659   */\n      pop\n        /* \"#utility.yul\":10698:10700   */\n      0x40\n        /* \"#utility.yul\":10724:10777   */\n      tag_518\n        /* \"#utility.yul\":10769:10776   */\n      dup8\n        /* \"#utility.yul\":10760:10766   */\n      dup3\n        /* \"#utility.yul\":10749:10758   */\n      dup9\n        /* \"#utility.yul\":10745:10767   */\n      add\n        /* \"#utility.yul\":10724:10777   */\n      tag_370\n      jump\t// in\n    tag_518:\n        /* \"#utility.yul\":10714:10777   */\n      swap3\n      pop\n        /* \"#utility.yul\":10669:10787   */\n      pop\n        /* \"#utility.yul\":10826:10828   */\n      0x60\n        /* \"#utility.yul\":10852:10905   */\n      tag_519\n        /* \"#utility.yul\":10897:10904   */\n      dup8\n        /* \"#utility.yul\":10888:10894   */\n      dup3\n        /* \"#utility.yul\":10877:10886   */\n      dup9\n        /* \"#utility.yul\":10873:10895   */\n      add\n        /* \"#utility.yul\":10852:10905   */\n      tag_370\n      jump\t// in\n    tag_519:\n        /* \"#utility.yul\":10842:10905   */\n      swap2\n      pop\n        /* \"#utility.yul\":10797:10915   */\n      pop\n        /* \"#utility.yul\":10157:10922   */\n      swap3\n      swap6\n      swap2\n      swap5\n      pop\n      swap3\n      pop\n      jump\t// out\n        /* \"#utility.yul\":10928:11108   */\n    tag_118:\n        /* \"#utility.yul\":10976:11053   */\n      0x4e487b7100000000000000000000000000000000000000000000000000000000\n        /* \"#utility.yul\":10973:10974   */\n      0x00\n        /* \"#utility.yul\":10966:11054   */\n      mstore\n        /* \"#utility.yul\":11073:11077   */\n      0x32\n        /* \"#utility.yul\":11070:11071   */\n      0x04\n        /* \"#utility.yul\":11063:11078   */\n      mstore\n        /* \"#utility.yul\":11097:11101   */\n      0x24\n        /* \"#utility.yul\":11094:11095   */\n      0x00\n        /* \"#utility.yul\":11087:11102   */\n      revert\n        /* \"#utility.yul\":11114:11231   */\n    tag_381:\n        /* \"#utility.yul\":11223:11224   */\n      0x00\n        /* \"#utility.yul\":11220:11221   */\n      0x00\n        /* \"#utility.yul\":11213:11225   */\n      revert\n        /* \"#utility.yul\":11237:11354   */\n    tag_382:\n        /* \"#utility.yul\":11346:11347   */\n      0x00\n        /* \"#utility.yul\":11343:11344   */\n      0x00\n        /* \"#utility.yul\":11336:11348   */\n      revert\n        /* \"#utility.yul\":11360:11477   */\n    tag_383:\n        /* \"#utility.yul\":11469:11470   */\n      0x00\n        /* \"#utility.yul\":11466:11467   */\n      0x00\n        /* \"#utility.yul\":11459:11471   */\n      revert\n        /* \"#utility.yul\":11483:11882   */\n    tag_146:\n        /* \"#utility.yul\":11582:11586   */\n      0x00\n        /* \"#utility.yul\":11636:11647   */\n      dup3\n        /* \"#utility.yul\":11623:11648   */\n      calldataload\n        /* \"#utility.yul\":11736:11737   */\n      0x01\n        /* \"#utility.yul\":11730:11734   */\n      0x80\n        /* \"#utility.yul\":11726:11738   */\n      sub\n        /* \"#utility.yul\":11715:11723   */\n      dup4\n        /* \"#utility.yul\":11699:11713   */\n      calldatasize\n        /* \"#utility.yul\":11695:11724   */\n      sub\n        /* \"#utility.yul\":11691:11739   */\n      sub\n        /* \"#utility.yul\":11671:11689   */\n      dup2\n        /* \"#utility.yul\":11667:11740   */\n      slt\n        /* \"#utility.yul\":11657:11825   */\n      tag_525\n      jumpi\n        /* \"#utility.yul\":11744:11823   */\n      tag_526\n      tag_381\n      jump\t// in\n    tag_526:\n        /* \"#utility.yul\":11657:11825   */\n    tag_525:\n        /* \"#utility.yul\":11856:11874   */\n      dup1\n        /* \"#utility.yul\":11846:11854   */\n      dup4\n        /* \"#utility.yul\":11842:11875   */\n      add\n        /* \"#utility.yul\":11834:11875   */\n      swap2\n      pop\n        /* \"#utility.yul\":11587:11882   */\n      pop\n        /* \"#utility.yul\":11483:11882   */\n      swap3\n      swap2\n      pop\n      pop\n      jump\t// out\n        /* \"#utility.yul\":11888:12068   */\n    tag_384:\n        /* \"#utility.yul\":11936:12013   */\n      0x4e487b7100000000000000000000000000000000000000000000000000000000\n        /* \"#utility.yul\":11933:11934   */\n      0x00\n        /* \"#utility.yul\":11926:12014   */\n      mstore\n        /* \"#utility.yul\":12033:12037   */\n      0x11\n        /* \"#utility.yul\":12030:12031   */\n      0x04\n        /* \"#utility.yul\":12023:12038   */\n      mstore\n        /* \"#utility.yul\":12057:12061   */\n      0x24\n        /* \"#utility.yul\":12054:12055   */\n      0x00\n        /* \"#utility.yul\":12047:12062   */\n      revert\n        /* \"#utility.yul\":12074:12265   */\n    tag_215:\n        /* \"#utility.yul\":12114:12117   */\n      0x00\n        /* \"#utility.yul\":12133:12153   */\n      tag_529\n        /* \"#utility.yul\":12151:12152   */\n      dup3\n        /* \"#utility.yul\":12133:12153   */\n      tag_368\n      jump\t// in\n    tag_529:\n        /* \"#utility.yul\":12128:12153   */\n      swap2\n      pop\n        /* \"#utility.yul\":12167:12187   */\n      tag_530\n        /* \"#utility.yul\":12185:12186   */\n      dup4\n        /* \"#utility.yul\":12167:12187   */\n      tag_368\n      jump\t// in\n    tag_530:\n        /* \"#utility.yul\":12162:12187   */\n      swap3\n      pop\n        /* \"#utility.yul\":12210:12211   */\n      dup3\n        /* \"#utility.yul\":12207:12208   */\n      dup3\n        /* \"#utility.yul\":12203:12212   */\n      add\n        /* \"#utility.yul\":12196:12212   */\n      swap1\n      pop\n        /* \"#utility.yul\":12231:12234   */\n      dup1\n        /* \"#utility.yul\":12228:12229   */\n      dup3\n        /* \"#utility.yul\":12225:12235   */\n      gt\n        /* \"#utility.yul\":12222:12258   */\n      iszero\n      tag_531\n      jumpi\n        /* \"#utility.yul\":12238:12256   */\n      tag_532\n      tag_384\n      jump\t// in\n    tag_532:\n        /* \"#utility.yul\":12222:12258   */\n    tag_531:\n        /* \"#utility.yul\":12074:12265   */\n      swap3\n      swap2\n      pop\n      pop\n      jump\t// out\n        /* \"#utility.yul\":12271:12440   */\n    tag_385:\n        /* \"#utility.yul\":12355:12366   */\n      0x00\n        /* \"#utility.yul\":12389:12395   */\n      dup3\n        /* \"#utility.yul\":12384:12387   */\n      dup3\n        /* \"#utility.yul\":12377:12396   */\n      mstore\n        /* \"#utility.yul\":12429:12433   */\n      0x20\n        /* \"#utility.yul\":12424:12427   */\n      dup3\n        /* \"#utility.yul\":12420:12434   */\n      add\n        /* \"#utility.yul\":12405:12434   */\n      swap1\n      pop\n        /* \"#utility.yul\":12271:12440   */\n      swap3\n      swap2\n      pop\n      pop\n      jump\t// out\n        /* \"#utility.yul\":12446:12616   */\n    tag_386:\n        /* \"#utility.yul\":12586:12608   */\n      0x496e73756666696369656e742062616c616e6365000000000000000000000000\n        /* \"#utility.yul\":12582:12583   */\n      0x00\n        /* \"#utility.yul\":12574:12580   */\n      dup3\n        /* \"#utility.yul\":12570:12584   */\n      add\n        /* \"#utility.yul\":12563:12609   */\n      mstore\n        /* \"#utility.yul\":12446:12616   */\n      pop\n      jump\t// out\n        /* \"#utility.yul\":12622:12988   */\n    tag_387:\n        /* \"#utility.yul\":12764:12767   */\n      0x00\n        /* \"#utility.yul\":12785:12852   */\n      tag_536\n        /* \"#utility.yul\":12849:12851   */\n      0x14\n        /* \"#utility.yul\":12844:12847   */\n      dup4\n        /* \"#utility.yul\":12785:12852   */\n      tag_385\n      jump\t// in\n    tag_536:\n        /* \"#utility.yul\":12778:12852   */\n      swap2\n      pop\n        /* \"#utility.yul\":12861:12954   */\n      tag_537\n        /* \"#utility.yul\":12950:12953   */\n      dup3\n        /* \"#utility.yul\":12861:12954   */\n      tag_386\n      jump\t// in\n    tag_537:\n        /* \"#utility.yul\":12979:12981   */\n      0x20\n        /* \"#utility.yul\":12974:12977   */\n      dup3\n        /* \"#utility.yul\":12970:12982   */\n      add\n        /* \"#utility.yul\":12963:12982   */\n      swap1\n      pop\n        /* \"#utility.yul\":12622:12988   */\n      swap2\n      swap1\n      pop\n      jump\t// out\n        /* \"#utility.yul\":12994:13413   */\n    tag_234:\n        /* \"#utility.yul\":13160:13164   */\n      0x00\n        /* \"#utility.yul\":13198:13200   */\n      0x20\n        /* \"#utility.yul\":13187:13196   */\n      dup3\n        /* \"#utility.yul\":13183:13201   */\n      add\n        /* \"#utility.yul\":13175:13201   */\n      swap1\n      pop\n        /* \"#utility.yul\":13247:13256   */\n      dup2\n        /* \"#utility.yul\":13241:13245   */\n      dup2\n        /* \"#utility.yul\":13237:13257   */\n      sub\n        /* \"#utility.yul\":13233:13234   */\n      0x00\n        /* \"#utility.yul\":13222:13231   */\n      dup4\n        /* \"#utility.yul\":13218:13235   */\n      add\n        /* \"#utility.yul\":13211:13258   */\n      mstore\n        /* \"#utility.yul\":13275:13406   */\n      tag_539\n        /* \"#utility.yul\":13401:13405   */\n      dup2\n        /* \"#utility.yul\":13275:13406   */\n      tag_387\n      jump\t// in\n    tag_539:\n        /* \"#utility.yul\":13267:13406   */\n      swap1\n      pop\n        /* \"#utility.yul\":12994:13413   */\n      swap2\n      swap1\n      pop\n      jump\t// out\n        /* \"#utility.yul\":13419:13613   */\n    tag_236:\n        /* \"#utility.yul\":13459:13463   */\n      0x00\n        /* \"#utility.yul\":13479:13499   */\n      tag_541\n        /* \"#utility.yul\":13497:13498   */\n      dup3\n        /* \"#utility.yul\":13479:13499   */\n      tag_368\n      jump\t// in\n    tag_541:\n        /* \"#utility.yul\":13474:13499   */\n      swap2\n      pop\n        /* \"#utility.yul\":13513:13533   */\n      tag_542\n        /* \"#utility.yul\":13531:13532   */\n      dup4\n        /* \"#utility.yul\":13513:13533   */\n      tag_368\n      jump\t// in\n    tag_542:\n        /* \"#utility.yul\":13508:13533   */\n      swap3\n      pop\n        /* \"#utility.yul\":13557:13558   */\n      dup3\n        /* \"#utility.yul\":13554:13555   */\n      dup3\n        /* \"#utility.yul\":13550:13559   */\n      sub\n        /* \"#utility.yul\":13542:13559   */\n      swap1\n      pop\n        /* \"#utility.yul\":13581:13582   */\n      dup2\n        /* \"#utility.yul\":13575:13579   */\n      dup2\n        /* \"#utility.yul\":13572:13583   */\n      gt\n        /* \"#utility.yul\":13569:13606   */\n      iszero\n      tag_543\n      jumpi\n        /* \"#utility.yul\":13586:13604   */\n      tag_544\n      tag_384\n      jump\t// in\n    tag_544:\n        /* \"#utility.yul\":13569:13606   */\n    tag_543:\n        /* \"#utility.yul\":13419:13613   */\n      swap3\n      swap2\n      pop\n      pop\n      jump\t// out\n        /* \"#utility.yul\":13619:13948   */\n    tag_240:\n        /* \"#utility.yul\":13678:13684   */\n      0x00\n        /* \"#utility.yul\":13727:13729   */\n      0x20\n        /* \"#utility.yul\":13715:13724   */\n      dup3\n        /* \"#utility.yul\":13706:13713   */\n      dup5\n        /* \"#utility.yul\":13702:13725   */\n      sub\n        /* \"#utility.yul\":13698:13730   */\n      slt\n        /* \"#utility.yul\":13695:13814   */\n      iszero\n      tag_546\n      jumpi\n        /* \"#utility.yul\":13733:13812   */\n      tag_547\n      tag_362\n      jump\t// in\n    tag_547:\n        /* \"#utility.yul\":13695:13814   */\n    tag_546:\n        /* \"#utility.yul\":13853:13854   */\n      0x00\n        /* \"#utility.yul\":13878:13931   */\n      tag_548\n        /* \"#utility.yul\":13923:13930   */\n      dup5\n        /* \"#utility.yul\":13914:13920   */\n      dup3\n        /* \"#utility.yul\":13903:13912   */\n      dup6\n        /* \"#utility.yul\":13899:13921   */\n      add\n        /* \"#utility.yul\":13878:13931   */\n      tag_367\n      jump\t// in\n    tag_548:\n        /* \"#utility.yul\":13868:13931   */\n      swap2\n      pop\n        /* \"#utility.yul\":13824:13941   */\n      pop\n        /* \"#utility.yul\":13619:13948   */\n      swap3\n      swap2\n      pop\n      pop\n      jump\t// out\n        /* \"#utility.yul\":13954:14678   */\n    tag_311:\n        /* \"#utility.yul\":14031:14035   */\n      0x00\n        /* \"#utility.yul\":14037:14043   */\n      0x00\n        /* \"#utility.yul\":14093:14104   */\n      dup4\n        /* \"#utility.yul\":14080:14105   */\n      calldataload\n        /* \"#utility.yul\":14193:14194   */\n      0x01\n        /* \"#utility.yul\":14187:14191   */\n      0x20\n        /* \"#utility.yul\":14183:14195   */\n      sub\n        /* \"#utility.yul\":14172:14180   */\n      dup5\n        /* \"#utility.yul\":14156:14170   */\n      calldatasize\n        /* \"#utility.yul\":14152:14181   */\n      sub\n        /* \"#utility.yul\":14148:14196   */\n      sub\n        /* \"#utility.yul\":14128:14146   */\n      dup2\n        /* \"#utility.yul\":14124:14197   */\n      slt\n        /* \"#utility.yul\":14114:14282   */\n      tag_550\n      jumpi\n        /* \"#utility.yul\":14201:14280   */\n      tag_551\n      tag_381\n      jump\t// in\n    tag_551:\n        /* \"#utility.yul\":14114:14282   */\n    tag_550:\n        /* \"#utility.yul\":14313:14331   */\n      dup1\n        /* \"#utility.yul\":14303:14311   */\n      dup5\n        /* \"#utility.yul\":14299:14332   */\n      add\n        /* \"#utility.yul\":14291:14332   */\n      swap3\n      pop\n        /* \"#utility.yul\":14365:14369   */\n      dup3\n        /* \"#utility.yul\":14352:14370   */\n      calldataload\n        /* \"#utility.yul\":14342:14370   */\n      swap2\n      pop\n        /* \"#utility.yul\":14393:14411   */\n      0xffffffffffffffff\n        /* \"#utility.yul\":14385:14391   */\n      dup3\n        /* \"#utility.yul\":14382:14412   */\n      gt\n        /* \"#utility.yul\":14379:14496   */\n      iszero\n      tag_552\n      jumpi\n        /* \"#utility.yul\":14415:14494   */\n      tag_553\n      tag_382\n      jump\t// in\n    tag_553:\n        /* \"#utility.yul\":14379:14496   */\n    tag_552:\n        /* \"#utility.yul\":14523:14525   */\n      0x20\n        /* \"#utility.yul\":14517:14521   */\n      dup4\n        /* \"#utility.yul\":14513:14526   */\n      add\n        /* \"#utility.yul\":14505:14526   */\n      swap3\n      pop\n        /* \"#utility.yul\":14580:14584   */\n      0x01\n        /* \"#utility.yul\":14572:14578   */\n      dup3\n        /* \"#utility.yul\":14568:14585   */\n      mul\n        /* \"#utility.yul\":14552:14566   */\n      calldatasize\n        /* \"#utility.yul\":14548:14586   */\n      sub\n        /* \"#utility.yul\":14542:14546   */\n      dup4\n        /* \"#utility.yul\":14538:14587   */\n      sgt\n        /* \"#utility.yul\":14535:14671   */\n      iszero\n      tag_554\n      jumpi\n        /* \"#utility.yul\":14590:14669   */\n      tag_555\n      tag_383\n      jump\t// in\n    tag_555:\n        /* \"#utility.yul\":14535:14671   */\n    tag_554:\n        /* \"#utility.yul\":14044:14678   */\n      pop\n        /* \"#utility.yul\":13954:14678   */\n      swap3\n      pop\n      swap3\n      swap1\n      pop\n      jump\t// out\n        /* \"#utility.yul\":14684:14852   */\n    tag_388:\n        /* \"#utility.yul\":14767:14778   */\n      0x00\n        /* \"#utility.yul\":14801:14807   */\n      dup3\n        /* \"#utility.yul\":14796:14799   */\n      dup3\n        /* \"#utility.yul\":14789:14808   */\n      mstore\n        /* \"#utility.yul\":14841:14845   */\n      0x20\n        /* \"#utility.yul\":14836:14839   */\n      dup3\n        /* \"#utility.yul\":14832:14846   */\n      add\n        /* \"#utility.yul\":14817:14846   */\n      swap1\n      pop\n        /* \"#utility.yul\":14684:14852   */\n      swap3\n      swap2\n      pop\n      pop\n      jump\t// out\n        /* \"#utility.yul\":14858:15006   */\n    tag_389:\n        /* \"#utility.yul\":14956:14962   */\n      dup3\n        /* \"#utility.yul\":14951:14954   */\n      dup2\n        /* \"#utility.yul\":14946:14949   */\n      dup4\n        /* \"#utility.yul\":14933:14963   */\n      calldatacopy\n        /* \"#utility.yul\":14997:14998   */\n      0x00\n        /* \"#utility.yul\":14988:14994   */\n      dup4\n        /* \"#utility.yul\":14983:14986   */\n      dup4\n        /* \"#utility.yul\":14979:14995   */\n      add\n        /* \"#utility.yul\":14972:14999   */\n      mstore\n        /* \"#utility.yul\":14858:15006   */\n      pop\n      pop\n      pop\n      jump\t// out\n        /* \"#utility.yul\":15012:15114   */\n    tag_390:\n        /* \"#utility.yul\":15053:15059   */\n      0x00\n        /* \"#utility.yul\":15104:15106   */\n      0x1f\n        /* \"#utility.yul\":15100:15107   */\n      not\n        /* \"#utility.yul\":15095:15097   */\n      0x1f\n        /* \"#utility.yul\":15088:15093   */\n      dup4\n        /* \"#utility.yul\":15084:15098   */\n      add\n        /* \"#utility.yul\":15080:15108   */\n      and\n        /* \"#utility.yul\":15070:15108   */\n      swap1\n      pop\n        /* \"#utility.yul\":15012:15114   */\n      swap2\n      swap1\n      pop\n      jump\t// out\n        /* \"#utility.yul\":15142:15456   */\n    tag_391:\n        /* \"#utility.yul\":15238:15241   */\n      0x00\n        /* \"#utility.yul\":15259:15329   */\n      tag_560\n        /* \"#utility.yul\":15322:15328   */\n      dup4\n        /* \"#utility.yul\":15317:15320   */\n      dup6\n        /* \"#utility.yul\":15259:15329   */\n      tag_388\n      jump\t// in\n    tag_560:\n        /* \"#utility.yul\":15252:15329   */\n      swap4\n      pop\n        /* \"#utility.yul\":15339:15395   */\n      tag_561\n        /* \"#utility.yul\":15388:15394   */\n      dup4\n        /* \"#utility.yul\":15383:15386   */\n      dup6\n        /* \"#utility.yul\":15376:15381   */\n      dup5\n        /* \"#utility.yul\":15339:15395   */\n      tag_389\n      jump\t// in\n    tag_561:\n        /* \"#utility.yul\":15420:15449   */\n      tag_562\n        /* \"#utility.yul\":15442:15448   */\n      dup4\n        /* \"#utility.yul\":15420:15449   */\n      tag_390\n      jump\t// in\n    tag_562:\n        /* \"#utility.yul\":15415:15418   */\n      dup5\n        /* \"#utility.yul\":15411:15450   */\n      add\n        /* \"#utility.yul\":15404:15450   */\n      swap1\n      pop\n        /* \"#utility.yul\":15142:15456   */\n      swap4\n      swap3\n      pop\n      pop\n      pop\n      jump\t// out\n        /* \"#utility.yul\":15462:15791   */\n    tag_313:\n        /* \"#utility.yul\":15583:15587   */\n      0x00\n        /* \"#utility.yul\":15621:15623   */\n      0x20\n        /* \"#utility.yul\":15610:15619   */\n      dup3\n        /* \"#utility.yul\":15606:15624   */\n      add\n        /* \"#utility.yul\":15598:15624   */\n      swap1\n      pop\n        /* \"#utility.yul\":15670:15679   */\n      dup2\n        /* \"#utility.yul\":15664:15668   */\n      dup2\n        /* \"#utility.yul\":15660:15680   */\n      sub\n        /* \"#utility.yul\":15656:15657   */\n      0x00\n        /* \"#utility.yul\":15645:15654   */\n      dup4\n        /* \"#utility.yul\":15641:15658   */\n      add\n        /* \"#utility.yul\":15634:15681   */\n      mstore\n        /* \"#utility.yul\":15698:15784   */\n      tag_564\n        /* \"#utility.yul\":15779:15783   */\n      dup2\n        /* \"#utility.yul\":15770:15776   */\n      dup5\n        /* \"#utility.yul\":15762:15768   */\n      dup7\n        /* \"#utility.yul\":15698:15784   */\n      tag_391\n      jump\t// in\n    tag_564:\n        /* \"#utility.yul\":15690:15784   */\n      swap1\n      pop\n        /* \"#utility.yul\":15462:15791   */\n      swap4\n      swap3\n      pop\n      pop\n      pop\n      jump\t// out\n        /* \"#utility.yul\":15797:15977   */\n    tag_392:\n        /* \"#utility.yul\":15845:15922   */\n      0x4e487b7100000000000000000000000000000000000000000000000000000000\n        /* \"#utility.yul\":15842:15843   */\n      0x00\n        /* \"#utility.yul\":15835:15923   */\n      mstore\n        /* \"#utility.yul\":15942:15946   */\n      0x41\n        /* \"#utility.yul\":15939:15940   */\n      0x04\n        /* \"#utility.yul\":15932:15947   */\n      mstore\n        /* \"#utility.yul\":15966:15970   */\n      0x24\n        /* \"#utility.yul\":15963:15964   */\n      0x00\n        /* \"#utility.yul\":15956:15971   */\n      revert\n        /* \"#utility.yul\":15983:16264   */\n    tag_393:\n        /* \"#utility.yul\":16066:16093   */\n      tag_567\n        /* \"#utility.yul\":16088:16092   */\n      dup3\n        /* \"#utility.yul\":16066:16093   */\n      tag_390\n      jump\t// in\n    tag_567:\n        /* \"#utility.yul\":16058:16064   */\n      dup2\n        /* \"#utility.yul\":16054:16094   */\n      add\n        /* \"#utility.yul\":16196:16202   */\n      dup2\n        /* \"#utility.yul\":16184:16194   */\n      dup2\n        /* \"#utility.yul\":16181:16203   */\n      lt\n        /* \"#utility.yul\":16160:16178   */\n      0xffffffffffffffff\n        /* \"#utility.yul\":16148:16158   */\n      dup3\n        /* \"#utility.yul\":16145:16179   */\n      gt\n        /* \"#utility.yul\":16142:16204   */\n      or\n        /* \"#utility.yul\":16139:16227   */\n      iszero\n      tag_568\n      jumpi\n        /* \"#utility.yul\":16207:16225   */\n      tag_569\n      tag_392\n      jump\t// in\n    tag_569:\n        /* \"#utility.yul\":16139:16227   */\n    tag_568:\n        /* \"#utility.yul\":16247:16257   */\n      dup1\n        /* \"#utility.yul\":16243:16245   */\n      0x40\n        /* \"#utility.yul\":16236:16258   */\n      mstore\n        /* \"#utility.yul\":16026:16264   */\n      pop\n        /* \"#utility.yul\":15983:16264   */\n      pop\n      pop\n      jump\t// out\n        /* \"#utility.yul\":16270:16399   */\n    tag_394:\n        /* \"#utility.yul\":16304:16310   */\n      0x00\n        /* \"#utility.yul\":16331:16351   */\n      tag_571\n      tag_361\n      jump\t// in\n    tag_571:\n        /* \"#utility.yul\":16321:16351   */\n      swap1\n      pop\n        /* \"#utility.yul\":16360:16393   */\n      tag_572\n        /* \"#utility.yul\":16388:16392   */\n      dup3\n        /* \"#utility.yul\":16380:16386   */\n      dup3\n        /* \"#utility.yul\":16360:16393   */\n      tag_393\n      jump\t// in\n    tag_572:\n        /* \"#utility.yul\":16270:16399   */\n      swap2\n      swap1\n      pop\n      jump\t// out\n        /* \"#utility.yul\":16405:16741   */\n    tag_395:\n        /* \"#utility.yul\":16507:16511   */\n      0x00\n        /* \"#utility.yul\":16597:16615   */\n      0xffffffffffffffff\n        /* \"#utility.yul\":16589:16595   */\n      dup3\n        /* \"#utility.yul\":16586:16616   */\n      gt\n        /* \"#utility.yul\":16583:16639   */\n      iszero\n      tag_574\n      jumpi\n        /* \"#utility.yul\":16619:16637   */\n      tag_575\n      tag_392\n      jump\t// in\n    tag_575:\n        /* \"#utility.yul\":16583:16639   */\n    tag_574:\n        /* \"#utility.yul\":16669:16673   */\n      0x20\n        /* \"#utility.yul\":16661:16667   */\n      dup3\n        /* \"#utility.yul\":16657:16674   */\n      mul\n        /* \"#utility.yul\":16649:16674   */\n      swap1\n      pop\n        /* \"#utility.yul\":16729:16733   */\n      0x20\n        /* \"#utility.yul\":16723:16727   */\n      dup2\n        /* \"#utility.yul\":16719:16734   */\n      add\n        /* \"#utility.yul\":16711:16734   */\n      swap1\n      pop\n        /* \"#utility.yul\":16405:16741   */\n      swap2\n      swap1\n      pop\n      jump\t// out\n        /* \"#utility.yul\":16747:16864   */\n    tag_396:\n        /* \"#utility.yul\":16856:16857   */\n      0x00\n        /* \"#utility.yul\":16853:16854   */\n      0x00\n        /* \"#utility.yul\":16846:16858   */\n      revert\n        /* \"#utility.yul\":16993:17136   */\n    tag_398:\n        /* \"#utility.yul\":17050:17055   */\n      0x00\n        /* \"#utility.yul\":17081:17087   */\n      dup2\n        /* \"#utility.yul\":17075:17088   */\n      mload\n        /* \"#utility.yul\":17066:17088   */\n      swap1\n      pop\n        /* \"#utility.yul\":17097:17130   */\n      tag_579\n        /* \"#utility.yul\":17124:17129   */\n      dup2\n        /* \"#utility.yul\":17097:17130   */\n      tag_369\n      jump\t// in\n    tag_579:\n        /* \"#utility.yul\":16993:17136   */\n      swap3\n      swap2\n      pop\n      pop\n      jump\t// out\n        /* \"#utility.yul\":17164:17776   */\n    tag_399:\n        /* \"#utility.yul\":17249:17254   */\n      0x00\n        /* \"#utility.yul\":17293:17297   */\n      0x40\n        /* \"#utility.yul\":17281:17290   */\n      dup3\n        /* \"#utility.yul\":17276:17279   */\n      dup5\n        /* \"#utility.yul\":17272:17291   */\n      sub\n        /* \"#utility.yul\":17268:17298   */\n      slt\n        /* \"#utility.yul\":17265:17382   */\n      iszero\n      tag_581\n      jumpi\n        /* \"#utility.yul\":17301:17380   */\n      tag_582\n      tag_396\n      jump\t// in\n    tag_582:\n        /* \"#utility.yul\":17265:17382   */\n    tag_581:\n        /* \"#utility.yul\":17400:17421   */\n      tag_583\n        /* \"#utility.yul\":17416:17420   */\n      0x40\n        /* \"#utility.yul\":17400:17421   */\n      tag_394\n      jump\t// in\n    tag_583:\n        /* \"#utility.yul\":17391:17421   */\n      swap1\n      pop\n        /* \"#utility.yul\":17483:17484   */\n      0x00\n        /* \"#utility.yul\":17523:17583   */\n      tag_584\n        /* \"#utility.yul\":17579:17582   */\n      dup5\n        /* \"#utility.yul\":17570:17576   */\n      dup3\n        /* \"#utility.yul\":17559:17568   */\n      dup6\n        /* \"#utility.yul\":17555:17577   */\n      add\n        /* \"#utility.yul\":17523:17583   */\n      tag_398\n      jump\t// in\n    tag_584:\n        /* \"#utility.yul\":17516:17520   */\n      0x00\n        /* \"#utility.yul\":17509:17514   */\n      dup4\n        /* \"#utility.yul\":17505:17521   */\n      add\n        /* \"#utility.yul\":17498:17584   */\n      mstore\n        /* \"#utility.yul\":17431:17595   */\n      pop\n        /* \"#utility.yul\":17656:17658   */\n      0x20\n        /* \"#utility.yul\":17697:17757   */\n      tag_585\n        /* \"#utility.yul\":17753:17756   */\n      dup5\n        /* \"#utility.yul\":17744:17750   */\n      dup3\n        /* \"#utility.yul\":17733:17742   */\n      dup6\n        /* \"#utility.yul\":17729:17751   */\n      add\n        /* \"#utility.yul\":17697:17757   */\n      tag_398\n      jump\t// in\n    tag_585:\n        /* \"#utility.yul\":17690:17694   */\n      0x20\n        /* \"#utility.yul\":17683:17688   */\n      dup4\n        /* \"#utility.yul\":17679:17695   */\n      add\n        /* \"#utility.yul\":17672:17758   */\n      mstore\n        /* \"#utility.yul\":17605:17769   */\n      pop\n        /* \"#utility.yul\":17164:17776   */\n      swap3\n      swap2\n      pop\n      pop\n      jump\t// out\n        /* \"#utility.yul\":17806:18613   */\n    tag_400:\n        /* \"#utility.yul\":17938:17943   */\n      0x00\n        /* \"#utility.yul\":17963:18069   */\n      tag_587\n        /* \"#utility.yul\":17979:18068   */\n      tag_588\n        /* \"#utility.yul\":18061:18067   */\n      dup5\n        /* \"#utility.yul\":17979:18068   */\n      tag_395\n      jump\t// in\n    tag_588:\n        /* \"#utility.yul\":17963:18069   */\n      tag_394\n      jump\t// in\n    tag_587:\n        /* \"#utility.yul\":17954:18069   */\n      swap1\n      pop\n        /* \"#utility.yul\":18089:18094   */\n      dup1\n        /* \"#utility.yul\":18118:18124   */\n      dup4\n        /* \"#utility.yul\":18111:18116   */\n      dup3\n        /* \"#utility.yul\":18104:18125   */\n      mstore\n        /* \"#utility.yul\":18152:18156   */\n      0x20\n        /* \"#utility.yul\":18145:18150   */\n      dup3\n        /* \"#utility.yul\":18141:18157   */\n      add\n        /* \"#utility.yul\":18134:18157   */\n      swap1\n      pop\n        /* \"#utility.yul\":18205:18209   */\n      0x40\n        /* \"#utility.yul\":18197:18203   */\n      dup5\n        /* \"#utility.yul\":18193:18210   */\n      mul\n        /* \"#utility.yul\":18185:18191   */\n      dup4\n        /* \"#utility.yul\":18181:18211   */\n      add\n        /* \"#utility.yul\":18234:18237   */\n      dup6\n        /* \"#utility.yul\":18226:18232   */\n      dup2\n        /* \"#utility.yul\":18223:18238   */\n      gt\n        /* \"#utility.yul\":18220:18342   */\n      iszero\n      tag_589\n      jumpi\n        /* \"#utility.yul\":18253:18332   */\n      tag_590\n      tag_376\n      jump\t// in\n    tag_590:\n        /* \"#utility.yul\":18220:18342   */\n    tag_589:\n        /* \"#utility.yul\":18368:18374   */\n      dup4\n        /* \"#utility.yul\":18351:18607   */\n    tag_591:\n        /* \"#utility.yul\":18385:18391   */\n      dup2\n        /* \"#utility.yul\":18380:18383   */\n      dup2\n        /* \"#utility.yul\":18377:18392   */\n      lt\n        /* \"#utility.yul\":18351:18607   */\n      iszero\n      tag_593\n      jumpi\n        /* \"#utility.yul\":18460:18463   */\n      dup1\n        /* \"#utility.yul\":18489:18562   */\n      tag_594\n        /* \"#utility.yul\":18558:18561   */\n      dup9\n        /* \"#utility.yul\":18546:18556   */\n      dup3\n        /* \"#utility.yul\":18489:18562   */\n      tag_399\n      jump\t// in\n    tag_594:\n        /* \"#utility.yul\":18484:18487   */\n      dup5\n        /* \"#utility.yul\":18477:18563   */\n      mstore\n        /* \"#utility.yul\":18592:18596   */\n      0x20\n        /* \"#utility.yul\":18587:18590   */\n      dup5\n        /* \"#utility.yul\":18583:18597   */\n      add\n        /* \"#utility.yul\":18576:18597   */\n      swap4\n      pop\n        /* \"#utility.yul\":18427:18607   */\n      pop\n        /* \"#utility.yul\":18411:18415   */\n      0x40\n        /* \"#utility.yul\":18406:18409   */\n      dup2\n        /* \"#utility.yul\":18402:18416   */\n      add\n        /* \"#utility.yul\":18395:18416   */\n      swap1\n      pop\n        /* \"#utility.yul\":18351:18607   */\n      jump(tag_591)\n    tag_593:\n        /* \"#utility.yul\":18355:18376   */\n      pop\n        /* \"#utility.yul\":17944:18613   */\n      pop\n      pop\n        /* \"#utility.yul\":17806:18613   */\n      swap4\n      swap3\n      pop\n      pop\n      pop\n      jump\t// out\n        /* \"#utility.yul\":18643:19078   */\n    tag_401:\n        /* \"#utility.yul\":18750:18755   */\n      0x00\n        /* \"#utility.yul\":18799:18802   */\n      dup3\n        /* \"#utility.yul\":18792:18796   */\n      0x1f\n        /* \"#utility.yul\":18784:18790   */\n      dup4\n        /* \"#utility.yul\":18780:18797   */\n      add\n        /* \"#utility.yul\":18776:18803   */\n      slt\n        /* \"#utility.yul\":18766:18888   */\n      tag_596\n      jumpi\n        /* \"#utility.yul\":18807:18886   */\n      tag_597\n      tag_374\n      jump\t// in\n    tag_597:\n        /* \"#utility.yul\":18766:18888   */\n    tag_596:\n        /* \"#utility.yul\":18917:18923   */\n      dup2\n        /* \"#utility.yul\":18911:18924   */\n      mload\n        /* \"#utility.yul\":18942:19072   */\n      tag_598\n        /* \"#utility.yul\":19068:19071   */\n      dup5\n        /* \"#utility.yul\":19060:19066   */\n      dup3\n        /* \"#utility.yul\":19053:19057   */\n      0x20\n        /* \"#utility.yul\":19045:19051   */\n      dup7\n        /* \"#utility.yul\":19041:19058   */\n      add\n        /* \"#utility.yul\":18942:19072   */\n      tag_400\n      jump\t// in\n    tag_598:\n        /* \"#utility.yul\":18933:19072   */\n      swap2\n      pop\n        /* \"#utility.yul\":18756:19078   */\n      pop\n        /* \"#utility.yul\":18643:19078   */\n      swap3\n      swap2\n      pop\n      pop\n      jump\t// out\n        /* \"#utility.yul\":19084:20916   */\n    tag_317:\n        /* \"#utility.yul\":19381:19387   */\n      0x00\n        /* \"#utility.yul\":19389:19395   */\n      0x00\n        /* \"#utility.yul\":19397:19403   */\n      0x00\n        /* \"#utility.yul\":19405:19411   */\n      0x00\n        /* \"#utility.yul\":19454:19457   */\n      0x80\n        /* \"#utility.yul\":19442:19451   */\n      dup6\n        /* \"#utility.yul\":19433:19440   */\n      dup8\n        /* \"#utility.yul\":19429:19452   */\n      sub\n        /* \"#utility.yul\":19425:19458   */\n      slt\n        /* \"#utility.yul\":19422:19542   */\n      iszero\n      tag_600\n      jumpi\n        /* \"#utility.yul\":19461:19540   */\n      tag_601\n      tag_362\n      jump\t// in\n    tag_601:\n        /* \"#utility.yul\":19422:19542   */\n    tag_600:\n        /* \"#utility.yul\":19602:19603   */\n      0x00\n        /* \"#utility.yul\":19591:19600   */\n      dup6\n        /* \"#utility.yul\":19587:19604   */\n      add\n        /* \"#utility.yul\":19581:19605   */\n      mload\n        /* \"#utility.yul\":19632:19650   */\n      0xffffffffffffffff\n        /* \"#utility.yul\":19624:19630   */\n      dup2\n        /* \"#utility.yul\":19621:19651   */\n      gt\n        /* \"#utility.yul\":19618:19735   */\n      iszero\n      tag_602\n      jumpi\n        /* \"#utility.yul\":19654:19733   */\n      tag_603\n      tag_363\n      jump\t// in\n    tag_603:\n        /* \"#utility.yul\":19618:19735   */\n    tag_602:\n        /* \"#utility.yul\":19759:19873   */\n      tag_604\n        /* \"#utility.yul\":19865:19872   */\n      dup8\n        /* \"#utility.yul\":19856:19862   */\n      dup3\n        /* \"#utility.yul\":19845:19854   */\n      dup9\n        /* \"#utility.yul\":19841:19863   */\n      add\n        /* \"#utility.yul\":19759:19873   */\n      tag_401\n      jump\t// in\n    tag_604:\n        /* \"#utility.yul\":19749:19873   */\n      swap5\n      pop\n        /* \"#utility.yul\":19552:19883   */\n      pop\n        /* \"#utility.yul\":19943:19945   */\n      0x20\n        /* \"#utility.yul\":19932:19941   */\n      dup6\n        /* \"#utility.yul\":19928:19946   */\n      add\n        /* \"#utility.yul\":19922:19947   */\n      mload\n        /* \"#utility.yul\":19974:19992   */\n      0xffffffffffffffff\n        /* \"#utility.yul\":19966:19972   */\n      dup2\n        /* \"#utility.yul\":19963:19993   */\n      gt\n        /* \"#utility.yul\":19960:20077   */\n      iszero\n      tag_605\n      jumpi\n        /* \"#utility.yul\":19996:20075   */\n      tag_606\n      tag_363\n      jump\t// in\n    tag_606:\n        /* \"#utility.yul\":19960:20077   */\n    tag_605:\n        /* \"#utility.yul\":20101:20215   */\n      tag_607\n        /* \"#utility.yul\":20207:20214   */\n      dup8\n        /* \"#utility.yul\":20198:20204   */\n      dup3\n        /* \"#utility.yul\":20187:20196   */\n      dup9\n        /* \"#utility.yul\":20183:20205   */\n      add\n        /* \"#utility.yul\":20101:20215   */\n      tag_401\n      jump\t// in\n    tag_607:\n        /* \"#utility.yul\":20091:20215   */\n      swap4\n      pop\n        /* \"#utility.yul\":19893:20225   */\n      pop\n        /* \"#utility.yul\":20285:20287   */\n      0x40\n        /* \"#utility.yul\":20274:20283   */\n      dup6\n        /* \"#utility.yul\":20270:20288   */\n      add\n        /* \"#utility.yul\":20264:20289   */\n      mload\n        /* \"#utility.yul\":20316:20334   */\n      0xffffffffffffffff\n        /* \"#utility.yul\":20308:20314   */\n      dup2\n        /* \"#utility.yul\":20305:20335   */\n      gt\n        /* \"#utility.yul\":20302:20419   */\n      iszero\n      tag_608\n      jumpi\n        /* \"#utility.yul\":20338:20417   */\n      tag_609\n      tag_363\n      jump\t// in\n    tag_609:\n        /* \"#utility.yul\":20302:20419   */\n    tag_608:\n        /* \"#utility.yul\":20443:20557   */\n      tag_610\n        /* \"#utility.yul\":20549:20556   */\n      dup8\n        /* \"#utility.yul\":20540:20546   */\n      dup3\n        /* \"#utility.yul\":20529:20538   */\n      dup9\n        /* \"#utility.yul\":20525:20547   */\n      add\n        /* \"#utility.yul\":20443:20557   */\n      tag_401\n      jump\t// in\n    tag_610:\n        /* \"#utility.yul\":20433:20557   */\n      swap3\n      pop\n        /* \"#utility.yul\":20235:20567   */\n      pop\n        /* \"#utility.yul\":20627:20629   */\n      0x60\n        /* \"#utility.yul\":20616:20625   */\n      dup6\n        /* \"#utility.yul\":20612:20630   */\n      add\n        /* \"#utility.yul\":20606:20631   */\n      mload\n        /* \"#utility.yul\":20658:20676   */\n      0xffffffffffffffff\n        /* \"#utility.yul\":20650:20656   */\n      dup2\n        /* \"#utility.yul\":20647:20677   */\n      gt\n        /* \"#utility.yul\":20644:20761   */\n      iszero\n      tag_611\n      jumpi\n        /* \"#utility.yul\":20680:20759   */\n      tag_612\n      tag_363\n      jump\t// in\n    tag_612:\n        /* \"#utility.yul\":20644:20761   */\n    tag_611:\n        /* \"#utility.yul\":20785:20899   */\n      tag_613\n        /* \"#utility.yul\":20891:20898   */\n      dup8\n        /* \"#utility.yul\":20882:20888   */\n      dup3\n        /* \"#utility.yul\":20871:20880   */\n      dup9\n        /* \"#utility.yul\":20867:20889   */\n      add\n        /* \"#utility.yul\":20785:20899   */\n      tag_401\n      jump\t// in\n    tag_613:\n        /* \"#utility.yul\":20775:20899   */\n      swap2\n      pop\n        /* \"#utility.yul\":20577:20909   */\n      pop\n        /* \"#utility.yul\":19084:20916   */\n      swap3\n      swap6\n      swap2\n      swap5\n      pop\n      swap3\n      pop\n      jump\t// out\n\n    auxdata: 0xa26469706673582212200db250e367dfd4951c14740ce31a7bc949d4c52091a02e0f3d0f70a26ca5a97564736f6c634300081c0033\n}\n",
				"bytecode": {
					"linkReferences": {},
					"object": "6080604052348015600e575f5ffd5b506123c88061001c5f395ff3fe608060405234801561000f575f5ffd5b5060043610610113575f3560e01c806362ba62e5116100a0578063b6363cf21161006f578063b6363cf2146102fb578063e30330411461032b578063e747f31c14610347578063f3178dd114610363578063fe99049a1461037f57610113565b806362ba62e514610277578063a42bff8614610293578063ab7ccc1c146102c3578063b390c0ab146102df57610113565b806336223ac2116100e757806336223ac2146101af578063426a8493146101cb57806352d2accf146101fb578063558a729714610217578063598af9e71461024757610113565b8062fdd58e14610117578063095bcdb614610147578063156e29f614610177578063355f580e14610193575b5f5ffd5b610131600480360381019061012c91906119fb565b6103af565b60405161013e9190611a48565b60405180910390f35b610161600480360381019061015c9190611a61565b6103cf565b60405161016e9190611acb565b60405180910390f35b610191600480360381019061018c9190611a61565b6103e7565b005b6101ad60048036038101906101a89190611b45565b610400565b005b6101c960048036038101906101c49190611b45565b610496565b005b6101e560048036038101906101e09190611a61565b610508565b6040516101f29190611acb565b60405180910390f35b61021560048036038101906102109190611be5565b610606565b005b610231600480360381019061022c9190611c5a565b610667565b60405161023e9190611acb565b60405180910390f35b610261600480360381019061025c9190611c98565b610765565b60405161026e9190611a48565b60405180910390f35b610291600480360381019061028c9190611ce8565b610790565b005b6102ad60048036038101906102a89190611d45565b610801565b6040516102ba9190611a48565b60405180910390f35b6102dd60048036038101906102d89190611d70565b61080b565b005b6102f960048036038101906102f49190611d70565b61085a565b005b61031560048036038101906103109190611dae565b610872565b6040516103229190611acb565b60405180910390f35b61034560048036038101906103409190611b45565b61089b565b005b610361600480360381019061035c9190611d70565b610931565b005b61037d60048036038101906103789190611dec565b610980565b005b61039960048036038101906103949190611e49565b6109f3565b6040516103a69190611acb565b60405180910390f35b6001602052815f5260405f20602052805f5260405f205f91509150505481565b5f6103dc33858585610ada565b600190509392505050565b6103fb836103f53385610b5c565b83610b71565b505050565b5f610409610c27565b90505f5f6104178333610d32565b915091505f8585905090505f5f90505b81811015610483573687878381811061044357610442611ead565b5b90506040020190505f815f013590505f8260200135905061046687878484610d5f565b9550610473338383610b71565b5050508080600101915050610427565b5061048e8383610e0a565b505050505050565b5f8282905090505f5f90505b81811015610502576104f5336104d3338787868181106104c5576104c4611ead565b5b9050604002015f0135610b5c565b8686858181106104e6576104e5611ead565b5b90506040020160200135610e11565b80806001019150506104a2565b50505050565b5f8160025f3373ffffffffffffffffffffffffffffffffffffffff1673ffffffffffffffffffffffffffffffffffffffff1681526020019081526020015f205f8673ffffffffffffffffffffffffffffffffffffffff1673ffffffffffffffffffffffffffffffffffffffff1681526020019081526020015f205f8581526020019081526020015f2081905550828473ffffffffffffffffffffffffffffffffffffffff163373ffffffffffffffffffffffffffffffffffffffff167fb3fd5071835887567a0671151121894ddccc2842f1d10bedad13e0d17cace9a7856040516105f39190611a48565b60405180910390a4600190509392505050565b5f61060f610c27565b90505f8383905090505f5f90505b818110156106605761065385858381811061063b5761063a611ead565b5b905060200281019061064d9190611ee6565b84610f56565b808060010191505061061d565b5050505050565b5f815f5f3373ffffffffffffffffffffffffffffffffffffffff1673ffffffffffffffffffffffffffffffffffffffff1681526020019081526020015f205f8573ffffffffffffffffffffffffffffffffffffffff1673ffffffffffffffffffffffffffffffffffffffff1681526020019081526020015f205f6101000a81548160ff0219169083151502179055508273ffffffffffffffffffffffffffffffffffffffff163373ffffffffffffffffffffffffffffffffffffffff167fceb576d9f15e4e200fdb5096d64d5dfd667e16def20c1eefd14256d8e3faa267846040516107539190611acb565b60405180910390a36001905092915050565b6002602052825f5260405f20602052815f5260405f20602052805f5260405f205f9250925050505481565b5f5f61079b85611330565b915091505f8484905090505f5f90505b818110156107ee576107e18686838181106107c9576107c8611ead565b5b90506020028101906107db9190611ee6565b85610f56565b80806001019150506107ab565b506107f98284611362565b505050505050565b5f815c9050919050565b5f610814610c27565b90505f5f6108228333610d32565b915091505f61083383838888610d5f565b9050808214610847576108468382610e0a565b5b610852338787610b71565b505050505050565b61086e336108683385610b5c565b83610e11565b5050565b5f602052815f5260405f20602052805f5260405f205f915091509054906101000a900460ff1681565b5f6108a4610c27565b90505f5f6108b28333610d32565b915091505f8585905090505f5f90505b8181101561091e57368787838181106108de576108dd611ead565b5b90506040020190505f815f013590505f8260200135905061090187878484611372565b955061090e338383610e11565b50505080806001019150506108c2565b506109298383610e0a565b505050505050565b5f61093a610c27565b90505f5f6109488333610d32565b915091505f61095983838888611372565b905080821461096d5761096c8382610e0a565b5b610978338787610e11565b505050505050565b5f8282905090505f5f90505b818110156109ec576109df856109bd338787868181106109af576109ae611ead565b5b9050604002015f0135610b5c565b8686858181106109d0576109cf611ead565b5b90506040020160200135610b71565b808060010191505061098c565b5050505050565b5f8473ffffffffffffffffffffffffffffffffffffffff163373ffffffffffffffffffffffffffffffffffffffff1614158015610ab157505f5f8673ffffffffffffffffffffffffffffffffffffffff1673ffffffffffffffffffffffffffffffffffffffff1681526020019081526020015f205f3373ffffffffffffffffffffffffffffffffffffffff1673ffffffffffffffffffffffffffffffffffffffff1681526020019081526020015f205f9054906101000a900460ff16155b15610ac257610ac185848461141d565b5b610ace85858585610ada565b60019050949350505050565b610ae5848383610e11565b610af0838383610b71565b818373ffffffffffffffffffffffffffffffffffffffff168573ffffffffffffffffffffffffffffffffffffffff167f9ed053bb818ff08b8353cd46f78db1f0799f31c9e4458fdb425c10eccd2efc4484604051610b4e9190611a48565b60405180910390a450505050565b5f825f52816020526034600c20905092915050565b8060015f8573ffffffffffffffffffffffffffffffffffffffff1673ffffffffffffffffffffffffffffffffffffffff1681526020019081526020015f205f8481526020019081526020015f205f828254610bcc9190611f3a565b92505081905550818373ffffffffffffffffffffffffffffffffffffffff167f4c209b5fc8ad50758f13e2e1088ba56a560dff690a1c6fef26394f4c03821c4f83604051610c1a9190611a48565b60405180910390a3505050565b5f5f5f5f5c6bffffffffffffffffffffffff811691508060601c9250505f8103610c7d576040517f97013e4300000000000000000000000000000000000000000000000000000000815260040160405180910390fd5b600181035f525f602052602c60142092505f73ffffffffffffffffffffffffffffffffffffffff168273ffffffffffffffffffffffffffffffffffffffff1614158015610cf657503373ffffffffffffffffffffffffffffffffffffffff168273ffffffffffffffffffffffffffffffffffffffff1614155b15610d2d576040517f1230858900000000000000000000000000000000000000000000000000000000815260040160405180910390fd5b505090565b5f5f610d3e848461156d565b9150815c905080610d58576001845c0180855d838186015d505b9250929050565b5f825f528460205260405f20805c8060011d84810360028160fe1c148183121760018114610d9757600184168260011b17855d610de9565b600185017f4000000000000000000000000000000000000000000000000000000000000000830160ff1c6002035f6001871615610dd357825c90505b818103905080835d8015158560011b17885d5050505b5082610dfb5760018801975086888a015d5b50505050839050949350505050565b80825d5050565b8060015f8573ffffffffffffffffffffffffffffffffffffffff1673ffffffffffffffffffffffffffffffffffffffff1681526020019081526020015f205f8481526020019081526020015f20541015610ea0576040517f08c379a0000000000000000000000000000000000000000000000000000000008152600401610e9790611fc7565b60405180910390fd5b8060015f8573ffffffffffffffffffffffffffffffffffffffff1673ffffffffffffffffffffffffffffffffffffffff1681526020019081526020015f205f8481526020019081526020015f205f828254610efb9190611fe5565b92505081905550818373ffffffffffffffffffffffffffffffffffffffff167f49995e5dd6158cf69ad3e9777c46755a1a826a446c6416992167462dad033b2a83604051610f499190611a48565b60405180910390a3505050565b5f826020016020810190610f6a9190612018565b90505f5f845f016020810190610f809190612018565b90505f73ffffffffffffffffffffffffffffffffffffffff168173ffffffffffffffffffffffffffffffffffffffff1603610fbd57339050611085565b3373ffffffffffffffffffffffffffffffffffffffff168173ffffffffffffffffffffffffffffffffffffffff161415801561107a57505f5f8273ffffffffffffffffffffffffffffffffffffffff1673ffffffffffffffffffffffffffffffffffffffff1681526020019081526020015f205f3373ffffffffffffffffffffffffffffffffffffffff1673ffffffffffffffffffffffffffffffffffffffff1681526020019081526020015f205f9054906101000a900460ff16155b1561108457600191505b5b5f5f5f5f61109289611582565b93509350935093505f5f6110a68a88610d32565b915091505f5f90505b86518110156111175761110883836110e48d8b86815181106110d4576110d3611ead565b5b60200260200101515f0151610b5c565b8a85815181106110f7576110f6611ead565b5b602002602001015160200151611372565b915080806001019150506110af565b505f5f90505b85518110156111a1575f61114e8b88848151811061113e5761113d611ead565b5b60200260200101515f0151610b5c565b90505f87838151811061116457611163611ead565b5b60200260200101516020015190508a15611184576111838a838361141d565b5b61119085858484610d5f565b93505050808060010191505061111d565b508673ffffffffffffffffffffffffffffffffffffffff168973ffffffffffffffffffffffffffffffffffffffff16141580156111eb57505f84511415806111ea57505f835114155b5b15611319575f5f6111fc8c8c610d32565b915091505f5f90505b865181101561127c575f87828151811061122257611221611ead565b5b60200260200101515f015190505f88838151811061124357611242611ead565b5b602002602001015160200151905061125d87878484611372565b955061126b85858484610d5f565b935050508080600101915050611205565b505f5f90505b855181101561130b575f86828151811061129f5761129e611ead565b5b60200260200101515f015190505f8783815181106112c0576112bf611ead565b5b60200260200101516020015190508c156112e0576112df8c838361141d565b5b6112ec87878484610d5f565b95506112fa85858484611372565b935050508080600101915050611282565b506113168282610e0a565b50505b6113238282610e0a565b5050505050505050505050565b5f5f5f5c905060016bffffffffffffffffffffffff8216018360601b175f5d805f525f602052602c6014209150915091565b61136b81611694565b815f5d5050565b5f825f528460205260405f20805c8060011d84810160018160fe1c1482821217600181146113aa57600184168260011b17855d6113fc565b600185017f4000000000000000000000000000000000000000000000000000000000000000830160ff1c6002035f60018716156113e657825c90505b818101905080835d8015158560011b17885d5050505b508261140e5760018801975086888a015d5b50505050839050949350505050565b5f60025f8573ffffffffffffffffffffffffffffffffffffffff1673ffffffffffffffffffffffffffffffffffffffff1681526020019081526020015f205f3373ffffffffffffffffffffffffffffffffffffffff1673ffffffffffffffffffffffffffffffffffffffff1681526020019081526020015f205f8481526020019081526020015f205490507fffffffffffffffffffffffffffffffffffffffffffffffffffffffffffffffff81146115675781816114db9190611fe5565b60025f8673ffffffffffffffffffffffffffffffffffffffff1673ffffffffffffffffffffffffffffffffffffffff1681526020019081526020015f205f3373ffffffffffffffffffffffffffffffffffffffff1673ffffffffffffffffffffffffffffffffffffffff1681526020019081526020015f205f8581526020019081526020015f20819055505b50505050565b5f815f52826020526034600c20905092915050565b60608060608084602001602081019061159b9190612018565b73ffffffffffffffffffffffffffffffffffffffff1663a129568d8680604001906115c69190612043565b6040518363ffffffff1660e01b81526004016115e39291906120ff565b5f604051808303815f875af11580156115fe573d5f5f3e3d5ffd5b505050506040513d5f823e3d601f19601f8201168201806040525081019061162691906122be565b809450819550829650839750505050505f5f1b85606001351461168d575f61164c6116d4565b90508086606001351461168b576040517f6f0632bf00000000000000000000000000000000000000000000000000000000815260040160405180910390fd5b505b9193509193565b5f815c90505f5f90505b818110156116cf575f8160010191508184015c90506116c66116c0858361156d565b8261171f565b5f845d5061169e565b505050565b5f6040518060805f833e608082015b80831015611713578251602081833e815160061b6020820191508082843e808320855250506020830192506116e3565b50608081209250505090565b5f61172983611953565b90505f5f90505b8181101561194a575f5f5f8360010193508387015c9250825f528660205260405f209050805c91505f820361176757505050611945565b5f6001831690508260011d92505f825d8015611919575f600183015c90507ffffffffffffffffffffffffffffffffffffffffffffffffffffffffffffffffe81036117f8575f8412156117e6576040517f778214eb00000000000000000000000000000000000000000000000000000000815260040160405180910390fd5b6117f38886865f03610e11565b611913565b7fffffffffffffffffffffffffffffffffffffffffffffffffffffffffffffffff81036118535761184e88867f8000000000000000000000000000000000000000000000000000000000000000875f0301610e11565b611912565b6001810361188d5761188888867f80000000000000000000000000000000000000000000000000000000000000008701610b71565b611911565b600281036118de575f84126118ce576040517f778214eb00000000000000000000000000000000000000000000000000000000815260040160405180910390fd5b6118d9888686610b71565b611910565b6040517f778214eb00000000000000000000000000000000000000000000000000000000815260040160405180910390fd5b5b5b5b50611940565b5f8312156119335761192e8785855f03610e11565b61193f565b61193e878585610b71565b5b5b505050505b611730565b505f835d505050565b5f815c9050919050565b5f604051905090565b5f5ffd5b5f5ffd5b5f73ffffffffffffffffffffffffffffffffffffffff82169050919050565b5f6119978261196e565b9050919050565b6119a78161198d565b81146119b1575f5ffd5b50565b5f813590506119c28161199e565b92915050565b5f819050919050565b6119da816119c8565b81146119e4575f5ffd5b50565b5f813590506119f5816119d1565b92915050565b5f5f60408385031215611a1157611a10611966565b5b5f611a1e858286016119b4565b9250506020611a2f858286016119e7565b9150509250929050565b611a42816119c8565b82525050565b5f602082019050611a5b5f830184611a39565b92915050565b5f5f5f60608486031215611a7857611a77611966565b5b5f611a85868287016119b4565b9350506020611a96868287016119e7565b9250506040611aa7868287016119e7565b9150509250925092565b5f8115159050919050565b611ac581611ab1565b82525050565b5f602082019050611ade5f830184611abc565b92915050565b5f5ffd5b5f5ffd5b5f5ffd5b5f5f83601f840112611b0557611b04611ae4565b5b8235905067ffffffffffffffff811115611b2257611b21611ae8565b5b602083019150836040820283011115611b3e57611b3d611aec565b5b9250929050565b5f5f60208385031215611b5b57611b5a611966565b5b5f83013567ffffffffffffffff811115611b7857611b7761196a565b5b611b8485828601611af0565b92509250509250929050565b5f5f83601f840112611ba557611ba4611ae4565b5b8235905067ffffffffffffffff811115611bc257611bc1611ae8565b5b602083019150836020820283011115611bde57611bdd611aec565b5b9250929050565b5f5f60208385031215611bfb57611bfa611966565b5b5f83013567ffffffffffffffff811115611c1857611c1761196a565b5b611c2485828601611b90565b92509250509250929050565b611c3981611ab1565b8114611c43575f5ffd5b50565b5f81359050611c5481611c30565b92915050565b5f5f60408385031215611c7057611c6f611966565b5b5f611c7d858286016119b4565b9250506020611c8e85828601611c46565b9150509250929050565b5f5f5f60608486031215611caf57611cae611966565b5b5f611cbc868287016119b4565b9350506020611ccd868287016119b4565b9250506040611cde868287016119e7565b9150509250925092565b5f5f5f60408486031215611cff57611cfe611966565b5b5f611d0c868287016119b4565b935050602084013567ffffffffffffffff811115611d2d57611d2c61196a565b5b611d3986828701611b90565b92509250509250925092565b5f60208284031215611d5a57611d59611966565b5b5f611d67848285016119e7565b91505092915050565b5f5f60408385031215611d8657611d85611966565b5b5f611d93858286016119e7565b9250506020611da4858286016119e7565b9150509250929050565b5f5f60408385031215611dc457611dc3611966565b5b5f611dd1858286016119b4565b9250506020611de2858286016119b4565b9150509250929050565b5f5f5f60408486031215611e0357611e02611966565b5b5f611e10868287016119b4565b935050602084013567ffffffffffffffff811115611e3157611e3061196a565b5b611e3d86828701611af0565b92509250509250925092565b5f5f5f5f60808587031215611e6157611e60611966565b5b5f611e6e878288016119b4565b9450506020611e7f878288016119b4565b9350506040611e90878288016119e7565b9250506060611ea1878288016119e7565b91505092959194509250565b7f4e487b71000000000000000000000000000000000000000000000000000000005f52603260045260245ffd5b5f5ffd5b5f5ffd5b5f5ffd5b5f82356001608003833603038112611f0157611f00611eda565b5b80830191505092915050565b7f4e487b71000000000000000000000000000000000000000000000000000000005f52601160045260245ffd5b5f611f44826119c8565b9150611f4f836119c8565b9250828201905080821115611f6757611f66611f0d565b5b92915050565b5f82825260208201905092915050565b7f496e73756666696369656e742062616c616e63650000000000000000000000005f82015250565b5f611fb1601483611f6d565b9150611fbc82611f7d565b602082019050919050565b5f6020820190508181035f830152611fde81611fa5565b9050919050565b5f611fef826119c8565b9150611ffa836119c8565b925082820390508181111561201257612011611f0d565b5b92915050565b5f6020828403121561202d5761202c611966565b5b5f61203a848285016119b4565b91505092915050565b5f5f8335600160200384360303811261205f5761205e611eda565b5b80840192508235915067ffffffffffffffff82111561208157612080611ede565b5b60208301925060018202360383131561209d5761209c611ee2565b5b509250929050565b5f82825260208201905092915050565b828183375f83830152505050565b5f601f19601f8301169050919050565b5f6120de83856120a5565b93506120eb8385846120b5565b6120f4836120c3565b840190509392505050565b5f6020820190508181035f8301526121188184866120d3565b90509392505050565b7f4e487b71000000000000000000000000000000000000000000000000000000005f52604160045260245ffd5b612157826120c3565b810181811067ffffffffffffffff8211171561217657612175612121565b5b80604052505050565b5f61218861195d565b9050612194828261214e565b919050565b5f67ffffffffffffffff8211156121b3576121b2612121565b5b602082029050602081019050919050565b5f5ffd5b5f815190506121d6816119d1565b92915050565b5f604082840312156121f1576121f06121c4565b5b6121fb604061217f565b90505f61220a848285016121c8565b5f83015250602061221d848285016121c8565b60208301525092915050565b5f61223b61223684612199565b61217f565b9050808382526020820190506040840283018581111561225e5761225d611aec565b5b835b81811015612287578061227388826121dc565b845260208401935050604081019050612260565b5050509392505050565b5f82601f8301126122a5576122a4611ae4565b5b81516122b5848260208601612229565b91505092915050565b5f5f5f5f608085870312156122d6576122d5611966565b5b5f85015167ffffffffffffffff8111156122f3576122f261196a565b5b6122ff87828801612291565b945050602085015167ffffffffffffffff8111156123205761231f61196a565b5b61232c87828801612291565b935050604085015167ffffffffffffffff81111561234d5761234c61196a565b5b61235987828801612291565b925050606085015167ffffffffffffffff81111561237a5761237961196a565b5b61238687828801612291565b9150509295919450925056fea26469706673582212200db250e367dfd4951c14740ce31a7bc949d4c52091a02e0f3d0f70a26ca5a97564736f6c634300081c0033",
					"opcodes": "PUSH1 0x80 PUSH1 0x40 MSTORE CALLVALUE DUP1 ISZERO PUSH1 0xE JUMPI PUSH0 PUSH0 REVERT JUMPDEST POP PUSH2 0x23C8 DUP1 PUSH2 0x1C PUSH0 CODECOPY PUSH0 RETURN INVALID PUSH1 0x80 PUSH1 0x40 MSTORE CALLVALUE DUP1 ISZERO PUSH2 0xF JUMPI PUSH0 PUSH0 REVERT JUMPDEST POP PUSH1 0x4 CALLDATASIZE LT PUSH2 0x113 JUMPI PUSH0 CALLDATALOAD PUSH1 0xE0 SHR DUP1 PUSH4 0x62BA62E5 GT PUSH2 0xA0 JUMPI DUP1 PUSH4 0xB6363CF2 GT PUSH2 0x6F JUMPI DUP1 PUSH4 0xB6363CF2 EQ PUSH2 0x2FB JUMPI DUP1 PUSH4 0xE3033041 EQ PUSH2 0x32B JUMPI DUP1 PUSH4 0xE747F31C EQ PUSH2 0x347 JUMPI DUP1 PUSH4 0xF3178DD1 EQ PUSH2 0x363 JUMPI DUP1 PUSH4 0xFE99049A EQ PUSH2 0x37F JUMPI PUSH2 0x113 JUMP JUMPDEST DUP1 PUSH4 0x62BA62E5 EQ PUSH2 0x277 JUMPI DUP1 PUSH4 0xA42BFF86 EQ PUSH2 0x293 JUMPI DUP1 PUSH4 0xAB7CCC1C EQ PUSH2 0x2C3 JUMPI DUP1 PUSH4 0xB390C0AB EQ PUSH2 0x2DF JUMPI PUSH2 0x113 JUMP JUMPDEST DUP1 PUSH4 0x36223AC2 GT PUSH2 0xE7 JUMPI DUP1 PUSH4 0x36223AC2 EQ PUSH2 0x1AF JUMPI DUP1 PUSH4 0x426A8493 EQ PUSH2 0x1CB JUMPI DUP1 PUSH4 0x52D2ACCF EQ PUSH2 0x1FB JUMPI DUP1 PUSH4 0x558A7297 EQ PUSH2 0x217 JUMPI DUP1 PUSH4 0x598AF9E7 EQ PUSH2 0x247 JUMPI PUSH2 0x113 JUMP JUMPDEST DUP1 PUSH3 0xFDD58E EQ PUSH2 0x117 JUMPI DUP1 PUSH4 0x95BCDB6 EQ PUSH2 0x147 JUMPI DUP1 PUSH4 0x156E29F6 EQ PUSH2 0x177 JUMPI DUP1 PUSH4 0x355F580E EQ PUSH2 0x193 JUMPI JUMPDEST PUSH0 PUSH0 REVERT JUMPDEST PUSH2 0x131 PUSH1 0x4 DUP1 CALLDATASIZE SUB DUP2 ADD SWAP1 PUSH2 0x12C SWAP2 SWAP1 PUSH2 0x19FB JUMP JUMPDEST PUSH2 0x3AF JUMP JUMPDEST PUSH1 0x40 MLOAD PUSH2 0x13E SWAP2 SWAP1 PUSH2 0x1A48 JUMP JUMPDEST PUSH1 0x40 MLOAD DUP1 SWAP2 SUB SWAP1 RETURN JUMPDEST PUSH2 0x161 PUSH1 0x4 DUP1 CALLDATASIZE SUB DUP2 ADD SWAP1 PUSH2 0x15C SWAP2 SWAP1 PUSH2 0x1A61 JUMP JUMPDEST PUSH2 0x3CF JUMP JUMPDEST PUSH1 0x40 MLOAD PUSH2 0x16E SWAP2 SWAP1 PUSH2 0x1ACB JUMP JUMPDEST PUSH1 0x40 MLOAD DUP1 SWAP2 SUB SWAP1 RETURN JUMPDEST PUSH2 0x191 PUSH1 0x4 DUP1 CALLDATASIZE SUB DUP2 ADD SWAP1 PUSH2 0x18C SWAP2 SWAP1 PUSH2 0x1A61 JUMP JUMPDEST PUSH2 0x3E7 JUMP JUMPDEST STOP JUMPDEST PUSH2 0x1AD PUSH1 0x4 DUP1 CALLDATASIZE SUB DUP2 ADD SWAP1 PUSH2 0x1A8 SWAP2 SWAP1 PUSH2 0x1B45 JUMP JUMPDEST PUSH2 0x400 JUMP JUMPDEST STOP JUMPDEST PUSH2 0x1C9 PUSH1 0x4 DUP1 CALLDATASIZE SUB DUP2 ADD SWAP1 PUSH2 0x1C4 SWAP2 SWAP1 PUSH2 0x1B45 JUMP JUMPDEST PUSH2 0x496 JUMP JUMPDEST STOP JUMPDEST PUSH2 0x1E5 PUSH1 0x4 DUP1 CALLDATASIZE SUB DUP2 ADD SWAP1 PUSH2 0x1E0 SWAP2 SWAP1 PUSH2 0x1A61 JUMP JUMPDEST PUSH2 0x508 JUMP JUMPDEST PUSH1 0x40 MLOAD PUSH2 0x1F2 SWAP2 SWAP1 PUSH2 0x1ACB JUMP JUMPDEST PUSH1 0x40 MLOAD DUP1 SWAP2 SUB SWAP1 RETURN JUMPDEST PUSH2 0x215 PUSH1 0x4 DUP1 CALLDATASIZE SUB DUP2 ADD SWAP1 PUSH2 0x210 SWAP2 SWAP1 PUSH2 0x1BE5 JUMP JUMPDEST PUSH2 0x606 JUMP JUMPDEST STOP JUMPDEST PUSH2 0x231 PUSH1 0x4 DUP1 CALLDATASIZE SUB DUP2 ADD SWAP1 PUSH2 0x22C SWAP2 SWAP1 PUSH2 0x1C5A JUMP JUMPDEST PUSH2 0x667 JUMP JUMPDEST PUSH1 0x40 MLOAD PUSH2 0x23E SWAP2 SWAP1 PUSH2 0x1ACB JUMP JUMPDEST PUSH1 0x40 MLOAD DUP1 SWAP2 SUB SWAP1 RETURN JUMPDEST PUSH2 0x261 PUSH1 0x4 DUP1 CALLDATASIZE SUB DUP2 ADD SWAP1 PUSH2 0x25C SWAP2 SWAP1 PUSH2 0x1C98 JUMP JUMPDEST PUSH2 0x765 JUMP JUMPDEST PUSH1 0x40 MLOAD PUSH2 0x26E SWAP2 SWAP1 PUSH2 0x1A48 JUMP JUMPDEST PUSH1 0x40 MLOAD DUP1 SWAP2 SUB SWAP1 RETURN JUMPDEST PUSH2 0x291 PUSH1 0x4 DUP1 CALLDATASIZE SUB DUP2 ADD SWAP1 PUSH2 0x28C SWAP2 SWAP1 PUSH2 0x1CE8 JUMP JUMPDEST PUSH2 0x790 JUMP JUMPDEST STOP JUMPDEST PUSH2 0x2AD PUSH1 0x4 DUP1 CALLDATASIZE SUB DUP2 ADD SWAP1 PUSH2 0x2A8 SWAP2 SWAP1 PUSH2 0x1D45 JUMP JUMPDEST PUSH2 0x801 JUMP JUMPDEST PUSH1 0x40 MLOAD PUSH2 0x2BA SWAP2 SWAP1 PUSH2 0x1A48 JUMP JUMPDEST PUSH1 0x40 MLOAD DUP1 SWAP2 SUB SWAP1 RETURN JUMPDEST PUSH2 0x2DD PUSH1 0x4 DUP1 CALLDATASIZE SUB DUP2 ADD SWAP1 PUSH2 0x2D8 SWAP2 SWAP1 PUSH2 0x1D70 JUMP JUMPDEST PUSH2 0x80B JUMP JUMPDEST STOP JUMPDEST PUSH2 0x2F9 PUSH1 0x4 DUP1 CALLDATASIZE SUB DUP2 ADD SWAP1 PUSH2 0x2F4 SWAP2 SWAP1 PUSH2 0x1D70 JUMP JUMPDEST PUSH2 0x85A JUMP JUMPDEST STOP JUMPDEST PUSH2 0x315 PUSH1 0x4 DUP1 CALLDATASIZE SUB DUP2 ADD SWAP1 PUSH2 0x310 SWAP2 SWAP1 PUSH2 0x1DAE JUMP JUMPDEST PUSH2 0x872 JUMP JUMPDEST PUSH1 0x40 MLOAD PUSH2 0x322 SWAP2 SWAP1 PUSH2 0x1ACB JUMP JUMPDEST PUSH1 0x40 MLOAD DUP1 SWAP2 SUB SWAP1 RETURN JUMPDEST PUSH2 0x345 PUSH1 0x4 DUP1 CALLDATASIZE SUB DUP2 ADD SWAP1 PUSH2 0x340 SWAP2 SWAP1 PUSH2 0x1B45 JUMP JUMPDEST PUSH2 0x89B JUMP JUMPDEST STOP JUMPDEST PUSH2 0x361 PUSH1 0x4 DUP1 CALLDATASIZE SUB DUP2 ADD SWAP1 PUSH2 0x35C SWAP2 SWAP1 PUSH2 0x1D70 JUMP JUMPDEST PUSH2 0x931 JUMP JUMPDEST STOP JUMPDEST PUSH2 0x37D PUSH1 0x4 DUP1 CALLDATASIZE SUB DUP2 ADD SWAP1 PUSH2 0x378 SWAP2 SWAP1 PUSH2 0x1DEC JUMP JUMPDEST PUSH2 0x980 JUMP JUMPDEST STOP JUMPDEST PUSH2 0x399 PUSH1 0x4 DUP1 CALLDATASIZE SUB DUP2 ADD SWAP1 PUSH2 0x394 SWAP2 SWAP1 PUSH2 0x1E49 JUMP JUMPDEST PUSH2 0x9F3 JUMP JUMPDEST PUSH1 0x40 MLOAD PUSH2 0x3A6 SWAP2 SWAP1 PUSH2 0x1ACB JUMP JUMPDEST PUSH1 0x40 MLOAD DUP1 SWAP2 SUB SWAP1 RETURN JUMPDEST PUSH1 0x1 PUSH1 0x20 MSTORE DUP2 PUSH0 MSTORE PUSH1 0x40 PUSH0 KECCAK256 PUSH1 0x20 MSTORE DUP1 PUSH0 MSTORE PUSH1 0x40 PUSH0 KECCAK256 PUSH0 SWAP2 POP SWAP2 POP POP SLOAD DUP2 JUMP JUMPDEST PUSH0 PUSH2 0x3DC CALLER DUP6 DUP6 DUP6 PUSH2 0xADA JUMP JUMPDEST PUSH1 0x1 SWAP1 POP SWAP4 SWAP3 POP POP POP JUMP JUMPDEST PUSH2 0x3FB DUP4 PUSH2 0x3F5 CALLER DUP6 PUSH2 0xB5C JUMP JUMPDEST DUP4 PUSH2 0xB71 JUMP JUMPDEST POP POP POP JUMP JUMPDEST PUSH0 PUSH2 0x409 PUSH2 0xC27 JUMP JUMPDEST SWAP1 POP PUSH0 PUSH0 PUSH2 0x417 DUP4 CALLER PUSH2 0xD32 JUMP JUMPDEST SWAP2 POP SWAP2 POP PUSH0 DUP6 DUP6 SWAP1 POP SWAP1 POP PUSH0 PUSH0 SWAP1 POP JUMPDEST DUP2 DUP2 LT ISZERO PUSH2 0x483 JUMPI CALLDATASIZE DUP8 DUP8 DUP4 DUP2 DUP2 LT PUSH2 0x443 JUMPI PUSH2 0x442 PUSH2 0x1EAD JUMP JUMPDEST JUMPDEST SWAP1 POP PUSH1 0x40 MUL ADD SWAP1 POP PUSH0 DUP2 PUSH0 ADD CALLDATALOAD SWAP1 POP PUSH0 DUP3 PUSH1 0x20 ADD CALLDATALOAD SWAP1 POP PUSH2 0x466 DUP8 DUP8 DUP5 DUP5 PUSH2 0xD5F JUMP JUMPDEST SWAP6 POP PUSH2 0x473 CALLER DUP4 DUP4 PUSH2 0xB71 JUMP JUMPDEST POP POP POP DUP1 DUP1 PUSH1 0x1 ADD SWAP2 POP POP PUSH2 0x427 JUMP JUMPDEST POP PUSH2 0x48E DUP4 DUP4 PUSH2 0xE0A JUMP JUMPDEST POP POP POP POP POP POP JUMP JUMPDEST PUSH0 DUP3 DUP3 SWAP1 POP SWAP1 POP PUSH0 PUSH0 SWAP1 POP JUMPDEST DUP2 DUP2 LT ISZERO PUSH2 0x502 JUMPI PUSH2 0x4F5 CALLER PUSH2 0x4D3 CALLER DUP8 DUP8 DUP7 DUP2 DUP2 LT PUSH2 0x4C5 JUMPI PUSH2 0x4C4 PUSH2 0x1EAD JUMP JUMPDEST JUMPDEST SWAP1 POP PUSH1 0x40 MUL ADD PUSH0 ADD CALLDATALOAD PUSH2 0xB5C JUMP JUMPDEST DUP7 DUP7 DUP6 DUP2 DUP2 LT PUSH2 0x4E6 JUMPI PUSH2 0x4E5 PUSH2 0x1EAD JUMP JUMPDEST JUMPDEST SWAP1 POP PUSH1 0x40 MUL ADD PUSH1 0x20 ADD CALLDATALOAD PUSH2 0xE11 JUMP JUMPDEST DUP1 DUP1 PUSH1 0x1 ADD SWAP2 POP POP PUSH2 0x4A2 JUMP JUMPDEST POP POP POP POP JUMP JUMPDEST PUSH0 DUP2 PUSH1 0x2 PUSH0 CALLER PUSH20 0xFFFFFFFFFFFFFFFFFFFFFFFFFFFFFFFFFFFFFFFF AND PUSH20 0xFFFFFFFFFFFFFFFFFFFFFFFFFFFFFFFFFFFFFFFF AND DUP2 MSTORE PUSH1 0x20 ADD SWAP1 DUP2 MSTORE PUSH1 0x20 ADD PUSH0 KECCAK256 PUSH0 DUP7 PUSH20 0xFFFFFFFFFFFFFFFFFFFFFFFFFFFFFFFFFFFFFFFF AND PUSH20 0xFFFFFFFFFFFFFFFFFFFFFFFFFFFFFFFFFFFFFFFF AND DUP2 MSTORE PUSH1 0x20 ADD SWAP1 DUP2 MSTORE PUSH1 0x20 ADD PUSH0 KECCAK256 PUSH0 DUP6 DUP2 MSTORE PUSH1 0x20 ADD SWAP1 DUP2 MSTORE PUSH1 0x20 ADD PUSH0 KECCAK256 DUP2 SWAP1 SSTORE POP DUP3 DUP5 PUSH20 0xFFFFFFFFFFFFFFFFFFFFFFFFFFFFFFFFFFFFFFFF AND CALLER PUSH20 0xFFFFFFFFFFFFFFFFFFFFFFFFFFFFFFFFFFFFFFFF AND PUSH32 0xB3FD5071835887567A0671151121894DDCCC2842F1D10BEDAD13E0D17CACE9A7 DUP6 PUSH1 0x40 MLOAD PUSH2 0x5F3 SWAP2 SWAP1 PUSH2 0x1A48 JUMP JUMPDEST PUSH1 0x40 MLOAD DUP1 SWAP2 SUB SWAP1 LOG4 PUSH1 0x1 SWAP1 POP SWAP4 SWAP3 POP POP POP JUMP JUMPDEST PUSH0 PUSH2 0x60F PUSH2 0xC27 JUMP JUMPDEST SWAP1 POP PUSH0 DUP4 DUP4 SWAP1 POP SWAP1 POP PUSH0 PUSH0 SWAP1 POP JUMPDEST DUP2 DUP2 LT ISZERO PUSH2 0x660 JUMPI PUSH2 0x653 DUP6 DUP6 DUP4 DUP2 DUP2 LT PUSH2 0x63B JUMPI PUSH2 0x63A PUSH2 0x1EAD JUMP JUMPDEST JUMPDEST SWAP1 POP PUSH1 0x20 MUL DUP2 ADD SWAP1 PUSH2 0x64D SWAP2 SWAP1 PUSH2 0x1EE6 JUMP JUMPDEST DUP5 PUSH2 0xF56 JUMP JUMPDEST DUP1 DUP1 PUSH1 0x1 ADD SWAP2 POP POP PUSH2 0x61D JUMP JUMPDEST POP POP POP POP POP JUMP JUMPDEST PUSH0 DUP2 PUSH0 PUSH0 CALLER PUSH20 0xFFFFFFFFFFFFFFFFFFFFFFFFFFFFFFFFFFFFFFFF AND PUSH20 0xFFFFFFFFFFFFFFFFFFFFFFFFFFFFFFFFFFFFFFFF AND DUP2 MSTORE PUSH1 0x20 ADD SWAP1 DUP2 MSTORE PUSH1 0x20 ADD PUSH0 KECCAK256 PUSH0 DUP6 PUSH20 0xFFFFFFFFFFFFFFFFFFFFFFFFFFFFFFFFFFFFFFFF AND PUSH20 0xFFFFFFFFFFFFFFFFFFFFFFFFFFFFFFFFFFFFFFFF AND DUP2 MSTORE PUSH1 0x20 ADD SWAP1 DUP2 MSTORE PUSH1 0x20 ADD PUSH0 KECCAK256 PUSH0 PUSH2 0x100 EXP DUP2 SLOAD DUP2 PUSH1 0xFF MUL NOT AND SWAP1 DUP4 ISZERO ISZERO MUL OR SWAP1 SSTORE POP DUP3 PUSH20 0xFFFFFFFFFFFFFFFFFFFFFFFFFFFFFFFFFFFFFFFF AND CALLER PUSH20 0xFFFFFFFFFFFFFFFFFFFFFFFFFFFFFFFFFFFFFFFF AND PUSH32 0xCEB576D9F15E4E200FDB5096D64D5DFD667E16DEF20C1EEFD14256D8E3FAA267 DUP5 PUSH1 0x40 MLOAD PUSH2 0x753 SWAP2 SWAP1 PUSH2 0x1ACB JUMP JUMPDEST PUSH1 0x40 MLOAD DUP1 SWAP2 SUB SWAP1 LOG3 PUSH1 0x1 SWAP1 POP SWAP3 SWAP2 POP POP JUMP JUMPDEST PUSH1 0x2 PUSH1 0x20 MSTORE DUP3 PUSH0 MSTORE PUSH1 0x40 PUSH0 KECCAK256 PUSH1 0x20 MSTORE DUP2 PUSH0 MSTORE PUSH1 0x40 PUSH0 KECCAK256 PUSH1 0x20 MSTORE DUP1 PUSH0 MSTORE PUSH1 0x40 PUSH0 KECCAK256 PUSH0 SWAP3 POP SWAP3 POP POP POP SLOAD DUP2 JUMP JUMPDEST PUSH0 PUSH0 PUSH2 0x79B DUP6 PUSH2 0x1330 JUMP JUMPDEST SWAP2 POP SWAP2 POP PUSH0 DUP5 DUP5 SWAP1 POP SWAP1 POP PUSH0 PUSH0 SWAP1 POP JUMPDEST DUP2 DUP2 LT ISZERO PUSH2 0x7EE JUMPI PUSH2 0x7E1 DUP7 DUP7 DUP4 DUP2 DUP2 LT PUSH2 0x7C9 JUMPI PUSH2 0x7C8 PUSH2 0x1EAD JUMP JUMPDEST JUMPDEST SWAP1 POP PUSH1 0x20 MUL DUP2 ADD SWAP1 PUSH2 0x7DB SWAP2 SWAP1 PUSH2 0x1EE6 JUMP JUMPDEST DUP6 PUSH2 0xF56 JUMP JUMPDEST DUP1 DUP1 PUSH1 0x1 ADD SWAP2 POP POP PUSH2 0x7AB JUMP JUMPDEST POP PUSH2 0x7F9 DUP3 DUP5 PUSH2 0x1362 JUMP JUMPDEST POP POP POP POP POP POP JUMP JUMPDEST PUSH0 DUP2 TLOAD SWAP1 POP SWAP2 SWAP1 POP JUMP JUMPDEST PUSH0 PUSH2 0x814 PUSH2 0xC27 JUMP JUMPDEST SWAP1 POP PUSH0 PUSH0 PUSH2 0x822 DUP4 CALLER PUSH2 0xD32 JUMP JUMPDEST SWAP2 POP SWAP2 POP PUSH0 PUSH2 0x833 DUP4 DUP4 DUP9 DUP9 PUSH2 0xD5F JUMP JUMPDEST SWAP1 POP DUP1 DUP3 EQ PUSH2 0x847 JUMPI PUSH2 0x846 DUP4 DUP3 PUSH2 0xE0A JUMP JUMPDEST JUMPDEST PUSH2 0x852 CALLER DUP8 DUP8 PUSH2 0xB71 JUMP JUMPDEST POP POP POP POP POP POP JUMP JUMPDEST PUSH2 0x86E CALLER PUSH2 0x868 CALLER DUP6 PUSH2 0xB5C JUMP JUMPDEST DUP4 PUSH2 0xE11 JUMP JUMPDEST POP POP JUMP JUMPDEST PUSH0 PUSH1 0x20 MSTORE DUP2 PUSH0 MSTORE PUSH1 0x40 PUSH0 KECCAK256 PUSH1 0x20 MSTORE DUP1 PUSH0 MSTORE PUSH1 0x40 PUSH0 KECCAK256 PUSH0 SWAP2 POP SWAP2 POP SWAP1 SLOAD SWAP1 PUSH2 0x100 EXP SWAP1 DIV PUSH1 0xFF AND DUP2 JUMP JUMPDEST PUSH0 PUSH2 0x8A4 PUSH2 0xC27 JUMP JUMPDEST SWAP1 POP PUSH0 PUSH0 PUSH2 0x8B2 DUP4 CALLER PUSH2 0xD32 JUMP JUMPDEST SWAP2 POP SWAP2 POP PUSH0 DUP6 DUP6 SWAP1 POP SWAP1 POP PUSH0 PUSH0 SWAP1 POP JUMPDEST DUP2 DUP2 LT ISZERO PUSH2 0x91E JUMPI CALLDATASIZE DUP8 DUP8 DUP4 DUP2 DUP2 LT PUSH2 0x8DE JUMPI PUSH2 0x8DD PUSH2 0x1EAD JUMP JUMPDEST JUMPDEST SWAP1 POP PUSH1 0x40 MUL ADD SWAP1 POP PUSH0 DUP2 PUSH0 ADD CALLDATALOAD SWAP1 POP PUSH0 DUP3 PUSH1 0x20 ADD CALLDATALOAD SWAP1 POP PUSH2 0x901 DUP8 DUP8 DUP5 DUP5 PUSH2 0x1372 JUMP JUMPDEST SWAP6 POP PUSH2 0x90E CALLER DUP4 DUP4 PUSH2 0xE11 JUMP JUMPDEST POP POP POP DUP1 DUP1 PUSH1 0x1 ADD SWAP2 POP POP PUSH2 0x8C2 JUMP JUMPDEST POP PUSH2 0x929 DUP4 DUP4 PUSH2 0xE0A JUMP JUMPDEST POP POP POP POP POP POP JUMP JUMPDEST PUSH0 PUSH2 0x93A PUSH2 0xC27 JUMP JUMPDEST SWAP1 POP PUSH0 PUSH0 PUSH2 0x948 DUP4 CALLER PUSH2 0xD32 JUMP JUMPDEST SWAP2 POP SWAP2 POP PUSH0 PUSH2 0x959 DUP4 DUP4 DUP9 DUP9 PUSH2 0x1372 JUMP JUMPDEST SWAP1 POP DUP1 DUP3 EQ PUSH2 0x96D JUMPI PUSH2 0x96C DUP4 DUP3 PUSH2 0xE0A JUMP JUMPDEST JUMPDEST PUSH2 0x978 CALLER DUP8 DUP8 PUSH2 0xE11 JUMP JUMPDEST POP POP POP POP POP POP JUMP JUMPDEST PUSH0 DUP3 DUP3 SWAP1 POP SWAP1 POP PUSH0 PUSH0 SWAP1 POP JUMPDEST DUP2 DUP2 LT ISZERO PUSH2 0x9EC JUMPI PUSH2 0x9DF DUP6 PUSH2 0x9BD CALLER DUP8 DUP8 DUP7 DUP2 DUP2 LT PUSH2 0x9AF JUMPI PUSH2 0x9AE PUSH2 0x1EAD JUMP JUMPDEST JUMPDEST SWAP1 POP PUSH1 0x40 MUL ADD PUSH0 ADD CALLDATALOAD PUSH2 0xB5C JUMP JUMPDEST DUP7 DUP7 DUP6 DUP2 DUP2 LT PUSH2 0x9D0 JUMPI PUSH2 0x9CF PUSH2 0x1EAD JUMP JUMPDEST JUMPDEST SWAP1 POP PUSH1 0x40 MUL ADD PUSH1 0x20 ADD CALLDATALOAD PUSH2 0xB71 JUMP JUMPDEST DUP1 DUP1 PUSH1 0x1 ADD SWAP2 POP POP PUSH2 0x98C JUMP JUMPDEST POP POP POP POP POP JUMP JUMPDEST PUSH0 DUP5 PUSH20 0xFFFFFFFFFFFFFFFFFFFFFFFFFFFFFFFFFFFFFFFF AND CALLER PUSH20 0xFFFFFFFFFFFFFFFFFFFFFFFFFFFFFFFFFFFFFFFF AND EQ ISZERO DUP1 ISZERO PUSH2 0xAB1 JUMPI POP PUSH0 PUSH0 DUP7 PUSH20 0xFFFFFFFFFFFFFFFFFFFFFFFFFFFFFFFFFFFFFFFF AND PUSH20 0xFFFFFFFFFFFFFFFFFFFFFFFFFFFFFFFFFFFFFFFF AND DUP2 MSTORE PUSH1 0x20 ADD SWAP1 DUP2 MSTORE PUSH1 0x20 ADD PUSH0 KECCAK256 PUSH0 CALLER PUSH20 0xFFFFFFFFFFFFFFFFFFFFFFFFFFFFFFFFFFFFFFFF AND PUSH20 0xFFFFFFFFFFFFFFFFFFFFFFFFFFFFFFFFFFFFFFFF AND DUP2 MSTORE PUSH1 0x20 ADD SWAP1 DUP2 MSTORE PUSH1 0x20 ADD PUSH0 KECCAK256 PUSH0 SWAP1 SLOAD SWAP1 PUSH2 0x100 EXP SWAP1 DIV PUSH1 0xFF AND ISZERO JUMPDEST ISZERO PUSH2 0xAC2 JUMPI PUSH2 0xAC1 DUP6 DUP5 DUP5 PUSH2 0x141D JUMP JUMPDEST JUMPDEST PUSH2 0xACE DUP6 DUP6 DUP6 DUP6 PUSH2 0xADA JUMP JUMPDEST PUSH1 0x1 SWAP1 POP SWAP5 SWAP4 POP POP POP POP JUMP JUMPDEST PUSH2 0xAE5 DUP5 DUP4 DUP4 PUSH2 0xE11 JUMP JUMPDEST PUSH2 0xAF0 DUP4 DUP4 DUP4 PUSH2 0xB71 JUMP JUMPDEST DUP2 DUP4 PUSH20 0xFFFFFFFFFFFFFFFFFFFFFFFFFFFFFFFFFFFFFFFF AND DUP6 PUSH20 0xFFFFFFFFFFFFFFFFFFFFFFFFFFFFFFFFFFFFFFFF AND PUSH32 0x9ED053BB818FF08B8353CD46F78DB1F0799F31C9E4458FDB425C10ECCD2EFC44 DUP5 PUSH1 0x40 MLOAD PUSH2 0xB4E SWAP2 SWAP1 PUSH2 0x1A48 JUMP JUMPDEST PUSH1 0x40 MLOAD DUP1 SWAP2 SUB SWAP1 LOG4 POP POP POP POP JUMP JUMPDEST PUSH0 DUP3 PUSH0 MSTORE DUP2 PUSH1 0x20 MSTORE PUSH1 0x34 PUSH1 0xC KECCAK256 SWAP1 POP SWAP3 SWAP2 POP POP JUMP JUMPDEST DUP1 PUSH1 0x1 PUSH0 DUP6 PUSH20 0xFFFFFFFFFFFFFFFFFFFFFFFFFFFFFFFFFFFFFFFF AND PUSH20 0xFFFFFFFFFFFFFFFFFFFFFFFFFFFFFFFFFFFFFFFF AND DUP2 MSTORE PUSH1 0x20 ADD SWAP1 DUP2 MSTORE PUSH1 0x20 ADD PUSH0 KECCAK256 PUSH0 DUP5 DUP2 MSTORE PUSH1 0x20 ADD SWAP1 DUP2 MSTORE PUSH1 0x20 ADD PUSH0 KECCAK256 PUSH0 DUP3 DUP3 SLOAD PUSH2 0xBCC SWAP2 SWAP1 PUSH2 0x1F3A JUMP JUMPDEST SWAP3 POP POP DUP2 SWAP1 SSTORE POP DUP2 DUP4 PUSH20 0xFFFFFFFFFFFFFFFFFFFFFFFFFFFFFFFFFFFFFFFF AND PUSH32 0x4C209B5FC8AD50758F13E2E1088BA56A560DFF690A1C6FEF26394F4C03821C4F DUP4 PUSH1 0x40 MLOAD PUSH2 0xC1A SWAP2 SWAP1 PUSH2 0x1A48 JUMP JUMPDEST PUSH1 0x40 MLOAD DUP1 SWAP2 SUB SWAP1 LOG3 POP POP POP JUMP JUMPDEST PUSH0 PUSH0 PUSH0 PUSH0 TLOAD PUSH12 0xFFFFFFFFFFFFFFFFFFFFFFFF DUP2 AND SWAP2 POP DUP1 PUSH1 0x60 SHR SWAP3 POP POP PUSH0 DUP2 SUB PUSH2 0xC7D JUMPI PUSH1 0x40 MLOAD PUSH32 0x97013E4300000000000000000000000000000000000000000000000000000000 DUP2 MSTORE PUSH1 0x4 ADD PUSH1 0x40 MLOAD DUP1 SWAP2 SUB SWAP1 REVERT JUMPDEST PUSH1 0x1 DUP2 SUB PUSH0 MSTORE PUSH0 PUSH1 0x20 MSTORE PUSH1 0x2C PUSH1 0x14 KECCAK256 SWAP3 POP PUSH0 PUSH20 0xFFFFFFFFFFFFFFFFFFFFFFFFFFFFFFFFFFFFFFFF AND DUP3 PUSH20 0xFFFFFFFFFFFFFFFFFFFFFFFFFFFFFFFFFFFFFFFF AND EQ ISZERO DUP1 ISZERO PUSH2 0xCF6 JUMPI POP CALLER PUSH20 0xFFFFFFFFFFFFFFFFFFFFFFFFFFFFFFFFFFFFFFFF AND DUP3 PUSH20 0xFFFFFFFFFFFFFFFFFFFFFFFFFFFFFFFFFFFFFFFF AND EQ ISZERO JUMPDEST ISZERO PUSH2 0xD2D JUMPI PUSH1 0x40 MLOAD PUSH32 0x1230858900000000000000000000000000000000000000000000000000000000 DUP2 MSTORE PUSH1 0x4 ADD PUSH1 0x40 MLOAD DUP1 SWAP2 SUB SWAP1 REVERT JUMPDEST POP POP SWAP1 JUMP JUMPDEST PUSH0 PUSH0 PUSH2 0xD3E DUP5 DUP5 PUSH2 0x156D JUMP JUMPDEST SWAP2 POP DUP2 TLOAD SWAP1 POP DUP1 PUSH2 0xD58 JUMPI PUSH1 0x1 DUP5 TLOAD ADD DUP1 DUP6 TSTORE DUP4 DUP2 DUP7 ADD TSTORE POP JUMPDEST SWAP3 POP SWAP3 SWAP1 POP JUMP JUMPDEST PUSH0 DUP3 PUSH0 MSTORE DUP5 PUSH1 0x20 MSTORE PUSH1 0x40 PUSH0 KECCAK256 DUP1 TLOAD DUP1 PUSH1 0x1 SAR DUP5 DUP2 SUB PUSH1 0x2 DUP2 PUSH1 0xFE SHR EQ DUP2 DUP4 SLT OR PUSH1 0x1 DUP2 EQ PUSH2 0xD97 JUMPI PUSH1 0x1 DUP5 AND DUP3 PUSH1 0x1 SHL OR DUP6 TSTORE PUSH2 0xDE9 JUMP JUMPDEST PUSH1 0x1 DUP6 ADD PUSH32 0x4000000000000000000000000000000000000000000000000000000000000000 DUP4 ADD PUSH1 0xFF SHR PUSH1 0x2 SUB PUSH0 PUSH1 0x1 DUP8 AND ISZERO PUSH2 0xDD3 JUMPI DUP3 TLOAD SWAP1 POP JUMPDEST DUP2 DUP2 SUB SWAP1 POP DUP1 DUP4 TSTORE DUP1 ISZERO ISZERO DUP6 PUSH1 0x1 SHL OR DUP9 TSTORE POP POP POP JUMPDEST POP DUP3 PUSH2 0xDFB JUMPI PUSH1 0x1 DUP9 ADD SWAP8 POP DUP7 DUP9 DUP11 ADD TSTORE JUMPDEST POP POP POP POP DUP4 SWAP1 POP SWAP5 SWAP4 POP POP POP POP JUMP JUMPDEST DUP1 DUP3 TSTORE POP POP JUMP JUMPDEST DUP1 PUSH1 0x1 PUSH0 DUP6 PUSH20 0xFFFFFFFFFFFFFFFFFFFFFFFFFFFFFFFFFFFFFFFF AND PUSH20 0xFFFFFFFFFFFFFFFFFFFFFFFFFFFFFFFFFFFFFFFF AND DUP2 MSTORE PUSH1 0x20 ADD SWAP1 DUP2 MSTORE PUSH1 0x20 ADD PUSH0 KECCAK256 PUSH0 DUP5 DUP2 MSTORE PUSH1 0x20 ADD SWAP1 DUP2 MSTORE PUSH1 0x20 ADD PUSH0 KECCAK256 SLOAD LT ISZERO PUSH2 0xEA0 JUMPI PUSH1 0x40 MLOAD PUSH32 0x8C379A000000000000000000000000000000000000000000000000000000000 DUP2 MSTORE PUSH1 0x4 ADD PUSH2 0xE97 SWAP1 PUSH2 0x1FC7 JUMP JUMPDEST PUSH1 0x40 MLOAD DUP1 SWAP2 SUB SWAP1 REVERT JUMPDEST DUP1 PUSH1 0x1 PUSH0 DUP6 PUSH20 0xFFFFFFFFFFFFFFFFFFFFFFFFFFFFFFFFFFFFFFFF AND PUSH20 0xFFFFFFFFFFFFFFFFFFFFFFFFFFFFFFFFFFFFFFFF AND DUP2 MSTORE PUSH1 0x20 ADD SWAP1 DUP2 MSTORE PUSH1 0x20 ADD PUSH0 KECCAK256 PUSH0 DUP5 DUP2 MSTORE PUSH1 0x20 ADD SWAP1 DUP2 MSTORE PUSH1 0x20 ADD PUSH0 KECCAK256 PUSH0 DUP3 DUP3 SLOAD PUSH2 0xEFB SWAP2 SWAP1 PUSH2 0x1FE5 JUMP JUMPDEST SWAP3 POP POP DUP2 SWAP1 SSTORE POP DUP2 DUP4 PUSH20 0xFFFFFFFFFFFFFFFFFFFFFFFFFFFFFFFFFFFFFFFF AND PUSH32 0x49995E5DD6158CF69AD3E9777C46755A1A826A446C6416992167462DAD033B2A DUP4 PUSH1 0x40 MLOAD PUSH2 0xF49 SWAP2 SWAP1 PUSH2 0x1A48 JUMP JUMPDEST PUSH1 0x40 MLOAD DUP1 SWAP2 SUB SWAP1 LOG3 POP POP POP JUMP JUMPDEST PUSH0 DUP3 PUSH1 0x20 ADD PUSH1 0x20 DUP2 ADD SWAP1 PUSH2 0xF6A SWAP2 SWAP1 PUSH2 0x2018 JUMP JUMPDEST SWAP1 POP PUSH0 PUSH0 DUP5 PUSH0 ADD PUSH1 0x20 DUP2 ADD SWAP1 PUSH2 0xF80 SWAP2 SWAP1 PUSH2 0x2018 JUMP JUMPDEST SWAP1 POP PUSH0 PUSH20 0xFFFFFFFFFFFFFFFFFFFFFFFFFFFFFFFFFFFFFFFF AND DUP2 PUSH20 0xFFFFFFFFFFFFFFFFFFFFFFFFFFFFFFFFFFFFFFFF AND SUB PUSH2 0xFBD JUMPI CALLER SWAP1 POP PUSH2 0x1085 JUMP JUMPDEST CALLER PUSH20 0xFFFFFFFFFFFFFFFFFFFFFFFFFFFFFFFFFFFFFFFF AND DUP2 PUSH20 0xFFFFFFFFFFFFFFFFFFFFFFFFFFFFFFFFFFFFFFFF AND EQ ISZERO DUP1 ISZERO PUSH2 0x107A JUMPI POP PUSH0 PUSH0 DUP3 PUSH20 0xFFFFFFFFFFFFFFFFFFFFFFFFFFFFFFFFFFFFFFFF AND PUSH20 0xFFFFFFFFFFFFFFFFFFFFFFFFFFFFFFFFFFFFFFFF AND DUP2 MSTORE PUSH1 0x20 ADD SWAP1 DUP2 MSTORE PUSH1 0x20 ADD PUSH0 KECCAK256 PUSH0 CALLER PUSH20 0xFFFFFFFFFFFFFFFFFFFFFFFFFFFFFFFFFFFFFFFF AND PUSH20 0xFFFFFFFFFFFFFFFFFFFFFFFFFFFFFFFFFFFFFFFF AND DUP2 MSTORE PUSH1 0x20 ADD SWAP1 DUP2 MSTORE PUSH1 0x20 ADD PUSH0 KECCAK256 PUSH0 SWAP1 SLOAD SWAP1 PUSH2 0x100 EXP SWAP1 DIV PUSH1 0xFF AND ISZERO JUMPDEST ISZERO PUSH2 0x1084 JUMPI PUSH1 0x1 SWAP2 POP JUMPDEST JUMPDEST PUSH0 PUSH0 PUSH0 PUSH0 PUSH2 0x1092 DUP10 PUSH2 0x1582 JUMP JUMPDEST SWAP4 POP SWAP4 POP SWAP4 POP SWAP4 POP PUSH0 PUSH0 PUSH2 0x10A6 DUP11 DUP9 PUSH2 0xD32 JUMP JUMPDEST SWAP2 POP SWAP2 POP PUSH0 PUSH0 SWAP1 POP JUMPDEST DUP7 MLOAD DUP2 LT ISZERO PUSH2 0x1117 JUMPI PUSH2 0x1108 DUP4 DUP4 PUSH2 0x10E4 DUP14 DUP12 DUP7 DUP2 MLOAD DUP2 LT PUSH2 0x10D4 JUMPI PUSH2 0x10D3 PUSH2 0x1EAD JUMP JUMPDEST JUMPDEST PUSH1 0x20 MUL PUSH1 0x20 ADD ADD MLOAD PUSH0 ADD MLOAD PUSH2 0xB5C JUMP JUMPDEST DUP11 DUP6 DUP2 MLOAD DUP2 LT PUSH2 0x10F7 JUMPI PUSH2 0x10F6 PUSH2 0x1EAD JUMP JUMPDEST JUMPDEST PUSH1 0x20 MUL PUSH1 0x20 ADD ADD MLOAD PUSH1 0x20 ADD MLOAD PUSH2 0x1372 JUMP JUMPDEST SWAP2 POP DUP1 DUP1 PUSH1 0x1 ADD SWAP2 POP POP PUSH2 0x10AF JUMP JUMPDEST POP PUSH0 PUSH0 SWAP1 POP JUMPDEST DUP6 MLOAD DUP2 LT ISZERO PUSH2 0x11A1 JUMPI PUSH0 PUSH2 0x114E DUP12 DUP9 DUP5 DUP2 MLOAD DUP2 LT PUSH2 0x113E JUMPI PUSH2 0x113D PUSH2 0x1EAD JUMP JUMPDEST JUMPDEST PUSH1 0x20 MUL PUSH1 0x20 ADD ADD MLOAD PUSH0 ADD MLOAD PUSH2 0xB5C JUMP JUMPDEST SWAP1 POP PUSH0 DUP8 DUP4 DUP2 MLOAD DUP2 LT PUSH2 0x1164 JUMPI PUSH2 0x1163 PUSH2 0x1EAD JUMP JUMPDEST JUMPDEST PUSH1 0x20 MUL PUSH1 0x20 ADD ADD MLOAD PUSH1 0x20 ADD MLOAD SWAP1 POP DUP11 ISZERO PUSH2 0x1184 JUMPI PUSH2 0x1183 DUP11 DUP4 DUP4 PUSH2 0x141D JUMP JUMPDEST JUMPDEST PUSH2 0x1190 DUP6 DUP6 DUP5 DUP5 PUSH2 0xD5F JUMP JUMPDEST SWAP4 POP POP POP DUP1 DUP1 PUSH1 0x1 ADD SWAP2 POP POP PUSH2 0x111D JUMP JUMPDEST POP DUP7 PUSH20 0xFFFFFFFFFFFFFFFFFFFFFFFFFFFFFFFFFFFFFFFF AND DUP10 PUSH20 0xFFFFFFFFFFFFFFFFFFFFFFFFFFFFFFFFFFFFFFFF AND EQ ISZERO DUP1 ISZERO PUSH2 0x11EB JUMPI POP PUSH0 DUP5 MLOAD EQ ISZERO DUP1 PUSH2 0x11EA JUMPI POP PUSH0 DUP4 MLOAD EQ ISZERO JUMPDEST JUMPDEST ISZERO PUSH2 0x1319 JUMPI PUSH0 PUSH0 PUSH2 0x11FC DUP13 DUP13 PUSH2 0xD32 JUMP JUMPDEST SWAP2 POP SWAP2 POP PUSH0 PUSH0 SWAP1 POP JUMPDEST DUP7 MLOAD DUP2 LT ISZERO PUSH2 0x127C JUMPI PUSH0 DUP8 DUP3 DUP2 MLOAD DUP2 LT PUSH2 0x1222 JUMPI PUSH2 0x1221 PUSH2 0x1EAD JUMP JUMPDEST JUMPDEST PUSH1 0x20 MUL PUSH1 0x20 ADD ADD MLOAD PUSH0 ADD MLOAD SWAP1 POP PUSH0 DUP9 DUP4 DUP2 MLOAD DUP2 LT PUSH2 0x1243 JUMPI PUSH2 0x1242 PUSH2 0x1EAD JUMP JUMPDEST JUMPDEST PUSH1 0x20 MUL PUSH1 0x20 ADD ADD MLOAD PUSH1 0x20 ADD MLOAD SWAP1 POP PUSH2 0x125D DUP8 DUP8 DUP5 DUP5 PUSH2 0x1372 JUMP JUMPDEST SWAP6 POP PUSH2 0x126B DUP6 DUP6 DUP5 DUP5 PUSH2 0xD5F JUMP JUMPDEST SWAP4 POP POP POP DUP1 DUP1 PUSH1 0x1 ADD SWAP2 POP POP PUSH2 0x1205 JUMP JUMPDEST POP PUSH0 PUSH0 SWAP1 POP JUMPDEST DUP6 MLOAD DUP2 LT ISZERO PUSH2 0x130B JUMPI PUSH0 DUP7 DUP3 DUP2 MLOAD DUP2 LT PUSH2 0x129F JUMPI PUSH2 0x129E PUSH2 0x1EAD JUMP JUMPDEST JUMPDEST PUSH1 0x20 MUL PUSH1 0x20 ADD ADD MLOAD PUSH0 ADD MLOAD SWAP1 POP PUSH0 DUP8 DUP4 DUP2 MLOAD DUP2 LT PUSH2 0x12C0 JUMPI PUSH2 0x12BF PUSH2 0x1EAD JUMP JUMPDEST JUMPDEST PUSH1 0x20 MUL PUSH1 0x20 ADD ADD MLOAD PUSH1 0x20 ADD MLOAD SWAP1 POP DUP13 ISZERO PUSH2 0x12E0 JUMPI PUSH2 0x12DF DUP13 DUP4 DUP4 PUSH2 0x141D JUMP JUMPDEST JUMPDEST PUSH2 0x12EC DUP8 DUP8 DUP5 DUP5 PUSH2 0xD5F JUMP JUMPDEST SWAP6 POP PUSH2 0x12FA DUP6 DUP6 DUP5 DUP5 PUSH2 0x1372 JUMP JUMPDEST SWAP4 POP POP POP DUP1 DUP1 PUSH1 0x1 ADD SWAP2 POP POP PUSH2 0x1282 JUMP JUMPDEST POP PUSH2 0x1316 DUP3 DUP3 PUSH2 0xE0A JUMP JUMPDEST POP POP JUMPDEST PUSH2 0x1323 DUP3 DUP3 PUSH2 0xE0A JUMP JUMPDEST POP POP POP POP POP POP POP POP POP POP POP JUMP JUMPDEST PUSH0 PUSH0 PUSH0 TLOAD SWAP1 POP PUSH1 0x1 PUSH12 0xFFFFFFFFFFFFFFFFFFFFFFFF DUP3 AND ADD DUP4 PUSH1 0x60 SHL OR PUSH0 TSTORE DUP1 PUSH0 MSTORE PUSH0 PUSH1 0x20 MSTORE PUSH1 0x2C PUSH1 0x14 KECCAK256 SWAP2 POP SWAP2 POP SWAP2 JUMP JUMPDEST PUSH2 0x136B DUP2 PUSH2 0x1694 JUMP JUMPDEST DUP2 PUSH0 TSTORE POP POP JUMP JUMPDEST PUSH0 DUP3 PUSH0 MSTORE DUP5 PUSH1 0x20 MSTORE PUSH1 0x40 PUSH0 KECCAK256 DUP1 TLOAD DUP1 PUSH1 0x1 SAR DUP5 DUP2 ADD PUSH1 0x1 DUP2 PUSH1 0xFE SHR EQ DUP3 DUP3 SLT OR PUSH1 0x1 DUP2 EQ PUSH2 0x13AA JUMPI PUSH1 0x1 DUP5 AND DUP3 PUSH1 0x1 SHL OR DUP6 TSTORE PUSH2 0x13FC JUMP JUMPDEST PUSH1 0x1 DUP6 ADD PUSH32 0x4000000000000000000000000000000000000000000000000000000000000000 DUP4 ADD PUSH1 0xFF SHR PUSH1 0x2 SUB PUSH0 PUSH1 0x1 DUP8 AND ISZERO PUSH2 0x13E6 JUMPI DUP3 TLOAD SWAP1 POP JUMPDEST DUP2 DUP2 ADD SWAP1 POP DUP1 DUP4 TSTORE DUP1 ISZERO ISZERO DUP6 PUSH1 0x1 SHL OR DUP9 TSTORE POP POP POP JUMPDEST POP DUP3 PUSH2 0x140E JUMPI PUSH1 0x1 DUP9 ADD SWAP8 POP DUP7 DUP9 DUP11 ADD TSTORE JUMPDEST POP POP POP POP DUP4 SWAP1 POP SWAP5 SWAP4 POP POP POP POP JUMP JUMPDEST PUSH0 PUSH1 0x2 PUSH0 DUP6 PUSH20 0xFFFFFFFFFFFFFFFFFFFFFFFFFFFFFFFFFFFFFFFF AND PUSH20 0xFFFFFFFFFFFFFFFFFFFFFFFFFFFFFFFFFFFFFFFF AND DUP2 MSTORE PUSH1 0x20 ADD SWAP1 DUP2 MSTORE PUSH1 0x20 ADD PUSH0 KECCAK256 PUSH0 CALLER PUSH20 0xFFFFFFFFFFFFFFFFFFFFFFFFFFFFFFFFFFFFFFFF AND PUSH20 0xFFFFFFFFFFFFFFFFFFFFFFFFFFFFFFFFFFFFFFFF AND DUP2 MSTORE PUSH1 0x20 ADD SWAP1 DUP2 MSTORE PUSH1 0x20 ADD PUSH0 KECCAK256 PUSH0 DUP5 DUP2 MSTORE PUSH1 0x20 ADD SWAP1 DUP2 MSTORE PUSH1 0x20 ADD PUSH0 KECCAK256 SLOAD SWAP1 POP PUSH32 0xFFFFFFFFFFFFFFFFFFFFFFFFFFFFFFFFFFFFFFFFFFFFFFFFFFFFFFFFFFFFFFFF DUP2 EQ PUSH2 0x1567 JUMPI DUP2 DUP2 PUSH2 0x14DB SWAP2 SWAP1 PUSH2 0x1FE5 JUMP JUMPDEST PUSH1 0x2 PUSH0 DUP7 PUSH20 0xFFFFFFFFFFFFFFFFFFFFFFFFFFFFFFFFFFFFFFFF AND PUSH20 0xFFFFFFFFFFFFFFFFFFFFFFFFFFFFFFFFFFFFFFFF AND DUP2 MSTORE PUSH1 0x20 ADD SWAP1 DUP2 MSTORE PUSH1 0x20 ADD PUSH0 KECCAK256 PUSH0 CALLER PUSH20 0xFFFFFFFFFFFFFFFFFFFFFFFFFFFFFFFFFFFFFFFF AND PUSH20 0xFFFFFFFFFFFFFFFFFFFFFFFFFFFFFFFFFFFFFFFF AND DUP2 MSTORE PUSH1 0x20 ADD SWAP1 DUP2 MSTORE PUSH1 0x20 ADD PUSH0 KECCAK256 PUSH0 DUP6 DUP2 MSTORE PUSH1 0x20 ADD SWAP1 DUP2 MSTORE PUSH1 0x20 ADD PUSH0 KECCAK256 DUP2 SWAP1 SSTORE POP JUMPDEST POP POP POP POP JUMP JUMPDEST PUSH0 DUP2 PUSH0 MSTORE DUP3 PUSH1 0x20 MSTORE PUSH1 0x34 PUSH1 0xC KECCAK256 SWAP1 POP SWAP3 SWAP2 POP POP JUMP JUMPDEST PUSH1 0x60 DUP1 PUSH1 0x60 DUP1 DUP5 PUSH1 0x20 ADD PUSH1 0x20 DUP2 ADD SWAP1 PUSH2 0x159B SWAP2 SWAP1 PUSH2 0x2018 JUMP JUMPDEST PUSH20 0xFFFFFFFFFFFFFFFFFFFFFFFFFFFFFFFFFFFFFFFF AND PUSH4 0xA129568D DUP7 DUP1 PUSH1 0x40 ADD SWAP1 PUSH2 0x15C6 SWAP2 SWAP1 PUSH2 0x2043 JUMP JUMPDEST PUSH1 0x40 MLOAD DUP4 PUSH4 0xFFFFFFFF AND PUSH1 0xE0 SHL DUP2 MSTORE PUSH1 0x4 ADD PUSH2 0x15E3 SWAP3 SWAP2 SWAP1 PUSH2 0x20FF JUMP JUMPDEST PUSH0 PUSH1 0x40 MLOAD DUP1 DUP4 SUB DUP2 PUSH0 DUP8 GAS CALL ISZERO DUP1 ISZERO PUSH2 0x15FE JUMPI RETURNDATASIZE PUSH0 PUSH0 RETURNDATACOPY RETURNDATASIZE PUSH0 REVERT JUMPDEST POP POP POP POP PUSH1 0x40 MLOAD RETURNDATASIZE PUSH0 DUP3 RETURNDATACOPY RETURNDATASIZE PUSH1 0x1F NOT PUSH1 0x1F DUP3 ADD AND DUP3 ADD DUP1 PUSH1 0x40 MSTORE POP DUP2 ADD SWAP1 PUSH2 0x1626 SWAP2 SWAP1 PUSH2 0x22BE JUMP JUMPDEST DUP1 SWAP5 POP DUP2 SWAP6 POP DUP3 SWAP7 POP DUP4 SWAP8 POP POP POP POP POP PUSH0 PUSH0 SHL DUP6 PUSH1 0x60 ADD CALLDATALOAD EQ PUSH2 0x168D JUMPI PUSH0 PUSH2 0x164C PUSH2 0x16D4 JUMP JUMPDEST SWAP1 POP DUP1 DUP7 PUSH1 0x60 ADD CALLDATALOAD EQ PUSH2 0x168B JUMPI PUSH1 0x40 MLOAD PUSH32 0x6F0632BF00000000000000000000000000000000000000000000000000000000 DUP2 MSTORE PUSH1 0x4 ADD PUSH1 0x40 MLOAD DUP1 SWAP2 SUB SWAP1 REVERT JUMPDEST POP JUMPDEST SWAP2 SWAP4 POP SWAP2 SWAP4 JUMP JUMPDEST PUSH0 DUP2 TLOAD SWAP1 POP PUSH0 PUSH0 SWAP1 POP JUMPDEST DUP2 DUP2 LT ISZERO PUSH2 0x16CF JUMPI PUSH0 DUP2 PUSH1 0x1 ADD SWAP2 POP DUP2 DUP5 ADD TLOAD SWAP1 POP PUSH2 0x16C6 PUSH2 0x16C0 DUP6 DUP4 PUSH2 0x156D JUMP JUMPDEST DUP3 PUSH2 0x171F JUMP JUMPDEST PUSH0 DUP5 TSTORE POP PUSH2 0x169E JUMP JUMPDEST POP POP POP JUMP JUMPDEST PUSH0 PUSH1 0x40 MLOAD DUP1 PUSH1 0x80 PUSH0 DUP4 RETURNDATACOPY PUSH1 0x80 DUP3 ADD JUMPDEST DUP1 DUP4 LT ISZERO PUSH2 0x1713 JUMPI DUP3 MLOAD PUSH1 0x20 DUP2 DUP4 RETURNDATACOPY DUP2 MLOAD PUSH1 0x6 SHL PUSH1 0x20 DUP3 ADD SWAP2 POP DUP1 DUP3 DUP5 RETURNDATACOPY DUP1 DUP4 KECCAK256 DUP6 MSTORE POP POP PUSH1 0x20 DUP4 ADD SWAP3 POP PUSH2 0x16E3 JUMP JUMPDEST POP PUSH1 0x80 DUP2 KECCAK256 SWAP3 POP POP POP SWAP1 JUMP JUMPDEST PUSH0 PUSH2 0x1729 DUP4 PUSH2 0x1953 JUMP JUMPDEST SWAP1 POP PUSH0 PUSH0 SWAP1 POP JUMPDEST DUP2 DUP2 LT ISZERO PUSH2 0x194A JUMPI PUSH0 PUSH0 PUSH0 DUP4 PUSH1 0x1 ADD SWAP4 POP DUP4 DUP8 ADD TLOAD SWAP3 POP DUP3 PUSH0 MSTORE DUP7 PUSH1 0x20 MSTORE PUSH1 0x40 PUSH0 KECCAK256 SWAP1 POP DUP1 TLOAD SWAP2 POP PUSH0 DUP3 SUB PUSH2 0x1767 JUMPI POP POP POP PUSH2 0x1945 JUMP JUMPDEST PUSH0 PUSH1 0x1 DUP4 AND SWAP1 POP DUP3 PUSH1 0x1 SAR SWAP3 POP PUSH0 DUP3 TSTORE DUP1 ISZERO PUSH2 0x1919 JUMPI PUSH0 PUSH1 0x1 DUP4 ADD TLOAD SWAP1 POP PUSH32 0xFFFFFFFFFFFFFFFFFFFFFFFFFFFFFFFFFFFFFFFFFFFFFFFFFFFFFFFFFFFFFFFE DUP2 SUB PUSH2 0x17F8 JUMPI PUSH0 DUP5 SLT ISZERO PUSH2 0x17E6 JUMPI PUSH1 0x40 MLOAD PUSH32 0x778214EB00000000000000000000000000000000000000000000000000000000 DUP2 MSTORE PUSH1 0x4 ADD PUSH1 0x40 MLOAD DUP1 SWAP2 SUB SWAP1 REVERT JUMPDEST PUSH2 0x17F3 DUP9 DUP7 DUP7 PUSH0 SUB PUSH2 0xE11 JUMP JUMPDEST PUSH2 0x1913 JUMP JUMPDEST PUSH32 0xFFFFFFFFFFFFFFFFFFFFFFFFFFFFFFFFFFFFFFFFFFFFFFFFFFFFFFFFFFFFFFFF DUP2 SUB PUSH2 0x1853 JUMPI PUSH2 0x184E DUP9 DUP7 PUSH32 0x8000000000000000000000000000000000000000000000000000000000000000 DUP8 PUSH0 SUB ADD PUSH2 0xE11 JUMP JUMPDEST PUSH2 0x1912 JUMP JUMPDEST PUSH1 0x1 DUP2 SUB PUSH2 0x188D JUMPI PUSH2 0x1888 DUP9 DUP7 PUSH32 0x8000000000000000000000000000000000000000000000000000000000000000 DUP8 ADD PUSH2 0xB71 JUMP JUMPDEST PUSH2 0x1911 JUMP JUMPDEST PUSH1 0x2 DUP2 SUB PUSH2 0x18DE JUMPI PUSH0 DUP5 SLT PUSH2 0x18CE JUMPI PUSH1 0x40 MLOAD PUSH32 0x778214EB00000000000000000000000000000000000000000000000000000000 DUP2 MSTORE PUSH1 0x4 ADD PUSH1 0x40 MLOAD DUP1 SWAP2 SUB SWAP1 REVERT JUMPDEST PUSH2 0x18D9 DUP9 DUP7 DUP7 PUSH2 0xB71 JUMP JUMPDEST PUSH2 0x1910 JUMP JUMPDEST PUSH1 0x40 MLOAD PUSH32 0x778214EB00000000000000000000000000000000000000000000000000000000 DUP2 MSTORE PUSH1 0x4 ADD PUSH1 0x40 MLOAD DUP1 SWAP2 SUB SWAP1 REVERT JUMPDEST JUMPDEST JUMPDEST JUMPDEST POP PUSH2 0x1940 JUMP JUMPDEST PUSH0 DUP4 SLT ISZERO PUSH2 0x1933 JUMPI PUSH2 0x192E DUP8 DUP6 DUP6 PUSH0 SUB PUSH2 0xE11 JUMP JUMPDEST PUSH2 0x193F JUMP JUMPDEST PUSH2 0x193E DUP8 DUP6 DUP6 PUSH2 0xB71 JUMP JUMPDEST JUMPDEST JUMPDEST POP POP POP POP JUMPDEST PUSH2 0x1730 JUMP JUMPDEST POP PUSH0 DUP4 TSTORE POP POP POP JUMP JUMPDEST PUSH0 DUP2 TLOAD SWAP1 POP SWAP2 SWAP1 POP JUMP JUMPDEST PUSH0 PUSH1 0x40 MLOAD SWAP1 POP SWAP1 JUMP JUMPDEST PUSH0 PUSH0 REVERT JUMPDEST PUSH0 PUSH0 REVERT JUMPDEST PUSH0 PUSH20 0xFFFFFFFFFFFFFFFFFFFFFFFFFFFFFFFFFFFFFFFF DUP3 AND SWAP1 POP SWAP2 SWAP1 POP JUMP JUMPDEST PUSH0 PUSH2 0x1997 DUP3 PUSH2 0x196E JUMP JUMPDEST SWAP1 POP SWAP2 SWAP1 POP JUMP JUMPDEST PUSH2 0x19A7 DUP2 PUSH2 0x198D JUMP JUMPDEST DUP2 EQ PUSH2 0x19B1 JUMPI PUSH0 PUSH0 REVERT JUMPDEST POP JUMP JUMPDEST PUSH0 DUP2 CALLDATALOAD SWAP1 POP PUSH2 0x19C2 DUP2 PUSH2 0x199E JUMP JUMPDEST SWAP3 SWAP2 POP POP JUMP JUMPDEST PUSH0 DUP2 SWAP1 POP SWAP2 SWAP1 POP JUMP JUMPDEST PUSH2 0x19DA DUP2 PUSH2 0x19C8 JUMP JUMPDEST DUP2 EQ PUSH2 0x19E4 JUMPI PUSH0 PUSH0 REVERT JUMPDEST POP JUMP JUMPDEST PUSH0 DUP2 CALLDATALOAD SWAP1 POP PUSH2 0x19F5 DUP2 PUSH2 0x19D1 JUMP JUMPDEST SWAP3 SWAP2 POP POP JUMP JUMPDEST PUSH0 PUSH0 PUSH1 0x40 DUP4 DUP6 SUB SLT ISZERO PUSH2 0x1A11 JUMPI PUSH2 0x1A10 PUSH2 0x1966 JUMP JUMPDEST JUMPDEST PUSH0 PUSH2 0x1A1E DUP6 DUP3 DUP7 ADD PUSH2 0x19B4 JUMP JUMPDEST SWAP3 POP POP PUSH1 0x20 PUSH2 0x1A2F DUP6 DUP3 DUP7 ADD PUSH2 0x19E7 JUMP JUMPDEST SWAP2 POP POP SWAP3 POP SWAP3 SWAP1 POP JUMP JUMPDEST PUSH2 0x1A42 DUP2 PUSH2 0x19C8 JUMP JUMPDEST DUP3 MSTORE POP POP JUMP JUMPDEST PUSH0 PUSH1 0x20 DUP3 ADD SWAP1 POP PUSH2 0x1A5B PUSH0 DUP4 ADD DUP5 PUSH2 0x1A39 JUMP JUMPDEST SWAP3 SWAP2 POP POP JUMP JUMPDEST PUSH0 PUSH0 PUSH0 PUSH1 0x60 DUP5 DUP7 SUB SLT ISZERO PUSH2 0x1A78 JUMPI PUSH2 0x1A77 PUSH2 0x1966 JUMP JUMPDEST JUMPDEST PUSH0 PUSH2 0x1A85 DUP7 DUP3 DUP8 ADD PUSH2 0x19B4 JUMP JUMPDEST SWAP4 POP POP PUSH1 0x20 PUSH2 0x1A96 DUP7 DUP3 DUP8 ADD PUSH2 0x19E7 JUMP JUMPDEST SWAP3 POP POP PUSH1 0x40 PUSH2 0x1AA7 DUP7 DUP3 DUP8 ADD PUSH2 0x19E7 JUMP JUMPDEST SWAP2 POP POP SWAP3 POP SWAP3 POP SWAP3 JUMP JUMPDEST PUSH0 DUP2 ISZERO ISZERO SWAP1 POP SWAP2 SWAP1 POP JUMP JUMPDEST PUSH2 0x1AC5 DUP2 PUSH2 0x1AB1 JUMP JUMPDEST DUP3 MSTORE POP POP JUMP JUMPDEST PUSH0 PUSH1 0x20 DUP3 ADD SWAP1 POP PUSH2 0x1ADE PUSH0 DUP4 ADD DUP5 PUSH2 0x1ABC JUMP JUMPDEST SWAP3 SWAP2 POP POP JUMP JUMPDEST PUSH0 PUSH0 REVERT JUMPDEST PUSH0 PUSH0 REVERT JUMPDEST PUSH0 PUSH0 REVERT JUMPDEST PUSH0 PUSH0 DUP4 PUSH1 0x1F DUP5 ADD SLT PUSH2 0x1B05 JUMPI PUSH2 0x1B04 PUSH2 0x1AE4 JUMP JUMPDEST JUMPDEST DUP3 CALLDATALOAD SWAP1 POP PUSH8 0xFFFFFFFFFFFFFFFF DUP2 GT ISZERO PUSH2 0x1B22 JUMPI PUSH2 0x1B21 PUSH2 0x1AE8 JUMP JUMPDEST JUMPDEST PUSH1 0x20 DUP4 ADD SWAP2 POP DUP4 PUSH1 0x40 DUP3 MUL DUP4 ADD GT ISZERO PUSH2 0x1B3E JUMPI PUSH2 0x1B3D PUSH2 0x1AEC JUMP JUMPDEST JUMPDEST SWAP3 POP SWAP3 SWAP1 POP JUMP JUMPDEST PUSH0 PUSH0 PUSH1 0x20 DUP4 DUP6 SUB SLT ISZERO PUSH2 0x1B5B JUMPI PUSH2 0x1B5A PUSH2 0x1966 JUMP JUMPDEST JUMPDEST PUSH0 DUP4 ADD CALLDATALOAD PUSH8 0xFFFFFFFFFFFFFFFF DUP2 GT ISZERO PUSH2 0x1B78 JUMPI PUSH2 0x1B77 PUSH2 0x196A JUMP JUMPDEST JUMPDEST PUSH2 0x1B84 DUP6 DUP3 DUP7 ADD PUSH2 0x1AF0 JUMP JUMPDEST SWAP3 POP SWAP3 POP POP SWAP3 POP SWAP3 SWAP1 POP JUMP JUMPDEST PUSH0 PUSH0 DUP4 PUSH1 0x1F DUP5 ADD SLT PUSH2 0x1BA5 JUMPI PUSH2 0x1BA4 PUSH2 0x1AE4 JUMP JUMPDEST JUMPDEST DUP3 CALLDATALOAD SWAP1 POP PUSH8 0xFFFFFFFFFFFFFFFF DUP2 GT ISZERO PUSH2 0x1BC2 JUMPI PUSH2 0x1BC1 PUSH2 0x1AE8 JUMP JUMPDEST JUMPDEST PUSH1 0x20 DUP4 ADD SWAP2 POP DUP4 PUSH1 0x20 DUP3 MUL DUP4 ADD GT ISZERO PUSH2 0x1BDE JUMPI PUSH2 0x1BDD PUSH2 0x1AEC JUMP JUMPDEST JUMPDEST SWAP3 POP SWAP3 SWAP1 POP JUMP JUMPDEST PUSH0 PUSH0 PUSH1 0x20 DUP4 DUP6 SUB SLT ISZERO PUSH2 0x1BFB JUMPI PUSH2 0x1BFA PUSH2 0x1966 JUMP JUMPDEST JUMPDEST PUSH0 DUP4 ADD CALLDATALOAD PUSH8 0xFFFFFFFFFFFFFFFF DUP2 GT ISZERO PUSH2 0x1C18 JUMPI PUSH2 0x1C17 PUSH2 0x196A JUMP JUMPDEST JUMPDEST PUSH2 0x1C24 DUP6 DUP3 DUP7 ADD PUSH2 0x1B90 JUMP JUMPDEST SWAP3 POP SWAP3 POP POP SWAP3 POP SWAP3 SWAP1 POP JUMP JUMPDEST PUSH2 0x1C39 DUP2 PUSH2 0x1AB1 JUMP JUMPDEST DUP2 EQ PUSH2 0x1C43 JUMPI PUSH0 PUSH0 REVERT JUMPDEST POP JUMP JUMPDEST PUSH0 DUP2 CALLDATALOAD SWAP1 POP PUSH2 0x1C54 DUP2 PUSH2 0x1C30 JUMP JUMPDEST SWAP3 SWAP2 POP POP JUMP JUMPDEST PUSH0 PUSH0 PUSH1 0x40 DUP4 DUP6 SUB SLT ISZERO PUSH2 0x1C70 JUMPI PUSH2 0x1C6F PUSH2 0x1966 JUMP JUMPDEST JUMPDEST PUSH0 PUSH2 0x1C7D DUP6 DUP3 DUP7 ADD PUSH2 0x19B4 JUMP JUMPDEST SWAP3 POP POP PUSH1 0x20 PUSH2 0x1C8E DUP6 DUP3 DUP7 ADD PUSH2 0x1C46 JUMP JUMPDEST SWAP2 POP POP SWAP3 POP SWAP3 SWAP1 POP JUMP JUMPDEST PUSH0 PUSH0 PUSH0 PUSH1 0x60 DUP5 DUP7 SUB SLT ISZERO PUSH2 0x1CAF JUMPI PUSH2 0x1CAE PUSH2 0x1966 JUMP JUMPDEST JUMPDEST PUSH0 PUSH2 0x1CBC DUP7 DUP3 DUP8 ADD PUSH2 0x19B4 JUMP JUMPDEST SWAP4 POP POP PUSH1 0x20 PUSH2 0x1CCD DUP7 DUP3 DUP8 ADD PUSH2 0x19B4 JUMP JUMPDEST SWAP3 POP POP PUSH1 0x40 PUSH2 0x1CDE DUP7 DUP3 DUP8 ADD PUSH2 0x19E7 JUMP JUMPDEST SWAP2 POP POP SWAP3 POP SWAP3 POP SWAP3 JUMP JUMPDEST PUSH0 PUSH0 PUSH0 PUSH1 0x40 DUP5 DUP7 SUB SLT ISZERO PUSH2 0x1CFF JUMPI PUSH2 0x1CFE PUSH2 0x1966 JUMP JUMPDEST JUMPDEST PUSH0 PUSH2 0x1D0C DUP7 DUP3 DUP8 ADD PUSH2 0x19B4 JUMP JUMPDEST SWAP4 POP POP PUSH1 0x20 DUP5 ADD CALLDATALOAD PUSH8 0xFFFFFFFFFFFFFFFF DUP2 GT ISZERO PUSH2 0x1D2D JUMPI PUSH2 0x1D2C PUSH2 0x196A JUMP JUMPDEST JUMPDEST PUSH2 0x1D39 DUP7 DUP3 DUP8 ADD PUSH2 0x1B90 JUMP JUMPDEST SWAP3 POP SWAP3 POP POP SWAP3 POP SWAP3 POP SWAP3 JUMP JUMPDEST PUSH0 PUSH1 0x20 DUP3 DUP5 SUB SLT ISZERO PUSH2 0x1D5A JUMPI PUSH2 0x1D59 PUSH2 0x1966 JUMP JUMPDEST JUMPDEST PUSH0 PUSH2 0x1D67 DUP5 DUP3 DUP6 ADD PUSH2 0x19E7 JUMP JUMPDEST SWAP2 POP POP SWAP3 SWAP2 POP POP JUMP JUMPDEST PUSH0 PUSH0 PUSH1 0x40 DUP4 DUP6 SUB SLT ISZERO PUSH2 0x1D86 JUMPI PUSH2 0x1D85 PUSH2 0x1966 JUMP JUMPDEST JUMPDEST PUSH0 PUSH2 0x1D93 DUP6 DUP3 DUP7 ADD PUSH2 0x19E7 JUMP JUMPDEST SWAP3 POP POP PUSH1 0x20 PUSH2 0x1DA4 DUP6 DUP3 DUP7 ADD PUSH2 0x19E7 JUMP JUMPDEST SWAP2 POP POP SWAP3 POP SWAP3 SWAP1 POP JUMP JUMPDEST PUSH0 PUSH0 PUSH1 0x40 DUP4 DUP6 SUB SLT ISZERO PUSH2 0x1DC4 JUMPI PUSH2 0x1DC3 PUSH2 0x1966 JUMP JUMPDEST JUMPDEST PUSH0 PUSH2 0x1DD1 DUP6 DUP3 DUP7 ADD PUSH2 0x19B4 JUMP JUMPDEST SWAP3 POP POP PUSH1 0x20 PUSH2 0x1DE2 DUP6 DUP3 DUP7 ADD PUSH2 0x19B4 JUMP JUMPDEST SWAP2 POP POP SWAP3 POP SWAP3 SWAP1 POP JUMP JUMPDEST PUSH0 PUSH0 PUSH0 PUSH1 0x40 DUP5 DUP7 SUB SLT ISZERO PUSH2 0x1E03 JUMPI PUSH2 0x1E02 PUSH2 0x1966 JUMP JUMPDEST JUMPDEST PUSH0 PUSH2 0x1E10 DUP7 DUP3 DUP8 ADD PUSH2 0x19B4 JUMP JUMPDEST SWAP4 POP POP PUSH1 0x20 DUP5 ADD CALLDATALOAD PUSH8 0xFFFFFFFFFFFFFFFF DUP2 GT ISZERO PUSH2 0x1E31 JUMPI PUSH2 0x1E30 PUSH2 0x196A JUMP JUMPDEST JUMPDEST PUSH2 0x1E3D DUP7 DUP3 DUP8 ADD PUSH2 0x1AF0 JUMP JUMPDEST SWAP3 POP SWAP3 POP POP SWAP3 POP SWAP3 POP SWAP3 JUMP JUMPDEST PUSH0 PUSH0 PUSH0 PUSH0 PUSH1 0x80 DUP6 DUP8 SUB SLT ISZERO PUSH2 0x1E61 JUMPI PUSH2 0x1E60 PUSH2 0x1966 JUMP JUMPDEST JUMPDEST PUSH0 PUSH2 0x1E6E DUP8 DUP3 DUP9 ADD PUSH2 0x19B4 JUMP JUMPDEST SWAP5 POP POP PUSH1 0x20 PUSH2 0x1E7F DUP8 DUP3 DUP9 ADD PUSH2 0x19B4 JUMP JUMPDEST SWAP4 POP POP PUSH1 0x40 PUSH2 0x1E90 DUP8 DUP3 DUP9 ADD PUSH2 0x19E7 JUMP JUMPDEST SWAP3 POP POP PUSH1 0x60 PUSH2 0x1EA1 DUP8 DUP3 DUP9 ADD PUSH2 0x19E7 JUMP JUMPDEST SWAP2 POP POP SWAP3 SWAP6 SWAP2 SWAP5 POP SWAP3 POP JUMP JUMPDEST PUSH32 0x4E487B7100000000000000000000000000000000000000000000000000000000 PUSH0 MSTORE PUSH1 0x32 PUSH1 0x4 MSTORE PUSH1 0x24 PUSH0 REVERT JUMPDEST PUSH0 PUSH0 REVERT JUMPDEST PUSH0 PUSH0 REVERT JUMPDEST PUSH0 PUSH0 REVERT JUMPDEST PUSH0 DUP3 CALLDATALOAD PUSH1 0x1 PUSH1 0x80 SUB DUP4 CALLDATASIZE SUB SUB DUP2 SLT PUSH2 0x1F01 JUMPI PUSH2 0x1F00 PUSH2 0x1EDA JUMP JUMPDEST JUMPDEST DUP1 DUP4 ADD SWAP2 POP POP SWAP3 SWAP2 POP POP JUMP JUMPDEST PUSH32 0x4E487B7100000000000000000000000000000000000000000000000000000000 PUSH0 MSTORE PUSH1 0x11 PUSH1 0x4 MSTORE PUSH1 0x24 PUSH0 REVERT JUMPDEST PUSH0 PUSH2 0x1F44 DUP3 PUSH2 0x19C8 JUMP JUMPDEST SWAP2 POP PUSH2 0x1F4F DUP4 PUSH2 0x19C8 JUMP JUMPDEST SWAP3 POP DUP3 DUP3 ADD SWAP1 POP DUP1 DUP3 GT ISZERO PUSH2 0x1F67 JUMPI PUSH2 0x1F66 PUSH2 0x1F0D JUMP JUMPDEST JUMPDEST SWAP3 SWAP2 POP POP JUMP JUMPDEST PUSH0 DUP3 DUP3 MSTORE PUSH1 0x20 DUP3 ADD SWAP1 POP SWAP3 SWAP2 POP POP JUMP JUMPDEST PUSH32 0x496E73756666696369656E742062616C616E6365000000000000000000000000 PUSH0 DUP3 ADD MSTORE POP JUMP JUMPDEST PUSH0 PUSH2 0x1FB1 PUSH1 0x14 DUP4 PUSH2 0x1F6D JUMP JUMPDEST SWAP2 POP PUSH2 0x1FBC DUP3 PUSH2 0x1F7D JUMP JUMPDEST PUSH1 0x20 DUP3 ADD SWAP1 POP SWAP2 SWAP1 POP JUMP JUMPDEST PUSH0 PUSH1 0x20 DUP3 ADD SWAP1 POP DUP2 DUP2 SUB PUSH0 DUP4 ADD MSTORE PUSH2 0x1FDE DUP2 PUSH2 0x1FA5 JUMP JUMPDEST SWAP1 POP SWAP2 SWAP1 POP JUMP JUMPDEST PUSH0 PUSH2 0x1FEF DUP3 PUSH2 0x19C8 JUMP JUMPDEST SWAP2 POP PUSH2 0x1FFA DUP4 PUSH2 0x19C8 JUMP JUMPDEST SWAP3 POP DUP3 DUP3 SUB SWAP1 POP DUP2 DUP2 GT ISZERO PUSH2 0x2012 JUMPI PUSH2 0x2011 PUSH2 0x1F0D JUMP JUMPDEST JUMPDEST SWAP3 SWAP2 POP POP JUMP JUMPDEST PUSH0 PUSH1 0x20 DUP3 DUP5 SUB SLT ISZERO PUSH2 0x202D JUMPI PUSH2 0x202C PUSH2 0x1966 JUMP JUMPDEST JUMPDEST PUSH0 PUSH2 0x203A DUP5 DUP3 DUP6 ADD PUSH2 0x19B4 JUMP JUMPDEST SWAP2 POP POP SWAP3 SWAP2 POP POP JUMP JUMPDEST PUSH0 PUSH0 DUP4 CALLDATALOAD PUSH1 0x1 PUSH1 0x20 SUB DUP5 CALLDATASIZE SUB SUB DUP2 SLT PUSH2 0x205F JUMPI PUSH2 0x205E PUSH2 0x1EDA JUMP JUMPDEST JUMPDEST DUP1 DUP5 ADD SWAP3 POP DUP3 CALLDATALOAD SWAP2 POP PUSH8 0xFFFFFFFFFFFFFFFF DUP3 GT ISZERO PUSH2 0x2081 JUMPI PUSH2 0x2080 PUSH2 0x1EDE JUMP JUMPDEST JUMPDEST PUSH1 0x20 DUP4 ADD SWAP3 POP PUSH1 0x1 DUP3 MUL CALLDATASIZE SUB DUP4 SGT ISZERO PUSH2 0x209D JUMPI PUSH2 0x209C PUSH2 0x1EE2 JUMP JUMPDEST JUMPDEST POP SWAP3 POP SWAP3 SWAP1 POP JUMP JUMPDEST PUSH0 DUP3 DUP3 MSTORE PUSH1 0x20 DUP3 ADD SWAP1 POP SWAP3 SWAP2 POP POP JUMP JUMPDEST DUP3 DUP2 DUP4 CALLDATACOPY PUSH0 DUP4 DUP4 ADD MSTORE POP POP POP JUMP JUMPDEST PUSH0 PUSH1 0x1F NOT PUSH1 0x1F DUP4 ADD AND SWAP1 POP SWAP2 SWAP1 POP JUMP JUMPDEST PUSH0 PUSH2 0x20DE DUP4 DUP6 PUSH2 0x20A5 JUMP JUMPDEST SWAP4 POP PUSH2 0x20EB DUP4 DUP6 DUP5 PUSH2 0x20B5 JUMP JUMPDEST PUSH2 0x20F4 DUP4 PUSH2 0x20C3 JUMP JUMPDEST DUP5 ADD SWAP1 POP SWAP4 SWAP3 POP POP POP JUMP JUMPDEST PUSH0 PUSH1 0x20 DUP3 ADD SWAP1 POP DUP2 DUP2 SUB PUSH0 DUP4 ADD MSTORE PUSH2 0x2118 DUP2 DUP5 DUP7 PUSH2 0x20D3 JUMP JUMPDEST SWAP1 POP SWAP4 SWAP3 POP POP POP JUMP JUMPDEST PUSH32 0x4E487B7100000000000000000000000000000000000000000000000000000000 PUSH0 MSTORE PUSH1 0x41 PUSH1 0x4 MSTORE PUSH1 0x24 PUSH0 REVERT JUMPDEST PUSH2 0x2157 DUP3 PUSH2 0x20C3 JUMP JUMPDEST DUP2 ADD DUP2 DUP2 LT PUSH8 0xFFFFFFFFFFFFFFFF DUP3 GT OR ISZERO PUSH2 0x2176 JUMPI PUSH2 0x2175 PUSH2 0x2121 JUMP JUMPDEST JUMPDEST DUP1 PUSH1 0x40 MSTORE POP POP POP JUMP JUMPDEST PUSH0 PUSH2 0x2188 PUSH2 0x195D JUMP JUMPDEST SWAP1 POP PUSH2 0x2194 DUP3 DUP3 PUSH2 0x214E JUMP JUMPDEST SWAP2 SWAP1 POP JUMP JUMPDEST PUSH0 PUSH8 0xFFFFFFFFFFFFFFFF DUP3 GT ISZERO PUSH2 0x21B3 JUMPI PUSH2 0x21B2 PUSH2 0x2121 JUMP JUMPDEST JUMPDEST PUSH1 0x20 DUP3 MUL SWAP1 POP PUSH1 0x20 DUP2 ADD SWAP1 POP SWAP2 SWAP1 POP JUMP JUMPDEST PUSH0 PUSH0 REVERT JUMPDEST PUSH0 DUP2 MLOAD SWAP1 POP PUSH2 0x21D6 DUP2 PUSH2 0x19D1 JUMP JUMPDEST SWAP3 SWAP2 POP POP JUMP JUMPDEST PUSH0 PUSH1 0x40 DUP3 DUP5 SUB SLT ISZERO PUSH2 0x21F1 JUMPI PUSH2 0x21F0 PUSH2 0x21C4 JUMP JUMPDEST JUMPDEST PUSH2 0x21FB PUSH1 0x40 PUSH2 0x217F JUMP JUMPDEST SWAP1 POP PUSH0 PUSH2 0x220A DUP5 DUP3 DUP6 ADD PUSH2 0x21C8 JUMP JUMPDEST PUSH0 DUP4 ADD MSTORE POP PUSH1 0x20 PUSH2 0x221D DUP5 DUP3 DUP6 ADD PUSH2 0x21C8 JUMP JUMPDEST PUSH1 0x20 DUP4 ADD MSTORE POP SWAP3 SWAP2 POP POP JUMP JUMPDEST PUSH0 PUSH2 0x223B PUSH2 0x2236 DUP5 PUSH2 0x2199 JUMP JUMPDEST PUSH2 0x217F JUMP JUMPDEST SWAP1 POP DUP1 DUP4 DUP3 MSTORE PUSH1 0x20 DUP3 ADD SWAP1 POP PUSH1 0x40 DUP5 MUL DUP4 ADD DUP6 DUP2 GT ISZERO PUSH2 0x225E JUMPI PUSH2 0x225D PUSH2 0x1AEC JUMP JUMPDEST JUMPDEST DUP4 JUMPDEST DUP2 DUP2 LT ISZERO PUSH2 0x2287 JUMPI DUP1 PUSH2 0x2273 DUP9 DUP3 PUSH2 0x21DC JUMP JUMPDEST DUP5 MSTORE PUSH1 0x20 DUP5 ADD SWAP4 POP POP PUSH1 0x40 DUP2 ADD SWAP1 POP PUSH2 0x2260 JUMP JUMPDEST POP POP POP SWAP4 SWAP3 POP POP POP JUMP JUMPDEST PUSH0 DUP3 PUSH1 0x1F DUP4 ADD SLT PUSH2 0x22A5 JUMPI PUSH2 0x22A4 PUSH2 0x1AE4 JUMP JUMPDEST JUMPDEST DUP2 MLOAD PUSH2 0x22B5 DUP5 DUP3 PUSH1 0x20 DUP7 ADD PUSH2 0x2229 JUMP JUMPDEST SWAP2 POP POP SWAP3 SWAP2 POP POP JUMP JUMPDEST PUSH0 PUSH0 PUSH0 PUSH0 PUSH1 0x80 DUP6 DUP8 SUB SLT ISZERO PUSH2 0x22D6 JUMPI PUSH2 0x22D5 PUSH2 0x1966 JUMP JUMPDEST JUMPDEST PUSH0 DUP6 ADD MLOAD PUSH8 0xFFFFFFFFFFFFFFFF DUP2 GT ISZERO PUSH2 0x22F3 JUMPI PUSH2 0x22F2 PUSH2 0x196A JUMP JUMPDEST JUMPDEST PUSH2 0x22FF DUP8 DUP3 DUP9 ADD PUSH2 0x2291 JUMP JUMPDEST SWAP5 POP POP PUSH1 0x20 DUP6 ADD MLOAD PUSH8 0xFFFFFFFFFFFFFFFF DUP2 GT ISZERO PUSH2 0x2320 JUMPI PUSH2 0x231F PUSH2 0x196A JUMP JUMPDEST JUMPDEST PUSH2 0x232C DUP8 DUP3 DUP9 ADD PUSH2 0x2291 JUMP JUMPDEST SWAP4 POP POP PUSH1 0x40 DUP6 ADD MLOAD PUSH8 0xFFFFFFFFFFFFFFFF DUP2 GT ISZERO PUSH2 0x234D JUMPI PUSH2 0x234C PUSH2 0x196A JUMP JUMPDEST JUMPDEST PUSH2 0x2359 DUP8 DUP3 DUP9 ADD PUSH2 0x2291 JUMP JUMPDEST SWAP3 POP POP PUSH1 0x60 DUP6 ADD MLOAD PUSH8 0xFFFFFFFFFFFFFFFF DUP2 GT ISZERO PUSH2 0x237A JUMPI PUSH2 0x2379 PUSH2 0x196A JUMP JUMPDEST JUMPDEST PUSH2 0x2386 DUP8 DUP3 DUP9 ADD PUSH2 0x2291 JUMP JUMPDEST SWAP2 POP POP SWAP3 SWAP6 SWAP2 SWAP5 POP SWAP3 POP JUMP INVALID LOG2 PUSH5 0x6970667358 0x22 SLT KECCAK256 0xD 0xB2 POP 0xE3 PUSH8 0xDFD4951C14740CE3 BYTE PUSH28 0xC949D4C52091A02E0F3D0F70A26CA5A97564736F6C634300081C0033 "
				},
				"gasEstimates": {
					"creation": {
						"codeDepositCost": "1832000",
						"executionCost": "1931",
						"totalCost": "1833931"
					},
					"external": {
						"allowance(address,address,uint256)": "infinite",
						"approve(address,uint256,uint256)": "infinite",
						"balanceOf(address,uint256)": "infinite",
						"burn((uint256,uint256)[])": "infinite",
						"burn(uint256,uint256)": "infinite",
						"cook((address,address,bytes,bytes32)[])": "infinite",
						"cook(address,(address,address,bytes,bytes32)[])": "infinite",
						"credit((uint256,uint256)[])": "infinite",
						"credit(uint256,uint256)": "infinite",
						"debit((uint256,uint256)[])": "infinite",
						"debit(uint256,uint256)": "infinite",
						"exttload(uint256)": "infinite",
						"isOperator(address,address)": "infinite",
						"mint(address,(uint256,uint256)[])": "infinite",
						"mint(address,uint256,uint256)": "infinite",
						"setOperator(address,bool)": "infinite",
						"transfer(address,uint256,uint256)": "infinite",
						"transferFrom(address,address,uint256,uint256)": "infinite"
					},
					"internal": {
						"_burn(address,uint256,uint256)": "infinite",
						"_decreaseApproval(address,uint256,uint256)": "infinite",
						"_executeAction(struct BlueprintCall calldata)": "infinite",
						"_flashCook(struct BlueprintCall calldata,FlashSession)": "infinite",
						"_mint(address,uint256,uint256)": "infinite",
						"_transferFrom(address,address,uint256,uint256)": "infinite"
					}
				},
				"methodIdentifiers": {
					"allowance(address,address,uint256)": "598af9e7",
					"approve(address,uint256,uint256)": "426a8493",
					"balanceOf(address,uint256)": "00fdd58e",
					"burn((uint256,uint256)[])": "36223ac2",
					"burn(uint256,uint256)": "b390c0ab",
					"cook((address,address,bytes,bytes32)[])": "52d2accf",
					"cook(address,(address,address,bytes,bytes32)[])": "62ba62e5",
					"credit((uint256,uint256)[])": "355f580e",
					"credit(uint256,uint256)": "ab7ccc1c",
					"debit((uint256,uint256)[])": "e3033041",
					"debit(uint256,uint256)": "e747f31c",
					"exttload(uint256)": "a42bff86",
					"isOperator(address,address)": "b6363cf2",
					"mint(address,(uint256,uint256)[])": "f3178dd1",
					"mint(address,uint256,uint256)": "156e29f6",
					"setOperator(address,bool)": "558a7297",
					"transfer(address,uint256,uint256)": "095bcdb6",
					"transferFrom(address,address,uint256,uint256)": "fe99049a"
				}
			},
			"storageLayout": {
				"storage": [
					{
						"astId": 30,
						"contract": "src/BlueprintManager.sol:BlueprintManager",
						"label": "isOperator",
						"offset": 0,
						"slot": "0",
						"type": "t_mapping(t_address,t_mapping(t_address,t_bool))"
					},
					{
						"astId": 37,
						"contract": "src/BlueprintManager.sol:BlueprintManager",
						"label": "balanceOf",
						"offset": 0,
						"slot": "1",
						"type": "t_mapping(t_address,t_mapping(t_uint256,t_uint256))"
					},
					{
						"astId": 46,
						"contract": "src/BlueprintManager.sol:BlueprintManager",
						"label": "allowance",
						"offset": 0,
						"slot": "2",
						"type": "t_mapping(t_address,t_mapping(t_address,t_mapping(t_uint256,t_uint256)))"
					}
				],
				"types": {
					"t_address": {
						"encoding": "inplace",
						"label": "address",
						"numberOfBytes": "20"
					},
					"t_bool": {
						"encoding": "inplace",
						"label": "bool",
						"numberOfBytes": "1"
					},
					"t_mapping(t_address,t_bool)": {
						"encoding": "mapping",
						"key": "t_address",
						"label": "mapping(address => bool)",
						"numberOfBytes": "32",
						"value": "t_bool"
					},
					"t_mapping(t_address,t_mapping(t_address,t_bool))": {
						"encoding": "mapping",
						"key": "t_address",
						"label": "mapping(address => mapping(address => bool))",
						"numberOfBytes": "32",
						"value": "t_mapping(t_address,t_bool)"
					},
					"t_mapping(t_address,t_mapping(t_address,t_mapping(t_uint256,t_uint256)))": {
						"encoding": "mapping",
						"key": "t_address",
						"label": "mapping(address => mapping(address => mapping(uint256 => uint256)))",
						"numberOfBytes": "32",
						"value": "t_mapping(t_address,t_mapping(t_uint256,t_uint256))"
					},
					"t_mapping(t_address,t_mapping(t_uint256,t_uint256))": {
						"encoding": "mapping",
						"key": "t_address",
						"label": "mapping(address => mapping(uint256 => uint256))",
						"numberOfBytes": "32",
						"value": "t_mapping(t_uint256,t_uint256)"
					},
					"t_mapping(t_uint256,t_uint256)": {
						"encoding": "mapping",
						"key": "t_uint256",
						"label": "mapping(uint256 => uint256)",
						"numberOfBytes": "32",
						"value": "t_uint256"
					},
					"t_uint256": {
						"encoding": "inplace",
						"label": "uint256",
						"numberOfBytes": "32"
					}
				}
			},
			"userdoc": {
				"events": {
					"Approval(address,address,uint256,uint256)": {
						"notice": "Emitted when approval is given"
					},
					"Burn(address,uint256,uint256)": {
						"notice": "Emitted when tokens are burned"
					},
					"Mint(address,uint256,uint256)": {
						"notice": "Emitted when tokens are minted\t"
					},
					"OperatorSet(address,address,bool)": {
						"notice": "Emitted when an operator is set"
					},
					"Transfer(address,address,uint256,uint256)": {
						"notice": "Emitted when tokens are transferred"
					}
				},
				"kind": "user",
				"methods": {
					"allowance(address,address,uint256)": {
						"notice": "eip-6909 allowance mapping"
					},
					"balanceOf(address,uint256)": {
						"notice": "eip-6909 balance mapping"
					},
					"cook(address,(address,address,bytes,bytes32)[])": {
						"notice": "executes a series of calls to Blueprints"
					},
					"isOperator(address,address)": {
						"notice": "eip-6909 operator mapping"
					},
					"mint(address,(uint256,uint256)[])": {
						"notice": "mints many types of tokens according to the `ops` array"
					},
					"mint(address,uint256,uint256)": {
						"notice": "mints single type tokens according to the TokenOp"
					},
					"transfer(address,uint256,uint256)": {
						"notice": "transfers `amount` of token `id` to `receiver`"
					}
				},
				"version": 1
			}
		}
	}
}