{
	"src/blueprints/vesting/schedules/LinearCliffVestingSchedule.sol": {
		"LinearCliffVestingSchedule": {
			"abi": [
				{
					"inputs": [
						{
							"internalType": "uint256",
							"name": "amount",
							"type": "uint256"
						},
						{
							"internalType": "bytes",
							"name": "scheduleArgs",
							"type": "bytes"
						}
					],
					"name": "getVestedTokens",
					"outputs": [
						{
							"internalType": "uint256",
							"name": "unlocked",
							"type": "uint256"
						}
					],
					"stateMutability": "view",
					"type": "function"
				}
			],
			"devdoc": {
				"kind": "dev",
				"methods": {},
				"version": 1
			},
			"evm": {
				"assembly": "    /* \"src/blueprints/vesting/schedules/LinearCliffVestingSchedule.sol\":122:1803  contract LinearCliffVestingSchedule is IVestingSchedule {... */\n  mstore(0x40, 0x80)\n  callvalue\n  dup1\n  iszero\n  tag_1\n  jumpi\n  revert(0x00, 0x00)\ntag_1:\n  pop\n  dataSize(sub_0)\n  dup1\n  dataOffset(sub_0)\n  0x00\n  codecopy\n  0x00\n  return\nstop\n\nsub_0: assembly {\n        /* \"src/blueprints/vesting/schedules/LinearCliffVestingSchedule.sol\":122:1803  contract LinearCliffVestingSchedule is IVestingSchedule {... */\n      mstore(0x40, 0x80)\n      callvalue\n      dup1\n      iszero\n      tag_1\n      jumpi\n      revert(0x00, 0x00)\n    tag_1:\n      pop\n      jumpi(tag_2, lt(calldatasize, 0x04))\n      shr(0xe0, calldataload(0x00))\n      dup1\n      0x4f2a01e8\n      eq\n      tag_3\n      jumpi\n    tag_2:\n      revert(0x00, 0x00)\n        /* \"src/blueprints/vesting/schedules/LinearCliffVestingSchedule.sol\":184:1801  function getVestedTokens(uint256 amount, bytes calldata scheduleArgs) external view returns (uint256 unlocked) {... */\n    tag_3:\n      tag_4\n      0x04\n      dup1\n      calldatasize\n      sub\n      dup2\n      add\n      swap1\n      tag_5\n      swap2\n      swap1\n      tag_6\n      jump\t// in\n    tag_5:\n      tag_7\n      jump\t// in\n    tag_4:\n      mload(0x40)\n      tag_8\n      swap2\n      swap1\n      tag_9\n      jump\t// in\n    tag_8:\n      mload(0x40)\n      dup1\n      swap2\n      sub\n      swap1\n      return\n    tag_7:\n        /* \"src/blueprints/vesting/schedules/LinearCliffVestingSchedule.sol\":277:293  uint256 unlocked */\n      0x00\n        /* \"src/blueprints/vesting/schedules/LinearCliffVestingSchedule.sol\":306:326  uint256 startVesting */\n      0x00\n        /* \"src/blueprints/vesting/schedules/LinearCliffVestingSchedule.sol\":328:346  uint256 endVesting */\n      0x00\n        /* \"src/blueprints/vesting/schedules/LinearCliffVestingSchedule.sol\":348:361  uint256 cliff */\n      0x00\n        /* \"src/blueprints/vesting/schedules/LinearCliffVestingSchedule.sol\":388:400  scheduleArgs */\n      dup6\n      dup6\n        /* \"src/blueprints/vesting/schedules/LinearCliffVestingSchedule.sol\":377:430  abi.decode(scheduleArgs, (uint256, uint256, uint256)) */\n      dup2\n      add\n      swap1\n      tag_11\n      swap2\n      swap1\n      tag_12\n      jump\t// in\n    tag_11:\n        /* \"src/blueprints/vesting/schedules/LinearCliffVestingSchedule.sol\":305:430  (uint256 startVesting, uint256 endVesting, uint256 cliff) =... */\n      swap3\n      pop\n      swap3\n      pop\n      swap3\n      pop\n        /* \"src/blueprints/vesting/schedules/LinearCliffVestingSchedule.sol\":441:460  uint256 currentTime */\n      0x00\n        /* \"src/blueprints/vesting/schedules/LinearCliffVestingSchedule.sol\":463:478  block.timestamp */\n      timestamp\n        /* \"src/blueprints/vesting/schedules/LinearCliffVestingSchedule.sol\":441:478  uint256 currentTime = block.timestamp */\n      swap1\n      pop\n        /* \"src/blueprints/vesting/schedules/LinearCliffVestingSchedule.sol\":565:569  0x40 */\n      0x40\n        /* \"src/blueprints/vesting/schedules/LinearCliffVestingSchedule.sol\":559:570  mload(0x40) */\n      mload\n        /* \"src/blueprints/vesting/schedules/LinearCliffVestingSchedule.sol\":630:640  endVesting */\n      dup4\n        /* \"src/blueprints/vesting/schedules/LinearCliffVestingSchedule.sol\":623:628  cliff */\n      dup4\n        /* \"src/blueprints/vesting/schedules/LinearCliffVestingSchedule.sol\":620:641  gt(cliff, endVesting) */\n      gt\n        /* \"src/blueprints/vesting/schedules/LinearCliffVestingSchedule.sol\":607:617  endVesting */\n      dup5\n        /* \"src/blueprints/vesting/schedules/LinearCliffVestingSchedule.sol\":593:605  startVesting */\n      dup7\n        /* \"src/blueprints/vesting/schedules/LinearCliffVestingSchedule.sol\":590:618  gt(startVesting, endVesting) */\n      gt\n        /* \"src/blueprints/vesting/schedules/LinearCliffVestingSchedule.sol\":587:642  or(gt(startVesting, endVesting), gt(cliff, endVesting)) */\n      or\n        /* \"src/blueprints/vesting/schedules/LinearCliffVestingSchedule.sol\":584:856  if or(gt(startVesting, endVesting), gt(cliff, endVesting)) {... */\n      iszero\n      tag_13\n      jumpi\n        /* \"src/blueprints/vesting/schedules/LinearCliffVestingSchedule.sol\":720:726  amount */\n      dup9\n        /* \"src/blueprints/vesting/schedules/LinearCliffVestingSchedule.sol\":708:718  freeMemPtr */\n      dup2\n        /* \"src/blueprints/vesting/schedules/LinearCliffVestingSchedule.sol\":701:727  mstore(freeMemPtr, amount) */\n      mstore\n        /* \"src/blueprints/vesting/schedules/LinearCliffVestingSchedule.sol\":795:799  0x20 */\n      0x20\n        /* \"src/blueprints/vesting/schedules/LinearCliffVestingSchedule.sol\":784:794  freeMemPtr */\n      dup2\n        /* \"src/blueprints/vesting/schedules/LinearCliffVestingSchedule.sol\":780:800  add(freeMemPtr,0x20) */\n      add\n        /* \"src/blueprints/vesting/schedules/LinearCliffVestingSchedule.sol\":775:779  0x40 */\n      0x40\n        /* \"src/blueprints/vesting/schedules/LinearCliffVestingSchedule.sol\":768:801  mstore(0x40,add(freeMemPtr,0x20)) */\n      mstore\n        /* \"src/blueprints/vesting/schedules/LinearCliffVestingSchedule.sol\":837:841  0x20 */\n      0x20\n        /* \"src/blueprints/vesting/schedules/LinearCliffVestingSchedule.sol\":825:835  freeMemPtr */\n      dup2\n        /* \"src/blueprints/vesting/schedules/LinearCliffVestingSchedule.sol\":818:842  return(freeMemPtr, 0x20) */\n      return\n        /* \"src/blueprints/vesting/schedules/LinearCliffVestingSchedule.sol\":584:856  if or(gt(startVesting, endVesting), gt(cliff, endVesting)) {... */\n    tag_13:\n        /* \"src/blueprints/vesting/schedules/LinearCliffVestingSchedule.sol\":889:894  cliff */\n      dup3\n        /* \"src/blueprints/vesting/schedules/LinearCliffVestingSchedule.sol\":876:887  currentTime */\n      dup3\n        /* \"src/blueprints/vesting/schedules/LinearCliffVestingSchedule.sol\":873:895  lt(currentTime, cliff) */\n      lt\n        /* \"src/blueprints/vesting/schedules/LinearCliffVestingSchedule.sol\":870:1029  if lt(currentTime, cliff) {... */\n      iszero\n      tag_14\n      jumpi\n        /* \"src/blueprints/vesting/schedules/LinearCliffVestingSchedule.sol\":933:934  0 */\n      0x00\n        /* \"src/blueprints/vesting/schedules/LinearCliffVestingSchedule.sol\":921:931  freeMemPtr */\n      dup2\n        /* \"src/blueprints/vesting/schedules/LinearCliffVestingSchedule.sol\":914:935  mstore(freeMemPtr, 0) */\n      mstore\n        /* \"src/blueprints/vesting/schedules/LinearCliffVestingSchedule.sol\":968:972  0x20 */\n      0x20\n        /* \"src/blueprints/vesting/schedules/LinearCliffVestingSchedule.sol\":957:967  freeMemPtr */\n      dup2\n        /* \"src/blueprints/vesting/schedules/LinearCliffVestingSchedule.sol\":953:973  add(freeMemPtr,0x20) */\n      add\n        /* \"src/blueprints/vesting/schedules/LinearCliffVestingSchedule.sol\":947:951  0x40 */\n      0x40\n        /* \"src/blueprints/vesting/schedules/LinearCliffVestingSchedule.sol\":940:974  mstore(0x40, add(freeMemPtr,0x20)) */\n      mstore\n        /* \"src/blueprints/vesting/schedules/LinearCliffVestingSchedule.sol\":1010:1014  0x20 */\n      0x20\n        /* \"src/blueprints/vesting/schedules/LinearCliffVestingSchedule.sol\":998:1008  freeMemPtr */\n      dup2\n        /* \"src/blueprints/vesting/schedules/LinearCliffVestingSchedule.sol\":991:1015  return(freeMemPtr, 0x20) */\n      return\n        /* \"src/blueprints/vesting/schedules/LinearCliffVestingSchedule.sol\":870:1029  if lt(currentTime, cliff) {... */\n    tag_14:\n        /* \"src/blueprints/vesting/schedules/LinearCliffVestingSchedule.sol\":1062:1072  endVesting */\n      dup4\n        /* \"src/blueprints/vesting/schedules/LinearCliffVestingSchedule.sol\":1049:1060  currentTime */\n      dup3\n        /* \"src/blueprints/vesting/schedules/LinearCliffVestingSchedule.sol\":1046:1073  gt(currentTime, endVesting) */\n      gt\n        /* \"src/blueprints/vesting/schedules/LinearCliffVestingSchedule.sol\":1043:1211  if gt(currentTime, endVesting) {... */\n      iszero\n      tag_15\n      jumpi\n        /* \"src/blueprints/vesting/schedules/LinearCliffVestingSchedule.sol\":1111:1117  amount */\n      dup9\n        /* \"src/blueprints/vesting/schedules/LinearCliffVestingSchedule.sol\":1099:1109  freeMemPtr */\n      dup2\n        /* \"src/blueprints/vesting/schedules/LinearCliffVestingSchedule.sol\":1092:1118  mstore(freeMemPtr, amount) */\n      mstore\n        /* \"src/blueprints/vesting/schedules/LinearCliffVestingSchedule.sol\":1150:1154  0x20 */\n      0x20\n        /* \"src/blueprints/vesting/schedules/LinearCliffVestingSchedule.sol\":1139:1149  freeMemPtr */\n      dup2\n        /* \"src/blueprints/vesting/schedules/LinearCliffVestingSchedule.sol\":1135:1155  add(freeMemPtr,0x20) */\n      add\n        /* \"src/blueprints/vesting/schedules/LinearCliffVestingSchedule.sol\":1130:1134  0x40 */\n      0x40\n        /* \"src/blueprints/vesting/schedules/LinearCliffVestingSchedule.sol\":1123:1156  mstore(0x40,add(freeMemPtr,0x20)) */\n      mstore\n        /* \"src/blueprints/vesting/schedules/LinearCliffVestingSchedule.sol\":1192:1196  0x20 */\n      0x20\n        /* \"src/blueprints/vesting/schedules/LinearCliffVestingSchedule.sol\":1180:1190  freeMemPtr */\n      dup2\n        /* \"src/blueprints/vesting/schedules/LinearCliffVestingSchedule.sol\":1173:1197  return(freeMemPtr, 0x20) */\n      return\n        /* \"src/blueprints/vesting/schedules/LinearCliffVestingSchedule.sol\":1043:1211  if gt(currentTime, endVesting) {... */\n    tag_15:\n        /* \"src/blueprints/vesting/schedules/LinearCliffVestingSchedule.sol\":1244:1256  startVesting */\n      dup5\n        /* \"src/blueprints/vesting/schedules/LinearCliffVestingSchedule.sol\":1231:1242  currentTime */\n      dup3\n        /* \"src/blueprints/vesting/schedules/LinearCliffVestingSchedule.sol\":1228:1257  gt(currentTime, startVesting) */\n      gt\n        /* \"src/blueprints/vesting/schedules/LinearCliffVestingSchedule.sol\":1225:1658  if gt(currentTime, startVesting) {... */\n      iszero\n      tag_16\n      jumpi\n        /* \"src/blueprints/vesting/schedules/LinearCliffVestingSchedule.sol\":1312:1324  startVesting */\n      dup5\n        /* \"src/blueprints/vesting/schedules/LinearCliffVestingSchedule.sol\":1299:1310  currentTime */\n      dup3\n        /* \"src/blueprints/vesting/schedules/LinearCliffVestingSchedule.sol\":1295:1325  sub(currentTime, startVesting) */\n      sub\n        /* \"src/blueprints/vesting/schedules/LinearCliffVestingSchedule.sol\":1381:1393  startVesting */\n      dup6\n        /* \"src/blueprints/vesting/schedules/LinearCliffVestingSchedule.sol\":1369:1379  endVesting */\n      dup6\n        /* \"src/blueprints/vesting/schedules/LinearCliffVestingSchedule.sol\":1365:1394  sub(endVesting, startVesting) */\n      sub\n        /* \"src/blueprints/vesting/schedules/LinearCliffVestingSchedule.sol\":1438:1449  timeElapsed */\n      dup2\n        /* \"src/blueprints/vesting/schedules/LinearCliffVestingSchedule.sol\":1430:1436  amount */\n      dup12\n        /* \"src/blueprints/vesting/schedules/LinearCliffVestingSchedule.sol\":1426:1450  mul(amount, timeElapsed) */\n      mul\n        /* \"src/blueprints/vesting/schedules/LinearCliffVestingSchedule.sol\":1497:1512  vestingDuration */\n      dup2\n        /* \"src/blueprints/vesting/schedules/LinearCliffVestingSchedule.sol\":1488:1495  result1 */\n      dup2\n        /* \"src/blueprints/vesting/schedules/LinearCliffVestingSchedule.sol\":1484:1513  div(result1, vestingDuration) */\n      div\n        /* \"src/blueprints/vesting/schedules/LinearCliffVestingSchedule.sol\":1549:1558  finResult */\n      dup1\n        /* \"src/blueprints/vesting/schedules/LinearCliffVestingSchedule.sol\":1537:1547  freeMemPtr */\n      dup6\n        /* \"src/blueprints/vesting/schedules/LinearCliffVestingSchedule.sol\":1530:1559  mstore(freeMemPtr, finResult) */\n      mstore\n        /* \"src/blueprints/vesting/schedules/LinearCliffVestingSchedule.sol\":1597:1601  0x20 */\n      0x20\n        /* \"src/blueprints/vesting/schedules/LinearCliffVestingSchedule.sol\":1586:1596  freeMemPtr */\n      dup6\n        /* \"src/blueprints/vesting/schedules/LinearCliffVestingSchedule.sol\":1582:1602  add(freeMemPtr,0x20) */\n      add\n        /* \"src/blueprints/vesting/schedules/LinearCliffVestingSchedule.sol\":1571:1581  freeMemPtr */\n      dup6\n        /* \"src/blueprints/vesting/schedules/LinearCliffVestingSchedule.sol\":1564:1603  mstore(freeMemPtr,add(freeMemPtr,0x20)) */\n      mstore\n        /* \"src/blueprints/vesting/schedules/LinearCliffVestingSchedule.sol\":1639:1643  0x20 */\n      0x20\n        /* \"src/blueprints/vesting/schedules/LinearCliffVestingSchedule.sol\":1627:1637  freeMemPtr */\n      dup6\n        /* \"src/blueprints/vesting/schedules/LinearCliffVestingSchedule.sol\":1620:1644  return(freeMemPtr, 0x20) */\n      return\n        /* \"src/blueprints/vesting/schedules/LinearCliffVestingSchedule.sol\":1225:1658  if gt(currentTime, startVesting) {... */\n    tag_16:\n        /* \"src/blueprints/vesting/schedules/LinearCliffVestingSchedule.sol\":1708:1709  0 */\n      0x00\n        /* \"src/blueprints/vesting/schedules/LinearCliffVestingSchedule.sol\":1696:1706  freeMemPtr */\n      dup2\n        /* \"src/blueprints/vesting/schedules/LinearCliffVestingSchedule.sol\":1689:1710  mstore(freeMemPtr, 0) */\n      mstore\n        /* \"src/blueprints/vesting/schedules/LinearCliffVestingSchedule.sol\":1742:1746  0x20 */\n      0x20\n        /* \"src/blueprints/vesting/schedules/LinearCliffVestingSchedule.sol\":1731:1741  freeMemPtr */\n      dup2\n        /* \"src/blueprints/vesting/schedules/LinearCliffVestingSchedule.sol\":1727:1747  add(freeMemPtr,0x20) */\n      add\n        /* \"src/blueprints/vesting/schedules/LinearCliffVestingSchedule.sol\":1721:1725  0x40 */\n      0x40\n        /* \"src/blueprints/vesting/schedules/LinearCliffVestingSchedule.sol\":1714:1748  mstore(0x40, add(freeMemPtr,0x20)) */\n      mstore\n        /* \"src/blueprints/vesting/schedules/LinearCliffVestingSchedule.sol\":1780:1784  0x20 */\n      0x20\n        /* \"src/blueprints/vesting/schedules/LinearCliffVestingSchedule.sol\":1768:1778  freeMemPtr */\n      dup2\n        /* \"src/blueprints/vesting/schedules/LinearCliffVestingSchedule.sol\":1761:1785  return(freeMemPtr, 0x20) */\n      return\n        /* \"#utility.yul\":88:205   */\n    tag_18:\n        /* \"#utility.yul\":197:198   */\n      0x00\n        /* \"#utility.yul\":194:195   */\n      0x00\n        /* \"#utility.yul\":187:199   */\n      revert\n        /* \"#utility.yul\":211:328   */\n    tag_19:\n        /* \"#utility.yul\":320:321   */\n      0x00\n        /* \"#utility.yul\":317:318   */\n      0x00\n        /* \"#utility.yul\":310:322   */\n      revert\n        /* \"#utility.yul\":334:411   */\n    tag_20:\n        /* \"#utility.yul\":371:378   */\n      0x00\n        /* \"#utility.yul\":400:405   */\n      dup2\n        /* \"#utility.yul\":389:405   */\n      swap1\n      pop\n        /* \"#utility.yul\":334:411   */\n      swap2\n      swap1\n      pop\n      jump\t// out\n        /* \"#utility.yul\":417:539   */\n    tag_21:\n        /* \"#utility.yul\":490:514   */\n      tag_34\n        /* \"#utility.yul\":508:513   */\n      dup2\n        /* \"#utility.yul\":490:514   */\n      tag_20\n      jump\t// in\n    tag_34:\n        /* \"#utility.yul\":483:488   */\n      dup2\n        /* \"#utility.yul\":480:515   */\n      eq\n        /* \"#utility.yul\":470:533   */\n      tag_35\n      jumpi\n        /* \"#utility.yul\":529:530   */\n      0x00\n        /* \"#utility.yul\":526:527   */\n      0x00\n        /* \"#utility.yul\":519:531   */\n      revert\n        /* \"#utility.yul\":470:533   */\n    tag_35:\n        /* \"#utility.yul\":417:539   */\n      pop\n      jump\t// out\n        /* \"#utility.yul\":545:684   */\n    tag_22:\n        /* \"#utility.yul\":591:596   */\n      0x00\n        /* \"#utility.yul\":629:635   */\n      dup2\n        /* \"#utility.yul\":616:636   */\n      calldataload\n        /* \"#utility.yul\":607:636   */\n      swap1\n      pop\n        /* \"#utility.yul\":645:678   */\n      tag_37\n        /* \"#utility.yul\":672:677   */\n      dup2\n        /* \"#utility.yul\":645:678   */\n      tag_21\n      jump\t// in\n    tag_37:\n        /* \"#utility.yul\":545:684   */\n      swap3\n      swap2\n      pop\n      pop\n      jump\t// out\n        /* \"#utility.yul\":690:807   */\n    tag_23:\n        /* \"#utility.yul\":799:800   */\n      0x00\n        /* \"#utility.yul\":796:797   */\n      0x00\n        /* \"#utility.yul\":789:801   */\n      revert\n        /* \"#utility.yul\":813:930   */\n    tag_24:\n        /* \"#utility.yul\":922:923   */\n      0x00\n        /* \"#utility.yul\":919:920   */\n      0x00\n        /* \"#utility.yul\":912:924   */\n      revert\n        /* \"#utility.yul\":936:1053   */\n    tag_25:\n        /* \"#utility.yul\":1045:1046   */\n      0x00\n        /* \"#utility.yul\":1042:1043   */\n      0x00\n        /* \"#utility.yul\":1035:1047   */\n      revert\n        /* \"#utility.yul\":1072:1624   */\n    tag_26:\n        /* \"#utility.yul\":1129:1137   */\n      0x00\n        /* \"#utility.yul\":1139:1145   */\n      0x00\n        /* \"#utility.yul\":1189:1192   */\n      dup4\n        /* \"#utility.yul\":1182:1186   */\n      0x1f\n        /* \"#utility.yul\":1174:1180   */\n      dup5\n        /* \"#utility.yul\":1170:1187   */\n      add\n        /* \"#utility.yul\":1166:1193   */\n      slt\n        /* \"#utility.yul\":1156:1278   */\n      tag_42\n      jumpi\n        /* \"#utility.yul\":1197:1276   */\n      tag_43\n      tag_23\n      jump\t// in\n    tag_43:\n        /* \"#utility.yul\":1156:1278   */\n    tag_42:\n        /* \"#utility.yul\":1310:1316   */\n      dup3\n        /* \"#utility.yul\":1297:1317   */\n      calldataload\n        /* \"#utility.yul\":1287:1317   */\n      swap1\n      pop\n        /* \"#utility.yul\":1340:1358   */\n      0xffffffffffffffff\n        /* \"#utility.yul\":1332:1338   */\n      dup2\n        /* \"#utility.yul\":1329:1359   */\n      gt\n        /* \"#utility.yul\":1326:1443   */\n      iszero\n      tag_44\n      jumpi\n        /* \"#utility.yul\":1362:1441   */\n      tag_45\n      tag_24\n      jump\t// in\n    tag_45:\n        /* \"#utility.yul\":1326:1443   */\n    tag_44:\n        /* \"#utility.yul\":1476:1480   */\n      0x20\n        /* \"#utility.yul\":1468:1474   */\n      dup4\n        /* \"#utility.yul\":1464:1481   */\n      add\n        /* \"#utility.yul\":1452:1481   */\n      swap2\n      pop\n        /* \"#utility.yul\":1530:1533   */\n      dup4\n        /* \"#utility.yul\":1522:1526   */\n      0x01\n        /* \"#utility.yul\":1514:1520   */\n      dup3\n        /* \"#utility.yul\":1510:1527   */\n      mul\n        /* \"#utility.yul\":1500:1508   */\n      dup4\n        /* \"#utility.yul\":1496:1528   */\n      add\n        /* \"#utility.yul\":1493:1534   */\n      gt\n        /* \"#utility.yul\":1490:1618   */\n      iszero\n      tag_46\n      jumpi\n        /* \"#utility.yul\":1537:1616   */\n      tag_47\n      tag_25\n      jump\t// in\n    tag_47:\n        /* \"#utility.yul\":1490:1618   */\n    tag_46:\n        /* \"#utility.yul\":1072:1624   */\n      swap3\n      pop\n      swap3\n      swap1\n      pop\n      jump\t// out\n        /* \"#utility.yul\":1630:2302   */\n    tag_6:\n        /* \"#utility.yul\":1709:1715   */\n      0x00\n        /* \"#utility.yul\":1717:1723   */\n      0x00\n        /* \"#utility.yul\":1725:1731   */\n      0x00\n        /* \"#utility.yul\":1774:1776   */\n      0x40\n        /* \"#utility.yul\":1762:1771   */\n      dup5\n        /* \"#utility.yul\":1753:1760   */\n      dup7\n        /* \"#utility.yul\":1749:1772   */\n      sub\n        /* \"#utility.yul\":1745:1777   */\n      slt\n        /* \"#utility.yul\":1742:1861   */\n      iszero\n      tag_49\n      jumpi\n        /* \"#utility.yul\":1780:1859   */\n      tag_50\n      tag_18\n      jump\t// in\n    tag_50:\n        /* \"#utility.yul\":1742:1861   */\n    tag_49:\n        /* \"#utility.yul\":1900:1901   */\n      0x00\n        /* \"#utility.yul\":1925:1978   */\n      tag_51\n        /* \"#utility.yul\":1970:1977   */\n      dup7\n        /* \"#utility.yul\":1961:1967   */\n      dup3\n        /* \"#utility.yul\":1950:1959   */\n      dup8\n        /* \"#utility.yul\":1946:1968   */\n      add\n        /* \"#utility.yul\":1925:1978   */\n      tag_22\n      jump\t// in\n    tag_51:\n        /* \"#utility.yul\":1915:1978   */\n      swap4\n      pop\n        /* \"#utility.yul\":1871:1988   */\n      pop\n        /* \"#utility.yul\":2055:2057   */\n      0x20\n        /* \"#utility.yul\":2044:2053   */\n      dup5\n        /* \"#utility.yul\":2040:2058   */\n      add\n        /* \"#utility.yul\":2027:2059   */\n      calldataload\n        /* \"#utility.yul\":2086:2104   */\n      0xffffffffffffffff\n        /* \"#utility.yul\":2078:2084   */\n      dup2\n        /* \"#utility.yul\":2075:2105   */\n      gt\n        /* \"#utility.yul\":2072:2189   */\n      iszero\n      tag_52\n      jumpi\n        /* \"#utility.yul\":2108:2187   */\n      tag_53\n      tag_19\n      jump\t// in\n    tag_53:\n        /* \"#utility.yul\":2072:2189   */\n    tag_52:\n        /* \"#utility.yul\":2221:2285   */\n      tag_54\n        /* \"#utility.yul\":2277:2284   */\n      dup7\n        /* \"#utility.yul\":2268:2274   */\n      dup3\n        /* \"#utility.yul\":2257:2266   */\n      dup8\n        /* \"#utility.yul\":2253:2275   */\n      add\n        /* \"#utility.yul\":2221:2285   */\n      tag_26\n      jump\t// in\n    tag_54:\n        /* \"#utility.yul\":2203:2285   */\n      swap3\n      pop\n      swap3\n      pop\n        /* \"#utility.yul\":1998:2295   */\n      pop\n        /* \"#utility.yul\":1630:2302   */\n      swap3\n      pop\n      swap3\n      pop\n      swap3\n      jump\t// out\n        /* \"#utility.yul\":2308:2426   */\n    tag_27:\n        /* \"#utility.yul\":2395:2419   */\n      tag_56\n        /* \"#utility.yul\":2413:2418   */\n      dup2\n        /* \"#utility.yul\":2395:2419   */\n      tag_20\n      jump\t// in\n    tag_56:\n        /* \"#utility.yul\":2390:2393   */\n      dup3\n        /* \"#utility.yul\":2383:2420   */\n      mstore\n        /* \"#utility.yul\":2308:2426   */\n      pop\n      pop\n      jump\t// out\n        /* \"#utility.yul\":2432:2654   */\n    tag_9:\n        /* \"#utility.yul\":2525:2529   */\n      0x00\n        /* \"#utility.yul\":2563:2565   */\n      0x20\n        /* \"#utility.yul\":2552:2561   */\n      dup3\n        /* \"#utility.yul\":2548:2566   */\n      add\n        /* \"#utility.yul\":2540:2566   */\n      swap1\n      pop\n        /* \"#utility.yul\":2576:2647   */\n      tag_58\n        /* \"#utility.yul\":2644:2645   */\n      0x00\n        /* \"#utility.yul\":2633:2642   */\n      dup4\n        /* \"#utility.yul\":2629:2646   */\n      add\n        /* \"#utility.yul\":2620:2626   */\n      dup5\n        /* \"#utility.yul\":2576:2647   */\n      tag_27\n      jump\t// in\n    tag_58:\n        /* \"#utility.yul\":2432:2654   */\n      swap3\n      swap2\n      pop\n      pop\n      jump\t// out\n        /* \"#utility.yul\":2660:3279   */\n    tag_12:\n        /* \"#utility.yul\":2737:2743   */\n      0x00\n        /* \"#utility.yul\":2745:2751   */\n      0x00\n        /* \"#utility.yul\":2753:2759   */\n      0x00\n        /* \"#utility.yul\":2802:2804   */\n      0x60\n        /* \"#utility.yul\":2790:2799   */\n      dup5\n        /* \"#utility.yul\":2781:2788   */\n      dup7\n        /* \"#utility.yul\":2777:2800   */\n      sub\n        /* \"#utility.yul\":2773:2805   */\n      slt\n        /* \"#utility.yul\":2770:2889   */\n      iszero\n      tag_60\n      jumpi\n        /* \"#utility.yul\":2808:2887   */\n      tag_61\n      tag_18\n      jump\t// in\n    tag_61:\n        /* \"#utility.yul\":2770:2889   */\n    tag_60:\n        /* \"#utility.yul\":2928:2929   */\n      0x00\n        /* \"#utility.yul\":2953:3006   */\n      tag_62\n        /* \"#utility.yul\":2998:3005   */\n      dup7\n        /* \"#utility.yul\":2989:2995   */\n      dup3\n        /* \"#utility.yul\":2978:2987   */\n      dup8\n        /* \"#utility.yul\":2974:2996   */\n      add\n        /* \"#utility.yul\":2953:3006   */\n      tag_22\n      jump\t// in\n    tag_62:\n        /* \"#utility.yul\":2943:3006   */\n      swap4\n      pop\n        /* \"#utility.yul\":2899:3016   */\n      pop\n        /* \"#utility.yul\":3055:3057   */\n      0x20\n        /* \"#utility.yul\":3081:3134   */\n      tag_63\n        /* \"#utility.yul\":3126:3133   */\n      dup7\n        /* \"#utility.yul\":3117:3123   */\n      dup3\n        /* \"#utility.yul\":3106:3115   */\n      dup8\n        /* \"#utility.yul\":3102:3124   */\n      add\n        /* \"#utility.yul\":3081:3134   */\n      tag_22\n      jump\t// in\n    tag_63:\n        /* \"#utility.yul\":3071:3134   */\n      swap3\n      pop\n        /* \"#utility.yul\":3026:3144   */\n      pop\n        /* \"#utility.yul\":3183:3185   */\n      0x40\n        /* \"#utility.yul\":3209:3262   */\n      tag_64\n        /* \"#utility.yul\":3254:3261   */\n      dup7\n        /* \"#utility.yul\":3245:3251   */\n      dup3\n        /* \"#utility.yul\":3234:3243   */\n      dup8\n        /* \"#utility.yul\":3230:3252   */\n      add\n        /* \"#utility.yul\":3209:3262   */\n      tag_22\n      jump\t// in\n    tag_64:\n        /* \"#utility.yul\":3199:3262   */\n      swap2\n      pop\n        /* \"#utility.yul\":3154:3272   */\n      pop\n        /* \"#utility.yul\":2660:3279   */\n      swap3\n      pop\n      swap3\n      pop\n      swap3\n      jump\t// out\n\n    auxdata: 0xa264697066735822122035ed5fd156e6a2f4a60e418d1600e6b85139b2a23a8ae17016274fee49d6e30264736f6c634300081c0033\n}\n",
				"bytecode": {
					"linkReferences": {},
					"object": "6080604052348015600e575f5ffd5b5061029e8061001c5f395ff3fe608060405234801561000f575f5ffd5b5060043610610029575f3560e01c80634f2a01e81461002d575b5f5ffd5b61004760048036038101906100429190610193565b61005d565b60405161005491906101ff565b60405180910390f35b5f5f5f5f85858101906100709190610218565b9250925092505f42905060405183831184861117156100985788815260208101604052602081f35b828210156100af575f815260208101604052602081f35b838211156100c65788815260208101604052602081f35b848211156100e857848203858503818b02818104808552602085018552602085f35b5f815260208101604052602081f35b5f5ffd5b5f5ffd5b5f819050919050565b610111816100ff565b811461011b575f5ffd5b50565b5f8135905061012c81610108565b92915050565b5f5ffd5b5f5ffd5b5f5ffd5b5f5f83601f84011261015357610152610132565b5b8235905067ffffffffffffffff8111156101705761016f610136565b5b60208301915083600182028301111561018c5761018b61013a565b5b9250929050565b5f5f5f604084860312156101aa576101a96100f7565b5b5f6101b78682870161011e565b935050602084013567ffffffffffffffff8111156101d8576101d76100fb565b5b6101e48682870161013e565b92509250509250925092565b6101f9816100ff565b82525050565b5f6020820190506102125f8301846101f0565b92915050565b5f5f5f6060848603121561022f5761022e6100f7565b5b5f61023c8682870161011e565b935050602061024d8682870161011e565b925050604061025e8682870161011e565b915050925092509256fea264697066735822122035ed5fd156e6a2f4a60e418d1600e6b85139b2a23a8ae17016274fee49d6e30264736f6c634300081c0033",
					"opcodes": "PUSH1 0x80 PUSH1 0x40 MSTORE CALLVALUE DUP1 ISZERO PUSH1 0xE JUMPI PUSH0 PUSH0 REVERT JUMPDEST POP PUSH2 0x29E DUP1 PUSH2 0x1C PUSH0 CODECOPY PUSH0 RETURN INVALID PUSH1 0x80 PUSH1 0x40 MSTORE CALLVALUE DUP1 ISZERO PUSH2 0xF JUMPI PUSH0 PUSH0 REVERT JUMPDEST POP PUSH1 0x4 CALLDATASIZE LT PUSH2 0x29 JUMPI PUSH0 CALLDATALOAD PUSH1 0xE0 SHR DUP1 PUSH4 0x4F2A01E8 EQ PUSH2 0x2D JUMPI JUMPDEST PUSH0 PUSH0 REVERT JUMPDEST PUSH2 0x47 PUSH1 0x4 DUP1 CALLDATASIZE SUB DUP2 ADD SWAP1 PUSH2 0x42 SWAP2 SWAP1 PUSH2 0x193 JUMP JUMPDEST PUSH2 0x5D JUMP JUMPDEST PUSH1 0x40 MLOAD PUSH2 0x54 SWAP2 SWAP1 PUSH2 0x1FF JUMP JUMPDEST PUSH1 0x40 MLOAD DUP1 SWAP2 SUB SWAP1 RETURN JUMPDEST PUSH0 PUSH0 PUSH0 PUSH0 DUP6 DUP6 DUP2 ADD SWAP1 PUSH2 0x70 SWAP2 SWAP1 PUSH2 0x218 JUMP JUMPDEST SWAP3 POP SWAP3 POP SWAP3 POP PUSH0 TIMESTAMP SWAP1 POP PUSH1 0x40 MLOAD DUP4 DUP4 GT DUP5 DUP7 GT OR ISZERO PUSH2 0x98 JUMPI DUP9 DUP2 MSTORE PUSH1 0x20 DUP2 ADD PUSH1 0x40 MSTORE PUSH1 0x20 DUP2 RETURN JUMPDEST DUP3 DUP3 LT ISZERO PUSH2 0xAF JUMPI PUSH0 DUP2 MSTORE PUSH1 0x20 DUP2 ADD PUSH1 0x40 MSTORE PUSH1 0x20 DUP2 RETURN JUMPDEST DUP4 DUP3 GT ISZERO PUSH2 0xC6 JUMPI DUP9 DUP2 MSTORE PUSH1 0x20 DUP2 ADD PUSH1 0x40 MSTORE PUSH1 0x20 DUP2 RETURN JUMPDEST DUP5 DUP3 GT ISZERO PUSH2 0xE8 JUMPI DUP5 DUP3 SUB DUP6 DUP6 SUB DUP2 DUP12 MUL DUP2 DUP2 DIV DUP1 DUP6 MSTORE PUSH1 0x20 DUP6 ADD DUP6 MSTORE PUSH1 0x20 DUP6 RETURN JUMPDEST PUSH0 DUP2 MSTORE PUSH1 0x20 DUP2 ADD PUSH1 0x40 MSTORE PUSH1 0x20 DUP2 RETURN JUMPDEST PUSH0 PUSH0 REVERT JUMPDEST PUSH0 PUSH0 REVERT JUMPDEST PUSH0 DUP2 SWAP1 POP SWAP2 SWAP1 POP JUMP JUMPDEST PUSH2 0x111 DUP2 PUSH2 0xFF JUMP JUMPDEST DUP2 EQ PUSH2 0x11B JUMPI PUSH0 PUSH0 REVERT JUMPDEST POP JUMP JUMPDEST PUSH0 DUP2 CALLDATALOAD SWAP1 POP PUSH2 0x12C DUP2 PUSH2 0x108 JUMP JUMPDEST SWAP3 SWAP2 POP POP JUMP JUMPDEST PUSH0 PUSH0 REVERT JUMPDEST PUSH0 PUSH0 REVERT JUMPDEST PUSH0 PUSH0 REVERT JUMPDEST PUSH0 PUSH0 DUP4 PUSH1 0x1F DUP5 ADD SLT PUSH2 0x153 JUMPI PUSH2 0x152 PUSH2 0x132 JUMP JUMPDEST JUMPDEST DUP3 CALLDATALOAD SWAP1 POP PUSH8 0xFFFFFFFFFFFFFFFF DUP2 GT ISZERO PUSH2 0x170 JUMPI PUSH2 0x16F PUSH2 0x136 JUMP JUMPDEST JUMPDEST PUSH1 0x20 DUP4 ADD SWAP2 POP DUP4 PUSH1 0x1 DUP3 MUL DUP4 ADD GT ISZERO PUSH2 0x18C JUMPI PUSH2 0x18B PUSH2 0x13A JUMP JUMPDEST JUMPDEST SWAP3 POP SWAP3 SWAP1 POP JUMP JUMPDEST PUSH0 PUSH0 PUSH0 PUSH1 0x40 DUP5 DUP7 SUB SLT ISZERO PUSH2 0x1AA JUMPI PUSH2 0x1A9 PUSH2 0xF7 JUMP JUMPDEST JUMPDEST PUSH0 PUSH2 0x1B7 DUP7 DUP3 DUP8 ADD PUSH2 0x11E JUMP JUMPDEST SWAP4 POP POP PUSH1 0x20 DUP5 ADD CALLDATALOAD PUSH8 0xFFFFFFFFFFFFFFFF DUP2 GT ISZERO PUSH2 0x1D8 JUMPI PUSH2 0x1D7 PUSH2 0xFB JUMP JUMPDEST JUMPDEST PUSH2 0x1E4 DUP7 DUP3 DUP8 ADD PUSH2 0x13E JUMP JUMPDEST SWAP3 POP SWAP3 POP POP SWAP3 POP SWAP3 POP SWAP3 JUMP JUMPDEST PUSH2 0x1F9 DUP2 PUSH2 0xFF JUMP JUMPDEST DUP3 MSTORE POP POP JUMP JUMPDEST PUSH0 PUSH1 0x20 DUP3 ADD SWAP1 POP PUSH2 0x212 PUSH0 DUP4 ADD DUP5 PUSH2 0x1F0 JUMP JUMPDEST SWAP3 SWAP2 POP POP JUMP JUMPDEST PUSH0 PUSH0 PUSH0 PUSH1 0x60 DUP5 DUP7 SUB SLT ISZERO PUSH2 0x22F JUMPI PUSH2 0x22E PUSH2 0xF7 JUMP JUMPDEST JUMPDEST PUSH0 PUSH2 0x23C DUP7 DUP3 DUP8 ADD PUSH2 0x11E JUMP JUMPDEST SWAP4 POP POP PUSH1 0x20 PUSH2 0x24D DUP7 DUP3 DUP8 ADD PUSH2 0x11E JUMP JUMPDEST SWAP3 POP POP PUSH1 0x40 PUSH2 0x25E DUP7 DUP3 DUP8 ADD PUSH2 0x11E JUMP JUMPDEST SWAP2 POP POP SWAP3 POP SWAP3 POP SWAP3 JUMP INVALID LOG2 PUSH5 0x6970667358 0x22 SLT KECCAK256 CALLDATALOAD 0xED PUSH0 0xD1 JUMP 0xE6 LOG2 DELEGATECALL 0xA6 0xE COINBASE DUP14 AND STOP 0xE6 0xB8 MLOAD CODECOPY 0xB2 LOG2 GASPRICE DUP11 0xE1 PUSH17 0x16274FEE49D6E30264736F6C634300081C STOP CALLER "
				},
				"gasEstimates": {
					"creation": {
						"codeDepositCost": "134000",
						"executionCost": "175",
						"totalCost": "134175"
					},
					"external": {
						"getVestedTokens(uint256,bytes)": "infinite"
					}
				},
				"methodIdentifiers": {
					"getVestedTokens(uint256,bytes)": "4f2a01e8"
				}
			},
			"storageLayout": {
				"storage": [],
				"types": null
			},
			"userdoc": {
				"kind": "user",
				"methods": {},
				"version": 1
			}
		}
	}
}