{
	"data": {
		"bytecode": {
			"linkReferences": {},
			"object": "6080604052348015600e575f5ffd5b506123c88061001c5f395ff3fe608060405234801561000f575f5ffd5b5060043610610113575f3560e01c806362ba62e5116100a0578063b6363cf21161006f578063b6363cf2146102fb578063e30330411461032b578063e747f31c14610347578063f3178dd114610363578063fe99049a1461037f57610113565b806362ba62e514610277578063a42bff8614610293578063ab7ccc1c146102c3578063b390c0ab146102df57610113565b806336223ac2116100e757806336223ac2146101af578063426a8493146101cb57806352d2accf146101fb578063558a729714610217578063598af9e71461024757610113565b8062fdd58e14610117578063095bcdb614610147578063156e29f614610177578063355f580e14610193575b5f5ffd5b610131600480360381019061012c91906119fb565b6103af565b60405161013e9190611a48565b60405180910390f35b610161600480360381019061015c9190611a61565b6103cf565b60405161016e9190611acb565b60405180910390f35b610191600480360381019061018c9190611a61565b6103e7565b005b6101ad60048036038101906101a89190611b45565b610400565b005b6101c960048036038101906101c49190611b45565b610496565b005b6101e560048036038101906101e09190611a61565b610508565b6040516101f29190611acb565b60405180910390f35b61021560048036038101906102109190611be5565b610606565b005b610231600480360381019061022c9190611c5a565b610667565b60405161023e9190611acb565b60405180910390f35b610261600480360381019061025c9190611c98565b610765565b60405161026e9190611a48565b60405180910390f35b610291600480360381019061028c9190611ce8565b610790565b005b6102ad60048036038101906102a89190611d45565b610801565b6040516102ba9190611a48565b60405180910390f35b6102dd60048036038101906102d89190611d70565b61080b565b005b6102f960048036038101906102f49190611d70565b61085a565b005b61031560048036038101906103109190611dae565b610872565b6040516103229190611acb565b60405180910390f35b61034560048036038101906103409190611b45565b61089b565b005b610361600480360381019061035c9190611d70565b610931565b005b61037d60048036038101906103789190611dec565b610980565b005b61039960048036038101906103949190611e49565b6109f3565b6040516103a69190611acb565b60405180910390f35b6001602052815f5260405f20602052805f5260405f205f91509150505481565b5f6103dc33858585610ada565b600190509392505050565b6103fb836103f53385610b5c565b83610b71565b505050565b5f610409610c27565b90505f5f6104178333610d32565b915091505f8585905090505f5f90505b81811015610483573687878381811061044357610442611ead565b5b90506040020190505f815f013590505f8260200135905061046687878484610d5f565b9550610473338383610b71565b5050508080600101915050610427565b5061048e8383610e0a565b505050505050565b5f8282905090505f5f90505b81811015610502576104f5336104d3338787868181106104c5576104c4611ead565b5b9050604002015f0135610b5c565b8686858181106104e6576104e5611ead565b5b90506040020160200135610e11565b80806001019150506104a2565b50505050565b5f8160025f3373ffffffffffffffffffffffffffffffffffffffff1673ffffffffffffffffffffffffffffffffffffffff1681526020019081526020015f205f8673ffffffffffffffffffffffffffffffffffffffff1673ffffffffffffffffffffffffffffffffffffffff1681526020019081526020015f205f8581526020019081526020015f2081905550828473ffffffffffffffffffffffffffffffffffffffff163373ffffffffffffffffffffffffffffffffffffffff167fb3fd5071835887567a0671151121894ddccc2842f1d10bedad13e0d17cace9a7856040516105f39190611a48565b60405180910390a4600190509392505050565b5f61060f610c27565b90505f8383905090505f5f90505b818110156106605761065385858381811061063b5761063a611ead565b5b905060200281019061064d9190611ee6565b84610f56565b808060010191505061061d565b5050505050565b5f815f5f3373ffffffffffffffffffffffffffffffffffffffff1673ffffffffffffffffffffffffffffffffffffffff1681526020019081526020015f205f8573ffffffffffffffffffffffffffffffffffffffff1673ffffffffffffffffffffffffffffffffffffffff1681526020019081526020015f205f6101000a81548160ff0219169083151502179055508273ffffffffffffffffffffffffffffffffffffffff163373ffffffffffffffffffffffffffffffffffffffff167fceb576d9f15e4e200fdb5096d64d5dfd667e16def20c1eefd14256d8e3faa267846040516107539190611acb565b60405180910390a36001905092915050565b6002602052825f5260405f20602052815f5260405f20602052805f5260405f205f9250925050505481565b5f5f61079b85611330565b915091505f8484905090505f5f90505b818110156107ee576107e18686838181106107c9576107c8611ead565b5b90506020028101906107db9190611ee6565b85610f56565b80806001019150506107ab565b506107f98284611362565b505050505050565b5f815c9050919050565b5f610814610c27565b90505f5f6108228333610d32565b915091505f61083383838888610d5f565b9050808214610847576108468382610e0a565b5b610852338787610b71565b505050505050565b61086e336108683385610b5c565b83610e11565b5050565b5f602052815f5260405f20602052805f5260405f205f915091509054906101000a900460ff1681565b5f6108a4610c27565b90505f5f6108b28333610d32565b915091505f8585905090505f5f90505b8181101561091e57368787838181106108de576108dd611ead565b5b90506040020190505f815f013590505f8260200135905061090187878484611372565b955061090e338383610e11565b50505080806001019150506108c2565b506109298383610e0a565b505050505050565b5f61093a610c27565b90505f5f6109488333610d32565b915091505f61095983838888611372565b905080821461096d5761096c8382610e0a565b5b610978338787610e11565b505050505050565b5f8282905090505f5f90505b818110156109ec576109df856109bd338787868181106109af576109ae611ead565b5b9050604002015f0135610b5c565b8686858181106109d0576109cf611ead565b5b90506040020160200135610b71565b808060010191505061098c565b5050505050565b5f8473ffffffffffffffffffffffffffffffffffffffff163373ffffffffffffffffffffffffffffffffffffffff1614158015610ab157505f5f8673ffffffffffffffffffffffffffffffffffffffff1673ffffffffffffffffffffffffffffffffffffffff1681526020019081526020015f205f3373ffffffffffffffffffffffffffffffffffffffff1673ffffffffffffffffffffffffffffffffffffffff1681526020019081526020015f205f9054906101000a900460ff16155b15610ac257610ac185848461141d565b5b610ace85858585610ada565b60019050949350505050565b610ae5848383610e11565b610af0838383610b71565b818373ffffffffffffffffffffffffffffffffffffffff168573ffffffffffffffffffffffffffffffffffffffff167f9ed053bb818ff08b8353cd46f78db1f0799f31c9e4458fdb425c10eccd2efc4484604051610b4e9190611a48565b60405180910390a450505050565b5f825f52816020526034600c20905092915050565b8060015f8573ffffffffffffffffffffffffffffffffffffffff1673ffffffffffffffffffffffffffffffffffffffff1681526020019081526020015f205f8481526020019081526020015f205f828254610bcc9190611f3a565b92505081905550818373ffffffffffffffffffffffffffffffffffffffff167f4c209b5fc8ad50758f13e2e1088ba56a560dff690a1c6fef26394f4c03821c4f83604051610c1a9190611a48565b60405180910390a3505050565b5f5f5f5f5c6bffffffffffffffffffffffff811691508060601c9250505f8103610c7d576040517f97013e4300000000000000000000000000000000000000000000000000000000815260040160405180910390fd5b600181035f525f602052602c60142092505f73ffffffffffffffffffffffffffffffffffffffff168273ffffffffffffffffffffffffffffffffffffffff1614158015610cf657503373ffffffffffffffffffffffffffffffffffffffff168273ffffffffffffffffffffffffffffffffffffffff1614155b15610d2d576040517f1230858900000000000000000000000000000000000000000000000000000000815260040160405180910390fd5b505090565b5f5f610d3e848461156d565b9150815c905080610d58576001845c0180855d838186015d505b9250929050565b5f825f528460205260405f20805c8060011d84810360028160fe1c148183121760018114610d9757600184168260011b17855d610de9565b600185017f4000000000000000000000000000000000000000000000000000000000000000830160ff1c6002035f6001871615610dd357825c90505b818103905080835d8015158560011b17885d5050505b5082610dfb5760018801975086888a015d5b50505050839050949350505050565b80825d5050565b8060015f8573ffffffffffffffffffffffffffffffffffffffff1673ffffffffffffffffffffffffffffffffffffffff1681526020019081526020015f205f8481526020019081526020015f20541015610ea0576040517f08c379a0000000000000000000000000000000000000000000000000000000008152600401610e9790611fc7565b60405180910390fd5b8060015f8573ffffffffffffffffffffffffffffffffffffffff1673ffffffffffffffffffffffffffffffffffffffff1681526020019081526020015f205f8481526020019081526020015f205f828254610efb9190611fe5565b92505081905550818373ffffffffffffffffffffffffffffffffffffffff167f49995e5dd6158cf69ad3e9777c46755a1a826a446c6416992167462dad033b2a83604051610f499190611a48565b60405180910390a3505050565b5f826020016020810190610f6a9190612018565b90505f5f845f016020810190610f809190612018565b90505f73ffffffffffffffffffffffffffffffffffffffff168173ffffffffffffffffffffffffffffffffffffffff1603610fbd57339050611085565b3373ffffffffffffffffffffffffffffffffffffffff168173ffffffffffffffffffffffffffffffffffffffff161415801561107a57505f5f8273ffffffffffffffffffffffffffffffffffffffff1673ffffffffffffffffffffffffffffffffffffffff1681526020019081526020015f205f3373ffffffffffffffffffffffffffffffffffffffff1673ffffffffffffffffffffffffffffffffffffffff1681526020019081526020015f205f9054906101000a900460ff16155b1561108457600191505b5b5f5f5f5f61109289611582565b93509350935093505f5f6110a68a88610d32565b915091505f5f90505b86518110156111175761110883836110e48d8b86815181106110d4576110d3611ead565b5b60200260200101515f0151610b5c565b8a85815181106110f7576110f6611ead565b5b602002602001015160200151611372565b915080806001019150506110af565b505f5f90505b85518110156111a1575f61114e8b88848151811061113e5761113d611ead565b5b60200260200101515f0151610b5c565b90505f87838151811061116457611163611ead565b5b60200260200101516020015190508a15611184576111838a838361141d565b5b61119085858484610d5f565b93505050808060010191505061111d565b508673ffffffffffffffffffffffffffffffffffffffff168973ffffffffffffffffffffffffffffffffffffffff16141580156111eb57505f84511415806111ea57505f835114155b5b15611319575f5f6111fc8c8c610d32565b915091505f5f90505b865181101561127c575f87828151811061122257611221611ead565b5b60200260200101515f015190505f88838151811061124357611242611ead565b5b602002602001015160200151905061125d87878484611372565b955061126b85858484610d5f565b935050508080600101915050611205565b505f5f90505b855181101561130b575f86828151811061129f5761129e611ead565b5b60200260200101515f015190505f8783815181106112c0576112bf611ead565b5b60200260200101516020015190508c156112e0576112df8c838361141d565b5b6112ec87878484610d5f565b95506112fa85858484611372565b935050508080600101915050611282565b506113168282610e0a565b50505b6113238282610e0a565b5050505050505050505050565b5f5f5f5c905060016bffffffffffffffffffffffff8216018360601b175f5d805f525f602052602c6014209150915091565b61136b81611694565b815f5d5050565b5f825f528460205260405f20805c8060011d84810160018160fe1c1482821217600181146113aa57600184168260011b17855d6113fc565b600185017f4000000000000000000000000000000000000000000000000000000000000000830160ff1c6002035f60018716156113e657825c90505b818101905080835d8015158560011b17885d5050505b508261140e5760018801975086888a015d5b50505050839050949350505050565b5f60025f8573ffffffffffffffffffffffffffffffffffffffff1673ffffffffffffffffffffffffffffffffffffffff1681526020019081526020015f205f3373ffffffffffffffffffffffffffffffffffffffff1673ffffffffffffffffffffffffffffffffffffffff1681526020019081526020015f205f8481526020019081526020015f205490507fffffffffffffffffffffffffffffffffffffffffffffffffffffffffffffffff81146115675781816114db9190611fe5565b60025f8673ffffffffffffffffffffffffffffffffffffffff1673ffffffffffffffffffffffffffffffffffffffff1681526020019081526020015f205f3373ffffffffffffffffffffffffffffffffffffffff1673ffffffffffffffffffffffffffffffffffffffff1681526020019081526020015f205f8581526020019081526020015f20819055505b50505050565b5f815f52826020526034600c20905092915050565b60608060608084602001602081019061159b9190612018565b73ffffffffffffffffffffffffffffffffffffffff1663a129568d8680604001906115c69190612043565b6040518363ffffffff1660e01b81526004016115e39291906120ff565b5f604051808303815f875af11580156115fe573d5f5f3e3d5ffd5b505050506040513d5f823e3d601f19601f8201168201806040525081019061162691906122be565b809450819550829650839750505050505f5f1b85606001351461168d575f61164c6116d4565b90508086606001351461168b576040517f6f0632bf00000000000000000000000000000000000000000000000000000000815260040160405180910390fd5b505b9193509193565b5f815c90505f5f90505b818110156116cf575f8160010191508184015c90506116c66116c0858361156d565b8261171f565b5f845d5061169e565b505050565b5f6040518060805f833e608082015b80831015611713578251602081833e815160061b6020820191508082843e808320855250506020830192506116e3565b50608081209250505090565b5f61172983611953565b90505f5f90505b8181101561194a575f5f5f8360010193508387015c9250825f528660205260405f209050805c91505f820361176757505050611945565b5f6001831690508260011d92505f825d8015611919575f600183015c90507ffffffffffffffffffffffffffffffffffffffffffffffffffffffffffffffffe81036117f8575f8412156117e6576040517f778214eb00000000000000000000000000000000000000000000000000000000815260040160405180910390fd5b6117f38886865f03610e11565b611913565b7fffffffffffffffffffffffffffffffffffffffffffffffffffffffffffffffff81036118535761184e88867f8000000000000000000000000000000000000000000000000000000000000000875f0301610e11565b611912565b6001810361188d5761188888867f80000000000000000000000000000000000000000000000000000000000000008701610b71565b611911565b600281036118de575f84126118ce576040517f778214eb00000000000000000000000000000000000000000000000000000000815260040160405180910390fd5b6118d9888686610b71565b611910565b6040517f778214eb00000000000000000000000000000000000000000000000000000000815260040160405180910390fd5b5b5b5b50611940565b5f8312156119335761192e8785855f03610e11565b61193f565b61193e878585610b71565b5b5b505050505b611730565b505f835d505050565b5f815c9050919050565b5f604051905090565b5f5ffd5b5f5ffd5b5f73ffffffffffffffffffffffffffffffffffffffff82169050919050565b5f6119978261196e565b9050919050565b6119a78161198d565b81146119b1575f5ffd5b50565b5f813590506119c28161199e565b92915050565b5f819050919050565b6119da816119c8565b81146119e4575f5ffd5b50565b5f813590506119f5816119d1565b92915050565b5f5f60408385031215611a1157611a10611966565b5b5f611a1e858286016119b4565b9250506020611a2f858286016119e7565b9150509250929050565b611a42816119c8565b82525050565b5f602082019050611a5b5f830184611a39565b92915050565b5f5f5f60608486031215611a7857611a77611966565b5b5f611a85868287016119b4565b9350506020611a96868287016119e7565b9250506040611aa7868287016119e7565b9150509250925092565b5f8115159050919050565b611ac581611ab1565b82525050565b5f602082019050611ade5f830184611abc565b92915050565b5f5ffd5b5f5ffd5b5f5ffd5b5f5f83601f840112611b0557611b04611ae4565b5b8235905067ffffffffffffffff811115611b2257611b21611ae8565b5b602083019150836040820283011115611b3e57611b3d611aec565b5b9250929050565b5f5f60208385031215611b5b57611b5a611966565b5b5f83013567ffffffffffffffff811115611b7857611b7761196a565b5b611b8485828601611af0565b92509250509250929050565b5f5f83601f840112611ba557611ba4611ae4565b5b8235905067ffffffffffffffff811115611bc257611bc1611ae8565b5b602083019150836020820283011115611bde57611bdd611aec565b5b9250929050565b5f5f60208385031215611bfb57611bfa611966565b5b5f83013567ffffffffffffffff811115611c1857611c1761196a565b5b611c2485828601611b90565b92509250509250929050565b611c3981611ab1565b8114611c43575f5ffd5b50565b5f81359050611c5481611c30565b92915050565b5f5f60408385031215611c7057611c6f611966565b5b5f611c7d858286016119b4565b9250506020611c8e85828601611c46565b9150509250929050565b5f5f5f60608486031215611caf57611cae611966565b5b5f611cbc868287016119b4565b9350506020611ccd868287016119b4565b9250506040611cde868287016119e7565b9150509250925092565b5f5f5f60408486031215611cff57611cfe611966565b5b5f611d0c868287016119b4565b935050602084013567ffffffffffffffff811115611d2d57611d2c61196a565b5b611d3986828701611b90565b92509250509250925092565b5f60208284031215611d5a57611d59611966565b5b5f611d67848285016119e7565b91505092915050565b5f5f60408385031215611d8657611d85611966565b5b5f611d93858286016119e7565b9250506020611da4858286016119e7565b9150509250929050565b5f5f60408385031215611dc457611dc3611966565b5b5f611dd1858286016119b4565b9250506020611de2858286016119b4565b9150509250929050565b5f5f5f60408486031215611e0357611e02611966565b5b5f611e10868287016119b4565b935050602084013567ffffffffffffffff811115611e3157611e3061196a565b5b611e3d86828701611af0565b92509250509250925092565b5f5f5f5f60808587031215611e6157611e60611966565b5b5f611e6e878288016119b4565b9450506020611e7f878288016119b4565b9350506040611e90878288016119e7565b9250506060611ea1878288016119e7565b91505092959194509250565b7f4e487b71000000000000000000000000000000000000000000000000000000005f52603260045260245ffd5b5f5ffd5b5f5ffd5b5f5ffd5b5f82356001608003833603038112611f0157611f00611eda565b5b80830191505092915050565b7f4e487b71000000000000000000000000000000000000000000000000000000005f52601160045260245ffd5b5f611f44826119c8565b9150611f4f836119c8565b9250828201905080821115611f6757611f66611f0d565b5b92915050565b5f82825260208201905092915050565b7f496e73756666696369656e742062616c616e63650000000000000000000000005f82015250565b5f611fb1601483611f6d565b9150611fbc82611f7d565b602082019050919050565b5f6020820190508181035f830152611fde81611fa5565b9050919050565b5f611fef826119c8565b9150611ffa836119c8565b925082820390508181111561201257612011611f0d565b5b92915050565b5f6020828403121561202d5761202c611966565b5b5f61203a848285016119b4565b91505092915050565b5f5f8335600160200384360303811261205f5761205e611eda565b5b80840192508235915067ffffffffffffffff82111561208157612080611ede565b5b60208301925060018202360383131561209d5761209c611ee2565b5b509250929050565b5f82825260208201905092915050565b828183375f83830152505050565b5f601f19601f8301169050919050565b5f6120de83856120a5565b93506120eb8385846120b5565b6120f4836120c3565b840190509392505050565b5f6020820190508181035f8301526121188184866120d3565b90509392505050565b7f4e487b71000000000000000000000000000000000000000000000000000000005f52604160045260245ffd5b612157826120c3565b810181811067ffffffffffffffff8211171561217657612175612121565b5b80604052505050565b5f61218861195d565b9050612194828261214e565b919050565b5f67ffffffffffffffff8211156121b3576121b2612121565b5b602082029050602081019050919050565b5f5ffd5b5f815190506121d6816119d1565b92915050565b5f604082840312156121f1576121f06121c4565b5b6121fb604061217f565b90505f61220a848285016121c8565b5f83015250602061221d848285016121c8565b60208301525092915050565b5f61223b61223684612199565b61217f565b9050808382526020820190506040840283018581111561225e5761225d611aec565b5b835b81811015612287578061227388826121dc565b845260208401935050604081019050612260565b5050509392505050565b5f82601f8301126122a5576122a4611ae4565b5b81516122b5848260208601612229565b91505092915050565b5f5f5f5f608085870312156122d6576122d5611966565b5b5f85015167ffffffffffffffff8111156122f3576122f261196a565b5b6122ff87828801612291565b945050602085015167ffffffffffffffff8111156123205761231f61196a565b5b61232c87828801612291565b935050604085015167ffffffffffffffff81111561234d5761234c61196a565b5b61235987828801612291565b925050606085015167ffffffffffffffff81111561237a5761237961196a565b5b61238687828801612291565b9150509295919450925056fea264697066735822122002f187ecc8e764fa0c275ebcefed038f60c2d4cb42ccaf086207a0562eed62cf64736f6c634300081c0033",
			"opcodes": "PUSH1 0x80 PUSH1 0x40 MSTORE CALLVALUE DUP1 ISZERO PUSH1 0xE JUMPI PUSH0 PUSH0 REVERT JUMPDEST POP PUSH2 0x23C8 DUP1 PUSH2 0x1C PUSH0 CODECOPY PUSH0 RETURN INVALID PUSH1 0x80 PUSH1 0x40 MSTORE CALLVALUE DUP1 ISZERO PUSH2 0xF JUMPI PUSH0 PUSH0 REVERT JUMPDEST POP PUSH1 0x4 CALLDATASIZE LT PUSH2 0x113 JUMPI PUSH0 CALLDATALOAD PUSH1 0xE0 SHR DUP1 PUSH4 0x62BA62E5 GT PUSH2 0xA0 JUMPI DUP1 PUSH4 0xB6363CF2 GT PUSH2 0x6F JUMPI DUP1 PUSH4 0xB6363CF2 EQ PUSH2 0x2FB JUMPI DUP1 PUSH4 0xE3033041 EQ PUSH2 0x32B JUMPI DUP1 PUSH4 0xE747F31C EQ PUSH2 0x347 JUMPI DUP1 PUSH4 0xF3178DD1 EQ PUSH2 0x363 JUMPI DUP1 PUSH4 0xFE99049A EQ PUSH2 0x37F JUMPI PUSH2 0x113 JUMP JUMPDEST DUP1 PUSH4 0x62BA62E5 EQ PUSH2 0x277 JUMPI DUP1 PUSH4 0xA42BFF86 EQ PUSH2 0x293 JUMPI DUP1 PUSH4 0xAB7CCC1C EQ PUSH2 0x2C3 JUMPI DUP1 PUSH4 0xB390C0AB EQ PUSH2 0x2DF JUMPI PUSH2 0x113 JUMP JUMPDEST DUP1 PUSH4 0x36223AC2 GT PUSH2 0xE7 JUMPI DUP1 PUSH4 0x36223AC2 EQ PUSH2 0x1AF JUMPI DUP1 PUSH4 0x426A8493 EQ PUSH2 0x1CB JUMPI DUP1 PUSH4 0x52D2ACCF EQ PUSH2 0x1FB JUMPI DUP1 PUSH4 0x558A7297 EQ PUSH2 0x217 JUMPI DUP1 PUSH4 0x598AF9E7 EQ PUSH2 0x247 JUMPI PUSH2 0x113 JUMP JUMPDEST DUP1 PUSH3 0xFDD58E EQ PUSH2 0x117 JUMPI DUP1 PUSH4 0x95BCDB6 EQ PUSH2 0x147 JUMPI DUP1 PUSH4 0x156E29F6 EQ PUSH2 0x177 JUMPI DUP1 PUSH4 0x355F580E EQ PUSH2 0x193 JUMPI JUMPDEST PUSH0 PUSH0 REVERT JUMPDEST PUSH2 0x131 PUSH1 0x4 DUP1 CALLDATASIZE SUB DUP2 ADD SWAP1 PUSH2 0x12C SWAP2 SWAP1 PUSH2 0x19FB JUMP JUMPDEST PUSH2 0x3AF JUMP JUMPDEST PUSH1 0x40 MLOAD PUSH2 0x13E SWAP2 SWAP1 PUSH2 0x1A48 JUMP JUMPDEST PUSH1 0x40 MLOAD DUP1 SWAP2 SUB SWAP1 RETURN JUMPDEST PUSH2 0x161 PUSH1 0x4 DUP1 CALLDATASIZE SUB DUP2 ADD SWAP1 PUSH2 0x15C SWAP2 SWAP1 PUSH2 0x1A61 JUMP JUMPDEST PUSH2 0x3CF JUMP JUMPDEST PUSH1 0x40 MLOAD PUSH2 0x16E SWAP2 SWAP1 PUSH2 0x1ACB JUMP JUMPDEST PUSH1 0x40 MLOAD DUP1 SWAP2 SUB SWAP1 RETURN JUMPDEST PUSH2 0x191 PUSH1 0x4 DUP1 CALLDATASIZE SUB DUP2 ADD SWAP1 PUSH2 0x18C SWAP2 SWAP1 PUSH2 0x1A61 JUMP JUMPDEST PUSH2 0x3E7 JUMP JUMPDEST STOP JUMPDEST PUSH2 0x1AD PUSH1 0x4 DUP1 CALLDATASIZE SUB DUP2 ADD SWAP1 PUSH2 0x1A8 SWAP2 SWAP1 PUSH2 0x1B45 JUMP JUMPDEST PUSH2 0x400 JUMP JUMPDEST STOP JUMPDEST PUSH2 0x1C9 PUSH1 0x4 DUP1 CALLDATASIZE SUB DUP2 ADD SWAP1 PUSH2 0x1C4 SWAP2 SWAP1 PUSH2 0x1B45 JUMP JUMPDEST PUSH2 0x496 JUMP JUMPDEST STOP JUMPDEST PUSH2 0x1E5 PUSH1 0x4 DUP1 CALLDATASIZE SUB DUP2 ADD SWAP1 PUSH2 0x1E0 SWAP2 SWAP1 PUSH2 0x1A61 JUMP JUMPDEST PUSH2 0x508 JUMP JUMPDEST PUSH1 0x40 MLOAD PUSH2 0x1F2 SWAP2 SWAP1 PUSH2 0x1ACB JUMP JUMPDEST PUSH1 0x40 MLOAD DUP1 SWAP2 SUB SWAP1 RETURN JUMPDEST PUSH2 0x215 PUSH1 0x4 DUP1 CALLDATASIZE SUB DUP2 ADD SWAP1 PUSH2 0x210 SWAP2 SWAP1 PUSH2 0x1BE5 JUMP JUMPDEST PUSH2 0x606 JUMP JUMPDEST STOP JUMPDEST PUSH2 0x231 PUSH1 0x4 DUP1 CALLDATASIZE SUB DUP2 ADD SWAP1 PUSH2 0x22C SWAP2 SWAP1 PUSH2 0x1C5A JUMP JUMPDEST PUSH2 0x667 JUMP JUMPDEST PUSH1 0x40 MLOAD PUSH2 0x23E SWAP2 SWAP1 PUSH2 0x1ACB JUMP JUMPDEST PUSH1 0x40 MLOAD DUP1 SWAP2 SUB SWAP1 RETURN JUMPDEST PUSH2 0x261 PUSH1 0x4 DUP1 CALLDATASIZE SUB DUP2 ADD SWAP1 PUSH2 0x25C SWAP2 SWAP1 PUSH2 0x1C98 JUMP JUMPDEST PUSH2 0x765 JUMP JUMPDEST PUSH1 0x40 MLOAD PUSH2 0x26E SWAP2 SWAP1 PUSH2 0x1A48 JUMP JUMPDEST PUSH1 0x40 MLOAD DUP1 SWAP2 SUB SWAP1 RETURN JUMPDEST PUSH2 0x291 PUSH1 0x4 DUP1 CALLDATASIZE SUB DUP2 ADD SWAP1 PUSH2 0x28C SWAP2 SWAP1 PUSH2 0x1CE8 JUMP JUMPDEST PUSH2 0x790 JUMP JUMPDEST STOP JUMPDEST PUSH2 0x2AD PUSH1 0x4 DUP1 CALLDATASIZE SUB DUP2 ADD SWAP1 PUSH2 0x2A8 SWAP2 SWAP1 PUSH2 0x1D45 JUMP JUMPDEST PUSH2 0x801 JUMP JUMPDEST PUSH1 0x40 MLOAD PUSH2 0x2BA SWAP2 SWAP1 PUSH2 0x1A48 JUMP JUMPDEST PUSH1 0x40 MLOAD DUP1 SWAP2 SUB SWAP1 RETURN JUMPDEST PUSH2 0x2DD PUSH1 0x4 DUP1 CALLDATASIZE SUB DUP2 ADD SWAP1 PUSH2 0x2D8 SWAP2 SWAP1 PUSH2 0x1D70 JUMP JUMPDEST PUSH2 0x80B JUMP JUMPDEST STOP JUMPDEST PUSH2 0x2F9 PUSH1 0x4 DUP1 CALLDATASIZE SUB DUP2 ADD SWAP1 PUSH2 0x2F4 SWAP2 SWAP1 PUSH2 0x1D70 JUMP JUMPDEST PUSH2 0x85A JUMP JUMPDEST STOP JUMPDEST PUSH2 0x315 PUSH1 0x4 DUP1 CALLDATASIZE SUB DUP2 ADD SWAP1 PUSH2 0x310 SWAP2 SWAP1 PUSH2 0x1DAE JUMP JUMPDEST PUSH2 0x872 JUMP JUMPDEST PUSH1 0x40 MLOAD PUSH2 0x322 SWAP2 SWAP1 PUSH2 0x1ACB JUMP JUMPDEST PUSH1 0x40 MLOAD DUP1 SWAP2 SUB SWAP1 RETURN JUMPDEST PUSH2 0x345 PUSH1 0x4 DUP1 CALLDATASIZE SUB DUP2 ADD SWAP1 PUSH2 0x340 SWAP2 SWAP1 PUSH2 0x1B45 JUMP JUMPDEST PUSH2 0x89B JUMP JUMPDEST STOP JUMPDEST PUSH2 0x361 PUSH1 0x4 DUP1 CALLDATASIZE SUB DUP2 ADD SWAP1 PUSH2 0x35C SWAP2 SWAP1 PUSH2 0x1D70 JUMP JUMPDEST PUSH2 0x931 JUMP JUMPDEST STOP JUMPDEST PUSH2 0x37D PUSH1 0x4 DUP1 CALLDATASIZE SUB DUP2 ADD SWAP1 PUSH2 0x378 SWAP2 SWAP1 PUSH2 0x1DEC JUMP JUMPDEST PUSH2 0x980 JUMP JUMPDEST STOP JUMPDEST PUSH2 0x399 PUSH1 0x4 DUP1 CALLDATASIZE SUB DUP2 ADD SWAP1 PUSH2 0x394 SWAP2 SWAP1 PUSH2 0x1E49 JUMP JUMPDEST PUSH2 0x9F3 JUMP JUMPDEST PUSH1 0x40 MLOAD PUSH2 0x3A6 SWAP2 SWAP1 PUSH2 0x1ACB JUMP JUMPDEST PUSH1 0x40 MLOAD DUP1 SWAP2 SUB SWAP1 RETURN JUMPDEST PUSH1 0x1 PUSH1 0x20 MSTORE DUP2 PUSH0 MSTORE PUSH1 0x40 PUSH0 KECCAK256 PUSH1 0x20 MSTORE DUP1 PUSH0 MSTORE PUSH1 0x40 PUSH0 KECCAK256 PUSH0 SWAP2 POP SWAP2 POP POP SLOAD DUP2 JUMP JUMPDEST PUSH0 PUSH2 0x3DC CALLER DUP6 DUP6 DUP6 PUSH2 0xADA JUMP JUMPDEST PUSH1 0x1 SWAP1 POP SWAP4 SWAP3 POP POP POP JUMP JUMPDEST PUSH2 0x3FB DUP4 PUSH2 0x3F5 CALLER DUP6 PUSH2 0xB5C JUMP JUMPDEST DUP4 PUSH2 0xB71 JUMP JUMPDEST POP POP POP JUMP JUMPDEST PUSH0 PUSH2 0x409 PUSH2 0xC27 JUMP JUMPDEST SWAP1 POP PUSH0 PUSH0 PUSH2 0x417 DUP4 CALLER PUSH2 0xD32 JUMP JUMPDEST SWAP2 POP SWAP2 POP PUSH0 DUP6 DUP6 SWAP1 POP SWAP1 POP PUSH0 PUSH0 SWAP1 POP JUMPDEST DUP2 DUP2 LT ISZERO PUSH2 0x483 JUMPI CALLDATASIZE DUP8 DUP8 DUP4 DUP2 DUP2 LT PUSH2 0x443 JUMPI PUSH2 0x442 PUSH2 0x1EAD JUMP JUMPDEST JUMPDEST SWAP1 POP PUSH1 0x40 MUL ADD SWAP1 POP PUSH0 DUP2 PUSH0 ADD CALLDATALOAD SWAP1 POP PUSH0 DUP3 PUSH1 0x20 ADD CALLDATALOAD SWAP1 POP PUSH2 0x466 DUP8 DUP8 DUP5 DUP5 PUSH2 0xD5F JUMP JUMPDEST SWAP6 POP PUSH2 0x473 CALLER DUP4 DUP4 PUSH2 0xB71 JUMP JUMPDEST POP POP POP DUP1 DUP1 PUSH1 0x1 ADD SWAP2 POP POP PUSH2 0x427 JUMP JUMPDEST POP PUSH2 0x48E DUP4 DUP4 PUSH2 0xE0A JUMP JUMPDEST POP POP POP POP POP POP JUMP JUMPDEST PUSH0 DUP3 DUP3 SWAP1 POP SWAP1 POP PUSH0 PUSH0 SWAP1 POP JUMPDEST DUP2 DUP2 LT ISZERO PUSH2 0x502 JUMPI PUSH2 0x4F5 CALLER PUSH2 0x4D3 CALLER DUP8 DUP8 DUP7 DUP2 DUP2 LT PUSH2 0x4C5 JUMPI PUSH2 0x4C4 PUSH2 0x1EAD JUMP JUMPDEST JUMPDEST SWAP1 POP PUSH1 0x40 MUL ADD PUSH0 ADD CALLDATALOAD PUSH2 0xB5C JUMP JUMPDEST DUP7 DUP7 DUP6 DUP2 DUP2 LT PUSH2 0x4E6 JUMPI PUSH2 0x4E5 PUSH2 0x1EAD JUMP JUMPDEST JUMPDEST SWAP1 POP PUSH1 0x40 MUL ADD PUSH1 0x20 ADD CALLDATALOAD PUSH2 0xE11 JUMP JUMPDEST DUP1 DUP1 PUSH1 0x1 ADD SWAP2 POP POP PUSH2 0x4A2 JUMP JUMPDEST POP POP POP POP JUMP JUMPDEST PUSH0 DUP2 PUSH1 0x2 PUSH0 CALLER PUSH20 0xFFFFFFFFFFFFFFFFFFFFFFFFFFFFFFFFFFFFFFFF AND PUSH20 0xFFFFFFFFFFFFFFFFFFFFFFFFFFFFFFFFFFFFFFFF AND DUP2 MSTORE PUSH1 0x20 ADD SWAP1 DUP2 MSTORE PUSH1 0x20 ADD PUSH0 KECCAK256 PUSH0 DUP7 PUSH20 0xFFFFFFFFFFFFFFFFFFFFFFFFFFFFFFFFFFFFFFFF AND PUSH20 0xFFFFFFFFFFFFFFFFFFFFFFFFFFFFFFFFFFFFFFFF AND DUP2 MSTORE PUSH1 0x20 ADD SWAP1 DUP2 MSTORE PUSH1 0x20 ADD PUSH0 KECCAK256 PUSH0 DUP6 DUP2 MSTORE PUSH1 0x20 ADD SWAP1 DUP2 MSTORE PUSH1 0x20 ADD PUSH0 KECCAK256 DUP2 SWAP1 SSTORE POP DUP3 DUP5 PUSH20 0xFFFFFFFFFFFFFFFFFFFFFFFFFFFFFFFFFFFFFFFF AND CALLER PUSH20 0xFFFFFFFFFFFFFFFFFFFFFFFFFFFFFFFFFFFFFFFF AND PUSH32 0xB3FD5071835887567A0671151121894DDCCC2842F1D10BEDAD13E0D17CACE9A7 DUP6 PUSH1 0x40 MLOAD PUSH2 0x5F3 SWAP2 SWAP1 PUSH2 0x1A48 JUMP JUMPDEST PUSH1 0x40 MLOAD DUP1 SWAP2 SUB SWAP1 LOG4 PUSH1 0x1 SWAP1 POP SWAP4 SWAP3 POP POP POP JUMP JUMPDEST PUSH0 PUSH2 0x60F PUSH2 0xC27 JUMP JUMPDEST SWAP1 POP PUSH0 DUP4 DUP4 SWAP1 POP SWAP1 POP PUSH0 PUSH0 SWAP1 POP JUMPDEST DUP2 DUP2 LT ISZERO PUSH2 0x660 JUMPI PUSH2 0x653 DUP6 DUP6 DUP4 DUP2 DUP2 LT PUSH2 0x63B JUMPI PUSH2 0x63A PUSH2 0x1EAD JUMP JUMPDEST JUMPDEST SWAP1 POP PUSH1 0x20 MUL DUP2 ADD SWAP1 PUSH2 0x64D SWAP2 SWAP1 PUSH2 0x1EE6 JUMP JUMPDEST DUP5 PUSH2 0xF56 JUMP JUMPDEST DUP1 DUP1 PUSH1 0x1 ADD SWAP2 POP POP PUSH2 0x61D JUMP JUMPDEST POP POP POP POP POP JUMP JUMPDEST PUSH0 DUP2 PUSH0 PUSH0 CALLER PUSH20 0xFFFFFFFFFFFFFFFFFFFFFFFFFFFFFFFFFFFFFFFF AND PUSH20 0xFFFFFFFFFFFFFFFFFFFFFFFFFFFFFFFFFFFFFFFF AND DUP2 MSTORE PUSH1 0x20 ADD SWAP1 DUP2 MSTORE PUSH1 0x20 ADD PUSH0 KECCAK256 PUSH0 DUP6 PUSH20 0xFFFFFFFFFFFFFFFFFFFFFFFFFFFFFFFFFFFFFFFF AND PUSH20 0xFFFFFFFFFFFFFFFFFFFFFFFFFFFFFFFFFFFFFFFF AND DUP2 MSTORE PUSH1 0x20 ADD SWAP1 DUP2 MSTORE PUSH1 0x20 ADD PUSH0 KECCAK256 PUSH0 PUSH2 0x100 EXP DUP2 SLOAD DUP2 PUSH1 0xFF MUL NOT AND SWAP1 DUP4 ISZERO ISZERO MUL OR SWAP1 SSTORE POP DUP3 PUSH20 0xFFFFFFFFFFFFFFFFFFFFFFFFFFFFFFFFFFFFFFFF AND CALLER PUSH20 0xFFFFFFFFFFFFFFFFFFFFFFFFFFFFFFFFFFFFFFFF AND PUSH32 0xCEB576D9F15E4E200FDB5096D64D5DFD667E16DEF20C1EEFD14256D8E3FAA267 DUP5 PUSH1 0x40 MLOAD PUSH2 0x753 SWAP2 SWAP1 PUSH2 0x1ACB JUMP JUMPDEST PUSH1 0x40 MLOAD DUP1 SWAP2 SUB SWAP1 LOG3 PUSH1 0x1 SWAP1 POP SWAP3 SWAP2 POP POP JUMP JUMPDEST PUSH1 0x2 PUSH1 0x20 MSTORE DUP3 PUSH0 MSTORE PUSH1 0x40 PUSH0 KECCAK256 PUSH1 0x20 MSTORE DUP2 PUSH0 MSTORE PUSH1 0x40 PUSH0 KECCAK256 PUSH1 0x20 MSTORE DUP1 PUSH0 MSTORE PUSH1 0x40 PUSH0 KECCAK256 PUSH0 SWAP3 POP SWAP3 POP POP POP SLOAD DUP2 JUMP JUMPDEST PUSH0 PUSH0 PUSH2 0x79B DUP6 PUSH2 0x1330 JUMP JUMPDEST SWAP2 POP SWAP2 POP PUSH0 DUP5 DUP5 SWAP1 POP SWAP1 POP PUSH0 PUSH0 SWAP1 POP JUMPDEST DUP2 DUP2 LT ISZERO PUSH2 0x7EE JUMPI PUSH2 0x7E1 DUP7 DUP7 DUP4 DUP2 DUP2 LT PUSH2 0x7C9 JUMPI PUSH2 0x7C8 PUSH2 0x1EAD JUMP JUMPDEST JUMPDEST SWAP1 POP PUSH1 0x20 MUL DUP2 ADD SWAP1 PUSH2 0x7DB SWAP2 SWAP1 PUSH2 0x1EE6 JUMP JUMPDEST DUP6 PUSH2 0xF56 JUMP JUMPDEST DUP1 DUP1 PUSH1 0x1 ADD SWAP2 POP POP PUSH2 0x7AB JUMP JUMPDEST POP PUSH2 0x7F9 DUP3 DUP5 PUSH2 0x1362 JUMP JUMPDEST POP POP POP POP POP POP JUMP JUMPDEST PUSH0 DUP2 TLOAD SWAP1 POP SWAP2 SWAP1 POP JUMP JUMPDEST PUSH0 PUSH2 0x814 PUSH2 0xC27 JUMP JUMPDEST SWAP1 POP PUSH0 PUSH0 PUSH2 0x822 DUP4 CALLER PUSH2 0xD32 JUMP JUMPDEST SWAP2 POP SWAP2 POP PUSH0 PUSH2 0x833 DUP4 DUP4 DUP9 DUP9 PUSH2 0xD5F JUMP JUMPDEST SWAP1 POP DUP1 DUP3 EQ PUSH2 0x847 JUMPI PUSH2 0x846 DUP4 DUP3 PUSH2 0xE0A JUMP JUMPDEST JUMPDEST PUSH2 0x852 CALLER DUP8 DUP8 PUSH2 0xB71 JUMP JUMPDEST POP POP POP POP POP POP JUMP JUMPDEST PUSH2 0x86E CALLER PUSH2 0x868 CALLER DUP6 PUSH2 0xB5C JUMP JUMPDEST DUP4 PUSH2 0xE11 JUMP JUMPDEST POP POP JUMP JUMPDEST PUSH0 PUSH1 0x20 MSTORE DUP2 PUSH0 MSTORE PUSH1 0x40 PUSH0 KECCAK256 PUSH1 0x20 MSTORE DUP1 PUSH0 MSTORE PUSH1 0x40 PUSH0 KECCAK256 PUSH0 SWAP2 POP SWAP2 POP SWAP1 SLOAD SWAP1 PUSH2 0x100 EXP SWAP1 DIV PUSH1 0xFF AND DUP2 JUMP JUMPDEST PUSH0 PUSH2 0x8A4 PUSH2 0xC27 JUMP JUMPDEST SWAP1 POP PUSH0 PUSH0 PUSH2 0x8B2 DUP4 CALLER PUSH2 0xD32 JUMP JUMPDEST SWAP2 POP SWAP2 POP PUSH0 DUP6 DUP6 SWAP1 POP SWAP1 POP PUSH0 PUSH0 SWAP1 POP JUMPDEST DUP2 DUP2 LT ISZERO PUSH2 0x91E JUMPI CALLDATASIZE DUP8 DUP8 DUP4 DUP2 DUP2 LT PUSH2 0x8DE JUMPI PUSH2 0x8DD PUSH2 0x1EAD JUMP JUMPDEST JUMPDEST SWAP1 POP PUSH1 0x40 MUL ADD SWAP1 POP PUSH0 DUP2 PUSH0 ADD CALLDATALOAD SWAP1 POP PUSH0 DUP3 PUSH1 0x20 ADD CALLDATALOAD SWAP1 POP PUSH2 0x901 DUP8 DUP8 DUP5 DUP5 PUSH2 0x1372 JUMP JUMPDEST SWAP6 POP PUSH2 0x90E CALLER DUP4 DUP4 PUSH2 0xE11 JUMP JUMPDEST POP POP POP DUP1 DUP1 PUSH1 0x1 ADD SWAP2 POP POP PUSH2 0x8C2 JUMP JUMPDEST POP PUSH2 0x929 DUP4 DUP4 PUSH2 0xE0A JUMP JUMPDEST POP POP POP POP POP POP JUMP JUMPDEST PUSH0 PUSH2 0x93A PUSH2 0xC27 JUMP JUMPDEST SWAP1 POP PUSH0 PUSH0 PUSH2 0x948 DUP4 CALLER PUSH2 0xD32 JUMP JUMPDEST SWAP2 POP SWAP2 POP PUSH0 PUSH2 0x959 DUP4 DUP4 DUP9 DUP9 PUSH2 0x1372 JUMP JUMPDEST SWAP1 POP DUP1 DUP3 EQ PUSH2 0x96D JUMPI PUSH2 0x96C DUP4 DUP3 PUSH2 0xE0A JUMP JUMPDEST JUMPDEST PUSH2 0x978 CALLER DUP8 DUP8 PUSH2 0xE11 JUMP JUMPDEST POP POP POP POP POP POP JUMP JUMPDEST PUSH0 DUP3 DUP3 SWAP1 POP SWAP1 POP PUSH0 PUSH0 SWAP1 POP JUMPDEST DUP2 DUP2 LT ISZERO PUSH2 0x9EC JUMPI PUSH2 0x9DF DUP6 PUSH2 0x9BD CALLER DUP8 DUP8 DUP7 DUP2 DUP2 LT PUSH2 0x9AF JUMPI PUSH2 0x9AE PUSH2 0x1EAD JUMP JUMPDEST JUMPDEST SWAP1 POP PUSH1 0x40 MUL ADD PUSH0 ADD CALLDATALOAD PUSH2 0xB5C JUMP JUMPDEST DUP7 DUP7 DUP6 DUP2 DUP2 LT PUSH2 0x9D0 JUMPI PUSH2 0x9CF PUSH2 0x1EAD JUMP JUMPDEST JUMPDEST SWAP1 POP PUSH1 0x40 MUL ADD PUSH1 0x20 ADD CALLDATALOAD PUSH2 0xB71 JUMP JUMPDEST DUP1 DUP1 PUSH1 0x1 ADD SWAP2 POP POP PUSH2 0x98C JUMP JUMPDEST POP POP POP POP POP JUMP JUMPDEST PUSH0 DUP5 PUSH20 0xFFFFFFFFFFFFFFFFFFFFFFFFFFFFFFFFFFFFFFFF AND CALLER PUSH20 0xFFFFFFFFFFFFFFFFFFFFFFFFFFFFFFFFFFFFFFFF AND EQ ISZERO DUP1 ISZERO PUSH2 0xAB1 JUMPI POP PUSH0 PUSH0 DUP7 PUSH20 0xFFFFFFFFFFFFFFFFFFFFFFFFFFFFFFFFFFFFFFFF AND PUSH20 0xFFFFFFFFFFFFFFFFFFFFFFFFFFFFFFFFFFFFFFFF AND DUP2 MSTORE PUSH1 0x20 ADD SWAP1 DUP2 MSTORE PUSH1 0x20 ADD PUSH0 KECCAK256 PUSH0 CALLER PUSH20 0xFFFFFFFFFFFFFFFFFFFFFFFFFFFFFFFFFFFFFFFF AND PUSH20 0xFFFFFFFFFFFFFFFFFFFFFFFFFFFFFFFFFFFFFFFF AND DUP2 MSTORE PUSH1 0x20 ADD SWAP1 DUP2 MSTORE PUSH1 0x20 ADD PUSH0 KECCAK256 PUSH0 SWAP1 SLOAD SWAP1 PUSH2 0x100 EXP SWAP1 DIV PUSH1 0xFF AND ISZERO JUMPDEST ISZERO PUSH2 0xAC2 JUMPI PUSH2 0xAC1 DUP6 DUP5 DUP5 PUSH2 0x141D JUMP JUMPDEST JUMPDEST PUSH2 0xACE DUP6 DUP6 DUP6 DUP6 PUSH2 0xADA JUMP JUMPDEST PUSH1 0x1 SWAP1 POP SWAP5 SWAP4 POP POP POP POP JUMP JUMPDEST PUSH2 0xAE5 DUP5 DUP4 DUP4 PUSH2 0xE11 JUMP JUMPDEST PUSH2 0xAF0 DUP4 DUP4 DUP4 PUSH2 0xB71 JUMP JUMPDEST DUP2 DUP4 PUSH20 0xFFFFFFFFFFFFFFFFFFFFFFFFFFFFFFFFFFFFFFFF AND DUP6 PUSH20 0xFFFFFFFFFFFFFFFFFFFFFFFFFFFFFFFFFFFFFFFF AND PUSH32 0x9ED053BB818FF08B8353CD46F78DB1F0799F31C9E4458FDB425C10ECCD2EFC44 DUP5 PUSH1 0x40 MLOAD PUSH2 0xB4E SWAP2 SWAP1 PUSH2 0x1A48 JUMP JUMPDEST PUSH1 0x40 MLOAD DUP1 SWAP2 SUB SWAP1 LOG4 POP POP POP POP JUMP JUMPDEST PUSH0 DUP3 PUSH0 MSTORE DUP2 PUSH1 0x20 MSTORE PUSH1 0x34 PUSH1 0xC KECCAK256 SWAP1 POP SWAP3 SWAP2 POP POP JUMP JUMPDEST DUP1 PUSH1 0x1 PUSH0 DUP6 PUSH20 0xFFFFFFFFFFFFFFFFFFFFFFFFFFFFFFFFFFFFFFFF AND PUSH20 0xFFFFFFFFFFFFFFFFFFFFFFFFFFFFFFFFFFFFFFFF AND DUP2 MSTORE PUSH1 0x20 ADD SWAP1 DUP2 MSTORE PUSH1 0x20 ADD PUSH0 KECCAK256 PUSH0 DUP5 DUP2 MSTORE PUSH1 0x20 ADD SWAP1 DUP2 MSTORE PUSH1 0x20 ADD PUSH0 KECCAK256 PUSH0 DUP3 DUP3 SLOAD PUSH2 0xBCC SWAP2 SWAP1 PUSH2 0x1F3A JUMP JUMPDEST SWAP3 POP POP DUP2 SWAP1 SSTORE POP DUP2 DUP4 PUSH20 0xFFFFFFFFFFFFFFFFFFFFFFFFFFFFFFFFFFFFFFFF AND PUSH32 0x4C209B5FC8AD50758F13E2E1088BA56A560DFF690A1C6FEF26394F4C03821C4F DUP4 PUSH1 0x40 MLOAD PUSH2 0xC1A SWAP2 SWAP1 PUSH2 0x1A48 JUMP JUMPDEST PUSH1 0x40 MLOAD DUP1 SWAP2 SUB SWAP1 LOG3 POP POP POP JUMP JUMPDEST PUSH0 PUSH0 PUSH0 PUSH0 TLOAD PUSH12 0xFFFFFFFFFFFFFFFFFFFFFFFF DUP2 AND SWAP2 POP DUP1 PUSH1 0x60 SHR SWAP3 POP POP PUSH0 DUP2 SUB PUSH2 0xC7D JUMPI PUSH1 0x40 MLOAD PUSH32 0x97013E4300000000000000000000000000000000000000000000000000000000 DUP2 MSTORE PUSH1 0x4 ADD PUSH1 0x40 MLOAD DUP1 SWAP2 SUB SWAP1 REVERT JUMPDEST PUSH1 0x1 DUP2 SUB PUSH0 MSTORE PUSH0 PUSH1 0x20 MSTORE PUSH1 0x2C PUSH1 0x14 KECCAK256 SWAP3 POP PUSH0 PUSH20 0xFFFFFFFFFFFFFFFFFFFFFFFFFFFFFFFFFFFFFFFF AND DUP3 PUSH20 0xFFFFFFFFFFFFFFFFFFFFFFFFFFFFFFFFFFFFFFFF AND EQ ISZERO DUP1 ISZERO PUSH2 0xCF6 JUMPI POP CALLER PUSH20 0xFFFFFFFFFFFFFFFFFFFFFFFFFFFFFFFFFFFFFFFF AND DUP3 PUSH20 0xFFFFFFFFFFFFFFFFFFFFFFFFFFFFFFFFFFFFFFFF AND EQ ISZERO JUMPDEST ISZERO PUSH2 0xD2D JUMPI PUSH1 0x40 MLOAD PUSH32 0x1230858900000000000000000000000000000000000000000000000000000000 DUP2 MSTORE PUSH1 0x4 ADD PUSH1 0x40 MLOAD DUP1 SWAP2 SUB SWAP1 REVERT JUMPDEST POP POP SWAP1 JUMP JUMPDEST PUSH0 PUSH0 PUSH2 0xD3E DUP5 DUP5 PUSH2 0x156D JUMP JUMPDEST SWAP2 POP DUP2 TLOAD SWAP1 POP DUP1 PUSH2 0xD58 JUMPI PUSH1 0x1 DUP5 TLOAD ADD DUP1 DUP6 TSTORE DUP4 DUP2 DUP7 ADD TSTORE POP JUMPDEST SWAP3 POP SWAP3 SWAP1 POP JUMP JUMPDEST PUSH0 DUP3 PUSH0 MSTORE DUP5 PUSH1 0x20 MSTORE PUSH1 0x40 PUSH0 KECCAK256 DUP1 TLOAD DUP1 PUSH1 0x1 SAR DUP5 DUP2 SUB PUSH1 0x2 DUP2 PUSH1 0xFE SHR EQ DUP2 DUP4 SLT OR PUSH1 0x1 DUP2 EQ PUSH2 0xD97 JUMPI PUSH1 0x1 DUP5 AND DUP3 PUSH1 0x1 SHL OR DUP6 TSTORE PUSH2 0xDE9 JUMP JUMPDEST PUSH1 0x1 DUP6 ADD PUSH32 0x4000000000000000000000000000000000000000000000000000000000000000 DUP4 ADD PUSH1 0xFF SHR PUSH1 0x2 SUB PUSH0 PUSH1 0x1 DUP8 AND ISZERO PUSH2 0xDD3 JUMPI DUP3 TLOAD SWAP1 POP JUMPDEST DUP2 DUP2 SUB SWAP1 POP DUP1 DUP4 TSTORE DUP1 ISZERO ISZERO DUP6 PUSH1 0x1 SHL OR DUP9 TSTORE POP POP POP JUMPDEST POP DUP3 PUSH2 0xDFB JUMPI PUSH1 0x1 DUP9 ADD SWAP8 POP DUP7 DUP9 DUP11 ADD TSTORE JUMPDEST POP POP POP POP DUP4 SWAP1 POP SWAP5 SWAP4 POP POP POP POP JUMP JUMPDEST DUP1 DUP3 TSTORE POP POP JUMP JUMPDEST DUP1 PUSH1 0x1 PUSH0 DUP6 PUSH20 0xFFFFFFFFFFFFFFFFFFFFFFFFFFFFFFFFFFFFFFFF AND PUSH20 0xFFFFFFFFFFFFFFFFFFFFFFFFFFFFFFFFFFFFFFFF AND DUP2 MSTORE PUSH1 0x20 ADD SWAP1 DUP2 MSTORE PUSH1 0x20 ADD PUSH0 KECCAK256 PUSH0 DUP5 DUP2 MSTORE PUSH1 0x20 ADD SWAP1 DUP2 MSTORE PUSH1 0x20 ADD PUSH0 KECCAK256 SLOAD LT ISZERO PUSH2 0xEA0 JUMPI PUSH1 0x40 MLOAD PUSH32 0x8C379A000000000000000000000000000000000000000000000000000000000 DUP2 MSTORE PUSH1 0x4 ADD PUSH2 0xE97 SWAP1 PUSH2 0x1FC7 JUMP JUMPDEST PUSH1 0x40 MLOAD DUP1 SWAP2 SUB SWAP1 REVERT JUMPDEST DUP1 PUSH1 0x1 PUSH0 DUP6 PUSH20 0xFFFFFFFFFFFFFFFFFFFFFFFFFFFFFFFFFFFFFFFF AND PUSH20 0xFFFFFFFFFFFFFFFFFFFFFFFFFFFFFFFFFFFFFFFF AND DUP2 MSTORE PUSH1 0x20 ADD SWAP1 DUP2 MSTORE PUSH1 0x20 ADD PUSH0 KECCAK256 PUSH0 DUP5 DUP2 MSTORE PUSH1 0x20 ADD SWAP1 DUP2 MSTORE PUSH1 0x20 ADD PUSH0 KECCAK256 PUSH0 DUP3 DUP3 SLOAD PUSH2 0xEFB SWAP2 SWAP1 PUSH2 0x1FE5 JUMP JUMPDEST SWAP3 POP POP DUP2 SWAP1 SSTORE POP DUP2 DUP4 PUSH20 0xFFFFFFFFFFFFFFFFFFFFFFFFFFFFFFFFFFFFFFFF AND PUSH32 0x49995E5DD6158CF69AD3E9777C46755A1A826A446C6416992167462DAD033B2A DUP4 PUSH1 0x40 MLOAD PUSH2 0xF49 SWAP2 SWAP1 PUSH2 0x1A48 JUMP JUMPDEST PUSH1 0x40 MLOAD DUP1 SWAP2 SUB SWAP1 LOG3 POP POP POP JUMP JUMPDEST PUSH0 DUP3 PUSH1 0x20 ADD PUSH1 0x20 DUP2 ADD SWAP1 PUSH2 0xF6A SWAP2 SWAP1 PUSH2 0x2018 JUMP JUMPDEST SWAP1 POP PUSH0 PUSH0 DUP5 PUSH0 ADD PUSH1 0x20 DUP2 ADD SWAP1 PUSH2 0xF80 SWAP2 SWAP1 PUSH2 0x2018 JUMP JUMPDEST SWAP1 POP PUSH0 PUSH20 0xFFFFFFFFFFFFFFFFFFFFFFFFFFFFFFFFFFFFFFFF AND DUP2 PUSH20 0xFFFFFFFFFFFFFFFFFFFFFFFFFFFFFFFFFFFFFFFF AND SUB PUSH2 0xFBD JUMPI CALLER SWAP1 POP PUSH2 0x1085 JUMP JUMPDEST CALLER PUSH20 0xFFFFFFFFFFFFFFFFFFFFFFFFFFFFFFFFFFFFFFFF AND DUP2 PUSH20 0xFFFFFFFFFFFFFFFFFFFFFFFFFFFFFFFFFFFFFFFF AND EQ ISZERO DUP1 ISZERO PUSH2 0x107A JUMPI POP PUSH0 PUSH0 DUP3 PUSH20 0xFFFFFFFFFFFFFFFFFFFFFFFFFFFFFFFFFFFFFFFF AND PUSH20 0xFFFFFFFFFFFFFFFFFFFFFFFFFFFFFFFFFFFFFFFF AND DUP2 MSTORE PUSH1 0x20 ADD SWAP1 DUP2 MSTORE PUSH1 0x20 ADD PUSH0 KECCAK256 PUSH0 CALLER PUSH20 0xFFFFFFFFFFFFFFFFFFFFFFFFFFFFFFFFFFFFFFFF AND PUSH20 0xFFFFFFFFFFFFFFFFFFFFFFFFFFFFFFFFFFFFFFFF AND DUP2 MSTORE PUSH1 0x20 ADD SWAP1 DUP2 MSTORE PUSH1 0x20 ADD PUSH0 KECCAK256 PUSH0 SWAP1 SLOAD SWAP1 PUSH2 0x100 EXP SWAP1 DIV PUSH1 0xFF AND ISZERO JUMPDEST ISZERO PUSH2 0x1084 JUMPI PUSH1 0x1 SWAP2 POP JUMPDEST JUMPDEST PUSH0 PUSH0 PUSH0 PUSH0 PUSH2 0x1092 DUP10 PUSH2 0x1582 JUMP JUMPDEST SWAP4 POP SWAP4 POP SWAP4 POP SWAP4 POP PUSH0 PUSH0 PUSH2 0x10A6 DUP11 DUP9 PUSH2 0xD32 JUMP JUMPDEST SWAP2 POP SWAP2 POP PUSH0 PUSH0 SWAP1 POP JUMPDEST DUP7 MLOAD DUP2 LT ISZERO PUSH2 0x1117 JUMPI PUSH2 0x1108 DUP4 DUP4 PUSH2 0x10E4 DUP14 DUP12 DUP7 DUP2 MLOAD DUP2 LT PUSH2 0x10D4 JUMPI PUSH2 0x10D3 PUSH2 0x1EAD JUMP JUMPDEST JUMPDEST PUSH1 0x20 MUL PUSH1 0x20 ADD ADD MLOAD PUSH0 ADD MLOAD PUSH2 0xB5C JUMP JUMPDEST DUP11 DUP6 DUP2 MLOAD DUP2 LT PUSH2 0x10F7 JUMPI PUSH2 0x10F6 PUSH2 0x1EAD JUMP JUMPDEST JUMPDEST PUSH1 0x20 MUL PUSH1 0x20 ADD ADD MLOAD PUSH1 0x20 ADD MLOAD PUSH2 0x1372 JUMP JUMPDEST SWAP2 POP DUP1 DUP1 PUSH1 0x1 ADD SWAP2 POP POP PUSH2 0x10AF JUMP JUMPDEST POP PUSH0 PUSH0 SWAP1 POP JUMPDEST DUP6 MLOAD DUP2 LT ISZERO PUSH2 0x11A1 JUMPI PUSH0 PUSH2 0x114E DUP12 DUP9 DUP5 DUP2 MLOAD DUP2 LT PUSH2 0x113E JUMPI PUSH2 0x113D PUSH2 0x1EAD JUMP JUMPDEST JUMPDEST PUSH1 0x20 MUL PUSH1 0x20 ADD ADD MLOAD PUSH0 ADD MLOAD PUSH2 0xB5C JUMP JUMPDEST SWAP1 POP PUSH0 DUP8 DUP4 DUP2 MLOAD DUP2 LT PUSH2 0x1164 JUMPI PUSH2 0x1163 PUSH2 0x1EAD JUMP JUMPDEST JUMPDEST PUSH1 0x20 MUL PUSH1 0x20 ADD ADD MLOAD PUSH1 0x20 ADD MLOAD SWAP1 POP DUP11 ISZERO PUSH2 0x1184 JUMPI PUSH2 0x1183 DUP11 DUP4 DUP4 PUSH2 0x141D JUMP JUMPDEST JUMPDEST PUSH2 0x1190 DUP6 DUP6 DUP5 DUP5 PUSH2 0xD5F JUMP JUMPDEST SWAP4 POP POP POP DUP1 DUP1 PUSH1 0x1 ADD SWAP2 POP POP PUSH2 0x111D JUMP JUMPDEST POP DUP7 PUSH20 0xFFFFFFFFFFFFFFFFFFFFFFFFFFFFFFFFFFFFFFFF AND DUP10 PUSH20 0xFFFFFFFFFFFFFFFFFFFFFFFFFFFFFFFFFFFFFFFF AND EQ ISZERO DUP1 ISZERO PUSH2 0x11EB JUMPI POP PUSH0 DUP5 MLOAD EQ ISZERO DUP1 PUSH2 0x11EA JUMPI POP PUSH0 DUP4 MLOAD EQ ISZERO JUMPDEST JUMPDEST ISZERO PUSH2 0x1319 JUMPI PUSH0 PUSH0 PUSH2 0x11FC DUP13 DUP13 PUSH2 0xD32 JUMP JUMPDEST SWAP2 POP SWAP2 POP PUSH0 PUSH0 SWAP1 POP JUMPDEST DUP7 MLOAD DUP2 LT ISZERO PUSH2 0x127C JUMPI PUSH0 DUP8 DUP3 DUP2 MLOAD DUP2 LT PUSH2 0x1222 JUMPI PUSH2 0x1221 PUSH2 0x1EAD JUMP JUMPDEST JUMPDEST PUSH1 0x20 MUL PUSH1 0x20 ADD ADD MLOAD PUSH0 ADD MLOAD SWAP1 POP PUSH0 DUP9 DUP4 DUP2 MLOAD DUP2 LT PUSH2 0x1243 JUMPI PUSH2 0x1242 PUSH2 0x1EAD JUMP JUMPDEST JUMPDEST PUSH1 0x20 MUL PUSH1 0x20 ADD ADD MLOAD PUSH1 0x20 ADD MLOAD SWAP1 POP PUSH2 0x125D DUP8 DUP8 DUP5 DUP5 PUSH2 0x1372 JUMP JUMPDEST SWAP6 POP PUSH2 0x126B DUP6 DUP6 DUP5 DUP5 PUSH2 0xD5F JUMP JUMPDEST SWAP4 POP POP POP DUP1 DUP1 PUSH1 0x1 ADD SWAP2 POP POP PUSH2 0x1205 JUMP JUMPDEST POP PUSH0 PUSH0 SWAP1 POP JUMPDEST DUP6 MLOAD DUP2 LT ISZERO PUSH2 0x130B JUMPI PUSH0 DUP7 DUP3 DUP2 MLOAD DUP2 LT PUSH2 0x129F JUMPI PUSH2 0x129E PUSH2 0x1EAD JUMP JUMPDEST JUMPDEST PUSH1 0x20 MUL PUSH1 0x20 ADD ADD MLOAD PUSH0 ADD MLOAD SWAP1 POP PUSH0 DUP8 DUP4 DUP2 MLOAD DUP2 LT PUSH2 0x12C0 JUMPI PUSH2 0x12BF PUSH2 0x1EAD JUMP JUMPDEST JUMPDEST PUSH1 0x20 MUL PUSH1 0x20 ADD ADD MLOAD PUSH1 0x20 ADD MLOAD SWAP1 POP DUP13 ISZERO PUSH2 0x12E0 JUMPI PUSH2 0x12DF DUP13 DUP4 DUP4 PUSH2 0x141D JUMP JUMPDEST JUMPDEST PUSH2 0x12EC DUP8 DUP8 DUP5 DUP5 PUSH2 0xD5F JUMP JUMPDEST SWAP6 POP PUSH2 0x12FA DUP6 DUP6 DUP5 DUP5 PUSH2 0x1372 JUMP JUMPDEST SWAP4 POP POP POP DUP1 DUP1 PUSH1 0x1 ADD SWAP2 POP POP PUSH2 0x1282 JUMP JUMPDEST POP PUSH2 0x1316 DUP3 DUP3 PUSH2 0xE0A JUMP JUMPDEST POP POP JUMPDEST PUSH2 0x1323 DUP3 DUP3 PUSH2 0xE0A JUMP JUMPDEST POP POP POP POP POP POP POP POP POP POP POP JUMP JUMPDEST PUSH0 PUSH0 PUSH0 TLOAD SWAP1 POP PUSH1 0x1 PUSH12 0xFFFFFFFFFFFFFFFFFFFFFFFF DUP3 AND ADD DUP4 PUSH1 0x60 SHL OR PUSH0 TSTORE DUP1 PUSH0 MSTORE PUSH0 PUSH1 0x20 MSTORE PUSH1 0x2C PUSH1 0x14 KECCAK256 SWAP2 POP SWAP2 POP SWAP2 JUMP JUMPDEST PUSH2 0x136B DUP2 PUSH2 0x1694 JUMP JUMPDEST DUP2 PUSH0 TSTORE POP POP JUMP JUMPDEST PUSH0 DUP3 PUSH0 MSTORE DUP5 PUSH1 0x20 MSTORE PUSH1 0x40 PUSH0 KECCAK256 DUP1 TLOAD DUP1 PUSH1 0x1 SAR DUP5 DUP2 ADD PUSH1 0x1 DUP2 PUSH1 0xFE SHR EQ DUP3 DUP3 SLT OR PUSH1 0x1 DUP2 EQ PUSH2 0x13AA JUMPI PUSH1 0x1 DUP5 AND DUP3 PUSH1 0x1 SHL OR DUP6 TSTORE PUSH2 0x13FC JUMP JUMPDEST PUSH1 0x1 DUP6 ADD PUSH32 0x4000000000000000000000000000000000000000000000000000000000000000 DUP4 ADD PUSH1 0xFF SHR PUSH1 0x2 SUB PUSH0 PUSH1 0x1 DUP8 AND ISZERO PUSH2 0x13E6 JUMPI DUP3 TLOAD SWAP1 POP JUMPDEST DUP2 DUP2 ADD SWAP1 POP DUP1 DUP4 TSTORE DUP1 ISZERO ISZERO DUP6 PUSH1 0x1 SHL OR DUP9 TSTORE POP POP POP JUMPDEST POP DUP3 PUSH2 0x140E JUMPI PUSH1 0x1 DUP9 ADD SWAP8 POP DUP7 DUP9 DUP11 ADD TSTORE JUMPDEST POP POP POP POP DUP4 SWAP1 POP SWAP5 SWAP4 POP POP POP POP JUMP JUMPDEST PUSH0 PUSH1 0x2 PUSH0 DUP6 PUSH20 0xFFFFFFFFFFFFFFFFFFFFFFFFFFFFFFFFFFFFFFFF AND PUSH20 0xFFFFFFFFFFFFFFFFFFFFFFFFFFFFFFFFFFFFFFFF AND DUP2 MSTORE PUSH1 0x20 ADD SWAP1 DUP2 MSTORE PUSH1 0x20 ADD PUSH0 KECCAK256 PUSH0 CALLER PUSH20 0xFFFFFFFFFFFFFFFFFFFFFFFFFFFFFFFFFFFFFFFF AND PUSH20 0xFFFFFFFFFFFFFFFFFFFFFFFFFFFFFFFFFFFFFFFF AND DUP2 MSTORE PUSH1 0x20 ADD SWAP1 DUP2 MSTORE PUSH1 0x20 ADD PUSH0 KECCAK256 PUSH0 DUP5 DUP2 MSTORE PUSH1 0x20 ADD SWAP1 DUP2 MSTORE PUSH1 0x20 ADD PUSH0 KECCAK256 SLOAD SWAP1 POP PUSH32 0xFFFFFFFFFFFFFFFFFFFFFFFFFFFFFFFFFFFFFFFFFFFFFFFFFFFFFFFFFFFFFFFF DUP2 EQ PUSH2 0x1567 JUMPI DUP2 DUP2 PUSH2 0x14DB SWAP2 SWAP1 PUSH2 0x1FE5 JUMP JUMPDEST PUSH1 0x2 PUSH0 DUP7 PUSH20 0xFFFFFFFFFFFFFFFFFFFFFFFFFFFFFFFFFFFFFFFF AND PUSH20 0xFFFFFFFFFFFFFFFFFFFFFFFFFFFFFFFFFFFFFFFF AND DUP2 MSTORE PUSH1 0x20 ADD SWAP1 DUP2 MSTORE PUSH1 0x20 ADD PUSH0 KECCAK256 PUSH0 CALLER PUSH20 0xFFFFFFFFFFFFFFFFFFFFFFFFFFFFFFFFFFFFFFFF AND PUSH20 0xFFFFFFFFFFFFFFFFFFFFFFFFFFFFFFFFFFFFFFFF AND DUP2 MSTORE PUSH1 0x20 ADD SWAP1 DUP2 MSTORE PUSH1 0x20 ADD PUSH0 KECCAK256 PUSH0 DUP6 DUP2 MSTORE PUSH1 0x20 ADD SWAP1 DUP2 MSTORE PUSH1 0x20 ADD PUSH0 KECCAK256 DUP2 SWAP1 SSTORE POP JUMPDEST POP POP POP POP JUMP JUMPDEST PUSH0 DUP2 PUSH0 MSTORE DUP3 PUSH1 0x20 MSTORE PUSH1 0x34 PUSH1 0xC KECCAK256 SWAP1 POP SWAP3 SWAP2 POP POP JUMP JUMPDEST PUSH1 0x60 DUP1 PUSH1 0x60 DUP1 DUP5 PUSH1 0x20 ADD PUSH1 0x20 DUP2 ADD SWAP1 PUSH2 0x159B SWAP2 SWAP1 PUSH2 0x2018 JUMP JUMPDEST PUSH20 0xFFFFFFFFFFFFFFFFFFFFFFFFFFFFFFFFFFFFFFFF AND PUSH4 0xA129568D DUP7 DUP1 PUSH1 0x40 ADD SWAP1 PUSH2 0x15C6 SWAP2 SWAP1 PUSH2 0x2043 JUMP JUMPDEST PUSH1 0x40 MLOAD DUP4 PUSH4 0xFFFFFFFF AND PUSH1 0xE0 SHL DUP2 MSTORE PUSH1 0x4 ADD PUSH2 0x15E3 SWAP3 SWAP2 SWAP1 PUSH2 0x20FF JUMP JUMPDEST PUSH0 PUSH1 0x40 MLOAD DUP1 DUP4 SUB DUP2 PUSH0 DUP8 GAS CALL ISZERO DUP1 ISZERO PUSH2 0x15FE JUMPI RETURNDATASIZE PUSH0 PUSH0 RETURNDATACOPY RETURNDATASIZE PUSH0 REVERT JUMPDEST POP POP POP POP PUSH1 0x40 MLOAD RETURNDATASIZE PUSH0 DUP3 RETURNDATACOPY RETURNDATASIZE PUSH1 0x1F NOT PUSH1 0x1F DUP3 ADD AND DUP3 ADD DUP1 PUSH1 0x40 MSTORE POP DUP2 ADD SWAP1 PUSH2 0x1626 SWAP2 SWAP1 PUSH2 0x22BE JUMP JUMPDEST DUP1 SWAP5 POP DUP2 SWAP6 POP DUP3 SWAP7 POP DUP4 SWAP8 POP POP POP POP POP PUSH0 PUSH0 SHL DUP6 PUSH1 0x60 ADD CALLDATALOAD EQ PUSH2 0x168D JUMPI PUSH0 PUSH2 0x164C PUSH2 0x16D4 JUMP JUMPDEST SWAP1 POP DUP1 DUP7 PUSH1 0x60 ADD CALLDATALOAD EQ PUSH2 0x168B JUMPI PUSH1 0x40 MLOAD PUSH32 0x6F0632BF00000000000000000000000000000000000000000000000000000000 DUP2 MSTORE PUSH1 0x4 ADD PUSH1 0x40 MLOAD DUP1 SWAP2 SUB SWAP1 REVERT JUMPDEST POP JUMPDEST SWAP2 SWAP4 POP SWAP2 SWAP4 JUMP JUMPDEST PUSH0 DUP2 TLOAD SWAP1 POP PUSH0 PUSH0 SWAP1 POP JUMPDEST DUP2 DUP2 LT ISZERO PUSH2 0x16CF JUMPI PUSH0 DUP2 PUSH1 0x1 ADD SWAP2 POP DUP2 DUP5 ADD TLOAD SWAP1 POP PUSH2 0x16C6 PUSH2 0x16C0 DUP6 DUP4 PUSH2 0x156D JUMP JUMPDEST DUP3 PUSH2 0x171F JUMP JUMPDEST PUSH0 DUP5 TSTORE POP PUSH2 0x169E JUMP JUMPDEST POP POP POP JUMP JUMPDEST PUSH0 PUSH1 0x40 MLOAD DUP1 PUSH1 0x80 PUSH0 DUP4 RETURNDATACOPY PUSH1 0x80 DUP3 ADD JUMPDEST DUP1 DUP4 LT ISZERO PUSH2 0x1713 JUMPI DUP3 MLOAD PUSH1 0x20 DUP2 DUP4 RETURNDATACOPY DUP2 MLOAD PUSH1 0x6 SHL PUSH1 0x20 DUP3 ADD SWAP2 POP DUP1 DUP3 DUP5 RETURNDATACOPY DUP1 DUP4 KECCAK256 DUP6 MSTORE POP POP PUSH1 0x20 DUP4 ADD SWAP3 POP PUSH2 0x16E3 JUMP JUMPDEST POP PUSH1 0x80 DUP2 KECCAK256 SWAP3 POP POP POP SWAP1 JUMP JUMPDEST PUSH0 PUSH2 0x1729 DUP4 PUSH2 0x1953 JUMP JUMPDEST SWAP1 POP PUSH0 PUSH0 SWAP1 POP JUMPDEST DUP2 DUP2 LT ISZERO PUSH2 0x194A JUMPI PUSH0 PUSH0 PUSH0 DUP4 PUSH1 0x1 ADD SWAP4 POP DUP4 DUP8 ADD TLOAD SWAP3 POP DUP3 PUSH0 MSTORE DUP7 PUSH1 0x20 MSTORE PUSH1 0x40 PUSH0 KECCAK256 SWAP1 POP DUP1 TLOAD SWAP2 POP PUSH0 DUP3 SUB PUSH2 0x1767 JUMPI POP POP POP PUSH2 0x1945 JUMP JUMPDEST PUSH0 PUSH1 0x1 DUP4 AND SWAP1 POP DUP3 PUSH1 0x1 SAR SWAP3 POP PUSH0 DUP3 TSTORE DUP1 ISZERO PUSH2 0x1919 JUMPI PUSH0 PUSH1 0x1 DUP4 ADD TLOAD SWAP1 POP PUSH32 0xFFFFFFFFFFFFFFFFFFFFFFFFFFFFFFFFFFFFFFFFFFFFFFFFFFFFFFFFFFFFFFFE DUP2 SUB PUSH2 0x17F8 JUMPI PUSH0 DUP5 SLT ISZERO PUSH2 0x17E6 JUMPI PUSH1 0x40 MLOAD PUSH32 0x778214EB00000000000000000000000000000000000000000000000000000000 DUP2 MSTORE PUSH1 0x4 ADD PUSH1 0x40 MLOAD DUP1 SWAP2 SUB SWAP1 REVERT JUMPDEST PUSH2 0x17F3 DUP9 DUP7 DUP7 PUSH0 SUB PUSH2 0xE11 JUMP JUMPDEST PUSH2 0x1913 JUMP JUMPDEST PUSH32 0xFFFFFFFFFFFFFFFFFFFFFFFFFFFFFFFFFFFFFFFFFFFFFFFFFFFFFFFFFFFFFFFF DUP2 SUB PUSH2 0x1853 JUMPI PUSH2 0x184E DUP9 DUP7 PUSH32 0x8000000000000000000000000000000000000000000000000000000000000000 DUP8 PUSH0 SUB ADD PUSH2 0xE11 JUMP JUMPDEST PUSH2 0x1912 JUMP JUMPDEST PUSH1 0x1 DUP2 SUB PUSH2 0x188D JUMPI PUSH2 0x1888 DUP9 DUP7 PUSH32 0x8000000000000000000000000000000000000000000000000000000000000000 DUP8 ADD PUSH2 0xB71 JUMP JUMPDEST PUSH2 0x1911 JUMP JUMPDEST PUSH1 0x2 DUP2 SUB PUSH2 0x18DE JUMPI PUSH0 DUP5 SLT PUSH2 0x18CE JUMPI PUSH1 0x40 MLOAD PUSH32 0x778214EB00000000000000000000000000000000000000000000000000000000 DUP2 MSTORE PUSH1 0x4 ADD PUSH1 0x40 MLOAD DUP1 SWAP2 SUB SWAP1 REVERT JUMPDEST PUSH2 0x18D9 DUP9 DUP7 DUP7 PUSH2 0xB71 JUMP JUMPDEST PUSH2 0x1910 JUMP JUMPDEST PUSH1 0x40 MLOAD PUSH32 0x778214EB00000000000000000000000000000000000000000000000000000000 DUP2 MSTORE PUSH1 0x4 ADD PUSH1 0x40 MLOAD DUP1 SWAP2 SUB SWAP1 REVERT JUMPDEST JUMPDEST JUMPDEST JUMPDEST POP PUSH2 0x1940 JUMP JUMPDEST PUSH0 DUP4 SLT ISZERO PUSH2 0x1933 JUMPI PUSH2 0x192E DUP8 DUP6 DUP6 PUSH0 SUB PUSH2 0xE11 JUMP JUMPDEST PUSH2 0x193F JUMP JUMPDEST PUSH2 0x193E DUP8 DUP6 DUP6 PUSH2 0xB71 JUMP JUMPDEST JUMPDEST JUMPDEST POP POP POP POP JUMPDEST PUSH2 0x1730 JUMP JUMPDEST POP PUSH0 DUP4 TSTORE POP POP POP JUMP JUMPDEST PUSH0 DUP2 TLOAD SWAP1 POP SWAP2 SWAP1 POP JUMP JUMPDEST PUSH0 PUSH1 0x40 MLOAD SWAP1 POP SWAP1 JUMP JUMPDEST PUSH0 PUSH0 REVERT JUMPDEST PUSH0 PUSH0 REVERT JUMPDEST PUSH0 PUSH20 0xFFFFFFFFFFFFFFFFFFFFFFFFFFFFFFFFFFFFFFFF DUP3 AND SWAP1 POP SWAP2 SWAP1 POP JUMP JUMPDEST PUSH0 PUSH2 0x1997 DUP3 PUSH2 0x196E JUMP JUMPDEST SWAP1 POP SWAP2 SWAP1 POP JUMP JUMPDEST PUSH2 0x19A7 DUP2 PUSH2 0x198D JUMP JUMPDEST DUP2 EQ PUSH2 0x19B1 JUMPI PUSH0 PUSH0 REVERT JUMPDEST POP JUMP JUMPDEST PUSH0 DUP2 CALLDATALOAD SWAP1 POP PUSH2 0x19C2 DUP2 PUSH2 0x199E JUMP JUMPDEST SWAP3 SWAP2 POP POP JUMP JUMPDEST PUSH0 DUP2 SWAP1 POP SWAP2 SWAP1 POP JUMP JUMPDEST PUSH2 0x19DA DUP2 PUSH2 0x19C8 JUMP JUMPDEST DUP2 EQ PUSH2 0x19E4 JUMPI PUSH0 PUSH0 REVERT JUMPDEST POP JUMP JUMPDEST PUSH0 DUP2 CALLDATALOAD SWAP1 POP PUSH2 0x19F5 DUP2 PUSH2 0x19D1 JUMP JUMPDEST SWAP3 SWAP2 POP POP JUMP JUMPDEST PUSH0 PUSH0 PUSH1 0x40 DUP4 DUP6 SUB SLT ISZERO PUSH2 0x1A11 JUMPI PUSH2 0x1A10 PUSH2 0x1966 JUMP JUMPDEST JUMPDEST PUSH0 PUSH2 0x1A1E DUP6 DUP3 DUP7 ADD PUSH2 0x19B4 JUMP JUMPDEST SWAP3 POP POP PUSH1 0x20 PUSH2 0x1A2F DUP6 DUP3 DUP7 ADD PUSH2 0x19E7 JUMP JUMPDEST SWAP2 POP POP SWAP3 POP SWAP3 SWAP1 POP JUMP JUMPDEST PUSH2 0x1A42 DUP2 PUSH2 0x19C8 JUMP JUMPDEST DUP3 MSTORE POP POP JUMP JUMPDEST PUSH0 PUSH1 0x20 DUP3 ADD SWAP1 POP PUSH2 0x1A5B PUSH0 DUP4 ADD DUP5 PUSH2 0x1A39 JUMP JUMPDEST SWAP3 SWAP2 POP POP JUMP JUMPDEST PUSH0 PUSH0 PUSH0 PUSH1 0x60 DUP5 DUP7 SUB SLT ISZERO PUSH2 0x1A78 JUMPI PUSH2 0x1A77 PUSH2 0x1966 JUMP JUMPDEST JUMPDEST PUSH0 PUSH2 0x1A85 DUP7 DUP3 DUP8 ADD PUSH2 0x19B4 JUMP JUMPDEST SWAP4 POP POP PUSH1 0x20 PUSH2 0x1A96 DUP7 DUP3 DUP8 ADD PUSH2 0x19E7 JUMP JUMPDEST SWAP3 POP POP PUSH1 0x40 PUSH2 0x1AA7 DUP7 DUP3 DUP8 ADD PUSH2 0x19E7 JUMP JUMPDEST SWAP2 POP POP SWAP3 POP SWAP3 POP SWAP3 JUMP JUMPDEST PUSH0 DUP2 ISZERO ISZERO SWAP1 POP SWAP2 SWAP1 POP JUMP JUMPDEST PUSH2 0x1AC5 DUP2 PUSH2 0x1AB1 JUMP JUMPDEST DUP3 MSTORE POP POP JUMP JUMPDEST PUSH0 PUSH1 0x20 DUP3 ADD SWAP1 POP PUSH2 0x1ADE PUSH0 DUP4 ADD DUP5 PUSH2 0x1ABC JUMP JUMPDEST SWAP3 SWAP2 POP POP JUMP JUMPDEST PUSH0 PUSH0 REVERT JUMPDEST PUSH0 PUSH0 REVERT JUMPDEST PUSH0 PUSH0 REVERT JUMPDEST PUSH0 PUSH0 DUP4 PUSH1 0x1F DUP5 ADD SLT PUSH2 0x1B05 JUMPI PUSH2 0x1B04 PUSH2 0x1AE4 JUMP JUMPDEST JUMPDEST DUP3 CALLDATALOAD SWAP1 POP PUSH8 0xFFFFFFFFFFFFFFFF DUP2 GT ISZERO PUSH2 0x1B22 JUMPI PUSH2 0x1B21 PUSH2 0x1AE8 JUMP JUMPDEST JUMPDEST PUSH1 0x20 DUP4 ADD SWAP2 POP DUP4 PUSH1 0x40 DUP3 MUL DUP4 ADD GT ISZERO PUSH2 0x1B3E JUMPI PUSH2 0x1B3D PUSH2 0x1AEC JUMP JUMPDEST JUMPDEST SWAP3 POP SWAP3 SWAP1 POP JUMP JUMPDEST PUSH0 PUSH0 PUSH1 0x20 DUP4 DUP6 SUB SLT ISZERO PUSH2 0x1B5B JUMPI PUSH2 0x1B5A PUSH2 0x1966 JUMP JUMPDEST JUMPDEST PUSH0 DUP4 ADD CALLDATALOAD PUSH8 0xFFFFFFFFFFFFFFFF DUP2 GT ISZERO PUSH2 0x1B78 JUMPI PUSH2 0x1B77 PUSH2 0x196A JUMP JUMPDEST JUMPDEST PUSH2 0x1B84 DUP6 DUP3 DUP7 ADD PUSH2 0x1AF0 JUMP JUMPDEST SWAP3 POP SWAP3 POP POP SWAP3 POP SWAP3 SWAP1 POP JUMP JUMPDEST PUSH0 PUSH0 DUP4 PUSH1 0x1F DUP5 ADD SLT PUSH2 0x1BA5 JUMPI PUSH2 0x1BA4 PUSH2 0x1AE4 JUMP JUMPDEST JUMPDEST DUP3 CALLDATALOAD SWAP1 POP PUSH8 0xFFFFFFFFFFFFFFFF DUP2 GT ISZERO PUSH2 0x1BC2 JUMPI PUSH2 0x1BC1 PUSH2 0x1AE8 JUMP JUMPDEST JUMPDEST PUSH1 0x20 DUP4 ADD SWAP2 POP DUP4 PUSH1 0x20 DUP3 MUL DUP4 ADD GT ISZERO PUSH2 0x1BDE JUMPI PUSH2 0x1BDD PUSH2 0x1AEC JUMP JUMPDEST JUMPDEST SWAP3 POP SWAP3 SWAP1 POP JUMP JUMPDEST PUSH0 PUSH0 PUSH1 0x20 DUP4 DUP6 SUB SLT ISZERO PUSH2 0x1BFB JUMPI PUSH2 0x1BFA PUSH2 0x1966 JUMP JUMPDEST JUMPDEST PUSH0 DUP4 ADD CALLDATALOAD PUSH8 0xFFFFFFFFFFFFFFFF DUP2 GT ISZERO PUSH2 0x1C18 JUMPI PUSH2 0x1C17 PUSH2 0x196A JUMP JUMPDEST JUMPDEST PUSH2 0x1C24 DUP6 DUP3 DUP7 ADD PUSH2 0x1B90 JUMP JUMPDEST SWAP3 POP SWAP3 POP POP SWAP3 POP SWAP3 SWAP1 POP JUMP JUMPDEST PUSH2 0x1C39 DUP2 PUSH2 0x1AB1 JUMP JUMPDEST DUP2 EQ PUSH2 0x1C43 JUMPI PUSH0 PUSH0 REVERT JUMPDEST POP JUMP JUMPDEST PUSH0 DUP2 CALLDATALOAD SWAP1 POP PUSH2 0x1C54 DUP2 PUSH2 0x1C30 JUMP JUMPDEST SWAP3 SWAP2 POP POP JUMP JUMPDEST PUSH0 PUSH0 PUSH1 0x40 DUP4 DUP6 SUB SLT ISZERO PUSH2 0x1C70 JUMPI PUSH2 0x1C6F PUSH2 0x1966 JUMP JUMPDEST JUMPDEST PUSH0 PUSH2 0x1C7D DUP6 DUP3 DUP7 ADD PUSH2 0x19B4 JUMP JUMPDEST SWAP3 POP POP PUSH1 0x20 PUSH2 0x1C8E DUP6 DUP3 DUP7 ADD PUSH2 0x1C46 JUMP JUMPDEST SWAP2 POP POP SWAP3 POP SWAP3 SWAP1 POP JUMP JUMPDEST PUSH0 PUSH0 PUSH0 PUSH1 0x60 DUP5 DUP7 SUB SLT ISZERO PUSH2 0x1CAF JUMPI PUSH2 0x1CAE PUSH2 0x1966 JUMP JUMPDEST JUMPDEST PUSH0 PUSH2 0x1CBC DUP7 DUP3 DUP8 ADD PUSH2 0x19B4 JUMP JUMPDEST SWAP4 POP POP PUSH1 0x20 PUSH2 0x1CCD DUP7 DUP3 DUP8 ADD PUSH2 0x19B4 JUMP JUMPDEST SWAP3 POP POP PUSH1 0x40 PUSH2 0x1CDE DUP7 DUP3 DUP8 ADD PUSH2 0x19E7 JUMP JUMPDEST SWAP2 POP POP SWAP3 POP SWAP3 POP SWAP3 JUMP JUMPDEST PUSH0 PUSH0 PUSH0 PUSH1 0x40 DUP5 DUP7 SUB SLT ISZERO PUSH2 0x1CFF JUMPI PUSH2 0x1CFE PUSH2 0x1966 JUMP JUMPDEST JUMPDEST PUSH0 PUSH2 0x1D0C DUP7 DUP3 DUP8 ADD PUSH2 0x19B4 JUMP JUMPDEST SWAP4 POP POP PUSH1 0x20 DUP5 ADD CALLDATALOAD PUSH8 0xFFFFFFFFFFFFFFFF DUP2 GT ISZERO PUSH2 0x1D2D JUMPI PUSH2 0x1D2C PUSH2 0x196A JUMP JUMPDEST JUMPDEST PUSH2 0x1D39 DUP7 DUP3 DUP8 ADD PUSH2 0x1B90 JUMP JUMPDEST SWAP3 POP SWAP3 POP POP SWAP3 POP SWAP3 POP SWAP3 JUMP JUMPDEST PUSH0 PUSH1 0x20 DUP3 DUP5 SUB SLT ISZERO PUSH2 0x1D5A JUMPI PUSH2 0x1D59 PUSH2 0x1966 JUMP JUMPDEST JUMPDEST PUSH0 PUSH2 0x1D67 DUP5 DUP3 DUP6 ADD PUSH2 0x19E7 JUMP JUMPDEST SWAP2 POP POP SWAP3 SWAP2 POP POP JUMP JUMPDEST PUSH0 PUSH0 PUSH1 0x40 DUP4 DUP6 SUB SLT ISZERO PUSH2 0x1D86 JUMPI PUSH2 0x1D85 PUSH2 0x1966 JUMP JUMPDEST JUMPDEST PUSH0 PUSH2 0x1D93 DUP6 DUP3 DUP7 ADD PUSH2 0x19E7 JUMP JUMPDEST SWAP3 POP POP PUSH1 0x20 PUSH2 0x1DA4 DUP6 DUP3 DUP7 ADD PUSH2 0x19E7 JUMP JUMPDEST SWAP2 POP POP SWAP3 POP SWAP3 SWAP1 POP JUMP JUMPDEST PUSH0 PUSH0 PUSH1 0x40 DUP4 DUP6 SUB SLT ISZERO PUSH2 0x1DC4 JUMPI PUSH2 0x1DC3 PUSH2 0x1966 JUMP JUMPDEST JUMPDEST PUSH0 PUSH2 0x1DD1 DUP6 DUP3 DUP7 ADD PUSH2 0x19B4 JUMP JUMPDEST SWAP3 POP POP PUSH1 0x20 PUSH2 0x1DE2 DUP6 DUP3 DUP7 ADD PUSH2 0x19B4 JUMP JUMPDEST SWAP2 POP POP SWAP3 POP SWAP3 SWAP1 POP JUMP JUMPDEST PUSH0 PUSH0 PUSH0 PUSH1 0x40 DUP5 DUP7 SUB SLT ISZERO PUSH2 0x1E03 JUMPI PUSH2 0x1E02 PUSH2 0x1966 JUMP JUMPDEST JUMPDEST PUSH0 PUSH2 0x1E10 DUP7 DUP3 DUP8 ADD PUSH2 0x19B4 JUMP JUMPDEST SWAP4 POP POP PUSH1 0x20 DUP5 ADD CALLDATALOAD PUSH8 0xFFFFFFFFFFFFFFFF DUP2 GT ISZERO PUSH2 0x1E31 JUMPI PUSH2 0x1E30 PUSH2 0x196A JUMP JUMPDEST JUMPDEST PUSH2 0x1E3D DUP7 DUP3 DUP8 ADD PUSH2 0x1AF0 JUMP JUMPDEST SWAP3 POP SWAP3 POP POP SWAP3 POP SWAP3 POP SWAP3 JUMP JUMPDEST PUSH0 PUSH0 PUSH0 PUSH0 PUSH1 0x80 DUP6 DUP8 SUB SLT ISZERO PUSH2 0x1E61 JUMPI PUSH2 0x1E60 PUSH2 0x1966 JUMP JUMPDEST JUMPDEST PUSH0 PUSH2 0x1E6E DUP8 DUP3 DUP9 ADD PUSH2 0x19B4 JUMP JUMPDEST SWAP5 POP POP PUSH1 0x20 PUSH2 0x1E7F DUP8 DUP3 DUP9 ADD PUSH2 0x19B4 JUMP JUMPDEST SWAP4 POP POP PUSH1 0x40 PUSH2 0x1E90 DUP8 DUP3 DUP9 ADD PUSH2 0x19E7 JUMP JUMPDEST SWAP3 POP POP PUSH1 0x60 PUSH2 0x1EA1 DUP8 DUP3 DUP9 ADD PUSH2 0x19E7 JUMP JUMPDEST SWAP2 POP POP SWAP3 SWAP6 SWAP2 SWAP5 POP SWAP3 POP JUMP JUMPDEST PUSH32 0x4E487B7100000000000000000000000000000000000000000000000000000000 PUSH0 MSTORE PUSH1 0x32 PUSH1 0x4 MSTORE PUSH1 0x24 PUSH0 REVERT JUMPDEST PUSH0 PUSH0 REVERT JUMPDEST PUSH0 PUSH0 REVERT JUMPDEST PUSH0 PUSH0 REVERT JUMPDEST PUSH0 DUP3 CALLDATALOAD PUSH1 0x1 PUSH1 0x80 SUB DUP4 CALLDATASIZE SUB SUB DUP2 SLT PUSH2 0x1F01 JUMPI PUSH2 0x1F00 PUSH2 0x1EDA JUMP JUMPDEST JUMPDEST DUP1 DUP4 ADD SWAP2 POP POP SWAP3 SWAP2 POP POP JUMP JUMPDEST PUSH32 0x4E487B7100000000000000000000000000000000000000000000000000000000 PUSH0 MSTORE PUSH1 0x11 PUSH1 0x4 MSTORE PUSH1 0x24 PUSH0 REVERT JUMPDEST PUSH0 PUSH2 0x1F44 DUP3 PUSH2 0x19C8 JUMP JUMPDEST SWAP2 POP PUSH2 0x1F4F DUP4 PUSH2 0x19C8 JUMP JUMPDEST SWAP3 POP DUP3 DUP3 ADD SWAP1 POP DUP1 DUP3 GT ISZERO PUSH2 0x1F67 JUMPI PUSH2 0x1F66 PUSH2 0x1F0D JUMP JUMPDEST JUMPDEST SWAP3 SWAP2 POP POP JUMP JUMPDEST PUSH0 DUP3 DUP3 MSTORE PUSH1 0x20 DUP3 ADD SWAP1 POP SWAP3 SWAP2 POP POP JUMP JUMPDEST PUSH32 0x496E73756666696369656E742062616C616E6365000000000000000000000000 PUSH0 DUP3 ADD MSTORE POP JUMP JUMPDEST PUSH0 PUSH2 0x1FB1 PUSH1 0x14 DUP4 PUSH2 0x1F6D JUMP JUMPDEST SWAP2 POP PUSH2 0x1FBC DUP3 PUSH2 0x1F7D JUMP JUMPDEST PUSH1 0x20 DUP3 ADD SWAP1 POP SWAP2 SWAP1 POP JUMP JUMPDEST PUSH0 PUSH1 0x20 DUP3 ADD SWAP1 POP DUP2 DUP2 SUB PUSH0 DUP4 ADD MSTORE PUSH2 0x1FDE DUP2 PUSH2 0x1FA5 JUMP JUMPDEST SWAP1 POP SWAP2 SWAP1 POP JUMP JUMPDEST PUSH0 PUSH2 0x1FEF DUP3 PUSH2 0x19C8 JUMP JUMPDEST SWAP2 POP PUSH2 0x1FFA DUP4 PUSH2 0x19C8 JUMP JUMPDEST SWAP3 POP DUP3 DUP3 SUB SWAP1 POP DUP2 DUP2 GT ISZERO PUSH2 0x2012 JUMPI PUSH2 0x2011 PUSH2 0x1F0D JUMP JUMPDEST JUMPDEST SWAP3 SWAP2 POP POP JUMP JUMPDEST PUSH0 PUSH1 0x20 DUP3 DUP5 SUB SLT ISZERO PUSH2 0x202D JUMPI PUSH2 0x202C PUSH2 0x1966 JUMP JUMPDEST JUMPDEST PUSH0 PUSH2 0x203A DUP5 DUP3 DUP6 ADD PUSH2 0x19B4 JUMP JUMPDEST SWAP2 POP POP SWAP3 SWAP2 POP POP JUMP JUMPDEST PUSH0 PUSH0 DUP4 CALLDATALOAD PUSH1 0x1 PUSH1 0x20 SUB DUP5 CALLDATASIZE SUB SUB DUP2 SLT PUSH2 0x205F JUMPI PUSH2 0x205E PUSH2 0x1EDA JUMP JUMPDEST JUMPDEST DUP1 DUP5 ADD SWAP3 POP DUP3 CALLDATALOAD SWAP2 POP PUSH8 0xFFFFFFFFFFFFFFFF DUP3 GT ISZERO PUSH2 0x2081 JUMPI PUSH2 0x2080 PUSH2 0x1EDE JUMP JUMPDEST JUMPDEST PUSH1 0x20 DUP4 ADD SWAP3 POP PUSH1 0x1 DUP3 MUL CALLDATASIZE SUB DUP4 SGT ISZERO PUSH2 0x209D JUMPI PUSH2 0x209C PUSH2 0x1EE2 JUMP JUMPDEST JUMPDEST POP SWAP3 POP SWAP3 SWAP1 POP JUMP JUMPDEST PUSH0 DUP3 DUP3 MSTORE PUSH1 0x20 DUP3 ADD SWAP1 POP SWAP3 SWAP2 POP POP JUMP JUMPDEST DUP3 DUP2 DUP4 CALLDATACOPY PUSH0 DUP4 DUP4 ADD MSTORE POP POP POP JUMP JUMPDEST PUSH0 PUSH1 0x1F NOT PUSH1 0x1F DUP4 ADD AND SWAP1 POP SWAP2 SWAP1 POP JUMP JUMPDEST PUSH0 PUSH2 0x20DE DUP4 DUP6 PUSH2 0x20A5 JUMP JUMPDEST SWAP4 POP PUSH2 0x20EB DUP4 DUP6 DUP5 PUSH2 0x20B5 JUMP JUMPDEST PUSH2 0x20F4 DUP4 PUSH2 0x20C3 JUMP JUMPDEST DUP5 ADD SWAP1 POP SWAP4 SWAP3 POP POP POP JUMP JUMPDEST PUSH0 PUSH1 0x20 DUP3 ADD SWAP1 POP DUP2 DUP2 SUB PUSH0 DUP4 ADD MSTORE PUSH2 0x2118 DUP2 DUP5 DUP7 PUSH2 0x20D3 JUMP JUMPDEST SWAP1 POP SWAP4 SWAP3 POP POP POP JUMP JUMPDEST PUSH32 0x4E487B7100000000000000000000000000000000000000000000000000000000 PUSH0 MSTORE PUSH1 0x41 PUSH1 0x4 MSTORE PUSH1 0x24 PUSH0 REVERT JUMPDEST PUSH2 0x2157 DUP3 PUSH2 0x20C3 JUMP JUMPDEST DUP2 ADD DUP2 DUP2 LT PUSH8 0xFFFFFFFFFFFFFFFF DUP3 GT OR ISZERO PUSH2 0x2176 JUMPI PUSH2 0x2175 PUSH2 0x2121 JUMP JUMPDEST JUMPDEST DUP1 PUSH1 0x40 MSTORE POP POP POP JUMP JUMPDEST PUSH0 PUSH2 0x2188 PUSH2 0x195D JUMP JUMPDEST SWAP1 POP PUSH2 0x2194 DUP3 DUP3 PUSH2 0x214E JUMP JUMPDEST SWAP2 SWAP1 POP JUMP JUMPDEST PUSH0 PUSH8 0xFFFFFFFFFFFFFFFF DUP3 GT ISZERO PUSH2 0x21B3 JUMPI PUSH2 0x21B2 PUSH2 0x2121 JUMP JUMPDEST JUMPDEST PUSH1 0x20 DUP3 MUL SWAP1 POP PUSH1 0x20 DUP2 ADD SWAP1 POP SWAP2 SWAP1 POP JUMP JUMPDEST PUSH0 PUSH0 REVERT JUMPDEST PUSH0 DUP2 MLOAD SWAP1 POP PUSH2 0x21D6 DUP2 PUSH2 0x19D1 JUMP JUMPDEST SWAP3 SWAP2 POP POP JUMP JUMPDEST PUSH0 PUSH1 0x40 DUP3 DUP5 SUB SLT ISZERO PUSH2 0x21F1 JUMPI PUSH2 0x21F0 PUSH2 0x21C4 JUMP JUMPDEST JUMPDEST PUSH2 0x21FB PUSH1 0x40 PUSH2 0x217F JUMP JUMPDEST SWAP1 POP PUSH0 PUSH2 0x220A DUP5 DUP3 DUP6 ADD PUSH2 0x21C8 JUMP JUMPDEST PUSH0 DUP4 ADD MSTORE POP PUSH1 0x20 PUSH2 0x221D DUP5 DUP3 DUP6 ADD PUSH2 0x21C8 JUMP JUMPDEST PUSH1 0x20 DUP4 ADD MSTORE POP SWAP3 SWAP2 POP POP JUMP JUMPDEST PUSH0 PUSH2 0x223B PUSH2 0x2236 DUP5 PUSH2 0x2199 JUMP JUMPDEST PUSH2 0x217F JUMP JUMPDEST SWAP1 POP DUP1 DUP4 DUP3 MSTORE PUSH1 0x20 DUP3 ADD SWAP1 POP PUSH1 0x40 DUP5 MUL DUP4 ADD DUP6 DUP2 GT ISZERO PUSH2 0x225E JUMPI PUSH2 0x225D PUSH2 0x1AEC JUMP JUMPDEST JUMPDEST DUP4 JUMPDEST DUP2 DUP2 LT ISZERO PUSH2 0x2287 JUMPI DUP1 PUSH2 0x2273 DUP9 DUP3 PUSH2 0x21DC JUMP JUMPDEST DUP5 MSTORE PUSH1 0x20 DUP5 ADD SWAP4 POP POP PUSH1 0x40 DUP2 ADD SWAP1 POP PUSH2 0x2260 JUMP JUMPDEST POP POP POP SWAP4 SWAP3 POP POP POP JUMP JUMPDEST PUSH0 DUP3 PUSH1 0x1F DUP4 ADD SLT PUSH2 0x22A5 JUMPI PUSH2 0x22A4 PUSH2 0x1AE4 JUMP JUMPDEST JUMPDEST DUP2 MLOAD PUSH2 0x22B5 DUP5 DUP3 PUSH1 0x20 DUP7 ADD PUSH2 0x2229 JUMP JUMPDEST SWAP2 POP POP SWAP3 SWAP2 POP POP JUMP JUMPDEST PUSH0 PUSH0 PUSH0 PUSH0 PUSH1 0x80 DUP6 DUP8 SUB SLT ISZERO PUSH2 0x22D6 JUMPI PUSH2 0x22D5 PUSH2 0x1966 JUMP JUMPDEST JUMPDEST PUSH0 DUP6 ADD MLOAD PUSH8 0xFFFFFFFFFFFFFFFF DUP2 GT ISZERO PUSH2 0x22F3 JUMPI PUSH2 0x22F2 PUSH2 0x196A JUMP JUMPDEST JUMPDEST PUSH2 0x22FF DUP8 DUP3 DUP9 ADD PUSH2 0x2291 JUMP JUMPDEST SWAP5 POP POP PUSH1 0x20 DUP6 ADD MLOAD PUSH8 0xFFFFFFFFFFFFFFFF DUP2 GT ISZERO PUSH2 0x2320 JUMPI PUSH2 0x231F PUSH2 0x196A JUMP JUMPDEST JUMPDEST PUSH2 0x232C DUP8 DUP3 DUP9 ADD PUSH2 0x2291 JUMP JUMPDEST SWAP4 POP POP PUSH1 0x40 DUP6 ADD MLOAD PUSH8 0xFFFFFFFFFFFFFFFF DUP2 GT ISZERO PUSH2 0x234D JUMPI PUSH2 0x234C PUSH2 0x196A JUMP JUMPDEST JUMPDEST PUSH2 0x2359 DUP8 DUP3 DUP9 ADD PUSH2 0x2291 JUMP JUMPDEST SWAP3 POP POP PUSH1 0x60 DUP6 ADD MLOAD PUSH8 0xFFFFFFFFFFFFFFFF DUP2 GT ISZERO PUSH2 0x237A JUMPI PUSH2 0x2379 PUSH2 0x196A JUMP JUMPDEST JUMPDEST PUSH2 0x2386 DUP8 DUP3 DUP9 ADD PUSH2 0x2291 JUMP JUMPDEST SWAP2 POP POP SWAP3 SWAP6 SWAP2 SWAP5 POP SWAP3 POP JUMP INVALID LOG2 PUSH5 0x6970667358 0x22 SLT KECCAK256 MUL CALL DUP8 0xEC 0xC8 0xE7 PUSH5 0xFA0C275EBC 0xEF 0xED SUB DUP16 PUSH1 0xC2 0xD4 0xCB TIMESTAMP 0xCC 0xAF ADDMOD PUSH3 0x7A056 0x2E 0xED PUSH3 0xCF6473 PUSH16 0x6C634300081C00330000000000000000 "
		},
		"gasEstimates": {
			"creation": {
				"codeDepositCost": "1832000",
				"executionCost": "1931",
				"totalCost": "1833931"
			},
			"external": {
				"allowance(address,address,uint256)": "infinite",
				"approve(address,uint256,uint256)": "infinite",
				"balanceOf(address,uint256)": "infinite",
				"burn((uint256,uint256)[])": "infinite",
				"burn(uint256,uint256)": "infinite",
				"cook((address,address,bytes,bytes32)[])": "infinite",
				"cook(address,(address,address,bytes,bytes32)[])": "infinite",
				"credit((uint256,uint256)[])": "infinite",
				"credit(uint256,uint256)": "infinite",
				"debit((uint256,uint256)[])": "infinite",
				"debit(uint256,uint256)": "infinite",
				"exttload(uint256)": "infinite",
				"isOperator(address,address)": "infinite",
				"mint(address,(uint256,uint256)[])": "infinite",
				"mint(address,uint256,uint256)": "infinite",
				"setOperator(address,bool)": "infinite",
				"transfer(address,uint256,uint256)": "infinite",
				"transferFrom(address,address,uint256,uint256)": "infinite"
			},
			"internal": {
				"_burn(address,uint256,uint256)": "infinite",
				"_decreaseApproval(address,uint256,uint256)": "infinite",
				"_executeAction(struct BlueprintCall calldata)": "infinite",
				"_flashCook(struct BlueprintCall calldata,FlashSession)": "infinite",
				"_mint(address,uint256,uint256)": "infinite",
				"_transferFrom(address,address,uint256,uint256)": "infinite"
			}
		},
		"methodIdentifiers": {
			"allowance(address,address,uint256)": "598af9e7",
			"approve(address,uint256,uint256)": "426a8493",
			"balanceOf(address,uint256)": "00fdd58e",
			"burn((uint256,uint256)[])": "36223ac2",
			"burn(uint256,uint256)": "b390c0ab",
			"cook((address,address,bytes,bytes32)[])": "52d2accf",
			"cook(address,(address,address,bytes,bytes32)[])": "62ba62e5",
			"credit((uint256,uint256)[])": "355f580e",
			"credit(uint256,uint256)": "ab7ccc1c",
			"debit((uint256,uint256)[])": "e3033041",
			"debit(uint256,uint256)": "e747f31c",
			"exttload(uint256)": "a42bff86",
			"isOperator(address,address)": "b6363cf2",
			"mint(address,(uint256,uint256)[])": "f3178dd1",
			"mint(address,uint256,uint256)": "156e29f6",
			"setOperator(address,bool)": "558a7297",
			"transfer(address,uint256,uint256)": "095bcdb6",
			"transferFrom(address,address,uint256,uint256)": "fe99049a"
		}
	},
	"abi": [
		{
			"inputs": [],
			"name": "AccessDenied",
			"type": "error"
		},
		{
			"inputs": [],
			"name": "BalanceDeltaOverflow",
			"type": "error"
		},
		{
			"inputs": [],
			"name": "InvalidChecksum",
			"type": "error"
		},
		{
			"inputs": [],
			"name": "NoFlashAccountingActive",
			"type": "error"
		},
		{
			"inputs": [],
			"name": "RealizeAccessDenied",
			"type": "error"
		},
		{
			"anonymous": false,
			"inputs": [
				{
					"indexed": true,
					"internalType": "address",
					"name": "owner",
					"type": "address"
				},
				{
					"indexed": true,
					"internalType": "address",
					"name": "spender",
					"type": "address"
				},
				{
					"indexed": true,
					"internalType": "uint256",
					"name": "id",
					"type": "uint256"
				},
				{
					"indexed": false,
					"internalType": "uint256",
					"name": "amount",
					"type": "uint256"
				}
			],
			"name": "Approval",
			"type": "event"
		},
		{
			"anonymous": false,
			"inputs": [
				{
					"indexed": true,
					"internalType": "address",
					"name": "from",
					"type": "address"
				},
				{
					"indexed": true,
					"internalType": "uint256",
					"name": "id",
					"type": "uint256"
				},
				{
					"indexed": false,
					"internalType": "uint256",
					"name": "amount",
					"type": "uint256"
				}
			],
			"name": "Burn",
			"type": "event"
		},
		{
			"anonymous": false,
			"inputs": [
				{
					"indexed": true,
					"internalType": "address",
					"name": "to",
					"type": "address"
				},
				{
					"indexed": true,
					"internalType": "uint256",
					"name": "id",
					"type": "uint256"
				},
				{
					"indexed": false,
					"internalType": "uint256",
					"name": "amount",
					"type": "uint256"
				}
			],
			"name": "Mint",
			"type": "event"
		},
		{
			"anonymous": false,
			"inputs": [
				{
					"indexed": true,
					"internalType": "address",
					"name": "owner",
					"type": "address"
				},
				{
					"indexed": true,
					"internalType": "address",
					"name": "operator",
					"type": "address"
				},
				{
					"indexed": false,
					"internalType": "bool",
					"name": "approved",
					"type": "bool"
				}
			],
			"name": "OperatorSet",
			"type": "event"
		},
		{
			"anonymous": false,
			"inputs": [
				{
					"indexed": true,
					"internalType": "address",
					"name": "from",
					"type": "address"
				},
				{
					"indexed": true,
					"internalType": "address",
					"name": "to",
					"type": "address"
				},
				{
					"indexed": true,
					"internalType": "uint256",
					"name": "id",
					"type": "uint256"
				},
				{
					"indexed": false,
					"internalType": "uint256",
					"name": "amount",
					"type": "uint256"
				}
			],
			"name": "Transfer",
			"type": "event"
		},
		{
			"inputs": [
				{
					"internalType": "address",
					"name": "",
					"type": "address"
				},
				{
					"internalType": "address",
					"name": "",
					"type": "address"
				},
				{
					"internalType": "uint256",
					"name": "",
					"type": "uint256"
				}
			],
			"name": "allowance",
			"outputs": [
				{
					"internalType": "uint256",
					"name": "",
					"type": "uint256"
				}
			],
			"stateMutability": "view",
			"type": "function"
		},
		{
			"inputs": [
				{
					"internalType": "address",
					"name": "spender",
					"type": "address"
				},
				{
					"internalType": "uint256",
					"name": "id",
					"type": "uint256"
				},
				{
					"internalType": "uint256",
					"name": "amount",
					"type": "uint256"
				}
			],
			"name": "approve",
			"outputs": [
				{
					"internalType": "bool",
					"name": "",
					"type": "bool"
				}
			],
			"stateMutability": "nonpayable",
			"type": "function"
		},
		{
			"inputs": [
				{
					"internalType": "address",
					"name": "",
					"type": "address"
				},
				{
					"internalType": "uint256",
					"name": "",
					"type": "uint256"
				}
			],
			"name": "balanceOf",
			"outputs": [
				{
					"internalType": "uint256",
					"name": "",
					"type": "uint256"
				}
			],
			"stateMutability": "view",
			"type": "function"
		},
		{
			"inputs": [
				{
					"components": [
						{
							"internalType": "uint256",
							"name": "tokenId",
							"type": "uint256"
						},
						{
							"internalType": "uint256",
							"name": "amount",
							"type": "uint256"
						}
					],
					"internalType": "struct TokenOp[]",
					"name": "ops",
					"type": "tuple[]"
				}
			],
			"name": "burn",
			"outputs": [],
			"stateMutability": "nonpayable",
			"type": "function"
		},
		{
			"inputs": [
				{
					"internalType": "uint256",
					"name": "tokenId",
					"type": "uint256"
				},
				{
					"internalType": "uint256",
					"name": "amount",
					"type": "uint256"
				}
			],
			"name": "burn",
			"outputs": [],
			"stateMutability": "nonpayable",
			"type": "function"
		},
		{
			"inputs": [
				{
					"components": [
						{
							"internalType": "address",
							"name": "sender",
							"type": "address"
						},
						{
							"internalType": "address",
							"name": "blueprint",
							"type": "address"
						},
						{
							"internalType": "bytes",
							"name": "action",
							"type": "bytes"
						},
						{
							"internalType": "bytes32",
							"name": "checksum",
							"type": "bytes32"
						}
					],
					"internalType": "struct BlueprintCall[]",
					"name": "calls",
					"type": "tuple[]"
				}
			],
			"name": "cook",
			"outputs": [],
			"stateMutability": "nonpayable",
			"type": "function"
		},
		{
			"inputs": [
				{
					"internalType": "address",
					"name": "realizer",
					"type": "address"
				},
				{
					"components": [
						{
							"internalType": "address",
							"name": "sender",
							"type": "address"
						},
						{
							"internalType": "address",
							"name": "blueprint",
							"type": "address"
						},
						{
							"internalType": "bytes",
							"name": "action",
							"type": "bytes"
						},
						{
							"internalType": "bytes32",
							"name": "checksum",
							"type": "bytes32"
						}
					],
					"internalType": "struct BlueprintCall[]",
					"name": "calls",
					"type": "tuple[]"
				}
			],
			"name": "cook",
			"outputs": [],
			"stateMutability": "nonpayable",
			"type": "function"
		},
		{
			"inputs": [
				{
					"components": [
						{
							"internalType": "uint256",
							"name": "tokenId",
							"type": "uint256"
						},
						{
							"internalType": "uint256",
							"name": "amount",
							"type": "uint256"
						}
					],
					"internalType": "struct TokenOp[]",
					"name": "ops",
					"type": "tuple[]"
				}
			],
			"name": "credit",
			"outputs": [],
			"stateMutability": "nonpayable",
			"type": "function"
		},
		{
			"inputs": [
				{
					"internalType": "uint256",
					"name": "id",
					"type": "uint256"
				},
				{
					"internalType": "uint256",
					"name": "amount",
					"type": "uint256"
				}
			],
			"name": "credit",
			"outputs": [],
			"stateMutability": "nonpayable",
			"type": "function"
		},
		{
			"inputs": [
				{
					"components": [
						{
							"internalType": "uint256",
							"name": "tokenId",
							"type": "uint256"
						},
						{
							"internalType": "uint256",
							"name": "amount",
							"type": "uint256"
						}
					],
					"internalType": "struct TokenOp[]",
					"name": "ops",
					"type": "tuple[]"
				}
			],
			"name": "debit",
			"outputs": [],
			"stateMutability": "nonpayable",
			"type": "function"
		},
		{
			"inputs": [
				{
					"internalType": "uint256",
					"name": "id",
					"type": "uint256"
				},
				{
					"internalType": "uint256",
					"name": "amount",
					"type": "uint256"
				}
			],
			"name": "debit",
			"outputs": [],
			"stateMutability": "nonpayable",
			"type": "function"
		},
		{
			"inputs": [
				{
					"internalType": "uint256",
					"name": "slot",
					"type": "uint256"
				}
			],
			"name": "exttload",
			"outputs": [
				{
					"internalType": "uint256",
					"name": "value",
					"type": "uint256"
				}
			],
			"stateMutability": "view",
			"type": "function"
		},
		{
			"inputs": [
				{
					"internalType": "address",
					"name": "",
					"type": "address"
				},
				{
					"internalType": "address",
					"name": "",
					"type": "address"
				}
			],
			"name": "isOperator",
			"outputs": [
				{
					"internalType": "bool",
					"name": "",
					"type": "bool"
				}
			],
			"stateMutability": "view",
			"type": "function"
		},
		{
			"inputs": [
				{
					"internalType": "address",
					"name": "to",
					"type": "address"
				},
				{
					"internalType": "uint256",
					"name": "tokenId",
					"type": "uint256"
				},
				{
					"internalType": "uint256",
					"name": "amount",
					"type": "uint256"
				}
			],
			"name": "mint",
			"outputs": [],
			"stateMutability": "nonpayable",
			"type": "function"
		},
		{
			"inputs": [
				{
					"internalType": "address",
					"name": "to",
					"type": "address"
				},
				{
					"components": [
						{
							"internalType": "uint256",
							"name": "tokenId",
							"type": "uint256"
						},
						{
							"internalType": "uint256",
							"name": "amount",
							"type": "uint256"
						}
					],
					"internalType": "struct TokenOp[]",
					"name": "ops",
					"type": "tuple[]"
				}
			],
			"name": "mint",
			"outputs": [],
			"stateMutability": "nonpayable",
			"type": "function"
		},
		{
			"inputs": [
				{
					"internalType": "address",
					"name": "operator",
					"type": "address"
				},
				{
					"internalType": "bool",
					"name": "approved",
					"type": "bool"
				}
			],
			"name": "setOperator",
			"outputs": [
				{
					"internalType": "bool",
					"name": "",
					"type": "bool"
				}
			],
			"stateMutability": "nonpayable",
			"type": "function"
		},
		{
			"inputs": [
				{
					"internalType": "address",
					"name": "receiver",
					"type": "address"
				},
				{
					"internalType": "uint256",
					"name": "id",
					"type": "uint256"
				},
				{
					"internalType": "uint256",
					"name": "amount",
					"type": "uint256"
				}
			],
			"name": "transfer",
			"outputs": [
				{
					"internalType": "bool",
					"name": "",
					"type": "bool"
				}
			],
			"stateMutability": "nonpayable",
			"type": "function"
		},
		{
			"inputs": [
				{
					"internalType": "address",
					"name": "sender",
					"type": "address"
				},
				{
					"internalType": "address",
					"name": "receiver",
					"type": "address"
				},
				{
					"internalType": "uint256",
					"name": "id",
					"type": "uint256"
				},
				{
					"internalType": "uint256",
					"name": "amount",
					"type": "uint256"
				}
			],
			"name": "transferFrom",
			"outputs": [
				{
					"internalType": "bool",
					"name": "",
					"type": "bool"
				}
			],
			"stateMutability": "nonpayable",
			"type": "function"
		}
	]
}