{
	"data": {
		"bytecode": {
			"linkReferences": {},
			"object": "6080604052348015600e575f5ffd5b5061263a8061001c5f395ff3fe608060405234801561000f575f5ffd5b506004361061011f575f3560e01c8063598af9e7116100ab578063b6363cf21161006f578063b6363cf214610337578063e303304114610367578063e747f31c14610383578063f3178dd11461039f578063fe99049a146103bb5761011f565b8063598af9e71461028357806362ba62e5146102b3578063a42bff86146102cf578063ab7ccc1c146102ff578063b390c0ab1461031b5761011f565b806336223ac2116100f257806336223ac2146101bb578063426a8493146101d757806352d2accf14610207578063558a72971461022357806356cbfe3e146102535761011f565b8063095bcdb614610123578063156e29f6146101535780632d760d571461016f578063355f580e1461019f575b5f5ffd5b61013d60048036038101906101389190611cab565b6103eb565b60405161014a9190611d15565b60405180910390f35b61016d60048036038101906101689190611cab565b610403565b005b61018960048036038101906101849190611cab565b61046b565b6040516101969190611d3d565b60405180910390f35b6101b960048036038101906101b49190611db7565b61049a565b005b6101d560048036038101906101d09190611db7565b610530565b005b6101f160048036038101906101ec9190611cab565b61062d565b6040516101fe9190611d15565b60405180910390f35b610221600480360381019061021c9190611e57565b61072b565b005b61023d60048036038101906102389190611ecc565b61078c565b60405161024a9190611d15565b60405180910390f35b61026d60048036038101906102689190611f0a565b61088a565b60405161027a9190611d3d565b60405180910390f35b61029d60048036038101906102989190611f35565b61089f565b6040516102aa9190611d3d565b60405180910390f35b6102cd60048036038101906102c89190611f85565b6108ca565b005b6102e960048036038101906102e49190611f0a565b61093b565b6040516102f69190611d3d565b60405180910390f35b61031960048036038101906103149190611fe2565b610945565b005b61033560048036038101906103309190611fe2565b6109e3565b005b610351600480360381019061034c9190612020565b610a4a565b60405161035e9190611d15565b60405180910390f35b610381600480360381019061037c9190611db7565b610a73565b005b61039d60048036038101906103989190611fe2565b610b58565b005b6103b960048036038101906103b4919061205e565b610ba7565b005b6103d560048036038101906103d091906120bb565b610ca5565b6040516103e29190611d15565b60405180910390f35b5f6103f833858585610d8c565b600190509392505050565b610417836104113385610e0e565b83610e23565b818373ffffffffffffffffffffffffffffffffffffffff167f4c209b5fc8ad50758f13e2e1088ba56a560dff690a1c6fef26394f4c03821c4f8360405161045e9190611d3d565b60405180910390a3505050565b6001602052825f5260405f20602052815f5260405f20816002811061048e575f80fd5b015f9250925050505481565b5f6104a3610ef9565b90505f5f6104b18333611004565b915091505f8585905090505f5f90505b8181101561051d57368787838181106104dd576104dc61211f565b5b90506040020190505f815f013590505f8260200135905061050087878484611031565b955061050d338383610e23565b50505080806001019150506104c1565b5061052883836110dc565b505050505050565b5f8282905090505f5f90505b81811015610627575f61056a3386868581811061055c5761055b61211f565b5b9050604002015f0135610e0e565b905061059333828787868181106105845761058361211f565b5b905060400201602001356110e3565b8484838181106105a6576105a561211f565b5b9050604002015f01353373ffffffffffffffffffffffffffffffffffffffff167f49995e5dd6158cf69ad3e9777c46755a1a826a446c6416992167462dad033b2a8787868181106105fa576105f961211f565b5b905060400201602001356040516106119190611d3d565b60405180910390a350808060010191505061053c565b50505050565b5f8160025f3373ffffffffffffffffffffffffffffffffffffffff1673ffffffffffffffffffffffffffffffffffffffff1681526020019081526020015f205f8673ffffffffffffffffffffffffffffffffffffffff1673ffffffffffffffffffffffffffffffffffffffff1681526020019081526020015f205f8581526020019081526020015f2081905550828473ffffffffffffffffffffffffffffffffffffffff163373ffffffffffffffffffffffffffffffffffffffff167fb3fd5071835887567a0671151121894ddccc2842f1d10bedad13e0d17cace9a7856040516107189190611d3d565b60405180910390a4600190509392505050565b5f610734610ef9565b90505f8383905090505f5f90505b81811015610785576107788585838181106107605761075f61211f565b5b90506020028101906107729190612158565b84611201565b8080600101915050610742565b5050505050565b5f815f5f3373ffffffffffffffffffffffffffffffffffffffff1673ffffffffffffffffffffffffffffffffffffffff1681526020019081526020015f205f8573ffffffffffffffffffffffffffffffffffffffff1673ffffffffffffffffffffffffffffffffffffffff1681526020019081526020015f205f6101000a81548160ff0219169083151502179055508273ffffffffffffffffffffffffffffffffffffffff163373ffffffffffffffffffffffffffffffffffffffff167fceb576d9f15e4e200fdb5096d64d5dfd667e16def20c1eefd14256d8e3faa267846040516108789190611d15565b60405180910390a36001905092915050565b6003602052805f5260405f205f915090505481565b6002602052825f5260405f20602052815f5260405f20602052805f5260405f205f9250925050505481565b5f5f6108d5856115db565b915091505f8484905090505f5f90505b818110156109285761091b8686838181106109035761090261211f565b5b90506020028101906109159190612158565b85611201565b80806001019150506108e5565b50610933828461160d565b505050505050565b5f815c9050919050565b5f61094e610ef9565b90505f5f61095c8333611004565b915091505f61096d83838888611031565b90508082146109815761098083826110dc565b5b61098c338787610e23565b853373ffffffffffffffffffffffffffffffffffffffff167f4c209b5fc8ad50758f13e2e1088ba56a560dff690a1c6fef26394f4c03821c4f876040516109d39190611d3d565b60405180910390a3505050505050565b6109f7336109f13385610e0e565b836110e3565b813373ffffffffffffffffffffffffffffffffffffffff167f49995e5dd6158cf69ad3e9777c46755a1a826a446c6416992167462dad033b2a83604051610a3e9190611d3d565b60405180910390a35050565b5f602052815f5260405f20602052805f5260405f205f915091509054906101000a900460ff1681565b5f610a7c610ef9565b90505f5f610a8a8333611004565b915091505f8585905090505f5f90505b81811015610b455736878783818110610ab657610ab561211f565b5b90506040020190505f815f013590505f82602001359050610ad98787848461161d565b9550610ae63383836110e3565b813373ffffffffffffffffffffffffffffffffffffffff167f49995e5dd6158cf69ad3e9777c46755a1a826a446c6416992167462dad033b2a83604051610b2d9190611d3d565b60405180910390a35050508080600101915050610a9a565b50610b5083836110dc565b505050505050565b5f610b61610ef9565b90505f5f610b6f8333611004565b915091505f610b808383888861161d565b9050808214610b9457610b9383826110dc565b5b610b9f3387876110e3565b505050505050565b5f8282905090505f5f90505b81811015610c9e575f610be133868685818110610bd357610bd261211f565b5b9050604002015f0135610e0e565b9050610c0a8682878786818110610bfb57610bfa61211f565b5b90506040020160200135610e23565b848483818110610c1d57610c1c61211f565b5b9050604002015f01358673ffffffffffffffffffffffffffffffffffffffff167f4c209b5fc8ad50758f13e2e1088ba56a560dff690a1c6fef26394f4c03821c4f878786818110610c7157610c7061211f565b5b90506040020160200135604051610c889190611d3d565b60405180910390a3508080600101915050610bb3565b5050505050565b5f8473ffffffffffffffffffffffffffffffffffffffff163373ffffffffffffffffffffffffffffffffffffffff1614158015610d6357505f5f8673ffffffffffffffffffffffffffffffffffffffff1673ffffffffffffffffffffffffffffffffffffffff1681526020019081526020015f205f3373ffffffffffffffffffffffffffffffffffffffff1673ffffffffffffffffffffffffffffffffffffffff1681526020019081526020015f205f9054906101000a900460ff16155b15610d7457610d738584846116c8565b5b610d8085858585610d8c565b60019050949350505050565b610d978483836110e3565b610da2838383610e23565b818373ffffffffffffffffffffffffffffffffffffffff168573ffffffffffffffffffffffffffffffffffffffff167f9ed053bb818ff08b8353cd46f78db1f0799f31c9e4458fdb425c10eccd2efc4484604051610e009190611d3d565b60405180910390a450505050565b5f825f52816020526034600c20905092915050565b5f60035f8481526020019081526020015f205490505f7f7fffffffffffffffffffffffffffffffffffffffffffffffffffffffffffffff821683610e6791906121ac565b9050807f800000000000000000000000000000000000000000000000000000000000000083161760035f8681526020019081526020015f2081905550838573ffffffffffffffffffffffffffffffffffffffff167f4c209b5fc8ad50758f13e2e1088ba56a560dff690a1c6fef26394f4c03821c4f85604051610eea9190611d3d565b60405180910390a35050505050565b5f5f5f5f5c6bffffffffffffffffffffffff811691508060601c9250505f8103610f4f576040517f97013e4300000000000000000000000000000000000000000000000000000000815260040160405180910390fd5b600181035f525f602052602c60142092505f73ffffffffffffffffffffffffffffffffffffffff168273ffffffffffffffffffffffffffffffffffffffff1614158015610fc857503373ffffffffffffffffffffffffffffffffffffffff168273ffffffffffffffffffffffffffffffffffffffff1614155b15610fff576040517f1230858900000000000000000000000000000000000000000000000000000000815260040160405180910390fd5b505090565b5f5f6110108484611818565b9150815c90508061102a576001845c0180855d838186015d505b9250929050565b5f825f528460205260405f20805c8060011d84810360028160fe1c14818312176001811461106957600184168260011b17855d6110bb565b600185017f4000000000000000000000000000000000000000000000000000000000000000830160ff1c6002035f60018716156110a557825c90505b818103905080835d8015158560011b17885d5050505b50826110cd5760018801975086888a015d5b50505050839050949350505050565b80825d5050565b5f60035f8481526020019081526020015f205490505f7f7fffffffffffffffffffffffffffffffffffffffffffffffffffffffffffffff8216905082811015611161576040517f08c379a000000000000000000000000000000000000000000000000000000000815260040161115890612239565b60405180910390fd5b5f838261116e9190612257565b9050807f800000000000000000000000000000000000000000000000000000000000000084161760035f8781526020019081526020015f2081905550848673ffffffffffffffffffffffffffffffffffffffff167f49995e5dd6158cf69ad3e9777c46755a1a826a446c6416992167462dad033b2a866040516111f19190611d3d565b60405180910390a3505050505050565b5f826020016020810190611215919061228a565b90505f5f845f01602081019061122b919061228a565b90505f73ffffffffffffffffffffffffffffffffffffffff168173ffffffffffffffffffffffffffffffffffffffff160361126857339050611330565b3373ffffffffffffffffffffffffffffffffffffffff168173ffffffffffffffffffffffffffffffffffffffff161415801561132557505f5f8273ffffffffffffffffffffffffffffffffffffffff1673ffffffffffffffffffffffffffffffffffffffff1681526020019081526020015f205f3373ffffffffffffffffffffffffffffffffffffffff1673ffffffffffffffffffffffffffffffffffffffff1681526020019081526020015f205f9054906101000a900460ff16155b1561132f57600191505b5b5f5f5f5f61133d8961182d565b93509350935093505f5f6113518a88611004565b915091505f5f90505b86518110156113c2576113b3838361138f8d8b868151811061137f5761137e61211f565b5b60200260200101515f0151610e0e565b8a85815181106113a2576113a161211f565b5b60200260200101516020015161161d565b9150808060010191505061135a565b505f5f90505b855181101561144c575f6113f98b8884815181106113e9576113e861211f565b5b60200260200101515f0151610e0e565b90505f87838151811061140f5761140e61211f565b5b60200260200101516020015190508a1561142f5761142e8a83836116c8565b5b61143b85858484611031565b9350505080806001019150506113c8565b508673ffffffffffffffffffffffffffffffffffffffff168973ffffffffffffffffffffffffffffffffffffffff161415801561149657505f845114158061149557505f835114155b5b156115c4575f5f6114a78c8c611004565b915091505f5f90505b8651811015611527575f8782815181106114cd576114cc61211f565b5b60200260200101515f015190505f8883815181106114ee576114ed61211f565b5b60200260200101516020015190506115088787848461161d565b955061151685858484611031565b9350505080806001019150506114b0565b505f5f90505b85518110156115b6575f86828151811061154a5761154961211f565b5b60200260200101515f015190505f87838151811061156b5761156a61211f565b5b60200260200101516020015190508c1561158b5761158a8c83836116c8565b5b61159787878484611031565b95506115a58585848461161d565b93505050808060010191505061152d565b506115c182826110dc565b50505b6115ce82826110dc565b5050505050505050505050565b5f5f5f5c905060016bffffffffffffffffffffffff8216018360601b175f5d805f525f602052602c6014209150915091565b6116168161193f565b815f5d5050565b5f825f528460205260405f20805c8060011d84810160018160fe1c14828212176001811461165557600184168260011b17855d6116a7565b600185017f4000000000000000000000000000000000000000000000000000000000000000830160ff1c6002035f600187161561169157825c90505b818101905080835d8015158560011b17885d5050505b50826116b95760018801975086888a015d5b50505050839050949350505050565b5f60025f8573ffffffffffffffffffffffffffffffffffffffff1673ffffffffffffffffffffffffffffffffffffffff1681526020019081526020015f205f3373ffffffffffffffffffffffffffffffffffffffff1673ffffffffffffffffffffffffffffffffffffffff1681526020019081526020015f205f8481526020019081526020015f205490507fffffffffffffffffffffffffffffffffffffffffffffffffffffffffffffffff81146118125781816117869190612257565b60025f8673ffffffffffffffffffffffffffffffffffffffff1673ffffffffffffffffffffffffffffffffffffffff1681526020019081526020015f205f3373ffffffffffffffffffffffffffffffffffffffff1673ffffffffffffffffffffffffffffffffffffffff1681526020019081526020015f205f8581526020019081526020015f20819055505b50505050565b5f815f52826020526034600c20905092915050565b606080606080846020016020810190611846919061228a565b73ffffffffffffffffffffffffffffffffffffffff1663a129568d86806040019061187191906122b5565b6040518363ffffffff1660e01b815260040161188e929190612371565b5f604051808303815f875af11580156118a9573d5f5f3e3d5ffd5b505050506040513d5f823e3d601f19601f820116820180604052508101906118d19190612530565b809450819550829650839750505050505f5f1b856060013514611938575f6118f7611984565b905080866060013514611936576040517f6f0632bf00000000000000000000000000000000000000000000000000000000815260040160405180910390fd5b505b9193509193565b5f815c90505f8190505f5f90505b8181101561197e575f8160010191508185015c905061197561196f8683611818565b826119cf565b5f855d5061194d565b50505050565b5f6040518060805f833e608082015b808310156119c3578251602081833e815160061b6020820191508082843e80832085525050602083019250611993565b50608081209250505090565b5f6119d983611c03565b90505f5f90505b81811015611bfa575f5f5f8360010193508387015c9250825f528660205260405f209050805c91505f8203611a1757505050611bf5565b5f6001831690508260011d92505f825d8015611bc9575f600183015c90507ffffffffffffffffffffffffffffffffffffffffffffffffffffffffffffffffe8103611aa8575f841215611a96576040517f778214eb00000000000000000000000000000000000000000000000000000000815260040160405180910390fd5b611aa38886865f036110e3565b611bc3565b7fffffffffffffffffffffffffffffffffffffffffffffffffffffffffffffffff8103611b0357611afe88867f8000000000000000000000000000000000000000000000000000000000000000875f03016110e3565b611bc2565b60018103611b3d57611b3888867f80000000000000000000000000000000000000000000000000000000000000008701610e23565b611bc1565b60028103611b8e575f8412611b7e576040517f778214eb00000000000000000000000000000000000000000000000000000000815260040160405180910390fd5b611b89888686610e23565b611bc0565b6040517f778214eb00000000000000000000000000000000000000000000000000000000815260040160405180910390fd5b5b5b5b50611bf0565b5f831215611be357611bde8785855f036110e3565b611bef565b611bee878585610e23565b5b5b505050505b6119e0565b505f835d505050565b5f815c9050919050565b5f604051905090565b5f5ffd5b5f5ffd5b5f73ffffffffffffffffffffffffffffffffffffffff82169050919050565b5f611c4782611c1e565b9050919050565b611c5781611c3d565b8114611c61575f5ffd5b50565b5f81359050611c7281611c4e565b92915050565b5f819050919050565b611c8a81611c78565b8114611c94575f5ffd5b50565b5f81359050611ca581611c81565b92915050565b5f5f5f60608486031215611cc257611cc1611c16565b5b5f611ccf86828701611c64565b9350506020611ce086828701611c97565b9250506040611cf186828701611c97565b9150509250925092565b5f8115159050919050565b611d0f81611cfb565b82525050565b5f602082019050611d285f830184611d06565b92915050565b611d3781611c78565b82525050565b5f602082019050611d505f830184611d2e565b92915050565b5f5ffd5b5f5ffd5b5f5ffd5b5f5f83601f840112611d7757611d76611d56565b5b8235905067ffffffffffffffff811115611d9457611d93611d5a565b5b602083019150836040820283011115611db057611daf611d5e565b5b9250929050565b5f5f60208385031215611dcd57611dcc611c16565b5b5f83013567ffffffffffffffff811115611dea57611de9611c1a565b5b611df685828601611d62565b92509250509250929050565b5f5f83601f840112611e1757611e16611d56565b5b8235905067ffffffffffffffff811115611e3457611e33611d5a565b5b602083019150836020820283011115611e5057611e4f611d5e565b5b9250929050565b5f5f60208385031215611e6d57611e6c611c16565b5b5f83013567ffffffffffffffff811115611e8a57611e89611c1a565b5b611e9685828601611e02565b92509250509250929050565b611eab81611cfb565b8114611eb5575f5ffd5b50565b5f81359050611ec681611ea2565b92915050565b5f5f60408385031215611ee257611ee1611c16565b5b5f611eef85828601611c64565b9250506020611f0085828601611eb8565b9150509250929050565b5f60208284031215611f1f57611f1e611c16565b5b5f611f2c84828501611c97565b91505092915050565b5f5f5f60608486031215611f4c57611f4b611c16565b5b5f611f5986828701611c64565b9350506020611f6a86828701611c64565b9250506040611f7b86828701611c97565b9150509250925092565b5f5f5f60408486031215611f9c57611f9b611c16565b5b5f611fa986828701611c64565b935050602084013567ffffffffffffffff811115611fca57611fc9611c1a565b5b611fd686828701611e02565b92509250509250925092565b5f5f60408385031215611ff857611ff7611c16565b5b5f61200585828601611c97565b925050602061201685828601611c97565b9150509250929050565b5f5f6040838503121561203657612035611c16565b5b5f61204385828601611c64565b925050602061205485828601611c64565b9150509250929050565b5f5f5f6040848603121561207557612074611c16565b5b5f61208286828701611c64565b935050602084013567ffffffffffffffff8111156120a3576120a2611c1a565b5b6120af86828701611d62565b92509250509250925092565b5f5f5f5f608085870312156120d3576120d2611c16565b5b5f6120e087828801611c64565b94505060206120f187828801611c64565b935050604061210287828801611c97565b925050606061211387828801611c97565b91505092959194509250565b7f4e487b71000000000000000000000000000000000000000000000000000000005f52603260045260245ffd5b5f5ffd5b5f5ffd5b5f5ffd5b5f823560016080038336030381126121735761217261214c565b5b80830191505092915050565b7f4e487b71000000000000000000000000000000000000000000000000000000005f52601160045260245ffd5b5f6121b682611c78565b91506121c183611c78565b92508282019050808211156121d9576121d861217f565b5b92915050565b5f82825260208201905092915050565b7f496e73756666696369656e742062616c616e63650000000000000000000000005f82015250565b5f6122236014836121df565b915061222e826121ef565b602082019050919050565b5f6020820190508181035f83015261225081612217565b9050919050565b5f61226182611c78565b915061226c83611c78565b92508282039050818111156122845761228361217f565b5b92915050565b5f6020828403121561229f5761229e611c16565b5b5f6122ac84828501611c64565b91505092915050565b5f5f833560016020038436030381126122d1576122d061214c565b5b80840192508235915067ffffffffffffffff8211156122f3576122f2612150565b5b60208301925060018202360383131561230f5761230e612154565b5b509250929050565b5f82825260208201905092915050565b828183375f83830152505050565b5f601f19601f8301169050919050565b5f6123508385612317565b935061235d838584612327565b61236683612335565b840190509392505050565b5f6020820190508181035f83015261238a818486612345565b90509392505050565b7f4e487b71000000000000000000000000000000000000000000000000000000005f52604160045260245ffd5b6123c982612335565b810181811067ffffffffffffffff821117156123e8576123e7612393565b5b80604052505050565b5f6123fa611c0d565b905061240682826123c0565b919050565b5f67ffffffffffffffff82111561242557612424612393565b5b602082029050602081019050919050565b5f5ffd5b5f8151905061244881611c81565b92915050565b5f6040828403121561246357612462612436565b5b61246d60406123f1565b90505f61247c8482850161243a565b5f83015250602061248f8482850161243a565b60208301525092915050565b5f6124ad6124a88461240b565b6123f1565b905080838252602082019050604084028301858111156124d0576124cf611d5e565b5b835b818110156124f957806124e5888261244e565b8452602084019350506040810190506124d2565b5050509392505050565b5f82601f83011261251757612516611d56565b5b815161252784826020860161249b565b91505092915050565b5f5f5f5f6080858703121561254857612547611c16565b5b5f85015167ffffffffffffffff81111561256557612564611c1a565b5b61257187828801612503565b945050602085015167ffffffffffffffff81111561259257612591611c1a565b5b61259e87828801612503565b935050604085015167ffffffffffffffff8111156125bf576125be611c1a565b5b6125cb87828801612503565b925050606085015167ffffffffffffffff8111156125ec576125eb611c1a565b5b6125f887828801612503565b9150509295919450925056fea26469706673582212202c7333742426137814cbe9bcfa73534928c10e06d5215be1cdaa5abbd097c94364736f6c634300081c0033",
			"opcodes": "PUSH1 0x80 PUSH1 0x40 MSTORE CALLVALUE DUP1 ISZERO PUSH1 0xE JUMPI PUSH0 PUSH0 REVERT JUMPDEST POP PUSH2 0x263A DUP1 PUSH2 0x1C PUSH0 CODECOPY PUSH0 RETURN INVALID PUSH1 0x80 PUSH1 0x40 MSTORE CALLVALUE DUP1 ISZERO PUSH2 0xF JUMPI PUSH0 PUSH0 REVERT JUMPDEST POP PUSH1 0x4 CALLDATASIZE LT PUSH2 0x11F JUMPI PUSH0 CALLDATALOAD PUSH1 0xE0 SHR DUP1 PUSH4 0x598AF9E7 GT PUSH2 0xAB JUMPI DUP1 PUSH4 0xB6363CF2 GT PUSH2 0x6F JUMPI DUP1 PUSH4 0xB6363CF2 EQ PUSH2 0x337 JUMPI DUP1 PUSH4 0xE3033041 EQ PUSH2 0x367 JUMPI DUP1 PUSH4 0xE747F31C EQ PUSH2 0x383 JUMPI DUP1 PUSH4 0xF3178DD1 EQ PUSH2 0x39F JUMPI DUP1 PUSH4 0xFE99049A EQ PUSH2 0x3BB JUMPI PUSH2 0x11F JUMP JUMPDEST DUP1 PUSH4 0x598AF9E7 EQ PUSH2 0x283 JUMPI DUP1 PUSH4 0x62BA62E5 EQ PUSH2 0x2B3 JUMPI DUP1 PUSH4 0xA42BFF86 EQ PUSH2 0x2CF JUMPI DUP1 PUSH4 0xAB7CCC1C EQ PUSH2 0x2FF JUMPI DUP1 PUSH4 0xB390C0AB EQ PUSH2 0x31B JUMPI PUSH2 0x11F JUMP JUMPDEST DUP1 PUSH4 0x36223AC2 GT PUSH2 0xF2 JUMPI DUP1 PUSH4 0x36223AC2 EQ PUSH2 0x1BB JUMPI DUP1 PUSH4 0x426A8493 EQ PUSH2 0x1D7 JUMPI DUP1 PUSH4 0x52D2ACCF EQ PUSH2 0x207 JUMPI DUP1 PUSH4 0x558A7297 EQ PUSH2 0x223 JUMPI DUP1 PUSH4 0x56CBFE3E EQ PUSH2 0x253 JUMPI PUSH2 0x11F JUMP JUMPDEST DUP1 PUSH4 0x95BCDB6 EQ PUSH2 0x123 JUMPI DUP1 PUSH4 0x156E29F6 EQ PUSH2 0x153 JUMPI DUP1 PUSH4 0x2D760D57 EQ PUSH2 0x16F JUMPI DUP1 PUSH4 0x355F580E EQ PUSH2 0x19F JUMPI JUMPDEST PUSH0 PUSH0 REVERT JUMPDEST PUSH2 0x13D PUSH1 0x4 DUP1 CALLDATASIZE SUB DUP2 ADD SWAP1 PUSH2 0x138 SWAP2 SWAP1 PUSH2 0x1CAB JUMP JUMPDEST PUSH2 0x3EB JUMP JUMPDEST PUSH1 0x40 MLOAD PUSH2 0x14A SWAP2 SWAP1 PUSH2 0x1D15 JUMP JUMPDEST PUSH1 0x40 MLOAD DUP1 SWAP2 SUB SWAP1 RETURN JUMPDEST PUSH2 0x16D PUSH1 0x4 DUP1 CALLDATASIZE SUB DUP2 ADD SWAP1 PUSH2 0x168 SWAP2 SWAP1 PUSH2 0x1CAB JUMP JUMPDEST PUSH2 0x403 JUMP JUMPDEST STOP JUMPDEST PUSH2 0x189 PUSH1 0x4 DUP1 CALLDATASIZE SUB DUP2 ADD SWAP1 PUSH2 0x184 SWAP2 SWAP1 PUSH2 0x1CAB JUMP JUMPDEST PUSH2 0x46B JUMP JUMPDEST PUSH1 0x40 MLOAD PUSH2 0x196 SWAP2 SWAP1 PUSH2 0x1D3D JUMP JUMPDEST PUSH1 0x40 MLOAD DUP1 SWAP2 SUB SWAP1 RETURN JUMPDEST PUSH2 0x1B9 PUSH1 0x4 DUP1 CALLDATASIZE SUB DUP2 ADD SWAP1 PUSH2 0x1B4 SWAP2 SWAP1 PUSH2 0x1DB7 JUMP JUMPDEST PUSH2 0x49A JUMP JUMPDEST STOP JUMPDEST PUSH2 0x1D5 PUSH1 0x4 DUP1 CALLDATASIZE SUB DUP2 ADD SWAP1 PUSH2 0x1D0 SWAP2 SWAP1 PUSH2 0x1DB7 JUMP JUMPDEST PUSH2 0x530 JUMP JUMPDEST STOP JUMPDEST PUSH2 0x1F1 PUSH1 0x4 DUP1 CALLDATASIZE SUB DUP2 ADD SWAP1 PUSH2 0x1EC SWAP2 SWAP1 PUSH2 0x1CAB JUMP JUMPDEST PUSH2 0x62D JUMP JUMPDEST PUSH1 0x40 MLOAD PUSH2 0x1FE SWAP2 SWAP1 PUSH2 0x1D15 JUMP JUMPDEST PUSH1 0x40 MLOAD DUP1 SWAP2 SUB SWAP1 RETURN JUMPDEST PUSH2 0x221 PUSH1 0x4 DUP1 CALLDATASIZE SUB DUP2 ADD SWAP1 PUSH2 0x21C SWAP2 SWAP1 PUSH2 0x1E57 JUMP JUMPDEST PUSH2 0x72B JUMP JUMPDEST STOP JUMPDEST PUSH2 0x23D PUSH1 0x4 DUP1 CALLDATASIZE SUB DUP2 ADD SWAP1 PUSH2 0x238 SWAP2 SWAP1 PUSH2 0x1ECC JUMP JUMPDEST PUSH2 0x78C JUMP JUMPDEST PUSH1 0x40 MLOAD PUSH2 0x24A SWAP2 SWAP1 PUSH2 0x1D15 JUMP JUMPDEST PUSH1 0x40 MLOAD DUP1 SWAP2 SUB SWAP1 RETURN JUMPDEST PUSH2 0x26D PUSH1 0x4 DUP1 CALLDATASIZE SUB DUP2 ADD SWAP1 PUSH2 0x268 SWAP2 SWAP1 PUSH2 0x1F0A JUMP JUMPDEST PUSH2 0x88A JUMP JUMPDEST PUSH1 0x40 MLOAD PUSH2 0x27A SWAP2 SWAP1 PUSH2 0x1D3D JUMP JUMPDEST PUSH1 0x40 MLOAD DUP1 SWAP2 SUB SWAP1 RETURN JUMPDEST PUSH2 0x29D PUSH1 0x4 DUP1 CALLDATASIZE SUB DUP2 ADD SWAP1 PUSH2 0x298 SWAP2 SWAP1 PUSH2 0x1F35 JUMP JUMPDEST PUSH2 0x89F JUMP JUMPDEST PUSH1 0x40 MLOAD PUSH2 0x2AA SWAP2 SWAP1 PUSH2 0x1D3D JUMP JUMPDEST PUSH1 0x40 MLOAD DUP1 SWAP2 SUB SWAP1 RETURN JUMPDEST PUSH2 0x2CD PUSH1 0x4 DUP1 CALLDATASIZE SUB DUP2 ADD SWAP1 PUSH2 0x2C8 SWAP2 SWAP1 PUSH2 0x1F85 JUMP JUMPDEST PUSH2 0x8CA JUMP JUMPDEST STOP JUMPDEST PUSH2 0x2E9 PUSH1 0x4 DUP1 CALLDATASIZE SUB DUP2 ADD SWAP1 PUSH2 0x2E4 SWAP2 SWAP1 PUSH2 0x1F0A JUMP JUMPDEST PUSH2 0x93B JUMP JUMPDEST PUSH1 0x40 MLOAD PUSH2 0x2F6 SWAP2 SWAP1 PUSH2 0x1D3D JUMP JUMPDEST PUSH1 0x40 MLOAD DUP1 SWAP2 SUB SWAP1 RETURN JUMPDEST PUSH2 0x319 PUSH1 0x4 DUP1 CALLDATASIZE SUB DUP2 ADD SWAP1 PUSH2 0x314 SWAP2 SWAP1 PUSH2 0x1FE2 JUMP JUMPDEST PUSH2 0x945 JUMP JUMPDEST STOP JUMPDEST PUSH2 0x335 PUSH1 0x4 DUP1 CALLDATASIZE SUB DUP2 ADD SWAP1 PUSH2 0x330 SWAP2 SWAP1 PUSH2 0x1FE2 JUMP JUMPDEST PUSH2 0x9E3 JUMP JUMPDEST STOP JUMPDEST PUSH2 0x351 PUSH1 0x4 DUP1 CALLDATASIZE SUB DUP2 ADD SWAP1 PUSH2 0x34C SWAP2 SWAP1 PUSH2 0x2020 JUMP JUMPDEST PUSH2 0xA4A JUMP JUMPDEST PUSH1 0x40 MLOAD PUSH2 0x35E SWAP2 SWAP1 PUSH2 0x1D15 JUMP JUMPDEST PUSH1 0x40 MLOAD DUP1 SWAP2 SUB SWAP1 RETURN JUMPDEST PUSH2 0x381 PUSH1 0x4 DUP1 CALLDATASIZE SUB DUP2 ADD SWAP1 PUSH2 0x37C SWAP2 SWAP1 PUSH2 0x1DB7 JUMP JUMPDEST PUSH2 0xA73 JUMP JUMPDEST STOP JUMPDEST PUSH2 0x39D PUSH1 0x4 DUP1 CALLDATASIZE SUB DUP2 ADD SWAP1 PUSH2 0x398 SWAP2 SWAP1 PUSH2 0x1FE2 JUMP JUMPDEST PUSH2 0xB58 JUMP JUMPDEST STOP JUMPDEST PUSH2 0x3B9 PUSH1 0x4 DUP1 CALLDATASIZE SUB DUP2 ADD SWAP1 PUSH2 0x3B4 SWAP2 SWAP1 PUSH2 0x205E JUMP JUMPDEST PUSH2 0xBA7 JUMP JUMPDEST STOP JUMPDEST PUSH2 0x3D5 PUSH1 0x4 DUP1 CALLDATASIZE SUB DUP2 ADD SWAP1 PUSH2 0x3D0 SWAP2 SWAP1 PUSH2 0x20BB JUMP JUMPDEST PUSH2 0xCA5 JUMP JUMPDEST PUSH1 0x40 MLOAD PUSH2 0x3E2 SWAP2 SWAP1 PUSH2 0x1D15 JUMP JUMPDEST PUSH1 0x40 MLOAD DUP1 SWAP2 SUB SWAP1 RETURN JUMPDEST PUSH0 PUSH2 0x3F8 CALLER DUP6 DUP6 DUP6 PUSH2 0xD8C JUMP JUMPDEST PUSH1 0x1 SWAP1 POP SWAP4 SWAP3 POP POP POP JUMP JUMPDEST PUSH2 0x417 DUP4 PUSH2 0x411 CALLER DUP6 PUSH2 0xE0E JUMP JUMPDEST DUP4 PUSH2 0xE23 JUMP JUMPDEST DUP2 DUP4 PUSH20 0xFFFFFFFFFFFFFFFFFFFFFFFFFFFFFFFFFFFFFFFF AND PUSH32 0x4C209B5FC8AD50758F13E2E1088BA56A560DFF690A1C6FEF26394F4C03821C4F DUP4 PUSH1 0x40 MLOAD PUSH2 0x45E SWAP2 SWAP1 PUSH2 0x1D3D JUMP JUMPDEST PUSH1 0x40 MLOAD DUP1 SWAP2 SUB SWAP1 LOG3 POP POP POP JUMP JUMPDEST PUSH1 0x1 PUSH1 0x20 MSTORE DUP3 PUSH0 MSTORE PUSH1 0x40 PUSH0 KECCAK256 PUSH1 0x20 MSTORE DUP2 PUSH0 MSTORE PUSH1 0x40 PUSH0 KECCAK256 DUP2 PUSH1 0x2 DUP2 LT PUSH2 0x48E JUMPI PUSH0 DUP1 REVERT JUMPDEST ADD PUSH0 SWAP3 POP SWAP3 POP POP POP SLOAD DUP2 JUMP JUMPDEST PUSH0 PUSH2 0x4A3 PUSH2 0xEF9 JUMP JUMPDEST SWAP1 POP PUSH0 PUSH0 PUSH2 0x4B1 DUP4 CALLER PUSH2 0x1004 JUMP JUMPDEST SWAP2 POP SWAP2 POP PUSH0 DUP6 DUP6 SWAP1 POP SWAP1 POP PUSH0 PUSH0 SWAP1 POP JUMPDEST DUP2 DUP2 LT ISZERO PUSH2 0x51D JUMPI CALLDATASIZE DUP8 DUP8 DUP4 DUP2 DUP2 LT PUSH2 0x4DD JUMPI PUSH2 0x4DC PUSH2 0x211F JUMP JUMPDEST JUMPDEST SWAP1 POP PUSH1 0x40 MUL ADD SWAP1 POP PUSH0 DUP2 PUSH0 ADD CALLDATALOAD SWAP1 POP PUSH0 DUP3 PUSH1 0x20 ADD CALLDATALOAD SWAP1 POP PUSH2 0x500 DUP8 DUP8 DUP5 DUP5 PUSH2 0x1031 JUMP JUMPDEST SWAP6 POP PUSH2 0x50D CALLER DUP4 DUP4 PUSH2 0xE23 JUMP JUMPDEST POP POP POP DUP1 DUP1 PUSH1 0x1 ADD SWAP2 POP POP PUSH2 0x4C1 JUMP JUMPDEST POP PUSH2 0x528 DUP4 DUP4 PUSH2 0x10DC JUMP JUMPDEST POP POP POP POP POP POP JUMP JUMPDEST PUSH0 DUP3 DUP3 SWAP1 POP SWAP1 POP PUSH0 PUSH0 SWAP1 POP JUMPDEST DUP2 DUP2 LT ISZERO PUSH2 0x627 JUMPI PUSH0 PUSH2 0x56A CALLER DUP7 DUP7 DUP6 DUP2 DUP2 LT PUSH2 0x55C JUMPI PUSH2 0x55B PUSH2 0x211F JUMP JUMPDEST JUMPDEST SWAP1 POP PUSH1 0x40 MUL ADD PUSH0 ADD CALLDATALOAD PUSH2 0xE0E JUMP JUMPDEST SWAP1 POP PUSH2 0x593 CALLER DUP3 DUP8 DUP8 DUP7 DUP2 DUP2 LT PUSH2 0x584 JUMPI PUSH2 0x583 PUSH2 0x211F JUMP JUMPDEST JUMPDEST SWAP1 POP PUSH1 0x40 MUL ADD PUSH1 0x20 ADD CALLDATALOAD PUSH2 0x10E3 JUMP JUMPDEST DUP5 DUP5 DUP4 DUP2 DUP2 LT PUSH2 0x5A6 JUMPI PUSH2 0x5A5 PUSH2 0x211F JUMP JUMPDEST JUMPDEST SWAP1 POP PUSH1 0x40 MUL ADD PUSH0 ADD CALLDATALOAD CALLER PUSH20 0xFFFFFFFFFFFFFFFFFFFFFFFFFFFFFFFFFFFFFFFF AND PUSH32 0x49995E5DD6158CF69AD3E9777C46755A1A826A446C6416992167462DAD033B2A DUP8 DUP8 DUP7 DUP2 DUP2 LT PUSH2 0x5FA JUMPI PUSH2 0x5F9 PUSH2 0x211F JUMP JUMPDEST JUMPDEST SWAP1 POP PUSH1 0x40 MUL ADD PUSH1 0x20 ADD CALLDATALOAD PUSH1 0x40 MLOAD PUSH2 0x611 SWAP2 SWAP1 PUSH2 0x1D3D JUMP JUMPDEST PUSH1 0x40 MLOAD DUP1 SWAP2 SUB SWAP1 LOG3 POP DUP1 DUP1 PUSH1 0x1 ADD SWAP2 POP POP PUSH2 0x53C JUMP JUMPDEST POP POP POP POP JUMP JUMPDEST PUSH0 DUP2 PUSH1 0x2 PUSH0 CALLER PUSH20 0xFFFFFFFFFFFFFFFFFFFFFFFFFFFFFFFFFFFFFFFF AND PUSH20 0xFFFFFFFFFFFFFFFFFFFFFFFFFFFFFFFFFFFFFFFF AND DUP2 MSTORE PUSH1 0x20 ADD SWAP1 DUP2 MSTORE PUSH1 0x20 ADD PUSH0 KECCAK256 PUSH0 DUP7 PUSH20 0xFFFFFFFFFFFFFFFFFFFFFFFFFFFFFFFFFFFFFFFF AND PUSH20 0xFFFFFFFFFFFFFFFFFFFFFFFFFFFFFFFFFFFFFFFF AND DUP2 MSTORE PUSH1 0x20 ADD SWAP1 DUP2 MSTORE PUSH1 0x20 ADD PUSH0 KECCAK256 PUSH0 DUP6 DUP2 MSTORE PUSH1 0x20 ADD SWAP1 DUP2 MSTORE PUSH1 0x20 ADD PUSH0 KECCAK256 DUP2 SWAP1 SSTORE POP DUP3 DUP5 PUSH20 0xFFFFFFFFFFFFFFFFFFFFFFFFFFFFFFFFFFFFFFFF AND CALLER PUSH20 0xFFFFFFFFFFFFFFFFFFFFFFFFFFFFFFFFFFFFFFFF AND PUSH32 0xB3FD5071835887567A0671151121894DDCCC2842F1D10BEDAD13E0D17CACE9A7 DUP6 PUSH1 0x40 MLOAD PUSH2 0x718 SWAP2 SWAP1 PUSH2 0x1D3D JUMP JUMPDEST PUSH1 0x40 MLOAD DUP1 SWAP2 SUB SWAP1 LOG4 PUSH1 0x1 SWAP1 POP SWAP4 SWAP3 POP POP POP JUMP JUMPDEST PUSH0 PUSH2 0x734 PUSH2 0xEF9 JUMP JUMPDEST SWAP1 POP PUSH0 DUP4 DUP4 SWAP1 POP SWAP1 POP PUSH0 PUSH0 SWAP1 POP JUMPDEST DUP2 DUP2 LT ISZERO PUSH2 0x785 JUMPI PUSH2 0x778 DUP6 DUP6 DUP4 DUP2 DUP2 LT PUSH2 0x760 JUMPI PUSH2 0x75F PUSH2 0x211F JUMP JUMPDEST JUMPDEST SWAP1 POP PUSH1 0x20 MUL DUP2 ADD SWAP1 PUSH2 0x772 SWAP2 SWAP1 PUSH2 0x2158 JUMP JUMPDEST DUP5 PUSH2 0x1201 JUMP JUMPDEST DUP1 DUP1 PUSH1 0x1 ADD SWAP2 POP POP PUSH2 0x742 JUMP JUMPDEST POP POP POP POP POP JUMP JUMPDEST PUSH0 DUP2 PUSH0 PUSH0 CALLER PUSH20 0xFFFFFFFFFFFFFFFFFFFFFFFFFFFFFFFFFFFFFFFF AND PUSH20 0xFFFFFFFFFFFFFFFFFFFFFFFFFFFFFFFFFFFFFFFF AND DUP2 MSTORE PUSH1 0x20 ADD SWAP1 DUP2 MSTORE PUSH1 0x20 ADD PUSH0 KECCAK256 PUSH0 DUP6 PUSH20 0xFFFFFFFFFFFFFFFFFFFFFFFFFFFFFFFFFFFFFFFF AND PUSH20 0xFFFFFFFFFFFFFFFFFFFFFFFFFFFFFFFFFFFFFFFF AND DUP2 MSTORE PUSH1 0x20 ADD SWAP1 DUP2 MSTORE PUSH1 0x20 ADD PUSH0 KECCAK256 PUSH0 PUSH2 0x100 EXP DUP2 SLOAD DUP2 PUSH1 0xFF MUL NOT AND SWAP1 DUP4 ISZERO ISZERO MUL OR SWAP1 SSTORE POP DUP3 PUSH20 0xFFFFFFFFFFFFFFFFFFFFFFFFFFFFFFFFFFFFFFFF AND CALLER PUSH20 0xFFFFFFFFFFFFFFFFFFFFFFFFFFFFFFFFFFFFFFFF AND PUSH32 0xCEB576D9F15E4E200FDB5096D64D5DFD667E16DEF20C1EEFD14256D8E3FAA267 DUP5 PUSH1 0x40 MLOAD PUSH2 0x878 SWAP2 SWAP1 PUSH2 0x1D15 JUMP JUMPDEST PUSH1 0x40 MLOAD DUP1 SWAP2 SUB SWAP1 LOG3 PUSH1 0x1 SWAP1 POP SWAP3 SWAP2 POP POP JUMP JUMPDEST PUSH1 0x3 PUSH1 0x20 MSTORE DUP1 PUSH0 MSTORE PUSH1 0x40 PUSH0 KECCAK256 PUSH0 SWAP2 POP SWAP1 POP SLOAD DUP2 JUMP JUMPDEST PUSH1 0x2 PUSH1 0x20 MSTORE DUP3 PUSH0 MSTORE PUSH1 0x40 PUSH0 KECCAK256 PUSH1 0x20 MSTORE DUP2 PUSH0 MSTORE PUSH1 0x40 PUSH0 KECCAK256 PUSH1 0x20 MSTORE DUP1 PUSH0 MSTORE PUSH1 0x40 PUSH0 KECCAK256 PUSH0 SWAP3 POP SWAP3 POP POP POP SLOAD DUP2 JUMP JUMPDEST PUSH0 PUSH0 PUSH2 0x8D5 DUP6 PUSH2 0x15DB JUMP JUMPDEST SWAP2 POP SWAP2 POP PUSH0 DUP5 DUP5 SWAP1 POP SWAP1 POP PUSH0 PUSH0 SWAP1 POP JUMPDEST DUP2 DUP2 LT ISZERO PUSH2 0x928 JUMPI PUSH2 0x91B DUP7 DUP7 DUP4 DUP2 DUP2 LT PUSH2 0x903 JUMPI PUSH2 0x902 PUSH2 0x211F JUMP JUMPDEST JUMPDEST SWAP1 POP PUSH1 0x20 MUL DUP2 ADD SWAP1 PUSH2 0x915 SWAP2 SWAP1 PUSH2 0x2158 JUMP JUMPDEST DUP6 PUSH2 0x1201 JUMP JUMPDEST DUP1 DUP1 PUSH1 0x1 ADD SWAP2 POP POP PUSH2 0x8E5 JUMP JUMPDEST POP PUSH2 0x933 DUP3 DUP5 PUSH2 0x160D JUMP JUMPDEST POP POP POP POP POP POP JUMP JUMPDEST PUSH0 DUP2 TLOAD SWAP1 POP SWAP2 SWAP1 POP JUMP JUMPDEST PUSH0 PUSH2 0x94E PUSH2 0xEF9 JUMP JUMPDEST SWAP1 POP PUSH0 PUSH0 PUSH2 0x95C DUP4 CALLER PUSH2 0x1004 JUMP JUMPDEST SWAP2 POP SWAP2 POP PUSH0 PUSH2 0x96D DUP4 DUP4 DUP9 DUP9 PUSH2 0x1031 JUMP JUMPDEST SWAP1 POP DUP1 DUP3 EQ PUSH2 0x981 JUMPI PUSH2 0x980 DUP4 DUP3 PUSH2 0x10DC JUMP JUMPDEST JUMPDEST PUSH2 0x98C CALLER DUP8 DUP8 PUSH2 0xE23 JUMP JUMPDEST DUP6 CALLER PUSH20 0xFFFFFFFFFFFFFFFFFFFFFFFFFFFFFFFFFFFFFFFF AND PUSH32 0x4C209B5FC8AD50758F13E2E1088BA56A560DFF690A1C6FEF26394F4C03821C4F DUP8 PUSH1 0x40 MLOAD PUSH2 0x9D3 SWAP2 SWAP1 PUSH2 0x1D3D JUMP JUMPDEST PUSH1 0x40 MLOAD DUP1 SWAP2 SUB SWAP1 LOG3 POP POP POP POP POP POP JUMP JUMPDEST PUSH2 0x9F7 CALLER PUSH2 0x9F1 CALLER DUP6 PUSH2 0xE0E JUMP JUMPDEST DUP4 PUSH2 0x10E3 JUMP JUMPDEST DUP2 CALLER PUSH20 0xFFFFFFFFFFFFFFFFFFFFFFFFFFFFFFFFFFFFFFFF AND PUSH32 0x49995E5DD6158CF69AD3E9777C46755A1A826A446C6416992167462DAD033B2A DUP4 PUSH1 0x40 MLOAD PUSH2 0xA3E SWAP2 SWAP1 PUSH2 0x1D3D JUMP JUMPDEST PUSH1 0x40 MLOAD DUP1 SWAP2 SUB SWAP1 LOG3 POP POP JUMP JUMPDEST PUSH0 PUSH1 0x20 MSTORE DUP2 PUSH0 MSTORE PUSH1 0x40 PUSH0 KECCAK256 PUSH1 0x20 MSTORE DUP1 PUSH0 MSTORE PUSH1 0x40 PUSH0 KECCAK256 PUSH0 SWAP2 POP SWAP2 POP SWAP1 SLOAD SWAP1 PUSH2 0x100 EXP SWAP1 DIV PUSH1 0xFF AND DUP2 JUMP JUMPDEST PUSH0 PUSH2 0xA7C PUSH2 0xEF9 JUMP JUMPDEST SWAP1 POP PUSH0 PUSH0 PUSH2 0xA8A DUP4 CALLER PUSH2 0x1004 JUMP JUMPDEST SWAP2 POP SWAP2 POP PUSH0 DUP6 DUP6 SWAP1 POP SWAP1 POP PUSH0 PUSH0 SWAP1 POP JUMPDEST DUP2 DUP2 LT ISZERO PUSH2 0xB45 JUMPI CALLDATASIZE DUP8 DUP8 DUP4 DUP2 DUP2 LT PUSH2 0xAB6 JUMPI PUSH2 0xAB5 PUSH2 0x211F JUMP JUMPDEST JUMPDEST SWAP1 POP PUSH1 0x40 MUL ADD SWAP1 POP PUSH0 DUP2 PUSH0 ADD CALLDATALOAD SWAP1 POP PUSH0 DUP3 PUSH1 0x20 ADD CALLDATALOAD SWAP1 POP PUSH2 0xAD9 DUP8 DUP8 DUP5 DUP5 PUSH2 0x161D JUMP JUMPDEST SWAP6 POP PUSH2 0xAE6 CALLER DUP4 DUP4 PUSH2 0x10E3 JUMP JUMPDEST DUP2 CALLER PUSH20 0xFFFFFFFFFFFFFFFFFFFFFFFFFFFFFFFFFFFFFFFF AND PUSH32 0x49995E5DD6158CF69AD3E9777C46755A1A826A446C6416992167462DAD033B2A DUP4 PUSH1 0x40 MLOAD PUSH2 0xB2D SWAP2 SWAP1 PUSH2 0x1D3D JUMP JUMPDEST PUSH1 0x40 MLOAD DUP1 SWAP2 SUB SWAP1 LOG3 POP POP POP DUP1 DUP1 PUSH1 0x1 ADD SWAP2 POP POP PUSH2 0xA9A JUMP JUMPDEST POP PUSH2 0xB50 DUP4 DUP4 PUSH2 0x10DC JUMP JUMPDEST POP POP POP POP POP POP JUMP JUMPDEST PUSH0 PUSH2 0xB61 PUSH2 0xEF9 JUMP JUMPDEST SWAP1 POP PUSH0 PUSH0 PUSH2 0xB6F DUP4 CALLER PUSH2 0x1004 JUMP JUMPDEST SWAP2 POP SWAP2 POP PUSH0 PUSH2 0xB80 DUP4 DUP4 DUP9 DUP9 PUSH2 0x161D JUMP JUMPDEST SWAP1 POP DUP1 DUP3 EQ PUSH2 0xB94 JUMPI PUSH2 0xB93 DUP4 DUP3 PUSH2 0x10DC JUMP JUMPDEST JUMPDEST PUSH2 0xB9F CALLER DUP8 DUP8 PUSH2 0x10E3 JUMP JUMPDEST POP POP POP POP POP POP JUMP JUMPDEST PUSH0 DUP3 DUP3 SWAP1 POP SWAP1 POP PUSH0 PUSH0 SWAP1 POP JUMPDEST DUP2 DUP2 LT ISZERO PUSH2 0xC9E JUMPI PUSH0 PUSH2 0xBE1 CALLER DUP7 DUP7 DUP6 DUP2 DUP2 LT PUSH2 0xBD3 JUMPI PUSH2 0xBD2 PUSH2 0x211F JUMP JUMPDEST JUMPDEST SWAP1 POP PUSH1 0x40 MUL ADD PUSH0 ADD CALLDATALOAD PUSH2 0xE0E JUMP JUMPDEST SWAP1 POP PUSH2 0xC0A DUP7 DUP3 DUP8 DUP8 DUP7 DUP2 DUP2 LT PUSH2 0xBFB JUMPI PUSH2 0xBFA PUSH2 0x211F JUMP JUMPDEST JUMPDEST SWAP1 POP PUSH1 0x40 MUL ADD PUSH1 0x20 ADD CALLDATALOAD PUSH2 0xE23 JUMP JUMPDEST DUP5 DUP5 DUP4 DUP2 DUP2 LT PUSH2 0xC1D JUMPI PUSH2 0xC1C PUSH2 0x211F JUMP JUMPDEST JUMPDEST SWAP1 POP PUSH1 0x40 MUL ADD PUSH0 ADD CALLDATALOAD DUP7 PUSH20 0xFFFFFFFFFFFFFFFFFFFFFFFFFFFFFFFFFFFFFFFF AND PUSH32 0x4C209B5FC8AD50758F13E2E1088BA56A560DFF690A1C6FEF26394F4C03821C4F DUP8 DUP8 DUP7 DUP2 DUP2 LT PUSH2 0xC71 JUMPI PUSH2 0xC70 PUSH2 0x211F JUMP JUMPDEST JUMPDEST SWAP1 POP PUSH1 0x40 MUL ADD PUSH1 0x20 ADD CALLDATALOAD PUSH1 0x40 MLOAD PUSH2 0xC88 SWAP2 SWAP1 PUSH2 0x1D3D JUMP JUMPDEST PUSH1 0x40 MLOAD DUP1 SWAP2 SUB SWAP1 LOG3 POP DUP1 DUP1 PUSH1 0x1 ADD SWAP2 POP POP PUSH2 0xBB3 JUMP JUMPDEST POP POP POP POP POP JUMP JUMPDEST PUSH0 DUP5 PUSH20 0xFFFFFFFFFFFFFFFFFFFFFFFFFFFFFFFFFFFFFFFF AND CALLER PUSH20 0xFFFFFFFFFFFFFFFFFFFFFFFFFFFFFFFFFFFFFFFF AND EQ ISZERO DUP1 ISZERO PUSH2 0xD63 JUMPI POP PUSH0 PUSH0 DUP7 PUSH20 0xFFFFFFFFFFFFFFFFFFFFFFFFFFFFFFFFFFFFFFFF AND PUSH20 0xFFFFFFFFFFFFFFFFFFFFFFFFFFFFFFFFFFFFFFFF AND DUP2 MSTORE PUSH1 0x20 ADD SWAP1 DUP2 MSTORE PUSH1 0x20 ADD PUSH0 KECCAK256 PUSH0 CALLER PUSH20 0xFFFFFFFFFFFFFFFFFFFFFFFFFFFFFFFFFFFFFFFF AND PUSH20 0xFFFFFFFFFFFFFFFFFFFFFFFFFFFFFFFFFFFFFFFF AND DUP2 MSTORE PUSH1 0x20 ADD SWAP1 DUP2 MSTORE PUSH1 0x20 ADD PUSH0 KECCAK256 PUSH0 SWAP1 SLOAD SWAP1 PUSH2 0x100 EXP SWAP1 DIV PUSH1 0xFF AND ISZERO JUMPDEST ISZERO PUSH2 0xD74 JUMPI PUSH2 0xD73 DUP6 DUP5 DUP5 PUSH2 0x16C8 JUMP JUMPDEST JUMPDEST PUSH2 0xD80 DUP6 DUP6 DUP6 DUP6 PUSH2 0xD8C JUMP JUMPDEST PUSH1 0x1 SWAP1 POP SWAP5 SWAP4 POP POP POP POP JUMP JUMPDEST PUSH2 0xD97 DUP5 DUP4 DUP4 PUSH2 0x10E3 JUMP JUMPDEST PUSH2 0xDA2 DUP4 DUP4 DUP4 PUSH2 0xE23 JUMP JUMPDEST DUP2 DUP4 PUSH20 0xFFFFFFFFFFFFFFFFFFFFFFFFFFFFFFFFFFFFFFFF AND DUP6 PUSH20 0xFFFFFFFFFFFFFFFFFFFFFFFFFFFFFFFFFFFFFFFF AND PUSH32 0x9ED053BB818FF08B8353CD46F78DB1F0799F31C9E4458FDB425C10ECCD2EFC44 DUP5 PUSH1 0x40 MLOAD PUSH2 0xE00 SWAP2 SWAP1 PUSH2 0x1D3D JUMP JUMPDEST PUSH1 0x40 MLOAD DUP1 SWAP2 SUB SWAP1 LOG4 POP POP POP POP JUMP JUMPDEST PUSH0 DUP3 PUSH0 MSTORE DUP2 PUSH1 0x20 MSTORE PUSH1 0x34 PUSH1 0xC KECCAK256 SWAP1 POP SWAP3 SWAP2 POP POP JUMP JUMPDEST PUSH0 PUSH1 0x3 PUSH0 DUP5 DUP2 MSTORE PUSH1 0x20 ADD SWAP1 DUP2 MSTORE PUSH1 0x20 ADD PUSH0 KECCAK256 SLOAD SWAP1 POP PUSH0 PUSH32 0x7FFFFFFFFFFFFFFFFFFFFFFFFFFFFFFFFFFFFFFFFFFFFFFFFFFFFFFFFFFFFFFF DUP3 AND DUP4 PUSH2 0xE67 SWAP2 SWAP1 PUSH2 0x21AC JUMP JUMPDEST SWAP1 POP DUP1 PUSH32 0x8000000000000000000000000000000000000000000000000000000000000000 DUP4 AND OR PUSH1 0x3 PUSH0 DUP7 DUP2 MSTORE PUSH1 0x20 ADD SWAP1 DUP2 MSTORE PUSH1 0x20 ADD PUSH0 KECCAK256 DUP2 SWAP1 SSTORE POP DUP4 DUP6 PUSH20 0xFFFFFFFFFFFFFFFFFFFFFFFFFFFFFFFFFFFFFFFF AND PUSH32 0x4C209B5FC8AD50758F13E2E1088BA56A560DFF690A1C6FEF26394F4C03821C4F DUP6 PUSH1 0x40 MLOAD PUSH2 0xEEA SWAP2 SWAP1 PUSH2 0x1D3D JUMP JUMPDEST PUSH1 0x40 MLOAD DUP1 SWAP2 SUB SWAP1 LOG3 POP POP POP POP POP JUMP JUMPDEST PUSH0 PUSH0 PUSH0 PUSH0 TLOAD PUSH12 0xFFFFFFFFFFFFFFFFFFFFFFFF DUP2 AND SWAP2 POP DUP1 PUSH1 0x60 SHR SWAP3 POP POP PUSH0 DUP2 SUB PUSH2 0xF4F JUMPI PUSH1 0x40 MLOAD PUSH32 0x97013E4300000000000000000000000000000000000000000000000000000000 DUP2 MSTORE PUSH1 0x4 ADD PUSH1 0x40 MLOAD DUP1 SWAP2 SUB SWAP1 REVERT JUMPDEST PUSH1 0x1 DUP2 SUB PUSH0 MSTORE PUSH0 PUSH1 0x20 MSTORE PUSH1 0x2C PUSH1 0x14 KECCAK256 SWAP3 POP PUSH0 PUSH20 0xFFFFFFFFFFFFFFFFFFFFFFFFFFFFFFFFFFFFFFFF AND DUP3 PUSH20 0xFFFFFFFFFFFFFFFFFFFFFFFFFFFFFFFFFFFFFFFF AND EQ ISZERO DUP1 ISZERO PUSH2 0xFC8 JUMPI POP CALLER PUSH20 0xFFFFFFFFFFFFFFFFFFFFFFFFFFFFFFFFFFFFFFFF AND DUP3 PUSH20 0xFFFFFFFFFFFFFFFFFFFFFFFFFFFFFFFFFFFFFFFF AND EQ ISZERO JUMPDEST ISZERO PUSH2 0xFFF JUMPI PUSH1 0x40 MLOAD PUSH32 0x1230858900000000000000000000000000000000000000000000000000000000 DUP2 MSTORE PUSH1 0x4 ADD PUSH1 0x40 MLOAD DUP1 SWAP2 SUB SWAP1 REVERT JUMPDEST POP POP SWAP1 JUMP JUMPDEST PUSH0 PUSH0 PUSH2 0x1010 DUP5 DUP5 PUSH2 0x1818 JUMP JUMPDEST SWAP2 POP DUP2 TLOAD SWAP1 POP DUP1 PUSH2 0x102A JUMPI PUSH1 0x1 DUP5 TLOAD ADD DUP1 DUP6 TSTORE DUP4 DUP2 DUP7 ADD TSTORE POP JUMPDEST SWAP3 POP SWAP3 SWAP1 POP JUMP JUMPDEST PUSH0 DUP3 PUSH0 MSTORE DUP5 PUSH1 0x20 MSTORE PUSH1 0x40 PUSH0 KECCAK256 DUP1 TLOAD DUP1 PUSH1 0x1 SAR DUP5 DUP2 SUB PUSH1 0x2 DUP2 PUSH1 0xFE SHR EQ DUP2 DUP4 SLT OR PUSH1 0x1 DUP2 EQ PUSH2 0x1069 JUMPI PUSH1 0x1 DUP5 AND DUP3 PUSH1 0x1 SHL OR DUP6 TSTORE PUSH2 0x10BB JUMP JUMPDEST PUSH1 0x1 DUP6 ADD PUSH32 0x4000000000000000000000000000000000000000000000000000000000000000 DUP4 ADD PUSH1 0xFF SHR PUSH1 0x2 SUB PUSH0 PUSH1 0x1 DUP8 AND ISZERO PUSH2 0x10A5 JUMPI DUP3 TLOAD SWAP1 POP JUMPDEST DUP2 DUP2 SUB SWAP1 POP DUP1 DUP4 TSTORE DUP1 ISZERO ISZERO DUP6 PUSH1 0x1 SHL OR DUP9 TSTORE POP POP POP JUMPDEST POP DUP3 PUSH2 0x10CD JUMPI PUSH1 0x1 DUP9 ADD SWAP8 POP DUP7 DUP9 DUP11 ADD TSTORE JUMPDEST POP POP POP POP DUP4 SWAP1 POP SWAP5 SWAP4 POP POP POP POP JUMP JUMPDEST DUP1 DUP3 TSTORE POP POP JUMP JUMPDEST PUSH0 PUSH1 0x3 PUSH0 DUP5 DUP2 MSTORE PUSH1 0x20 ADD SWAP1 DUP2 MSTORE PUSH1 0x20 ADD PUSH0 KECCAK256 SLOAD SWAP1 POP PUSH0 PUSH32 0x7FFFFFFFFFFFFFFFFFFFFFFFFFFFFFFFFFFFFFFFFFFFFFFFFFFFFFFFFFFFFFFF DUP3 AND SWAP1 POP DUP3 DUP2 LT ISZERO PUSH2 0x1161 JUMPI PUSH1 0x40 MLOAD PUSH32 0x8C379A000000000000000000000000000000000000000000000000000000000 DUP2 MSTORE PUSH1 0x4 ADD PUSH2 0x1158 SWAP1 PUSH2 0x2239 JUMP JUMPDEST PUSH1 0x40 MLOAD DUP1 SWAP2 SUB SWAP1 REVERT JUMPDEST PUSH0 DUP4 DUP3 PUSH2 0x116E SWAP2 SWAP1 PUSH2 0x2257 JUMP JUMPDEST SWAP1 POP DUP1 PUSH32 0x8000000000000000000000000000000000000000000000000000000000000000 DUP5 AND OR PUSH1 0x3 PUSH0 DUP8 DUP2 MSTORE PUSH1 0x20 ADD SWAP1 DUP2 MSTORE PUSH1 0x20 ADD PUSH0 KECCAK256 DUP2 SWAP1 SSTORE POP DUP5 DUP7 PUSH20 0xFFFFFFFFFFFFFFFFFFFFFFFFFFFFFFFFFFFFFFFF AND PUSH32 0x49995E5DD6158CF69AD3E9777C46755A1A826A446C6416992167462DAD033B2A DUP7 PUSH1 0x40 MLOAD PUSH2 0x11F1 SWAP2 SWAP1 PUSH2 0x1D3D JUMP JUMPDEST PUSH1 0x40 MLOAD DUP1 SWAP2 SUB SWAP1 LOG3 POP POP POP POP POP POP JUMP JUMPDEST PUSH0 DUP3 PUSH1 0x20 ADD PUSH1 0x20 DUP2 ADD SWAP1 PUSH2 0x1215 SWAP2 SWAP1 PUSH2 0x228A JUMP JUMPDEST SWAP1 POP PUSH0 PUSH0 DUP5 PUSH0 ADD PUSH1 0x20 DUP2 ADD SWAP1 PUSH2 0x122B SWAP2 SWAP1 PUSH2 0x228A JUMP JUMPDEST SWAP1 POP PUSH0 PUSH20 0xFFFFFFFFFFFFFFFFFFFFFFFFFFFFFFFFFFFFFFFF AND DUP2 PUSH20 0xFFFFFFFFFFFFFFFFFFFFFFFFFFFFFFFFFFFFFFFF AND SUB PUSH2 0x1268 JUMPI CALLER SWAP1 POP PUSH2 0x1330 JUMP JUMPDEST CALLER PUSH20 0xFFFFFFFFFFFFFFFFFFFFFFFFFFFFFFFFFFFFFFFF AND DUP2 PUSH20 0xFFFFFFFFFFFFFFFFFFFFFFFFFFFFFFFFFFFFFFFF AND EQ ISZERO DUP1 ISZERO PUSH2 0x1325 JUMPI POP PUSH0 PUSH0 DUP3 PUSH20 0xFFFFFFFFFFFFFFFFFFFFFFFFFFFFFFFFFFFFFFFF AND PUSH20 0xFFFFFFFFFFFFFFFFFFFFFFFFFFFFFFFFFFFFFFFF AND DUP2 MSTORE PUSH1 0x20 ADD SWAP1 DUP2 MSTORE PUSH1 0x20 ADD PUSH0 KECCAK256 PUSH0 CALLER PUSH20 0xFFFFFFFFFFFFFFFFFFFFFFFFFFFFFFFFFFFFFFFF AND PUSH20 0xFFFFFFFFFFFFFFFFFFFFFFFFFFFFFFFFFFFFFFFF AND DUP2 MSTORE PUSH1 0x20 ADD SWAP1 DUP2 MSTORE PUSH1 0x20 ADD PUSH0 KECCAK256 PUSH0 SWAP1 SLOAD SWAP1 PUSH2 0x100 EXP SWAP1 DIV PUSH1 0xFF AND ISZERO JUMPDEST ISZERO PUSH2 0x132F JUMPI PUSH1 0x1 SWAP2 POP JUMPDEST JUMPDEST PUSH0 PUSH0 PUSH0 PUSH0 PUSH2 0x133D DUP10 PUSH2 0x182D JUMP JUMPDEST SWAP4 POP SWAP4 POP SWAP4 POP SWAP4 POP PUSH0 PUSH0 PUSH2 0x1351 DUP11 DUP9 PUSH2 0x1004 JUMP JUMPDEST SWAP2 POP SWAP2 POP PUSH0 PUSH0 SWAP1 POP JUMPDEST DUP7 MLOAD DUP2 LT ISZERO PUSH2 0x13C2 JUMPI PUSH2 0x13B3 DUP4 DUP4 PUSH2 0x138F DUP14 DUP12 DUP7 DUP2 MLOAD DUP2 LT PUSH2 0x137F JUMPI PUSH2 0x137E PUSH2 0x211F JUMP JUMPDEST JUMPDEST PUSH1 0x20 MUL PUSH1 0x20 ADD ADD MLOAD PUSH0 ADD MLOAD PUSH2 0xE0E JUMP JUMPDEST DUP11 DUP6 DUP2 MLOAD DUP2 LT PUSH2 0x13A2 JUMPI PUSH2 0x13A1 PUSH2 0x211F JUMP JUMPDEST JUMPDEST PUSH1 0x20 MUL PUSH1 0x20 ADD ADD MLOAD PUSH1 0x20 ADD MLOAD PUSH2 0x161D JUMP JUMPDEST SWAP2 POP DUP1 DUP1 PUSH1 0x1 ADD SWAP2 POP POP PUSH2 0x135A JUMP JUMPDEST POP PUSH0 PUSH0 SWAP1 POP JUMPDEST DUP6 MLOAD DUP2 LT ISZERO PUSH2 0x144C JUMPI PUSH0 PUSH2 0x13F9 DUP12 DUP9 DUP5 DUP2 MLOAD DUP2 LT PUSH2 0x13E9 JUMPI PUSH2 0x13E8 PUSH2 0x211F JUMP JUMPDEST JUMPDEST PUSH1 0x20 MUL PUSH1 0x20 ADD ADD MLOAD PUSH0 ADD MLOAD PUSH2 0xE0E JUMP JUMPDEST SWAP1 POP PUSH0 DUP8 DUP4 DUP2 MLOAD DUP2 LT PUSH2 0x140F JUMPI PUSH2 0x140E PUSH2 0x211F JUMP JUMPDEST JUMPDEST PUSH1 0x20 MUL PUSH1 0x20 ADD ADD MLOAD PUSH1 0x20 ADD MLOAD SWAP1 POP DUP11 ISZERO PUSH2 0x142F JUMPI PUSH2 0x142E DUP11 DUP4 DUP4 PUSH2 0x16C8 JUMP JUMPDEST JUMPDEST PUSH2 0x143B DUP6 DUP6 DUP5 DUP5 PUSH2 0x1031 JUMP JUMPDEST SWAP4 POP POP POP DUP1 DUP1 PUSH1 0x1 ADD SWAP2 POP POP PUSH2 0x13C8 JUMP JUMPDEST POP DUP7 PUSH20 0xFFFFFFFFFFFFFFFFFFFFFFFFFFFFFFFFFFFFFFFF AND DUP10 PUSH20 0xFFFFFFFFFFFFFFFFFFFFFFFFFFFFFFFFFFFFFFFF AND EQ ISZERO DUP1 ISZERO PUSH2 0x1496 JUMPI POP PUSH0 DUP5 MLOAD EQ ISZERO DUP1 PUSH2 0x1495 JUMPI POP PUSH0 DUP4 MLOAD EQ ISZERO JUMPDEST JUMPDEST ISZERO PUSH2 0x15C4 JUMPI PUSH0 PUSH0 PUSH2 0x14A7 DUP13 DUP13 PUSH2 0x1004 JUMP JUMPDEST SWAP2 POP SWAP2 POP PUSH0 PUSH0 SWAP1 POP JUMPDEST DUP7 MLOAD DUP2 LT ISZERO PUSH2 0x1527 JUMPI PUSH0 DUP8 DUP3 DUP2 MLOAD DUP2 LT PUSH2 0x14CD JUMPI PUSH2 0x14CC PUSH2 0x211F JUMP JUMPDEST JUMPDEST PUSH1 0x20 MUL PUSH1 0x20 ADD ADD MLOAD PUSH0 ADD MLOAD SWAP1 POP PUSH0 DUP9 DUP4 DUP2 MLOAD DUP2 LT PUSH2 0x14EE JUMPI PUSH2 0x14ED PUSH2 0x211F JUMP JUMPDEST JUMPDEST PUSH1 0x20 MUL PUSH1 0x20 ADD ADD MLOAD PUSH1 0x20 ADD MLOAD SWAP1 POP PUSH2 0x1508 DUP8 DUP8 DUP5 DUP5 PUSH2 0x161D JUMP JUMPDEST SWAP6 POP PUSH2 0x1516 DUP6 DUP6 DUP5 DUP5 PUSH2 0x1031 JUMP JUMPDEST SWAP4 POP POP POP DUP1 DUP1 PUSH1 0x1 ADD SWAP2 POP POP PUSH2 0x14B0 JUMP JUMPDEST POP PUSH0 PUSH0 SWAP1 POP JUMPDEST DUP6 MLOAD DUP2 LT ISZERO PUSH2 0x15B6 JUMPI PUSH0 DUP7 DUP3 DUP2 MLOAD DUP2 LT PUSH2 0x154A JUMPI PUSH2 0x1549 PUSH2 0x211F JUMP JUMPDEST JUMPDEST PUSH1 0x20 MUL PUSH1 0x20 ADD ADD MLOAD PUSH0 ADD MLOAD SWAP1 POP PUSH0 DUP8 DUP4 DUP2 MLOAD DUP2 LT PUSH2 0x156B JUMPI PUSH2 0x156A PUSH2 0x211F JUMP JUMPDEST JUMPDEST PUSH1 0x20 MUL PUSH1 0x20 ADD ADD MLOAD PUSH1 0x20 ADD MLOAD SWAP1 POP DUP13 ISZERO PUSH2 0x158B JUMPI PUSH2 0x158A DUP13 DUP4 DUP4 PUSH2 0x16C8 JUMP JUMPDEST JUMPDEST PUSH2 0x1597 DUP8 DUP8 DUP5 DUP5 PUSH2 0x1031 JUMP JUMPDEST SWAP6 POP PUSH2 0x15A5 DUP6 DUP6 DUP5 DUP5 PUSH2 0x161D JUMP JUMPDEST SWAP4 POP POP POP DUP1 DUP1 PUSH1 0x1 ADD SWAP2 POP POP PUSH2 0x152D JUMP JUMPDEST POP PUSH2 0x15C1 DUP3 DUP3 PUSH2 0x10DC JUMP JUMPDEST POP POP JUMPDEST PUSH2 0x15CE DUP3 DUP3 PUSH2 0x10DC JUMP JUMPDEST POP POP POP POP POP POP POP POP POP POP POP JUMP JUMPDEST PUSH0 PUSH0 PUSH0 TLOAD SWAP1 POP PUSH1 0x1 PUSH12 0xFFFFFFFFFFFFFFFFFFFFFFFF DUP3 AND ADD DUP4 PUSH1 0x60 SHL OR PUSH0 TSTORE DUP1 PUSH0 MSTORE PUSH0 PUSH1 0x20 MSTORE PUSH1 0x2C PUSH1 0x14 KECCAK256 SWAP2 POP SWAP2 POP SWAP2 JUMP JUMPDEST PUSH2 0x1616 DUP2 PUSH2 0x193F JUMP JUMPDEST DUP2 PUSH0 TSTORE POP POP JUMP JUMPDEST PUSH0 DUP3 PUSH0 MSTORE DUP5 PUSH1 0x20 MSTORE PUSH1 0x40 PUSH0 KECCAK256 DUP1 TLOAD DUP1 PUSH1 0x1 SAR DUP5 DUP2 ADD PUSH1 0x1 DUP2 PUSH1 0xFE SHR EQ DUP3 DUP3 SLT OR PUSH1 0x1 DUP2 EQ PUSH2 0x1655 JUMPI PUSH1 0x1 DUP5 AND DUP3 PUSH1 0x1 SHL OR DUP6 TSTORE PUSH2 0x16A7 JUMP JUMPDEST PUSH1 0x1 DUP6 ADD PUSH32 0x4000000000000000000000000000000000000000000000000000000000000000 DUP4 ADD PUSH1 0xFF SHR PUSH1 0x2 SUB PUSH0 PUSH1 0x1 DUP8 AND ISZERO PUSH2 0x1691 JUMPI DUP3 TLOAD SWAP1 POP JUMPDEST DUP2 DUP2 ADD SWAP1 POP DUP1 DUP4 TSTORE DUP1 ISZERO ISZERO DUP6 PUSH1 0x1 SHL OR DUP9 TSTORE POP POP POP JUMPDEST POP DUP3 PUSH2 0x16B9 JUMPI PUSH1 0x1 DUP9 ADD SWAP8 POP DUP7 DUP9 DUP11 ADD TSTORE JUMPDEST POP POP POP POP DUP4 SWAP1 POP SWAP5 SWAP4 POP POP POP POP JUMP JUMPDEST PUSH0 PUSH1 0x2 PUSH0 DUP6 PUSH20 0xFFFFFFFFFFFFFFFFFFFFFFFFFFFFFFFFFFFFFFFF AND PUSH20 0xFFFFFFFFFFFFFFFFFFFFFFFFFFFFFFFFFFFFFFFF AND DUP2 MSTORE PUSH1 0x20 ADD SWAP1 DUP2 MSTORE PUSH1 0x20 ADD PUSH0 KECCAK256 PUSH0 CALLER PUSH20 0xFFFFFFFFFFFFFFFFFFFFFFFFFFFFFFFFFFFFFFFF AND PUSH20 0xFFFFFFFFFFFFFFFFFFFFFFFFFFFFFFFFFFFFFFFF AND DUP2 MSTORE PUSH1 0x20 ADD SWAP1 DUP2 MSTORE PUSH1 0x20 ADD PUSH0 KECCAK256 PUSH0 DUP5 DUP2 MSTORE PUSH1 0x20 ADD SWAP1 DUP2 MSTORE PUSH1 0x20 ADD PUSH0 KECCAK256 SLOAD SWAP1 POP PUSH32 0xFFFFFFFFFFFFFFFFFFFFFFFFFFFFFFFFFFFFFFFFFFFFFFFFFFFFFFFFFFFFFFFF DUP2 EQ PUSH2 0x1812 JUMPI DUP2 DUP2 PUSH2 0x1786 SWAP2 SWAP1 PUSH2 0x2257 JUMP JUMPDEST PUSH1 0x2 PUSH0 DUP7 PUSH20 0xFFFFFFFFFFFFFFFFFFFFFFFFFFFFFFFFFFFFFFFF AND PUSH20 0xFFFFFFFFFFFFFFFFFFFFFFFFFFFFFFFFFFFFFFFF AND DUP2 MSTORE PUSH1 0x20 ADD SWAP1 DUP2 MSTORE PUSH1 0x20 ADD PUSH0 KECCAK256 PUSH0 CALLER PUSH20 0xFFFFFFFFFFFFFFFFFFFFFFFFFFFFFFFFFFFFFFFF AND PUSH20 0xFFFFFFFFFFFFFFFFFFFFFFFFFFFFFFFFFFFFFFFF AND DUP2 MSTORE PUSH1 0x20 ADD SWAP1 DUP2 MSTORE PUSH1 0x20 ADD PUSH0 KECCAK256 PUSH0 DUP6 DUP2 MSTORE PUSH1 0x20 ADD SWAP1 DUP2 MSTORE PUSH1 0x20 ADD PUSH0 KECCAK256 DUP2 SWAP1 SSTORE POP JUMPDEST POP POP POP POP JUMP JUMPDEST PUSH0 DUP2 PUSH0 MSTORE DUP3 PUSH1 0x20 MSTORE PUSH1 0x34 PUSH1 0xC KECCAK256 SWAP1 POP SWAP3 SWAP2 POP POP JUMP JUMPDEST PUSH1 0x60 DUP1 PUSH1 0x60 DUP1 DUP5 PUSH1 0x20 ADD PUSH1 0x20 DUP2 ADD SWAP1 PUSH2 0x1846 SWAP2 SWAP1 PUSH2 0x228A JUMP JUMPDEST PUSH20 0xFFFFFFFFFFFFFFFFFFFFFFFFFFFFFFFFFFFFFFFF AND PUSH4 0xA129568D DUP7 DUP1 PUSH1 0x40 ADD SWAP1 PUSH2 0x1871 SWAP2 SWAP1 PUSH2 0x22B5 JUMP JUMPDEST PUSH1 0x40 MLOAD DUP4 PUSH4 0xFFFFFFFF AND PUSH1 0xE0 SHL DUP2 MSTORE PUSH1 0x4 ADD PUSH2 0x188E SWAP3 SWAP2 SWAP1 PUSH2 0x2371 JUMP JUMPDEST PUSH0 PUSH1 0x40 MLOAD DUP1 DUP4 SUB DUP2 PUSH0 DUP8 GAS CALL ISZERO DUP1 ISZERO PUSH2 0x18A9 JUMPI RETURNDATASIZE PUSH0 PUSH0 RETURNDATACOPY RETURNDATASIZE PUSH0 REVERT JUMPDEST POP POP POP POP PUSH1 0x40 MLOAD RETURNDATASIZE PUSH0 DUP3 RETURNDATACOPY RETURNDATASIZE PUSH1 0x1F NOT PUSH1 0x1F DUP3 ADD AND DUP3 ADD DUP1 PUSH1 0x40 MSTORE POP DUP2 ADD SWAP1 PUSH2 0x18D1 SWAP2 SWAP1 PUSH2 0x2530 JUMP JUMPDEST DUP1 SWAP5 POP DUP2 SWAP6 POP DUP3 SWAP7 POP DUP4 SWAP8 POP POP POP POP POP PUSH0 PUSH0 SHL DUP6 PUSH1 0x60 ADD CALLDATALOAD EQ PUSH2 0x1938 JUMPI PUSH0 PUSH2 0x18F7 PUSH2 0x1984 JUMP JUMPDEST SWAP1 POP DUP1 DUP7 PUSH1 0x60 ADD CALLDATALOAD EQ PUSH2 0x1936 JUMPI PUSH1 0x40 MLOAD PUSH32 0x6F0632BF00000000000000000000000000000000000000000000000000000000 DUP2 MSTORE PUSH1 0x4 ADD PUSH1 0x40 MLOAD DUP1 SWAP2 SUB SWAP1 REVERT JUMPDEST POP JUMPDEST SWAP2 SWAP4 POP SWAP2 SWAP4 JUMP JUMPDEST PUSH0 DUP2 TLOAD SWAP1 POP PUSH0 DUP2 SWAP1 POP PUSH0 PUSH0 SWAP1 POP JUMPDEST DUP2 DUP2 LT ISZERO PUSH2 0x197E JUMPI PUSH0 DUP2 PUSH1 0x1 ADD SWAP2 POP DUP2 DUP6 ADD TLOAD SWAP1 POP PUSH2 0x1975 PUSH2 0x196F DUP7 DUP4 PUSH2 0x1818 JUMP JUMPDEST DUP3 PUSH2 0x19CF JUMP JUMPDEST PUSH0 DUP6 TSTORE POP PUSH2 0x194D JUMP JUMPDEST POP POP POP POP JUMP JUMPDEST PUSH0 PUSH1 0x40 MLOAD DUP1 PUSH1 0x80 PUSH0 DUP4 RETURNDATACOPY PUSH1 0x80 DUP3 ADD JUMPDEST DUP1 DUP4 LT ISZERO PUSH2 0x19C3 JUMPI DUP3 MLOAD PUSH1 0x20 DUP2 DUP4 RETURNDATACOPY DUP2 MLOAD PUSH1 0x6 SHL PUSH1 0x20 DUP3 ADD SWAP2 POP DUP1 DUP3 DUP5 RETURNDATACOPY DUP1 DUP4 KECCAK256 DUP6 MSTORE POP POP PUSH1 0x20 DUP4 ADD SWAP3 POP PUSH2 0x1993 JUMP JUMPDEST POP PUSH1 0x80 DUP2 KECCAK256 SWAP3 POP POP POP SWAP1 JUMP JUMPDEST PUSH0 PUSH2 0x19D9 DUP4 PUSH2 0x1C03 JUMP JUMPDEST SWAP1 POP PUSH0 PUSH0 SWAP1 POP JUMPDEST DUP2 DUP2 LT ISZERO PUSH2 0x1BFA JUMPI PUSH0 PUSH0 PUSH0 DUP4 PUSH1 0x1 ADD SWAP4 POP DUP4 DUP8 ADD TLOAD SWAP3 POP DUP3 PUSH0 MSTORE DUP7 PUSH1 0x20 MSTORE PUSH1 0x40 PUSH0 KECCAK256 SWAP1 POP DUP1 TLOAD SWAP2 POP PUSH0 DUP3 SUB PUSH2 0x1A17 JUMPI POP POP POP PUSH2 0x1BF5 JUMP JUMPDEST PUSH0 PUSH1 0x1 DUP4 AND SWAP1 POP DUP3 PUSH1 0x1 SAR SWAP3 POP PUSH0 DUP3 TSTORE DUP1 ISZERO PUSH2 0x1BC9 JUMPI PUSH0 PUSH1 0x1 DUP4 ADD TLOAD SWAP1 POP PUSH32 0xFFFFFFFFFFFFFFFFFFFFFFFFFFFFFFFFFFFFFFFFFFFFFFFFFFFFFFFFFFFFFFFE DUP2 SUB PUSH2 0x1AA8 JUMPI PUSH0 DUP5 SLT ISZERO PUSH2 0x1A96 JUMPI PUSH1 0x40 MLOAD PUSH32 0x778214EB00000000000000000000000000000000000000000000000000000000 DUP2 MSTORE PUSH1 0x4 ADD PUSH1 0x40 MLOAD DUP1 SWAP2 SUB SWAP1 REVERT JUMPDEST PUSH2 0x1AA3 DUP9 DUP7 DUP7 PUSH0 SUB PUSH2 0x10E3 JUMP JUMPDEST PUSH2 0x1BC3 JUMP JUMPDEST PUSH32 0xFFFFFFFFFFFFFFFFFFFFFFFFFFFFFFFFFFFFFFFFFFFFFFFFFFFFFFFFFFFFFFFF DUP2 SUB PUSH2 0x1B03 JUMPI PUSH2 0x1AFE DUP9 DUP7 PUSH32 0x8000000000000000000000000000000000000000000000000000000000000000 DUP8 PUSH0 SUB ADD PUSH2 0x10E3 JUMP JUMPDEST PUSH2 0x1BC2 JUMP JUMPDEST PUSH1 0x1 DUP2 SUB PUSH2 0x1B3D JUMPI PUSH2 0x1B38 DUP9 DUP7 PUSH32 0x8000000000000000000000000000000000000000000000000000000000000000 DUP8 ADD PUSH2 0xE23 JUMP JUMPDEST PUSH2 0x1BC1 JUMP JUMPDEST PUSH1 0x2 DUP2 SUB PUSH2 0x1B8E JUMPI PUSH0 DUP5 SLT PUSH2 0x1B7E JUMPI PUSH1 0x40 MLOAD PUSH32 0x778214EB00000000000000000000000000000000000000000000000000000000 DUP2 MSTORE PUSH1 0x4 ADD PUSH1 0x40 MLOAD DUP1 SWAP2 SUB SWAP1 REVERT JUMPDEST PUSH2 0x1B89 DUP9 DUP7 DUP7 PUSH2 0xE23 JUMP JUMPDEST PUSH2 0x1BC0 JUMP JUMPDEST PUSH1 0x40 MLOAD PUSH32 0x778214EB00000000000000000000000000000000000000000000000000000000 DUP2 MSTORE PUSH1 0x4 ADD PUSH1 0x40 MLOAD DUP1 SWAP2 SUB SWAP1 REVERT JUMPDEST JUMPDEST JUMPDEST JUMPDEST POP PUSH2 0x1BF0 JUMP JUMPDEST PUSH0 DUP4 SLT ISZERO PUSH2 0x1BE3 JUMPI PUSH2 0x1BDE DUP8 DUP6 DUP6 PUSH0 SUB PUSH2 0x10E3 JUMP JUMPDEST PUSH2 0x1BEF JUMP JUMPDEST PUSH2 0x1BEE DUP8 DUP6 DUP6 PUSH2 0xE23 JUMP JUMPDEST JUMPDEST JUMPDEST POP POP POP POP JUMPDEST PUSH2 0x19E0 JUMP JUMPDEST POP PUSH0 DUP4 TSTORE POP POP POP JUMP JUMPDEST PUSH0 DUP2 TLOAD SWAP1 POP SWAP2 SWAP1 POP JUMP JUMPDEST PUSH0 PUSH1 0x40 MLOAD SWAP1 POP SWAP1 JUMP JUMPDEST PUSH0 PUSH0 REVERT JUMPDEST PUSH0 PUSH0 REVERT JUMPDEST PUSH0 PUSH20 0xFFFFFFFFFFFFFFFFFFFFFFFFFFFFFFFFFFFFFFFF DUP3 AND SWAP1 POP SWAP2 SWAP1 POP JUMP JUMPDEST PUSH0 PUSH2 0x1C47 DUP3 PUSH2 0x1C1E JUMP JUMPDEST SWAP1 POP SWAP2 SWAP1 POP JUMP JUMPDEST PUSH2 0x1C57 DUP2 PUSH2 0x1C3D JUMP JUMPDEST DUP2 EQ PUSH2 0x1C61 JUMPI PUSH0 PUSH0 REVERT JUMPDEST POP JUMP JUMPDEST PUSH0 DUP2 CALLDATALOAD SWAP1 POP PUSH2 0x1C72 DUP2 PUSH2 0x1C4E JUMP JUMPDEST SWAP3 SWAP2 POP POP JUMP JUMPDEST PUSH0 DUP2 SWAP1 POP SWAP2 SWAP1 POP JUMP JUMPDEST PUSH2 0x1C8A DUP2 PUSH2 0x1C78 JUMP JUMPDEST DUP2 EQ PUSH2 0x1C94 JUMPI PUSH0 PUSH0 REVERT JUMPDEST POP JUMP JUMPDEST PUSH0 DUP2 CALLDATALOAD SWAP1 POP PUSH2 0x1CA5 DUP2 PUSH2 0x1C81 JUMP JUMPDEST SWAP3 SWAP2 POP POP JUMP JUMPDEST PUSH0 PUSH0 PUSH0 PUSH1 0x60 DUP5 DUP7 SUB SLT ISZERO PUSH2 0x1CC2 JUMPI PUSH2 0x1CC1 PUSH2 0x1C16 JUMP JUMPDEST JUMPDEST PUSH0 PUSH2 0x1CCF DUP7 DUP3 DUP8 ADD PUSH2 0x1C64 JUMP JUMPDEST SWAP4 POP POP PUSH1 0x20 PUSH2 0x1CE0 DUP7 DUP3 DUP8 ADD PUSH2 0x1C97 JUMP JUMPDEST SWAP3 POP POP PUSH1 0x40 PUSH2 0x1CF1 DUP7 DUP3 DUP8 ADD PUSH2 0x1C97 JUMP JUMPDEST SWAP2 POP POP SWAP3 POP SWAP3 POP SWAP3 JUMP JUMPDEST PUSH0 DUP2 ISZERO ISZERO SWAP1 POP SWAP2 SWAP1 POP JUMP JUMPDEST PUSH2 0x1D0F DUP2 PUSH2 0x1CFB JUMP JUMPDEST DUP3 MSTORE POP POP JUMP JUMPDEST PUSH0 PUSH1 0x20 DUP3 ADD SWAP1 POP PUSH2 0x1D28 PUSH0 DUP4 ADD DUP5 PUSH2 0x1D06 JUMP JUMPDEST SWAP3 SWAP2 POP POP JUMP JUMPDEST PUSH2 0x1D37 DUP2 PUSH2 0x1C78 JUMP JUMPDEST DUP3 MSTORE POP POP JUMP JUMPDEST PUSH0 PUSH1 0x20 DUP3 ADD SWAP1 POP PUSH2 0x1D50 PUSH0 DUP4 ADD DUP5 PUSH2 0x1D2E JUMP JUMPDEST SWAP3 SWAP2 POP POP JUMP JUMPDEST PUSH0 PUSH0 REVERT JUMPDEST PUSH0 PUSH0 REVERT JUMPDEST PUSH0 PUSH0 REVERT JUMPDEST PUSH0 PUSH0 DUP4 PUSH1 0x1F DUP5 ADD SLT PUSH2 0x1D77 JUMPI PUSH2 0x1D76 PUSH2 0x1D56 JUMP JUMPDEST JUMPDEST DUP3 CALLDATALOAD SWAP1 POP PUSH8 0xFFFFFFFFFFFFFFFF DUP2 GT ISZERO PUSH2 0x1D94 JUMPI PUSH2 0x1D93 PUSH2 0x1D5A JUMP JUMPDEST JUMPDEST PUSH1 0x20 DUP4 ADD SWAP2 POP DUP4 PUSH1 0x40 DUP3 MUL DUP4 ADD GT ISZERO PUSH2 0x1DB0 JUMPI PUSH2 0x1DAF PUSH2 0x1D5E JUMP JUMPDEST JUMPDEST SWAP3 POP SWAP3 SWAP1 POP JUMP JUMPDEST PUSH0 PUSH0 PUSH1 0x20 DUP4 DUP6 SUB SLT ISZERO PUSH2 0x1DCD JUMPI PUSH2 0x1DCC PUSH2 0x1C16 JUMP JUMPDEST JUMPDEST PUSH0 DUP4 ADD CALLDATALOAD PUSH8 0xFFFFFFFFFFFFFFFF DUP2 GT ISZERO PUSH2 0x1DEA JUMPI PUSH2 0x1DE9 PUSH2 0x1C1A JUMP JUMPDEST JUMPDEST PUSH2 0x1DF6 DUP6 DUP3 DUP7 ADD PUSH2 0x1D62 JUMP JUMPDEST SWAP3 POP SWAP3 POP POP SWAP3 POP SWAP3 SWAP1 POP JUMP JUMPDEST PUSH0 PUSH0 DUP4 PUSH1 0x1F DUP5 ADD SLT PUSH2 0x1E17 JUMPI PUSH2 0x1E16 PUSH2 0x1D56 JUMP JUMPDEST JUMPDEST DUP3 CALLDATALOAD SWAP1 POP PUSH8 0xFFFFFFFFFFFFFFFF DUP2 GT ISZERO PUSH2 0x1E34 JUMPI PUSH2 0x1E33 PUSH2 0x1D5A JUMP JUMPDEST JUMPDEST PUSH1 0x20 DUP4 ADD SWAP2 POP DUP4 PUSH1 0x20 DUP3 MUL DUP4 ADD GT ISZERO PUSH2 0x1E50 JUMPI PUSH2 0x1E4F PUSH2 0x1D5E JUMP JUMPDEST JUMPDEST SWAP3 POP SWAP3 SWAP1 POP JUMP JUMPDEST PUSH0 PUSH0 PUSH1 0x20 DUP4 DUP6 SUB SLT ISZERO PUSH2 0x1E6D JUMPI PUSH2 0x1E6C PUSH2 0x1C16 JUMP JUMPDEST JUMPDEST PUSH0 DUP4 ADD CALLDATALOAD PUSH8 0xFFFFFFFFFFFFFFFF DUP2 GT ISZERO PUSH2 0x1E8A JUMPI PUSH2 0x1E89 PUSH2 0x1C1A JUMP JUMPDEST JUMPDEST PUSH2 0x1E96 DUP6 DUP3 DUP7 ADD PUSH2 0x1E02 JUMP JUMPDEST SWAP3 POP SWAP3 POP POP SWAP3 POP SWAP3 SWAP1 POP JUMP JUMPDEST PUSH2 0x1EAB DUP2 PUSH2 0x1CFB JUMP JUMPDEST DUP2 EQ PUSH2 0x1EB5 JUMPI PUSH0 PUSH0 REVERT JUMPDEST POP JUMP JUMPDEST PUSH0 DUP2 CALLDATALOAD SWAP1 POP PUSH2 0x1EC6 DUP2 PUSH2 0x1EA2 JUMP JUMPDEST SWAP3 SWAP2 POP POP JUMP JUMPDEST PUSH0 PUSH0 PUSH1 0x40 DUP4 DUP6 SUB SLT ISZERO PUSH2 0x1EE2 JUMPI PUSH2 0x1EE1 PUSH2 0x1C16 JUMP JUMPDEST JUMPDEST PUSH0 PUSH2 0x1EEF DUP6 DUP3 DUP7 ADD PUSH2 0x1C64 JUMP JUMPDEST SWAP3 POP POP PUSH1 0x20 PUSH2 0x1F00 DUP6 DUP3 DUP7 ADD PUSH2 0x1EB8 JUMP JUMPDEST SWAP2 POP POP SWAP3 POP SWAP3 SWAP1 POP JUMP JUMPDEST PUSH0 PUSH1 0x20 DUP3 DUP5 SUB SLT ISZERO PUSH2 0x1F1F JUMPI PUSH2 0x1F1E PUSH2 0x1C16 JUMP JUMPDEST JUMPDEST PUSH0 PUSH2 0x1F2C DUP5 DUP3 DUP6 ADD PUSH2 0x1C97 JUMP JUMPDEST SWAP2 POP POP SWAP3 SWAP2 POP POP JUMP JUMPDEST PUSH0 PUSH0 PUSH0 PUSH1 0x60 DUP5 DUP7 SUB SLT ISZERO PUSH2 0x1F4C JUMPI PUSH2 0x1F4B PUSH2 0x1C16 JUMP JUMPDEST JUMPDEST PUSH0 PUSH2 0x1F59 DUP7 DUP3 DUP8 ADD PUSH2 0x1C64 JUMP JUMPDEST SWAP4 POP POP PUSH1 0x20 PUSH2 0x1F6A DUP7 DUP3 DUP8 ADD PUSH2 0x1C64 JUMP JUMPDEST SWAP3 POP POP PUSH1 0x40 PUSH2 0x1F7B DUP7 DUP3 DUP8 ADD PUSH2 0x1C97 JUMP JUMPDEST SWAP2 POP POP SWAP3 POP SWAP3 POP SWAP3 JUMP JUMPDEST PUSH0 PUSH0 PUSH0 PUSH1 0x40 DUP5 DUP7 SUB SLT ISZERO PUSH2 0x1F9C JUMPI PUSH2 0x1F9B PUSH2 0x1C16 JUMP JUMPDEST JUMPDEST PUSH0 PUSH2 0x1FA9 DUP7 DUP3 DUP8 ADD PUSH2 0x1C64 JUMP JUMPDEST SWAP4 POP POP PUSH1 0x20 DUP5 ADD CALLDATALOAD PUSH8 0xFFFFFFFFFFFFFFFF DUP2 GT ISZERO PUSH2 0x1FCA JUMPI PUSH2 0x1FC9 PUSH2 0x1C1A JUMP JUMPDEST JUMPDEST PUSH2 0x1FD6 DUP7 DUP3 DUP8 ADD PUSH2 0x1E02 JUMP JUMPDEST SWAP3 POP SWAP3 POP POP SWAP3 POP SWAP3 POP SWAP3 JUMP JUMPDEST PUSH0 PUSH0 PUSH1 0x40 DUP4 DUP6 SUB SLT ISZERO PUSH2 0x1FF8 JUMPI PUSH2 0x1FF7 PUSH2 0x1C16 JUMP JUMPDEST JUMPDEST PUSH0 PUSH2 0x2005 DUP6 DUP3 DUP7 ADD PUSH2 0x1C97 JUMP JUMPDEST SWAP3 POP POP PUSH1 0x20 PUSH2 0x2016 DUP6 DUP3 DUP7 ADD PUSH2 0x1C97 JUMP JUMPDEST SWAP2 POP POP SWAP3 POP SWAP3 SWAP1 POP JUMP JUMPDEST PUSH0 PUSH0 PUSH1 0x40 DUP4 DUP6 SUB SLT ISZERO PUSH2 0x2036 JUMPI PUSH2 0x2035 PUSH2 0x1C16 JUMP JUMPDEST JUMPDEST PUSH0 PUSH2 0x2043 DUP6 DUP3 DUP7 ADD PUSH2 0x1C64 JUMP JUMPDEST SWAP3 POP POP PUSH1 0x20 PUSH2 0x2054 DUP6 DUP3 DUP7 ADD PUSH2 0x1C64 JUMP JUMPDEST SWAP2 POP POP SWAP3 POP SWAP3 SWAP1 POP JUMP JUMPDEST PUSH0 PUSH0 PUSH0 PUSH1 0x40 DUP5 DUP7 SUB SLT ISZERO PUSH2 0x2075 JUMPI PUSH2 0x2074 PUSH2 0x1C16 JUMP JUMPDEST JUMPDEST PUSH0 PUSH2 0x2082 DUP7 DUP3 DUP8 ADD PUSH2 0x1C64 JUMP JUMPDEST SWAP4 POP POP PUSH1 0x20 DUP5 ADD CALLDATALOAD PUSH8 0xFFFFFFFFFFFFFFFF DUP2 GT ISZERO PUSH2 0x20A3 JUMPI PUSH2 0x20A2 PUSH2 0x1C1A JUMP JUMPDEST JUMPDEST PUSH2 0x20AF DUP7 DUP3 DUP8 ADD PUSH2 0x1D62 JUMP JUMPDEST SWAP3 POP SWAP3 POP POP SWAP3 POP SWAP3 POP SWAP3 JUMP JUMPDEST PUSH0 PUSH0 PUSH0 PUSH0 PUSH1 0x80 DUP6 DUP8 SUB SLT ISZERO PUSH2 0x20D3 JUMPI PUSH2 0x20D2 PUSH2 0x1C16 JUMP JUMPDEST JUMPDEST PUSH0 PUSH2 0x20E0 DUP8 DUP3 DUP9 ADD PUSH2 0x1C64 JUMP JUMPDEST SWAP5 POP POP PUSH1 0x20 PUSH2 0x20F1 DUP8 DUP3 DUP9 ADD PUSH2 0x1C64 JUMP JUMPDEST SWAP4 POP POP PUSH1 0x40 PUSH2 0x2102 DUP8 DUP3 DUP9 ADD PUSH2 0x1C97 JUMP JUMPDEST SWAP3 POP POP PUSH1 0x60 PUSH2 0x2113 DUP8 DUP3 DUP9 ADD PUSH2 0x1C97 JUMP JUMPDEST SWAP2 POP POP SWAP3 SWAP6 SWAP2 SWAP5 POP SWAP3 POP JUMP JUMPDEST PUSH32 0x4E487B7100000000000000000000000000000000000000000000000000000000 PUSH0 MSTORE PUSH1 0x32 PUSH1 0x4 MSTORE PUSH1 0x24 PUSH0 REVERT JUMPDEST PUSH0 PUSH0 REVERT JUMPDEST PUSH0 PUSH0 REVERT JUMPDEST PUSH0 PUSH0 REVERT JUMPDEST PUSH0 DUP3 CALLDATALOAD PUSH1 0x1 PUSH1 0x80 SUB DUP4 CALLDATASIZE SUB SUB DUP2 SLT PUSH2 0x2173 JUMPI PUSH2 0x2172 PUSH2 0x214C JUMP JUMPDEST JUMPDEST DUP1 DUP4 ADD SWAP2 POP POP SWAP3 SWAP2 POP POP JUMP JUMPDEST PUSH32 0x4E487B7100000000000000000000000000000000000000000000000000000000 PUSH0 MSTORE PUSH1 0x11 PUSH1 0x4 MSTORE PUSH1 0x24 PUSH0 REVERT JUMPDEST PUSH0 PUSH2 0x21B6 DUP3 PUSH2 0x1C78 JUMP JUMPDEST SWAP2 POP PUSH2 0x21C1 DUP4 PUSH2 0x1C78 JUMP JUMPDEST SWAP3 POP DUP3 DUP3 ADD SWAP1 POP DUP1 DUP3 GT ISZERO PUSH2 0x21D9 JUMPI PUSH2 0x21D8 PUSH2 0x217F JUMP JUMPDEST JUMPDEST SWAP3 SWAP2 POP POP JUMP JUMPDEST PUSH0 DUP3 DUP3 MSTORE PUSH1 0x20 DUP3 ADD SWAP1 POP SWAP3 SWAP2 POP POP JUMP JUMPDEST PUSH32 0x496E73756666696369656E742062616C616E6365000000000000000000000000 PUSH0 DUP3 ADD MSTORE POP JUMP JUMPDEST PUSH0 PUSH2 0x2223 PUSH1 0x14 DUP4 PUSH2 0x21DF JUMP JUMPDEST SWAP2 POP PUSH2 0x222E DUP3 PUSH2 0x21EF JUMP JUMPDEST PUSH1 0x20 DUP3 ADD SWAP1 POP SWAP2 SWAP1 POP JUMP JUMPDEST PUSH0 PUSH1 0x20 DUP3 ADD SWAP1 POP DUP2 DUP2 SUB PUSH0 DUP4 ADD MSTORE PUSH2 0x2250 DUP2 PUSH2 0x2217 JUMP JUMPDEST SWAP1 POP SWAP2 SWAP1 POP JUMP JUMPDEST PUSH0 PUSH2 0x2261 DUP3 PUSH2 0x1C78 JUMP JUMPDEST SWAP2 POP PUSH2 0x226C DUP4 PUSH2 0x1C78 JUMP JUMPDEST SWAP3 POP DUP3 DUP3 SUB SWAP1 POP DUP2 DUP2 GT ISZERO PUSH2 0x2284 JUMPI PUSH2 0x2283 PUSH2 0x217F JUMP JUMPDEST JUMPDEST SWAP3 SWAP2 POP POP JUMP JUMPDEST PUSH0 PUSH1 0x20 DUP3 DUP5 SUB SLT ISZERO PUSH2 0x229F JUMPI PUSH2 0x229E PUSH2 0x1C16 JUMP JUMPDEST JUMPDEST PUSH0 PUSH2 0x22AC DUP5 DUP3 DUP6 ADD PUSH2 0x1C64 JUMP JUMPDEST SWAP2 POP POP SWAP3 SWAP2 POP POP JUMP JUMPDEST PUSH0 PUSH0 DUP4 CALLDATALOAD PUSH1 0x1 PUSH1 0x20 SUB DUP5 CALLDATASIZE SUB SUB DUP2 SLT PUSH2 0x22D1 JUMPI PUSH2 0x22D0 PUSH2 0x214C JUMP JUMPDEST JUMPDEST DUP1 DUP5 ADD SWAP3 POP DUP3 CALLDATALOAD SWAP2 POP PUSH8 0xFFFFFFFFFFFFFFFF DUP3 GT ISZERO PUSH2 0x22F3 JUMPI PUSH2 0x22F2 PUSH2 0x2150 JUMP JUMPDEST JUMPDEST PUSH1 0x20 DUP4 ADD SWAP3 POP PUSH1 0x1 DUP3 MUL CALLDATASIZE SUB DUP4 SGT ISZERO PUSH2 0x230F JUMPI PUSH2 0x230E PUSH2 0x2154 JUMP JUMPDEST JUMPDEST POP SWAP3 POP SWAP3 SWAP1 POP JUMP JUMPDEST PUSH0 DUP3 DUP3 MSTORE PUSH1 0x20 DUP3 ADD SWAP1 POP SWAP3 SWAP2 POP POP JUMP JUMPDEST DUP3 DUP2 DUP4 CALLDATACOPY PUSH0 DUP4 DUP4 ADD MSTORE POP POP POP JUMP JUMPDEST PUSH0 PUSH1 0x1F NOT PUSH1 0x1F DUP4 ADD AND SWAP1 POP SWAP2 SWAP1 POP JUMP JUMPDEST PUSH0 PUSH2 0x2350 DUP4 DUP6 PUSH2 0x2317 JUMP JUMPDEST SWAP4 POP PUSH2 0x235D DUP4 DUP6 DUP5 PUSH2 0x2327 JUMP JUMPDEST PUSH2 0x2366 DUP4 PUSH2 0x2335 JUMP JUMPDEST DUP5 ADD SWAP1 POP SWAP4 SWAP3 POP POP POP JUMP JUMPDEST PUSH0 PUSH1 0x20 DUP3 ADD SWAP1 POP DUP2 DUP2 SUB PUSH0 DUP4 ADD MSTORE PUSH2 0x238A DUP2 DUP5 DUP7 PUSH2 0x2345 JUMP JUMPDEST SWAP1 POP SWAP4 SWAP3 POP POP POP JUMP JUMPDEST PUSH32 0x4E487B7100000000000000000000000000000000000000000000000000000000 PUSH0 MSTORE PUSH1 0x41 PUSH1 0x4 MSTORE PUSH1 0x24 PUSH0 REVERT JUMPDEST PUSH2 0x23C9 DUP3 PUSH2 0x2335 JUMP JUMPDEST DUP2 ADD DUP2 DUP2 LT PUSH8 0xFFFFFFFFFFFFFFFF DUP3 GT OR ISZERO PUSH2 0x23E8 JUMPI PUSH2 0x23E7 PUSH2 0x2393 JUMP JUMPDEST JUMPDEST DUP1 PUSH1 0x40 MSTORE POP POP POP JUMP JUMPDEST PUSH0 PUSH2 0x23FA PUSH2 0x1C0D JUMP JUMPDEST SWAP1 POP PUSH2 0x2406 DUP3 DUP3 PUSH2 0x23C0 JUMP JUMPDEST SWAP2 SWAP1 POP JUMP JUMPDEST PUSH0 PUSH8 0xFFFFFFFFFFFFFFFF DUP3 GT ISZERO PUSH2 0x2425 JUMPI PUSH2 0x2424 PUSH2 0x2393 JUMP JUMPDEST JUMPDEST PUSH1 0x20 DUP3 MUL SWAP1 POP PUSH1 0x20 DUP2 ADD SWAP1 POP SWAP2 SWAP1 POP JUMP JUMPDEST PUSH0 PUSH0 REVERT JUMPDEST PUSH0 DUP2 MLOAD SWAP1 POP PUSH2 0x2448 DUP2 PUSH2 0x1C81 JUMP JUMPDEST SWAP3 SWAP2 POP POP JUMP JUMPDEST PUSH0 PUSH1 0x40 DUP3 DUP5 SUB SLT ISZERO PUSH2 0x2463 JUMPI PUSH2 0x2462 PUSH2 0x2436 JUMP JUMPDEST JUMPDEST PUSH2 0x246D PUSH1 0x40 PUSH2 0x23F1 JUMP JUMPDEST SWAP1 POP PUSH0 PUSH2 0x247C DUP5 DUP3 DUP6 ADD PUSH2 0x243A JUMP JUMPDEST PUSH0 DUP4 ADD MSTORE POP PUSH1 0x20 PUSH2 0x248F DUP5 DUP3 DUP6 ADD PUSH2 0x243A JUMP JUMPDEST PUSH1 0x20 DUP4 ADD MSTORE POP SWAP3 SWAP2 POP POP JUMP JUMPDEST PUSH0 PUSH2 0x24AD PUSH2 0x24A8 DUP5 PUSH2 0x240B JUMP JUMPDEST PUSH2 0x23F1 JUMP JUMPDEST SWAP1 POP DUP1 DUP4 DUP3 MSTORE PUSH1 0x20 DUP3 ADD SWAP1 POP PUSH1 0x40 DUP5 MUL DUP4 ADD DUP6 DUP2 GT ISZERO PUSH2 0x24D0 JUMPI PUSH2 0x24CF PUSH2 0x1D5E JUMP JUMPDEST JUMPDEST DUP4 JUMPDEST DUP2 DUP2 LT ISZERO PUSH2 0x24F9 JUMPI DUP1 PUSH2 0x24E5 DUP9 DUP3 PUSH2 0x244E JUMP JUMPDEST DUP5 MSTORE PUSH1 0x20 DUP5 ADD SWAP4 POP POP PUSH1 0x40 DUP2 ADD SWAP1 POP PUSH2 0x24D2 JUMP JUMPDEST POP POP POP SWAP4 SWAP3 POP POP POP JUMP JUMPDEST PUSH0 DUP3 PUSH1 0x1F DUP4 ADD SLT PUSH2 0x2517 JUMPI PUSH2 0x2516 PUSH2 0x1D56 JUMP JUMPDEST JUMPDEST DUP2 MLOAD PUSH2 0x2527 DUP5 DUP3 PUSH1 0x20 DUP7 ADD PUSH2 0x249B JUMP JUMPDEST SWAP2 POP POP SWAP3 SWAP2 POP POP JUMP JUMPDEST PUSH0 PUSH0 PUSH0 PUSH0 PUSH1 0x80 DUP6 DUP8 SUB SLT ISZERO PUSH2 0x2548 JUMPI PUSH2 0x2547 PUSH2 0x1C16 JUMP JUMPDEST JUMPDEST PUSH0 DUP6 ADD MLOAD PUSH8 0xFFFFFFFFFFFFFFFF DUP2 GT ISZERO PUSH2 0x2565 JUMPI PUSH2 0x2564 PUSH2 0x1C1A JUMP JUMPDEST JUMPDEST PUSH2 0x2571 DUP8 DUP3 DUP9 ADD PUSH2 0x2503 JUMP JUMPDEST SWAP5 POP POP PUSH1 0x20 DUP6 ADD MLOAD PUSH8 0xFFFFFFFFFFFFFFFF DUP2 GT ISZERO PUSH2 0x2592 JUMPI PUSH2 0x2591 PUSH2 0x1C1A JUMP JUMPDEST JUMPDEST PUSH2 0x259E DUP8 DUP3 DUP9 ADD PUSH2 0x2503 JUMP JUMPDEST SWAP4 POP POP PUSH1 0x40 DUP6 ADD MLOAD PUSH8 0xFFFFFFFFFFFFFFFF DUP2 GT ISZERO PUSH2 0x25BF JUMPI PUSH2 0x25BE PUSH2 0x1C1A JUMP JUMPDEST JUMPDEST PUSH2 0x25CB DUP8 DUP3 DUP9 ADD PUSH2 0x2503 JUMP JUMPDEST SWAP3 POP POP PUSH1 0x60 DUP6 ADD MLOAD PUSH8 0xFFFFFFFFFFFFFFFF DUP2 GT ISZERO PUSH2 0x25EC JUMPI PUSH2 0x25EB PUSH2 0x1C1A JUMP JUMPDEST JUMPDEST PUSH2 0x25F8 DUP8 DUP3 DUP9 ADD PUSH2 0x2503 JUMP JUMPDEST SWAP2 POP POP SWAP3 SWAP6 SWAP2 SWAP5 POP SWAP3 POP JUMP INVALID LOG2 PUSH5 0x6970667358 0x22 SLT KECCAK256 0x2C PUSH20 0x33742426137814CBE9BCFA73534928C10E06D521 JUMPDEST 0xE1 0xCD 0xAA GAS 0xBB 0xD0 SWAP8 0xC9 NUMBER PUSH5 0x736F6C6343 STOP ADDMOD SHR STOP CALLER "
		},
		"gasEstimates": {
			"creation": {
				"codeDepositCost": "1957200",
				"executionCost": "2067",
				"totalCost": "1959267"
			},
			"external": {
				"allowance(address,address,uint256)": "infinite",
				"approve(address,uint256,uint256)": "infinite",
				"balanceOf(address,uint256,uint256)": "infinite",
				"burn((uint256,uint256)[])": "infinite",
				"burn(uint256,uint256)": "infinite",
				"cook((address,address,bytes,bytes32)[])": "infinite",
				"cook(address,(address,address,bytes,bytes32)[])": "infinite",
				"credit((uint256,uint256)[])": "infinite",
				"credit(uint256,uint256)": "infinite",
				"debit((uint256,uint256)[])": "infinite",
				"debit(uint256,uint256)": "infinite",
				"exttload(uint256)": "infinite",
				"isOperator(address,address)": "infinite",
				"mint(address,(uint256,uint256)[])": "infinite",
				"mint(address,uint256,uint256)": "infinite",
				"setOperator(address,bool)": "infinite",
				"tokenStorage(uint256)": "infinite",
				"transfer(address,uint256,uint256)": "infinite",
				"transferFrom(address,address,uint256,uint256)": "infinite"
			},
			"internal": {
				"_burn(address,uint256,uint256)": "infinite",
				"_decreaseApproval(address,uint256,uint256)": "infinite",
				"_executeAction(struct BlueprintCall calldata)": "infinite",
				"_flashCook(struct BlueprintCall calldata,FlashSession)": "infinite",
				"_mint(address,uint256,uint256)": "infinite",
				"_transferFrom(address,address,uint256,uint256)": "infinite",
				"updateTokenData(uint256,uint256)": "infinite"
			}
		},
		"methodIdentifiers": {
			"allowance(address,address,uint256)": "598af9e7",
			"approve(address,uint256,uint256)": "426a8493",
			"balanceOf(address,uint256,uint256)": "2d760d57",
			"burn((uint256,uint256)[])": "36223ac2",
			"burn(uint256,uint256)": "b390c0ab",
			"cook((address,address,bytes,bytes32)[])": "52d2accf",
			"cook(address,(address,address,bytes,bytes32)[])": "62ba62e5",
			"credit((uint256,uint256)[])": "355f580e",
			"credit(uint256,uint256)": "ab7ccc1c",
			"debit((uint256,uint256)[])": "e3033041",
			"debit(uint256,uint256)": "e747f31c",
			"exttload(uint256)": "a42bff86",
			"isOperator(address,address)": "b6363cf2",
			"mint(address,(uint256,uint256)[])": "f3178dd1",
			"mint(address,uint256,uint256)": "156e29f6",
			"setOperator(address,bool)": "558a7297",
			"tokenStorage(uint256)": "56cbfe3e",
			"transfer(address,uint256,uint256)": "095bcdb6",
			"transferFrom(address,address,uint256,uint256)": "fe99049a"
		}
	},
	"abi": [
		{
			"inputs": [],
			"name": "AccessDenied",
			"type": "error"
		},
		{
			"inputs": [],
			"name": "BalanceDeltaOverflow",
			"type": "error"
		},
		{
			"inputs": [],
			"name": "InvalidChecksum",
			"type": "error"
		},
		{
			"inputs": [],
			"name": "NoFlashAccountingActive",
			"type": "error"
		},
		{
			"inputs": [],
			"name": "RealizeAccessDenied",
			"type": "error"
		},
		{
			"anonymous": false,
			"inputs": [
				{
					"indexed": true,
					"internalType": "address",
					"name": "owner",
					"type": "address"
				},
				{
					"indexed": true,
					"internalType": "address",
					"name": "spender",
					"type": "address"
				},
				{
					"indexed": true,
					"internalType": "uint256",
					"name": "id",
					"type": "uint256"
				},
				{
					"indexed": false,
					"internalType": "uint256",
					"name": "amount",
					"type": "uint256"
				}
			],
			"name": "Approval",
			"type": "event"
		},
		{
			"anonymous": false,
			"inputs": [
				{
					"indexed": true,
					"internalType": "address",
					"name": "from",
					"type": "address"
				},
				{
					"indexed": true,
					"internalType": "uint256",
					"name": "id",
					"type": "uint256"
				},
				{
					"indexed": false,
					"internalType": "uint256",
					"name": "amount",
					"type": "uint256"
				}
			],
			"name": "Burn",
			"type": "event"
		},
		{
			"anonymous": false,
			"inputs": [
				{
					"indexed": true,
					"internalType": "address",
					"name": "to",
					"type": "address"
				},
				{
					"indexed": true,
					"internalType": "uint256",
					"name": "id",
					"type": "uint256"
				},
				{
					"indexed": false,
					"internalType": "uint256",
					"name": "amount",
					"type": "uint256"
				}
			],
			"name": "Mint",
			"type": "event"
		},
		{
			"anonymous": false,
			"inputs": [
				{
					"indexed": true,
					"internalType": "address",
					"name": "owner",
					"type": "address"
				},
				{
					"indexed": true,
					"internalType": "address",
					"name": "operator",
					"type": "address"
				},
				{
					"indexed": false,
					"internalType": "bool",
					"name": "approved",
					"type": "bool"
				}
			],
			"name": "OperatorSet",
			"type": "event"
		},
		{
			"anonymous": false,
			"inputs": [
				{
					"indexed": true,
					"internalType": "address",
					"name": "from",
					"type": "address"
				},
				{
					"indexed": true,
					"internalType": "address",
					"name": "to",
					"type": "address"
				},
				{
					"indexed": true,
					"internalType": "uint256",
					"name": "id",
					"type": "uint256"
				},
				{
					"indexed": false,
					"internalType": "uint256",
					"name": "amount",
					"type": "uint256"
				}
			],
			"name": "Transfer",
			"type": "event"
		},
		{
			"inputs": [
				{
					"internalType": "address",
					"name": "",
					"type": "address"
				},
				{
					"internalType": "address",
					"name": "",
					"type": "address"
				},
				{
					"internalType": "uint256",
					"name": "",
					"type": "uint256"
				}
			],
			"name": "allowance",
			"outputs": [
				{
					"internalType": "uint256",
					"name": "",
					"type": "uint256"
				}
			],
			"stateMutability": "view",
			"type": "function"
		},
		{
			"inputs": [
				{
					"internalType": "address",
					"name": "spender",
					"type": "address"
				},
				{
					"internalType": "uint256",
					"name": "id",
					"type": "uint256"
				},
				{
					"internalType": "uint256",
					"name": "amount",
					"type": "uint256"
				}
			],
			"name": "approve",
			"outputs": [
				{
					"internalType": "bool",
					"name": "",
					"type": "bool"
				}
			],
			"stateMutability": "nonpayable",
			"type": "function"
		},
		{
			"inputs": [
				{
					"internalType": "address",
					"name": "",
					"type": "address"
				},
				{
					"internalType": "uint256",
					"name": "",
					"type": "uint256"
				},
				{
					"internalType": "uint256",
					"name": "",
					"type": "uint256"
				}
			],
			"name": "balanceOf",
			"outputs": [
				{
					"internalType": "uint256",
					"name": "",
					"type": "uint256"
				}
			],
			"stateMutability": "view",
			"type": "function"
		},
		{
			"inputs": [
				{
					"components": [
						{
							"internalType": "uint256",
							"name": "tokenId",
							"type": "uint256"
						},
						{
							"internalType": "uint256",
							"name": "amount",
							"type": "uint256"
						}
					],
					"internalType": "struct TokenOp[]",
					"name": "ops",
					"type": "tuple[]"
				}
			],
			"name": "burn",
			"outputs": [],
			"stateMutability": "nonpayable",
			"type": "function"
		},
		{
			"inputs": [
				{
					"internalType": "uint256",
					"name": "tokenId",
					"type": "uint256"
				},
				{
					"internalType": "uint256",
					"name": "amount",
					"type": "uint256"
				}
			],
			"name": "burn",
			"outputs": [],
			"stateMutability": "nonpayable",
			"type": "function"
		},
		{
			"inputs": [
				{
					"components": [
						{
							"internalType": "address",
							"name": "sender",
							"type": "address"
						},
						{
							"internalType": "address",
							"name": "blueprint",
							"type": "address"
						},
						{
							"internalType": "bytes",
							"name": "action",
							"type": "bytes"
						},
						{
							"internalType": "bytes32",
							"name": "checksum",
							"type": "bytes32"
						}
					],
					"internalType": "struct BlueprintCall[]",
					"name": "calls",
					"type": "tuple[]"
				}
			],
			"name": "cook",
			"outputs": [],
			"stateMutability": "nonpayable",
			"type": "function"
		},
		{
			"inputs": [
				{
					"internalType": "address",
					"name": "realizer",
					"type": "address"
				},
				{
					"components": [
						{
							"internalType": "address",
							"name": "sender",
							"type": "address"
						},
						{
							"internalType": "address",
							"name": "blueprint",
							"type": "address"
						},
						{
							"internalType": "bytes",
							"name": "action",
							"type": "bytes"
						},
						{
							"internalType": "bytes32",
							"name": "checksum",
							"type": "bytes32"
						}
					],
					"internalType": "struct BlueprintCall[]",
					"name": "calls",
					"type": "tuple[]"
				}
			],
			"name": "cook",
			"outputs": [],
			"stateMutability": "nonpayable",
			"type": "function"
		},
		{
			"inputs": [
				{
					"components": [
						{
							"internalType": "uint256",
							"name": "tokenId",
							"type": "uint256"
						},
						{
							"internalType": "uint256",
							"name": "amount",
							"type": "uint256"
						}
					],
					"internalType": "struct TokenOp[]",
					"name": "ops",
					"type": "tuple[]"
				}
			],
			"name": "credit",
			"outputs": [],
			"stateMutability": "nonpayable",
			"type": "function"
		},
		{
			"inputs": [
				{
					"internalType": "uint256",
					"name": "id",
					"type": "uint256"
				},
				{
					"internalType": "uint256",
					"name": "amount",
					"type": "uint256"
				}
			],
			"name": "credit",
			"outputs": [],
			"stateMutability": "nonpayable",
			"type": "function"
		},
		{
			"inputs": [
				{
					"components": [
						{
							"internalType": "uint256",
							"name": "tokenId",
							"type": "uint256"
						},
						{
							"internalType": "uint256",
							"name": "amount",
							"type": "uint256"
						}
					],
					"internalType": "struct TokenOp[]",
					"name": "ops",
					"type": "tuple[]"
				}
			],
			"name": "debit",
			"outputs": [],
			"stateMutability": "nonpayable",
			"type": "function"
		},
		{
			"inputs": [
				{
					"internalType": "uint256",
					"name": "id",
					"type": "uint256"
				},
				{
					"internalType": "uint256",
					"name": "amount",
					"type": "uint256"
				}
			],
			"name": "debit",
			"outputs": [],
			"stateMutability": "nonpayable",
			"type": "function"
		},
		{
			"inputs": [
				{
					"internalType": "uint256",
					"name": "slot",
					"type": "uint256"
				}
			],
			"name": "exttload",
			"outputs": [
				{
					"internalType": "uint256",
					"name": "value",
					"type": "uint256"
				}
			],
			"stateMutability": "view",
			"type": "function"
		},
		{
			"inputs": [
				{
					"internalType": "address",
					"name": "",
					"type": "address"
				},
				{
					"internalType": "address",
					"name": "",
					"type": "address"
				}
			],
			"name": "isOperator",
			"outputs": [
				{
					"internalType": "bool",
					"name": "",
					"type": "bool"
				}
			],
			"stateMutability": "view",
			"type": "function"
		},
		{
			"inputs": [
				{
					"internalType": "address",
					"name": "to",
					"type": "address"
				},
				{
					"internalType": "uint256",
					"name": "tokenId",
					"type": "uint256"
				},
				{
					"internalType": "uint256",
					"name": "amount",
					"type": "uint256"
				}
			],
			"name": "mint",
			"outputs": [],
			"stateMutability": "nonpayable",
			"type": "function"
		},
		{
			"inputs": [
				{
					"internalType": "address",
					"name": "to",
					"type": "address"
				},
				{
					"components": [
						{
							"internalType": "uint256",
							"name": "tokenId",
							"type": "uint256"
						},
						{
							"internalType": "uint256",
							"name": "amount",
							"type": "uint256"
						}
					],
					"internalType": "struct TokenOp[]",
					"name": "ops",
					"type": "tuple[]"
				}
			],
			"name": "mint",
			"outputs": [],
			"stateMutability": "nonpayable",
			"type": "function"
		},
		{
			"inputs": [
				{
					"internalType": "address",
					"name": "operator",
					"type": "address"
				},
				{
					"internalType": "bool",
					"name": "approved",
					"type": "bool"
				}
			],
			"name": "setOperator",
			"outputs": [
				{
					"internalType": "bool",
					"name": "",
					"type": "bool"
				}
			],
			"stateMutability": "nonpayable",
			"type": "function"
		},
		{
			"inputs": [
				{
					"internalType": "uint256",
					"name": "",
					"type": "uint256"
				}
			],
			"name": "tokenStorage",
			"outputs": [
				{
					"internalType": "uint256",
					"name": "",
					"type": "uint256"
				}
			],
			"stateMutability": "view",
			"type": "function"
		},
		{
			"inputs": [
				{
					"internalType": "address",
					"name": "receiver",
					"type": "address"
				},
				{
					"internalType": "uint256",
					"name": "id",
					"type": "uint256"
				},
				{
					"internalType": "uint256",
					"name": "amount",
					"type": "uint256"
				}
			],
			"name": "transfer",
			"outputs": [
				{
					"internalType": "bool",
					"name": "",
					"type": "bool"
				}
			],
			"stateMutability": "nonpayable",
			"type": "function"
		},
		{
			"inputs": [
				{
					"internalType": "address",
					"name": "sender",
					"type": "address"
				},
				{
					"internalType": "address",
					"name": "receiver",
					"type": "address"
				},
				{
					"internalType": "uint256",
					"name": "id",
					"type": "uint256"
				},
				{
					"internalType": "uint256",
					"name": "amount",
					"type": "uint256"
				}
			],
			"name": "transferFrom",
			"outputs": [
				{
					"internalType": "bool",
					"name": "",
					"type": "bool"
				}
			],
			"stateMutability": "nonpayable",
			"type": "function"
		}
	]
}