{
	"data": {
		"bytecode": {
			"linkReferences": {},
			"object": "60a060405234801561000f575f5ffd5b5060405161159c38038061159c833981810160405281019061003191906100dc565b808073ffffffffffffffffffffffffffffffffffffffff1660808173ffffffffffffffffffffffffffffffffffffffff16815250505050610107565b5f5ffd5b5f73ffffffffffffffffffffffffffffffffffffffff82169050919050565b5f61009a82610071565b9050919050565b5f6100ab82610090565b9050919050565b6100bb816100a1565b81146100c5575f5ffd5b50565b5f815190506100d6816100b2565b92915050565b5f602082840312156100f1576100f061006d565b5b5f6100fe848285016100c8565b91505092915050565b6080516114686101345f395f8181610259015281816104ed0152818161067201526108da01526114685ff3fe608060405234801561000f575f5ffd5b506004361061007a575f3560e01c80638340f549116100595780638340f549146100d4578063a129568d14610104578063e80aed8114610137578063fabe109a146101675761007a565b806223de291461007e578063035c833a1461009a57806350e43439146100ca575b5f5ffd5b61009860048036038101906100939190610b54565b610185565b005b6100b460048036038101906100af9190610c87565b610303565b6040516100c19190610d47565b60405180910390f35b6100d261042f565b005b6100ee60048036038101906100e99190610d60565b6104cf565b6040516100fb9190610d47565b60405180910390f35b61011e60048036038101906101199190610db0565b6104e5565b60405161012e9493929190610edf565b60405180910390f35b610151600480360381019061014c9190610f3e565b6105df565b60405161015e9190610d47565b60405180910390f35b61016f610670565b60405161017c919061100a565b60405180910390f35b3073ffffffffffffffffffffffffffffffffffffffff168873ffffffffffffffffffffffffffffffffffffffff16141580156101ec57503073ffffffffffffffffffffffffffffffffffffffff168673ffffffffffffffffffffffffffffffffffffffff16145b156102f9575f6101fb33610694565b90507fffffffffffffffffffffffffffffffffffffffffffffffffffffffffffffffff811461023a576102393387836102349190611050565b6106aa565b5b6020858590500361025757848481019061025491906110be565b97505b7f000000000000000000000000000000000000000000000000000000000000000073ffffffffffffffffffffffffffffffffffffffff1663156e29f6893373ffffffffffffffffffffffffffffffffffffffff16896040518463ffffffff1660e01b81526004016102ca939291906110f8565b5f604051808303815f87803b1580156102e1575f5ffd5b505af11580156102f3573d5f5f3e3d5ffd5b50505050505b5050505050505050565b5f8773ffffffffffffffffffffffffffffffffffffffff168673ffffffffffffffffffffffffffffffffffffffff161415801561036c57503373ffffffffffffffffffffffffffffffffffffffff168673ffffffffffffffffffffffffffffffffffffffff1614155b156103a3576040517f4ca8886700000000000000000000000000000000000000000000000000000000815260040160405180910390fd5b8873ffffffffffffffffffffffffffffffffffffffff1663d505accf87308a898989896040518863ffffffff1660e01b81526004016103e8979695949392919061114b565b5f604051808303815f87803b1580156103ff575f5ffd5b505af1158015610411573d5f5f3e3d5ffd5b5050505061042189878a8a610716565b905098975050505050505050565b731820a4b7618bde71dce8cdc73aab6c95905fad2473ffffffffffffffffffffffffffffffffffffffff166329965a1d307fb281fc8c12954d22544db45de3159a39272895b169a852b314f9cc762e44c53b306040518463ffffffff1660e01b81526004016104a0939291906111b8565b5f604051808303815f87803b1580156104b7575f5ffd5b505af11580156104c9573d5f5f3e3d5ffd5b50505050565b5f6104dc84338585610716565b90509392505050565b6060806060807f000000000000000000000000000000000000000000000000000000000000000073ffffffffffffffffffffffffffffffffffffffff163373ffffffffffffffffffffffffffffffffffffffff1614610570576040517f4ca8886700000000000000000000000000000000000000000000000000000000815260040160405180910390fd5b5f5f5f888881019061058291906111ed565b925092509250610593838383610749565b61059b610800565b6105bb8473ffffffffffffffffffffffffffffffffffffffff1683610805565b6105c3610800565b6105cb610800565b965096509650965050505092959194509250565b5f6105f2856105ed87610831565b6106aa565b8373ffffffffffffffffffffffffffffffffffffffff166383437d458685856040518463ffffffff1660e01b815260040161062f93929190611297565b5f604051808303815f87803b158015610646575f5ffd5b505af1158015610658573d5f5f3e3d5ffd5b5050505061066685336108b1565b9050949350505050565b7f000000000000000000000000000000000000000000000000000000000000000081565b5f8160601b60601c91506001825c039050919050565b7fffffffffffffffffffffffffffffffffffffffffffffffffffffffffffffffff8103610703576040517f89560ca100000000000000000000000000000000000000000000000000000000815260040160405180910390fd5b8160601b60601c915060018101825d5050565b5f6107298561072487610831565b6106aa565b6107358585308561098a565b61073f85846108b1565b9050949350505050565b5f6040517fa9059cbb00000000000000000000000000000000000000000000000000000000815273ffffffffffffffffffffffffffffffffffffffff8416600482015282602482015260205f6044835f895af1915081601f3d1160015f5114161516156107b9573d853b15171591505b50806107fa576040517f08c379a00000000000000000000000000000000000000000000000000000000081526004016107f190611321565b60405180910390fd5b50505050565b606090565b606060405190506080810160405260408101600182528060208301528381528260608301525092915050565b5f8173ffffffffffffffffffffffffffffffffffffffff166370a08231306040518263ffffffff1660e01b815260040161086b919061133f565b602060405180830381865afa158015610886573d5f5f3e3d5ffd5b505050506040513d601f19601f820116820180604052508101906108aa919061136c565b9050919050565b5f5f6108bc84610831565b90505f6108c885610694565b905080826108d69190611397565b92507f000000000000000000000000000000000000000000000000000000000000000073ffffffffffffffffffffffffffffffffffffffff1663156e29f6858773ffffffffffffffffffffffffffffffffffffffff16866040518463ffffffff1660e01b815260040161094b939291906110f8565b5f604051808303815f87803b158015610962575f5ffd5b505af1158015610974573d5f5f3e3d5ffd5b5050505061098285836106aa565b505092915050565b5f6040517f23b872dd00000000000000000000000000000000000000000000000000000000815273ffffffffffffffffffffffffffffffffffffffff8516600482015273ffffffffffffffffffffffffffffffffffffffff8416602482015282604482015260205f6064835f8a5af1915081601f3d1160015f511416151615610a16573d863b15171591505b5080610a57576040517f08c379a0000000000000000000000000000000000000000000000000000000008152600401610a4e90611414565b60405180910390fd5b5050505050565b5f5ffd5b5f5ffd5b5f73ffffffffffffffffffffffffffffffffffffffff82169050919050565b5f610a8f82610a66565b9050919050565b610a9f81610a85565b8114610aa9575f5ffd5b50565b5f81359050610aba81610a96565b92915050565b5f819050919050565b610ad281610ac0565b8114610adc575f5ffd5b50565b5f81359050610aed81610ac9565b92915050565b5f5ffd5b5f5ffd5b5f5ffd5b5f5f83601f840112610b1457610b13610af3565b5b8235905067ffffffffffffffff811115610b3157610b30610af7565b5b602083019150836001820283011115610b4d57610b4c610afb565b5b9250929050565b5f5f5f5f5f5f5f5f60c0898b031215610b7057610b6f610a5e565b5b5f610b7d8b828c01610aac565b9850506020610b8e8b828c01610aac565b9750506040610b9f8b828c01610aac565b9650506060610bb08b828c01610adf565b955050608089013567ffffffffffffffff811115610bd157610bd0610a62565b5b610bdd8b828c01610aff565b945094505060a089013567ffffffffffffffff811115610c0057610bff610a62565b5b610c0c8b828c01610aff565b92509250509295985092959890939650565b5f60ff82169050919050565b610c3381610c1e565b8114610c3d575f5ffd5b50565b5f81359050610c4e81610c2a565b92915050565b5f819050919050565b610c6681610c54565b8114610c70575f5ffd5b50565b5f81359050610c8181610c5d565b92915050565b5f5f5f5f5f5f5f5f610100898b031215610ca457610ca3610a5e565b5b5f610cb18b828c01610aac565b9850506020610cc28b828c01610aac565b9750506040610cd38b828c01610adf565b9650506060610ce48b828c01610aac565b9550506080610cf58b828c01610adf565b94505060a0610d068b828c01610c40565b93505060c0610d178b828c01610c73565b92505060e0610d288b828c01610c73565b9150509295985092959890939650565b610d4181610ac0565b82525050565b5f602082019050610d5a5f830184610d38565b92915050565b5f5f5f60608486031215610d7757610d76610a5e565b5b5f610d8486828701610aac565b9350506020610d9586828701610aac565b9250506040610da686828701610adf565b9150509250925092565b5f5f60208385031215610dc657610dc5610a5e565b5b5f83013567ffffffffffffffff811115610de357610de2610a62565b5b610def85828601610aff565b92509250509250929050565b5f81519050919050565b5f82825260208201905092915050565b5f819050602082019050919050565b610e2d81610ac0565b82525050565b604082015f820151610e475f850182610e24565b506020820151610e5a6020850182610e24565b50505050565b5f610e6b8383610e33565b60408301905092915050565b5f602082019050919050565b5f610e8d82610dfb565b610e978185610e05565b9350610ea283610e15565b805f5b83811015610ed2578151610eb98882610e60565b9750610ec483610e77565b925050600181019050610ea5565b5085935050505092915050565b5f6080820190508181035f830152610ef78187610e83565b90508181036020830152610f0b8186610e83565b90508181036040830152610f1f8185610e83565b90508181036060830152610f338184610e83565b905095945050505050565b5f5f5f5f60608587031215610f5657610f55610a5e565b5b5f610f6387828801610aac565b9450506020610f7487828801610aac565b935050604085013567ffffffffffffffff811115610f9557610f94610a62565b5b610fa187828801610aff565b925092505092959194509250565b5f819050919050565b5f610fd2610fcd610fc884610a66565b610faf565b610a66565b9050919050565b5f610fe382610fb8565b9050919050565b5f610ff482610fd9565b9050919050565b61100481610fea565b82525050565b5f60208201905061101d5f830184610ffb565b92915050565b7f4e487b71000000000000000000000000000000000000000000000000000000005f52601160045260245ffd5b5f61105a82610ac0565b915061106583610ac0565b925082820190508082111561107d5761107c611023565b5b92915050565b5f61108d82610a66565b9050919050565b61109d81611083565b81146110a7575f5ffd5b50565b5f813590506110b881611094565b92915050565b5f602082840312156110d3576110d2610a5e565b5b5f6110e0848285016110aa565b91505092915050565b6110f281610a85565b82525050565b5f60608201905061110b5f8301866110e9565b6111186020830185610d38565b6111256040830184610d38565b949350505050565b61113681610c1e565b82525050565b61114581610c54565b82525050565b5f60e08201905061115e5f83018a6110e9565b61116b60208301896110e9565b6111786040830188610d38565b6111856060830187610d38565b611192608083018661112d565b61119f60a083018561113c565b6111ac60c083018461113c565b98975050505050505050565b5f6060820190506111cb5f8301866110e9565b6111d8602083018561113c565b6111e560408301846110e9565b949350505050565b5f5f5f6060848603121561120457611203610a5e565b5b5f611211868287016110aa565b9350506020611222868287016110aa565b925050604061123386828701610adf565b9150509250925092565b5f82825260208201905092915050565b828183375f83830152505050565b5f601f19601f8301169050919050565b5f611276838561123d565b935061128383858461124d565b61128c8361125b565b840190509392505050565b5f6040820190506112aa5f8301866110e9565b81810360208301526112bd81848661126b565b9050949350505050565b5f82825260208201905092915050565b7f5452414e534645525f4641494c454400000000000000000000000000000000005f82015250565b5f61130b600f836112c7565b9150611316826112d7565b602082019050919050565b5f6020820190508181035f830152611338816112ff565b9050919050565b5f6020820190506113525f8301846110e9565b92915050565b5f8151905061136681610ac9565b92915050565b5f6020828403121561138157611380610a5e565b5b5f61138e84828501611358565b91505092915050565b5f6113a182610ac0565b91506113ac83610ac0565b92508282039050818111156113c4576113c3611023565b5b92915050565b7f5452414e534645525f46524f4d5f4641494c45440000000000000000000000005f82015250565b5f6113fe6014836112c7565b9150611409826113ca565b602082019050919050565b5f6020820190508181035f83015261142b816113f2565b905091905056fea264697066735822122049912fecedce473200c963ba324e03edc4faaa331fcf8ffa80613619e60f2b5764736f6c634300081c0033",
			"opcodes": "PUSH1 0xA0 PUSH1 0x40 MSTORE CALLVALUE DUP1 ISZERO PUSH2 0xF JUMPI PUSH0 PUSH0 REVERT JUMPDEST POP PUSH1 0x40 MLOAD PUSH2 0x159C CODESIZE SUB DUP1 PUSH2 0x159C DUP4 CODECOPY DUP2 DUP2 ADD PUSH1 0x40 MSTORE DUP2 ADD SWAP1 PUSH2 0x31 SWAP2 SWAP1 PUSH2 0xDC JUMP JUMPDEST DUP1 DUP1 PUSH20 0xFFFFFFFFFFFFFFFFFFFFFFFFFFFFFFFFFFFFFFFF AND PUSH1 0x80 DUP2 PUSH20 0xFFFFFFFFFFFFFFFFFFFFFFFFFFFFFFFFFFFFFFFF AND DUP2 MSTORE POP POP POP POP PUSH2 0x107 JUMP JUMPDEST PUSH0 PUSH0 REVERT JUMPDEST PUSH0 PUSH20 0xFFFFFFFFFFFFFFFFFFFFFFFFFFFFFFFFFFFFFFFF DUP3 AND SWAP1 POP SWAP2 SWAP1 POP JUMP JUMPDEST PUSH0 PUSH2 0x9A DUP3 PUSH2 0x71 JUMP JUMPDEST SWAP1 POP SWAP2 SWAP1 POP JUMP JUMPDEST PUSH0 PUSH2 0xAB DUP3 PUSH2 0x90 JUMP JUMPDEST SWAP1 POP SWAP2 SWAP1 POP JUMP JUMPDEST PUSH2 0xBB DUP2 PUSH2 0xA1 JUMP JUMPDEST DUP2 EQ PUSH2 0xC5 JUMPI PUSH0 PUSH0 REVERT JUMPDEST POP JUMP JUMPDEST PUSH0 DUP2 MLOAD SWAP1 POP PUSH2 0xD6 DUP2 PUSH2 0xB2 JUMP JUMPDEST SWAP3 SWAP2 POP POP JUMP JUMPDEST PUSH0 PUSH1 0x20 DUP3 DUP5 SUB SLT ISZERO PUSH2 0xF1 JUMPI PUSH2 0xF0 PUSH2 0x6D JUMP JUMPDEST JUMPDEST PUSH0 PUSH2 0xFE DUP5 DUP3 DUP6 ADD PUSH2 0xC8 JUMP JUMPDEST SWAP2 POP POP SWAP3 SWAP2 POP POP JUMP JUMPDEST PUSH1 0x80 MLOAD PUSH2 0x1468 PUSH2 0x134 PUSH0 CODECOPY PUSH0 DUP2 DUP2 PUSH2 0x259 ADD MSTORE DUP2 DUP2 PUSH2 0x4ED ADD MSTORE DUP2 DUP2 PUSH2 0x672 ADD MSTORE PUSH2 0x8DA ADD MSTORE PUSH2 0x1468 PUSH0 RETURN INVALID PUSH1 0x80 PUSH1 0x40 MSTORE CALLVALUE DUP1 ISZERO PUSH2 0xF JUMPI PUSH0 PUSH0 REVERT JUMPDEST POP PUSH1 0x4 CALLDATASIZE LT PUSH2 0x7A JUMPI PUSH0 CALLDATALOAD PUSH1 0xE0 SHR DUP1 PUSH4 0x8340F549 GT PUSH2 0x59 JUMPI DUP1 PUSH4 0x8340F549 EQ PUSH2 0xD4 JUMPI DUP1 PUSH4 0xA129568D EQ PUSH2 0x104 JUMPI DUP1 PUSH4 0xE80AED81 EQ PUSH2 0x137 JUMPI DUP1 PUSH4 0xFABE109A EQ PUSH2 0x167 JUMPI PUSH2 0x7A JUMP JUMPDEST DUP1 PUSH3 0x23DE29 EQ PUSH2 0x7E JUMPI DUP1 PUSH4 0x35C833A EQ PUSH2 0x9A JUMPI DUP1 PUSH4 0x50E43439 EQ PUSH2 0xCA JUMPI JUMPDEST PUSH0 PUSH0 REVERT JUMPDEST PUSH2 0x98 PUSH1 0x4 DUP1 CALLDATASIZE SUB DUP2 ADD SWAP1 PUSH2 0x93 SWAP2 SWAP1 PUSH2 0xB54 JUMP JUMPDEST PUSH2 0x185 JUMP JUMPDEST STOP JUMPDEST PUSH2 0xB4 PUSH1 0x4 DUP1 CALLDATASIZE SUB DUP2 ADD SWAP1 PUSH2 0xAF SWAP2 SWAP1 PUSH2 0xC87 JUMP JUMPDEST PUSH2 0x303 JUMP JUMPDEST PUSH1 0x40 MLOAD PUSH2 0xC1 SWAP2 SWAP1 PUSH2 0xD47 JUMP JUMPDEST PUSH1 0x40 MLOAD DUP1 SWAP2 SUB SWAP1 RETURN JUMPDEST PUSH2 0xD2 PUSH2 0x42F JUMP JUMPDEST STOP JUMPDEST PUSH2 0xEE PUSH1 0x4 DUP1 CALLDATASIZE SUB DUP2 ADD SWAP1 PUSH2 0xE9 SWAP2 SWAP1 PUSH2 0xD60 JUMP JUMPDEST PUSH2 0x4CF JUMP JUMPDEST PUSH1 0x40 MLOAD PUSH2 0xFB SWAP2 SWAP1 PUSH2 0xD47 JUMP JUMPDEST PUSH1 0x40 MLOAD DUP1 SWAP2 SUB SWAP1 RETURN JUMPDEST PUSH2 0x11E PUSH1 0x4 DUP1 CALLDATASIZE SUB DUP2 ADD SWAP1 PUSH2 0x119 SWAP2 SWAP1 PUSH2 0xDB0 JUMP JUMPDEST PUSH2 0x4E5 JUMP JUMPDEST PUSH1 0x40 MLOAD PUSH2 0x12E SWAP5 SWAP4 SWAP3 SWAP2 SWAP1 PUSH2 0xEDF JUMP JUMPDEST PUSH1 0x40 MLOAD DUP1 SWAP2 SUB SWAP1 RETURN JUMPDEST PUSH2 0x151 PUSH1 0x4 DUP1 CALLDATASIZE SUB DUP2 ADD SWAP1 PUSH2 0x14C SWAP2 SWAP1 PUSH2 0xF3E JUMP JUMPDEST PUSH2 0x5DF JUMP JUMPDEST PUSH1 0x40 MLOAD PUSH2 0x15E SWAP2 SWAP1 PUSH2 0xD47 JUMP JUMPDEST PUSH1 0x40 MLOAD DUP1 SWAP2 SUB SWAP1 RETURN JUMPDEST PUSH2 0x16F PUSH2 0x670 JUMP JUMPDEST PUSH1 0x40 MLOAD PUSH2 0x17C SWAP2 SWAP1 PUSH2 0x100A JUMP JUMPDEST PUSH1 0x40 MLOAD DUP1 SWAP2 SUB SWAP1 RETURN JUMPDEST ADDRESS PUSH20 0xFFFFFFFFFFFFFFFFFFFFFFFFFFFFFFFFFFFFFFFF AND DUP9 PUSH20 0xFFFFFFFFFFFFFFFFFFFFFFFFFFFFFFFFFFFFFFFF AND EQ ISZERO DUP1 ISZERO PUSH2 0x1EC JUMPI POP ADDRESS PUSH20 0xFFFFFFFFFFFFFFFFFFFFFFFFFFFFFFFFFFFFFFFF AND DUP7 PUSH20 0xFFFFFFFFFFFFFFFFFFFFFFFFFFFFFFFFFFFFFFFF AND EQ JUMPDEST ISZERO PUSH2 0x2F9 JUMPI PUSH0 PUSH2 0x1FB CALLER PUSH2 0x694 JUMP JUMPDEST SWAP1 POP PUSH32 0xFFFFFFFFFFFFFFFFFFFFFFFFFFFFFFFFFFFFFFFFFFFFFFFFFFFFFFFFFFFFFFFF DUP2 EQ PUSH2 0x23A JUMPI PUSH2 0x239 CALLER DUP8 DUP4 PUSH2 0x234 SWAP2 SWAP1 PUSH2 0x1050 JUMP JUMPDEST PUSH2 0x6AA JUMP JUMPDEST JUMPDEST PUSH1 0x20 DUP6 DUP6 SWAP1 POP SUB PUSH2 0x257 JUMPI DUP5 DUP5 DUP2 ADD SWAP1 PUSH2 0x254 SWAP2 SWAP1 PUSH2 0x10BE JUMP JUMPDEST SWAP8 POP JUMPDEST PUSH32 0x0 PUSH20 0xFFFFFFFFFFFFFFFFFFFFFFFFFFFFFFFFFFFFFFFF AND PUSH4 0x156E29F6 DUP10 CALLER PUSH20 0xFFFFFFFFFFFFFFFFFFFFFFFFFFFFFFFFFFFFFFFF AND DUP10 PUSH1 0x40 MLOAD DUP5 PUSH4 0xFFFFFFFF AND PUSH1 0xE0 SHL DUP2 MSTORE PUSH1 0x4 ADD PUSH2 0x2CA SWAP4 SWAP3 SWAP2 SWAP1 PUSH2 0x10F8 JUMP JUMPDEST PUSH0 PUSH1 0x40 MLOAD DUP1 DUP4 SUB DUP2 PUSH0 DUP8 DUP1 EXTCODESIZE ISZERO DUP1 ISZERO PUSH2 0x2E1 JUMPI PUSH0 PUSH0 REVERT JUMPDEST POP GAS CALL ISZERO DUP1 ISZERO PUSH2 0x2F3 JUMPI RETURNDATASIZE PUSH0 PUSH0 RETURNDATACOPY RETURNDATASIZE PUSH0 REVERT JUMPDEST POP POP POP POP POP JUMPDEST POP POP POP POP POP POP POP POP JUMP JUMPDEST PUSH0 DUP8 PUSH20 0xFFFFFFFFFFFFFFFFFFFFFFFFFFFFFFFFFFFFFFFF AND DUP7 PUSH20 0xFFFFFFFFFFFFFFFFFFFFFFFFFFFFFFFFFFFFFFFF AND EQ ISZERO DUP1 ISZERO PUSH2 0x36C JUMPI POP CALLER PUSH20 0xFFFFFFFFFFFFFFFFFFFFFFFFFFFFFFFFFFFFFFFF AND DUP7 PUSH20 0xFFFFFFFFFFFFFFFFFFFFFFFFFFFFFFFFFFFFFFFF AND EQ ISZERO JUMPDEST ISZERO PUSH2 0x3A3 JUMPI PUSH1 0x40 MLOAD PUSH32 0x4CA8886700000000000000000000000000000000000000000000000000000000 DUP2 MSTORE PUSH1 0x4 ADD PUSH1 0x40 MLOAD DUP1 SWAP2 SUB SWAP1 REVERT JUMPDEST DUP9 PUSH20 0xFFFFFFFFFFFFFFFFFFFFFFFFFFFFFFFFFFFFFFFF AND PUSH4 0xD505ACCF DUP8 ADDRESS DUP11 DUP10 DUP10 DUP10 DUP10 PUSH1 0x40 MLOAD DUP9 PUSH4 0xFFFFFFFF AND PUSH1 0xE0 SHL DUP2 MSTORE PUSH1 0x4 ADD PUSH2 0x3E8 SWAP8 SWAP7 SWAP6 SWAP5 SWAP4 SWAP3 SWAP2 SWAP1 PUSH2 0x114B JUMP JUMPDEST PUSH0 PUSH1 0x40 MLOAD DUP1 DUP4 SUB DUP2 PUSH0 DUP8 DUP1 EXTCODESIZE ISZERO DUP1 ISZERO PUSH2 0x3FF JUMPI PUSH0 PUSH0 REVERT JUMPDEST POP GAS CALL ISZERO DUP1 ISZERO PUSH2 0x411 JUMPI RETURNDATASIZE PUSH0 PUSH0 RETURNDATACOPY RETURNDATASIZE PUSH0 REVERT JUMPDEST POP POP POP POP PUSH2 0x421 DUP10 DUP8 DUP11 DUP11 PUSH2 0x716 JUMP JUMPDEST SWAP1 POP SWAP9 SWAP8 POP POP POP POP POP POP POP POP JUMP JUMPDEST PUSH20 0x1820A4B7618BDE71DCE8CDC73AAB6C95905FAD24 PUSH20 0xFFFFFFFFFFFFFFFFFFFFFFFFFFFFFFFFFFFFFFFF AND PUSH4 0x29965A1D ADDRESS PUSH32 0xB281FC8C12954D22544DB45DE3159A39272895B169A852B314F9CC762E44C53B ADDRESS PUSH1 0x40 MLOAD DUP5 PUSH4 0xFFFFFFFF AND PUSH1 0xE0 SHL DUP2 MSTORE PUSH1 0x4 ADD PUSH2 0x4A0 SWAP4 SWAP3 SWAP2 SWAP1 PUSH2 0x11B8 JUMP JUMPDEST PUSH0 PUSH1 0x40 MLOAD DUP1 DUP4 SUB DUP2 PUSH0 DUP8 DUP1 EXTCODESIZE ISZERO DUP1 ISZERO PUSH2 0x4B7 JUMPI PUSH0 PUSH0 REVERT JUMPDEST POP GAS CALL ISZERO DUP1 ISZERO PUSH2 0x4C9 JUMPI RETURNDATASIZE PUSH0 PUSH0 RETURNDATACOPY RETURNDATASIZE PUSH0 REVERT JUMPDEST POP POP POP POP JUMP JUMPDEST PUSH0 PUSH2 0x4DC DUP5 CALLER DUP6 DUP6 PUSH2 0x716 JUMP JUMPDEST SWAP1 POP SWAP4 SWAP3 POP POP POP JUMP JUMPDEST PUSH1 0x60 DUP1 PUSH1 0x60 DUP1 PUSH32 0x0 PUSH20 0xFFFFFFFFFFFFFFFFFFFFFFFFFFFFFFFFFFFFFFFF AND CALLER PUSH20 0xFFFFFFFFFFFFFFFFFFFFFFFFFFFFFFFFFFFFFFFF AND EQ PUSH2 0x570 JUMPI PUSH1 0x40 MLOAD PUSH32 0x4CA8886700000000000000000000000000000000000000000000000000000000 DUP2 MSTORE PUSH1 0x4 ADD PUSH1 0x40 MLOAD DUP1 SWAP2 SUB SWAP1 REVERT JUMPDEST PUSH0 PUSH0 PUSH0 DUP9 DUP9 DUP2 ADD SWAP1 PUSH2 0x582 SWAP2 SWAP1 PUSH2 0x11ED JUMP JUMPDEST SWAP3 POP SWAP3 POP SWAP3 POP PUSH2 0x593 DUP4 DUP4 DUP4 PUSH2 0x749 JUMP JUMPDEST PUSH2 0x59B PUSH2 0x800 JUMP JUMPDEST PUSH2 0x5BB DUP5 PUSH20 0xFFFFFFFFFFFFFFFFFFFFFFFFFFFFFFFFFFFFFFFF AND DUP4 PUSH2 0x805 JUMP JUMPDEST PUSH2 0x5C3 PUSH2 0x800 JUMP JUMPDEST PUSH2 0x5CB PUSH2 0x800 JUMP JUMPDEST SWAP7 POP SWAP7 POP SWAP7 POP SWAP7 POP POP POP POP SWAP3 SWAP6 SWAP2 SWAP5 POP SWAP3 POP JUMP JUMPDEST PUSH0 PUSH2 0x5F2 DUP6 PUSH2 0x5ED DUP8 PUSH2 0x831 JUMP JUMPDEST PUSH2 0x6AA JUMP JUMPDEST DUP4 PUSH20 0xFFFFFFFFFFFFFFFFFFFFFFFFFFFFFFFFFFFFFFFF AND PUSH4 0x83437D45 DUP7 DUP6 DUP6 PUSH1 0x40 MLOAD DUP5 PUSH4 0xFFFFFFFF AND PUSH1 0xE0 SHL DUP2 MSTORE PUSH1 0x4 ADD PUSH2 0x62F SWAP4 SWAP3 SWAP2 SWAP1 PUSH2 0x1297 JUMP JUMPDEST PUSH0 PUSH1 0x40 MLOAD DUP1 DUP4 SUB DUP2 PUSH0 DUP8 DUP1 EXTCODESIZE ISZERO DUP1 ISZERO PUSH2 0x646 JUMPI PUSH0 PUSH0 REVERT JUMPDEST POP GAS CALL ISZERO DUP1 ISZERO PUSH2 0x658 JUMPI RETURNDATASIZE PUSH0 PUSH0 RETURNDATACOPY RETURNDATASIZE PUSH0 REVERT JUMPDEST POP POP POP POP PUSH2 0x666 DUP6 CALLER PUSH2 0x8B1 JUMP JUMPDEST SWAP1 POP SWAP5 SWAP4 POP POP POP POP JUMP JUMPDEST PUSH32 0x0 DUP2 JUMP JUMPDEST PUSH0 DUP2 PUSH1 0x60 SHL PUSH1 0x60 SHR SWAP2 POP PUSH1 0x1 DUP3 TLOAD SUB SWAP1 POP SWAP2 SWAP1 POP JUMP JUMPDEST PUSH32 0xFFFFFFFFFFFFFFFFFFFFFFFFFFFFFFFFFFFFFFFFFFFFFFFFFFFFFFFFFFFFFFFF DUP2 SUB PUSH2 0x703 JUMPI PUSH1 0x40 MLOAD PUSH32 0x89560CA100000000000000000000000000000000000000000000000000000000 DUP2 MSTORE PUSH1 0x4 ADD PUSH1 0x40 MLOAD DUP1 SWAP2 SUB SWAP1 REVERT JUMPDEST DUP2 PUSH1 0x60 SHL PUSH1 0x60 SHR SWAP2 POP PUSH1 0x1 DUP2 ADD DUP3 TSTORE POP POP JUMP JUMPDEST PUSH0 PUSH2 0x729 DUP6 PUSH2 0x724 DUP8 PUSH2 0x831 JUMP JUMPDEST PUSH2 0x6AA JUMP JUMPDEST PUSH2 0x735 DUP6 DUP6 ADDRESS DUP6 PUSH2 0x98A JUMP JUMPDEST PUSH2 0x73F DUP6 DUP5 PUSH2 0x8B1 JUMP JUMPDEST SWAP1 POP SWAP5 SWAP4 POP POP POP POP JUMP JUMPDEST PUSH0 PUSH1 0x40 MLOAD PUSH32 0xA9059CBB00000000000000000000000000000000000000000000000000000000 DUP2 MSTORE PUSH20 0xFFFFFFFFFFFFFFFFFFFFFFFFFFFFFFFFFFFFFFFF DUP5 AND PUSH1 0x4 DUP3 ADD MSTORE DUP3 PUSH1 0x24 DUP3 ADD MSTORE PUSH1 0x20 PUSH0 PUSH1 0x44 DUP4 PUSH0 DUP10 GAS CALL SWAP2 POP DUP2 PUSH1 0x1F RETURNDATASIZE GT PUSH1 0x1 PUSH0 MLOAD EQ AND ISZERO AND ISZERO PUSH2 0x7B9 JUMPI RETURNDATASIZE DUP6 EXTCODESIZE ISZERO OR ISZERO SWAP2 POP JUMPDEST POP DUP1 PUSH2 0x7FA JUMPI PUSH1 0x40 MLOAD PUSH32 0x8C379A000000000000000000000000000000000000000000000000000000000 DUP2 MSTORE PUSH1 0x4 ADD PUSH2 0x7F1 SWAP1 PUSH2 0x1321 JUMP JUMPDEST PUSH1 0x40 MLOAD DUP1 SWAP2 SUB SWAP1 REVERT JUMPDEST POP POP POP POP JUMP JUMPDEST PUSH1 0x60 SWAP1 JUMP JUMPDEST PUSH1 0x60 PUSH1 0x40 MLOAD SWAP1 POP PUSH1 0x80 DUP2 ADD PUSH1 0x40 MSTORE PUSH1 0x40 DUP2 ADD PUSH1 0x1 DUP3 MSTORE DUP1 PUSH1 0x20 DUP4 ADD MSTORE DUP4 DUP2 MSTORE DUP3 PUSH1 0x60 DUP4 ADD MSTORE POP SWAP3 SWAP2 POP POP JUMP JUMPDEST PUSH0 DUP2 PUSH20 0xFFFFFFFFFFFFFFFFFFFFFFFFFFFFFFFFFFFFFFFF AND PUSH4 0x70A08231 ADDRESS PUSH1 0x40 MLOAD DUP3 PUSH4 0xFFFFFFFF AND PUSH1 0xE0 SHL DUP2 MSTORE PUSH1 0x4 ADD PUSH2 0x86B SWAP2 SWAP1 PUSH2 0x133F JUMP JUMPDEST PUSH1 0x20 PUSH1 0x40 MLOAD DUP1 DUP4 SUB DUP2 DUP7 GAS STATICCALL ISZERO DUP1 ISZERO PUSH2 0x886 JUMPI RETURNDATASIZE PUSH0 PUSH0 RETURNDATACOPY RETURNDATASIZE PUSH0 REVERT JUMPDEST POP POP POP POP PUSH1 0x40 MLOAD RETURNDATASIZE PUSH1 0x1F NOT PUSH1 0x1F DUP3 ADD AND DUP3 ADD DUP1 PUSH1 0x40 MSTORE POP DUP2 ADD SWAP1 PUSH2 0x8AA SWAP2 SWAP1 PUSH2 0x136C JUMP JUMPDEST SWAP1 POP SWAP2 SWAP1 POP JUMP JUMPDEST PUSH0 PUSH0 PUSH2 0x8BC DUP5 PUSH2 0x831 JUMP JUMPDEST SWAP1 POP PUSH0 PUSH2 0x8C8 DUP6 PUSH2 0x694 JUMP JUMPDEST SWAP1 POP DUP1 DUP3 PUSH2 0x8D6 SWAP2 SWAP1 PUSH2 0x1397 JUMP JUMPDEST SWAP3 POP PUSH32 0x0 PUSH20 0xFFFFFFFFFFFFFFFFFFFFFFFFFFFFFFFFFFFFFFFF AND PUSH4 0x156E29F6 DUP6 DUP8 PUSH20 0xFFFFFFFFFFFFFFFFFFFFFFFFFFFFFFFFFFFFFFFF AND DUP7 PUSH1 0x40 MLOAD DUP5 PUSH4 0xFFFFFFFF AND PUSH1 0xE0 SHL DUP2 MSTORE PUSH1 0x4 ADD PUSH2 0x94B SWAP4 SWAP3 SWAP2 SWAP1 PUSH2 0x10F8 JUMP JUMPDEST PUSH0 PUSH1 0x40 MLOAD DUP1 DUP4 SUB DUP2 PUSH0 DUP8 DUP1 EXTCODESIZE ISZERO DUP1 ISZERO PUSH2 0x962 JUMPI PUSH0 PUSH0 REVERT JUMPDEST POP GAS CALL ISZERO DUP1 ISZERO PUSH2 0x974 JUMPI RETURNDATASIZE PUSH0 PUSH0 RETURNDATACOPY RETURNDATASIZE PUSH0 REVERT JUMPDEST POP POP POP POP PUSH2 0x982 DUP6 DUP4 PUSH2 0x6AA JUMP JUMPDEST POP POP SWAP3 SWAP2 POP POP JUMP JUMPDEST PUSH0 PUSH1 0x40 MLOAD PUSH32 0x23B872DD00000000000000000000000000000000000000000000000000000000 DUP2 MSTORE PUSH20 0xFFFFFFFFFFFFFFFFFFFFFFFFFFFFFFFFFFFFFFFF DUP6 AND PUSH1 0x4 DUP3 ADD MSTORE PUSH20 0xFFFFFFFFFFFFFFFFFFFFFFFFFFFFFFFFFFFFFFFF DUP5 AND PUSH1 0x24 DUP3 ADD MSTORE DUP3 PUSH1 0x44 DUP3 ADD MSTORE PUSH1 0x20 PUSH0 PUSH1 0x64 DUP4 PUSH0 DUP11 GAS CALL SWAP2 POP DUP2 PUSH1 0x1F RETURNDATASIZE GT PUSH1 0x1 PUSH0 MLOAD EQ AND ISZERO AND ISZERO PUSH2 0xA16 JUMPI RETURNDATASIZE DUP7 EXTCODESIZE ISZERO OR ISZERO SWAP2 POP JUMPDEST POP DUP1 PUSH2 0xA57 JUMPI PUSH1 0x40 MLOAD PUSH32 0x8C379A000000000000000000000000000000000000000000000000000000000 DUP2 MSTORE PUSH1 0x4 ADD PUSH2 0xA4E SWAP1 PUSH2 0x1414 JUMP JUMPDEST PUSH1 0x40 MLOAD DUP1 SWAP2 SUB SWAP1 REVERT JUMPDEST POP POP POP POP POP JUMP JUMPDEST PUSH0 PUSH0 REVERT JUMPDEST PUSH0 PUSH0 REVERT JUMPDEST PUSH0 PUSH20 0xFFFFFFFFFFFFFFFFFFFFFFFFFFFFFFFFFFFFFFFF DUP3 AND SWAP1 POP SWAP2 SWAP1 POP JUMP JUMPDEST PUSH0 PUSH2 0xA8F DUP3 PUSH2 0xA66 JUMP JUMPDEST SWAP1 POP SWAP2 SWAP1 POP JUMP JUMPDEST PUSH2 0xA9F DUP2 PUSH2 0xA85 JUMP JUMPDEST DUP2 EQ PUSH2 0xAA9 JUMPI PUSH0 PUSH0 REVERT JUMPDEST POP JUMP JUMPDEST PUSH0 DUP2 CALLDATALOAD SWAP1 POP PUSH2 0xABA DUP2 PUSH2 0xA96 JUMP JUMPDEST SWAP3 SWAP2 POP POP JUMP JUMPDEST PUSH0 DUP2 SWAP1 POP SWAP2 SWAP1 POP JUMP JUMPDEST PUSH2 0xAD2 DUP2 PUSH2 0xAC0 JUMP JUMPDEST DUP2 EQ PUSH2 0xADC JUMPI PUSH0 PUSH0 REVERT JUMPDEST POP JUMP JUMPDEST PUSH0 DUP2 CALLDATALOAD SWAP1 POP PUSH2 0xAED DUP2 PUSH2 0xAC9 JUMP JUMPDEST SWAP3 SWAP2 POP POP JUMP JUMPDEST PUSH0 PUSH0 REVERT JUMPDEST PUSH0 PUSH0 REVERT JUMPDEST PUSH0 PUSH0 REVERT JUMPDEST PUSH0 PUSH0 DUP4 PUSH1 0x1F DUP5 ADD SLT PUSH2 0xB14 JUMPI PUSH2 0xB13 PUSH2 0xAF3 JUMP JUMPDEST JUMPDEST DUP3 CALLDATALOAD SWAP1 POP PUSH8 0xFFFFFFFFFFFFFFFF DUP2 GT ISZERO PUSH2 0xB31 JUMPI PUSH2 0xB30 PUSH2 0xAF7 JUMP JUMPDEST JUMPDEST PUSH1 0x20 DUP4 ADD SWAP2 POP DUP4 PUSH1 0x1 DUP3 MUL DUP4 ADD GT ISZERO PUSH2 0xB4D JUMPI PUSH2 0xB4C PUSH2 0xAFB JUMP JUMPDEST JUMPDEST SWAP3 POP SWAP3 SWAP1 POP JUMP JUMPDEST PUSH0 PUSH0 PUSH0 PUSH0 PUSH0 PUSH0 PUSH0 PUSH0 PUSH1 0xC0 DUP10 DUP12 SUB SLT ISZERO PUSH2 0xB70 JUMPI PUSH2 0xB6F PUSH2 0xA5E JUMP JUMPDEST JUMPDEST PUSH0 PUSH2 0xB7D DUP12 DUP3 DUP13 ADD PUSH2 0xAAC JUMP JUMPDEST SWAP9 POP POP PUSH1 0x20 PUSH2 0xB8E DUP12 DUP3 DUP13 ADD PUSH2 0xAAC JUMP JUMPDEST SWAP8 POP POP PUSH1 0x40 PUSH2 0xB9F DUP12 DUP3 DUP13 ADD PUSH2 0xAAC JUMP JUMPDEST SWAP7 POP POP PUSH1 0x60 PUSH2 0xBB0 DUP12 DUP3 DUP13 ADD PUSH2 0xADF JUMP JUMPDEST SWAP6 POP POP PUSH1 0x80 DUP10 ADD CALLDATALOAD PUSH8 0xFFFFFFFFFFFFFFFF DUP2 GT ISZERO PUSH2 0xBD1 JUMPI PUSH2 0xBD0 PUSH2 0xA62 JUMP JUMPDEST JUMPDEST PUSH2 0xBDD DUP12 DUP3 DUP13 ADD PUSH2 0xAFF JUMP JUMPDEST SWAP5 POP SWAP5 POP POP PUSH1 0xA0 DUP10 ADD CALLDATALOAD PUSH8 0xFFFFFFFFFFFFFFFF DUP2 GT ISZERO PUSH2 0xC00 JUMPI PUSH2 0xBFF PUSH2 0xA62 JUMP JUMPDEST JUMPDEST PUSH2 0xC0C DUP12 DUP3 DUP13 ADD PUSH2 0xAFF JUMP JUMPDEST SWAP3 POP SWAP3 POP POP SWAP3 SWAP6 SWAP9 POP SWAP3 SWAP6 SWAP9 SWAP1 SWAP4 SWAP7 POP JUMP JUMPDEST PUSH0 PUSH1 0xFF DUP3 AND SWAP1 POP SWAP2 SWAP1 POP JUMP JUMPDEST PUSH2 0xC33 DUP2 PUSH2 0xC1E JUMP JUMPDEST DUP2 EQ PUSH2 0xC3D JUMPI PUSH0 PUSH0 REVERT JUMPDEST POP JUMP JUMPDEST PUSH0 DUP2 CALLDATALOAD SWAP1 POP PUSH2 0xC4E DUP2 PUSH2 0xC2A JUMP JUMPDEST SWAP3 SWAP2 POP POP JUMP JUMPDEST PUSH0 DUP2 SWAP1 POP SWAP2 SWAP1 POP JUMP JUMPDEST PUSH2 0xC66 DUP2 PUSH2 0xC54 JUMP JUMPDEST DUP2 EQ PUSH2 0xC70 JUMPI PUSH0 PUSH0 REVERT JUMPDEST POP JUMP JUMPDEST PUSH0 DUP2 CALLDATALOAD SWAP1 POP PUSH2 0xC81 DUP2 PUSH2 0xC5D JUMP JUMPDEST SWAP3 SWAP2 POP POP JUMP JUMPDEST PUSH0 PUSH0 PUSH0 PUSH0 PUSH0 PUSH0 PUSH0 PUSH0 PUSH2 0x100 DUP10 DUP12 SUB SLT ISZERO PUSH2 0xCA4 JUMPI PUSH2 0xCA3 PUSH2 0xA5E JUMP JUMPDEST JUMPDEST PUSH0 PUSH2 0xCB1 DUP12 DUP3 DUP13 ADD PUSH2 0xAAC JUMP JUMPDEST SWAP9 POP POP PUSH1 0x20 PUSH2 0xCC2 DUP12 DUP3 DUP13 ADD PUSH2 0xAAC JUMP JUMPDEST SWAP8 POP POP PUSH1 0x40 PUSH2 0xCD3 DUP12 DUP3 DUP13 ADD PUSH2 0xADF JUMP JUMPDEST SWAP7 POP POP PUSH1 0x60 PUSH2 0xCE4 DUP12 DUP3 DUP13 ADD PUSH2 0xAAC JUMP JUMPDEST SWAP6 POP POP PUSH1 0x80 PUSH2 0xCF5 DUP12 DUP3 DUP13 ADD PUSH2 0xADF JUMP JUMPDEST SWAP5 POP POP PUSH1 0xA0 PUSH2 0xD06 DUP12 DUP3 DUP13 ADD PUSH2 0xC40 JUMP JUMPDEST SWAP4 POP POP PUSH1 0xC0 PUSH2 0xD17 DUP12 DUP3 DUP13 ADD PUSH2 0xC73 JUMP JUMPDEST SWAP3 POP POP PUSH1 0xE0 PUSH2 0xD28 DUP12 DUP3 DUP13 ADD PUSH2 0xC73 JUMP JUMPDEST SWAP2 POP POP SWAP3 SWAP6 SWAP9 POP SWAP3 SWAP6 SWAP9 SWAP1 SWAP4 SWAP7 POP JUMP JUMPDEST PUSH2 0xD41 DUP2 PUSH2 0xAC0 JUMP JUMPDEST DUP3 MSTORE POP POP JUMP JUMPDEST PUSH0 PUSH1 0x20 DUP3 ADD SWAP1 POP PUSH2 0xD5A PUSH0 DUP4 ADD DUP5 PUSH2 0xD38 JUMP JUMPDEST SWAP3 SWAP2 POP POP JUMP JUMPDEST PUSH0 PUSH0 PUSH0 PUSH1 0x60 DUP5 DUP7 SUB SLT ISZERO PUSH2 0xD77 JUMPI PUSH2 0xD76 PUSH2 0xA5E JUMP JUMPDEST JUMPDEST PUSH0 PUSH2 0xD84 DUP7 DUP3 DUP8 ADD PUSH2 0xAAC JUMP JUMPDEST SWAP4 POP POP PUSH1 0x20 PUSH2 0xD95 DUP7 DUP3 DUP8 ADD PUSH2 0xAAC JUMP JUMPDEST SWAP3 POP POP PUSH1 0x40 PUSH2 0xDA6 DUP7 DUP3 DUP8 ADD PUSH2 0xADF JUMP JUMPDEST SWAP2 POP POP SWAP3 POP SWAP3 POP SWAP3 JUMP JUMPDEST PUSH0 PUSH0 PUSH1 0x20 DUP4 DUP6 SUB SLT ISZERO PUSH2 0xDC6 JUMPI PUSH2 0xDC5 PUSH2 0xA5E JUMP JUMPDEST JUMPDEST PUSH0 DUP4 ADD CALLDATALOAD PUSH8 0xFFFFFFFFFFFFFFFF DUP2 GT ISZERO PUSH2 0xDE3 JUMPI PUSH2 0xDE2 PUSH2 0xA62 JUMP JUMPDEST JUMPDEST PUSH2 0xDEF DUP6 DUP3 DUP7 ADD PUSH2 0xAFF JUMP JUMPDEST SWAP3 POP SWAP3 POP POP SWAP3 POP SWAP3 SWAP1 POP JUMP JUMPDEST PUSH0 DUP2 MLOAD SWAP1 POP SWAP2 SWAP1 POP JUMP JUMPDEST PUSH0 DUP3 DUP3 MSTORE PUSH1 0x20 DUP3 ADD SWAP1 POP SWAP3 SWAP2 POP POP JUMP JUMPDEST PUSH0 DUP2 SWAP1 POP PUSH1 0x20 DUP3 ADD SWAP1 POP SWAP2 SWAP1 POP JUMP JUMPDEST PUSH2 0xE2D DUP2 PUSH2 0xAC0 JUMP JUMPDEST DUP3 MSTORE POP POP JUMP JUMPDEST PUSH1 0x40 DUP3 ADD PUSH0 DUP3 ADD MLOAD PUSH2 0xE47 PUSH0 DUP6 ADD DUP3 PUSH2 0xE24 JUMP JUMPDEST POP PUSH1 0x20 DUP3 ADD MLOAD PUSH2 0xE5A PUSH1 0x20 DUP6 ADD DUP3 PUSH2 0xE24 JUMP JUMPDEST POP POP POP POP JUMP JUMPDEST PUSH0 PUSH2 0xE6B DUP4 DUP4 PUSH2 0xE33 JUMP JUMPDEST PUSH1 0x40 DUP4 ADD SWAP1 POP SWAP3 SWAP2 POP POP JUMP JUMPDEST PUSH0 PUSH1 0x20 DUP3 ADD SWAP1 POP SWAP2 SWAP1 POP JUMP JUMPDEST PUSH0 PUSH2 0xE8D DUP3 PUSH2 0xDFB JUMP JUMPDEST PUSH2 0xE97 DUP2 DUP6 PUSH2 0xE05 JUMP JUMPDEST SWAP4 POP PUSH2 0xEA2 DUP4 PUSH2 0xE15 JUMP JUMPDEST DUP1 PUSH0 JUMPDEST DUP4 DUP2 LT ISZERO PUSH2 0xED2 JUMPI DUP2 MLOAD PUSH2 0xEB9 DUP9 DUP3 PUSH2 0xE60 JUMP JUMPDEST SWAP8 POP PUSH2 0xEC4 DUP4 PUSH2 0xE77 JUMP JUMPDEST SWAP3 POP POP PUSH1 0x1 DUP2 ADD SWAP1 POP PUSH2 0xEA5 JUMP JUMPDEST POP DUP6 SWAP4 POP POP POP POP SWAP3 SWAP2 POP POP JUMP JUMPDEST PUSH0 PUSH1 0x80 DUP3 ADD SWAP1 POP DUP2 DUP2 SUB PUSH0 DUP4 ADD MSTORE PUSH2 0xEF7 DUP2 DUP8 PUSH2 0xE83 JUMP JUMPDEST SWAP1 POP DUP2 DUP2 SUB PUSH1 0x20 DUP4 ADD MSTORE PUSH2 0xF0B DUP2 DUP7 PUSH2 0xE83 JUMP JUMPDEST SWAP1 POP DUP2 DUP2 SUB PUSH1 0x40 DUP4 ADD MSTORE PUSH2 0xF1F DUP2 DUP6 PUSH2 0xE83 JUMP JUMPDEST SWAP1 POP DUP2 DUP2 SUB PUSH1 0x60 DUP4 ADD MSTORE PUSH2 0xF33 DUP2 DUP5 PUSH2 0xE83 JUMP JUMPDEST SWAP1 POP SWAP6 SWAP5 POP POP POP POP POP JUMP JUMPDEST PUSH0 PUSH0 PUSH0 PUSH0 PUSH1 0x60 DUP6 DUP8 SUB SLT ISZERO PUSH2 0xF56 JUMPI PUSH2 0xF55 PUSH2 0xA5E JUMP JUMPDEST JUMPDEST PUSH0 PUSH2 0xF63 DUP8 DUP3 DUP9 ADD PUSH2 0xAAC JUMP JUMPDEST SWAP5 POP POP PUSH1 0x20 PUSH2 0xF74 DUP8 DUP3 DUP9 ADD PUSH2 0xAAC JUMP JUMPDEST SWAP4 POP POP PUSH1 0x40 DUP6 ADD CALLDATALOAD PUSH8 0xFFFFFFFFFFFFFFFF DUP2 GT ISZERO PUSH2 0xF95 JUMPI PUSH2 0xF94 PUSH2 0xA62 JUMP JUMPDEST JUMPDEST PUSH2 0xFA1 DUP8 DUP3 DUP9 ADD PUSH2 0xAFF JUMP JUMPDEST SWAP3 POP SWAP3 POP POP SWAP3 SWAP6 SWAP2 SWAP5 POP SWAP3 POP JUMP JUMPDEST PUSH0 DUP2 SWAP1 POP SWAP2 SWAP1 POP JUMP JUMPDEST PUSH0 PUSH2 0xFD2 PUSH2 0xFCD PUSH2 0xFC8 DUP5 PUSH2 0xA66 JUMP JUMPDEST PUSH2 0xFAF JUMP JUMPDEST PUSH2 0xA66 JUMP JUMPDEST SWAP1 POP SWAP2 SWAP1 POP JUMP JUMPDEST PUSH0 PUSH2 0xFE3 DUP3 PUSH2 0xFB8 JUMP JUMPDEST SWAP1 POP SWAP2 SWAP1 POP JUMP JUMPDEST PUSH0 PUSH2 0xFF4 DUP3 PUSH2 0xFD9 JUMP JUMPDEST SWAP1 POP SWAP2 SWAP1 POP JUMP JUMPDEST PUSH2 0x1004 DUP2 PUSH2 0xFEA JUMP JUMPDEST DUP3 MSTORE POP POP JUMP JUMPDEST PUSH0 PUSH1 0x20 DUP3 ADD SWAP1 POP PUSH2 0x101D PUSH0 DUP4 ADD DUP5 PUSH2 0xFFB JUMP JUMPDEST SWAP3 SWAP2 POP POP JUMP JUMPDEST PUSH32 0x4E487B7100000000000000000000000000000000000000000000000000000000 PUSH0 MSTORE PUSH1 0x11 PUSH1 0x4 MSTORE PUSH1 0x24 PUSH0 REVERT JUMPDEST PUSH0 PUSH2 0x105A DUP3 PUSH2 0xAC0 JUMP JUMPDEST SWAP2 POP PUSH2 0x1065 DUP4 PUSH2 0xAC0 JUMP JUMPDEST SWAP3 POP DUP3 DUP3 ADD SWAP1 POP DUP1 DUP3 GT ISZERO PUSH2 0x107D JUMPI PUSH2 0x107C PUSH2 0x1023 JUMP JUMPDEST JUMPDEST SWAP3 SWAP2 POP POP JUMP JUMPDEST PUSH0 PUSH2 0x108D DUP3 PUSH2 0xA66 JUMP JUMPDEST SWAP1 POP SWAP2 SWAP1 POP JUMP JUMPDEST PUSH2 0x109D DUP2 PUSH2 0x1083 JUMP JUMPDEST DUP2 EQ PUSH2 0x10A7 JUMPI PUSH0 PUSH0 REVERT JUMPDEST POP JUMP JUMPDEST PUSH0 DUP2 CALLDATALOAD SWAP1 POP PUSH2 0x10B8 DUP2 PUSH2 0x1094 JUMP JUMPDEST SWAP3 SWAP2 POP POP JUMP JUMPDEST PUSH0 PUSH1 0x20 DUP3 DUP5 SUB SLT ISZERO PUSH2 0x10D3 JUMPI PUSH2 0x10D2 PUSH2 0xA5E JUMP JUMPDEST JUMPDEST PUSH0 PUSH2 0x10E0 DUP5 DUP3 DUP6 ADD PUSH2 0x10AA JUMP JUMPDEST SWAP2 POP POP SWAP3 SWAP2 POP POP JUMP JUMPDEST PUSH2 0x10F2 DUP2 PUSH2 0xA85 JUMP JUMPDEST DUP3 MSTORE POP POP JUMP JUMPDEST PUSH0 PUSH1 0x60 DUP3 ADD SWAP1 POP PUSH2 0x110B PUSH0 DUP4 ADD DUP7 PUSH2 0x10E9 JUMP JUMPDEST PUSH2 0x1118 PUSH1 0x20 DUP4 ADD DUP6 PUSH2 0xD38 JUMP JUMPDEST PUSH2 0x1125 PUSH1 0x40 DUP4 ADD DUP5 PUSH2 0xD38 JUMP JUMPDEST SWAP5 SWAP4 POP POP POP POP JUMP JUMPDEST PUSH2 0x1136 DUP2 PUSH2 0xC1E JUMP JUMPDEST DUP3 MSTORE POP POP JUMP JUMPDEST PUSH2 0x1145 DUP2 PUSH2 0xC54 JUMP JUMPDEST DUP3 MSTORE POP POP JUMP JUMPDEST PUSH0 PUSH1 0xE0 DUP3 ADD SWAP1 POP PUSH2 0x115E PUSH0 DUP4 ADD DUP11 PUSH2 0x10E9 JUMP JUMPDEST PUSH2 0x116B PUSH1 0x20 DUP4 ADD DUP10 PUSH2 0x10E9 JUMP JUMPDEST PUSH2 0x1178 PUSH1 0x40 DUP4 ADD DUP9 PUSH2 0xD38 JUMP JUMPDEST PUSH2 0x1185 PUSH1 0x60 DUP4 ADD DUP8 PUSH2 0xD38 JUMP JUMPDEST PUSH2 0x1192 PUSH1 0x80 DUP4 ADD DUP7 PUSH2 0x112D JUMP JUMPDEST PUSH2 0x119F PUSH1 0xA0 DUP4 ADD DUP6 PUSH2 0x113C JUMP JUMPDEST PUSH2 0x11AC PUSH1 0xC0 DUP4 ADD DUP5 PUSH2 0x113C JUMP JUMPDEST SWAP9 SWAP8 POP POP POP POP POP POP POP POP JUMP JUMPDEST PUSH0 PUSH1 0x60 DUP3 ADD SWAP1 POP PUSH2 0x11CB PUSH0 DUP4 ADD DUP7 PUSH2 0x10E9 JUMP JUMPDEST PUSH2 0x11D8 PUSH1 0x20 DUP4 ADD DUP6 PUSH2 0x113C JUMP JUMPDEST PUSH2 0x11E5 PUSH1 0x40 DUP4 ADD DUP5 PUSH2 0x10E9 JUMP JUMPDEST SWAP5 SWAP4 POP POP POP POP JUMP JUMPDEST PUSH0 PUSH0 PUSH0 PUSH1 0x60 DUP5 DUP7 SUB SLT ISZERO PUSH2 0x1204 JUMPI PUSH2 0x1203 PUSH2 0xA5E JUMP JUMPDEST JUMPDEST PUSH0 PUSH2 0x1211 DUP7 DUP3 DUP8 ADD PUSH2 0x10AA JUMP JUMPDEST SWAP4 POP POP PUSH1 0x20 PUSH2 0x1222 DUP7 DUP3 DUP8 ADD PUSH2 0x10AA JUMP JUMPDEST SWAP3 POP POP PUSH1 0x40 PUSH2 0x1233 DUP7 DUP3 DUP8 ADD PUSH2 0xADF JUMP JUMPDEST SWAP2 POP POP SWAP3 POP SWAP3 POP SWAP3 JUMP JUMPDEST PUSH0 DUP3 DUP3 MSTORE PUSH1 0x20 DUP3 ADD SWAP1 POP SWAP3 SWAP2 POP POP JUMP JUMPDEST DUP3 DUP2 DUP4 CALLDATACOPY PUSH0 DUP4 DUP4 ADD MSTORE POP POP POP JUMP JUMPDEST PUSH0 PUSH1 0x1F NOT PUSH1 0x1F DUP4 ADD AND SWAP1 POP SWAP2 SWAP1 POP JUMP JUMPDEST PUSH0 PUSH2 0x1276 DUP4 DUP6 PUSH2 0x123D JUMP JUMPDEST SWAP4 POP PUSH2 0x1283 DUP4 DUP6 DUP5 PUSH2 0x124D JUMP JUMPDEST PUSH2 0x128C DUP4 PUSH2 0x125B JUMP JUMPDEST DUP5 ADD SWAP1 POP SWAP4 SWAP3 POP POP POP JUMP JUMPDEST PUSH0 PUSH1 0x40 DUP3 ADD SWAP1 POP PUSH2 0x12AA PUSH0 DUP4 ADD DUP7 PUSH2 0x10E9 JUMP JUMPDEST DUP2 DUP2 SUB PUSH1 0x20 DUP4 ADD MSTORE PUSH2 0x12BD DUP2 DUP5 DUP7 PUSH2 0x126B JUMP JUMPDEST SWAP1 POP SWAP5 SWAP4 POP POP POP POP JUMP JUMPDEST PUSH0 DUP3 DUP3 MSTORE PUSH1 0x20 DUP3 ADD SWAP1 POP SWAP3 SWAP2 POP POP JUMP JUMPDEST PUSH32 0x5452414E534645525F4641494C45440000000000000000000000000000000000 PUSH0 DUP3 ADD MSTORE POP JUMP JUMPDEST PUSH0 PUSH2 0x130B PUSH1 0xF DUP4 PUSH2 0x12C7 JUMP JUMPDEST SWAP2 POP PUSH2 0x1316 DUP3 PUSH2 0x12D7 JUMP JUMPDEST PUSH1 0x20 DUP3 ADD SWAP1 POP SWAP2 SWAP1 POP JUMP JUMPDEST PUSH0 PUSH1 0x20 DUP3 ADD SWAP1 POP DUP2 DUP2 SUB PUSH0 DUP4 ADD MSTORE PUSH2 0x1338 DUP2 PUSH2 0x12FF JUMP JUMPDEST SWAP1 POP SWAP2 SWAP1 POP JUMP JUMPDEST PUSH0 PUSH1 0x20 DUP3 ADD SWAP1 POP PUSH2 0x1352 PUSH0 DUP4 ADD DUP5 PUSH2 0x10E9 JUMP JUMPDEST SWAP3 SWAP2 POP POP JUMP JUMPDEST PUSH0 DUP2 MLOAD SWAP1 POP PUSH2 0x1366 DUP2 PUSH2 0xAC9 JUMP JUMPDEST SWAP3 SWAP2 POP POP JUMP JUMPDEST PUSH0 PUSH1 0x20 DUP3 DUP5 SUB SLT ISZERO PUSH2 0x1381 JUMPI PUSH2 0x1380 PUSH2 0xA5E JUMP JUMPDEST JUMPDEST PUSH0 PUSH2 0x138E DUP5 DUP3 DUP6 ADD PUSH2 0x1358 JUMP JUMPDEST SWAP2 POP POP SWAP3 SWAP2 POP POP JUMP JUMPDEST PUSH0 PUSH2 0x13A1 DUP3 PUSH2 0xAC0 JUMP JUMPDEST SWAP2 POP PUSH2 0x13AC DUP4 PUSH2 0xAC0 JUMP JUMPDEST SWAP3 POP DUP3 DUP3 SUB SWAP1 POP DUP2 DUP2 GT ISZERO PUSH2 0x13C4 JUMPI PUSH2 0x13C3 PUSH2 0x1023 JUMP JUMPDEST JUMPDEST SWAP3 SWAP2 POP POP JUMP JUMPDEST PUSH32 0x5452414E534645525F46524F4D5F4641494C4544000000000000000000000000 PUSH0 DUP3 ADD MSTORE POP JUMP JUMPDEST PUSH0 PUSH2 0x13FE PUSH1 0x14 DUP4 PUSH2 0x12C7 JUMP JUMPDEST SWAP2 POP PUSH2 0x1409 DUP3 PUSH2 0x13CA JUMP JUMPDEST PUSH1 0x20 DUP3 ADD SWAP1 POP SWAP2 SWAP1 POP JUMP JUMPDEST PUSH0 PUSH1 0x20 DUP3 ADD SWAP1 POP DUP2 DUP2 SUB PUSH0 DUP4 ADD MSTORE PUSH2 0x142B DUP2 PUSH2 0x13F2 JUMP JUMPDEST SWAP1 POP SWAP2 SWAP1 POP JUMP INVALID LOG2 PUSH5 0x6970667358 0x22 SLT KECCAK256 BLOBHASH SWAP2 0x2F 0xEC 0xED 0xCE SELFBALANCE ORIGIN STOP 0xC9 PUSH4 0xBA324E03 0xED 0xC4 STATICCALL 0xAA CALLER 0x1F 0xCF DUP16 STATICCALL DUP1 PUSH2 0x3619 0xE6 0xF 0x2B JUMPI PUSH5 0x736F6C6343 STOP ADDMOD SHR STOP CALLER "
		},
		"gasEstimates": {
			"creation": {
				"codeDepositCost": "1044800",
				"executionCost": "infinite",
				"totalCost": "infinite"
			},
			"external": {
				"blueprintManager()": "infinite",
				"deposit(address,address,uint256)": "infinite",
				"depositWithCallback(address,address,bytes)": "infinite",
				"executeAction(bytes)": "infinite",
				"permitDeposit(address,address,uint256,address,uint256,uint8,bytes32,bytes32)": "infinite",
				"setERC1820Registry()": "infinite",
				"tokensReceived(address,address,address,uint256,bytes,bytes)": "infinite"
			},
			"internal": {
				"_deposit(address,address,address,uint256)": "infinite",
				"_getBalance(address)": "infinite",
				"_getSavedBalance(address)": "153",
				"_mintNewBalance(address,address)": "infinite",
				"_saveBalance(address,uint256)": "infinite"
			}
		},
		"methodIdentifiers": {
			"blueprintManager()": "fabe109a",
			"deposit(address,address,uint256)": "8340f549",
			"depositWithCallback(address,address,bytes)": "e80aed81",
			"executeAction(bytes)": "a129568d",
			"permitDeposit(address,address,uint256,address,uint256,uint8,bytes32,bytes32)": "035c833a",
			"setERC1820Registry()": "50e43439",
			"tokensReceived(address,address,address,uint256,bytes,bytes)": "0023de29"
		}
	},
	"abi": [
		{
			"inputs": [
				{
					"internalType": "contract IBlueprintManager",
					"name": "manager",
					"type": "address"
				}
			],
			"stateMutability": "nonpayable",
			"type": "constructor"
		},
		{
			"inputs": [],
			"name": "AccessDenied",
			"type": "error"
		},
		{
			"inputs": [],
			"name": "BalanceOverflow",
			"type": "error"
		},
		{
			"inputs": [],
			"name": "ReentrantDeposit",
			"type": "error"
		},
		{
			"inputs": [],
			"name": "blueprintManager",
			"outputs": [
				{
					"internalType": "contract IBlueprintManager",
					"name": "",
					"type": "address"
				}
			],
			"stateMutability": "view",
			"type": "function"
		},
		{
			"inputs": [
				{
					"internalType": "address",
					"name": "erc20",
					"type": "address"
				},
				{
					"internalType": "address",
					"name": "to",
					"type": "address"
				},
				{
					"internalType": "uint256",
					"name": "amount",
					"type": "uint256"
				}
			],
			"name": "deposit",
			"outputs": [
				{
					"internalType": "uint256",
					"name": "deposited",
					"type": "uint256"
				}
			],
			"stateMutability": "nonpayable",
			"type": "function"
		},
		{
			"inputs": [
				{
					"internalType": "address",
					"name": "erc20",
					"type": "address"
				},
				{
					"internalType": "address",
					"name": "callback",
					"type": "address"
				},
				{
					"internalType": "bytes",
					"name": "callbackData",
					"type": "bytes"
				}
			],
			"name": "depositWithCallback",
			"outputs": [
				{
					"internalType": "uint256",
					"name": "deposited",
					"type": "uint256"
				}
			],
			"stateMutability": "nonpayable",
			"type": "function"
		},
		{
			"inputs": [
				{
					"internalType": "bytes",
					"name": "action",
					"type": "bytes"
				}
			],
			"name": "executeAction",
			"outputs": [
				{
					"components": [
						{
							"internalType": "uint256",
							"name": "tokenId",
							"type": "uint256"
						},
						{
							"internalType": "uint256",
							"name": "amount",
							"type": "uint256"
						}
					],
					"internalType": "struct TokenOp[]",
					"name": "",
					"type": "tuple[]"
				},
				{
					"components": [
						{
							"internalType": "uint256",
							"name": "tokenId",
							"type": "uint256"
						},
						{
							"internalType": "uint256",
							"name": "amount",
							"type": "uint256"
						}
					],
					"internalType": "struct TokenOp[]",
					"name": "",
					"type": "tuple[]"
				},
				{
					"components": [
						{
							"internalType": "uint256",
							"name": "tokenId",
							"type": "uint256"
						},
						{
							"internalType": "uint256",
							"name": "amount",
							"type": "uint256"
						}
					],
					"internalType": "struct TokenOp[]",
					"name": "",
					"type": "tuple[]"
				},
				{
					"components": [
						{
							"internalType": "uint256",
							"name": "tokenId",
							"type": "uint256"
						},
						{
							"internalType": "uint256",
							"name": "amount",
							"type": "uint256"
						}
					],
					"internalType": "struct TokenOp[]",
					"name": "",
					"type": "tuple[]"
				}
			],
			"stateMutability": "nonpayable",
			"type": "function"
		},
		{
			"inputs": [
				{
					"internalType": "address",
					"name": "erc20",
					"type": "address"
				},
				{
					"internalType": "address",
					"name": "to",
					"type": "address"
				},
				{
					"internalType": "uint256",
					"name": "amount",
					"type": "uint256"
				},
				{
					"internalType": "address",
					"name": "owner",
					"type": "address"
				},
				{
					"internalType": "uint256",
					"name": "deadline",
					"type": "uint256"
				},
				{
					"internalType": "uint8",
					"name": "v",
					"type": "uint8"
				},
				{
					"internalType": "bytes32",
					"name": "r",
					"type": "bytes32"
				},
				{
					"internalType": "bytes32",
					"name": "s",
					"type": "bytes32"
				}
			],
			"name": "permitDeposit",
			"outputs": [
				{
					"internalType": "uint256",
					"name": "deposited",
					"type": "uint256"
				}
			],
			"stateMutability": "nonpayable",
			"type": "function"
		},
		{
			"inputs": [],
			"name": "setERC1820Registry",
			"outputs": [],
			"stateMutability": "nonpayable",
			"type": "function"
		},
		{
			"inputs": [
				{
					"internalType": "address",
					"name": "operator",
					"type": "address"
				},
				{
					"internalType": "address",
					"name": "from",
					"type": "address"
				},
				{
					"internalType": "address",
					"name": "to",
					"type": "address"
				},
				{
					"internalType": "uint256",
					"name": "amount",
					"type": "uint256"
				},
				{
					"internalType": "bytes",
					"name": "data",
					"type": "bytes"
				},
				{
					"internalType": "bytes",
					"name": "",
					"type": "bytes"
				}
			],
			"name": "tokensReceived",
			"outputs": [],
			"stateMutability": "nonpayable",
			"type": "function"
		}
	]
}