{
	"data": {
		"bytecode": {
			"linkReferences": {},
			"object": "60a060405234801561000f575f5ffd5b506040516109ec3803806109ec833981810160405281019061003191906100dc565b808073ffffffffffffffffffffffffffffffffffffffff1660808173ffffffffffffffffffffffffffffffffffffffff16815250505050610107565b5f5ffd5b5f73ffffffffffffffffffffffffffffffffffffffff82169050919050565b5f61009a82610071565b9050919050565b5f6100ab82610090565b9050919050565b6100bb816100a1565b81146100c5575f5ffd5b50565b5f815190506100d6816100b2565b92915050565b5f602082840312156100f1576100f061006d565b5b5f6100fe848285016100c8565b91505092915050565b6080516108c061012c5f395f818160e70152818161019501526102dc01526108c05ff3fe608060405234801561000f575f5ffd5b506004361061003f575f3560e01c8063150b7a0214610043578063a129568d14610073578063fabe109a146100a6575b5f5ffd5b61005d6004803603810190610058919061043a565b6100c4565b60405161006a91906104f8565b60405180910390f35b61008d60048036038101906100889190610511565b61018d565b60405161009d9493929190610640565b60405180910390f35b6100ae6102da565b6040516100bb91906106fa565b60405180910390f35b5f5f8590505f84849050146100e55783838101906100e2919061074e565b90505b7f000000000000000000000000000000000000000000000000000000000000000073ffffffffffffffffffffffffffffffffffffffff1663156e29f68261012c33896102fe565b60016040518463ffffffff1660e01b815260040161014c939291906107d0565b5f604051808303815f87803b158015610163575f5ffd5b505af1158015610175573d5f5f3e3d5ffd5b5050505063150b7a0260e01b91505095945050505050565b6060806060807f000000000000000000000000000000000000000000000000000000000000000073ffffffffffffffffffffffffffffffffffffffff163373ffffffffffffffffffffffffffffffffffffffff1614610218576040517f4ca8886700000000000000000000000000000000000000000000000000000000815260040160405180910390fd5b5f5f5f888881019061022a9190610805565b9250925092508273ffffffffffffffffffffffffffffffffffffffff166323b872dd3084846040518463ffffffff1660e01b815260040161026d93929190610855565b5f604051808303815f87803b158015610284575f5ffd5b505af1158015610296573d5f5f3e3d5ffd5b505050506102a2610313565b6102b66102af85846102fe565b6001610318565b6102be610313565b6102c6610313565b965096509650965050505092959194509250565b7f000000000000000000000000000000000000000000000000000000000000000081565b5f825f52816020526034600c20905092915050565b606090565b606060405190506080810160405260408101600182528060208301528381528260608301525092915050565b5f5ffd5b5f5ffd5b5f73ffffffffffffffffffffffffffffffffffffffff82169050919050565b5f6103758261034c565b9050919050565b6103858161036b565b811461038f575f5ffd5b50565b5f813590506103a08161037c565b92915050565b5f819050919050565b6103b8816103a6565b81146103c2575f5ffd5b50565b5f813590506103d3816103af565b92915050565b5f5ffd5b5f5ffd5b5f5ffd5b5f5f83601f8401126103fa576103f96103d9565b5b8235905067ffffffffffffffff811115610417576104166103dd565b5b602083019150836001820283011115610433576104326103e1565b5b9250929050565b5f5f5f5f5f6080868803121561045357610452610344565b5b5f61046088828901610392565b955050602061047188828901610392565b9450506040610482888289016103c5565b935050606086013567ffffffffffffffff8111156104a3576104a2610348565b5b6104af888289016103e5565b92509250509295509295909350565b5f7fffffffff0000000000000000000000000000000000000000000000000000000082169050919050565b6104f2816104be565b82525050565b5f60208201905061050b5f8301846104e9565b92915050565b5f5f6020838503121561052757610526610344565b5b5f83013567ffffffffffffffff81111561054457610543610348565b5b610550858286016103e5565b92509250509250929050565b5f81519050919050565b5f82825260208201905092915050565b5f819050602082019050919050565b61058e816103a6565b82525050565b604082015f8201516105a85f850182610585565b5060208201516105bb6020850182610585565b50505050565b5f6105cc8383610594565b60408301905092915050565b5f602082019050919050565b5f6105ee8261055c565b6105f88185610566565b935061060383610576565b805f5b8381101561063357815161061a88826105c1565b9750610625836105d8565b925050600181019050610606565b5085935050505092915050565b5f6080820190508181035f83015261065881876105e4565b9050818103602083015261066c81866105e4565b9050818103604083015261068081856105e4565b9050818103606083015261069481846105e4565b905095945050505050565b5f819050919050565b5f6106c26106bd6106b88461034c565b61069f565b61034c565b9050919050565b5f6106d3826106a8565b9050919050565b5f6106e4826106c9565b9050919050565b6106f4816106da565b82525050565b5f60208201905061070d5f8301846106eb565b92915050565b5f61071d8261034c565b9050919050565b61072d81610713565b8114610737575f5ffd5b50565b5f8135905061074881610724565b92915050565b5f6020828403121561076357610762610344565b5b5f6107708482850161073a565b91505092915050565b6107828161036b565b82525050565b610791816103a6565b82525050565b5f819050919050565b5f6107ba6107b56107b084610797565b61069f565b6103a6565b9050919050565b6107ca816107a0565b82525050565b5f6060820190506107e35f830186610779565b6107f06020830185610788565b6107fd60408301846107c1565b949350505050565b5f5f5f6060848603121561081c5761081b610344565b5b5f6108298682870161073a565b935050602061083a8682870161073a565b925050604061084b868287016103c5565b9150509250925092565b5f6060820190506108685f830186610779565b6108756020830185610779565b6108826040830184610788565b94935050505056fea26469706673582212201212d1b0a75cccb89e2d5cee3766f619dcb4c0afc626bac23b7eb1785d59177064736f6c634300081c0033",
			"opcodes": "PUSH1 0xA0 PUSH1 0x40 MSTORE CALLVALUE DUP1 ISZERO PUSH2 0xF JUMPI PUSH0 PUSH0 REVERT JUMPDEST POP PUSH1 0x40 MLOAD PUSH2 0x9EC CODESIZE SUB DUP1 PUSH2 0x9EC DUP4 CODECOPY DUP2 DUP2 ADD PUSH1 0x40 MSTORE DUP2 ADD SWAP1 PUSH2 0x31 SWAP2 SWAP1 PUSH2 0xDC JUMP JUMPDEST DUP1 DUP1 PUSH20 0xFFFFFFFFFFFFFFFFFFFFFFFFFFFFFFFFFFFFFFFF AND PUSH1 0x80 DUP2 PUSH20 0xFFFFFFFFFFFFFFFFFFFFFFFFFFFFFFFFFFFFFFFF AND DUP2 MSTORE POP POP POP POP PUSH2 0x107 JUMP JUMPDEST PUSH0 PUSH0 REVERT JUMPDEST PUSH0 PUSH20 0xFFFFFFFFFFFFFFFFFFFFFFFFFFFFFFFFFFFFFFFF DUP3 AND SWAP1 POP SWAP2 SWAP1 POP JUMP JUMPDEST PUSH0 PUSH2 0x9A DUP3 PUSH2 0x71 JUMP JUMPDEST SWAP1 POP SWAP2 SWAP1 POP JUMP JUMPDEST PUSH0 PUSH2 0xAB DUP3 PUSH2 0x90 JUMP JUMPDEST SWAP1 POP SWAP2 SWAP1 POP JUMP JUMPDEST PUSH2 0xBB DUP2 PUSH2 0xA1 JUMP JUMPDEST DUP2 EQ PUSH2 0xC5 JUMPI PUSH0 PUSH0 REVERT JUMPDEST POP JUMP JUMPDEST PUSH0 DUP2 MLOAD SWAP1 POP PUSH2 0xD6 DUP2 PUSH2 0xB2 JUMP JUMPDEST SWAP3 SWAP2 POP POP JUMP JUMPDEST PUSH0 PUSH1 0x20 DUP3 DUP5 SUB SLT ISZERO PUSH2 0xF1 JUMPI PUSH2 0xF0 PUSH2 0x6D JUMP JUMPDEST JUMPDEST PUSH0 PUSH2 0xFE DUP5 DUP3 DUP6 ADD PUSH2 0xC8 JUMP JUMPDEST SWAP2 POP POP SWAP3 SWAP2 POP POP JUMP JUMPDEST PUSH1 0x80 MLOAD PUSH2 0x8C0 PUSH2 0x12C PUSH0 CODECOPY PUSH0 DUP2 DUP2 PUSH1 0xE7 ADD MSTORE DUP2 DUP2 PUSH2 0x195 ADD MSTORE PUSH2 0x2DC ADD MSTORE PUSH2 0x8C0 PUSH0 RETURN INVALID PUSH1 0x80 PUSH1 0x40 MSTORE CALLVALUE DUP1 ISZERO PUSH2 0xF JUMPI PUSH0 PUSH0 REVERT JUMPDEST POP PUSH1 0x4 CALLDATASIZE LT PUSH2 0x3F JUMPI PUSH0 CALLDATALOAD PUSH1 0xE0 SHR DUP1 PUSH4 0x150B7A02 EQ PUSH2 0x43 JUMPI DUP1 PUSH4 0xA129568D EQ PUSH2 0x73 JUMPI DUP1 PUSH4 0xFABE109A EQ PUSH2 0xA6 JUMPI JUMPDEST PUSH0 PUSH0 REVERT JUMPDEST PUSH2 0x5D PUSH1 0x4 DUP1 CALLDATASIZE SUB DUP2 ADD SWAP1 PUSH2 0x58 SWAP2 SWAP1 PUSH2 0x43A JUMP JUMPDEST PUSH2 0xC4 JUMP JUMPDEST PUSH1 0x40 MLOAD PUSH2 0x6A SWAP2 SWAP1 PUSH2 0x4F8 JUMP JUMPDEST PUSH1 0x40 MLOAD DUP1 SWAP2 SUB SWAP1 RETURN JUMPDEST PUSH2 0x8D PUSH1 0x4 DUP1 CALLDATASIZE SUB DUP2 ADD SWAP1 PUSH2 0x88 SWAP2 SWAP1 PUSH2 0x511 JUMP JUMPDEST PUSH2 0x18D JUMP JUMPDEST PUSH1 0x40 MLOAD PUSH2 0x9D SWAP5 SWAP4 SWAP3 SWAP2 SWAP1 PUSH2 0x640 JUMP JUMPDEST PUSH1 0x40 MLOAD DUP1 SWAP2 SUB SWAP1 RETURN JUMPDEST PUSH2 0xAE PUSH2 0x2DA JUMP JUMPDEST PUSH1 0x40 MLOAD PUSH2 0xBB SWAP2 SWAP1 PUSH2 0x6FA JUMP JUMPDEST PUSH1 0x40 MLOAD DUP1 SWAP2 SUB SWAP1 RETURN JUMPDEST PUSH0 PUSH0 DUP6 SWAP1 POP PUSH0 DUP5 DUP5 SWAP1 POP EQ PUSH2 0xE5 JUMPI DUP4 DUP4 DUP2 ADD SWAP1 PUSH2 0xE2 SWAP2 SWAP1 PUSH2 0x74E JUMP JUMPDEST SWAP1 POP JUMPDEST PUSH32 0x0 PUSH20 0xFFFFFFFFFFFFFFFFFFFFFFFFFFFFFFFFFFFFFFFF AND PUSH4 0x156E29F6 DUP3 PUSH2 0x12C CALLER DUP10 PUSH2 0x2FE JUMP JUMPDEST PUSH1 0x1 PUSH1 0x40 MLOAD DUP5 PUSH4 0xFFFFFFFF AND PUSH1 0xE0 SHL DUP2 MSTORE PUSH1 0x4 ADD PUSH2 0x14C SWAP4 SWAP3 SWAP2 SWAP1 PUSH2 0x7D0 JUMP JUMPDEST PUSH0 PUSH1 0x40 MLOAD DUP1 DUP4 SUB DUP2 PUSH0 DUP8 DUP1 EXTCODESIZE ISZERO DUP1 ISZERO PUSH2 0x163 JUMPI PUSH0 PUSH0 REVERT JUMPDEST POP GAS CALL ISZERO DUP1 ISZERO PUSH2 0x175 JUMPI RETURNDATASIZE PUSH0 PUSH0 RETURNDATACOPY RETURNDATASIZE PUSH0 REVERT JUMPDEST POP POP POP POP PUSH4 0x150B7A02 PUSH1 0xE0 SHL SWAP2 POP POP SWAP6 SWAP5 POP POP POP POP POP JUMP JUMPDEST PUSH1 0x60 DUP1 PUSH1 0x60 DUP1 PUSH32 0x0 PUSH20 0xFFFFFFFFFFFFFFFFFFFFFFFFFFFFFFFFFFFFFFFF AND CALLER PUSH20 0xFFFFFFFFFFFFFFFFFFFFFFFFFFFFFFFFFFFFFFFF AND EQ PUSH2 0x218 JUMPI PUSH1 0x40 MLOAD PUSH32 0x4CA8886700000000000000000000000000000000000000000000000000000000 DUP2 MSTORE PUSH1 0x4 ADD PUSH1 0x40 MLOAD DUP1 SWAP2 SUB SWAP1 REVERT JUMPDEST PUSH0 PUSH0 PUSH0 DUP9 DUP9 DUP2 ADD SWAP1 PUSH2 0x22A SWAP2 SWAP1 PUSH2 0x805 JUMP JUMPDEST SWAP3 POP SWAP3 POP SWAP3 POP DUP3 PUSH20 0xFFFFFFFFFFFFFFFFFFFFFFFFFFFFFFFFFFFFFFFF AND PUSH4 0x23B872DD ADDRESS DUP5 DUP5 PUSH1 0x40 MLOAD DUP5 PUSH4 0xFFFFFFFF AND PUSH1 0xE0 SHL DUP2 MSTORE PUSH1 0x4 ADD PUSH2 0x26D SWAP4 SWAP3 SWAP2 SWAP1 PUSH2 0x855 JUMP JUMPDEST PUSH0 PUSH1 0x40 MLOAD DUP1 DUP4 SUB DUP2 PUSH0 DUP8 DUP1 EXTCODESIZE ISZERO DUP1 ISZERO PUSH2 0x284 JUMPI PUSH0 PUSH0 REVERT JUMPDEST POP GAS CALL ISZERO DUP1 ISZERO PUSH2 0x296 JUMPI RETURNDATASIZE PUSH0 PUSH0 RETURNDATACOPY RETURNDATASIZE PUSH0 REVERT JUMPDEST POP POP POP POP PUSH2 0x2A2 PUSH2 0x313 JUMP JUMPDEST PUSH2 0x2B6 PUSH2 0x2AF DUP6 DUP5 PUSH2 0x2FE JUMP JUMPDEST PUSH1 0x1 PUSH2 0x318 JUMP JUMPDEST PUSH2 0x2BE PUSH2 0x313 JUMP JUMPDEST PUSH2 0x2C6 PUSH2 0x313 JUMP JUMPDEST SWAP7 POP SWAP7 POP SWAP7 POP SWAP7 POP POP POP POP SWAP3 SWAP6 SWAP2 SWAP5 POP SWAP3 POP JUMP JUMPDEST PUSH32 0x0 DUP2 JUMP JUMPDEST PUSH0 DUP3 PUSH0 MSTORE DUP2 PUSH1 0x20 MSTORE PUSH1 0x34 PUSH1 0xC KECCAK256 SWAP1 POP SWAP3 SWAP2 POP POP JUMP JUMPDEST PUSH1 0x60 SWAP1 JUMP JUMPDEST PUSH1 0x60 PUSH1 0x40 MLOAD SWAP1 POP PUSH1 0x80 DUP2 ADD PUSH1 0x40 MSTORE PUSH1 0x40 DUP2 ADD PUSH1 0x1 DUP3 MSTORE DUP1 PUSH1 0x20 DUP4 ADD MSTORE DUP4 DUP2 MSTORE DUP3 PUSH1 0x60 DUP4 ADD MSTORE POP SWAP3 SWAP2 POP POP JUMP JUMPDEST PUSH0 PUSH0 REVERT JUMPDEST PUSH0 PUSH0 REVERT JUMPDEST PUSH0 PUSH20 0xFFFFFFFFFFFFFFFFFFFFFFFFFFFFFFFFFFFFFFFF DUP3 AND SWAP1 POP SWAP2 SWAP1 POP JUMP JUMPDEST PUSH0 PUSH2 0x375 DUP3 PUSH2 0x34C JUMP JUMPDEST SWAP1 POP SWAP2 SWAP1 POP JUMP JUMPDEST PUSH2 0x385 DUP2 PUSH2 0x36B JUMP JUMPDEST DUP2 EQ PUSH2 0x38F JUMPI PUSH0 PUSH0 REVERT JUMPDEST POP JUMP JUMPDEST PUSH0 DUP2 CALLDATALOAD SWAP1 POP PUSH2 0x3A0 DUP2 PUSH2 0x37C JUMP JUMPDEST SWAP3 SWAP2 POP POP JUMP JUMPDEST PUSH0 DUP2 SWAP1 POP SWAP2 SWAP1 POP JUMP JUMPDEST PUSH2 0x3B8 DUP2 PUSH2 0x3A6 JUMP JUMPDEST DUP2 EQ PUSH2 0x3C2 JUMPI PUSH0 PUSH0 REVERT JUMPDEST POP JUMP JUMPDEST PUSH0 DUP2 CALLDATALOAD SWAP1 POP PUSH2 0x3D3 DUP2 PUSH2 0x3AF JUMP JUMPDEST SWAP3 SWAP2 POP POP JUMP JUMPDEST PUSH0 PUSH0 REVERT JUMPDEST PUSH0 PUSH0 REVERT JUMPDEST PUSH0 PUSH0 REVERT JUMPDEST PUSH0 PUSH0 DUP4 PUSH1 0x1F DUP5 ADD SLT PUSH2 0x3FA JUMPI PUSH2 0x3F9 PUSH2 0x3D9 JUMP JUMPDEST JUMPDEST DUP3 CALLDATALOAD SWAP1 POP PUSH8 0xFFFFFFFFFFFFFFFF DUP2 GT ISZERO PUSH2 0x417 JUMPI PUSH2 0x416 PUSH2 0x3DD JUMP JUMPDEST JUMPDEST PUSH1 0x20 DUP4 ADD SWAP2 POP DUP4 PUSH1 0x1 DUP3 MUL DUP4 ADD GT ISZERO PUSH2 0x433 JUMPI PUSH2 0x432 PUSH2 0x3E1 JUMP JUMPDEST JUMPDEST SWAP3 POP SWAP3 SWAP1 POP JUMP JUMPDEST PUSH0 PUSH0 PUSH0 PUSH0 PUSH0 PUSH1 0x80 DUP7 DUP9 SUB SLT ISZERO PUSH2 0x453 JUMPI PUSH2 0x452 PUSH2 0x344 JUMP JUMPDEST JUMPDEST PUSH0 PUSH2 0x460 DUP9 DUP3 DUP10 ADD PUSH2 0x392 JUMP JUMPDEST SWAP6 POP POP PUSH1 0x20 PUSH2 0x471 DUP9 DUP3 DUP10 ADD PUSH2 0x392 JUMP JUMPDEST SWAP5 POP POP PUSH1 0x40 PUSH2 0x482 DUP9 DUP3 DUP10 ADD PUSH2 0x3C5 JUMP JUMPDEST SWAP4 POP POP PUSH1 0x60 DUP7 ADD CALLDATALOAD PUSH8 0xFFFFFFFFFFFFFFFF DUP2 GT ISZERO PUSH2 0x4A3 JUMPI PUSH2 0x4A2 PUSH2 0x348 JUMP JUMPDEST JUMPDEST PUSH2 0x4AF DUP9 DUP3 DUP10 ADD PUSH2 0x3E5 JUMP JUMPDEST SWAP3 POP SWAP3 POP POP SWAP3 SWAP6 POP SWAP3 SWAP6 SWAP1 SWAP4 POP JUMP JUMPDEST PUSH0 PUSH32 0xFFFFFFFF00000000000000000000000000000000000000000000000000000000 DUP3 AND SWAP1 POP SWAP2 SWAP1 POP JUMP JUMPDEST PUSH2 0x4F2 DUP2 PUSH2 0x4BE JUMP JUMPDEST DUP3 MSTORE POP POP JUMP JUMPDEST PUSH0 PUSH1 0x20 DUP3 ADD SWAP1 POP PUSH2 0x50B PUSH0 DUP4 ADD DUP5 PUSH2 0x4E9 JUMP JUMPDEST SWAP3 SWAP2 POP POP JUMP JUMPDEST PUSH0 PUSH0 PUSH1 0x20 DUP4 DUP6 SUB SLT ISZERO PUSH2 0x527 JUMPI PUSH2 0x526 PUSH2 0x344 JUMP JUMPDEST JUMPDEST PUSH0 DUP4 ADD CALLDATALOAD PUSH8 0xFFFFFFFFFFFFFFFF DUP2 GT ISZERO PUSH2 0x544 JUMPI PUSH2 0x543 PUSH2 0x348 JUMP JUMPDEST JUMPDEST PUSH2 0x550 DUP6 DUP3 DUP7 ADD PUSH2 0x3E5 JUMP JUMPDEST SWAP3 POP SWAP3 POP POP SWAP3 POP SWAP3 SWAP1 POP JUMP JUMPDEST PUSH0 DUP2 MLOAD SWAP1 POP SWAP2 SWAP1 POP JUMP JUMPDEST PUSH0 DUP3 DUP3 MSTORE PUSH1 0x20 DUP3 ADD SWAP1 POP SWAP3 SWAP2 POP POP JUMP JUMPDEST PUSH0 DUP2 SWAP1 POP PUSH1 0x20 DUP3 ADD SWAP1 POP SWAP2 SWAP1 POP JUMP JUMPDEST PUSH2 0x58E DUP2 PUSH2 0x3A6 JUMP JUMPDEST DUP3 MSTORE POP POP JUMP JUMPDEST PUSH1 0x40 DUP3 ADD PUSH0 DUP3 ADD MLOAD PUSH2 0x5A8 PUSH0 DUP6 ADD DUP3 PUSH2 0x585 JUMP JUMPDEST POP PUSH1 0x20 DUP3 ADD MLOAD PUSH2 0x5BB PUSH1 0x20 DUP6 ADD DUP3 PUSH2 0x585 JUMP JUMPDEST POP POP POP POP JUMP JUMPDEST PUSH0 PUSH2 0x5CC DUP4 DUP4 PUSH2 0x594 JUMP JUMPDEST PUSH1 0x40 DUP4 ADD SWAP1 POP SWAP3 SWAP2 POP POP JUMP JUMPDEST PUSH0 PUSH1 0x20 DUP3 ADD SWAP1 POP SWAP2 SWAP1 POP JUMP JUMPDEST PUSH0 PUSH2 0x5EE DUP3 PUSH2 0x55C JUMP JUMPDEST PUSH2 0x5F8 DUP2 DUP6 PUSH2 0x566 JUMP JUMPDEST SWAP4 POP PUSH2 0x603 DUP4 PUSH2 0x576 JUMP JUMPDEST DUP1 PUSH0 JUMPDEST DUP4 DUP2 LT ISZERO PUSH2 0x633 JUMPI DUP2 MLOAD PUSH2 0x61A DUP9 DUP3 PUSH2 0x5C1 JUMP JUMPDEST SWAP8 POP PUSH2 0x625 DUP4 PUSH2 0x5D8 JUMP JUMPDEST SWAP3 POP POP PUSH1 0x1 DUP2 ADD SWAP1 POP PUSH2 0x606 JUMP JUMPDEST POP DUP6 SWAP4 POP POP POP POP SWAP3 SWAP2 POP POP JUMP JUMPDEST PUSH0 PUSH1 0x80 DUP3 ADD SWAP1 POP DUP2 DUP2 SUB PUSH0 DUP4 ADD MSTORE PUSH2 0x658 DUP2 DUP8 PUSH2 0x5E4 JUMP JUMPDEST SWAP1 POP DUP2 DUP2 SUB PUSH1 0x20 DUP4 ADD MSTORE PUSH2 0x66C DUP2 DUP7 PUSH2 0x5E4 JUMP JUMPDEST SWAP1 POP DUP2 DUP2 SUB PUSH1 0x40 DUP4 ADD MSTORE PUSH2 0x680 DUP2 DUP6 PUSH2 0x5E4 JUMP JUMPDEST SWAP1 POP DUP2 DUP2 SUB PUSH1 0x60 DUP4 ADD MSTORE PUSH2 0x694 DUP2 DUP5 PUSH2 0x5E4 JUMP JUMPDEST SWAP1 POP SWAP6 SWAP5 POP POP POP POP POP JUMP JUMPDEST PUSH0 DUP2 SWAP1 POP SWAP2 SWAP1 POP JUMP JUMPDEST PUSH0 PUSH2 0x6C2 PUSH2 0x6BD PUSH2 0x6B8 DUP5 PUSH2 0x34C JUMP JUMPDEST PUSH2 0x69F JUMP JUMPDEST PUSH2 0x34C JUMP JUMPDEST SWAP1 POP SWAP2 SWAP1 POP JUMP JUMPDEST PUSH0 PUSH2 0x6D3 DUP3 PUSH2 0x6A8 JUMP JUMPDEST SWAP1 POP SWAP2 SWAP1 POP JUMP JUMPDEST PUSH0 PUSH2 0x6E4 DUP3 PUSH2 0x6C9 JUMP JUMPDEST SWAP1 POP SWAP2 SWAP1 POP JUMP JUMPDEST PUSH2 0x6F4 DUP2 PUSH2 0x6DA JUMP JUMPDEST DUP3 MSTORE POP POP JUMP JUMPDEST PUSH0 PUSH1 0x20 DUP3 ADD SWAP1 POP PUSH2 0x70D PUSH0 DUP4 ADD DUP5 PUSH2 0x6EB JUMP JUMPDEST SWAP3 SWAP2 POP POP JUMP JUMPDEST PUSH0 PUSH2 0x71D DUP3 PUSH2 0x34C JUMP JUMPDEST SWAP1 POP SWAP2 SWAP1 POP JUMP JUMPDEST PUSH2 0x72D DUP2 PUSH2 0x713 JUMP JUMPDEST DUP2 EQ PUSH2 0x737 JUMPI PUSH0 PUSH0 REVERT JUMPDEST POP JUMP JUMPDEST PUSH0 DUP2 CALLDATALOAD SWAP1 POP PUSH2 0x748 DUP2 PUSH2 0x724 JUMP JUMPDEST SWAP3 SWAP2 POP POP JUMP JUMPDEST PUSH0 PUSH1 0x20 DUP3 DUP5 SUB SLT ISZERO PUSH2 0x763 JUMPI PUSH2 0x762 PUSH2 0x344 JUMP JUMPDEST JUMPDEST PUSH0 PUSH2 0x770 DUP5 DUP3 DUP6 ADD PUSH2 0x73A JUMP JUMPDEST SWAP2 POP POP SWAP3 SWAP2 POP POP JUMP JUMPDEST PUSH2 0x782 DUP2 PUSH2 0x36B JUMP JUMPDEST DUP3 MSTORE POP POP JUMP JUMPDEST PUSH2 0x791 DUP2 PUSH2 0x3A6 JUMP JUMPDEST DUP3 MSTORE POP POP JUMP JUMPDEST PUSH0 DUP2 SWAP1 POP SWAP2 SWAP1 POP JUMP JUMPDEST PUSH0 PUSH2 0x7BA PUSH2 0x7B5 PUSH2 0x7B0 DUP5 PUSH2 0x797 JUMP JUMPDEST PUSH2 0x69F JUMP JUMPDEST PUSH2 0x3A6 JUMP JUMPDEST SWAP1 POP SWAP2 SWAP1 POP JUMP JUMPDEST PUSH2 0x7CA DUP2 PUSH2 0x7A0 JUMP JUMPDEST DUP3 MSTORE POP POP JUMP JUMPDEST PUSH0 PUSH1 0x60 DUP3 ADD SWAP1 POP PUSH2 0x7E3 PUSH0 DUP4 ADD DUP7 PUSH2 0x779 JUMP JUMPDEST PUSH2 0x7F0 PUSH1 0x20 DUP4 ADD DUP6 PUSH2 0x788 JUMP JUMPDEST PUSH2 0x7FD PUSH1 0x40 DUP4 ADD DUP5 PUSH2 0x7C1 JUMP JUMPDEST SWAP5 SWAP4 POP POP POP POP JUMP JUMPDEST PUSH0 PUSH0 PUSH0 PUSH1 0x60 DUP5 DUP7 SUB SLT ISZERO PUSH2 0x81C JUMPI PUSH2 0x81B PUSH2 0x344 JUMP JUMPDEST JUMPDEST PUSH0 PUSH2 0x829 DUP7 DUP3 DUP8 ADD PUSH2 0x73A JUMP JUMPDEST SWAP4 POP POP PUSH1 0x20 PUSH2 0x83A DUP7 DUP3 DUP8 ADD PUSH2 0x73A JUMP JUMPDEST SWAP3 POP POP PUSH1 0x40 PUSH2 0x84B DUP7 DUP3 DUP8 ADD PUSH2 0x3C5 JUMP JUMPDEST SWAP2 POP POP SWAP3 POP SWAP3 POP SWAP3 JUMP JUMPDEST PUSH0 PUSH1 0x60 DUP3 ADD SWAP1 POP PUSH2 0x868 PUSH0 DUP4 ADD DUP7 PUSH2 0x779 JUMP JUMPDEST PUSH2 0x875 PUSH1 0x20 DUP4 ADD DUP6 PUSH2 0x779 JUMP JUMPDEST PUSH2 0x882 PUSH1 0x40 DUP4 ADD DUP5 PUSH2 0x788 JUMP JUMPDEST SWAP5 SWAP4 POP POP POP POP JUMP INVALID LOG2 PUSH5 0x6970667358 0x22 SLT KECCAK256 SLT SLT 0xD1 0xB0 0xA7 TLOAD 0xCC 0xB8 SWAP15 0x2D TLOAD 0xEE CALLDATACOPY PUSH7 0xF619DCB4C0AFC6 0x26 0xBA 0xC2 EXTCODESIZE PUSH31 0xB1785D59177064736F6C634300081C00330000000000000000000000000000 "
		},
		"gasEstimates": {
			"creation": {
				"codeDepositCost": "448000",
				"executionCost": "infinite",
				"totalCost": "infinite"
			},
			"external": {
				"blueprintManager()": "infinite",
				"executeAction(bytes)": "infinite",
				"onERC721Received(address,address,uint256,bytes)": "infinite"
			}
		},
		"methodIdentifiers": {
			"blueprintManager()": "fabe109a",
			"executeAction(bytes)": "a129568d",
			"onERC721Received(address,address,uint256,bytes)": "150b7a02"
		}
	},
	"abi": [
		{
			"inputs": [
				{
					"internalType": "contract IBlueprintManager",
					"name": "manager",
					"type": "address"
				}
			],
			"stateMutability": "nonpayable",
			"type": "constructor"
		},
		{
			"inputs": [],
			"name": "AccessDenied",
			"type": "error"
		},
		{
			"inputs": [],
			"name": "blueprintManager",
			"outputs": [
				{
					"internalType": "contract IBlueprintManager",
					"name": "",
					"type": "address"
				}
			],
			"stateMutability": "view",
			"type": "function"
		},
		{
			"inputs": [
				{
					"internalType": "bytes",
					"name": "action",
					"type": "bytes"
				}
			],
			"name": "executeAction",
			"outputs": [
				{
					"components": [
						{
							"internalType": "uint256",
							"name": "tokenId",
							"type": "uint256"
						},
						{
							"internalType": "uint256",
							"name": "amount",
							"type": "uint256"
						}
					],
					"internalType": "struct TokenOp[]",
					"name": "",
					"type": "tuple[]"
				},
				{
					"components": [
						{
							"internalType": "uint256",
							"name": "tokenId",
							"type": "uint256"
						},
						{
							"internalType": "uint256",
							"name": "amount",
							"type": "uint256"
						}
					],
					"internalType": "struct TokenOp[]",
					"name": "",
					"type": "tuple[]"
				},
				{
					"components": [
						{
							"internalType": "uint256",
							"name": "tokenId",
							"type": "uint256"
						},
						{
							"internalType": "uint256",
							"name": "amount",
							"type": "uint256"
						}
					],
					"internalType": "struct TokenOp[]",
					"name": "",
					"type": "tuple[]"
				},
				{
					"components": [
						{
							"internalType": "uint256",
							"name": "tokenId",
							"type": "uint256"
						},
						{
							"internalType": "uint256",
							"name": "amount",
							"type": "uint256"
						}
					],
					"internalType": "struct TokenOp[]",
					"name": "",
					"type": "tuple[]"
				}
			],
			"stateMutability": "nonpayable",
			"type": "function"
		},
		{
			"inputs": [
				{
					"internalType": "address",
					"name": "",
					"type": "address"
				},
				{
					"internalType": "address",
					"name": "from",
					"type": "address"
				},
				{
					"internalType": "uint256",
					"name": "tokenId",
					"type": "uint256"
				},
				{
					"internalType": "bytes",
					"name": "data",
					"type": "bytes"
				}
			],
			"name": "onERC721Received",
			"outputs": [
				{
					"internalType": "bytes4",
					"name": "",
					"type": "bytes4"
				}
			],
			"stateMutability": "nonpayable",
			"type": "function"
		}
	]
}