{
	"data": {
		"bytecode": {
			"linkReferences": {},
			"object": "60a060405234801561000f575f5ffd5b50604051610b1e380380610b1e833981810160405281019061003191906100dc565b808073ffffffffffffffffffffffffffffffffffffffff1660808173ffffffffffffffffffffffffffffffffffffffff16815250505050610107565b5f5ffd5b5f73ffffffffffffffffffffffffffffffffffffffff82169050919050565b5f61009a82610071565b9050919050565b5f6100ab82610090565b9050919050565b6100bb816100a1565b81146100c5575f5ffd5b50565b5f815190506100d6816100b2565b92915050565b5f602082840312156100f1576100f061006d565b5b5f6100fe848285016100c8565b91505092915050565b6080516109f96101255f395f818160e001526103a301526109f95ff3fe608060405234801561000f575f5ffd5b506004361061003f575f3560e01c80638334278d14610043578063a129568d14610073578063fabe109a146100a6575b5f5ffd5b61005d60048036038101906100589190610468565b6100c4565b60405161006a91906104a2565b60405180910390f35b61008d6004803603810190610088919061051c565b6100d8565b60405161009d949392919061064b565b60405180910390f35b6100ae6103a1565b6040516100bb9190610724565b60405180910390f35b5f602052805f5260405f205f915090505481565b6060806060807f000000000000000000000000000000000000000000000000000000000000000073ffffffffffffffffffffffffffffffffffffffff163373ffffffffffffffffffffffffffffffffffffffff1614610163576040517f4ca8886700000000000000000000000000000000000000000000000000000000815260040160405180910390fd5b5f5f5f5f5f5f8b8b8101906101789190610772565b9550955095509550955095505f61018f87866103c5565b90505f61019c86866103f1565b905080866101aa9190610855565b81866101b69190610855565b80965081975050505f888810905080156101df578789809950819a505050858780975081985050505b5f5f60028b8b8b8b8b6040516020016101fc9594939291906108a5565b604051602081830303815290604052805190602001205f1c01915082610223576002610226565b60015b60ff16820390505f600267ffffffffffffffff81111561024957610248610903565b5b60405190808252806020026020018201604052801561028257816020015b61026f610415565b8152602001906001900390816102675790505b509050604051806040016040528084815260200186815250815f815181106102ad576102ac610930565b5b6020026020010181905250874210806102c35750865b156102fd57604051806040016040528083815260200186815250816001815181106102f1576102f0610930565b5b60200260200101819052505b861561032e57845f5f8481526020019081526020015f205f828254610322919061095d565b92505081905550610355565b845f5f8481526020019081526020015f205f82825461034d9190610990565b925050819055505b8661037157610362610410565b818761036c610410565b610384565b8061037a610410565b610382610410565b885b9f509f509f509f5050505050505050505050505092959194509250565b7f000000000000000000000000000000000000000000000000000000000000000081565b606060405190506080810160405260408101600182528060208301528381528260608301525092915050565b5f5b811561040857828293508281069250506103f3565b825f5260205ff35b606090565b60405180604001604052805f81526020015f81525090565b5f5ffd5b5f5ffd5b5f819050919050565b61044781610435565b8114610451575f5ffd5b50565b5f813590506104628161043e565b92915050565b5f6020828403121561047d5761047c61042d565b5b5f61048a84828501610454565b91505092915050565b61049c81610435565b82525050565b5f6020820190506104b55f830184610493565b92915050565b5f5ffd5b5f5ffd5b5f5ffd5b5f5f83601f8401126104dc576104db6104bb565b5b8235905067ffffffffffffffff8111156104f9576104f86104bf565b5b602083019150836001820283011115610515576105146104c3565b5b9250929050565b5f5f602083850312156105325761053161042d565b5b5f83013567ffffffffffffffff81111561054f5761054e610431565b5b61055b858286016104c7565b92509250509250929050565b5f81519050919050565b5f82825260208201905092915050565b5f819050602082019050919050565b61059981610435565b82525050565b604082015f8201516105b35f850182610590565b5060208201516105c66020850182610590565b50505050565b5f6105d7838361059f565b60408301905092915050565b5f602082019050919050565b5f6105f982610567565b6106038185610571565b935061060e83610581565b805f5b8381101561063e57815161062588826105cc565b9750610630836105e3565b925050600181019050610611565b5085935050505092915050565b5f6080820190508181035f83015261066381876105ef565b9050818103602083015261067781866105ef565b9050818103604083015261068b81856105ef565b9050818103606083015261069f81846105ef565b905095945050505050565b5f73ffffffffffffffffffffffffffffffffffffffff82169050919050565b5f819050919050565b5f6106ec6106e76106e2846106aa565b6106c9565b6106aa565b9050919050565b5f6106fd826106d2565b9050919050565b5f61070e826106f3565b9050919050565b61071e81610704565b82525050565b5f6020820190506107375f830184610715565b92915050565b5f8115159050919050565b6107518161073d565b811461075b575f5ffd5b50565b5f8135905061076c81610748565b92915050565b5f5f5f5f5f5f60c0878903121561078c5761078b61042d565b5b5f61079989828a01610454565b96505060206107aa89828a01610454565b95505060406107bb89828a01610454565b94505060606107cc89828a01610454565b93505060806107dd89828a01610454565b92505060a06107ee89828a0161075e565b9150509295509295509295565b7f4e487b71000000000000000000000000000000000000000000000000000000005f52601260045260245ffd5b7f4e487b71000000000000000000000000000000000000000000000000000000005f52601160045260245ffd5b5f61085f82610435565b915061086a83610435565b92508261087a576108796107fb565b5b828204905092915050565b5f819050919050565b61089f61089a82610435565b610885565b82525050565b5f6108b0828861088e565b6020820191506108c0828761088e565b6020820191506108d0828661088e565b6020820191506108e0828561088e565b6020820191506108f0828461088e565b6020820191508190509695505050505050565b7f4e487b71000000000000000000000000000000000000000000000000000000005f52604160045260245ffd5b7f4e487b71000000000000000000000000000000000000000000000000000000005f52603260045260245ffd5b5f61096782610435565b915061097283610435565b925082820190508082111561098a57610989610828565b5b92915050565b5f61099a82610435565b91506109a583610435565b92508282039050818111156109bd576109bc610828565b5b9291505056fea2646970667358221220a0e4bd390924e09ac59fb6570ab145315b300c655222dd4447e19487ea53a96564736f6c634300081c0033",
			"opcodes": "PUSH1 0xA0 PUSH1 0x40 MSTORE CALLVALUE DUP1 ISZERO PUSH2 0xF JUMPI PUSH0 PUSH0 REVERT JUMPDEST POP PUSH1 0x40 MLOAD PUSH2 0xB1E CODESIZE SUB DUP1 PUSH2 0xB1E DUP4 CODECOPY DUP2 DUP2 ADD PUSH1 0x40 MSTORE DUP2 ADD SWAP1 PUSH2 0x31 SWAP2 SWAP1 PUSH2 0xDC JUMP JUMPDEST DUP1 DUP1 PUSH20 0xFFFFFFFFFFFFFFFFFFFFFFFFFFFFFFFFFFFFFFFF AND PUSH1 0x80 DUP2 PUSH20 0xFFFFFFFFFFFFFFFFFFFFFFFFFFFFFFFFFFFFFFFF AND DUP2 MSTORE POP POP POP POP PUSH2 0x107 JUMP JUMPDEST PUSH0 PUSH0 REVERT JUMPDEST PUSH0 PUSH20 0xFFFFFFFFFFFFFFFFFFFFFFFFFFFFFFFFFFFFFFFF DUP3 AND SWAP1 POP SWAP2 SWAP1 POP JUMP JUMPDEST PUSH0 PUSH2 0x9A DUP3 PUSH2 0x71 JUMP JUMPDEST SWAP1 POP SWAP2 SWAP1 POP JUMP JUMPDEST PUSH0 PUSH2 0xAB DUP3 PUSH2 0x90 JUMP JUMPDEST SWAP1 POP SWAP2 SWAP1 POP JUMP JUMPDEST PUSH2 0xBB DUP2 PUSH2 0xA1 JUMP JUMPDEST DUP2 EQ PUSH2 0xC5 JUMPI PUSH0 PUSH0 REVERT JUMPDEST POP JUMP JUMPDEST PUSH0 DUP2 MLOAD SWAP1 POP PUSH2 0xD6 DUP2 PUSH2 0xB2 JUMP JUMPDEST SWAP3 SWAP2 POP POP JUMP JUMPDEST PUSH0 PUSH1 0x20 DUP3 DUP5 SUB SLT ISZERO PUSH2 0xF1 JUMPI PUSH2 0xF0 PUSH2 0x6D JUMP JUMPDEST JUMPDEST PUSH0 PUSH2 0xFE DUP5 DUP3 DUP6 ADD PUSH2 0xC8 JUMP JUMPDEST SWAP2 POP POP SWAP3 SWAP2 POP POP JUMP JUMPDEST PUSH1 0x80 MLOAD PUSH2 0x9F9 PUSH2 0x125 PUSH0 CODECOPY PUSH0 DUP2 DUP2 PUSH1 0xE0 ADD MSTORE PUSH2 0x3A3 ADD MSTORE PUSH2 0x9F9 PUSH0 RETURN INVALID PUSH1 0x80 PUSH1 0x40 MSTORE CALLVALUE DUP1 ISZERO PUSH2 0xF JUMPI PUSH0 PUSH0 REVERT JUMPDEST POP PUSH1 0x4 CALLDATASIZE LT PUSH2 0x3F JUMPI PUSH0 CALLDATALOAD PUSH1 0xE0 SHR DUP1 PUSH4 0x8334278D EQ PUSH2 0x43 JUMPI DUP1 PUSH4 0xA129568D EQ PUSH2 0x73 JUMPI DUP1 PUSH4 0xFABE109A EQ PUSH2 0xA6 JUMPI JUMPDEST PUSH0 PUSH0 REVERT JUMPDEST PUSH2 0x5D PUSH1 0x4 DUP1 CALLDATASIZE SUB DUP2 ADD SWAP1 PUSH2 0x58 SWAP2 SWAP1 PUSH2 0x468 JUMP JUMPDEST PUSH2 0xC4 JUMP JUMPDEST PUSH1 0x40 MLOAD PUSH2 0x6A SWAP2 SWAP1 PUSH2 0x4A2 JUMP JUMPDEST PUSH1 0x40 MLOAD DUP1 SWAP2 SUB SWAP1 RETURN JUMPDEST PUSH2 0x8D PUSH1 0x4 DUP1 CALLDATASIZE SUB DUP2 ADD SWAP1 PUSH2 0x88 SWAP2 SWAP1 PUSH2 0x51C JUMP JUMPDEST PUSH2 0xD8 JUMP JUMPDEST PUSH1 0x40 MLOAD PUSH2 0x9D SWAP5 SWAP4 SWAP3 SWAP2 SWAP1 PUSH2 0x64B JUMP JUMPDEST PUSH1 0x40 MLOAD DUP1 SWAP2 SUB SWAP1 RETURN JUMPDEST PUSH2 0xAE PUSH2 0x3A1 JUMP JUMPDEST PUSH1 0x40 MLOAD PUSH2 0xBB SWAP2 SWAP1 PUSH2 0x724 JUMP JUMPDEST PUSH1 0x40 MLOAD DUP1 SWAP2 SUB SWAP1 RETURN JUMPDEST PUSH0 PUSH1 0x20 MSTORE DUP1 PUSH0 MSTORE PUSH1 0x40 PUSH0 KECCAK256 PUSH0 SWAP2 POP SWAP1 POP SLOAD DUP2 JUMP JUMPDEST PUSH1 0x60 DUP1 PUSH1 0x60 DUP1 PUSH32 0x0 PUSH20 0xFFFFFFFFFFFFFFFFFFFFFFFFFFFFFFFFFFFFFFFF AND CALLER PUSH20 0xFFFFFFFFFFFFFFFFFFFFFFFFFFFFFFFFFFFFFFFF AND EQ PUSH2 0x163 JUMPI PUSH1 0x40 MLOAD PUSH32 0x4CA8886700000000000000000000000000000000000000000000000000000000 DUP2 MSTORE PUSH1 0x4 ADD PUSH1 0x40 MLOAD DUP1 SWAP2 SUB SWAP1 REVERT JUMPDEST PUSH0 PUSH0 PUSH0 PUSH0 PUSH0 PUSH0 DUP12 DUP12 DUP2 ADD SWAP1 PUSH2 0x178 SWAP2 SWAP1 PUSH2 0x772 JUMP JUMPDEST SWAP6 POP SWAP6 POP SWAP6 POP SWAP6 POP SWAP6 POP SWAP6 POP PUSH0 PUSH2 0x18F DUP8 DUP7 PUSH2 0x3C5 JUMP JUMPDEST SWAP1 POP PUSH0 PUSH2 0x19C DUP7 DUP7 PUSH2 0x3F1 JUMP JUMPDEST SWAP1 POP DUP1 DUP7 PUSH2 0x1AA SWAP2 SWAP1 PUSH2 0x855 JUMP JUMPDEST DUP2 DUP7 PUSH2 0x1B6 SWAP2 SWAP1 PUSH2 0x855 JUMP JUMPDEST DUP1 SWAP7 POP DUP2 SWAP8 POP POP POP PUSH0 DUP9 DUP9 LT SWAP1 POP DUP1 ISZERO PUSH2 0x1DF JUMPI DUP8 DUP10 DUP1 SWAP10 POP DUP2 SWAP11 POP POP POP DUP6 DUP8 DUP1 SWAP8 POP DUP2 SWAP9 POP POP POP JUMPDEST PUSH0 PUSH0 PUSH1 0x2 DUP12 DUP12 DUP12 DUP12 DUP12 PUSH1 0x40 MLOAD PUSH1 0x20 ADD PUSH2 0x1FC SWAP6 SWAP5 SWAP4 SWAP3 SWAP2 SWAP1 PUSH2 0x8A5 JUMP JUMPDEST PUSH1 0x40 MLOAD PUSH1 0x20 DUP2 DUP4 SUB SUB DUP2 MSTORE SWAP1 PUSH1 0x40 MSTORE DUP1 MLOAD SWAP1 PUSH1 0x20 ADD KECCAK256 PUSH0 SHR ADD SWAP2 POP DUP3 PUSH2 0x223 JUMPI PUSH1 0x2 PUSH2 0x226 JUMP JUMPDEST PUSH1 0x1 JUMPDEST PUSH1 0xFF AND DUP3 SUB SWAP1 POP PUSH0 PUSH1 0x2 PUSH8 0xFFFFFFFFFFFFFFFF DUP2 GT ISZERO PUSH2 0x249 JUMPI PUSH2 0x248 PUSH2 0x903 JUMP JUMPDEST JUMPDEST PUSH1 0x40 MLOAD SWAP1 DUP1 DUP3 MSTORE DUP1 PUSH1 0x20 MUL PUSH1 0x20 ADD DUP3 ADD PUSH1 0x40 MSTORE DUP1 ISZERO PUSH2 0x282 JUMPI DUP2 PUSH1 0x20 ADD JUMPDEST PUSH2 0x26F PUSH2 0x415 JUMP JUMPDEST DUP2 MSTORE PUSH1 0x20 ADD SWAP1 PUSH1 0x1 SWAP1 SUB SWAP1 DUP2 PUSH2 0x267 JUMPI SWAP1 POP JUMPDEST POP SWAP1 POP PUSH1 0x40 MLOAD DUP1 PUSH1 0x40 ADD PUSH1 0x40 MSTORE DUP1 DUP5 DUP2 MSTORE PUSH1 0x20 ADD DUP7 DUP2 MSTORE POP DUP2 PUSH0 DUP2 MLOAD DUP2 LT PUSH2 0x2AD JUMPI PUSH2 0x2AC PUSH2 0x930 JUMP JUMPDEST JUMPDEST PUSH1 0x20 MUL PUSH1 0x20 ADD ADD DUP2 SWAP1 MSTORE POP DUP8 TIMESTAMP LT DUP1 PUSH2 0x2C3 JUMPI POP DUP7 JUMPDEST ISZERO PUSH2 0x2FD JUMPI PUSH1 0x40 MLOAD DUP1 PUSH1 0x40 ADD PUSH1 0x40 MSTORE DUP1 DUP4 DUP2 MSTORE PUSH1 0x20 ADD DUP7 DUP2 MSTORE POP DUP2 PUSH1 0x1 DUP2 MLOAD DUP2 LT PUSH2 0x2F1 JUMPI PUSH2 0x2F0 PUSH2 0x930 JUMP JUMPDEST JUMPDEST PUSH1 0x20 MUL PUSH1 0x20 ADD ADD DUP2 SWAP1 MSTORE POP JUMPDEST DUP7 ISZERO PUSH2 0x32E JUMPI DUP5 PUSH0 PUSH0 DUP5 DUP2 MSTORE PUSH1 0x20 ADD SWAP1 DUP2 MSTORE PUSH1 0x20 ADD PUSH0 KECCAK256 PUSH0 DUP3 DUP3 SLOAD PUSH2 0x322 SWAP2 SWAP1 PUSH2 0x95D JUMP JUMPDEST SWAP3 POP POP DUP2 SWAP1 SSTORE POP PUSH2 0x355 JUMP JUMPDEST DUP5 PUSH0 PUSH0 DUP5 DUP2 MSTORE PUSH1 0x20 ADD SWAP1 DUP2 MSTORE PUSH1 0x20 ADD PUSH0 KECCAK256 PUSH0 DUP3 DUP3 SLOAD PUSH2 0x34D SWAP2 SWAP1 PUSH2 0x990 JUMP JUMPDEST SWAP3 POP POP DUP2 SWAP1 SSTORE POP JUMPDEST DUP7 PUSH2 0x371 JUMPI PUSH2 0x362 PUSH2 0x410 JUMP JUMPDEST DUP2 DUP8 PUSH2 0x36C PUSH2 0x410 JUMP JUMPDEST PUSH2 0x384 JUMP JUMPDEST DUP1 PUSH2 0x37A PUSH2 0x410 JUMP JUMPDEST PUSH2 0x382 PUSH2 0x410 JUMP JUMPDEST DUP9 JUMPDEST SWAP16 POP SWAP16 POP SWAP16 POP SWAP16 POP POP POP POP POP POP POP POP POP POP POP POP POP SWAP3 SWAP6 SWAP2 SWAP5 POP SWAP3 POP JUMP JUMPDEST PUSH32 0x0 DUP2 JUMP JUMPDEST PUSH1 0x60 PUSH1 0x40 MLOAD SWAP1 POP PUSH1 0x80 DUP2 ADD PUSH1 0x40 MSTORE PUSH1 0x40 DUP2 ADD PUSH1 0x1 DUP3 MSTORE DUP1 PUSH1 0x20 DUP4 ADD MSTORE DUP4 DUP2 MSTORE DUP3 PUSH1 0x60 DUP4 ADD MSTORE POP SWAP3 SWAP2 POP POP JUMP JUMPDEST PUSH0 JUMPDEST DUP2 ISZERO PUSH2 0x408 JUMPI DUP3 DUP3 SWAP4 POP DUP3 DUP2 MOD SWAP3 POP POP PUSH2 0x3F3 JUMP JUMPDEST DUP3 PUSH0 MSTORE PUSH1 0x20 PUSH0 RETURN JUMPDEST PUSH1 0x60 SWAP1 JUMP JUMPDEST PUSH1 0x40 MLOAD DUP1 PUSH1 0x40 ADD PUSH1 0x40 MSTORE DUP1 PUSH0 DUP2 MSTORE PUSH1 0x20 ADD PUSH0 DUP2 MSTORE POP SWAP1 JUMP JUMPDEST PUSH0 PUSH0 REVERT JUMPDEST PUSH0 PUSH0 REVERT JUMPDEST PUSH0 DUP2 SWAP1 POP SWAP2 SWAP1 POP JUMP JUMPDEST PUSH2 0x447 DUP2 PUSH2 0x435 JUMP JUMPDEST DUP2 EQ PUSH2 0x451 JUMPI PUSH0 PUSH0 REVERT JUMPDEST POP JUMP JUMPDEST PUSH0 DUP2 CALLDATALOAD SWAP1 POP PUSH2 0x462 DUP2 PUSH2 0x43E JUMP JUMPDEST SWAP3 SWAP2 POP POP JUMP JUMPDEST PUSH0 PUSH1 0x20 DUP3 DUP5 SUB SLT ISZERO PUSH2 0x47D JUMPI PUSH2 0x47C PUSH2 0x42D JUMP JUMPDEST JUMPDEST PUSH0 PUSH2 0x48A DUP5 DUP3 DUP6 ADD PUSH2 0x454 JUMP JUMPDEST SWAP2 POP POP SWAP3 SWAP2 POP POP JUMP JUMPDEST PUSH2 0x49C DUP2 PUSH2 0x435 JUMP JUMPDEST DUP3 MSTORE POP POP JUMP JUMPDEST PUSH0 PUSH1 0x20 DUP3 ADD SWAP1 POP PUSH2 0x4B5 PUSH0 DUP4 ADD DUP5 PUSH2 0x493 JUMP JUMPDEST SWAP3 SWAP2 POP POP JUMP JUMPDEST PUSH0 PUSH0 REVERT JUMPDEST PUSH0 PUSH0 REVERT JUMPDEST PUSH0 PUSH0 REVERT JUMPDEST PUSH0 PUSH0 DUP4 PUSH1 0x1F DUP5 ADD SLT PUSH2 0x4DC JUMPI PUSH2 0x4DB PUSH2 0x4BB JUMP JUMPDEST JUMPDEST DUP3 CALLDATALOAD SWAP1 POP PUSH8 0xFFFFFFFFFFFFFFFF DUP2 GT ISZERO PUSH2 0x4F9 JUMPI PUSH2 0x4F8 PUSH2 0x4BF JUMP JUMPDEST JUMPDEST PUSH1 0x20 DUP4 ADD SWAP2 POP DUP4 PUSH1 0x1 DUP3 MUL DUP4 ADD GT ISZERO PUSH2 0x515 JUMPI PUSH2 0x514 PUSH2 0x4C3 JUMP JUMPDEST JUMPDEST SWAP3 POP SWAP3 SWAP1 POP JUMP JUMPDEST PUSH0 PUSH0 PUSH1 0x20 DUP4 DUP6 SUB SLT ISZERO PUSH2 0x532 JUMPI PUSH2 0x531 PUSH2 0x42D JUMP JUMPDEST JUMPDEST PUSH0 DUP4 ADD CALLDATALOAD PUSH8 0xFFFFFFFFFFFFFFFF DUP2 GT ISZERO PUSH2 0x54F JUMPI PUSH2 0x54E PUSH2 0x431 JUMP JUMPDEST JUMPDEST PUSH2 0x55B DUP6 DUP3 DUP7 ADD PUSH2 0x4C7 JUMP JUMPDEST SWAP3 POP SWAP3 POP POP SWAP3 POP SWAP3 SWAP1 POP JUMP JUMPDEST PUSH0 DUP2 MLOAD SWAP1 POP SWAP2 SWAP1 POP JUMP JUMPDEST PUSH0 DUP3 DUP3 MSTORE PUSH1 0x20 DUP3 ADD SWAP1 POP SWAP3 SWAP2 POP POP JUMP JUMPDEST PUSH0 DUP2 SWAP1 POP PUSH1 0x20 DUP3 ADD SWAP1 POP SWAP2 SWAP1 POP JUMP JUMPDEST PUSH2 0x599 DUP2 PUSH2 0x435 JUMP JUMPDEST DUP3 MSTORE POP POP JUMP JUMPDEST PUSH1 0x40 DUP3 ADD PUSH0 DUP3 ADD MLOAD PUSH2 0x5B3 PUSH0 DUP6 ADD DUP3 PUSH2 0x590 JUMP JUMPDEST POP PUSH1 0x20 DUP3 ADD MLOAD PUSH2 0x5C6 PUSH1 0x20 DUP6 ADD DUP3 PUSH2 0x590 JUMP JUMPDEST POP POP POP POP JUMP JUMPDEST PUSH0 PUSH2 0x5D7 DUP4 DUP4 PUSH2 0x59F JUMP JUMPDEST PUSH1 0x40 DUP4 ADD SWAP1 POP SWAP3 SWAP2 POP POP JUMP JUMPDEST PUSH0 PUSH1 0x20 DUP3 ADD SWAP1 POP SWAP2 SWAP1 POP JUMP JUMPDEST PUSH0 PUSH2 0x5F9 DUP3 PUSH2 0x567 JUMP JUMPDEST PUSH2 0x603 DUP2 DUP6 PUSH2 0x571 JUMP JUMPDEST SWAP4 POP PUSH2 0x60E DUP4 PUSH2 0x581 JUMP JUMPDEST DUP1 PUSH0 JUMPDEST DUP4 DUP2 LT ISZERO PUSH2 0x63E JUMPI DUP2 MLOAD PUSH2 0x625 DUP9 DUP3 PUSH2 0x5CC JUMP JUMPDEST SWAP8 POP PUSH2 0x630 DUP4 PUSH2 0x5E3 JUMP JUMPDEST SWAP3 POP POP PUSH1 0x1 DUP2 ADD SWAP1 POP PUSH2 0x611 JUMP JUMPDEST POP DUP6 SWAP4 POP POP POP POP SWAP3 SWAP2 POP POP JUMP JUMPDEST PUSH0 PUSH1 0x80 DUP3 ADD SWAP1 POP DUP2 DUP2 SUB PUSH0 DUP4 ADD MSTORE PUSH2 0x663 DUP2 DUP8 PUSH2 0x5EF JUMP JUMPDEST SWAP1 POP DUP2 DUP2 SUB PUSH1 0x20 DUP4 ADD MSTORE PUSH2 0x677 DUP2 DUP7 PUSH2 0x5EF JUMP JUMPDEST SWAP1 POP DUP2 DUP2 SUB PUSH1 0x40 DUP4 ADD MSTORE PUSH2 0x68B DUP2 DUP6 PUSH2 0x5EF JUMP JUMPDEST SWAP1 POP DUP2 DUP2 SUB PUSH1 0x60 DUP4 ADD MSTORE PUSH2 0x69F DUP2 DUP5 PUSH2 0x5EF JUMP JUMPDEST SWAP1 POP SWAP6 SWAP5 POP POP POP POP POP JUMP JUMPDEST PUSH0 PUSH20 0xFFFFFFFFFFFFFFFFFFFFFFFFFFFFFFFFFFFFFFFF DUP3 AND SWAP1 POP SWAP2 SWAP1 POP JUMP JUMPDEST PUSH0 DUP2 SWAP1 POP SWAP2 SWAP1 POP JUMP JUMPDEST PUSH0 PUSH2 0x6EC PUSH2 0x6E7 PUSH2 0x6E2 DUP5 PUSH2 0x6AA JUMP JUMPDEST PUSH2 0x6C9 JUMP JUMPDEST PUSH2 0x6AA JUMP JUMPDEST SWAP1 POP SWAP2 SWAP1 POP JUMP JUMPDEST PUSH0 PUSH2 0x6FD DUP3 PUSH2 0x6D2 JUMP JUMPDEST SWAP1 POP SWAP2 SWAP1 POP JUMP JUMPDEST PUSH0 PUSH2 0x70E DUP3 PUSH2 0x6F3 JUMP JUMPDEST SWAP1 POP SWAP2 SWAP1 POP JUMP JUMPDEST PUSH2 0x71E DUP2 PUSH2 0x704 JUMP JUMPDEST DUP3 MSTORE POP POP JUMP JUMPDEST PUSH0 PUSH1 0x20 DUP3 ADD SWAP1 POP PUSH2 0x737 PUSH0 DUP4 ADD DUP5 PUSH2 0x715 JUMP JUMPDEST SWAP3 SWAP2 POP POP JUMP JUMPDEST PUSH0 DUP2 ISZERO ISZERO SWAP1 POP SWAP2 SWAP1 POP JUMP JUMPDEST PUSH2 0x751 DUP2 PUSH2 0x73D JUMP JUMPDEST DUP2 EQ PUSH2 0x75B JUMPI PUSH0 PUSH0 REVERT JUMPDEST POP JUMP JUMPDEST PUSH0 DUP2 CALLDATALOAD SWAP1 POP PUSH2 0x76C DUP2 PUSH2 0x748 JUMP JUMPDEST SWAP3 SWAP2 POP POP JUMP JUMPDEST PUSH0 PUSH0 PUSH0 PUSH0 PUSH0 PUSH0 PUSH1 0xC0 DUP8 DUP10 SUB SLT ISZERO PUSH2 0x78C JUMPI PUSH2 0x78B PUSH2 0x42D JUMP JUMPDEST JUMPDEST PUSH0 PUSH2 0x799 DUP10 DUP3 DUP11 ADD PUSH2 0x454 JUMP JUMPDEST SWAP7 POP POP PUSH1 0x20 PUSH2 0x7AA DUP10 DUP3 DUP11 ADD PUSH2 0x454 JUMP JUMPDEST SWAP6 POP POP PUSH1 0x40 PUSH2 0x7BB DUP10 DUP3 DUP11 ADD PUSH2 0x454 JUMP JUMPDEST SWAP5 POP POP PUSH1 0x60 PUSH2 0x7CC DUP10 DUP3 DUP11 ADD PUSH2 0x454 JUMP JUMPDEST SWAP4 POP POP PUSH1 0x80 PUSH2 0x7DD DUP10 DUP3 DUP11 ADD PUSH2 0x454 JUMP JUMPDEST SWAP3 POP POP PUSH1 0xA0 PUSH2 0x7EE DUP10 DUP3 DUP11 ADD PUSH2 0x75E JUMP JUMPDEST SWAP2 POP POP SWAP3 SWAP6 POP SWAP3 SWAP6 POP SWAP3 SWAP6 JUMP JUMPDEST PUSH32 0x4E487B7100000000000000000000000000000000000000000000000000000000 PUSH0 MSTORE PUSH1 0x12 PUSH1 0x4 MSTORE PUSH1 0x24 PUSH0 REVERT JUMPDEST PUSH32 0x4E487B7100000000000000000000000000000000000000000000000000000000 PUSH0 MSTORE PUSH1 0x11 PUSH1 0x4 MSTORE PUSH1 0x24 PUSH0 REVERT JUMPDEST PUSH0 PUSH2 0x85F DUP3 PUSH2 0x435 JUMP JUMPDEST SWAP2 POP PUSH2 0x86A DUP4 PUSH2 0x435 JUMP JUMPDEST SWAP3 POP DUP3 PUSH2 0x87A JUMPI PUSH2 0x879 PUSH2 0x7FB JUMP JUMPDEST JUMPDEST DUP3 DUP3 DIV SWAP1 POP SWAP3 SWAP2 POP POP JUMP JUMPDEST PUSH0 DUP2 SWAP1 POP SWAP2 SWAP1 POP JUMP JUMPDEST PUSH2 0x89F PUSH2 0x89A DUP3 PUSH2 0x435 JUMP JUMPDEST PUSH2 0x885 JUMP JUMPDEST DUP3 MSTORE POP POP JUMP JUMPDEST PUSH0 PUSH2 0x8B0 DUP3 DUP9 PUSH2 0x88E JUMP JUMPDEST PUSH1 0x20 DUP3 ADD SWAP2 POP PUSH2 0x8C0 DUP3 DUP8 PUSH2 0x88E JUMP JUMPDEST PUSH1 0x20 DUP3 ADD SWAP2 POP PUSH2 0x8D0 DUP3 DUP7 PUSH2 0x88E JUMP JUMPDEST PUSH1 0x20 DUP3 ADD SWAP2 POP PUSH2 0x8E0 DUP3 DUP6 PUSH2 0x88E JUMP JUMPDEST PUSH1 0x20 DUP3 ADD SWAP2 POP PUSH2 0x8F0 DUP3 DUP5 PUSH2 0x88E JUMP JUMPDEST PUSH1 0x20 DUP3 ADD SWAP2 POP DUP2 SWAP1 POP SWAP7 SWAP6 POP POP POP POP POP POP JUMP JUMPDEST PUSH32 0x4E487B7100000000000000000000000000000000000000000000000000000000 PUSH0 MSTORE PUSH1 0x41 PUSH1 0x4 MSTORE PUSH1 0x24 PUSH0 REVERT JUMPDEST PUSH32 0x4E487B7100000000000000000000000000000000000000000000000000000000 PUSH0 MSTORE PUSH1 0x32 PUSH1 0x4 MSTORE PUSH1 0x24 PUSH0 REVERT JUMPDEST PUSH0 PUSH2 0x967 DUP3 PUSH2 0x435 JUMP JUMPDEST SWAP2 POP PUSH2 0x972 DUP4 PUSH2 0x435 JUMP JUMPDEST SWAP3 POP DUP3 DUP3 ADD SWAP1 POP DUP1 DUP3 GT ISZERO PUSH2 0x98A JUMPI PUSH2 0x989 PUSH2 0x828 JUMP JUMPDEST JUMPDEST SWAP3 SWAP2 POP POP JUMP JUMPDEST PUSH0 PUSH2 0x99A DUP3 PUSH2 0x435 JUMP JUMPDEST SWAP2 POP PUSH2 0x9A5 DUP4 PUSH2 0x435 JUMP JUMPDEST SWAP3 POP DUP3 DUP3 SUB SWAP1 POP DUP2 DUP2 GT ISZERO PUSH2 0x9BD JUMPI PUSH2 0x9BC PUSH2 0x828 JUMP JUMPDEST JUMPDEST SWAP3 SWAP2 POP POP JUMP INVALID LOG2 PUSH5 0x6970667358 0x22 SLT KECCAK256 LOG0 0xE4 0xBD CODECOPY MULMOD 0x24 0xE0 SWAP11 0xC5 SWAP16 0xB6 JUMPI EXP 0xB1 GASLIMIT BALANCE JUMPDEST ADDRESS 0xC PUSH6 0x5222DD4447E1 SWAP5 DUP8 0xEA MSTORE8 0xA9 PUSH6 0x64736F6C6343 STOP ADDMOD SHR STOP CALLER "
		},
		"gasEstimates": {
			"creation": {
				"codeDepositCost": "510600",
				"executionCost": "infinite",
				"totalCost": "infinite"
			},
			"external": {
				"blueprintManager()": "infinite",
				"executeAction(bytes)": "infinite",
				"reserves(uint256)": "infinite"
			}
		},
		"methodIdentifiers": {
			"blueprintManager()": "fabe109a",
			"executeAction(bytes)": "a129568d",
			"reserves(uint256)": "8334278d"
		}
	},
	"abi": [
		{
			"inputs": [
				{
					"internalType": "contract IBlueprintManager",
					"name": "manager",
					"type": "address"
				}
			],
			"stateMutability": "nonpayable",
			"type": "constructor"
		},
		{
			"inputs": [],
			"name": "AccessDenied",
			"type": "error"
		},
		{
			"inputs": [],
			"name": "blueprintManager",
			"outputs": [
				{
					"internalType": "contract IBlueprintManager",
					"name": "",
					"type": "address"
				}
			],
			"stateMutability": "view",
			"type": "function"
		},
		{
			"inputs": [
				{
					"internalType": "bytes",
					"name": "action",
					"type": "bytes"
				}
			],
			"name": "executeAction",
			"outputs": [
				{
					"components": [
						{
							"internalType": "uint256",
							"name": "tokenId",
							"type": "uint256"
						},
						{
							"internalType": "uint256",
							"name": "amount",
							"type": "uint256"
						}
					],
					"internalType": "struct TokenOp[]",
					"name": "",
					"type": "tuple[]"
				},
				{
					"components": [
						{
							"internalType": "uint256",
							"name": "tokenId",
							"type": "uint256"
						},
						{
							"internalType": "uint256",
							"name": "amount",
							"type": "uint256"
						}
					],
					"internalType": "struct TokenOp[]",
					"name": "",
					"type": "tuple[]"
				},
				{
					"components": [
						{
							"internalType": "uint256",
							"name": "tokenId",
							"type": "uint256"
						},
						{
							"internalType": "uint256",
							"name": "amount",
							"type": "uint256"
						}
					],
					"internalType": "struct TokenOp[]",
					"name": "",
					"type": "tuple[]"
				},
				{
					"components": [
						{
							"internalType": "uint256",
							"name": "tokenId",
							"type": "uint256"
						},
						{
							"internalType": "uint256",
							"name": "amount",
							"type": "uint256"
						}
					],
					"internalType": "struct TokenOp[]",
					"name": "",
					"type": "tuple[]"
				}
			],
			"stateMutability": "nonpayable",
			"type": "function"
		},
		{
			"inputs": [
				{
					"internalType": "uint256",
					"name": "baseId",
					"type": "uint256"
				}
			],
			"name": "reserves",
			"outputs": [
				{
					"internalType": "uint256",
					"name": "count",
					"type": "uint256"
				}
			],
			"stateMutability": "view",
			"type": "function"
		}
	]
}