{
	"src/blueprints/BasketBlueprint.sol": {
		"BasketBlueprint": {
			"abi": [
				{
					"inputs": [
						{
							"internalType": "contract IBlueprintManager",
							"name": "manager",
							"type": "address"
						}
					],
					"stateMutability": "nonpayable",
					"type": "constructor"
				},
				{
					"inputs": [],
					"name": "AccessDenied",
					"type": "error"
				},
				{
					"inputs": [],
					"name": "LengthsMisaligned",
					"type": "error"
				},
				{
					"inputs": [],
					"name": "ZeroAmount",
					"type": "error"
				},
				{
					"inputs": [],
					"name": "ZeroLength",
					"type": "error"
				},
				{
					"inputs": [],
					"name": "blueprintManager",
					"outputs": [
						{
							"internalType": "contract IBlueprintManager",
							"name": "",
							"type": "address"
						}
					],
					"stateMutability": "view",
					"type": "function"
				},
				{
					"inputs": [
						{
							"internalType": "bytes",
							"name": "action",
							"type": "bytes"
						}
					],
					"name": "executeAction",
					"outputs": [
						{
							"components": [
								{
									"internalType": "uint256",
									"name": "tokenId",
									"type": "uint256"
								},
								{
									"internalType": "uint256",
									"name": "amount",
									"type": "uint256"
								}
							],
							"internalType": "struct TokenOp[]",
							"name": "",
							"type": "tuple[]"
						},
						{
							"components": [
								{
									"internalType": "uint256",
									"name": "tokenId",
									"type": "uint256"
								},
								{
									"internalType": "uint256",
									"name": "amount",
									"type": "uint256"
								}
							],
							"internalType": "struct TokenOp[]",
							"name": "",
							"type": "tuple[]"
						},
						{
							"components": [
								{
									"internalType": "uint256",
									"name": "tokenId",
									"type": "uint256"
								},
								{
									"internalType": "uint256",
									"name": "amount",
									"type": "uint256"
								}
							],
							"internalType": "struct TokenOp[]",
							"name": "",
							"type": "tuple[]"
						},
						{
							"components": [
								{
									"internalType": "uint256",
									"name": "tokenId",
									"type": "uint256"
								},
								{
									"internalType": "uint256",
									"name": "amount",
									"type": "uint256"
								}
							],
							"internalType": "struct TokenOp[]",
							"name": "",
							"type": "tuple[]"
						}
					],
					"stateMutability": "pure",
					"type": "function"
				}
			],
			"devdoc": {
				"kind": "dev",
				"methods": {
					"executeAction(bytes)": {
						"params": {
							"action": "a description of the action being taken"
						}
					}
				},
				"version": 1
			},
			"evm": {
				"assembly": "    /* \"src/blueprints/BasketBlueprint.sol\":189:2615  contract BasketBlueprint is BasicBlueprint {... */\n  mstore(0x40, 0xa0)\n    /* \"src/blueprints/BasketBlueprint.sol\":318:383  constructor(IBlueprintManager manager) BasicBlueprint(manager) {} */\n  callvalue\n  dup1\n  iszero\n  tag_1\n  jumpi\n  revert(0x00, 0x00)\ntag_1:\n  pop\n  mload(0x40)\n  sub(codesize, bytecodeSize)\n  dup1\n  bytecodeSize\n  dup4\n  codecopy\n  dup2\n  dup2\n  add\n  0x40\n  mstore\n  dup2\n  add\n  swap1\n  tag_2\n  swap2\n  swap1\n  tag_3\n  jump\t// in\ntag_2:\n    /* \"src/blueprints/BasketBlueprint.sol\":372:379  manager */\n  dup1\n    /* \"src/blueprints/BasicBlueprint.sol\":403:420  _blueprintManager */\n  dup1\n    /* \"src/blueprints/BasicBlueprint.sol\":384:420  blueprintManager = _blueprintManager */\n  0xffffffffffffffffffffffffffffffffffffffff\n  and\n  0x80\n  dup2\n  0xffffffffffffffffffffffffffffffffffffffff\n  and\n  dup2\n  mstore\n  pop\n  pop\n    /* \"src/blueprints/BasicBlueprint.sol\":331:424  constructor(IBlueprintManager _blueprintManager) {... */\n  pop\n    /* \"src/blueprints/BasketBlueprint.sol\":318:383  constructor(IBlueprintManager manager) BasicBlueprint(manager) {} */\n  pop\n    /* \"src/blueprints/BasketBlueprint.sol\":189:2615  contract BasketBlueprint is BasicBlueprint {... */\n  jump(tag_8)\n    /* \"#utility.yul\":88:205   */\ntag_10:\n    /* \"#utility.yul\":197:198   */\n  0x00\n    /* \"#utility.yul\":194:195   */\n  0x00\n    /* \"#utility.yul\":187:199   */\n  revert\n    /* \"#utility.yul\":334:460   */\ntag_12:\n    /* \"#utility.yul\":371:378   */\n  0x00\n    /* \"#utility.yul\":411:453   */\n  0xffffffffffffffffffffffffffffffffffffffff\n    /* \"#utility.yul\":404:409   */\n  dup3\n    /* \"#utility.yul\":400:454   */\n  and\n    /* \"#utility.yul\":389:454   */\n  swap1\n  pop\n    /* \"#utility.yul\":334:460   */\n  swap2\n  swap1\n  pop\n  jump\t// out\n    /* \"#utility.yul\":466:562   */\ntag_13:\n    /* \"#utility.yul\":503:510   */\n  0x00\n    /* \"#utility.yul\":532:556   */\n  tag_23\n    /* \"#utility.yul\":550:555   */\n  dup3\n    /* \"#utility.yul\":532:556   */\n  tag_12\n  jump\t// in\ntag_23:\n    /* \"#utility.yul\":521:556   */\n  swap1\n  pop\n    /* \"#utility.yul\":466:562   */\n  swap2\n  swap1\n  pop\n  jump\t// out\n    /* \"#utility.yul\":568:689   */\ntag_14:\n    /* \"#utility.yul\":630:637   */\n  0x00\n    /* \"#utility.yul\":659:683   */\n  tag_25\n    /* \"#utility.yul\":677:682   */\n  dup3\n    /* \"#utility.yul\":659:683   */\n  tag_13\n  jump\t// in\ntag_25:\n    /* \"#utility.yul\":648:683   */\n  swap1\n  pop\n    /* \"#utility.yul\":568:689   */\n  swap2\n  swap1\n  pop\n  jump\t// out\n    /* \"#utility.yul\":695:867   */\ntag_15:\n    /* \"#utility.yul\":793:842   */\n  tag_27\n    /* \"#utility.yul\":836:841   */\n  dup2\n    /* \"#utility.yul\":793:842   */\n  tag_14\n  jump\t// in\ntag_27:\n    /* \"#utility.yul\":786:791   */\n  dup2\n    /* \"#utility.yul\":783:843   */\n  eq\n    /* \"#utility.yul\":773:861   */\n  tag_28\n  jumpi\n    /* \"#utility.yul\":857:858   */\n  0x00\n    /* \"#utility.yul\":854:855   */\n  0x00\n    /* \"#utility.yul\":847:859   */\n  revert\n    /* \"#utility.yul\":773:861   */\ntag_28:\n    /* \"#utility.yul\":695:867   */\n  pop\n  jump\t// out\n    /* \"#utility.yul\":873:1066   */\ntag_16:\n    /* \"#utility.yul\":955:960   */\n  0x00\n    /* \"#utility.yul\":986:992   */\n  dup2\n    /* \"#utility.yul\":980:993   */\n  mload\n    /* \"#utility.yul\":971:993   */\n  swap1\n  pop\n    /* \"#utility.yul\":1002:1060   */\n  tag_30\n    /* \"#utility.yul\":1054:1059   */\n  dup2\n    /* \"#utility.yul\":1002:1060   */\n  tag_15\n  jump\t// in\ntag_30:\n    /* \"#utility.yul\":873:1066   */\n  swap3\n  swap2\n  pop\n  pop\n  jump\t// out\n    /* \"#utility.yul\":1072:1473   */\ntag_3:\n    /* \"#utility.yul\":1167:1173   */\n  0x00\n    /* \"#utility.yul\":1216:1218   */\n  0x20\n    /* \"#utility.yul\":1204:1213   */\n  dup3\n    /* \"#utility.yul\":1195:1202   */\n  dup5\n    /* \"#utility.yul\":1191:1214   */\n  sub\n    /* \"#utility.yul\":1187:1219   */\n  slt\n    /* \"#utility.yul\":1184:1303   */\n  iszero\n  tag_32\n  jumpi\n    /* \"#utility.yul\":1222:1301   */\n  tag_33\n  tag_10\n  jump\t// in\ntag_33:\n    /* \"#utility.yul\":1184:1303   */\ntag_32:\n    /* \"#utility.yul\":1342:1343   */\n  0x00\n    /* \"#utility.yul\":1367:1456   */\n  tag_34\n    /* \"#utility.yul\":1448:1455   */\n  dup5\n    /* \"#utility.yul\":1439:1445   */\n  dup3\n    /* \"#utility.yul\":1428:1437   */\n  dup6\n    /* \"#utility.yul\":1424:1446   */\n  add\n    /* \"#utility.yul\":1367:1456   */\n  tag_16\n  jump\t// in\ntag_34:\n    /* \"#utility.yul\":1357:1456   */\n  swap2\n  pop\n    /* \"#utility.yul\":1313:1466   */\n  pop\n    /* \"#utility.yul\":1072:1473   */\n  swap3\n  swap2\n  pop\n  pop\n  jump\t// out\n    /* \"src/blueprints/BasketBlueprint.sol\":189:2615  contract BasketBlueprint is BasicBlueprint {... */\ntag_8:\n  mload(0x80)\n  codecopy(0x00, dataOffset(sub_0), dataSize(sub_0))\n  0x00\n  assignImmutable(\"0x7880aec93413f117ef14bd4e6d130875ab2c7d7d55a064fac3c2f7bd51516380\")\n  return(0x00, dataSize(sub_0))\nstop\n\nsub_0: assembly {\n        /* \"src/blueprints/BasketBlueprint.sol\":189:2615  contract BasketBlueprint is BasicBlueprint {... */\n      mstore(0x40, 0x80)\n      callvalue\n      dup1\n      iszero\n      tag_1\n      jumpi\n      revert(0x00, 0x00)\n    tag_1:\n      pop\n      jumpi(tag_2, lt(calldatasize, 0x04))\n      shr(0xe0, calldataload(0x00))\n      dup1\n      0xa129568d\n      eq\n      tag_3\n      jumpi\n      dup1\n      0xfabe109a\n      eq\n      tag_4\n      jumpi\n    tag_2:\n      revert(0x00, 0x00)\n        /* \"src/blueprints/BasketBlueprint.sol\":461:2613  function executeAction(bytes calldata action)... */\n    tag_3:\n      tag_5\n      0x04\n      dup1\n      calldatasize\n      sub\n      dup2\n      add\n      swap1\n      tag_6\n      swap2\n      swap1\n      tag_7\n      jump\t// in\n    tag_6:\n      tag_8\n      jump\t// in\n    tag_5:\n      mload(0x40)\n      tag_9\n      swap5\n      swap4\n      swap3\n      swap2\n      swap1\n      tag_10\n      jump\t// in\n    tag_9:\n      mload(0x40)\n      dup1\n      swap2\n      sub\n      swap1\n      return\n        /* \"src/blueprints/BasicBlueprint.sol\":252:303  IBlueprintManager immutable public blueprintManager */\n    tag_4:\n      tag_11\n      tag_12\n      jump\t// in\n    tag_11:\n      mload(0x40)\n      tag_13\n      swap2\n      swap1\n      tag_14\n      jump\t// in\n    tag_13:\n      mload(0x40)\n      dup1\n      swap2\n      sub\n      swap1\n      return\n        /* \"src/blueprints/BasketBlueprint.sol\":461:2613  function executeAction(bytes calldata action)... */\n    tag_8:\n        /* \"src/blueprints/BasketBlueprint.sol\":567:583  TokenOp[] memory */\n      0x60\n        /* \"src/blueprints/BasketBlueprint.sol\":606:622  TokenOp[] memory */\n      dup1\n        /* \"src/blueprints/BasketBlueprint.sol\":645:661  TokenOp[] memory */\n      0x60\n        /* \"src/blueprints/BasketBlueprint.sol\":684:700  TokenOp[] memory */\n      dup1\n        /* \"src/blueprints/BasketBlueprint.sol\":1053:1062  bool wrap */\n      0x00\n        /* \"src/blueprints/BasketBlueprint.sol\":1064:1084  uint256[] memory ids */\n      0x00\n        /* \"src/blueprints/BasketBlueprint.sol\":1086:1110  uint256[] memory amounts */\n      0x00\n        /* \"src/blueprints/BasketBlueprint.sol\":1138:1144  action */\n      dup9\n      dup9\n        /* \"src/blueprints/BasketBlueprint.sol\":1114:1175  abi... */\n      dup2\n      add\n      swap1\n      tag_16\n      swap2\n      swap1\n      tag_17\n      jump\t// in\n    tag_16:\n        /* \"src/blueprints/BasketBlueprint.sol\":1052:1175  (bool wrap, uint256[] memory ids, uint256[] memory amounts) = abi... */\n      swap3\n      pop\n      swap3\n      pop\n      swap3\n      pop\n        /* \"src/blueprints/BasketBlueprint.sol\":1186:1197  uint256 len */\n      0x00\n        /* \"src/blueprints/BasketBlueprint.sol\":1200:1203  ids */\n      dup3\n        /* \"src/blueprints/BasketBlueprint.sol\":1200:1210  ids.length */\n      mload\n        /* \"src/blueprints/BasketBlueprint.sol\":1186:1210  uint256 len = ids.length */\n      swap1\n      pop\n        /* \"src/blueprints/BasketBlueprint.sol\":1346:1353  amounts */\n      dup2\n        /* \"src/blueprints/BasketBlueprint.sol\":1340:1354  mload(amounts) */\n      mload\n        /* \"src/blueprints/BasketBlueprint.sol\":1456:1469  amountsLength */\n      dup1\n        /* \"src/blueprints/BasketBlueprint.sol\":1451:1454  len */\n      dup3\n        /* \"src/blueprints/BasketBlueprint.sol\":1448:1470  eq(len, amountsLength) */\n      eq\n        /* \"src/blueprints/BasketBlueprint.sol\":1438:1599  if iszero(eq(len, amountsLength)) {... */\n      tag_18\n      jumpi\n        /* \"src/blueprints/BasketBlueprint.sol\":1503:1513  0x219c0e17 */\n      0x219c0e17\n        /* \"src/blueprints/BasketBlueprint.sol\":1497:1501  0x00 */\n      0x00\n        /* \"src/blueprints/BasketBlueprint.sol\":1490:1514  mstore(0x00, 0x219c0e17) */\n      mstore\n        /* \"src/blueprints/BasketBlueprint.sol\":1580:1584  0x04 */\n      0x04\n        /* \"src/blueprints/BasketBlueprint.sol\":1574:1578  0x00 */\n      0x00\n        /* \"src/blueprints/BasketBlueprint.sol\":1567:1585  revert(0x00, 0x04) */\n      revert\n        /* \"src/blueprints/BasketBlueprint.sol\":1438:1599  if iszero(eq(len, amountsLength)) {... */\n    tag_18:\n        /* \"src/blueprints/BasketBlueprint.sol\":1694:1697  len */\n      dup2\n        /* \"src/blueprints/BasketBlueprint.sol\":1684:1819  if iszero(len) {... */\n      tag_19\n      jumpi\n        /* \"src/blueprints/BasketBlueprint.sol\":1730:1740  0x947d5a84 */\n      0x947d5a84\n        /* \"src/blueprints/BasketBlueprint.sol\":1724:1728  0x00 */\n      0x00\n        /* \"src/blueprints/BasketBlueprint.sol\":1717:1741  mstore(0x00, 0x947d5a84) */\n      mstore\n        /* \"src/blueprints/BasketBlueprint.sol\":1800:1804  0x04 */\n      0x04\n        /* \"src/blueprints/BasketBlueprint.sol\":1794:1798  0x00 */\n      0x00\n        /* \"src/blueprints/BasketBlueprint.sol\":1787:1805  revert(0x00, 0x04) */\n      revert\n        /* \"src/blueprints/BasketBlueprint.sol\":1684:1819  if iszero(len) {... */\n    tag_19:\n        /* \"src/blueprints/BasketBlueprint.sol\":1229:1829  {... */\n      pop\n        /* \"src/blueprints/BasketBlueprint.sol\":1839:1864  TokenOp[] memory giveTake */\n      0x00\n        /* \"src/blueprints/BasketBlueprint.sol\":1881:1884  len */\n      dup2\n        /* \"src/blueprints/BasketBlueprint.sol\":1867:1885  new TokenOp[](len) */\n      0xffffffffffffffff\n      dup2\n      gt\n      iszero\n      tag_20\n      jumpi\n      tag_21\n      tag_22\n      jump\t// in\n    tag_21:\n    tag_20:\n      mload(0x40)\n      swap1\n      dup1\n      dup3\n      mstore\n      dup1\n      0x20\n      mul\n      0x20\n      add\n      dup3\n      add\n      0x40\n      mstore\n      dup1\n      iszero\n      tag_23\n      jumpi\n      dup2\n      0x20\n      add\n    tag_24:\n      tag_25\n      tag_26\n      jump\t// in\n    tag_25:\n      dup2\n      mstore\n      0x20\n      add\n      swap1\n      0x01\n      swap1\n      sub\n      swap1\n      dup2\n      tag_24\n      jumpi\n      swap1\n      pop\n    tag_23:\n      pop\n        /* \"src/blueprints/BasketBlueprint.sol\":1839:1885  TokenOp[] memory giveTake = new TokenOp[](len) */\n      swap1\n      pop\n        /* \"src/blueprints/BasketBlueprint.sol\":1895:1909  uint256 basket */\n      0x00\n        /* \"src/blueprints/BasketBlueprint.sol\":1912:1913  0 */\n      0x00\n        /* \"src/blueprints/BasketBlueprint.sol\":1895:1913  uint256 basket = 0 */\n      swap1\n      pop\n        /* \"src/blueprints/BasketBlueprint.sol\":1928:1937  uint256 i */\n      0x00\n        /* \"src/blueprints/BasketBlueprint.sol\":1940:1941  0 */\n      0x00\n        /* \"src/blueprints/BasketBlueprint.sol\":1928:1941  uint256 i = 0 */\n      swap1\n      pop\n        /* \"src/blueprints/BasketBlueprint.sol\":1923:2152  for (uint256 i = 0; i < len; i++) {... */\n    tag_27:\n        /* \"src/blueprints/BasketBlueprint.sol\":1947:1950  len */\n      dup4\n        /* \"src/blueprints/BasketBlueprint.sol\":1943:1944  i */\n      dup2\n        /* \"src/blueprints/BasketBlueprint.sol\":1943:1950  i < len */\n      lt\n        /* \"src/blueprints/BasketBlueprint.sol\":1923:2152  for (uint256 i = 0; i < len; i++) {... */\n      iszero\n      tag_28\n      jumpi\n        /* \"src/blueprints/BasketBlueprint.sol\":1971:1985  uint256 amount */\n      0x00\n        /* \"src/blueprints/BasketBlueprint.sol\":1988:1995  amounts */\n      dup6\n        /* \"src/blueprints/BasketBlueprint.sol\":1996:1997  i */\n      dup3\n        /* \"src/blueprints/BasketBlueprint.sol\":1988:1998  amounts[i] */\n      dup2\n      mload\n      dup2\n      lt\n      tag_30\n      jumpi\n      tag_31\n      tag_32\n      jump\t// in\n    tag_31:\n    tag_30:\n      0x20\n      mul\n      0x20\n      add\n      add\n      mload\n        /* \"src/blueprints/BasketBlueprint.sol\":1971:1998  uint256 amount = amounts[i] */\n      swap1\n      pop\n        /* \"src/blueprints/BasketBlueprint.sol\":2026:2027  0 */\n      0x00\n        /* \"src/blueprints/BasketBlueprint.sol\":2016:2022  amount */\n      dup2\n        /* \"src/blueprints/BasketBlueprint.sol\":2016:2027  amount == 0 */\n      sub\n        /* \"src/blueprints/BasketBlueprint.sol\":2012:2048  if (amount == 0) revert ZeroAmount() */\n      tag_33\n      jumpi\n        /* \"src/blueprints/BasketBlueprint.sol\":2036:2048  ZeroAmount() */\n      mload(0x40)\n      0x1f2a200500000000000000000000000000000000000000000000000000000000\n      dup2\n      mstore\n      0x04\n      add\n      mload(0x40)\n      dup1\n      swap2\n      sub\n      swap1\n      revert\n        /* \"src/blueprints/BasketBlueprint.sol\":2012:2048  if (amount == 0) revert ZeroAmount() */\n    tag_33:\n        /* \"src/blueprints/BasketBlueprint.sol\":2076:2099  TokenOp(ids[i], amount) */\n      mload(0x40)\n      dup1\n      0x40\n      add\n      0x40\n      mstore\n      dup1\n        /* \"src/blueprints/BasketBlueprint.sol\":2084:2087  ids */\n      dup9\n        /* \"src/blueprints/BasketBlueprint.sol\":2088:2089  i */\n      dup5\n        /* \"src/blueprints/BasketBlueprint.sol\":2084:2090  ids[i] */\n      dup2\n      mload\n      dup2\n      lt\n      tag_34\n      jumpi\n      tag_35\n      tag_32\n      jump\t// in\n    tag_35:\n    tag_34:\n      0x20\n      mul\n      0x20\n      add\n      add\n      mload\n        /* \"src/blueprints/BasketBlueprint.sol\":2076:2099  TokenOp(ids[i], amount) */\n      dup2\n      mstore\n      0x20\n      add\n        /* \"src/blueprints/BasketBlueprint.sol\":2092:2098  amount */\n      dup3\n        /* \"src/blueprints/BasketBlueprint.sol\":2076:2099  TokenOp(ids[i], amount) */\n      dup2\n      mstore\n      pop\n        /* \"src/blueprints/BasketBlueprint.sol\":2062:2070  giveTake */\n      dup5\n        /* \"src/blueprints/BasketBlueprint.sol\":2071:2072  i */\n      dup4\n        /* \"src/blueprints/BasketBlueprint.sol\":2062:2073  giveTake[i] */\n      dup2\n      mload\n      dup2\n      lt\n      tag_36\n      jumpi\n      tag_37\n      tag_32\n      jump\t// in\n    tag_37:\n    tag_36:\n      0x20\n      mul\n      0x20\n      add\n      add\n        /* \"src/blueprints/BasketBlueprint.sol\":2062:2099  giveTake[i] = TokenOp(ids[i], amount) */\n      dup2\n      swap1\n      mstore\n      pop\n        /* \"src/blueprints/BasketBlueprint.sol\":2122:2141  gcd(basket, amount) */\n      tag_38\n        /* \"src/blueprints/BasketBlueprint.sol\":2126:2132  basket */\n      dup4\n        /* \"src/blueprints/BasketBlueprint.sol\":2134:2140  amount */\n      dup3\n        /* \"src/blueprints/BasketBlueprint.sol\":2122:2125  gcd */\n      tag_39\n        /* \"src/blueprints/BasketBlueprint.sol\":2122:2141  gcd(basket, amount) */\n      jump\t// in\n    tag_38:\n        /* \"src/blueprints/BasketBlueprint.sol\":2113:2141  basket = gcd(basket, amount) */\n      swap3\n      pop\n        /* \"src/blueprints/BasketBlueprint.sol\":1957:2152  {... */\n      pop\n        /* \"src/blueprints/BasketBlueprint.sol\":1952:1955  i++ */\n      dup1\n      dup1\n      0x01\n      add\n      swap2\n      pop\n      pop\n        /* \"src/blueprints/BasketBlueprint.sol\":1923:2152  for (uint256 i = 0; i < len; i++) {... */\n      jump(tag_27)\n    tag_28:\n      pop\n        /* \"src/blueprints/BasketBlueprint.sol\":2167:2176  uint256 i */\n      0x00\n        /* \"src/blueprints/BasketBlueprint.sol\":2179:2180  0 */\n      0x00\n        /* \"src/blueprints/BasketBlueprint.sol\":2167:2180  uint256 i = 0 */\n      swap1\n      pop\n        /* \"src/blueprints/BasketBlueprint.sol\":2162:2216  for (uint256 i = 0; i < len; i++) amounts[i] /= basket */\n    tag_40:\n        /* \"src/blueprints/BasketBlueprint.sol\":2186:2189  len */\n      dup4\n        /* \"src/blueprints/BasketBlueprint.sol\":2182:2183  i */\n      dup2\n        /* \"src/blueprints/BasketBlueprint.sol\":2182:2189  i < len */\n      lt\n        /* \"src/blueprints/BasketBlueprint.sol\":2162:2216  for (uint256 i = 0; i < len; i++) amounts[i] /= basket */\n      iszero\n      tag_41\n      jumpi\n        /* \"src/blueprints/BasketBlueprint.sol\":2210:2216  basket */\n      dup2\n        /* \"src/blueprints/BasketBlueprint.sol\":2196:2203  amounts */\n      dup6\n        /* \"src/blueprints/BasketBlueprint.sol\":2204:2205  i */\n      dup3\n        /* \"src/blueprints/BasketBlueprint.sol\":2196:2206  amounts[i] */\n      dup2\n      mload\n      dup2\n      lt\n      tag_43\n      jumpi\n      tag_44\n      tag_32\n      jump\t// in\n    tag_44:\n    tag_43:\n      0x20\n      mul\n      0x20\n      add\n      add\n        /* \"src/blueprints/BasketBlueprint.sol\":2196:2216  amounts[i] /= basket */\n      dup2\n      dup2\n      mload\n      tag_45\n      swap2\n      swap1\n      tag_46\n      jump\t// in\n    tag_45:\n      swap2\n      pop\n      dup2\n      dup2\n      mstore\n      pop\n      pop\n        /* \"src/blueprints/BasketBlueprint.sol\":2191:2194  i++ */\n      dup1\n      dup1\n      0x01\n      add\n      swap2\n      pop\n      pop\n        /* \"src/blueprints/BasketBlueprint.sol\":2162:2216  for (uint256 i = 0; i < len; i++) amounts[i] /= basket */\n      jump(tag_40)\n    tag_41:\n      pop\n        /* \"src/blueprints/BasketBlueprint.sol\":2332:2342  uint256 id */\n      0x00\n        /* \"src/blueprints/BasketBlueprint.sol\":2380:2383  ids */\n      dup6\n        /* \"src/blueprints/BasketBlueprint.sol\":2385:2392  amounts */\n      dup6\n        /* \"src/blueprints/BasketBlueprint.sol\":2363:2393  abi.encodePacked(ids, amounts) */\n      add(0x20, mload(0x40))\n      tag_47\n      swap3\n      swap2\n      swap1\n      tag_48\n      jump\t// in\n    tag_47:\n      mload(0x40)\n      0x20\n      dup2\n      dup4\n      sub\n      sub\n      dup2\n      mstore\n      swap1\n      0x40\n      mstore\n        /* \"src/blueprints/BasketBlueprint.sol\":2353:2394  keccak256(abi.encodePacked(ids, amounts)) */\n      dup1\n      mload\n      swap1\n      0x20\n      add\n      keccak256\n        /* \"src/blueprints/BasketBlueprint.sol\":2345:2395  uint256(keccak256(abi.encodePacked(ids, amounts))) */\n      0x00\n      shr\n        /* \"src/blueprints/BasketBlueprint.sol\":2332:2395  uint256 id = uint256(keccak256(abi.encodePacked(ids, amounts))) */\n      swap1\n      pop\n        /* \"src/blueprints/BasketBlueprint.sol\":2405:2430  TokenOp[] memory mintBurn */\n      0x00\n        /* \"src/blueprints/BasketBlueprint.sol\":2433:2462  oneOperationArray(id, basket) */\n      tag_49\n        /* \"src/blueprints/BasketBlueprint.sol\":2451:2453  id */\n      dup3\n        /* \"src/blueprints/BasketBlueprint.sol\":2455:2461  basket */\n      dup5\n        /* \"src/blueprints/BasketBlueprint.sol\":2433:2450  oneOperationArray */\n      tag_50\n        /* \"src/blueprints/BasketBlueprint.sol\":2433:2462  oneOperationArray(id, basket) */\n      jump\t// in\n    tag_49:\n        /* \"src/blueprints/BasketBlueprint.sol\":2405:2462  TokenOp[] memory mintBurn = oneOperationArray(id, basket) */\n      swap1\n      pop\n        /* \"src/blueprints/BasketBlueprint.sol\":2492:2496  wrap */\n      dup8\n        /* \"src/blueprints/BasketBlueprint.sol\":2492:2606  wrap... */\n      tag_51\n      jumpi\n        /* \"src/blueprints/BasketBlueprint.sol\":2571:2577  zero() */\n      tag_52\n        /* \"src/blueprints/BasketBlueprint.sol\":2571:2575  zero */\n      tag_53\n        /* \"src/blueprints/BasketBlueprint.sol\":2571:2577  zero() */\n      jump\t// in\n    tag_52:\n        /* \"src/blueprints/BasketBlueprint.sol\":2579:2587  mintBurn */\n      dup2\n        /* \"src/blueprints/BasketBlueprint.sol\":2589:2597  giveTake */\n      dup6\n        /* \"src/blueprints/BasketBlueprint.sol\":2599:2605  zero() */\n      tag_54\n        /* \"src/blueprints/BasketBlueprint.sol\":2599:2603  zero */\n      tag_53\n        /* \"src/blueprints/BasketBlueprint.sol\":2599:2605  zero() */\n      jump\t// in\n    tag_54:\n        /* \"src/blueprints/BasketBlueprint.sol\":2492:2606  wrap... */\n      jump(tag_55)\n    tag_51:\n        /* \"src/blueprints/BasketBlueprint.sol\":2516:2524  mintBurn */\n      dup1\n        /* \"src/blueprints/BasketBlueprint.sol\":2526:2532  zero() */\n      tag_56\n        /* \"src/blueprints/BasketBlueprint.sol\":2526:2530  zero */\n      tag_53\n        /* \"src/blueprints/BasketBlueprint.sol\":2526:2532  zero() */\n      jump\t// in\n    tag_56:\n        /* \"src/blueprints/BasketBlueprint.sol\":2534:2540  zero() */\n      tag_57\n        /* \"src/blueprints/BasketBlueprint.sol\":2534:2538  zero */\n      tag_53\n        /* \"src/blueprints/BasketBlueprint.sol\":2534:2540  zero() */\n      jump\t// in\n    tag_57:\n        /* \"src/blueprints/BasketBlueprint.sol\":2542:2550  giveTake */\n      dup7\n        /* \"src/blueprints/BasketBlueprint.sol\":2492:2606  wrap... */\n    tag_55:\n        /* \"src/blueprints/BasketBlueprint.sol\":2473:2606  return... */\n      swap12\n      pop\n      swap12\n      pop\n      swap12\n      pop\n      swap12\n      pop\n      pop\n      pop\n      pop\n      pop\n      pop\n      pop\n      pop\n      pop\n        /* \"src/blueprints/BasketBlueprint.sol\":461:2613  function executeAction(bytes calldata action)... */\n      swap3\n      swap6\n      swap2\n      swap5\n      pop\n      swap3\n      pop\n      jump\t// out\n        /* \"src/blueprints/BasicBlueprint.sol\":252:303  IBlueprintManager immutable public blueprintManager */\n    tag_12:\n      immutable(\"0x7880aec93413f117ef14bd4e6d130875ab2c7d7d55a064fac3c2f7bd51516380\")\n      dup2\n      jump\t// out\n        /* \"src/libraries/Math.sol\":81:335  function gcd(uint256 a, uint256 b) pure returns (uint256) {... */\n    tag_39:\n        /* \"src/libraries/Math.sol\":130:137  uint256 */\n      0x00\n        /* \"src/libraries/Math.sol\":164:278  for {} iszero(iszero(b)) {} {... */\n    tag_59:\n        /* \"src/libraries/Math.sol\":185:186  b */\n      dup2\n        /* \"src/libraries/Math.sol\":178:187  iszero(b) */\n      iszero\n        /* \"src/libraries/Math.sol\":164:278  for {} iszero(iszero(b)) {} {... */\n      tag_61\n      jumpi\n        /* \"src/libraries/Math.sol\":218:219  a */\n      dup3\n        /* \"src/libraries/Math.sol\":237:238  b */\n      dup3\n        /* \"src/libraries/Math.sol\":232:238  a := b */\n      swap4\n      pop\n        /* \"src/libraries/Math.sol\":266:267  b */\n      dup3\n        /* \"src/libraries/Math.sol\":260:264  temp */\n      dup2\n        /* \"src/libraries/Math.sol\":256:268  mod(temp, b) */\n      mod\n        /* \"src/libraries/Math.sol\":251:268  b := mod(temp, b) */\n      swap3\n      pop\n        /* \"src/libraries/Math.sol\":192:278  {... */\n      pop\n        /* \"src/libraries/Math.sol\":164:278  for {} iszero(iszero(b)) {} {... */\n      jump(tag_59)\n    tag_61:\n        /* \"src/libraries/Math.sol\":299:300  a */\n      dup3\n        /* \"src/libraries/Math.sol\":294:297  0x0 */\n      0x00\n        /* \"src/libraries/Math.sol\":287:301  mstore(0x0, a) */\n      mstore\n        /* \"src/libraries/Math.sol\":322:326  0x20 */\n      0x20\n        /* \"src/libraries/Math.sol\":317:320  0x0 */\n      0x00\n        /* \"src/libraries/Math.sol\":310:327  return(0x0, 0x20) */\n      return\n        /* \"src/blueprints/BasicBlueprint.sol\":648:1007  function oneOperationArray(... */\n    tag_50:\n        /* \"src/blueprints/BasicBlueprint.sol\":738:758  TokenOp[] memory res */\n      0x60\n        /* \"src/blueprints/BasicBlueprint.sol\":807:811  0x40 */\n      0x40\n        /* \"src/blueprints/BasicBlueprint.sol\":801:812  mload(0x40) */\n      mload\n        /* \"src/blueprints/BasicBlueprint.sol\":794:812  res := mload(0x40) */\n      swap1\n      pop\n        /* \"src/blueprints/BasicBlueprint.sol\":838:842  0x80 */\n      0x80\n        /* \"src/blueprints/BasicBlueprint.sol\":833:836  res */\n      dup2\n        /* \"src/blueprints/BasicBlueprint.sol\":829:843  add(res, 0x80) */\n      add\n        /* \"src/blueprints/BasicBlueprint.sol\":823:827  0x40 */\n      0x40\n        /* \"src/blueprints/BasicBlueprint.sol\":816:844  mstore(0x40, add(res, 0x80)) */\n      mstore\n        /* \"src/blueprints/BasicBlueprint.sol\":875:879  0x40 */\n      0x40\n        /* \"src/blueprints/BasicBlueprint.sol\":870:873  res */\n      dup2\n        /* \"src/blueprints/BasicBlueprint.sol\":866:880  add(res, 0x40) */\n      add\n        /* \"src/blueprints/BasicBlueprint.sol\":897:898  1 */\n      0x01\n        /* \"src/blueprints/BasicBlueprint.sol\":892:895  res */\n      dup3\n        /* \"src/blueprints/BasicBlueprint.sol\":885:899  mstore(res, 1) */\n      mstore\n        /* \"src/blueprints/BasicBlueprint.sol\":926:935  structPtr */\n      dup1\n        /* \"src/blueprints/BasicBlueprint.sol\":919:923  0x20 */\n      0x20\n        /* \"src/blueprints/BasicBlueprint.sol\":914:917  res */\n      dup4\n        /* \"src/blueprints/BasicBlueprint.sol\":910:924  add(res, 0x20) */\n      add\n        /* \"src/blueprints/BasicBlueprint.sol\":903:936  mstore(add(res, 0x20), structPtr) */\n      mstore\n        /* \"src/blueprints/BasicBlueprint.sol\":958:965  tokenId */\n      dup4\n        /* \"src/blueprints/BasicBlueprint.sol\":947:956  structPtr */\n      dup2\n        /* \"src/blueprints/BasicBlueprint.sol\":940:966  mstore(structPtr, tokenId) */\n      mstore\n        /* \"src/blueprints/BasicBlueprint.sol\":993:999  amount */\n      dup3\n        /* \"src/blueprints/BasicBlueprint.sol\":986:990  0x60 */\n      0x60\n        /* \"src/blueprints/BasicBlueprint.sol\":981:984  res */\n      dup4\n        /* \"src/blueprints/BasicBlueprint.sol\":977:991  add(res, 0x60) */\n      add\n        /* \"src/blueprints/BasicBlueprint.sol\":970:1000  mstore(add(res, 0x60), amount) */\n      mstore\n        /* \"src/blueprints/BasicBlueprint.sol\":789:1004  {... */\n      pop\n        /* \"src/blueprints/BasicBlueprint.sol\":648:1007  function oneOperationArray(... */\n      swap3\n      swap2\n      pop\n      pop\n      jump\t// out\n        /* \"src/blueprints/BasicBlueprint.sol\":536:645  function zero() internal pure returns (TokenOp[] memory z) {... */\n    tag_53:\n        /* \"src/blueprints/BasicBlueprint.sol\":575:593  TokenOp[] memory z */\n      0x60\n        /* \"src/blueprints/BasicBlueprint.sol\":536:645  function zero() internal pure returns (TokenOp[] memory z) {... */\n      swap1\n      jump\t// out\n    tag_26:\n      mload(0x40)\n      dup1\n      0x40\n      add\n      0x40\n      mstore\n      dup1\n      0x00\n      dup2\n      mstore\n      0x20\n      add\n      0x00\n      dup2\n      mstore\n      pop\n      swap1\n      jump\t// out\n        /* \"#utility.yul\":7:82   */\n    tag_64:\n        /* \"#utility.yul\":40:46   */\n      0x00\n        /* \"#utility.yul\":73:75   */\n      0x40\n        /* \"#utility.yul\":67:76   */\n      mload\n        /* \"#utility.yul\":57:76   */\n      swap1\n      pop\n        /* \"#utility.yul\":7:82   */\n      swap1\n      jump\t// out\n        /* \"#utility.yul\":88:205   */\n    tag_65:\n        /* \"#utility.yul\":197:198   */\n      0x00\n        /* \"#utility.yul\":194:195   */\n      0x00\n        /* \"#utility.yul\":187:199   */\n      revert\n        /* \"#utility.yul\":211:328   */\n    tag_66:\n        /* \"#utility.yul\":320:321   */\n      0x00\n        /* \"#utility.yul\":317:318   */\n      0x00\n        /* \"#utility.yul\":310:322   */\n      revert\n        /* \"#utility.yul\":334:451   */\n    tag_67:\n        /* \"#utility.yul\":443:444   */\n      0x00\n        /* \"#utility.yul\":440:441   */\n      0x00\n        /* \"#utility.yul\":433:445   */\n      revert\n        /* \"#utility.yul\":457:574   */\n    tag_68:\n        /* \"#utility.yul\":566:567   */\n      0x00\n        /* \"#utility.yul\":563:564   */\n      0x00\n        /* \"#utility.yul\":556:568   */\n      revert\n        /* \"#utility.yul\":580:697   */\n    tag_69:\n        /* \"#utility.yul\":689:690   */\n      0x00\n        /* \"#utility.yul\":686:687   */\n      0x00\n        /* \"#utility.yul\":679:691   */\n      revert\n        /* \"#utility.yul\":716:1268   */\n    tag_70:\n        /* \"#utility.yul\":773:781   */\n      0x00\n        /* \"#utility.yul\":783:789   */\n      0x00\n        /* \"#utility.yul\":833:836   */\n      dup4\n        /* \"#utility.yul\":826:830   */\n      0x1f\n        /* \"#utility.yul\":818:824   */\n      dup5\n        /* \"#utility.yul\":814:831   */\n      add\n        /* \"#utility.yul\":810:837   */\n      slt\n        /* \"#utility.yul\":800:922   */\n      tag_114\n      jumpi\n        /* \"#utility.yul\":841:920   */\n      tag_115\n      tag_67\n      jump\t// in\n    tag_115:\n        /* \"#utility.yul\":800:922   */\n    tag_114:\n        /* \"#utility.yul\":954:960   */\n      dup3\n        /* \"#utility.yul\":941:961   */\n      calldataload\n        /* \"#utility.yul\":931:961   */\n      swap1\n      pop\n        /* \"#utility.yul\":984:1002   */\n      0xffffffffffffffff\n        /* \"#utility.yul\":976:982   */\n      dup2\n        /* \"#utility.yul\":973:1003   */\n      gt\n        /* \"#utility.yul\":970:1087   */\n      iszero\n      tag_116\n      jumpi\n        /* \"#utility.yul\":1006:1085   */\n      tag_117\n      tag_68\n      jump\t// in\n    tag_117:\n        /* \"#utility.yul\":970:1087   */\n    tag_116:\n        /* \"#utility.yul\":1120:1124   */\n      0x20\n        /* \"#utility.yul\":1112:1118   */\n      dup4\n        /* \"#utility.yul\":1108:1125   */\n      add\n        /* \"#utility.yul\":1096:1125   */\n      swap2\n      pop\n        /* \"#utility.yul\":1174:1177   */\n      dup4\n        /* \"#utility.yul\":1166:1170   */\n      0x01\n        /* \"#utility.yul\":1158:1164   */\n      dup3\n        /* \"#utility.yul\":1154:1171   */\n      mul\n        /* \"#utility.yul\":1144:1152   */\n      dup4\n        /* \"#utility.yul\":1140:1172   */\n      add\n        /* \"#utility.yul\":1137:1178   */\n      gt\n        /* \"#utility.yul\":1134:1262   */\n      iszero\n      tag_118\n      jumpi\n        /* \"#utility.yul\":1181:1260   */\n      tag_119\n      tag_69\n      jump\t// in\n    tag_119:\n        /* \"#utility.yul\":1134:1262   */\n    tag_118:\n        /* \"#utility.yul\":716:1268   */\n      swap3\n      pop\n      swap3\n      swap1\n      pop\n      jump\t// out\n        /* \"#utility.yul\":1274:1801   */\n    tag_7:\n        /* \"#utility.yul\":1344:1350   */\n      0x00\n        /* \"#utility.yul\":1352:1358   */\n      0x00\n        /* \"#utility.yul\":1401:1403   */\n      0x20\n        /* \"#utility.yul\":1389:1398   */\n      dup4\n        /* \"#utility.yul\":1380:1387   */\n      dup6\n        /* \"#utility.yul\":1376:1399   */\n      sub\n        /* \"#utility.yul\":1372:1404   */\n      slt\n        /* \"#utility.yul\":1369:1488   */\n      iszero\n      tag_121\n      jumpi\n        /* \"#utility.yul\":1407:1486   */\n      tag_122\n      tag_65\n      jump\t// in\n    tag_122:\n        /* \"#utility.yul\":1369:1488   */\n    tag_121:\n        /* \"#utility.yul\":1555:1556   */\n      0x00\n        /* \"#utility.yul\":1544:1553   */\n      dup4\n        /* \"#utility.yul\":1540:1557   */\n      add\n        /* \"#utility.yul\":1527:1558   */\n      calldataload\n        /* \"#utility.yul\":1585:1603   */\n      0xffffffffffffffff\n        /* \"#utility.yul\":1577:1583   */\n      dup2\n        /* \"#utility.yul\":1574:1604   */\n      gt\n        /* \"#utility.yul\":1571:1688   */\n      iszero\n      tag_123\n      jumpi\n        /* \"#utility.yul\":1607:1686   */\n      tag_124\n      tag_66\n      jump\t// in\n    tag_124:\n        /* \"#utility.yul\":1571:1688   */\n    tag_123:\n        /* \"#utility.yul\":1720:1784   */\n      tag_125\n        /* \"#utility.yul\":1776:1783   */\n      dup6\n        /* \"#utility.yul\":1767:1773   */\n      dup3\n        /* \"#utility.yul\":1756:1765   */\n      dup7\n        /* \"#utility.yul\":1752:1774   */\n      add\n        /* \"#utility.yul\":1720:1784   */\n      tag_70\n      jump\t// in\n    tag_125:\n        /* \"#utility.yul\":1702:1784   */\n      swap3\n      pop\n      swap3\n      pop\n        /* \"#utility.yul\":1498:1794   */\n      pop\n        /* \"#utility.yul\":1274:1801   */\n      swap3\n      pop\n      swap3\n      swap1\n      pop\n      jump\t// out\n        /* \"#utility.yul\":1807:1945   */\n    tag_71:\n        /* \"#utility.yul\":1898:1904   */\n      0x00\n        /* \"#utility.yul\":1932:1937   */\n      dup2\n        /* \"#utility.yul\":1926:1938   */\n      mload\n        /* \"#utility.yul\":1916:1938   */\n      swap1\n      pop\n        /* \"#utility.yul\":1807:1945   */\n      swap2\n      swap1\n      pop\n      jump\t// out\n        /* \"#utility.yul\":1951:2159   */\n    tag_72:\n        /* \"#utility.yul\":2074:2085   */\n      0x00\n        /* \"#utility.yul\":2108:2114   */\n      dup3\n        /* \"#utility.yul\":2103:2106   */\n      dup3\n        /* \"#utility.yul\":2096:2115   */\n      mstore\n        /* \"#utility.yul\":2148:2152   */\n      0x20\n        /* \"#utility.yul\":2143:2146   */\n      dup3\n        /* \"#utility.yul\":2139:2153   */\n      add\n        /* \"#utility.yul\":2124:2153   */\n      swap1\n      pop\n        /* \"#utility.yul\":1951:2159   */\n      swap3\n      swap2\n      pop\n      pop\n      jump\t// out\n        /* \"#utility.yul\":2165:2321   */\n    tag_73:\n        /* \"#utility.yul\":2256:2260   */\n      0x00\n        /* \"#utility.yul\":2279:2282   */\n      dup2\n        /* \"#utility.yul\":2271:2282   */\n      swap1\n      pop\n        /* \"#utility.yul\":2309:2313   */\n      0x20\n        /* \"#utility.yul\":2304:2307   */\n      dup3\n        /* \"#utility.yul\":2300:2314   */\n      add\n        /* \"#utility.yul\":2292:2314   */\n      swap1\n      pop\n        /* \"#utility.yul\":2165:2321   */\n      swap2\n      swap1\n      pop\n      jump\t// out\n        /* \"#utility.yul\":2327:2404   */\n    tag_74:\n        /* \"#utility.yul\":2364:2371   */\n      0x00\n        /* \"#utility.yul\":2393:2398   */\n      dup2\n        /* \"#utility.yul\":2382:2398   */\n      swap1\n      pop\n        /* \"#utility.yul\":2327:2404   */\n      swap2\n      swap1\n      pop\n      jump\t// out\n        /* \"#utility.yul\":2410:2518   */\n    tag_75:\n        /* \"#utility.yul\":2487:2511   */\n      tag_131\n        /* \"#utility.yul\":2505:2510   */\n      dup2\n        /* \"#utility.yul\":2487:2511   */\n      tag_74\n      jump\t// in\n    tag_131:\n        /* \"#utility.yul\":2482:2485   */\n      dup3\n        /* \"#utility.yul\":2475:2512   */\n      mstore\n        /* \"#utility.yul\":2410:2518   */\n      pop\n      pop\n      jump\t// out\n        /* \"#utility.yul\":2564:3064   */\n    tag_76:\n        /* \"#utility.yul\":2699:2703   */\n      0x40\n        /* \"#utility.yul\":2694:2697   */\n      dup3\n        /* \"#utility.yul\":2690:2704   */\n      add\n        /* \"#utility.yul\":2789:2793   */\n      0x00\n        /* \"#utility.yul\":2782:2787   */\n      dup3\n        /* \"#utility.yul\":2778:2794   */\n      add\n        /* \"#utility.yul\":2772:2795   */\n      mload\n        /* \"#utility.yul\":2808:2871   */\n      tag_133\n        /* \"#utility.yul\":2865:2869   */\n      0x00\n        /* \"#utility.yul\":2860:2863   */\n      dup6\n        /* \"#utility.yul\":2856:2870   */\n      add\n        /* \"#utility.yul\":2842:2854   */\n      dup3\n        /* \"#utility.yul\":2808:2871   */\n      tag_75\n      jump\t// in\n    tag_133:\n        /* \"#utility.yul\":2714:2881   */\n      pop\n        /* \"#utility.yul\":2965:2969   */\n      0x20\n        /* \"#utility.yul\":2958:2963   */\n      dup3\n        /* \"#utility.yul\":2954:2970   */\n      add\n        /* \"#utility.yul\":2948:2971   */\n      mload\n        /* \"#utility.yul\":2984:3047   */\n      tag_134\n        /* \"#utility.yul\":3041:3045   */\n      0x20\n        /* \"#utility.yul\":3036:3039   */\n      dup6\n        /* \"#utility.yul\":3032:3046   */\n      add\n        /* \"#utility.yul\":3018:3030   */\n      dup3\n        /* \"#utility.yul\":2984:3047   */\n      tag_75\n      jump\t// in\n    tag_134:\n        /* \"#utility.yul\":2891:3057   */\n      pop\n        /* \"#utility.yul\":2668:3064   */\n      pop\n        /* \"#utility.yul\":2564:3064   */\n      pop\n      pop\n      jump\t// out\n        /* \"#utility.yul\":3070:3345   */\n    tag_77:\n        /* \"#utility.yul\":3187:3197   */\n      0x00\n        /* \"#utility.yul\":3208:3302   */\n      tag_136\n        /* \"#utility.yul\":3298:3301   */\n      dup4\n        /* \"#utility.yul\":3290:3296   */\n      dup4\n        /* \"#utility.yul\":3208:3302   */\n      tag_76\n      jump\t// in\n    tag_136:\n        /* \"#utility.yul\":3334:3338   */\n      0x40\n        /* \"#utility.yul\":3329:3332   */\n      dup4\n        /* \"#utility.yul\":3325:3339   */\n      add\n        /* \"#utility.yul\":3311:3339   */\n      swap1\n      pop\n        /* \"#utility.yul\":3070:3345   */\n      swap3\n      swap2\n      pop\n      pop\n      jump\t// out\n        /* \"#utility.yul\":3351:3488   */\n    tag_78:\n        /* \"#utility.yul\":3445:3449   */\n      0x00\n        /* \"#utility.yul\":3477:3481   */\n      0x20\n        /* \"#utility.yul\":3472:3475   */\n      dup3\n        /* \"#utility.yul\":3468:3482   */\n      add\n        /* \"#utility.yul\":3460:3482   */\n      swap1\n      pop\n        /* \"#utility.yul\":3351:3488   */\n      swap2\n      swap1\n      pop\n      jump\t// out\n        /* \"#utility.yul\":3538:4462   */\n    tag_79:\n        /* \"#utility.yul\":3705:3708   */\n      0x00\n        /* \"#utility.yul\":3734:3812   */\n      tag_139\n        /* \"#utility.yul\":3806:3811   */\n      dup3\n        /* \"#utility.yul\":3734:3812   */\n      tag_71\n      jump\t// in\n    tag_139:\n        /* \"#utility.yul\":3828:3938   */\n      tag_140\n        /* \"#utility.yul\":3931:3937   */\n      dup2\n        /* \"#utility.yul\":3926:3929   */\n      dup6\n        /* \"#utility.yul\":3828:3938   */\n      tag_72\n      jump\t// in\n    tag_140:\n        /* \"#utility.yul\":3821:3938   */\n      swap4\n      pop\n        /* \"#utility.yul\":3962:4042   */\n      tag_141\n        /* \"#utility.yul\":4036:4041   */\n      dup4\n        /* \"#utility.yul\":3962:4042   */\n      tag_73\n      jump\t// in\n    tag_141:\n        /* \"#utility.yul\":4065:4072   */\n      dup1\n        /* \"#utility.yul\":4096:4097   */\n      0x00\n        /* \"#utility.yul\":4081:4437   */\n    tag_142:\n        /* \"#utility.yul\":4106:4112   */\n      dup4\n        /* \"#utility.yul\":4103:4104   */\n      dup2\n        /* \"#utility.yul\":4100:4113   */\n      lt\n        /* \"#utility.yul\":4081:4437   */\n      iszero\n      tag_144\n      jumpi\n        /* \"#utility.yul\":4182:4188   */\n      dup2\n        /* \"#utility.yul\":4176:4189   */\n      mload\n        /* \"#utility.yul\":4209:4320   */\n      tag_145\n        /* \"#utility.yul\":4316:4319   */\n      dup9\n        /* \"#utility.yul\":4301:4314   */\n      dup3\n        /* \"#utility.yul\":4209:4320   */\n      tag_77\n      jump\t// in\n    tag_145:\n        /* \"#utility.yul\":4202:4320   */\n      swap8\n      pop\n        /* \"#utility.yul\":4343:4427   */\n      tag_146\n        /* \"#utility.yul\":4420:4426   */\n      dup4\n        /* \"#utility.yul\":4343:4427   */\n      tag_78\n      jump\t// in\n    tag_146:\n        /* \"#utility.yul\":4333:4427   */\n      swap3\n      pop\n        /* \"#utility.yul\":4141:4437   */\n      pop\n        /* \"#utility.yul\":4128:4129   */\n      0x01\n        /* \"#utility.yul\":4125:4126   */\n      dup2\n        /* \"#utility.yul\":4121:4130   */\n      add\n        /* \"#utility.yul\":4116:4130   */\n      swap1\n      pop\n        /* \"#utility.yul\":4081:4437   */\n      jump(tag_142)\n    tag_144:\n        /* \"#utility.yul\":4085:4099   */\n      pop\n        /* \"#utility.yul\":4453:4456   */\n      dup6\n        /* \"#utility.yul\":4446:4456   */\n      swap4\n      pop\n        /* \"#utility.yul\":3710:4462   */\n      pop\n      pop\n      pop\n        /* \"#utility.yul\":3538:4462   */\n      swap3\n      swap2\n      pop\n      pop\n      jump\t// out\n        /* \"#utility.yul\":4468:6009   */\n    tag_10:\n        /* \"#utility.yul\":5037:5041   */\n      0x00\n        /* \"#utility.yul\":5075:5078   */\n      0x80\n        /* \"#utility.yul\":5064:5073   */\n      dup3\n        /* \"#utility.yul\":5060:5079   */\n      add\n        /* \"#utility.yul\":5052:5079   */\n      swap1\n      pop\n        /* \"#utility.yul\":5125:5134   */\n      dup2\n        /* \"#utility.yul\":5119:5123   */\n      dup2\n        /* \"#utility.yul\":5115:5135   */\n      sub\n        /* \"#utility.yul\":5111:5112   */\n      0x00\n        /* \"#utility.yul\":5100:5109   */\n      dup4\n        /* \"#utility.yul\":5096:5113   */\n      add\n        /* \"#utility.yul\":5089:5136   */\n      mstore\n        /* \"#utility.yul\":5153:5309   */\n      tag_148\n        /* \"#utility.yul\":5304:5308   */\n      dup2\n        /* \"#utility.yul\":5295:5301   */\n      dup8\n        /* \"#utility.yul\":5153:5309   */\n      tag_79\n      jump\t// in\n    tag_148:\n        /* \"#utility.yul\":5145:5309   */\n      swap1\n      pop\n        /* \"#utility.yul\":5356:5365   */\n      dup2\n        /* \"#utility.yul\":5350:5354   */\n      dup2\n        /* \"#utility.yul\":5346:5366   */\n      sub\n        /* \"#utility.yul\":5341:5343   */\n      0x20\n        /* \"#utility.yul\":5330:5339   */\n      dup4\n        /* \"#utility.yul\":5326:5344   */\n      add\n        /* \"#utility.yul\":5319:5367   */\n      mstore\n        /* \"#utility.yul\":5384:5540   */\n      tag_149\n        /* \"#utility.yul\":5535:5539   */\n      dup2\n        /* \"#utility.yul\":5526:5532   */\n      dup7\n        /* \"#utility.yul\":5384:5540   */\n      tag_79\n      jump\t// in\n    tag_149:\n        /* \"#utility.yul\":5376:5540   */\n      swap1\n      pop\n        /* \"#utility.yul\":5587:5596   */\n      dup2\n        /* \"#utility.yul\":5581:5585   */\n      dup2\n        /* \"#utility.yul\":5577:5597   */\n      sub\n        /* \"#utility.yul\":5572:5574   */\n      0x40\n        /* \"#utility.yul\":5561:5570   */\n      dup4\n        /* \"#utility.yul\":5557:5575   */\n      add\n        /* \"#utility.yul\":5550:5598   */\n      mstore\n        /* \"#utility.yul\":5615:5771   */\n      tag_150\n        /* \"#utility.yul\":5766:5770   */\n      dup2\n        /* \"#utility.yul\":5757:5763   */\n      dup6\n        /* \"#utility.yul\":5615:5771   */\n      tag_79\n      jump\t// in\n    tag_150:\n        /* \"#utility.yul\":5607:5771   */\n      swap1\n      pop\n        /* \"#utility.yul\":5818:5827   */\n      dup2\n        /* \"#utility.yul\":5812:5816   */\n      dup2\n        /* \"#utility.yul\":5808:5828   */\n      sub\n        /* \"#utility.yul\":5803:5805   */\n      0x60\n        /* \"#utility.yul\":5792:5801   */\n      dup4\n        /* \"#utility.yul\":5788:5806   */\n      add\n        /* \"#utility.yul\":5781:5829   */\n      mstore\n        /* \"#utility.yul\":5846:6002   */\n      tag_151\n        /* \"#utility.yul\":5997:6001   */\n      dup2\n        /* \"#utility.yul\":5988:5994   */\n      dup5\n        /* \"#utility.yul\":5846:6002   */\n      tag_79\n      jump\t// in\n    tag_151:\n        /* \"#utility.yul\":5838:6002   */\n      swap1\n      pop\n        /* \"#utility.yul\":4468:6009   */\n      swap6\n      swap5\n      pop\n      pop\n      pop\n      pop\n      pop\n      jump\t// out\n        /* \"#utility.yul\":6015:6141   */\n    tag_80:\n        /* \"#utility.yul\":6052:6059   */\n      0x00\n        /* \"#utility.yul\":6092:6134   */\n      0xffffffffffffffffffffffffffffffffffffffff\n        /* \"#utility.yul\":6085:6090   */\n      dup3\n        /* \"#utility.yul\":6081:6135   */\n      and\n        /* \"#utility.yul\":6070:6135   */\n      swap1\n      pop\n        /* \"#utility.yul\":6015:6141   */\n      swap2\n      swap1\n      pop\n      jump\t// out\n        /* \"#utility.yul\":6147:6207   */\n    tag_81:\n        /* \"#utility.yul\":6175:6178   */\n      0x00\n        /* \"#utility.yul\":6196:6201   */\n      dup2\n        /* \"#utility.yul\":6189:6201   */\n      swap1\n      pop\n        /* \"#utility.yul\":6147:6207   */\n      swap2\n      swap1\n      pop\n      jump\t// out\n        /* \"#utility.yul\":6213:6355   */\n    tag_82:\n        /* \"#utility.yul\":6263:6272   */\n      0x00\n        /* \"#utility.yul\":6296:6349   */\n      tag_155\n        /* \"#utility.yul\":6314:6348   */\n      tag_156\n        /* \"#utility.yul\":6323:6347   */\n      tag_157\n        /* \"#utility.yul\":6341:6346   */\n      dup5\n        /* \"#utility.yul\":6323:6347   */\n      tag_80\n      jump\t// in\n    tag_157:\n        /* \"#utility.yul\":6314:6348   */\n      tag_81\n      jump\t// in\n    tag_156:\n        /* \"#utility.yul\":6296:6349   */\n      tag_80\n      jump\t// in\n    tag_155:\n        /* \"#utility.yul\":6283:6349   */\n      swap1\n      pop\n        /* \"#utility.yul\":6213:6355   */\n      swap2\n      swap1\n      pop\n      jump\t// out\n        /* \"#utility.yul\":6361:6487   */\n    tag_83:\n        /* \"#utility.yul\":6411:6420   */\n      0x00\n        /* \"#utility.yul\":6444:6481   */\n      tag_159\n        /* \"#utility.yul\":6475:6480   */\n      dup3\n        /* \"#utility.yul\":6444:6481   */\n      tag_82\n      jump\t// in\n    tag_159:\n        /* \"#utility.yul\":6431:6481   */\n      swap1\n      pop\n        /* \"#utility.yul\":6361:6487   */\n      swap2\n      swap1\n      pop\n      jump\t// out\n        /* \"#utility.yul\":6493:6644   */\n    tag_84:\n        /* \"#utility.yul\":6568:6577   */\n      0x00\n        /* \"#utility.yul\":6601:6638   */\n      tag_161\n        /* \"#utility.yul\":6632:6637   */\n      dup3\n        /* \"#utility.yul\":6601:6638   */\n      tag_83\n      jump\t// in\n    tag_161:\n        /* \"#utility.yul\":6588:6638   */\n      swap1\n      pop\n        /* \"#utility.yul\":6493:6644   */\n      swap2\n      swap1\n      pop\n      jump\t// out\n        /* \"#utility.yul\":6650:6831   */\n    tag_85:\n        /* \"#utility.yul\":6762:6824   */\n      tag_163\n        /* \"#utility.yul\":6818:6823   */\n      dup2\n        /* \"#utility.yul\":6762:6824   */\n      tag_84\n      jump\t// in\n    tag_163:\n        /* \"#utility.yul\":6757:6760   */\n      dup3\n        /* \"#utility.yul\":6750:6825   */\n      mstore\n        /* \"#utility.yul\":6650:6831   */\n      pop\n      pop\n      jump\t// out\n        /* \"#utility.yul\":6837:7109   */\n    tag_14:\n        /* \"#utility.yul\":6955:6959   */\n      0x00\n        /* \"#utility.yul\":6993:6995   */\n      0x20\n        /* \"#utility.yul\":6982:6991   */\n      dup3\n        /* \"#utility.yul\":6978:6996   */\n      add\n        /* \"#utility.yul\":6970:6996   */\n      swap1\n      pop\n        /* \"#utility.yul\":7006:7102   */\n      tag_165\n        /* \"#utility.yul\":7099:7100   */\n      0x00\n        /* \"#utility.yul\":7088:7097   */\n      dup4\n        /* \"#utility.yul\":7084:7101   */\n      add\n        /* \"#utility.yul\":7075:7081   */\n      dup5\n        /* \"#utility.yul\":7006:7102   */\n      tag_85\n      jump\t// in\n    tag_165:\n        /* \"#utility.yul\":6837:7109   */\n      swap3\n      swap2\n      pop\n      pop\n      jump\t// out\n        /* \"#utility.yul\":7115:7205   */\n    tag_86:\n        /* \"#utility.yul\":7149:7156   */\n      0x00\n        /* \"#utility.yul\":7192:7197   */\n      dup2\n        /* \"#utility.yul\":7185:7198   */\n      iszero\n        /* \"#utility.yul\":7178:7199   */\n      iszero\n        /* \"#utility.yul\":7167:7199   */\n      swap1\n      pop\n        /* \"#utility.yul\":7115:7205   */\n      swap2\n      swap1\n      pop\n      jump\t// out\n        /* \"#utility.yul\":7211:7327   */\n    tag_87:\n        /* \"#utility.yul\":7281:7302   */\n      tag_168\n        /* \"#utility.yul\":7296:7301   */\n      dup2\n        /* \"#utility.yul\":7281:7302   */\n      tag_86\n      jump\t// in\n    tag_168:\n        /* \"#utility.yul\":7274:7279   */\n      dup2\n        /* \"#utility.yul\":7271:7303   */\n      eq\n        /* \"#utility.yul\":7261:7321   */\n      tag_169\n      jumpi\n        /* \"#utility.yul\":7317:7318   */\n      0x00\n        /* \"#utility.yul\":7314:7315   */\n      0x00\n        /* \"#utility.yul\":7307:7319   */\n      revert\n        /* \"#utility.yul\":7261:7321   */\n    tag_169:\n        /* \"#utility.yul\":7211:7327   */\n      pop\n      jump\t// out\n        /* \"#utility.yul\":7333:7466   */\n    tag_88:\n        /* \"#utility.yul\":7376:7381   */\n      0x00\n        /* \"#utility.yul\":7414:7420   */\n      dup2\n        /* \"#utility.yul\":7401:7421   */\n      calldataload\n        /* \"#utility.yul\":7392:7421   */\n      swap1\n      pop\n        /* \"#utility.yul\":7430:7460   */\n      tag_171\n        /* \"#utility.yul\":7454:7459   */\n      dup2\n        /* \"#utility.yul\":7430:7460   */\n      tag_87\n      jump\t// in\n    tag_171:\n        /* \"#utility.yul\":7333:7466   */\n      swap3\n      swap2\n      pop\n      pop\n      jump\t// out\n        /* \"#utility.yul\":7472:7574   */\n    tag_89:\n        /* \"#utility.yul\":7513:7519   */\n      0x00\n        /* \"#utility.yul\":7564:7566   */\n      0x1f\n        /* \"#utility.yul\":7560:7567   */\n      not\n        /* \"#utility.yul\":7555:7557   */\n      0x1f\n        /* \"#utility.yul\":7548:7553   */\n      dup4\n        /* \"#utility.yul\":7544:7558   */\n      add\n        /* \"#utility.yul\":7540:7568   */\n      and\n        /* \"#utility.yul\":7530:7568   */\n      swap1\n      pop\n        /* \"#utility.yul\":7472:7574   */\n      swap2\n      swap1\n      pop\n      jump\t// out\n        /* \"#utility.yul\":7580:7760   */\n    tag_22:\n        /* \"#utility.yul\":7628:7705   */\n      0x4e487b7100000000000000000000000000000000000000000000000000000000\n        /* \"#utility.yul\":7625:7626   */\n      0x00\n        /* \"#utility.yul\":7618:7706   */\n      mstore\n        /* \"#utility.yul\":7725:7729   */\n      0x41\n        /* \"#utility.yul\":7722:7723   */\n      0x04\n        /* \"#utility.yul\":7715:7730   */\n      mstore\n        /* \"#utility.yul\":7749:7753   */\n      0x24\n        /* \"#utility.yul\":7746:7747   */\n      0x00\n        /* \"#utility.yul\":7739:7754   */\n      revert\n        /* \"#utility.yul\":7766:8047   */\n    tag_90:\n        /* \"#utility.yul\":7849:7876   */\n      tag_175\n        /* \"#utility.yul\":7871:7875   */\n      dup3\n        /* \"#utility.yul\":7849:7876   */\n      tag_89\n      jump\t// in\n    tag_175:\n        /* \"#utility.yul\":7841:7847   */\n      dup2\n        /* \"#utility.yul\":7837:7877   */\n      add\n        /* \"#utility.yul\":7979:7985   */\n      dup2\n        /* \"#utility.yul\":7967:7977   */\n      dup2\n        /* \"#utility.yul\":7964:7986   */\n      lt\n        /* \"#utility.yul\":7943:7961   */\n      0xffffffffffffffff\n        /* \"#utility.yul\":7931:7941   */\n      dup3\n        /* \"#utility.yul\":7928:7962   */\n      gt\n        /* \"#utility.yul\":7925:7987   */\n      or\n        /* \"#utility.yul\":7922:8010   */\n      iszero\n      tag_176\n      jumpi\n        /* \"#utility.yul\":7990:8008   */\n      tag_177\n      tag_22\n      jump\t// in\n    tag_177:\n        /* \"#utility.yul\":7922:8010   */\n    tag_176:\n        /* \"#utility.yul\":8030:8040   */\n      dup1\n        /* \"#utility.yul\":8026:8028   */\n      0x40\n        /* \"#utility.yul\":8019:8041   */\n      mstore\n        /* \"#utility.yul\":7809:8047   */\n      pop\n        /* \"#utility.yul\":7766:8047   */\n      pop\n      pop\n      jump\t// out\n        /* \"#utility.yul\":8053:8182   */\n    tag_91:\n        /* \"#utility.yul\":8087:8093   */\n      0x00\n        /* \"#utility.yul\":8114:8134   */\n      tag_179\n      tag_64\n      jump\t// in\n    tag_179:\n        /* \"#utility.yul\":8104:8134   */\n      swap1\n      pop\n        /* \"#utility.yul\":8143:8176   */\n      tag_180\n        /* \"#utility.yul\":8171:8175   */\n      dup3\n        /* \"#utility.yul\":8163:8169   */\n      dup3\n        /* \"#utility.yul\":8143:8176   */\n      tag_90\n      jump\t// in\n    tag_180:\n        /* \"#utility.yul\":8053:8182   */\n      swap2\n      swap1\n      pop\n      jump\t// out\n        /* \"#utility.yul\":8188:8499   */\n    tag_92:\n        /* \"#utility.yul\":8265:8269   */\n      0x00\n        /* \"#utility.yul\":8355:8373   */\n      0xffffffffffffffff\n        /* \"#utility.yul\":8347:8353   */\n      dup3\n        /* \"#utility.yul\":8344:8374   */\n      gt\n        /* \"#utility.yul\":8341:8397   */\n      iszero\n      tag_182\n      jumpi\n        /* \"#utility.yul\":8377:8395   */\n      tag_183\n      tag_22\n      jump\t// in\n    tag_183:\n        /* \"#utility.yul\":8341:8397   */\n    tag_182:\n        /* \"#utility.yul\":8427:8431   */\n      0x20\n        /* \"#utility.yul\":8419:8425   */\n      dup3\n        /* \"#utility.yul\":8415:8432   */\n      mul\n        /* \"#utility.yul\":8407:8432   */\n      swap1\n      pop\n        /* \"#utility.yul\":8487:8491   */\n      0x20\n        /* \"#utility.yul\":8481:8485   */\n      dup2\n        /* \"#utility.yul\":8477:8492   */\n      add\n        /* \"#utility.yul\":8469:8492   */\n      swap1\n      pop\n        /* \"#utility.yul\":8188:8499   */\n      swap2\n      swap1\n      pop\n      jump\t// out\n        /* \"#utility.yul\":8505:8627   */\n    tag_93:\n        /* \"#utility.yul\":8578:8602   */\n      tag_185\n        /* \"#utility.yul\":8596:8601   */\n      dup2\n        /* \"#utility.yul\":8578:8602   */\n      tag_74\n      jump\t// in\n    tag_185:\n        /* \"#utility.yul\":8571:8576   */\n      dup2\n        /* \"#utility.yul\":8568:8603   */\n      eq\n        /* \"#utility.yul\":8558:8621   */\n      tag_186\n      jumpi\n        /* \"#utility.yul\":8617:8618   */\n      0x00\n        /* \"#utility.yul\":8614:8615   */\n      0x00\n        /* \"#utility.yul\":8607:8619   */\n      revert\n        /* \"#utility.yul\":8558:8621   */\n    tag_186:\n        /* \"#utility.yul\":8505:8627   */\n      pop\n      jump\t// out\n        /* \"#utility.yul\":8633:8772   */\n    tag_94:\n        /* \"#utility.yul\":8679:8684   */\n      0x00\n        /* \"#utility.yul\":8717:8723   */\n      dup2\n        /* \"#utility.yul\":8704:8724   */\n      calldataload\n        /* \"#utility.yul\":8695:8724   */\n      swap1\n      pop\n        /* \"#utility.yul\":8733:8766   */\n      tag_188\n        /* \"#utility.yul\":8760:8765   */\n      dup2\n        /* \"#utility.yul\":8733:8766   */\n      tag_93\n      jump\t// in\n    tag_188:\n        /* \"#utility.yul\":8633:8772   */\n      swap3\n      swap2\n      pop\n      pop\n      jump\t// out\n        /* \"#utility.yul\":8795:9505   */\n    tag_95:\n        /* \"#utility.yul\":8891:8896   */\n      0x00\n        /* \"#utility.yul\":8916:8997   */\n      tag_190\n        /* \"#utility.yul\":8932:8996   */\n      tag_191\n        /* \"#utility.yul\":8989:8995   */\n      dup5\n        /* \"#utility.yul\":8932:8996   */\n      tag_92\n      jump\t// in\n    tag_191:\n        /* \"#utility.yul\":8916:8997   */\n      tag_91\n      jump\t// in\n    tag_190:\n        /* \"#utility.yul\":8907:8997   */\n      swap1\n      pop\n        /* \"#utility.yul\":9017:9022   */\n      dup1\n        /* \"#utility.yul\":9046:9052   */\n      dup4\n        /* \"#utility.yul\":9039:9044   */\n      dup3\n        /* \"#utility.yul\":9032:9053   */\n      mstore\n        /* \"#utility.yul\":9080:9084   */\n      0x20\n        /* \"#utility.yul\":9073:9078   */\n      dup3\n        /* \"#utility.yul\":9069:9085   */\n      add\n        /* \"#utility.yul\":9062:9085   */\n      swap1\n      pop\n        /* \"#utility.yul\":9133:9137   */\n      0x20\n        /* \"#utility.yul\":9125:9131   */\n      dup5\n        /* \"#utility.yul\":9121:9138   */\n      mul\n        /* \"#utility.yul\":9113:9119   */\n      dup4\n        /* \"#utility.yul\":9109:9139   */\n      add\n        /* \"#utility.yul\":9162:9165   */\n      dup6\n        /* \"#utility.yul\":9154:9160   */\n      dup2\n        /* \"#utility.yul\":9151:9166   */\n      gt\n        /* \"#utility.yul\":9148:9270   */\n      iszero\n      tag_192\n      jumpi\n        /* \"#utility.yul\":9181:9260   */\n      tag_193\n      tag_69\n      jump\t// in\n    tag_193:\n        /* \"#utility.yul\":9148:9270   */\n    tag_192:\n        /* \"#utility.yul\":9296:9302   */\n      dup4\n        /* \"#utility.yul\":9279:9499   */\n    tag_194:\n        /* \"#utility.yul\":9313:9319   */\n      dup2\n        /* \"#utility.yul\":9308:9311   */\n      dup2\n        /* \"#utility.yul\":9305:9320   */\n      lt\n        /* \"#utility.yul\":9279:9499   */\n      iszero\n      tag_196\n      jumpi\n        /* \"#utility.yul\":9388:9391   */\n      dup1\n        /* \"#utility.yul\":9417:9454   */\n      tag_197\n        /* \"#utility.yul\":9450:9453   */\n      dup9\n        /* \"#utility.yul\":9438:9448   */\n      dup3\n        /* \"#utility.yul\":9417:9454   */\n      tag_94\n      jump\t// in\n    tag_197:\n        /* \"#utility.yul\":9412:9415   */\n      dup5\n        /* \"#utility.yul\":9405:9455   */\n      mstore\n        /* \"#utility.yul\":9484:9488   */\n      0x20\n        /* \"#utility.yul\":9479:9482   */\n      dup5\n        /* \"#utility.yul\":9475:9489   */\n      add\n        /* \"#utility.yul\":9468:9489   */\n      swap4\n      pop\n        /* \"#utility.yul\":9355:9499   */\n      pop\n        /* \"#utility.yul\":9339:9343   */\n      0x20\n        /* \"#utility.yul\":9334:9337   */\n      dup2\n        /* \"#utility.yul\":9330:9344   */\n      add\n        /* \"#utility.yul\":9323:9344   */\n      swap1\n      pop\n        /* \"#utility.yul\":9279:9499   */\n      jump(tag_194)\n    tag_196:\n        /* \"#utility.yul\":9283:9304   */\n      pop\n        /* \"#utility.yul\":8897:9505   */\n      pop\n      pop\n        /* \"#utility.yul\":8795:9505   */\n      swap4\n      swap3\n      pop\n      pop\n      pop\n      jump\t// out\n        /* \"#utility.yul\":9528:9898   */\n    tag_96:\n        /* \"#utility.yul\":9599:9604   */\n      0x00\n        /* \"#utility.yul\":9648:9651   */\n      dup3\n        /* \"#utility.yul\":9641:9645   */\n      0x1f\n        /* \"#utility.yul\":9633:9639   */\n      dup4\n        /* \"#utility.yul\":9629:9646   */\n      add\n        /* \"#utility.yul\":9625:9652   */\n      slt\n        /* \"#utility.yul\":9615:9737   */\n      tag_199\n      jumpi\n        /* \"#utility.yul\":9656:9735   */\n      tag_200\n      tag_67\n      jump\t// in\n    tag_200:\n        /* \"#utility.yul\":9615:9737   */\n    tag_199:\n        /* \"#utility.yul\":9773:9779   */\n      dup2\n        /* \"#utility.yul\":9760:9780   */\n      calldataload\n        /* \"#utility.yul\":9798:9892   */\n      tag_201\n        /* \"#utility.yul\":9888:9891   */\n      dup5\n        /* \"#utility.yul\":9880:9886   */\n      dup3\n        /* \"#utility.yul\":9873:9877   */\n      0x20\n        /* \"#utility.yul\":9865:9871   */\n      dup7\n        /* \"#utility.yul\":9861:9878   */\n      add\n        /* \"#utility.yul\":9798:9892   */\n      tag_95\n      jump\t// in\n    tag_201:\n        /* \"#utility.yul\":9789:9892   */\n      swap2\n      pop\n        /* \"#utility.yul\":9605:9898   */\n      pop\n        /* \"#utility.yul\":9528:9898   */\n      swap3\n      swap2\n      pop\n      pop\n      jump\t// out\n        /* \"#utility.yul\":9904:10937   */\n    tag_17:\n        /* \"#utility.yul\":10028:10034   */\n      0x00\n        /* \"#utility.yul\":10036:10042   */\n      0x00\n        /* \"#utility.yul\":10044:10050   */\n      0x00\n        /* \"#utility.yul\":10093:10095   */\n      0x60\n        /* \"#utility.yul\":10081:10090   */\n      dup5\n        /* \"#utility.yul\":10072:10079   */\n      dup7\n        /* \"#utility.yul\":10068:10091   */\n      sub\n        /* \"#utility.yul\":10064:10096   */\n      slt\n        /* \"#utility.yul\":10061:10180   */\n      iszero\n      tag_203\n      jumpi\n        /* \"#utility.yul\":10099:10178   */\n      tag_204\n      tag_65\n      jump\t// in\n    tag_204:\n        /* \"#utility.yul\":10061:10180   */\n    tag_203:\n        /* \"#utility.yul\":10219:10220   */\n      0x00\n        /* \"#utility.yul\":10244:10294   */\n      tag_205\n        /* \"#utility.yul\":10286:10293   */\n      dup7\n        /* \"#utility.yul\":10277:10283   */\n      dup3\n        /* \"#utility.yul\":10266:10275   */\n      dup8\n        /* \"#utility.yul\":10262:10284   */\n      add\n        /* \"#utility.yul\":10244:10294   */\n      tag_88\n      jump\t// in\n    tag_205:\n        /* \"#utility.yul\":10234:10294   */\n      swap4\n      pop\n        /* \"#utility.yul\":10190:10304   */\n      pop\n        /* \"#utility.yul\":10371:10373   */\n      0x20\n        /* \"#utility.yul\":10360:10369   */\n      dup5\n        /* \"#utility.yul\":10356:10374   */\n      add\n        /* \"#utility.yul\":10343:10375   */\n      calldataload\n        /* \"#utility.yul\":10402:10420   */\n      0xffffffffffffffff\n        /* \"#utility.yul\":10394:10400   */\n      dup2\n        /* \"#utility.yul\":10391:10421   */\n      gt\n        /* \"#utility.yul\":10388:10505   */\n      iszero\n      tag_206\n      jumpi\n        /* \"#utility.yul\":10424:10503   */\n      tag_207\n      tag_66\n      jump\t// in\n    tag_207:\n        /* \"#utility.yul\":10388:10505   */\n    tag_206:\n        /* \"#utility.yul\":10529:10607   */\n      tag_208\n        /* \"#utility.yul\":10599:10606   */\n      dup7\n        /* \"#utility.yul\":10590:10596   */\n      dup3\n        /* \"#utility.yul\":10579:10588   */\n      dup8\n        /* \"#utility.yul\":10575:10597   */\n      add\n        /* \"#utility.yul\":10529:10607   */\n      tag_96\n      jump\t// in\n    tag_208:\n        /* \"#utility.yul\":10519:10607   */\n      swap3\n      pop\n        /* \"#utility.yul\":10314:10617   */\n      pop\n        /* \"#utility.yul\":10684:10686   */\n      0x40\n        /* \"#utility.yul\":10673:10682   */\n      dup5\n        /* \"#utility.yul\":10669:10687   */\n      add\n        /* \"#utility.yul\":10656:10688   */\n      calldataload\n        /* \"#utility.yul\":10715:10733   */\n      0xffffffffffffffff\n        /* \"#utility.yul\":10707:10713   */\n      dup2\n        /* \"#utility.yul\":10704:10734   */\n      gt\n        /* \"#utility.yul\":10701:10818   */\n      iszero\n      tag_209\n      jumpi\n        /* \"#utility.yul\":10737:10816   */\n      tag_210\n      tag_66\n      jump\t// in\n    tag_210:\n        /* \"#utility.yul\":10701:10818   */\n    tag_209:\n        /* \"#utility.yul\":10842:10920   */\n      tag_211\n        /* \"#utility.yul\":10912:10919   */\n      dup7\n        /* \"#utility.yul\":10903:10909   */\n      dup3\n        /* \"#utility.yul\":10892:10901   */\n      dup8\n        /* \"#utility.yul\":10888:10910   */\n      add\n        /* \"#utility.yul\":10842:10920   */\n      tag_96\n      jump\t// in\n    tag_211:\n        /* \"#utility.yul\":10832:10920   */\n      swap2\n      pop\n        /* \"#utility.yul\":10627:10930   */\n      pop\n        /* \"#utility.yul\":9904:10937   */\n      swap3\n      pop\n      swap3\n      pop\n      swap3\n      jump\t// out\n        /* \"#utility.yul\":10943:11123   */\n    tag_32:\n        /* \"#utility.yul\":10991:11068   */\n      0x4e487b7100000000000000000000000000000000000000000000000000000000\n        /* \"#utility.yul\":10988:10989   */\n      0x00\n        /* \"#utility.yul\":10981:11069   */\n      mstore\n        /* \"#utility.yul\":11088:11092   */\n      0x32\n        /* \"#utility.yul\":11085:11086   */\n      0x04\n        /* \"#utility.yul\":11078:11093   */\n      mstore\n        /* \"#utility.yul\":11112:11116   */\n      0x24\n        /* \"#utility.yul\":11109:11110   */\n      0x00\n        /* \"#utility.yul\":11102:11117   */\n      revert\n        /* \"#utility.yul\":11129:11309   */\n    tag_97:\n        /* \"#utility.yul\":11177:11254   */\n      0x4e487b7100000000000000000000000000000000000000000000000000000000\n        /* \"#utility.yul\":11174:11175   */\n      0x00\n        /* \"#utility.yul\":11167:11255   */\n      mstore\n        /* \"#utility.yul\":11274:11278   */\n      0x12\n        /* \"#utility.yul\":11271:11272   */\n      0x04\n        /* \"#utility.yul\":11264:11279   */\n      mstore\n        /* \"#utility.yul\":11298:11302   */\n      0x24\n        /* \"#utility.yul\":11295:11296   */\n      0x00\n        /* \"#utility.yul\":11288:11303   */\n      revert\n        /* \"#utility.yul\":11501:11686   */\n    tag_46:\n        /* \"#utility.yul\":11541:11542   */\n      0x00\n        /* \"#utility.yul\":11558:11578   */\n      tag_216\n        /* \"#utility.yul\":11576:11577   */\n      dup3\n        /* \"#utility.yul\":11558:11578   */\n      tag_74\n      jump\t// in\n    tag_216:\n        /* \"#utility.yul\":11553:11578   */\n      swap2\n      pop\n        /* \"#utility.yul\":11592:11612   */\n      tag_217\n        /* \"#utility.yul\":11610:11611   */\n      dup4\n        /* \"#utility.yul\":11592:11612   */\n      tag_74\n      jump\t// in\n    tag_217:\n        /* \"#utility.yul\":11587:11612   */\n      swap3\n      pop\n        /* \"#utility.yul\":11631:11632   */\n      dup3\n        /* \"#utility.yul\":11621:11656   */\n      tag_218\n      jumpi\n        /* \"#utility.yul\":11636:11654   */\n      tag_219\n      tag_97\n      jump\t// in\n    tag_219:\n        /* \"#utility.yul\":11621:11656   */\n    tag_218:\n        /* \"#utility.yul\":11678:11679   */\n      dup3\n        /* \"#utility.yul\":11675:11676   */\n      dup3\n        /* \"#utility.yul\":11671:11680   */\n      div\n        /* \"#utility.yul\":11666:11680   */\n      swap1\n      pop\n        /* \"#utility.yul\":11501:11686   */\n      swap3\n      swap2\n      pop\n      pop\n      jump\t// out\n        /* \"#utility.yul\":11692:11806   */\n    tag_99:\n        /* \"#utility.yul\":11759:11765   */\n      0x00\n        /* \"#utility.yul\":11793:11798   */\n      dup2\n        /* \"#utility.yul\":11787:11799   */\n      mload\n        /* \"#utility.yul\":11777:11799   */\n      swap1\n      pop\n        /* \"#utility.yul\":11692:11806   */\n      swap2\n      swap1\n      pop\n      jump\t// out\n        /* \"#utility.yul\":11812:11975   */\n    tag_100:\n        /* \"#utility.yul\":11929:11940   */\n      0x00\n        /* \"#utility.yul\":11966:11969   */\n      dup2\n        /* \"#utility.yul\":11951:11969   */\n      swap1\n      pop\n        /* \"#utility.yul\":11812:11975   */\n      swap3\n      swap2\n      pop\n      pop\n      jump\t// out\n        /* \"#utility.yul\":11981:12113   */\n    tag_101:\n        /* \"#utility.yul\":12048:12052   */\n      0x00\n        /* \"#utility.yul\":12071:12074   */\n      dup2\n        /* \"#utility.yul\":12063:12074   */\n      swap1\n      pop\n        /* \"#utility.yul\":12101:12105   */\n      0x20\n        /* \"#utility.yul\":12096:12099   */\n      dup3\n        /* \"#utility.yul\":12092:12106   */\n      add\n        /* \"#utility.yul\":12084:12106   */\n      swap1\n      pop\n        /* \"#utility.yul\":11981:12113   */\n      swap2\n      swap1\n      pop\n      jump\t// out\n        /* \"#utility.yul\":12119:12235   */\n    tag_102:\n        /* \"#utility.yul\":12204:12228   */\n      tag_224\n        /* \"#utility.yul\":12222:12227   */\n      dup2\n        /* \"#utility.yul\":12204:12228   */\n      tag_74\n      jump\t// in\n    tag_224:\n        /* \"#utility.yul\":12199:12202   */\n      dup3\n        /* \"#utility.yul\":12192:12229   */\n      mstore\n        /* \"#utility.yul\":12119:12235   */\n      pop\n      pop\n      jump\t// out\n        /* \"#utility.yul\":12241:12436   */\n    tag_103:\n        /* \"#utility.yul\":12318:12328   */\n      0x00\n        /* \"#utility.yul\":12339:12393   */\n      tag_226\n        /* \"#utility.yul\":12389:12392   */\n      dup4\n        /* \"#utility.yul\":12381:12387   */\n      dup4\n        /* \"#utility.yul\":12339:12393   */\n      tag_102\n      jump\t// in\n    tag_226:\n        /* \"#utility.yul\":12425:12429   */\n      0x20\n        /* \"#utility.yul\":12420:12423   */\n      dup4\n        /* \"#utility.yul\":12416:12430   */\n      add\n        /* \"#utility.yul\":12402:12430   */\n      swap1\n      pop\n        /* \"#utility.yul\":12241:12436   */\n      swap3\n      swap2\n      pop\n      pop\n      jump\t// out\n        /* \"#utility.yul\":12442:12555   */\n    tag_104:\n        /* \"#utility.yul\":12512:12516   */\n      0x00\n        /* \"#utility.yul\":12544:12548   */\n      0x20\n        /* \"#utility.yul\":12539:12542   */\n      dup3\n        /* \"#utility.yul\":12535:12549   */\n      add\n        /* \"#utility.yul\":12527:12549   */\n      swap1\n      pop\n        /* \"#utility.yul\":12442:12555   */\n      swap2\n      swap1\n      pop\n      jump\t// out\n        /* \"#utility.yul\":12591:13367   */\n    tag_105:\n        /* \"#utility.yul\":12728:12731   */\n      0x00\n        /* \"#utility.yul\":12757:12811   */\n      tag_229\n        /* \"#utility.yul\":12805:12810   */\n      dup3\n        /* \"#utility.yul\":12757:12811   */\n      tag_99\n      jump\t// in\n    tag_229:\n        /* \"#utility.yul\":12827:12931   */\n      tag_230\n        /* \"#utility.yul\":12924:12930   */\n      dup2\n        /* \"#utility.yul\":12919:12922   */\n      dup6\n        /* \"#utility.yul\":12827:12931   */\n      tag_100\n      jump\t// in\n    tag_230:\n        /* \"#utility.yul\":12820:12931   */\n      swap4\n      pop\n        /* \"#utility.yul\":12955:13011   */\n      tag_231\n        /* \"#utility.yul\":13005:13010   */\n      dup4\n        /* \"#utility.yul\":12955:13011   */\n      tag_101\n      jump\t// in\n    tag_231:\n        /* \"#utility.yul\":13034:13041   */\n      dup1\n        /* \"#utility.yul\":13065:13066   */\n      0x00\n        /* \"#utility.yul\":13050:13342   */\n    tag_232:\n        /* \"#utility.yul\":13075:13081   */\n      dup4\n        /* \"#utility.yul\":13072:13073   */\n      dup2\n        /* \"#utility.yul\":13069:13082   */\n      lt\n        /* \"#utility.yul\":13050:13342   */\n      iszero\n      tag_234\n      jumpi\n        /* \"#utility.yul\":13151:13157   */\n      dup2\n        /* \"#utility.yul\":13145:13158   */\n      mload\n        /* \"#utility.yul\":13178:13249   */\n      tag_235\n        /* \"#utility.yul\":13245:13248   */\n      dup9\n        /* \"#utility.yul\":13230:13243   */\n      dup3\n        /* \"#utility.yul\":13178:13249   */\n      tag_103\n      jump\t// in\n    tag_235:\n        /* \"#utility.yul\":13171:13249   */\n      swap8\n      pop\n        /* \"#utility.yul\":13272:13332   */\n      tag_236\n        /* \"#utility.yul\":13325:13331   */\n      dup4\n        /* \"#utility.yul\":13272:13332   */\n      tag_104\n      jump\t// in\n    tag_236:\n        /* \"#utility.yul\":13262:13332   */\n      swap3\n      pop\n        /* \"#utility.yul\":13110:13342   */\n      pop\n        /* \"#utility.yul\":13097:13098   */\n      0x01\n        /* \"#utility.yul\":13094:13095   */\n      dup2\n        /* \"#utility.yul\":13090:13099   */\n      add\n        /* \"#utility.yul\":13085:13099   */\n      swap1\n      pop\n        /* \"#utility.yul\":13050:13342   */\n      jump(tag_232)\n    tag_234:\n        /* \"#utility.yul\":13054:13068   */\n      pop\n        /* \"#utility.yul\":13358:13361   */\n      dup6\n        /* \"#utility.yul\":13351:13361   */\n      swap4\n      pop\n        /* \"#utility.yul\":12733:13367   */\n      pop\n      pop\n      pop\n        /* \"#utility.yul\":12591:13367   */\n      swap3\n      swap2\n      pop\n      pop\n      jump\t// out\n        /* \"#utility.yul\":13373:13928   */\n    tag_48:\n        /* \"#utility.yul\":13613:13616   */\n      0x00\n        /* \"#utility.yul\":13635:13760   */\n      tag_238\n        /* \"#utility.yul\":13756:13759   */\n      dup3\n        /* \"#utility.yul\":13747:13753   */\n      dup6\n        /* \"#utility.yul\":13635:13760   */\n      tag_105\n      jump\t// in\n    tag_238:\n        /* \"#utility.yul\":13628:13760   */\n      swap2\n      pop\n        /* \"#utility.yul\":13777:13902   */\n      tag_239\n        /* \"#utility.yul\":13898:13901   */\n      dup3\n        /* \"#utility.yul\":13889:13895   */\n      dup5\n        /* \"#utility.yul\":13777:13902   */\n      tag_105\n      jump\t// in\n    tag_239:\n        /* \"#utility.yul\":13770:13902   */\n      swap2\n      pop\n        /* \"#utility.yul\":13919:13922   */\n      dup2\n        /* \"#utility.yul\":13912:13922   */\n      swap1\n      pop\n        /* \"#utility.yul\":13373:13928   */\n      swap4\n      swap3\n      pop\n      pop\n      pop\n      jump\t// out\n\n    auxdata: 0xa2646970667358221220147bb2a267e07e7e3c054af4591a010d21ad016b5276fec3cb4e1bedbe1a449d64736f6c634300081c0033\n}\n",
				"bytecode": {
					"linkReferences": {},
					"object": "60a060405234801561000f575f5ffd5b50604051610ad1380380610ad1833981810160405281019061003191906100dc565b808073ffffffffffffffffffffffffffffffffffffffff1660808173ffffffffffffffffffffffffffffffffffffffff16815250505050610107565b5f5ffd5b5f73ffffffffffffffffffffffffffffffffffffffff82169050919050565b5f61009a82610071565b9050919050565b5f6100ab82610090565b9050919050565b6100bb816100a1565b81146100c5575f5ffd5b50565b5f815190506100d6816100b2565b92915050565b5f602082840312156100f1576100f061006d565b5b5f6100fe848285016100c8565b91505092915050565b6080516109b261011f5f395f6102c901526109b25ff3fe608060405234801561000f575f5ffd5b5060043610610034575f3560e01c8063a129568d14610038578063fabe109a1461006b575b5f5ffd5b610052600480360381019061004d91906103c5565b610089565b60405161006294939291906104fd565b60405180910390f35b6100736102c7565b60405161008091906105d6565b60405180910390f35b6060806060805f5f5f88888101906100a19190610796565b9250925092505f8251905081518082146100c15763219c0e175f5260045ffd5b816100d25763947d5a845f5260045ffd5b505f8167ffffffffffffffff8111156100ee576100ed610634565b5b60405190808252806020026020018201604052801561012757816020015b61011461033b565b81526020019060019003908161010c5790505b5090505f5f90505f5f90505b838110156101f9575f85828151811061014f5761014e61081e565b5b602002602001015190505f8103610192576040517f1f2a200500000000000000000000000000000000000000000000000000000000815260040160405180910390fd5b60405180604001604052808884815181106101b0576101af61081e565b5b60200260200101518152602001828152508483815181106101d4576101d361081e565b5b60200260200101819052506101e983826102eb565b9250508080600101915050610133565b505f5f90505b83811015610243578185828151811061021b5761021a61081e565b5b6020026020010181815161022f9190610878565b9150818152505080806001019150506101ff565b505f8585604051602001610258929190610959565b604051602081830303815290604052805190602001205f1c90505f61027d828461030a565b90508761029b5761028c610336565b8185610296610336565b6102ae565b806102a4610336565b6102ac610336565b865b9b509b509b509b50505050505050505092959194509250565b7f000000000000000000000000000000000000000000000000000000000000000081565b5f5b811561030257828293508281069250506102ed565b825f5260205ff35b606060405190506080810160405260408101600182528060208301528381528260608301525092915050565b606090565b60405180604001604052805f81526020015f81525090565b5f604051905090565b5f5ffd5b5f5ffd5b5f5ffd5b5f5ffd5b5f5ffd5b5f5f83601f84011261038557610384610364565b5b8235905067ffffffffffffffff8111156103a2576103a1610368565b5b6020830191508360018202830111156103be576103bd61036c565b5b9250929050565b5f5f602083850312156103db576103da61035c565b5b5f83013567ffffffffffffffff8111156103f8576103f7610360565b5b61040485828601610370565b92509250509250929050565b5f81519050919050565b5f82825260208201905092915050565b5f819050602082019050919050565b5f819050919050565b61044b81610439565b82525050565b604082015f8201516104655f850182610442565b5060208201516104786020850182610442565b50505050565b5f6104898383610451565b60408301905092915050565b5f602082019050919050565b5f6104ab82610410565b6104b5818561041a565b93506104c08361042a565b805f5b838110156104f05781516104d7888261047e565b97506104e283610495565b9250506001810190506104c3565b5085935050505092915050565b5f6080820190508181035f83015261051581876104a1565b9050818103602083015261052981866104a1565b9050818103604083015261053d81856104a1565b9050818103606083015261055181846104a1565b905095945050505050565b5f73ffffffffffffffffffffffffffffffffffffffff82169050919050565b5f819050919050565b5f61059e6105996105948461055c565b61057b565b61055c565b9050919050565b5f6105af82610584565b9050919050565b5f6105c0826105a5565b9050919050565b6105d0816105b6565b82525050565b5f6020820190506105e95f8301846105c7565b92915050565b5f8115159050919050565b610603816105ef565b811461060d575f5ffd5b50565b5f8135905061061e816105fa565b92915050565b5f601f19601f8301169050919050565b7f4e487b71000000000000000000000000000000000000000000000000000000005f52604160045260245ffd5b61066a82610624565b810181811067ffffffffffffffff8211171561068957610688610634565b5b80604052505050565b5f61069b610353565b90506106a78282610661565b919050565b5f67ffffffffffffffff8211156106c6576106c5610634565b5b602082029050602081019050919050565b6106e081610439565b81146106ea575f5ffd5b50565b5f813590506106fb816106d7565b92915050565b5f61071361070e846106ac565b610692565b905080838252602082019050602084028301858111156107365761073561036c565b5b835b8181101561075f578061074b88826106ed565b845260208401935050602081019050610738565b5050509392505050565b5f82601f83011261077d5761077c610364565b5b813561078d848260208601610701565b91505092915050565b5f5f5f606084860312156107ad576107ac61035c565b5b5f6107ba86828701610610565b935050602084013567ffffffffffffffff8111156107db576107da610360565b5b6107e786828701610769565b925050604084013567ffffffffffffffff81111561080857610807610360565b5b61081486828701610769565b9150509250925092565b7f4e487b71000000000000000000000000000000000000000000000000000000005f52603260045260245ffd5b7f4e487b71000000000000000000000000000000000000000000000000000000005f52601260045260245ffd5b5f61088282610439565b915061088d83610439565b92508261089d5761089c61084b565b5b828204905092915050565b5f81519050919050565b5f81905092915050565b5f819050602082019050919050565b6108d481610439565b82525050565b5f6108e583836108cb565b60208301905092915050565b5f602082019050919050565b5f610907826108a8565b61091181856108b2565b935061091c836108bc565b805f5b8381101561094c57815161093388826108da565b975061093e836108f1565b92505060018101905061091f565b5085935050505092915050565b5f61096482856108fd565b915061097082846108fd565b9150819050939250505056fea2646970667358221220147bb2a267e07e7e3c054af4591a010d21ad016b5276fec3cb4e1bedbe1a449d64736f6c634300081c0033",
					"opcodes": "PUSH1 0xA0 PUSH1 0x40 MSTORE CALLVALUE DUP1 ISZERO PUSH2 0xF JUMPI PUSH0 PUSH0 REVERT JUMPDEST POP PUSH1 0x40 MLOAD PUSH2 0xAD1 CODESIZE SUB DUP1 PUSH2 0xAD1 DUP4 CODECOPY DUP2 DUP2 ADD PUSH1 0x40 MSTORE DUP2 ADD SWAP1 PUSH2 0x31 SWAP2 SWAP1 PUSH2 0xDC JUMP JUMPDEST DUP1 DUP1 PUSH20 0xFFFFFFFFFFFFFFFFFFFFFFFFFFFFFFFFFFFFFFFF AND PUSH1 0x80 DUP2 PUSH20 0xFFFFFFFFFFFFFFFFFFFFFFFFFFFFFFFFFFFFFFFF AND DUP2 MSTORE POP POP POP POP PUSH2 0x107 JUMP JUMPDEST PUSH0 PUSH0 REVERT JUMPDEST PUSH0 PUSH20 0xFFFFFFFFFFFFFFFFFFFFFFFFFFFFFFFFFFFFFFFF DUP3 AND SWAP1 POP SWAP2 SWAP1 POP JUMP JUMPDEST PUSH0 PUSH2 0x9A DUP3 PUSH2 0x71 JUMP JUMPDEST SWAP1 POP SWAP2 SWAP1 POP JUMP JUMPDEST PUSH0 PUSH2 0xAB DUP3 PUSH2 0x90 JUMP JUMPDEST SWAP1 POP SWAP2 SWAP1 POP JUMP JUMPDEST PUSH2 0xBB DUP2 PUSH2 0xA1 JUMP JUMPDEST DUP2 EQ PUSH2 0xC5 JUMPI PUSH0 PUSH0 REVERT JUMPDEST POP JUMP JUMPDEST PUSH0 DUP2 MLOAD SWAP1 POP PUSH2 0xD6 DUP2 PUSH2 0xB2 JUMP JUMPDEST SWAP3 SWAP2 POP POP JUMP JUMPDEST PUSH0 PUSH1 0x20 DUP3 DUP5 SUB SLT ISZERO PUSH2 0xF1 JUMPI PUSH2 0xF0 PUSH2 0x6D JUMP JUMPDEST JUMPDEST PUSH0 PUSH2 0xFE DUP5 DUP3 DUP6 ADD PUSH2 0xC8 JUMP JUMPDEST SWAP2 POP POP SWAP3 SWAP2 POP POP JUMP JUMPDEST PUSH1 0x80 MLOAD PUSH2 0x9B2 PUSH2 0x11F PUSH0 CODECOPY PUSH0 PUSH2 0x2C9 ADD MSTORE PUSH2 0x9B2 PUSH0 RETURN INVALID PUSH1 0x80 PUSH1 0x40 MSTORE CALLVALUE DUP1 ISZERO PUSH2 0xF JUMPI PUSH0 PUSH0 REVERT JUMPDEST POP PUSH1 0x4 CALLDATASIZE LT PUSH2 0x34 JUMPI PUSH0 CALLDATALOAD PUSH1 0xE0 SHR DUP1 PUSH4 0xA129568D EQ PUSH2 0x38 JUMPI DUP1 PUSH4 0xFABE109A EQ PUSH2 0x6B JUMPI JUMPDEST PUSH0 PUSH0 REVERT JUMPDEST PUSH2 0x52 PUSH1 0x4 DUP1 CALLDATASIZE SUB DUP2 ADD SWAP1 PUSH2 0x4D SWAP2 SWAP1 PUSH2 0x3C5 JUMP JUMPDEST PUSH2 0x89 JUMP JUMPDEST PUSH1 0x40 MLOAD PUSH2 0x62 SWAP5 SWAP4 SWAP3 SWAP2 SWAP1 PUSH2 0x4FD JUMP JUMPDEST PUSH1 0x40 MLOAD DUP1 SWAP2 SUB SWAP1 RETURN JUMPDEST PUSH2 0x73 PUSH2 0x2C7 JUMP JUMPDEST PUSH1 0x40 MLOAD PUSH2 0x80 SWAP2 SWAP1 PUSH2 0x5D6 JUMP JUMPDEST PUSH1 0x40 MLOAD DUP1 SWAP2 SUB SWAP1 RETURN JUMPDEST PUSH1 0x60 DUP1 PUSH1 0x60 DUP1 PUSH0 PUSH0 PUSH0 DUP9 DUP9 DUP2 ADD SWAP1 PUSH2 0xA1 SWAP2 SWAP1 PUSH2 0x796 JUMP JUMPDEST SWAP3 POP SWAP3 POP SWAP3 POP PUSH0 DUP3 MLOAD SWAP1 POP DUP2 MLOAD DUP1 DUP3 EQ PUSH2 0xC1 JUMPI PUSH4 0x219C0E17 PUSH0 MSTORE PUSH1 0x4 PUSH0 REVERT JUMPDEST DUP2 PUSH2 0xD2 JUMPI PUSH4 0x947D5A84 PUSH0 MSTORE PUSH1 0x4 PUSH0 REVERT JUMPDEST POP PUSH0 DUP2 PUSH8 0xFFFFFFFFFFFFFFFF DUP2 GT ISZERO PUSH2 0xEE JUMPI PUSH2 0xED PUSH2 0x634 JUMP JUMPDEST JUMPDEST PUSH1 0x40 MLOAD SWAP1 DUP1 DUP3 MSTORE DUP1 PUSH1 0x20 MUL PUSH1 0x20 ADD DUP3 ADD PUSH1 0x40 MSTORE DUP1 ISZERO PUSH2 0x127 JUMPI DUP2 PUSH1 0x20 ADD JUMPDEST PUSH2 0x114 PUSH2 0x33B JUMP JUMPDEST DUP2 MSTORE PUSH1 0x20 ADD SWAP1 PUSH1 0x1 SWAP1 SUB SWAP1 DUP2 PUSH2 0x10C JUMPI SWAP1 POP JUMPDEST POP SWAP1 POP PUSH0 PUSH0 SWAP1 POP PUSH0 PUSH0 SWAP1 POP JUMPDEST DUP4 DUP2 LT ISZERO PUSH2 0x1F9 JUMPI PUSH0 DUP6 DUP3 DUP2 MLOAD DUP2 LT PUSH2 0x14F JUMPI PUSH2 0x14E PUSH2 0x81E JUMP JUMPDEST JUMPDEST PUSH1 0x20 MUL PUSH1 0x20 ADD ADD MLOAD SWAP1 POP PUSH0 DUP2 SUB PUSH2 0x192 JUMPI PUSH1 0x40 MLOAD PUSH32 0x1F2A200500000000000000000000000000000000000000000000000000000000 DUP2 MSTORE PUSH1 0x4 ADD PUSH1 0x40 MLOAD DUP1 SWAP2 SUB SWAP1 REVERT JUMPDEST PUSH1 0x40 MLOAD DUP1 PUSH1 0x40 ADD PUSH1 0x40 MSTORE DUP1 DUP9 DUP5 DUP2 MLOAD DUP2 LT PUSH2 0x1B0 JUMPI PUSH2 0x1AF PUSH2 0x81E JUMP JUMPDEST JUMPDEST PUSH1 0x20 MUL PUSH1 0x20 ADD ADD MLOAD DUP2 MSTORE PUSH1 0x20 ADD DUP3 DUP2 MSTORE POP DUP5 DUP4 DUP2 MLOAD DUP2 LT PUSH2 0x1D4 JUMPI PUSH2 0x1D3 PUSH2 0x81E JUMP JUMPDEST JUMPDEST PUSH1 0x20 MUL PUSH1 0x20 ADD ADD DUP2 SWAP1 MSTORE POP PUSH2 0x1E9 DUP4 DUP3 PUSH2 0x2EB JUMP JUMPDEST SWAP3 POP POP DUP1 DUP1 PUSH1 0x1 ADD SWAP2 POP POP PUSH2 0x133 JUMP JUMPDEST POP PUSH0 PUSH0 SWAP1 POP JUMPDEST DUP4 DUP2 LT ISZERO PUSH2 0x243 JUMPI DUP2 DUP6 DUP3 DUP2 MLOAD DUP2 LT PUSH2 0x21B JUMPI PUSH2 0x21A PUSH2 0x81E JUMP JUMPDEST JUMPDEST PUSH1 0x20 MUL PUSH1 0x20 ADD ADD DUP2 DUP2 MLOAD PUSH2 0x22F SWAP2 SWAP1 PUSH2 0x878 JUMP JUMPDEST SWAP2 POP DUP2 DUP2 MSTORE POP POP DUP1 DUP1 PUSH1 0x1 ADD SWAP2 POP POP PUSH2 0x1FF JUMP JUMPDEST POP PUSH0 DUP6 DUP6 PUSH1 0x40 MLOAD PUSH1 0x20 ADD PUSH2 0x258 SWAP3 SWAP2 SWAP1 PUSH2 0x959 JUMP JUMPDEST PUSH1 0x40 MLOAD PUSH1 0x20 DUP2 DUP4 SUB SUB DUP2 MSTORE SWAP1 PUSH1 0x40 MSTORE DUP1 MLOAD SWAP1 PUSH1 0x20 ADD KECCAK256 PUSH0 SHR SWAP1 POP PUSH0 PUSH2 0x27D DUP3 DUP5 PUSH2 0x30A JUMP JUMPDEST SWAP1 POP DUP8 PUSH2 0x29B JUMPI PUSH2 0x28C PUSH2 0x336 JUMP JUMPDEST DUP2 DUP6 PUSH2 0x296 PUSH2 0x336 JUMP JUMPDEST PUSH2 0x2AE JUMP JUMPDEST DUP1 PUSH2 0x2A4 PUSH2 0x336 JUMP JUMPDEST PUSH2 0x2AC PUSH2 0x336 JUMP JUMPDEST DUP7 JUMPDEST SWAP12 POP SWAP12 POP SWAP12 POP SWAP12 POP POP POP POP POP POP POP POP POP SWAP3 SWAP6 SWAP2 SWAP5 POP SWAP3 POP JUMP JUMPDEST PUSH32 0x0 DUP2 JUMP JUMPDEST PUSH0 JUMPDEST DUP2 ISZERO PUSH2 0x302 JUMPI DUP3 DUP3 SWAP4 POP DUP3 DUP2 MOD SWAP3 POP POP PUSH2 0x2ED JUMP JUMPDEST DUP3 PUSH0 MSTORE PUSH1 0x20 PUSH0 RETURN JUMPDEST PUSH1 0x60 PUSH1 0x40 MLOAD SWAP1 POP PUSH1 0x80 DUP2 ADD PUSH1 0x40 MSTORE PUSH1 0x40 DUP2 ADD PUSH1 0x1 DUP3 MSTORE DUP1 PUSH1 0x20 DUP4 ADD MSTORE DUP4 DUP2 MSTORE DUP3 PUSH1 0x60 DUP4 ADD MSTORE POP SWAP3 SWAP2 POP POP JUMP JUMPDEST PUSH1 0x60 SWAP1 JUMP JUMPDEST PUSH1 0x40 MLOAD DUP1 PUSH1 0x40 ADD PUSH1 0x40 MSTORE DUP1 PUSH0 DUP2 MSTORE PUSH1 0x20 ADD PUSH0 DUP2 MSTORE POP SWAP1 JUMP JUMPDEST PUSH0 PUSH1 0x40 MLOAD SWAP1 POP SWAP1 JUMP JUMPDEST PUSH0 PUSH0 REVERT JUMPDEST PUSH0 PUSH0 REVERT JUMPDEST PUSH0 PUSH0 REVERT JUMPDEST PUSH0 PUSH0 REVERT JUMPDEST PUSH0 PUSH0 REVERT JUMPDEST PUSH0 PUSH0 DUP4 PUSH1 0x1F DUP5 ADD SLT PUSH2 0x385 JUMPI PUSH2 0x384 PUSH2 0x364 JUMP JUMPDEST JUMPDEST DUP3 CALLDATALOAD SWAP1 POP PUSH8 0xFFFFFFFFFFFFFFFF DUP2 GT ISZERO PUSH2 0x3A2 JUMPI PUSH2 0x3A1 PUSH2 0x368 JUMP JUMPDEST JUMPDEST PUSH1 0x20 DUP4 ADD SWAP2 POP DUP4 PUSH1 0x1 DUP3 MUL DUP4 ADD GT ISZERO PUSH2 0x3BE JUMPI PUSH2 0x3BD PUSH2 0x36C JUMP JUMPDEST JUMPDEST SWAP3 POP SWAP3 SWAP1 POP JUMP JUMPDEST PUSH0 PUSH0 PUSH1 0x20 DUP4 DUP6 SUB SLT ISZERO PUSH2 0x3DB JUMPI PUSH2 0x3DA PUSH2 0x35C JUMP JUMPDEST JUMPDEST PUSH0 DUP4 ADD CALLDATALOAD PUSH8 0xFFFFFFFFFFFFFFFF DUP2 GT ISZERO PUSH2 0x3F8 JUMPI PUSH2 0x3F7 PUSH2 0x360 JUMP JUMPDEST JUMPDEST PUSH2 0x404 DUP6 DUP3 DUP7 ADD PUSH2 0x370 JUMP JUMPDEST SWAP3 POP SWAP3 POP POP SWAP3 POP SWAP3 SWAP1 POP JUMP JUMPDEST PUSH0 DUP2 MLOAD SWAP1 POP SWAP2 SWAP1 POP JUMP JUMPDEST PUSH0 DUP3 DUP3 MSTORE PUSH1 0x20 DUP3 ADD SWAP1 POP SWAP3 SWAP2 POP POP JUMP JUMPDEST PUSH0 DUP2 SWAP1 POP PUSH1 0x20 DUP3 ADD SWAP1 POP SWAP2 SWAP1 POP JUMP JUMPDEST PUSH0 DUP2 SWAP1 POP SWAP2 SWAP1 POP JUMP JUMPDEST PUSH2 0x44B DUP2 PUSH2 0x439 JUMP JUMPDEST DUP3 MSTORE POP POP JUMP JUMPDEST PUSH1 0x40 DUP3 ADD PUSH0 DUP3 ADD MLOAD PUSH2 0x465 PUSH0 DUP6 ADD DUP3 PUSH2 0x442 JUMP JUMPDEST POP PUSH1 0x20 DUP3 ADD MLOAD PUSH2 0x478 PUSH1 0x20 DUP6 ADD DUP3 PUSH2 0x442 JUMP JUMPDEST POP POP POP POP JUMP JUMPDEST PUSH0 PUSH2 0x489 DUP4 DUP4 PUSH2 0x451 JUMP JUMPDEST PUSH1 0x40 DUP4 ADD SWAP1 POP SWAP3 SWAP2 POP POP JUMP JUMPDEST PUSH0 PUSH1 0x20 DUP3 ADD SWAP1 POP SWAP2 SWAP1 POP JUMP JUMPDEST PUSH0 PUSH2 0x4AB DUP3 PUSH2 0x410 JUMP JUMPDEST PUSH2 0x4B5 DUP2 DUP6 PUSH2 0x41A JUMP JUMPDEST SWAP4 POP PUSH2 0x4C0 DUP4 PUSH2 0x42A JUMP JUMPDEST DUP1 PUSH0 JUMPDEST DUP4 DUP2 LT ISZERO PUSH2 0x4F0 JUMPI DUP2 MLOAD PUSH2 0x4D7 DUP9 DUP3 PUSH2 0x47E JUMP JUMPDEST SWAP8 POP PUSH2 0x4E2 DUP4 PUSH2 0x495 JUMP JUMPDEST SWAP3 POP POP PUSH1 0x1 DUP2 ADD SWAP1 POP PUSH2 0x4C3 JUMP JUMPDEST POP DUP6 SWAP4 POP POP POP POP SWAP3 SWAP2 POP POP JUMP JUMPDEST PUSH0 PUSH1 0x80 DUP3 ADD SWAP1 POP DUP2 DUP2 SUB PUSH0 DUP4 ADD MSTORE PUSH2 0x515 DUP2 DUP8 PUSH2 0x4A1 JUMP JUMPDEST SWAP1 POP DUP2 DUP2 SUB PUSH1 0x20 DUP4 ADD MSTORE PUSH2 0x529 DUP2 DUP7 PUSH2 0x4A1 JUMP JUMPDEST SWAP1 POP DUP2 DUP2 SUB PUSH1 0x40 DUP4 ADD MSTORE PUSH2 0x53D DUP2 DUP6 PUSH2 0x4A1 JUMP JUMPDEST SWAP1 POP DUP2 DUP2 SUB PUSH1 0x60 DUP4 ADD MSTORE PUSH2 0x551 DUP2 DUP5 PUSH2 0x4A1 JUMP JUMPDEST SWAP1 POP SWAP6 SWAP5 POP POP POP POP POP JUMP JUMPDEST PUSH0 PUSH20 0xFFFFFFFFFFFFFFFFFFFFFFFFFFFFFFFFFFFFFFFF DUP3 AND SWAP1 POP SWAP2 SWAP1 POP JUMP JUMPDEST PUSH0 DUP2 SWAP1 POP SWAP2 SWAP1 POP JUMP JUMPDEST PUSH0 PUSH2 0x59E PUSH2 0x599 PUSH2 0x594 DUP5 PUSH2 0x55C JUMP JUMPDEST PUSH2 0x57B JUMP JUMPDEST PUSH2 0x55C JUMP JUMPDEST SWAP1 POP SWAP2 SWAP1 POP JUMP JUMPDEST PUSH0 PUSH2 0x5AF DUP3 PUSH2 0x584 JUMP JUMPDEST SWAP1 POP SWAP2 SWAP1 POP JUMP JUMPDEST PUSH0 PUSH2 0x5C0 DUP3 PUSH2 0x5A5 JUMP JUMPDEST SWAP1 POP SWAP2 SWAP1 POP JUMP JUMPDEST PUSH2 0x5D0 DUP2 PUSH2 0x5B6 JUMP JUMPDEST DUP3 MSTORE POP POP JUMP JUMPDEST PUSH0 PUSH1 0x20 DUP3 ADD SWAP1 POP PUSH2 0x5E9 PUSH0 DUP4 ADD DUP5 PUSH2 0x5C7 JUMP JUMPDEST SWAP3 SWAP2 POP POP JUMP JUMPDEST PUSH0 DUP2 ISZERO ISZERO SWAP1 POP SWAP2 SWAP1 POP JUMP JUMPDEST PUSH2 0x603 DUP2 PUSH2 0x5EF JUMP JUMPDEST DUP2 EQ PUSH2 0x60D JUMPI PUSH0 PUSH0 REVERT JUMPDEST POP JUMP JUMPDEST PUSH0 DUP2 CALLDATALOAD SWAP1 POP PUSH2 0x61E DUP2 PUSH2 0x5FA JUMP JUMPDEST SWAP3 SWAP2 POP POP JUMP JUMPDEST PUSH0 PUSH1 0x1F NOT PUSH1 0x1F DUP4 ADD AND SWAP1 POP SWAP2 SWAP1 POP JUMP JUMPDEST PUSH32 0x4E487B7100000000000000000000000000000000000000000000000000000000 PUSH0 MSTORE PUSH1 0x41 PUSH1 0x4 MSTORE PUSH1 0x24 PUSH0 REVERT JUMPDEST PUSH2 0x66A DUP3 PUSH2 0x624 JUMP JUMPDEST DUP2 ADD DUP2 DUP2 LT PUSH8 0xFFFFFFFFFFFFFFFF DUP3 GT OR ISZERO PUSH2 0x689 JUMPI PUSH2 0x688 PUSH2 0x634 JUMP JUMPDEST JUMPDEST DUP1 PUSH1 0x40 MSTORE POP POP POP JUMP JUMPDEST PUSH0 PUSH2 0x69B PUSH2 0x353 JUMP JUMPDEST SWAP1 POP PUSH2 0x6A7 DUP3 DUP3 PUSH2 0x661 JUMP JUMPDEST SWAP2 SWAP1 POP JUMP JUMPDEST PUSH0 PUSH8 0xFFFFFFFFFFFFFFFF DUP3 GT ISZERO PUSH2 0x6C6 JUMPI PUSH2 0x6C5 PUSH2 0x634 JUMP JUMPDEST JUMPDEST PUSH1 0x20 DUP3 MUL SWAP1 POP PUSH1 0x20 DUP2 ADD SWAP1 POP SWAP2 SWAP1 POP JUMP JUMPDEST PUSH2 0x6E0 DUP2 PUSH2 0x439 JUMP JUMPDEST DUP2 EQ PUSH2 0x6EA JUMPI PUSH0 PUSH0 REVERT JUMPDEST POP JUMP JUMPDEST PUSH0 DUP2 CALLDATALOAD SWAP1 POP PUSH2 0x6FB DUP2 PUSH2 0x6D7 JUMP JUMPDEST SWAP3 SWAP2 POP POP JUMP JUMPDEST PUSH0 PUSH2 0x713 PUSH2 0x70E DUP5 PUSH2 0x6AC JUMP JUMPDEST PUSH2 0x692 JUMP JUMPDEST SWAP1 POP DUP1 DUP4 DUP3 MSTORE PUSH1 0x20 DUP3 ADD SWAP1 POP PUSH1 0x20 DUP5 MUL DUP4 ADD DUP6 DUP2 GT ISZERO PUSH2 0x736 JUMPI PUSH2 0x735 PUSH2 0x36C JUMP JUMPDEST JUMPDEST DUP4 JUMPDEST DUP2 DUP2 LT ISZERO PUSH2 0x75F JUMPI DUP1 PUSH2 0x74B DUP9 DUP3 PUSH2 0x6ED JUMP JUMPDEST DUP5 MSTORE PUSH1 0x20 DUP5 ADD SWAP4 POP POP PUSH1 0x20 DUP2 ADD SWAP1 POP PUSH2 0x738 JUMP JUMPDEST POP POP POP SWAP4 SWAP3 POP POP POP JUMP JUMPDEST PUSH0 DUP3 PUSH1 0x1F DUP4 ADD SLT PUSH2 0x77D JUMPI PUSH2 0x77C PUSH2 0x364 JUMP JUMPDEST JUMPDEST DUP2 CALLDATALOAD PUSH2 0x78D DUP5 DUP3 PUSH1 0x20 DUP7 ADD PUSH2 0x701 JUMP JUMPDEST SWAP2 POP POP SWAP3 SWAP2 POP POP JUMP JUMPDEST PUSH0 PUSH0 PUSH0 PUSH1 0x60 DUP5 DUP7 SUB SLT ISZERO PUSH2 0x7AD JUMPI PUSH2 0x7AC PUSH2 0x35C JUMP JUMPDEST JUMPDEST PUSH0 PUSH2 0x7BA DUP7 DUP3 DUP8 ADD PUSH2 0x610 JUMP JUMPDEST SWAP4 POP POP PUSH1 0x20 DUP5 ADD CALLDATALOAD PUSH8 0xFFFFFFFFFFFFFFFF DUP2 GT ISZERO PUSH2 0x7DB JUMPI PUSH2 0x7DA PUSH2 0x360 JUMP JUMPDEST JUMPDEST PUSH2 0x7E7 DUP7 DUP3 DUP8 ADD PUSH2 0x769 JUMP JUMPDEST SWAP3 POP POP PUSH1 0x40 DUP5 ADD CALLDATALOAD PUSH8 0xFFFFFFFFFFFFFFFF DUP2 GT ISZERO PUSH2 0x808 JUMPI PUSH2 0x807 PUSH2 0x360 JUMP JUMPDEST JUMPDEST PUSH2 0x814 DUP7 DUP3 DUP8 ADD PUSH2 0x769 JUMP JUMPDEST SWAP2 POP POP SWAP3 POP SWAP3 POP SWAP3 JUMP JUMPDEST PUSH32 0x4E487B7100000000000000000000000000000000000000000000000000000000 PUSH0 MSTORE PUSH1 0x32 PUSH1 0x4 MSTORE PUSH1 0x24 PUSH0 REVERT JUMPDEST PUSH32 0x4E487B7100000000000000000000000000000000000000000000000000000000 PUSH0 MSTORE PUSH1 0x12 PUSH1 0x4 MSTORE PUSH1 0x24 PUSH0 REVERT JUMPDEST PUSH0 PUSH2 0x882 DUP3 PUSH2 0x439 JUMP JUMPDEST SWAP2 POP PUSH2 0x88D DUP4 PUSH2 0x439 JUMP JUMPDEST SWAP3 POP DUP3 PUSH2 0x89D JUMPI PUSH2 0x89C PUSH2 0x84B JUMP JUMPDEST JUMPDEST DUP3 DUP3 DIV SWAP1 POP SWAP3 SWAP2 POP POP JUMP JUMPDEST PUSH0 DUP2 MLOAD SWAP1 POP SWAP2 SWAP1 POP JUMP JUMPDEST PUSH0 DUP2 SWAP1 POP SWAP3 SWAP2 POP POP JUMP JUMPDEST PUSH0 DUP2 SWAP1 POP PUSH1 0x20 DUP3 ADD SWAP1 POP SWAP2 SWAP1 POP JUMP JUMPDEST PUSH2 0x8D4 DUP2 PUSH2 0x439 JUMP JUMPDEST DUP3 MSTORE POP POP JUMP JUMPDEST PUSH0 PUSH2 0x8E5 DUP4 DUP4 PUSH2 0x8CB JUMP JUMPDEST PUSH1 0x20 DUP4 ADD SWAP1 POP SWAP3 SWAP2 POP POP JUMP JUMPDEST PUSH0 PUSH1 0x20 DUP3 ADD SWAP1 POP SWAP2 SWAP1 POP JUMP JUMPDEST PUSH0 PUSH2 0x907 DUP3 PUSH2 0x8A8 JUMP JUMPDEST PUSH2 0x911 DUP2 DUP6 PUSH2 0x8B2 JUMP JUMPDEST SWAP4 POP PUSH2 0x91C DUP4 PUSH2 0x8BC JUMP JUMPDEST DUP1 PUSH0 JUMPDEST DUP4 DUP2 LT ISZERO PUSH2 0x94C JUMPI DUP2 MLOAD PUSH2 0x933 DUP9 DUP3 PUSH2 0x8DA JUMP JUMPDEST SWAP8 POP PUSH2 0x93E DUP4 PUSH2 0x8F1 JUMP JUMPDEST SWAP3 POP POP PUSH1 0x1 DUP2 ADD SWAP1 POP PUSH2 0x91F JUMP JUMPDEST POP DUP6 SWAP4 POP POP POP POP SWAP3 SWAP2 POP POP JUMP JUMPDEST PUSH0 PUSH2 0x964 DUP3 DUP6 PUSH2 0x8FD JUMP JUMPDEST SWAP2 POP PUSH2 0x970 DUP3 DUP5 PUSH2 0x8FD JUMP JUMPDEST SWAP2 POP DUP2 SWAP1 POP SWAP4 SWAP3 POP POP POP JUMP INVALID LOG2 PUSH5 0x6970667358 0x22 SLT KECCAK256 EQ PUSH28 0xB2A267E07E7E3C054AF4591A010D21AD016B5276FEC3CB4E1BEDBE1A PREVRANDAO SWAP14 PUSH5 0x736F6C6343 STOP ADDMOD SHR STOP CALLER "
				},
				"gasEstimates": {
					"creation": {
						"codeDepositCost": "496400",
						"executionCost": "infinite",
						"totalCost": "infinite"
					},
					"external": {
						"blueprintManager()": "infinite",
						"executeAction(bytes)": "infinite"
					}
				},
				"methodIdentifiers": {
					"blueprintManager()": "fabe109a",
					"executeAction(bytes)": "a129568d"
				}
			},
			"storageLayout": {
				"storage": [],
				"types": null
			},
			"userdoc": {
				"kind": "user",
				"methods": {
					"executeAction(bytes)": {
						"notice": "executes an action in Blueprint"
					}
				},
				"version": 1
			}
		}
	}
}