{
	"src/blueprints/wrappers/ERC1155Blueprint.sol": {
		"ERC1155Blueprint": {
			"abi": [
				{
					"inputs": [
						{
							"internalType": "contract IBlueprintManager",
							"name": "manager",
							"type": "address"
						}
					],
					"stateMutability": "nonpayable",
					"type": "constructor"
				},
				{
					"inputs": [],
					"name": "AccessDenied",
					"type": "error"
				},
				{
					"inputs": [],
					"name": "blueprintManager",
					"outputs": [
						{
							"internalType": "contract IBlueprintManager",
							"name": "",
							"type": "address"
						}
					],
					"stateMutability": "view",
					"type": "function"
				},
				{
					"inputs": [
						{
							"internalType": "bytes",
							"name": "action",
							"type": "bytes"
						}
					],
					"name": "executeAction",
					"outputs": [
						{
							"components": [
								{
									"internalType": "uint256",
									"name": "tokenId",
									"type": "uint256"
								},
								{
									"internalType": "uint256",
									"name": "amount",
									"type": "uint256"
								}
							],
							"internalType": "struct TokenOp[]",
							"name": "",
							"type": "tuple[]"
						},
						{
							"components": [
								{
									"internalType": "uint256",
									"name": "tokenId",
									"type": "uint256"
								},
								{
									"internalType": "uint256",
									"name": "amount",
									"type": "uint256"
								}
							],
							"internalType": "struct TokenOp[]",
							"name": "",
							"type": "tuple[]"
						},
						{
							"components": [
								{
									"internalType": "uint256",
									"name": "tokenId",
									"type": "uint256"
								},
								{
									"internalType": "uint256",
									"name": "amount",
									"type": "uint256"
								}
							],
							"internalType": "struct TokenOp[]",
							"name": "",
							"type": "tuple[]"
						},
						{
							"components": [
								{
									"internalType": "uint256",
									"name": "tokenId",
									"type": "uint256"
								},
								{
									"internalType": "uint256",
									"name": "amount",
									"type": "uint256"
								}
							],
							"internalType": "struct TokenOp[]",
							"name": "",
							"type": "tuple[]"
						}
					],
					"stateMutability": "nonpayable",
					"type": "function"
				},
				{
					"inputs": [
						{
							"internalType": "address",
							"name": "",
							"type": "address"
						},
						{
							"internalType": "address",
							"name": "from",
							"type": "address"
						},
						{
							"internalType": "uint256[]",
							"name": "ids",
							"type": "uint256[]"
						},
						{
							"internalType": "uint256[]",
							"name": "amounts",
							"type": "uint256[]"
						},
						{
							"internalType": "bytes",
							"name": "data",
							"type": "bytes"
						}
					],
					"name": "onERC1155BatchReceived",
					"outputs": [
						{
							"internalType": "bytes4",
							"name": "",
							"type": "bytes4"
						}
					],
					"stateMutability": "nonpayable",
					"type": "function"
				},
				{
					"inputs": [
						{
							"internalType": "address",
							"name": "",
							"type": "address"
						},
						{
							"internalType": "address",
							"name": "from",
							"type": "address"
						},
						{
							"internalType": "uint256",
							"name": "id",
							"type": "uint256"
						},
						{
							"internalType": "uint256",
							"name": "amount",
							"type": "uint256"
						},
						{
							"internalType": "bytes",
							"name": "data",
							"type": "bytes"
						}
					],
					"name": "onERC1155Received",
					"outputs": [
						{
							"internalType": "bytes4",
							"name": "",
							"type": "bytes4"
						}
					],
					"stateMutability": "nonpayable",
					"type": "function"
				}
			],
			"devdoc": {
				"kind": "dev",
				"methods": {
					"executeAction(bytes)": {
						"params": {
							"action": "a description of the action being taken"
						}
					}
				},
				"version": 1
			},
			"evm": {
				"assembly": "    /* \"src/blueprints/wrappers/ERC1155Blueprint.sol\":274:2392  contract ERC1155Blueprint is BasicBlueprint, ERC1155TokenReceiver {... */\n  mstore(0x40, 0xa0)\n    /* \"src/blueprints/wrappers/ERC1155Blueprint.sol\":343:408  constructor(IBlueprintManager manager) BasicBlueprint(manager) {} */\n  callvalue\n  dup1\n  iszero\n  tag_1\n  jumpi\n  revert(0x00, 0x00)\ntag_1:\n  pop\n  mload(0x40)\n  sub(codesize, bytecodeSize)\n  dup1\n  bytecodeSize\n  dup4\n  codecopy\n  dup2\n  dup2\n  add\n  0x40\n  mstore\n  dup2\n  add\n  swap1\n  tag_2\n  swap2\n  swap1\n  tag_3\n  jump\t// in\ntag_2:\n    /* \"src/blueprints/wrappers/ERC1155Blueprint.sol\":397:404  manager */\n  dup1\n    /* \"src/blueprints/BasicBlueprint.sol\":403:420  _blueprintManager */\n  dup1\n    /* \"src/blueprints/BasicBlueprint.sol\":384:420  blueprintManager = _blueprintManager */\n  0xffffffffffffffffffffffffffffffffffffffff\n  and\n  0x80\n  dup2\n  0xffffffffffffffffffffffffffffffffffffffff\n  and\n  dup2\n  mstore\n  pop\n  pop\n    /* \"src/blueprints/BasicBlueprint.sol\":331:424  constructor(IBlueprintManager _blueprintManager) {... */\n  pop\n    /* \"src/blueprints/wrappers/ERC1155Blueprint.sol\":343:408  constructor(IBlueprintManager manager) BasicBlueprint(manager) {} */\n  pop\n    /* \"src/blueprints/wrappers/ERC1155Blueprint.sol\":274:2392  contract ERC1155Blueprint is BasicBlueprint, ERC1155TokenReceiver {... */\n  jump(tag_8)\n    /* \"#utility.yul\":88:205   */\ntag_10:\n    /* \"#utility.yul\":197:198   */\n  0x00\n    /* \"#utility.yul\":194:195   */\n  0x00\n    /* \"#utility.yul\":187:199   */\n  revert\n    /* \"#utility.yul\":334:460   */\ntag_12:\n    /* \"#utility.yul\":371:378   */\n  0x00\n    /* \"#utility.yul\":411:453   */\n  0xffffffffffffffffffffffffffffffffffffffff\n    /* \"#utility.yul\":404:409   */\n  dup3\n    /* \"#utility.yul\":400:454   */\n  and\n    /* \"#utility.yul\":389:454   */\n  swap1\n  pop\n    /* \"#utility.yul\":334:460   */\n  swap2\n  swap1\n  pop\n  jump\t// out\n    /* \"#utility.yul\":466:562   */\ntag_13:\n    /* \"#utility.yul\":503:510   */\n  0x00\n    /* \"#utility.yul\":532:556   */\n  tag_23\n    /* \"#utility.yul\":550:555   */\n  dup3\n    /* \"#utility.yul\":532:556   */\n  tag_12\n  jump\t// in\ntag_23:\n    /* \"#utility.yul\":521:556   */\n  swap1\n  pop\n    /* \"#utility.yul\":466:562   */\n  swap2\n  swap1\n  pop\n  jump\t// out\n    /* \"#utility.yul\":568:690   */\ntag_14:\n    /* \"#utility.yul\":631:638   */\n  0x00\n    /* \"#utility.yul\":660:684   */\n  tag_25\n    /* \"#utility.yul\":678:683   */\n  dup3\n    /* \"#utility.yul\":660:684   */\n  tag_13\n  jump\t// in\ntag_25:\n    /* \"#utility.yul\":649:684   */\n  swap1\n  pop\n    /* \"#utility.yul\":568:690   */\n  swap2\n  swap1\n  pop\n  jump\t// out\n    /* \"#utility.yul\":696:870   */\ntag_15:\n    /* \"#utility.yul\":795:845   */\n  tag_27\n    /* \"#utility.yul\":839:844   */\n  dup2\n    /* \"#utility.yul\":795:845   */\n  tag_14\n  jump\t// in\ntag_27:\n    /* \"#utility.yul\":788:793   */\n  dup2\n    /* \"#utility.yul\":785:846   */\n  eq\n    /* \"#utility.yul\":775:864   */\n  tag_28\n  jumpi\n    /* \"#utility.yul\":860:861   */\n  0x00\n    /* \"#utility.yul\":857:858   */\n  0x00\n    /* \"#utility.yul\":850:862   */\n  revert\n    /* \"#utility.yul\":775:864   */\ntag_28:\n    /* \"#utility.yul\":696:870   */\n  pop\n  jump\t// out\n    /* \"#utility.yul\":876:1071   */\ntag_16:\n    /* \"#utility.yul\":959:964   */\n  0x00\n    /* \"#utility.yul\":990:996   */\n  dup2\n    /* \"#utility.yul\":984:997   */\n  mload\n    /* \"#utility.yul\":975:997   */\n  swap1\n  pop\n    /* \"#utility.yul\":1006:1065   */\n  tag_30\n    /* \"#utility.yul\":1059:1064   */\n  dup2\n    /* \"#utility.yul\":1006:1065   */\n  tag_15\n  jump\t// in\ntag_30:\n    /* \"#utility.yul\":876:1071   */\n  swap3\n  swap2\n  pop\n  pop\n  jump\t// out\n    /* \"#utility.yul\":1077:1480   */\ntag_3:\n    /* \"#utility.yul\":1173:1179   */\n  0x00\n    /* \"#utility.yul\":1222:1224   */\n  0x20\n    /* \"#utility.yul\":1210:1219   */\n  dup3\n    /* \"#utility.yul\":1201:1208   */\n  dup5\n    /* \"#utility.yul\":1197:1220   */\n  sub\n    /* \"#utility.yul\":1193:1225   */\n  slt\n    /* \"#utility.yul\":1190:1309   */\n  iszero\n  tag_32\n  jumpi\n    /* \"#utility.yul\":1228:1307   */\n  tag_33\n  tag_10\n  jump\t// in\ntag_33:\n    /* \"#utility.yul\":1190:1309   */\ntag_32:\n    /* \"#utility.yul\":1348:1349   */\n  0x00\n    /* \"#utility.yul\":1373:1463   */\n  tag_34\n    /* \"#utility.yul\":1455:1462   */\n  dup5\n    /* \"#utility.yul\":1446:1452   */\n  dup3\n    /* \"#utility.yul\":1435:1444   */\n  dup6\n    /* \"#utility.yul\":1431:1453   */\n  add\n    /* \"#utility.yul\":1373:1463   */\n  tag_16\n  jump\t// in\ntag_34:\n    /* \"#utility.yul\":1363:1463   */\n  swap2\n  pop\n    /* \"#utility.yul\":1319:1473   */\n  pop\n    /* \"#utility.yul\":1077:1480   */\n  swap3\n  swap2\n  pop\n  pop\n  jump\t// out\n    /* \"src/blueprints/wrappers/ERC1155Blueprint.sol\":274:2392  contract ERC1155Blueprint is BasicBlueprint, ERC1155TokenReceiver {... */\ntag_8:\n  mload(0x80)\n  codecopy(0x00, dataOffset(sub_0), dataSize(sub_0))\n  0x00\n  assignImmutable(\"0x14028529694bbadf19d0099511131dca05206f90c127da39b90cbf164c5fbe0c\")\n  return(0x00, dataSize(sub_0))\nstop\n\nsub_0: assembly {\n        /* \"src/blueprints/wrappers/ERC1155Blueprint.sol\":274:2392  contract ERC1155Blueprint is BasicBlueprint, ERC1155TokenReceiver {... */\n      mstore(0x40, 0x80)\n      callvalue\n      dup1\n      iszero\n      tag_1\n      jumpi\n      revert(0x00, 0x00)\n    tag_1:\n      pop\n      jumpi(tag_2, lt(calldatasize, 0x04))\n      shr(0xe0, calldataload(0x00))\n      dup1\n      0xa129568d\n      eq\n      tag_3\n      jumpi\n      dup1\n      0xbc197c81\n      eq\n      tag_4\n      jumpi\n      dup1\n      0xf23a6e61\n      eq\n      tag_5\n      jumpi\n      dup1\n      0xfabe109a\n      eq\n      tag_6\n      jumpi\n    tag_2:\n      revert(0x00, 0x00)\n        /* \"src/blueprints/wrappers/ERC1155Blueprint.sol\":1763:2390  function executeAction(bytes calldata action) external onlyManager returns (... */\n    tag_3:\n      tag_7\n      0x04\n      dup1\n      calldatasize\n      sub\n      dup2\n      add\n      swap1\n      tag_8\n      swap2\n      swap1\n      tag_9\n      jump\t// in\n    tag_8:\n      tag_10\n      jump\t// in\n    tag_7:\n      mload(0x40)\n      tag_11\n      swap5\n      swap4\n      swap3\n      swap2\n      swap1\n      tag_12\n      jump\t// in\n    tag_11:\n      mload(0x40)\n      dup1\n      swap2\n      sub\n      swap1\n      return\n        /* \"src/blueprints/wrappers/ERC1155Blueprint.sol\":1271:1760  function onERC1155BatchReceived(... */\n    tag_4:\n      tag_13\n      0x04\n      dup1\n      calldatasize\n      sub\n      dup2\n      add\n      swap1\n      tag_14\n      swap2\n      swap1\n      tag_15\n      jump\t// in\n    tag_14:\n      tag_16\n      jump\t// in\n    tag_13:\n      mload(0x40)\n      tag_17\n      swap2\n      swap1\n      tag_18\n      jump\t// in\n    tag_17:\n      mload(0x40)\n      dup1\n      swap2\n      sub\n      swap1\n      return\n        /* \"src/blueprints/wrappers/ERC1155Blueprint.sol\":708:1265  function onERC1155Received(... */\n    tag_5:\n      tag_19\n      0x04\n      dup1\n      calldatasize\n      sub\n      dup2\n      add\n      swap1\n      tag_20\n      swap2\n      swap1\n      tag_21\n      jump\t// in\n    tag_20:\n      tag_22\n      jump\t// in\n    tag_19:\n      mload(0x40)\n      tag_23\n      swap2\n      swap1\n      tag_18\n      jump\t// in\n    tag_23:\n      mload(0x40)\n      dup1\n      swap2\n      sub\n      swap1\n      return\n        /* \"src/blueprints/BasicBlueprint.sol\":252:303  IBlueprintManager immutable public blueprintManager */\n    tag_6:\n      tag_24\n      tag_25\n      jump\t// in\n    tag_24:\n      mload(0x40)\n      tag_26\n      swap2\n      swap1\n      tag_27\n      jump\t// in\n    tag_26:\n      mload(0x40)\n      dup1\n      swap2\n      sub\n      swap1\n      return\n        /* \"src/blueprints/wrappers/ERC1155Blueprint.sol\":1763:2390  function executeAction(bytes calldata action) external onlyManager returns (... */\n    tag_10:\n        /* \"src/blueprints/wrappers/ERC1155Blueprint.sol\":1842:1858  TokenOp[] memory */\n      0x60\n        /* \"src/blueprints/wrappers/ERC1155Blueprint.sol\":1871:1887  TokenOp[] memory */\n      dup1\n        /* \"src/blueprints/wrappers/ERC1155Blueprint.sol\":1900:1916  TokenOp[] memory */\n      0x60\n        /* \"src/blueprints/wrappers/ERC1155Blueprint.sol\":1929:1945  TokenOp[] memory */\n      dup1\n        /* \"src/blueprints/BasicBlueprint.sol\":480:496  blueprintManager */\n      immutable(\"0x14028529694bbadf19d0099511131dca05206f90c127da39b90cbf164c5fbe0c\")\n        /* \"src/blueprints/BasicBlueprint.sol\":458:497  msg.sender != address(blueprintManager) */\n      0xffffffffffffffffffffffffffffffffffffffff\n      and\n        /* \"src/blueprints/BasicBlueprint.sol\":458:468  msg.sender */\n      caller\n        /* \"src/blueprints/BasicBlueprint.sol\":458:497  msg.sender != address(blueprintManager) */\n      0xffffffffffffffffffffffffffffffffffffffff\n      and\n      eq\n        /* \"src/blueprints/BasicBlueprint.sol\":454:523  if (msg.sender != address(blueprintManager))... */\n      tag_29\n      jumpi\n        /* \"src/blueprints/BasicBlueprint.sol\":509:523  AccessDenied() */\n      mload(0x40)\n      0x4ca8886700000000000000000000000000000000000000000000000000000000\n      dup2\n      mstore\n      0x04\n      add\n      mload(0x40)\n      dup1\n      swap2\n      sub\n      swap1\n      revert\n        /* \"src/blueprints/BasicBlueprint.sol\":454:523  if (msg.sender != address(blueprintManager))... */\n    tag_29:\n        /* \"src/blueprints/wrappers/ERC1155Blueprint.sol\":2046:2061  address erc1155 */\n      0x00\n        /* \"src/blueprints/wrappers/ERC1155Blueprint.sol\":2063:2073  address to */\n      0x00\n        /* \"src/blueprints/wrappers/ERC1155Blueprint.sol\":2075:2095  uint256[] memory ids */\n      0x00\n        /* \"src/blueprints/wrappers/ERC1155Blueprint.sol\":2097:2121  uint256[] memory amounts */\n      0x00\n        /* \"src/blueprints/wrappers/ERC1155Blueprint.sol\":2123:2140  bytes memory data */\n      0x00\n        /* \"src/blueprints/wrappers/ERC1155Blueprint.sol\":2158:2164  action */\n      dup11\n      dup11\n        /* \"src/blueprints/wrappers/ERC1155Blueprint.sol\":2147:2214  abi.decode(action, (address, address, uint256[], uint256[], bytes)) */\n      dup2\n      add\n      swap1\n      tag_31\n      swap2\n      swap1\n      tag_32\n      jump\t// in\n    tag_31:\n        /* \"src/blueprints/wrappers/ERC1155Blueprint.sol\":2045:2214  (address erc1155, address to, uint256[] memory ids, uint256[] memory amounts, bytes memory data) =... */\n      swap5\n      pop\n      swap5\n      pop\n      swap5\n      pop\n      swap5\n      pop\n      swap5\n      pop\n        /* \"src/blueprints/wrappers/ERC1155Blueprint.sol\":2227:2234  erc1155 */\n      dup5\n        /* \"src/blueprints/wrappers/ERC1155Blueprint.sol\":2219:2257  ERC1155(erc1155).safeBatchTransferFrom */\n      0xffffffffffffffffffffffffffffffffffffffff\n      and\n      0x2eb2c2d6\n        /* \"src/blueprints/wrappers/ERC1155Blueprint.sol\":2266:2270  this */\n      address\n        /* \"src/blueprints/wrappers/ERC1155Blueprint.sol\":2273:2275  to */\n      dup7\n        /* \"src/blueprints/wrappers/ERC1155Blueprint.sol\":2277:2280  ids */\n      dup7\n        /* \"src/blueprints/wrappers/ERC1155Blueprint.sol\":2282:2289  amounts */\n      dup7\n        /* \"src/blueprints/wrappers/ERC1155Blueprint.sol\":2291:2295  data */\n      dup7\n        /* \"src/blueprints/wrappers/ERC1155Blueprint.sol\":2219:2296  ERC1155(erc1155).safeBatchTransferFrom(address(this), to, ids, amounts, data) */\n      mload(0x40)\n      dup7\n      0xffffffff\n      and\n      0xe0\n      shl\n      dup2\n      mstore\n      0x04\n      add\n      tag_33\n      swap6\n      swap5\n      swap4\n      swap3\n      swap2\n      swap1\n      tag_34\n      jump\t// in\n    tag_33:\n      0x00\n      mload(0x40)\n      dup1\n      dup4\n      sub\n      dup2\n      0x00\n      dup8\n      dup1\n      extcodesize\n      iszero\n      dup1\n      iszero\n      tag_35\n      jumpi\n      revert(0x00, 0x00)\n    tag_35:\n      pop\n      gas\n      call\n      iszero\n      dup1\n      iszero\n      tag_37\n      jumpi\n      returndatacopy(0x00, 0x00, returndatasize)\n      revert(0x00, returndatasize)\n    tag_37:\n      pop\n      pop\n      pop\n      pop\n        /* \"src/blueprints/wrappers/ERC1155Blueprint.sol\":2313:2319  zero() */\n      tag_38\n        /* \"src/blueprints/wrappers/ERC1155Blueprint.sol\":2313:2317  zero */\n      tag_39\n        /* \"src/blueprints/wrappers/ERC1155Blueprint.sol\":2313:2319  zero() */\n      jump\t// in\n    tag_38:\n        /* \"src/blueprints/wrappers/ERC1155Blueprint.sol\":2324:2360  getOperations(erc1155, ids, amounts) */\n      tag_40\n        /* \"src/blueprints/wrappers/ERC1155Blueprint.sol\":2338:2345  erc1155 */\n      dup7\n        /* \"src/blueprints/wrappers/ERC1155Blueprint.sol\":2347:2350  ids */\n      dup6\n        /* \"src/blueprints/wrappers/ERC1155Blueprint.sol\":2352:2359  amounts */\n      dup6\n        /* \"src/blueprints/wrappers/ERC1155Blueprint.sol\":2324:2337  getOperations */\n      tag_41\n        /* \"src/blueprints/wrappers/ERC1155Blueprint.sol\":2324:2360  getOperations(erc1155, ids, amounts) */\n      jump\t// in\n    tag_40:\n        /* \"src/blueprints/wrappers/ERC1155Blueprint.sol\":2365:2371  zero() */\n      tag_42\n        /* \"src/blueprints/wrappers/ERC1155Blueprint.sol\":2365:2369  zero */\n      tag_39\n        /* \"src/blueprints/wrappers/ERC1155Blueprint.sol\":2365:2371  zero() */\n      jump\t// in\n    tag_42:\n        /* \"src/blueprints/wrappers/ERC1155Blueprint.sol\":2376:2382  zero() */\n      tag_43\n        /* \"src/blueprints/wrappers/ERC1155Blueprint.sol\":2376:2380  zero */\n      tag_39\n        /* \"src/blueprints/wrappers/ERC1155Blueprint.sol\":2376:2382  zero() */\n      jump\t// in\n    tag_43:\n        /* \"src/blueprints/wrappers/ERC1155Blueprint.sol\":2301:2386  return (... */\n      swap9\n      pop\n      swap9\n      pop\n      swap9\n      pop\n      swap9\n      pop\n      pop\n      pop\n      pop\n      pop\n      pop\n        /* \"src/blueprints/wrappers/ERC1155Blueprint.sol\":1763:2390  function executeAction(bytes calldata action) external onlyManager returns (... */\n      swap3\n      swap6\n      swap2\n      swap5\n      pop\n      swap3\n      pop\n      jump\t// out\n        /* \"src/blueprints/wrappers/ERC1155Blueprint.sol\":1271:1760  function onERC1155BatchReceived(... */\n    tag_16:\n        /* \"src/blueprints/wrappers/ERC1155Blueprint.sol\":1469:1475  bytes4 */\n      0x00\n        /* \"src/blueprints/wrappers/ERC1155Blueprint.sol\":1534:1544  address to */\n      0x00\n        /* \"src/blueprints/wrappers/ERC1155Blueprint.sol\":1547:1551  from */\n      dup7\n        /* \"src/blueprints/wrappers/ERC1155Blueprint.sol\":1534:1551  address to = from */\n      swap1\n      pop\n        /* \"src/blueprints/wrappers/ERC1155Blueprint.sol\":1574:1575  0 */\n      0x00\n        /* \"src/blueprints/wrappers/ERC1155Blueprint.sol\":1559:1563  data */\n      dup5\n      dup5\n        /* \"src/blueprints/wrappers/ERC1155Blueprint.sol\":1559:1570  data.length */\n      swap1\n      pop\n        /* \"src/blueprints/wrappers/ERC1155Blueprint.sol\":1559:1575  data.length != 0 */\n      eq\n        /* \"src/blueprints/wrappers/ERC1155Blueprint.sol\":1555:1612  if (data.length != 0)... */\n      tag_45\n      jumpi\n        /* \"src/blueprints/wrappers/ERC1155Blueprint.sol\":1596:1600  data */\n      dup4\n      dup4\n        /* \"src/blueprints/wrappers/ERC1155Blueprint.sol\":1585:1612  abi.decode(data, (address)) */\n      dup2\n      add\n      swap1\n      tag_46\n      swap2\n      swap1\n      tag_47\n      jump\t// in\n    tag_46:\n        /* \"src/blueprints/wrappers/ERC1155Blueprint.sol\":1580:1612  to = abi.decode(data, (address)) */\n      swap1\n      pop\n        /* \"src/blueprints/wrappers/ERC1155Blueprint.sol\":1555:1612  if (data.length != 0)... */\n    tag_45:\n        /* \"src/blueprints/wrappers/ERC1155Blueprint.sol\":1617:1633  blueprintManager */\n      immutable(\"0x14028529694bbadf19d0099511131dca05206f90c127da39b90cbf164c5fbe0c\")\n        /* \"src/blueprints/wrappers/ERC1155Blueprint.sol\":1617:1638  blueprintManager.mint */\n      0xffffffffffffffffffffffffffffffffffffffff\n      and\n      0xf3178dd1\n        /* \"src/blueprints/wrappers/ERC1155Blueprint.sol\":1639:1641  to */\n      dup3\n        /* \"src/blueprints/wrappers/ERC1155Blueprint.sol\":1643:1682  getOperations(msg.sender, ids, amounts) */\n      tag_48\n        /* \"src/blueprints/wrappers/ERC1155Blueprint.sol\":1657:1667  msg.sender */\n      caller\n        /* \"src/blueprints/wrappers/ERC1155Blueprint.sol\":1669:1672  ids */\n      dup11\n        /* \"src/blueprints/wrappers/ERC1155Blueprint.sol\":1674:1681  amounts */\n      dup11\n        /* \"src/blueprints/wrappers/ERC1155Blueprint.sol\":1643:1656  getOperations */\n      tag_41\n        /* \"src/blueprints/wrappers/ERC1155Blueprint.sol\":1643:1682  getOperations(msg.sender, ids, amounts) */\n      jump\t// in\n    tag_48:\n        /* \"src/blueprints/wrappers/ERC1155Blueprint.sol\":1617:1683  blueprintManager.mint(to, getOperations(msg.sender, ids, amounts)) */\n      mload(0x40)\n      dup4\n      0xffffffff\n      and\n      0xe0\n      shl\n      dup2\n      mstore\n      0x04\n      add\n      tag_49\n      swap3\n      swap2\n      swap1\n      tag_50\n      jump\t// in\n    tag_49:\n      0x00\n      mload(0x40)\n      dup1\n      dup4\n      sub\n      dup2\n      0x00\n      dup8\n      dup1\n      extcodesize\n      iszero\n      dup1\n      iszero\n      tag_51\n      jumpi\n      revert(0x00, 0x00)\n    tag_51:\n      pop\n      gas\n      call\n      iszero\n      dup1\n      iszero\n      tag_53\n      jumpi\n      returndatacopy(0x00, 0x00, returndatasize)\n      revert(0x00, returndatasize)\n    tag_53:\n      pop\n      pop\n      pop\n      pop\n        /* \"src/blueprints/wrappers/ERC1155Blueprint.sol\":1701:1753  ERC1155TokenReceiver.onERC1155BatchReceived.selector */\n      shl(0xe0, 0xbc197c81)\n        /* \"src/blueprints/wrappers/ERC1155Blueprint.sol\":1694:1753  return ERC1155TokenReceiver.onERC1155BatchReceived.selector */\n      swap2\n      pop\n      pop\n        /* \"src/blueprints/wrappers/ERC1155Blueprint.sol\":1271:1760  function onERC1155BatchReceived(... */\n      swap7\n      swap6\n      pop\n      pop\n      pop\n      pop\n      pop\n      pop\n      jump\t// out\n        /* \"src/blueprints/wrappers/ERC1155Blueprint.sol\":708:1265  function onERC1155Received(... */\n    tag_22:\n        /* \"src/blueprints/wrappers/ERC1155Blueprint.sol\":860:866  bytes4 */\n      0x00\n        /* \"src/blueprints/wrappers/ERC1155Blueprint.sol\":925:935  address to */\n      0x00\n        /* \"src/blueprints/wrappers/ERC1155Blueprint.sol\":938:942  from */\n      dup7\n        /* \"src/blueprints/wrappers/ERC1155Blueprint.sol\":925:942  address to = from */\n      swap1\n      pop\n        /* \"src/blueprints/wrappers/ERC1155Blueprint.sol\":965:966  0 */\n      0x00\n        /* \"src/blueprints/wrappers/ERC1155Blueprint.sol\":950:954  data */\n      dup5\n      dup5\n        /* \"src/blueprints/wrappers/ERC1155Blueprint.sol\":950:961  data.length */\n      swap1\n      pop\n        /* \"src/blueprints/wrappers/ERC1155Blueprint.sol\":950:966  data.length != 0 */\n      eq\n        /* \"src/blueprints/wrappers/ERC1155Blueprint.sol\":946:1003  if (data.length != 0)... */\n      tag_55\n      jumpi\n        /* \"src/blueprints/wrappers/ERC1155Blueprint.sol\":987:991  data */\n      dup4\n      dup4\n        /* \"src/blueprints/wrappers/ERC1155Blueprint.sol\":976:1003  abi.decode(data, (address)) */\n      dup2\n      add\n      swap1\n      tag_56\n      swap2\n      swap1\n      tag_47\n      jump\t// in\n    tag_56:\n        /* \"src/blueprints/wrappers/ERC1155Blueprint.sol\":971:1003  to = abi.decode(data, (address)) */\n      swap1\n      pop\n        /* \"src/blueprints/wrappers/ERC1155Blueprint.sol\":946:1003  if (data.length != 0)... */\n    tag_55:\n        /* \"src/blueprints/wrappers/ERC1155Blueprint.sol\":1133:1149  blueprintManager */\n      immutable(\"0x14028529694bbadf19d0099511131dca05206f90c127da39b90cbf164c5fbe0c\")\n        /* \"src/blueprints/wrappers/ERC1155Blueprint.sol\":1133:1154  blueprintManager.mint */\n      0xffffffffffffffffffffffffffffffffffffffff\n      and\n      0x156e29f6\n        /* \"src/blueprints/wrappers/ERC1155Blueprint.sol\":1155:1157  to */\n      dup3\n        /* \"src/blueprints/wrappers/ERC1155Blueprint.sol\":1159:1193  HashLib.getTokenId(msg.sender, id) */\n      tag_57\n        /* \"src/blueprints/wrappers/ERC1155Blueprint.sol\":1178:1188  msg.sender */\n      caller\n        /* \"src/blueprints/wrappers/ERC1155Blueprint.sol\":1190:1192  id */\n      dup11\n        /* \"src/blueprints/wrappers/ERC1155Blueprint.sol\":1159:1177  HashLib.getTokenId */\n      tag_58\n        /* \"src/blueprints/wrappers/ERC1155Blueprint.sol\":1159:1193  HashLib.getTokenId(msg.sender, id) */\n      jump\t// in\n    tag_57:\n        /* \"src/blueprints/wrappers/ERC1155Blueprint.sol\":1195:1201  amount */\n      dup9\n        /* \"src/blueprints/wrappers/ERC1155Blueprint.sol\":1133:1202  blueprintManager.mint(to, HashLib.getTokenId(msg.sender, id), amount) */\n      mload(0x40)\n      dup5\n      0xffffffff\n      and\n      0xe0\n      shl\n      dup2\n      mstore\n      0x04\n      add\n      tag_59\n      swap4\n      swap3\n      swap2\n      swap1\n      tag_60\n      jump\t// in\n    tag_59:\n      0x00\n      mload(0x40)\n      dup1\n      dup4\n      sub\n      dup2\n      0x00\n      dup8\n      dup1\n      extcodesize\n      iszero\n      dup1\n      iszero\n      tag_61\n      jumpi\n      revert(0x00, 0x00)\n    tag_61:\n      pop\n      gas\n      call\n      iszero\n      dup1\n      iszero\n      tag_63\n      jumpi\n      returndatacopy(0x00, 0x00, returndatasize)\n      revert(0x00, returndatasize)\n    tag_63:\n      pop\n      pop\n      pop\n      pop\n        /* \"src/blueprints/wrappers/ERC1155Blueprint.sol\":1214:1261  ERC1155TokenReceiver.onERC1155Received.selector */\n      shl(0xe0, 0xf23a6e61)\n        /* \"src/blueprints/wrappers/ERC1155Blueprint.sol\":1207:1261  return ERC1155TokenReceiver.onERC1155Received.selector */\n      swap2\n      pop\n      pop\n        /* \"src/blueprints/wrappers/ERC1155Blueprint.sol\":708:1265  function onERC1155Received(... */\n      swap7\n      swap6\n      pop\n      pop\n      pop\n      pop\n      pop\n      pop\n      jump\t// out\n        /* \"src/blueprints/BasicBlueprint.sol\":252:303  IBlueprintManager immutable public blueprintManager */\n    tag_25:\n      immutable(\"0x14028529694bbadf19d0099511131dca05206f90c127da39b90cbf164c5fbe0c\")\n      dup2\n      jump\t// out\n        /* \"src/blueprints/BasicBlueprint.sol\":536:645  function zero() internal pure returns (TokenOp[] memory z) {... */\n    tag_39:\n        /* \"src/blueprints/BasicBlueprint.sol\":575:593  TokenOp[] memory z */\n      0x60\n        /* \"src/blueprints/BasicBlueprint.sol\":536:645  function zero() internal pure returns (TokenOp[] memory z) {... */\n      swap1\n      jump\t// out\n        /* \"src/blueprints/wrappers/ERC1155Blueprint.sol\":411:705  function getOperations(... */\n    tag_41:\n        /* \"src/blueprints/wrappers/ERC1155Blueprint.sol\":531:551  TokenOp[] memory ops */\n      0x60\n        /* \"src/blueprints/wrappers/ERC1155Blueprint.sol\":577:580  ids */\n      dup3\n        /* \"src/blueprints/wrappers/ERC1155Blueprint.sol\":577:587  ids.length */\n      mload\n        /* \"src/blueprints/wrappers/ERC1155Blueprint.sol\":563:588  new TokenOp[](ids.length) */\n      0xffffffffffffffff\n      dup2\n      gt\n      iszero\n      tag_66\n      jumpi\n      tag_67\n      tag_68\n      jump\t// in\n    tag_67:\n    tag_66:\n      mload(0x40)\n      swap1\n      dup1\n      dup3\n      mstore\n      dup1\n      0x20\n      mul\n      0x20\n      add\n      dup3\n      add\n      0x40\n      mstore\n      dup1\n      iszero\n      tag_69\n      jumpi\n      dup2\n      0x20\n      add\n    tag_70:\n      tag_71\n      tag_72\n      jump\t// in\n    tag_71:\n      dup2\n      mstore\n      0x20\n      add\n      swap1\n      0x01\n      swap1\n      sub\n      swap1\n      dup2\n      tag_70\n      jumpi\n      swap1\n      pop\n    tag_69:\n      pop\n        /* \"src/blueprints/wrappers/ERC1155Blueprint.sol\":557:588  ops = new TokenOp[](ids.length) */\n      swap1\n      pop\n        /* \"src/blueprints/wrappers/ERC1155Blueprint.sol\":597:606  uint256 i */\n      0x00\n        /* \"src/blueprints/wrappers/ERC1155Blueprint.sol\":609:610  0 */\n      0x00\n        /* \"src/blueprints/wrappers/ERC1155Blueprint.sol\":597:610  uint256 i = 0 */\n      swap1\n      pop\n        /* \"src/blueprints/wrappers/ERC1155Blueprint.sol\":592:701  for (uint256 i = 0; i < ids.length; i++)... */\n    tag_73:\n        /* \"src/blueprints/wrappers/ERC1155Blueprint.sol\":616:619  ids */\n      dup4\n        /* \"src/blueprints/wrappers/ERC1155Blueprint.sol\":616:626  ids.length */\n      mload\n        /* \"src/blueprints/wrappers/ERC1155Blueprint.sol\":612:613  i */\n      dup2\n        /* \"src/blueprints/wrappers/ERC1155Blueprint.sol\":612:626  i < ids.length */\n      lt\n        /* \"src/blueprints/wrappers/ERC1155Blueprint.sol\":592:701  for (uint256 i = 0; i < ids.length; i++)... */\n      iszero\n      tag_74\n      jumpi\n        /* \"src/blueprints/wrappers/ERC1155Blueprint.sol\":645:701  TokenOp(HashLib.getTokenId(erc1155, ids[i]), amounts[i]) */\n      mload(0x40)\n      dup1\n      0x40\n      add\n      0x40\n      mstore\n      dup1\n        /* \"src/blueprints/wrappers/ERC1155Blueprint.sol\":653:688  HashLib.getTokenId(erc1155, ids[i]) */\n      tag_76\n        /* \"src/blueprints/wrappers/ERC1155Blueprint.sol\":672:679  erc1155 */\n      dup8\n        /* \"src/blueprints/wrappers/ERC1155Blueprint.sol\":681:684  ids */\n      dup8\n        /* \"src/blueprints/wrappers/ERC1155Blueprint.sol\":685:686  i */\n      dup6\n        /* \"src/blueprints/wrappers/ERC1155Blueprint.sol\":681:687  ids[i] */\n      dup2\n      mload\n      dup2\n      lt\n      tag_77\n      jumpi\n      tag_78\n      tag_79\n      jump\t// in\n    tag_78:\n    tag_77:\n      0x20\n      mul\n      0x20\n      add\n      add\n      mload\n        /* \"src/blueprints/wrappers/ERC1155Blueprint.sol\":653:671  HashLib.getTokenId */\n      tag_58\n        /* \"src/blueprints/wrappers/ERC1155Blueprint.sol\":653:688  HashLib.getTokenId(erc1155, ids[i]) */\n      jump\t// in\n    tag_76:\n        /* \"src/blueprints/wrappers/ERC1155Blueprint.sol\":645:701  TokenOp(HashLib.getTokenId(erc1155, ids[i]), amounts[i]) */\n      dup2\n      mstore\n      0x20\n      add\n        /* \"src/blueprints/wrappers/ERC1155Blueprint.sol\":690:697  amounts */\n      dup5\n        /* \"src/blueprints/wrappers/ERC1155Blueprint.sol\":698:699  i */\n      dup4\n        /* \"src/blueprints/wrappers/ERC1155Blueprint.sol\":690:700  amounts[i] */\n      dup2\n      mload\n      dup2\n      lt\n      tag_80\n      jumpi\n      tag_81\n      tag_79\n      jump\t// in\n    tag_81:\n    tag_80:\n      0x20\n      mul\n      0x20\n      add\n      add\n      mload\n        /* \"src/blueprints/wrappers/ERC1155Blueprint.sol\":645:701  TokenOp(HashLib.getTokenId(erc1155, ids[i]), amounts[i]) */\n      dup2\n      mstore\n      pop\n        /* \"src/blueprints/wrappers/ERC1155Blueprint.sol\":636:639  ops */\n      dup3\n        /* \"src/blueprints/wrappers/ERC1155Blueprint.sol\":640:641  i */\n      dup3\n        /* \"src/blueprints/wrappers/ERC1155Blueprint.sol\":636:642  ops[i] */\n      dup2\n      mload\n      dup2\n      lt\n      tag_82\n      jumpi\n      tag_83\n      tag_79\n      jump\t// in\n    tag_83:\n    tag_82:\n      0x20\n      mul\n      0x20\n      add\n      add\n        /* \"src/blueprints/wrappers/ERC1155Blueprint.sol\":636:701  ops[i] = TokenOp(HashLib.getTokenId(erc1155, ids[i]), amounts[i]) */\n      dup2\n      swap1\n      mstore\n      pop\n        /* \"src/blueprints/wrappers/ERC1155Blueprint.sol\":628:631  i++ */\n      dup1\n      dup1\n      0x01\n      add\n      swap2\n      pop\n      pop\n        /* \"src/blueprints/wrappers/ERC1155Blueprint.sol\":592:701  for (uint256 i = 0; i < ids.length; i++)... */\n      jump(tag_73)\n    tag_74:\n      pop\n        /* \"src/blueprints/wrappers/ERC1155Blueprint.sol\":411:705  function getOperations(... */\n      swap4\n      swap3\n      pop\n      pop\n      pop\n      jump\t// out\n        /* \"src/libraries/HashLib.sol\":147:365  function getTokenId(... */\n    tag_58:\n        /* \"src/libraries/HashLib.sol\":237:247  uint256 id */\n      0x00\n        /* \"src/libraries/HashLib.sol\":293:302  blueprint */\n      dup3\n        /* \"src/libraries/HashLib.sol\":290:291  0 */\n      0x00\n        /* \"src/libraries/HashLib.sol\":283:303  mstore(0, blueprint) */\n      mstore\n        /* \"src/libraries/HashLib.sol\":320:329  foreignId */\n      dup2\n        /* \"src/libraries/HashLib.sol\":314:318  0x20 */\n      0x20\n        /* \"src/libraries/HashLib.sol\":307:330  mstore(0x20, foreignId) */\n      mstore\n        /* \"src/libraries/HashLib.sol\":355:357  52 */\n      0x34\n        /* \"src/libraries/HashLib.sol\":351:353  12 */\n      0x0c\n        /* \"src/libraries/HashLib.sol\":341:358  keccak256(12, 52) */\n      keccak256\n        /* \"src/libraries/HashLib.sol\":335:358  id := keccak256(12, 52) */\n      swap1\n      pop\n        /* \"src/libraries/HashLib.sol\":147:365  function getTokenId(... */\n      swap3\n      swap2\n      pop\n      pop\n      jump\t// out\n    tag_72:\n      mload(0x40)\n      dup1\n      0x40\n      add\n      0x40\n      mstore\n      dup1\n      0x00\n      dup2\n      mstore\n      0x20\n      add\n      0x00\n      dup2\n      mstore\n      pop\n      swap1\n      jump\t// out\n        /* \"#utility.yul\":7:82   */\n    tag_85:\n        /* \"#utility.yul\":40:46   */\n      0x00\n        /* \"#utility.yul\":73:75   */\n      0x40\n        /* \"#utility.yul\":67:76   */\n      mload\n        /* \"#utility.yul\":57:76   */\n      swap1\n      pop\n        /* \"#utility.yul\":7:82   */\n      swap1\n      jump\t// out\n        /* \"#utility.yul\":88:205   */\n    tag_86:\n        /* \"#utility.yul\":197:198   */\n      0x00\n        /* \"#utility.yul\":194:195   */\n      0x00\n        /* \"#utility.yul\":187:199   */\n      revert\n        /* \"#utility.yul\":211:328   */\n    tag_87:\n        /* \"#utility.yul\":320:321   */\n      0x00\n        /* \"#utility.yul\":317:318   */\n      0x00\n        /* \"#utility.yul\":310:322   */\n      revert\n        /* \"#utility.yul\":334:451   */\n    tag_88:\n        /* \"#utility.yul\":443:444   */\n      0x00\n        /* \"#utility.yul\":440:441   */\n      0x00\n        /* \"#utility.yul\":433:445   */\n      revert\n        /* \"#utility.yul\":457:574   */\n    tag_89:\n        /* \"#utility.yul\":566:567   */\n      0x00\n        /* \"#utility.yul\":563:564   */\n      0x00\n        /* \"#utility.yul\":556:568   */\n      revert\n        /* \"#utility.yul\":580:697   */\n    tag_90:\n        /* \"#utility.yul\":689:690   */\n      0x00\n        /* \"#utility.yul\":686:687   */\n      0x00\n        /* \"#utility.yul\":679:691   */\n      revert\n        /* \"#utility.yul\":716:1268   */\n    tag_91:\n        /* \"#utility.yul\":773:781   */\n      0x00\n        /* \"#utility.yul\":783:789   */\n      0x00\n        /* \"#utility.yul\":833:836   */\n      dup4\n        /* \"#utility.yul\":826:830   */\n      0x1f\n        /* \"#utility.yul\":818:824   */\n      dup5\n        /* \"#utility.yul\":814:831   */\n      add\n        /* \"#utility.yul\":810:837   */\n      slt\n        /* \"#utility.yul\":800:922   */\n      tag_148\n      jumpi\n        /* \"#utility.yul\":841:920   */\n      tag_149\n      tag_88\n      jump\t// in\n    tag_149:\n        /* \"#utility.yul\":800:922   */\n    tag_148:\n        /* \"#utility.yul\":954:960   */\n      dup3\n        /* \"#utility.yul\":941:961   */\n      calldataload\n        /* \"#utility.yul\":931:961   */\n      swap1\n      pop\n        /* \"#utility.yul\":984:1002   */\n      0xffffffffffffffff\n        /* \"#utility.yul\":976:982   */\n      dup2\n        /* \"#utility.yul\":973:1003   */\n      gt\n        /* \"#utility.yul\":970:1087   */\n      iszero\n      tag_150\n      jumpi\n        /* \"#utility.yul\":1006:1085   */\n      tag_151\n      tag_89\n      jump\t// in\n    tag_151:\n        /* \"#utility.yul\":970:1087   */\n    tag_150:\n        /* \"#utility.yul\":1120:1124   */\n      0x20\n        /* \"#utility.yul\":1112:1118   */\n      dup4\n        /* \"#utility.yul\":1108:1125   */\n      add\n        /* \"#utility.yul\":1096:1125   */\n      swap2\n      pop\n        /* \"#utility.yul\":1174:1177   */\n      dup4\n        /* \"#utility.yul\":1166:1170   */\n      0x01\n        /* \"#utility.yul\":1158:1164   */\n      dup3\n        /* \"#utility.yul\":1154:1171   */\n      mul\n        /* \"#utility.yul\":1144:1152   */\n      dup4\n        /* \"#utility.yul\":1140:1172   */\n      add\n        /* \"#utility.yul\":1137:1178   */\n      gt\n        /* \"#utility.yul\":1134:1262   */\n      iszero\n      tag_152\n      jumpi\n        /* \"#utility.yul\":1181:1260   */\n      tag_153\n      tag_90\n      jump\t// in\n    tag_153:\n        /* \"#utility.yul\":1134:1262   */\n    tag_152:\n        /* \"#utility.yul\":716:1268   */\n      swap3\n      pop\n      swap3\n      swap1\n      pop\n      jump\t// out\n        /* \"#utility.yul\":1274:1801   */\n    tag_9:\n        /* \"#utility.yul\":1344:1350   */\n      0x00\n        /* \"#utility.yul\":1352:1358   */\n      0x00\n        /* \"#utility.yul\":1401:1403   */\n      0x20\n        /* \"#utility.yul\":1389:1398   */\n      dup4\n        /* \"#utility.yul\":1380:1387   */\n      dup6\n        /* \"#utility.yul\":1376:1399   */\n      sub\n        /* \"#utility.yul\":1372:1404   */\n      slt\n        /* \"#utility.yul\":1369:1488   */\n      iszero\n      tag_155\n      jumpi\n        /* \"#utility.yul\":1407:1486   */\n      tag_156\n      tag_86\n      jump\t// in\n    tag_156:\n        /* \"#utility.yul\":1369:1488   */\n    tag_155:\n        /* \"#utility.yul\":1555:1556   */\n      0x00\n        /* \"#utility.yul\":1544:1553   */\n      dup4\n        /* \"#utility.yul\":1540:1557   */\n      add\n        /* \"#utility.yul\":1527:1558   */\n      calldataload\n        /* \"#utility.yul\":1585:1603   */\n      0xffffffffffffffff\n        /* \"#utility.yul\":1577:1583   */\n      dup2\n        /* \"#utility.yul\":1574:1604   */\n      gt\n        /* \"#utility.yul\":1571:1688   */\n      iszero\n      tag_157\n      jumpi\n        /* \"#utility.yul\":1607:1686   */\n      tag_158\n      tag_87\n      jump\t// in\n    tag_158:\n        /* \"#utility.yul\":1571:1688   */\n    tag_157:\n        /* \"#utility.yul\":1720:1784   */\n      tag_159\n        /* \"#utility.yul\":1776:1783   */\n      dup6\n        /* \"#utility.yul\":1767:1773   */\n      dup3\n        /* \"#utility.yul\":1756:1765   */\n      dup7\n        /* \"#utility.yul\":1752:1774   */\n      add\n        /* \"#utility.yul\":1720:1784   */\n      tag_91\n      jump\t// in\n    tag_159:\n        /* \"#utility.yul\":1702:1784   */\n      swap3\n      pop\n      swap3\n      pop\n        /* \"#utility.yul\":1498:1794   */\n      pop\n        /* \"#utility.yul\":1274:1801   */\n      swap3\n      pop\n      swap3\n      swap1\n      pop\n      jump\t// out\n        /* \"#utility.yul\":1807:1946   */\n    tag_92:\n        /* \"#utility.yul\":1899:1905   */\n      0x00\n        /* \"#utility.yul\":1933:1938   */\n      dup2\n        /* \"#utility.yul\":1927:1939   */\n      mload\n        /* \"#utility.yul\":1917:1939   */\n      swap1\n      pop\n        /* \"#utility.yul\":1807:1946   */\n      swap2\n      swap1\n      pop\n      jump\t// out\n        /* \"#utility.yul\":1952:2161   */\n    tag_93:\n        /* \"#utility.yul\":2076:2087   */\n      0x00\n        /* \"#utility.yul\":2110:2116   */\n      dup3\n        /* \"#utility.yul\":2105:2108   */\n      dup3\n        /* \"#utility.yul\":2098:2117   */\n      mstore\n        /* \"#utility.yul\":2150:2154   */\n      0x20\n        /* \"#utility.yul\":2145:2148   */\n      dup3\n        /* \"#utility.yul\":2141:2155   */\n      add\n        /* \"#utility.yul\":2126:2155   */\n      swap1\n      pop\n        /* \"#utility.yul\":1952:2161   */\n      swap3\n      swap2\n      pop\n      pop\n      jump\t// out\n        /* \"#utility.yul\":2167:2324   */\n    tag_94:\n        /* \"#utility.yul\":2259:2263   */\n      0x00\n        /* \"#utility.yul\":2282:2285   */\n      dup2\n        /* \"#utility.yul\":2274:2285   */\n      swap1\n      pop\n        /* \"#utility.yul\":2312:2316   */\n      0x20\n        /* \"#utility.yul\":2307:2310   */\n      dup3\n        /* \"#utility.yul\":2303:2317   */\n      add\n        /* \"#utility.yul\":2295:2317   */\n      swap1\n      pop\n        /* \"#utility.yul\":2167:2324   */\n      swap2\n      swap1\n      pop\n      jump\t// out\n        /* \"#utility.yul\":2330:2407   */\n    tag_95:\n        /* \"#utility.yul\":2367:2374   */\n      0x00\n        /* \"#utility.yul\":2396:2401   */\n      dup2\n        /* \"#utility.yul\":2385:2401   */\n      swap1\n      pop\n        /* \"#utility.yul\":2330:2407   */\n      swap2\n      swap1\n      pop\n      jump\t// out\n        /* \"#utility.yul\":2413:2521   */\n    tag_96:\n        /* \"#utility.yul\":2490:2514   */\n      tag_165\n        /* \"#utility.yul\":2508:2513   */\n      dup2\n        /* \"#utility.yul\":2490:2514   */\n      tag_95\n      jump\t// in\n    tag_165:\n        /* \"#utility.yul\":2485:2488   */\n      dup3\n        /* \"#utility.yul\":2478:2515   */\n      mstore\n        /* \"#utility.yul\":2413:2521   */\n      pop\n      pop\n      jump\t// out\n        /* \"#utility.yul\":2567:3069   */\n    tag_97:\n        /* \"#utility.yul\":2704:2708   */\n      0x40\n        /* \"#utility.yul\":2699:2702   */\n      dup3\n        /* \"#utility.yul\":2695:2709   */\n      add\n        /* \"#utility.yul\":2794:2798   */\n      0x00\n        /* \"#utility.yul\":2787:2792   */\n      dup3\n        /* \"#utility.yul\":2783:2799   */\n      add\n        /* \"#utility.yul\":2777:2800   */\n      mload\n        /* \"#utility.yul\":2813:2876   */\n      tag_167\n        /* \"#utility.yul\":2870:2874   */\n      0x00\n        /* \"#utility.yul\":2865:2868   */\n      dup6\n        /* \"#utility.yul\":2861:2875   */\n      add\n        /* \"#utility.yul\":2847:2859   */\n      dup3\n        /* \"#utility.yul\":2813:2876   */\n      tag_96\n      jump\t// in\n    tag_167:\n        /* \"#utility.yul\":2719:2886   */\n      pop\n        /* \"#utility.yul\":2970:2974   */\n      0x20\n        /* \"#utility.yul\":2963:2968   */\n      dup3\n        /* \"#utility.yul\":2959:2975   */\n      add\n        /* \"#utility.yul\":2953:2976   */\n      mload\n        /* \"#utility.yul\":2989:3052   */\n      tag_168\n        /* \"#utility.yul\":3046:3050   */\n      0x20\n        /* \"#utility.yul\":3041:3044   */\n      dup6\n        /* \"#utility.yul\":3037:3051   */\n      add\n        /* \"#utility.yul\":3023:3035   */\n      dup3\n        /* \"#utility.yul\":2989:3052   */\n      tag_96\n      jump\t// in\n    tag_168:\n        /* \"#utility.yul\":2896:3062   */\n      pop\n        /* \"#utility.yul\":2673:3069   */\n      pop\n        /* \"#utility.yul\":2567:3069   */\n      pop\n      pop\n      jump\t// out\n        /* \"#utility.yul\":3075:3354   */\n    tag_98:\n        /* \"#utility.yul\":3194:3204   */\n      0x00\n        /* \"#utility.yul\":3215:3311   */\n      tag_170\n        /* \"#utility.yul\":3307:3310   */\n      dup4\n        /* \"#utility.yul\":3299:3305   */\n      dup4\n        /* \"#utility.yul\":3215:3311   */\n      tag_97\n      jump\t// in\n    tag_170:\n        /* \"#utility.yul\":3343:3347   */\n      0x40\n        /* \"#utility.yul\":3338:3341   */\n      dup4\n        /* \"#utility.yul\":3334:3348   */\n      add\n        /* \"#utility.yul\":3320:3348   */\n      swap1\n      pop\n        /* \"#utility.yul\":3075:3354   */\n      swap3\n      swap2\n      pop\n      pop\n      jump\t// out\n        /* \"#utility.yul\":3360:3498   */\n    tag_99:\n        /* \"#utility.yul\":3455:3459   */\n      0x00\n        /* \"#utility.yul\":3487:3491   */\n      0x20\n        /* \"#utility.yul\":3482:3485   */\n      dup3\n        /* \"#utility.yul\":3478:3492   */\n      add\n        /* \"#utility.yul\":3470:3492   */\n      swap1\n      pop\n        /* \"#utility.yul\":3360:3498   */\n      swap2\n      swap1\n      pop\n      jump\t// out\n        /* \"#utility.yul\":3548:4480   */\n    tag_100:\n        /* \"#utility.yul\":3717:3720   */\n      0x00\n        /* \"#utility.yul\":3746:3825   */\n      tag_173\n        /* \"#utility.yul\":3819:3824   */\n      dup3\n        /* \"#utility.yul\":3746:3825   */\n      tag_92\n      jump\t// in\n    tag_173:\n        /* \"#utility.yul\":3841:3952   */\n      tag_174\n        /* \"#utility.yul\":3945:3951   */\n      dup2\n        /* \"#utility.yul\":3940:3943   */\n      dup6\n        /* \"#utility.yul\":3841:3952   */\n      tag_93\n      jump\t// in\n    tag_174:\n        /* \"#utility.yul\":3834:3952   */\n      swap4\n      pop\n        /* \"#utility.yul\":3976:4057   */\n      tag_175\n        /* \"#utility.yul\":4051:4056   */\n      dup4\n        /* \"#utility.yul\":3976:4057   */\n      tag_94\n      jump\t// in\n    tag_175:\n        /* \"#utility.yul\":4080:4087   */\n      dup1\n        /* \"#utility.yul\":4111:4112   */\n      0x00\n        /* \"#utility.yul\":4096:4455   */\n    tag_176:\n        /* \"#utility.yul\":4121:4127   */\n      dup4\n        /* \"#utility.yul\":4118:4119   */\n      dup2\n        /* \"#utility.yul\":4115:4128   */\n      lt\n        /* \"#utility.yul\":4096:4455   */\n      iszero\n      tag_178\n      jumpi\n        /* \"#utility.yul\":4197:4203   */\n      dup2\n        /* \"#utility.yul\":4191:4204   */\n      mload\n        /* \"#utility.yul\":4224:4337   */\n      tag_179\n        /* \"#utility.yul\":4333:4336   */\n      dup9\n        /* \"#utility.yul\":4318:4331   */\n      dup3\n        /* \"#utility.yul\":4224:4337   */\n      tag_98\n      jump\t// in\n    tag_179:\n        /* \"#utility.yul\":4217:4337   */\n      swap8\n      pop\n        /* \"#utility.yul\":4360:4445   */\n      tag_180\n        /* \"#utility.yul\":4438:4444   */\n      dup4\n        /* \"#utility.yul\":4360:4445   */\n      tag_99\n      jump\t// in\n    tag_180:\n        /* \"#utility.yul\":4350:4445   */\n      swap3\n      pop\n        /* \"#utility.yul\":4156:4455   */\n      pop\n        /* \"#utility.yul\":4143:4144   */\n      0x01\n        /* \"#utility.yul\":4140:4141   */\n      dup2\n        /* \"#utility.yul\":4136:4145   */\n      add\n        /* \"#utility.yul\":4131:4145   */\n      swap1\n      pop\n        /* \"#utility.yul\":4096:4455   */\n      jump(tag_176)\n    tag_178:\n        /* \"#utility.yul\":4100:4114   */\n      pop\n        /* \"#utility.yul\":4471:4474   */\n      dup6\n        /* \"#utility.yul\":4464:4474   */\n      swap4\n      pop\n        /* \"#utility.yul\":3722:4480   */\n      pop\n      pop\n      pop\n        /* \"#utility.yul\":3548:4480   */\n      swap3\n      swap2\n      pop\n      pop\n      jump\t// out\n        /* \"#utility.yul\":4486:6043   */\n    tag_12:\n        /* \"#utility.yul\":5063:5067   */\n      0x00\n        /* \"#utility.yul\":5101:5104   */\n      0x80\n        /* \"#utility.yul\":5090:5099   */\n      dup3\n        /* \"#utility.yul\":5086:5105   */\n      add\n        /* \"#utility.yul\":5078:5105   */\n      swap1\n      pop\n        /* \"#utility.yul\":5151:5160   */\n      dup2\n        /* \"#utility.yul\":5145:5149   */\n      dup2\n        /* \"#utility.yul\":5141:5161   */\n      sub\n        /* \"#utility.yul\":5137:5138   */\n      0x00\n        /* \"#utility.yul\":5126:5135   */\n      dup4\n        /* \"#utility.yul\":5122:5139   */\n      add\n        /* \"#utility.yul\":5115:5162   */\n      mstore\n        /* \"#utility.yul\":5179:5337   */\n      tag_182\n        /* \"#utility.yul\":5332:5336   */\n      dup2\n        /* \"#utility.yul\":5323:5329   */\n      dup8\n        /* \"#utility.yul\":5179:5337   */\n      tag_100\n      jump\t// in\n    tag_182:\n        /* \"#utility.yul\":5171:5337   */\n      swap1\n      pop\n        /* \"#utility.yul\":5384:5393   */\n      dup2\n        /* \"#utility.yul\":5378:5382   */\n      dup2\n        /* \"#utility.yul\":5374:5394   */\n      sub\n        /* \"#utility.yul\":5369:5371   */\n      0x20\n        /* \"#utility.yul\":5358:5367   */\n      dup4\n        /* \"#utility.yul\":5354:5372   */\n      add\n        /* \"#utility.yul\":5347:5395   */\n      mstore\n        /* \"#utility.yul\":5412:5570   */\n      tag_183\n        /* \"#utility.yul\":5565:5569   */\n      dup2\n        /* \"#utility.yul\":5556:5562   */\n      dup7\n        /* \"#utility.yul\":5412:5570   */\n      tag_100\n      jump\t// in\n    tag_183:\n        /* \"#utility.yul\":5404:5570   */\n      swap1\n      pop\n        /* \"#utility.yul\":5617:5626   */\n      dup2\n        /* \"#utility.yul\":5611:5615   */\n      dup2\n        /* \"#utility.yul\":5607:5627   */\n      sub\n        /* \"#utility.yul\":5602:5604   */\n      0x40\n        /* \"#utility.yul\":5591:5600   */\n      dup4\n        /* \"#utility.yul\":5587:5605   */\n      add\n        /* \"#utility.yul\":5580:5628   */\n      mstore\n        /* \"#utility.yul\":5645:5803   */\n      tag_184\n        /* \"#utility.yul\":5798:5802   */\n      dup2\n        /* \"#utility.yul\":5789:5795   */\n      dup6\n        /* \"#utility.yul\":5645:5803   */\n      tag_100\n      jump\t// in\n    tag_184:\n        /* \"#utility.yul\":5637:5803   */\n      swap1\n      pop\n        /* \"#utility.yul\":5850:5859   */\n      dup2\n        /* \"#utility.yul\":5844:5848   */\n      dup2\n        /* \"#utility.yul\":5840:5860   */\n      sub\n        /* \"#utility.yul\":5835:5837   */\n      0x60\n        /* \"#utility.yul\":5824:5833   */\n      dup4\n        /* \"#utility.yul\":5820:5838   */\n      add\n        /* \"#utility.yul\":5813:5861   */\n      mstore\n        /* \"#utility.yul\":5878:6036   */\n      tag_185\n        /* \"#utility.yul\":6031:6035   */\n      dup2\n        /* \"#utility.yul\":6022:6028   */\n      dup5\n        /* \"#utility.yul\":5878:6036   */\n      tag_100\n      jump\t// in\n    tag_185:\n        /* \"#utility.yul\":5870:6036   */\n      swap1\n      pop\n        /* \"#utility.yul\":4486:6043   */\n      swap6\n      swap5\n      pop\n      pop\n      pop\n      pop\n      pop\n      jump\t// out\n        /* \"#utility.yul\":6049:6175   */\n    tag_101:\n        /* \"#utility.yul\":6086:6093   */\n      0x00\n        /* \"#utility.yul\":6126:6168   */\n      0xffffffffffffffffffffffffffffffffffffffff\n        /* \"#utility.yul\":6119:6124   */\n      dup3\n        /* \"#utility.yul\":6115:6169   */\n      and\n        /* \"#utility.yul\":6104:6169   */\n      swap1\n      pop\n        /* \"#utility.yul\":6049:6175   */\n      swap2\n      swap1\n      pop\n      jump\t// out\n        /* \"#utility.yul\":6181:6277   */\n    tag_102:\n        /* \"#utility.yul\":6218:6225   */\n      0x00\n        /* \"#utility.yul\":6247:6271   */\n      tag_188\n        /* \"#utility.yul\":6265:6270   */\n      dup3\n        /* \"#utility.yul\":6247:6271   */\n      tag_101\n      jump\t// in\n    tag_188:\n        /* \"#utility.yul\":6236:6271   */\n      swap1\n      pop\n        /* \"#utility.yul\":6181:6277   */\n      swap2\n      swap1\n      pop\n      jump\t// out\n        /* \"#utility.yul\":6283:6405   */\n    tag_103:\n        /* \"#utility.yul\":6356:6380   */\n      tag_190\n        /* \"#utility.yul\":6374:6379   */\n      dup2\n        /* \"#utility.yul\":6356:6380   */\n      tag_102\n      jump\t// in\n    tag_190:\n        /* \"#utility.yul\":6349:6354   */\n      dup2\n        /* \"#utility.yul\":6346:6381   */\n      eq\n        /* \"#utility.yul\":6336:6399   */\n      tag_191\n      jumpi\n        /* \"#utility.yul\":6395:6396   */\n      0x00\n        /* \"#utility.yul\":6392:6393   */\n      0x00\n        /* \"#utility.yul\":6385:6397   */\n      revert\n        /* \"#utility.yul\":6336:6399   */\n    tag_191:\n        /* \"#utility.yul\":6283:6405   */\n      pop\n      jump\t// out\n        /* \"#utility.yul\":6411:6550   */\n    tag_104:\n        /* \"#utility.yul\":6457:6462   */\n      0x00\n        /* \"#utility.yul\":6495:6501   */\n      dup2\n        /* \"#utility.yul\":6482:6502   */\n      calldataload\n        /* \"#utility.yul\":6473:6502   */\n      swap1\n      pop\n        /* \"#utility.yul\":6511:6544   */\n      tag_193\n        /* \"#utility.yul\":6538:6543   */\n      dup2\n        /* \"#utility.yul\":6511:6544   */\n      tag_103\n      jump\t// in\n    tag_193:\n        /* \"#utility.yul\":6411:6550   */\n      swap3\n      swap2\n      pop\n      pop\n      jump\t// out\n        /* \"#utility.yul\":6556:6658   */\n    tag_105:\n        /* \"#utility.yul\":6597:6603   */\n      0x00\n        /* \"#utility.yul\":6648:6650   */\n      0x1f\n        /* \"#utility.yul\":6644:6651   */\n      not\n        /* \"#utility.yul\":6639:6641   */\n      0x1f\n        /* \"#utility.yul\":6632:6637   */\n      dup4\n        /* \"#utility.yul\":6628:6642   */\n      add\n        /* \"#utility.yul\":6624:6652   */\n      and\n        /* \"#utility.yul\":6614:6652   */\n      swap1\n      pop\n        /* \"#utility.yul\":6556:6658   */\n      swap2\n      swap1\n      pop\n      jump\t// out\n        /* \"#utility.yul\":6664:6844   */\n    tag_68:\n        /* \"#utility.yul\":6712:6789   */\n      0x4e487b7100000000000000000000000000000000000000000000000000000000\n        /* \"#utility.yul\":6709:6710   */\n      0x00\n        /* \"#utility.yul\":6702:6790   */\n      mstore\n        /* \"#utility.yul\":6809:6813   */\n      0x41\n        /* \"#utility.yul\":6806:6807   */\n      0x04\n        /* \"#utility.yul\":6799:6814   */\n      mstore\n        /* \"#utility.yul\":6833:6837   */\n      0x24\n        /* \"#utility.yul\":6830:6831   */\n      0x00\n        /* \"#utility.yul\":6823:6838   */\n      revert\n        /* \"#utility.yul\":6850:7131   */\n    tag_106:\n        /* \"#utility.yul\":6933:6960   */\n      tag_197\n        /* \"#utility.yul\":6955:6959   */\n      dup3\n        /* \"#utility.yul\":6933:6960   */\n      tag_105\n      jump\t// in\n    tag_197:\n        /* \"#utility.yul\":6925:6931   */\n      dup2\n        /* \"#utility.yul\":6921:6961   */\n      add\n        /* \"#utility.yul\":7063:7069   */\n      dup2\n        /* \"#utility.yul\":7051:7061   */\n      dup2\n        /* \"#utility.yul\":7048:7070   */\n      lt\n        /* \"#utility.yul\":7027:7045   */\n      0xffffffffffffffff\n        /* \"#utility.yul\":7015:7025   */\n      dup3\n        /* \"#utility.yul\":7012:7046   */\n      gt\n        /* \"#utility.yul\":7009:7071   */\n      or\n        /* \"#utility.yul\":7006:7094   */\n      iszero\n      tag_198\n      jumpi\n        /* \"#utility.yul\":7074:7092   */\n      tag_199\n      tag_68\n      jump\t// in\n    tag_199:\n        /* \"#utility.yul\":7006:7094   */\n    tag_198:\n        /* \"#utility.yul\":7114:7124   */\n      dup1\n        /* \"#utility.yul\":7110:7112   */\n      0x40\n        /* \"#utility.yul\":7103:7125   */\n      mstore\n        /* \"#utility.yul\":6893:7131   */\n      pop\n        /* \"#utility.yul\":6850:7131   */\n      pop\n      pop\n      jump\t// out\n        /* \"#utility.yul\":7137:7266   */\n    tag_107:\n        /* \"#utility.yul\":7171:7177   */\n      0x00\n        /* \"#utility.yul\":7198:7218   */\n      tag_201\n      tag_85\n      jump\t// in\n    tag_201:\n        /* \"#utility.yul\":7188:7218   */\n      swap1\n      pop\n        /* \"#utility.yul\":7227:7260   */\n      tag_202\n        /* \"#utility.yul\":7255:7259   */\n      dup3\n        /* \"#utility.yul\":7247:7253   */\n      dup3\n        /* \"#utility.yul\":7227:7260   */\n      tag_106\n      jump\t// in\n    tag_202:\n        /* \"#utility.yul\":7137:7266   */\n      swap2\n      swap1\n      pop\n      jump\t// out\n        /* \"#utility.yul\":7272:7583   */\n    tag_108:\n        /* \"#utility.yul\":7349:7353   */\n      0x00\n        /* \"#utility.yul\":7439:7457   */\n      0xffffffffffffffff\n        /* \"#utility.yul\":7431:7437   */\n      dup3\n        /* \"#utility.yul\":7428:7458   */\n      gt\n        /* \"#utility.yul\":7425:7481   */\n      iszero\n      tag_204\n      jumpi\n        /* \"#utility.yul\":7461:7479   */\n      tag_205\n      tag_68\n      jump\t// in\n    tag_205:\n        /* \"#utility.yul\":7425:7481   */\n    tag_204:\n        /* \"#utility.yul\":7511:7515   */\n      0x20\n        /* \"#utility.yul\":7503:7509   */\n      dup3\n        /* \"#utility.yul\":7499:7516   */\n      mul\n        /* \"#utility.yul\":7491:7516   */\n      swap1\n      pop\n        /* \"#utility.yul\":7571:7575   */\n      0x20\n        /* \"#utility.yul\":7565:7569   */\n      dup2\n        /* \"#utility.yul\":7561:7576   */\n      add\n        /* \"#utility.yul\":7553:7576   */\n      swap1\n      pop\n        /* \"#utility.yul\":7272:7583   */\n      swap2\n      swap1\n      pop\n      jump\t// out\n        /* \"#utility.yul\":7589:7711   */\n    tag_109:\n        /* \"#utility.yul\":7662:7686   */\n      tag_207\n        /* \"#utility.yul\":7680:7685   */\n      dup2\n        /* \"#utility.yul\":7662:7686   */\n      tag_95\n      jump\t// in\n    tag_207:\n        /* \"#utility.yul\":7655:7660   */\n      dup2\n        /* \"#utility.yul\":7652:7687   */\n      eq\n        /* \"#utility.yul\":7642:7705   */\n      tag_208\n      jumpi\n        /* \"#utility.yul\":7701:7702   */\n      0x00\n        /* \"#utility.yul\":7698:7699   */\n      0x00\n        /* \"#utility.yul\":7691:7703   */\n      revert\n        /* \"#utility.yul\":7642:7705   */\n    tag_208:\n        /* \"#utility.yul\":7589:7711   */\n      pop\n      jump\t// out\n        /* \"#utility.yul\":7717:7856   */\n    tag_110:\n        /* \"#utility.yul\":7763:7768   */\n      0x00\n        /* \"#utility.yul\":7801:7807   */\n      dup2\n        /* \"#utility.yul\":7788:7808   */\n      calldataload\n        /* \"#utility.yul\":7779:7808   */\n      swap1\n      pop\n        /* \"#utility.yul\":7817:7850   */\n      tag_210\n        /* \"#utility.yul\":7844:7849   */\n      dup2\n        /* \"#utility.yul\":7817:7850   */\n      tag_109\n      jump\t// in\n    tag_210:\n        /* \"#utility.yul\":7717:7856   */\n      swap3\n      swap2\n      pop\n      pop\n      jump\t// out\n        /* \"#utility.yul\":7879:8589   */\n    tag_111:\n        /* \"#utility.yul\":7975:7980   */\n      0x00\n        /* \"#utility.yul\":8000:8081   */\n      tag_212\n        /* \"#utility.yul\":8016:8080   */\n      tag_213\n        /* \"#utility.yul\":8073:8079   */\n      dup5\n        /* \"#utility.yul\":8016:8080   */\n      tag_108\n      jump\t// in\n    tag_213:\n        /* \"#utility.yul\":8000:8081   */\n      tag_107\n      jump\t// in\n    tag_212:\n        /* \"#utility.yul\":7991:8081   */\n      swap1\n      pop\n        /* \"#utility.yul\":8101:8106   */\n      dup1\n        /* \"#utility.yul\":8130:8136   */\n      dup4\n        /* \"#utility.yul\":8123:8128   */\n      dup3\n        /* \"#utility.yul\":8116:8137   */\n      mstore\n        /* \"#utility.yul\":8164:8168   */\n      0x20\n        /* \"#utility.yul\":8157:8162   */\n      dup3\n        /* \"#utility.yul\":8153:8169   */\n      add\n        /* \"#utility.yul\":8146:8169   */\n      swap1\n      pop\n        /* \"#utility.yul\":8217:8221   */\n      0x20\n        /* \"#utility.yul\":8209:8215   */\n      dup5\n        /* \"#utility.yul\":8205:8222   */\n      mul\n        /* \"#utility.yul\":8197:8203   */\n      dup4\n        /* \"#utility.yul\":8193:8223   */\n      add\n        /* \"#utility.yul\":8246:8249   */\n      dup6\n        /* \"#utility.yul\":8238:8244   */\n      dup2\n        /* \"#utility.yul\":8235:8250   */\n      gt\n        /* \"#utility.yul\":8232:8354   */\n      iszero\n      tag_214\n      jumpi\n        /* \"#utility.yul\":8265:8344   */\n      tag_215\n      tag_90\n      jump\t// in\n    tag_215:\n        /* \"#utility.yul\":8232:8354   */\n    tag_214:\n        /* \"#utility.yul\":8380:8386   */\n      dup4\n        /* \"#utility.yul\":8363:8583   */\n    tag_216:\n        /* \"#utility.yul\":8397:8403   */\n      dup2\n        /* \"#utility.yul\":8392:8395   */\n      dup2\n        /* \"#utility.yul\":8389:8404   */\n      lt\n        /* \"#utility.yul\":8363:8583   */\n      iszero\n      tag_218\n      jumpi\n        /* \"#utility.yul\":8472:8475   */\n      dup1\n        /* \"#utility.yul\":8501:8538   */\n      tag_219\n        /* \"#utility.yul\":8534:8537   */\n      dup9\n        /* \"#utility.yul\":8522:8532   */\n      dup3\n        /* \"#utility.yul\":8501:8538   */\n      tag_110\n      jump\t// in\n    tag_219:\n        /* \"#utility.yul\":8496:8499   */\n      dup5\n        /* \"#utility.yul\":8489:8539   */\n      mstore\n        /* \"#utility.yul\":8568:8572   */\n      0x20\n        /* \"#utility.yul\":8563:8566   */\n      dup5\n        /* \"#utility.yul\":8559:8573   */\n      add\n        /* \"#utility.yul\":8552:8573   */\n      swap4\n      pop\n        /* \"#utility.yul\":8439:8583   */\n      pop\n        /* \"#utility.yul\":8423:8427   */\n      0x20\n        /* \"#utility.yul\":8418:8421   */\n      dup2\n        /* \"#utility.yul\":8414:8428   */\n      add\n        /* \"#utility.yul\":8407:8428   */\n      swap1\n      pop\n        /* \"#utility.yul\":8363:8583   */\n      jump(tag_216)\n    tag_218:\n        /* \"#utility.yul\":8367:8388   */\n      pop\n        /* \"#utility.yul\":7981:8589   */\n      pop\n      pop\n        /* \"#utility.yul\":7879:8589   */\n      swap4\n      swap3\n      pop\n      pop\n      pop\n      jump\t// out\n        /* \"#utility.yul\":8612:8982   */\n    tag_112:\n        /* \"#utility.yul\":8683:8688   */\n      0x00\n        /* \"#utility.yul\":8732:8735   */\n      dup3\n        /* \"#utility.yul\":8725:8729   */\n      0x1f\n        /* \"#utility.yul\":8717:8723   */\n      dup4\n        /* \"#utility.yul\":8713:8730   */\n      add\n        /* \"#utility.yul\":8709:8736   */\n      slt\n        /* \"#utility.yul\":8699:8821   */\n      tag_221\n      jumpi\n        /* \"#utility.yul\":8740:8819   */\n      tag_222\n      tag_88\n      jump\t// in\n    tag_222:\n        /* \"#utility.yul\":8699:8821   */\n    tag_221:\n        /* \"#utility.yul\":8857:8863   */\n      dup2\n        /* \"#utility.yul\":8844:8864   */\n      calldataload\n        /* \"#utility.yul\":8882:8976   */\n      tag_223\n        /* \"#utility.yul\":8972:8975   */\n      dup5\n        /* \"#utility.yul\":8964:8970   */\n      dup3\n        /* \"#utility.yul\":8957:8961   */\n      0x20\n        /* \"#utility.yul\":8949:8955   */\n      dup7\n        /* \"#utility.yul\":8945:8962   */\n      add\n        /* \"#utility.yul\":8882:8976   */\n      tag_111\n      jump\t// in\n    tag_223:\n        /* \"#utility.yul\":8873:8976   */\n      swap2\n      pop\n        /* \"#utility.yul\":8689:8982   */\n      pop\n        /* \"#utility.yul\":8612:8982   */\n      swap3\n      swap2\n      pop\n      pop\n      jump\t// out\n        /* \"#utility.yul\":8988:10517   */\n    tag_15:\n        /* \"#utility.yul\":9144:9150   */\n      0x00\n        /* \"#utility.yul\":9152:9158   */\n      0x00\n        /* \"#utility.yul\":9160:9166   */\n      0x00\n        /* \"#utility.yul\":9168:9174   */\n      0x00\n        /* \"#utility.yul\":9176:9182   */\n      0x00\n        /* \"#utility.yul\":9184:9190   */\n      0x00\n        /* \"#utility.yul\":9233:9236   */\n      0xa0\n        /* \"#utility.yul\":9221:9230   */\n      dup8\n        /* \"#utility.yul\":9212:9219   */\n      dup10\n        /* \"#utility.yul\":9208:9231   */\n      sub\n        /* \"#utility.yul\":9204:9237   */\n      slt\n        /* \"#utility.yul\":9201:9321   */\n      iszero\n      tag_225\n      jumpi\n        /* \"#utility.yul\":9240:9319   */\n      tag_226\n      tag_86\n      jump\t// in\n    tag_226:\n        /* \"#utility.yul\":9201:9321   */\n    tag_225:\n        /* \"#utility.yul\":9360:9361   */\n      0x00\n        /* \"#utility.yul\":9385:9438   */\n      tag_227\n        /* \"#utility.yul\":9430:9437   */\n      dup10\n        /* \"#utility.yul\":9421:9427   */\n      dup3\n        /* \"#utility.yul\":9410:9419   */\n      dup11\n        /* \"#utility.yul\":9406:9428   */\n      add\n        /* \"#utility.yul\":9385:9438   */\n      tag_104\n      jump\t// in\n    tag_227:\n        /* \"#utility.yul\":9375:9438   */\n      swap7\n      pop\n        /* \"#utility.yul\":9331:9448   */\n      pop\n        /* \"#utility.yul\":9487:9489   */\n      0x20\n        /* \"#utility.yul\":9513:9566   */\n      tag_228\n        /* \"#utility.yul\":9558:9565   */\n      dup10\n        /* \"#utility.yul\":9549:9555   */\n      dup3\n        /* \"#utility.yul\":9538:9547   */\n      dup11\n        /* \"#utility.yul\":9534:9556   */\n      add\n        /* \"#utility.yul\":9513:9566   */\n      tag_104\n      jump\t// in\n    tag_228:\n        /* \"#utility.yul\":9503:9566   */\n      swap6\n      pop\n        /* \"#utility.yul\":9458:9576   */\n      pop\n        /* \"#utility.yul\":9643:9645   */\n      0x40\n        /* \"#utility.yul\":9632:9641   */\n      dup8\n        /* \"#utility.yul\":9628:9646   */\n      add\n        /* \"#utility.yul\":9615:9647   */\n      calldataload\n        /* \"#utility.yul\":9674:9692   */\n      0xffffffffffffffff\n        /* \"#utility.yul\":9666:9672   */\n      dup2\n        /* \"#utility.yul\":9663:9693   */\n      gt\n        /* \"#utility.yul\":9660:9777   */\n      iszero\n      tag_229\n      jumpi\n        /* \"#utility.yul\":9696:9775   */\n      tag_230\n      tag_87\n      jump\t// in\n    tag_230:\n        /* \"#utility.yul\":9660:9777   */\n    tag_229:\n        /* \"#utility.yul\":9801:9879   */\n      tag_231\n        /* \"#utility.yul\":9871:9878   */\n      dup10\n        /* \"#utility.yul\":9862:9868   */\n      dup3\n        /* \"#utility.yul\":9851:9860   */\n      dup11\n        /* \"#utility.yul\":9847:9869   */\n      add\n        /* \"#utility.yul\":9801:9879   */\n      tag_112\n      jump\t// in\n    tag_231:\n        /* \"#utility.yul\":9791:9879   */\n      swap5\n      pop\n        /* \"#utility.yul\":9586:9889   */\n      pop\n        /* \"#utility.yul\":9956:9958   */\n      0x60\n        /* \"#utility.yul\":9945:9954   */\n      dup8\n        /* \"#utility.yul\":9941:9959   */\n      add\n        /* \"#utility.yul\":9928:9960   */\n      calldataload\n        /* \"#utility.yul\":9987:10005   */\n      0xffffffffffffffff\n        /* \"#utility.yul\":9979:9985   */\n      dup2\n        /* \"#utility.yul\":9976:10006   */\n      gt\n        /* \"#utility.yul\":9973:10090   */\n      iszero\n      tag_232\n      jumpi\n        /* \"#utility.yul\":10009:10088   */\n      tag_233\n      tag_87\n      jump\t// in\n    tag_233:\n        /* \"#utility.yul\":9973:10090   */\n    tag_232:\n        /* \"#utility.yul\":10114:10192   */\n      tag_234\n        /* \"#utility.yul\":10184:10191   */\n      dup10\n        /* \"#utility.yul\":10175:10181   */\n      dup3\n        /* \"#utility.yul\":10164:10173   */\n      dup11\n        /* \"#utility.yul\":10160:10182   */\n      add\n        /* \"#utility.yul\":10114:10192   */\n      tag_112\n      jump\t// in\n    tag_234:\n        /* \"#utility.yul\":10104:10192   */\n      swap4\n      pop\n        /* \"#utility.yul\":9899:10202   */\n      pop\n        /* \"#utility.yul\":10269:10272   */\n      0x80\n        /* \"#utility.yul\":10258:10267   */\n      dup8\n        /* \"#utility.yul\":10254:10273   */\n      add\n        /* \"#utility.yul\":10241:10274   */\n      calldataload\n        /* \"#utility.yul\":10301:10319   */\n      0xffffffffffffffff\n        /* \"#utility.yul\":10293:10299   */\n      dup2\n        /* \"#utility.yul\":10290:10320   */\n      gt\n        /* \"#utility.yul\":10287:10404   */\n      iszero\n      tag_235\n      jumpi\n        /* \"#utility.yul\":10323:10402   */\n      tag_236\n      tag_87\n      jump\t// in\n    tag_236:\n        /* \"#utility.yul\":10287:10404   */\n    tag_235:\n        /* \"#utility.yul\":10436:10500   */\n      tag_237\n        /* \"#utility.yul\":10492:10499   */\n      dup10\n        /* \"#utility.yul\":10483:10489   */\n      dup3\n        /* \"#utility.yul\":10472:10481   */\n      dup11\n        /* \"#utility.yul\":10468:10490   */\n      add\n        /* \"#utility.yul\":10436:10500   */\n      tag_91\n      jump\t// in\n    tag_237:\n        /* \"#utility.yul\":10418:10500   */\n      swap3\n      pop\n      swap3\n      pop\n        /* \"#utility.yul\":10212:10510   */\n      pop\n        /* \"#utility.yul\":8988:10517   */\n      swap3\n      swap6\n      pop\n      swap3\n      swap6\n      pop\n      swap3\n      swap6\n      jump\t// out\n        /* \"#utility.yul\":10523:10672   */\n    tag_113:\n        /* \"#utility.yul\":10559:10566   */\n      0x00\n        /* \"#utility.yul\":10599:10665   */\n      0xffffffff00000000000000000000000000000000000000000000000000000000\n        /* \"#utility.yul\":10592:10597   */\n      dup3\n        /* \"#utility.yul\":10588:10666   */\n      and\n        /* \"#utility.yul\":10577:10666   */\n      swap1\n      pop\n        /* \"#utility.yul\":10523:10672   */\n      swap2\n      swap1\n      pop\n      jump\t// out\n        /* \"#utility.yul\":10678:10793   */\n    tag_114:\n        /* \"#utility.yul\":10763:10786   */\n      tag_240\n        /* \"#utility.yul\":10780:10785   */\n      dup2\n        /* \"#utility.yul\":10763:10786   */\n      tag_113\n      jump\t// in\n    tag_240:\n        /* \"#utility.yul\":10758:10761   */\n      dup3\n        /* \"#utility.yul\":10751:10787   */\n      mstore\n        /* \"#utility.yul\":10678:10793   */\n      pop\n      pop\n      jump\t// out\n        /* \"#utility.yul\":10799:11017   */\n    tag_18:\n        /* \"#utility.yul\":10890:10894   */\n      0x00\n        /* \"#utility.yul\":10928:10930   */\n      0x20\n        /* \"#utility.yul\":10917:10926   */\n      dup3\n        /* \"#utility.yul\":10913:10931   */\n      add\n        /* \"#utility.yul\":10905:10931   */\n      swap1\n      pop\n        /* \"#utility.yul\":10941:11010   */\n      tag_242\n        /* \"#utility.yul\":11007:11008   */\n      0x00\n        /* \"#utility.yul\":10996:11005   */\n      dup4\n        /* \"#utility.yul\":10992:11009   */\n      add\n        /* \"#utility.yul\":10983:10989   */\n      dup5\n        /* \"#utility.yul\":10941:11010   */\n      tag_114\n      jump\t// in\n    tag_242:\n        /* \"#utility.yul\":10799:11017   */\n      swap3\n      swap2\n      pop\n      pop\n      jump\t// out\n        /* \"#utility.yul\":11023:12132   */\n    tag_21:\n        /* \"#utility.yul\":11129:11135   */\n      0x00\n        /* \"#utility.yul\":11137:11143   */\n      0x00\n        /* \"#utility.yul\":11145:11151   */\n      0x00\n        /* \"#utility.yul\":11153:11159   */\n      0x00\n        /* \"#utility.yul\":11161:11167   */\n      0x00\n        /* \"#utility.yul\":11169:11175   */\n      0x00\n        /* \"#utility.yul\":11218:11221   */\n      0xa0\n        /* \"#utility.yul\":11206:11215   */\n      dup8\n        /* \"#utility.yul\":11197:11204   */\n      dup10\n        /* \"#utility.yul\":11193:11216   */\n      sub\n        /* \"#utility.yul\":11189:11222   */\n      slt\n        /* \"#utility.yul\":11186:11306   */\n      iszero\n      tag_244\n      jumpi\n        /* \"#utility.yul\":11225:11304   */\n      tag_245\n      tag_86\n      jump\t// in\n    tag_245:\n        /* \"#utility.yul\":11186:11306   */\n    tag_244:\n        /* \"#utility.yul\":11345:11346   */\n      0x00\n        /* \"#utility.yul\":11370:11423   */\n      tag_246\n        /* \"#utility.yul\":11415:11422   */\n      dup10\n        /* \"#utility.yul\":11406:11412   */\n      dup3\n        /* \"#utility.yul\":11395:11404   */\n      dup11\n        /* \"#utility.yul\":11391:11413   */\n      add\n        /* \"#utility.yul\":11370:11423   */\n      tag_104\n      jump\t// in\n    tag_246:\n        /* \"#utility.yul\":11360:11423   */\n      swap7\n      pop\n        /* \"#utility.yul\":11316:11433   */\n      pop\n        /* \"#utility.yul\":11472:11474   */\n      0x20\n        /* \"#utility.yul\":11498:11551   */\n      tag_247\n        /* \"#utility.yul\":11543:11550   */\n      dup10\n        /* \"#utility.yul\":11534:11540   */\n      dup3\n        /* \"#utility.yul\":11523:11532   */\n      dup11\n        /* \"#utility.yul\":11519:11541   */\n      add\n        /* \"#utility.yul\":11498:11551   */\n      tag_104\n      jump\t// in\n    tag_247:\n        /* \"#utility.yul\":11488:11551   */\n      swap6\n      pop\n        /* \"#utility.yul\":11443:11561   */\n      pop\n        /* \"#utility.yul\":11600:11602   */\n      0x40\n        /* \"#utility.yul\":11626:11679   */\n      tag_248\n        /* \"#utility.yul\":11671:11678   */\n      dup10\n        /* \"#utility.yul\":11662:11668   */\n      dup3\n        /* \"#utility.yul\":11651:11660   */\n      dup11\n        /* \"#utility.yul\":11647:11669   */\n      add\n        /* \"#utility.yul\":11626:11679   */\n      tag_110\n      jump\t// in\n    tag_248:\n        /* \"#utility.yul\":11616:11679   */\n      swap5\n      pop\n        /* \"#utility.yul\":11571:11689   */\n      pop\n        /* \"#utility.yul\":11728:11730   */\n      0x60\n        /* \"#utility.yul\":11754:11807   */\n      tag_249\n        /* \"#utility.yul\":11799:11806   */\n      dup10\n        /* \"#utility.yul\":11790:11796   */\n      dup3\n        /* \"#utility.yul\":11779:11788   */\n      dup11\n        /* \"#utility.yul\":11775:11797   */\n      add\n        /* \"#utility.yul\":11754:11807   */\n      tag_110\n      jump\t// in\n    tag_249:\n        /* \"#utility.yul\":11744:11807   */\n      swap4\n      pop\n        /* \"#utility.yul\":11699:11817   */\n      pop\n        /* \"#utility.yul\":11884:11887   */\n      0x80\n        /* \"#utility.yul\":11873:11882   */\n      dup8\n        /* \"#utility.yul\":11869:11888   */\n      add\n        /* \"#utility.yul\":11856:11889   */\n      calldataload\n        /* \"#utility.yul\":11916:11934   */\n      0xffffffffffffffff\n        /* \"#utility.yul\":11908:11914   */\n      dup2\n        /* \"#utility.yul\":11905:11935   */\n      gt\n        /* \"#utility.yul\":11902:12019   */\n      iszero\n      tag_250\n      jumpi\n        /* \"#utility.yul\":11938:12017   */\n      tag_251\n      tag_87\n      jump\t// in\n    tag_251:\n        /* \"#utility.yul\":11902:12019   */\n    tag_250:\n        /* \"#utility.yul\":12051:12115   */\n      tag_252\n        /* \"#utility.yul\":12107:12114   */\n      dup10\n        /* \"#utility.yul\":12098:12104   */\n      dup3\n        /* \"#utility.yul\":12087:12096   */\n      dup11\n        /* \"#utility.yul\":12083:12105   */\n      add\n        /* \"#utility.yul\":12051:12115   */\n      tag_91\n      jump\t// in\n    tag_252:\n        /* \"#utility.yul\":12033:12115   */\n      swap3\n      pop\n      swap3\n      pop\n        /* \"#utility.yul\":11827:12125   */\n      pop\n        /* \"#utility.yul\":11023:12132   */\n      swap3\n      swap6\n      pop\n      swap3\n      swap6\n      pop\n      swap3\n      swap6\n      jump\t// out\n        /* \"#utility.yul\":12138:12198   */\n    tag_115:\n        /* \"#utility.yul\":12166:12169   */\n      0x00\n        /* \"#utility.yul\":12187:12192   */\n      dup2\n        /* \"#utility.yul\":12180:12192   */\n      swap1\n      pop\n        /* \"#utility.yul\":12138:12198   */\n      swap2\n      swap1\n      pop\n      jump\t// out\n        /* \"#utility.yul\":12204:12346   */\n    tag_116:\n        /* \"#utility.yul\":12254:12263   */\n      0x00\n        /* \"#utility.yul\":12287:12340   */\n      tag_255\n        /* \"#utility.yul\":12305:12339   */\n      tag_256\n        /* \"#utility.yul\":12314:12338   */\n      tag_257\n        /* \"#utility.yul\":12332:12337   */\n      dup5\n        /* \"#utility.yul\":12314:12338   */\n      tag_101\n      jump\t// in\n    tag_257:\n        /* \"#utility.yul\":12305:12339   */\n      tag_115\n      jump\t// in\n    tag_256:\n        /* \"#utility.yul\":12287:12340   */\n      tag_101\n      jump\t// in\n    tag_255:\n        /* \"#utility.yul\":12274:12340   */\n      swap1\n      pop\n        /* \"#utility.yul\":12204:12346   */\n      swap2\n      swap1\n      pop\n      jump\t// out\n        /* \"#utility.yul\":12352:12478   */\n    tag_117:\n        /* \"#utility.yul\":12402:12411   */\n      0x00\n        /* \"#utility.yul\":12435:12472   */\n      tag_259\n        /* \"#utility.yul\":12466:12471   */\n      dup3\n        /* \"#utility.yul\":12435:12472   */\n      tag_116\n      jump\t// in\n    tag_259:\n        /* \"#utility.yul\":12422:12472   */\n      swap1\n      pop\n        /* \"#utility.yul\":12352:12478   */\n      swap2\n      swap1\n      pop\n      jump\t// out\n        /* \"#utility.yul\":12484:12636   */\n    tag_118:\n        /* \"#utility.yul\":12560:12569   */\n      0x00\n        /* \"#utility.yul\":12593:12630   */\n      tag_261\n        /* \"#utility.yul\":12624:12629   */\n      dup3\n        /* \"#utility.yul\":12593:12630   */\n      tag_117\n      jump\t// in\n    tag_261:\n        /* \"#utility.yul\":12580:12630   */\n      swap1\n      pop\n        /* \"#utility.yul\":12484:12636   */\n      swap2\n      swap1\n      pop\n      jump\t// out\n        /* \"#utility.yul\":12642:12825   */\n    tag_119:\n        /* \"#utility.yul\":12755:12818   */\n      tag_263\n        /* \"#utility.yul\":12812:12817   */\n      dup2\n        /* \"#utility.yul\":12755:12818   */\n      tag_118\n      jump\t// in\n    tag_263:\n        /* \"#utility.yul\":12750:12753   */\n      dup3\n        /* \"#utility.yul\":12743:12819   */\n      mstore\n        /* \"#utility.yul\":12642:12825   */\n      pop\n      pop\n      jump\t// out\n        /* \"#utility.yul\":12831:13105   */\n    tag_27:\n        /* \"#utility.yul\":12950:12954   */\n      0x00\n        /* \"#utility.yul\":12988:12990   */\n      0x20\n        /* \"#utility.yul\":12977:12986   */\n      dup3\n        /* \"#utility.yul\":12973:12991   */\n      add\n        /* \"#utility.yul\":12965:12991   */\n      swap1\n      pop\n        /* \"#utility.yul\":13001:13098   */\n      tag_265\n        /* \"#utility.yul\":13095:13096   */\n      0x00\n        /* \"#utility.yul\":13084:13093   */\n      dup4\n        /* \"#utility.yul\":13080:13097   */\n      add\n        /* \"#utility.yul\":13071:13077   */\n      dup5\n        /* \"#utility.yul\":13001:13098   */\n      tag_119\n      jump\t// in\n    tag_265:\n        /* \"#utility.yul\":12831:13105   */\n      swap3\n      swap2\n      pop\n      pop\n      jump\t// out\n        /* \"#utility.yul\":13111:13215   */\n    tag_120:\n        /* \"#utility.yul\":13156:13163   */\n      0x00\n        /* \"#utility.yul\":13185:13209   */\n      tag_267\n        /* \"#utility.yul\":13203:13208   */\n      dup3\n        /* \"#utility.yul\":13185:13209   */\n      tag_101\n      jump\t// in\n    tag_267:\n        /* \"#utility.yul\":13174:13209   */\n      swap1\n      pop\n        /* \"#utility.yul\":13111:13215   */\n      swap2\n      swap1\n      pop\n      jump\t// out\n        /* \"#utility.yul\":13221:13359   */\n    tag_121:\n        /* \"#utility.yul\":13302:13334   */\n      tag_269\n        /* \"#utility.yul\":13328:13333   */\n      dup2\n        /* \"#utility.yul\":13302:13334   */\n      tag_120\n      jump\t// in\n    tag_269:\n        /* \"#utility.yul\":13295:13300   */\n      dup2\n        /* \"#utility.yul\":13292:13335   */\n      eq\n        /* \"#utility.yul\":13282:13353   */\n      tag_270\n      jumpi\n        /* \"#utility.yul\":13349:13350   */\n      0x00\n        /* \"#utility.yul\":13346:13347   */\n      0x00\n        /* \"#utility.yul\":13339:13351   */\n      revert\n        /* \"#utility.yul\":13282:13353   */\n    tag_270:\n        /* \"#utility.yul\":13221:13359   */\n      pop\n      jump\t// out\n        /* \"#utility.yul\":13365:13520   */\n    tag_122:\n        /* \"#utility.yul\":13419:13424   */\n      0x00\n        /* \"#utility.yul\":13457:13463   */\n      dup2\n        /* \"#utility.yul\":13444:13464   */\n      calldataload\n        /* \"#utility.yul\":13435:13464   */\n      swap1\n      pop\n        /* \"#utility.yul\":13473:13514   */\n      tag_272\n        /* \"#utility.yul\":13508:13513   */\n      dup2\n        /* \"#utility.yul\":13473:13514   */\n      tag_121\n      jump\t// in\n    tag_272:\n        /* \"#utility.yul\":13365:13520   */\n      swap3\n      swap2\n      pop\n      pop\n      jump\t// out\n        /* \"#utility.yul\":13526:13643   */\n    tag_123:\n        /* \"#utility.yul\":13635:13636   */\n      0x00\n        /* \"#utility.yul\":13632:13633   */\n      0x00\n        /* \"#utility.yul\":13625:13637   */\n      revert\n        /* \"#utility.yul\":13649:13956   */\n    tag_124:\n        /* \"#utility.yul\":13710:13714   */\n      0x00\n        /* \"#utility.yul\":13800:13818   */\n      0xffffffffffffffff\n        /* \"#utility.yul\":13792:13798   */\n      dup3\n        /* \"#utility.yul\":13789:13819   */\n      gt\n        /* \"#utility.yul\":13786:13842   */\n      iszero\n      tag_275\n      jumpi\n        /* \"#utility.yul\":13822:13840   */\n      tag_276\n      tag_68\n      jump\t// in\n    tag_276:\n        /* \"#utility.yul\":13786:13842   */\n    tag_275:\n        /* \"#utility.yul\":13860:13889   */\n      tag_277\n        /* \"#utility.yul\":13882:13888   */\n      dup3\n        /* \"#utility.yul\":13860:13889   */\n      tag_105\n      jump\t// in\n    tag_277:\n        /* \"#utility.yul\":13852:13889   */\n      swap1\n      pop\n        /* \"#utility.yul\":13944:13948   */\n      0x20\n        /* \"#utility.yul\":13938:13942   */\n      dup2\n        /* \"#utility.yul\":13934:13949   */\n      add\n        /* \"#utility.yul\":13926:13949   */\n      swap1\n      pop\n        /* \"#utility.yul\":13649:13956   */\n      swap2\n      swap1\n      pop\n      jump\t// out\n        /* \"#utility.yul\":13962:14110   */\n    tag_125:\n        /* \"#utility.yul\":14060:14066   */\n      dup3\n        /* \"#utility.yul\":14055:14058   */\n      dup2\n        /* \"#utility.yul\":14050:14053   */\n      dup4\n        /* \"#utility.yul\":14037:14067   */\n      calldatacopy\n        /* \"#utility.yul\":14101:14102   */\n      0x00\n        /* \"#utility.yul\":14092:14098   */\n      dup4\n        /* \"#utility.yul\":14087:14090   */\n      dup4\n        /* \"#utility.yul\":14083:14099   */\n      add\n        /* \"#utility.yul\":14076:14103   */\n      mstore\n        /* \"#utility.yul\":13962:14110   */\n      pop\n      pop\n      pop\n      jump\t// out\n        /* \"#utility.yul\":14116:14539   */\n    tag_126:\n        /* \"#utility.yul\":14193:14198   */\n      0x00\n        /* \"#utility.yul\":14218:14283   */\n      tag_280\n        /* \"#utility.yul\":14234:14282   */\n      tag_281\n        /* \"#utility.yul\":14275:14281   */\n      dup5\n        /* \"#utility.yul\":14234:14282   */\n      tag_124\n      jump\t// in\n    tag_281:\n        /* \"#utility.yul\":14218:14283   */\n      tag_107\n      jump\t// in\n    tag_280:\n        /* \"#utility.yul\":14209:14283   */\n      swap1\n      pop\n        /* \"#utility.yul\":14306:14312   */\n      dup3\n        /* \"#utility.yul\":14299:14304   */\n      dup2\n        /* \"#utility.yul\":14292:14313   */\n      mstore\n        /* \"#utility.yul\":14344:14348   */\n      0x20\n        /* \"#utility.yul\":14337:14342   */\n      dup2\n        /* \"#utility.yul\":14333:14349   */\n      add\n        /* \"#utility.yul\":14382:14385   */\n      dup5\n        /* \"#utility.yul\":14373:14379   */\n      dup5\n        /* \"#utility.yul\":14368:14371   */\n      dup5\n        /* \"#utility.yul\":14364:14380   */\n      add\n        /* \"#utility.yul\":14361:14386   */\n      gt\n        /* \"#utility.yul\":14358:14470   */\n      iszero\n      tag_282\n      jumpi\n        /* \"#utility.yul\":14389:14468   */\n      tag_283\n      tag_123\n      jump\t// in\n    tag_283:\n        /* \"#utility.yul\":14358:14470   */\n    tag_282:\n        /* \"#utility.yul\":14479:14533   */\n      tag_284\n        /* \"#utility.yul\":14526:14532   */\n      dup5\n        /* \"#utility.yul\":14521:14524   */\n      dup3\n        /* \"#utility.yul\":14516:14519   */\n      dup6\n        /* \"#utility.yul\":14479:14533   */\n      tag_125\n      jump\t// in\n    tag_284:\n        /* \"#utility.yul\":14199:14539   */\n      pop\n        /* \"#utility.yul\":14116:14539   */\n      swap4\n      swap3\n      pop\n      pop\n      pop\n      jump\t// out\n        /* \"#utility.yul\":14558:14896   */\n    tag_127:\n        /* \"#utility.yul\":14613:14618   */\n      0x00\n        /* \"#utility.yul\":14662:14665   */\n      dup3\n        /* \"#utility.yul\":14655:14659   */\n      0x1f\n        /* \"#utility.yul\":14647:14653   */\n      dup4\n        /* \"#utility.yul\":14643:14660   */\n      add\n        /* \"#utility.yul\":14639:14666   */\n      slt\n        /* \"#utility.yul\":14629:14751   */\n      tag_286\n      jumpi\n        /* \"#utility.yul\":14670:14749   */\n      tag_287\n      tag_88\n      jump\t// in\n    tag_287:\n        /* \"#utility.yul\":14629:14751   */\n    tag_286:\n        /* \"#utility.yul\":14787:14793   */\n      dup2\n        /* \"#utility.yul\":14774:14794   */\n      calldataload\n        /* \"#utility.yul\":14812:14890   */\n      tag_288\n        /* \"#utility.yul\":14886:14889   */\n      dup5\n        /* \"#utility.yul\":14878:14884   */\n      dup3\n        /* \"#utility.yul\":14871:14875   */\n      0x20\n        /* \"#utility.yul\":14863:14869   */\n      dup7\n        /* \"#utility.yul\":14859:14876   */\n      add\n        /* \"#utility.yul\":14812:14890   */\n      tag_126\n      jump\t// in\n    tag_288:\n        /* \"#utility.yul\":14803:14890   */\n      swap2\n      pop\n        /* \"#utility.yul\":14619:14896   */\n      pop\n        /* \"#utility.yul\":14558:14896   */\n      swap3\n      swap2\n      pop\n      pop\n      jump\t// out\n        /* \"#utility.yul\":14902:16443   */\n    tag_32:\n        /* \"#utility.yul\":15072:15078   */\n      0x00\n        /* \"#utility.yul\":15080:15086   */\n      0x00\n        /* \"#utility.yul\":15088:15094   */\n      0x00\n        /* \"#utility.yul\":15096:15102   */\n      0x00\n        /* \"#utility.yul\":15104:15110   */\n      0x00\n        /* \"#utility.yul\":15153:15156   */\n      0xa0\n        /* \"#utility.yul\":15141:15150   */\n      dup7\n        /* \"#utility.yul\":15132:15139   */\n      dup9\n        /* \"#utility.yul\":15128:15151   */\n      sub\n        /* \"#utility.yul\":15124:15157   */\n      slt\n        /* \"#utility.yul\":15121:15241   */\n      iszero\n      tag_290\n      jumpi\n        /* \"#utility.yul\":15160:15239   */\n      tag_291\n      tag_86\n      jump\t// in\n    tag_291:\n        /* \"#utility.yul\":15121:15241   */\n    tag_290:\n        /* \"#utility.yul\":15280:15281   */\n      0x00\n        /* \"#utility.yul\":15305:15366   */\n      tag_292\n        /* \"#utility.yul\":15358:15365   */\n      dup9\n        /* \"#utility.yul\":15349:15355   */\n      dup3\n        /* \"#utility.yul\":15338:15347   */\n      dup10\n        /* \"#utility.yul\":15334:15356   */\n      add\n        /* \"#utility.yul\":15305:15366   */\n      tag_122\n      jump\t// in\n    tag_292:\n        /* \"#utility.yul\":15295:15366   */\n      swap6\n      pop\n        /* \"#utility.yul\":15251:15376   */\n      pop\n        /* \"#utility.yul\":15415:15417   */\n      0x20\n        /* \"#utility.yul\":15441:15502   */\n      tag_293\n        /* \"#utility.yul\":15494:15501   */\n      dup9\n        /* \"#utility.yul\":15485:15491   */\n      dup3\n        /* \"#utility.yul\":15474:15483   */\n      dup10\n        /* \"#utility.yul\":15470:15492   */\n      add\n        /* \"#utility.yul\":15441:15502   */\n      tag_122\n      jump\t// in\n    tag_293:\n        /* \"#utility.yul\":15431:15502   */\n      swap5\n      pop\n        /* \"#utility.yul\":15386:15512   */\n      pop\n        /* \"#utility.yul\":15579:15581   */\n      0x40\n        /* \"#utility.yul\":15568:15577   */\n      dup7\n        /* \"#utility.yul\":15564:15582   */\n      add\n        /* \"#utility.yul\":15551:15583   */\n      calldataload\n        /* \"#utility.yul\":15610:15628   */\n      0xffffffffffffffff\n        /* \"#utility.yul\":15602:15608   */\n      dup2\n        /* \"#utility.yul\":15599:15629   */\n      gt\n        /* \"#utility.yul\":15596:15713   */\n      iszero\n      tag_294\n      jumpi\n        /* \"#utility.yul\":15632:15711   */\n      tag_295\n      tag_87\n      jump\t// in\n    tag_295:\n        /* \"#utility.yul\":15596:15713   */\n    tag_294:\n        /* \"#utility.yul\":15737:15815   */\n      tag_296\n        /* \"#utility.yul\":15807:15814   */\n      dup9\n        /* \"#utility.yul\":15798:15804   */\n      dup3\n        /* \"#utility.yul\":15787:15796   */\n      dup10\n        /* \"#utility.yul\":15783:15805   */\n      add\n        /* \"#utility.yul\":15737:15815   */\n      tag_112\n      jump\t// in\n    tag_296:\n        /* \"#utility.yul\":15727:15815   */\n      swap4\n      pop\n        /* \"#utility.yul\":15522:15825   */\n      pop\n        /* \"#utility.yul\":15892:15894   */\n      0x60\n        /* \"#utility.yul\":15881:15890   */\n      dup7\n        /* \"#utility.yul\":15877:15895   */\n      add\n        /* \"#utility.yul\":15864:15896   */\n      calldataload\n        /* \"#utility.yul\":15923:15941   */\n      0xffffffffffffffff\n        /* \"#utility.yul\":15915:15921   */\n      dup2\n        /* \"#utility.yul\":15912:15942   */\n      gt\n        /* \"#utility.yul\":15909:16026   */\n      iszero\n      tag_297\n      jumpi\n        /* \"#utility.yul\":15945:16024   */\n      tag_298\n      tag_87\n      jump\t// in\n    tag_298:\n        /* \"#utility.yul\":15909:16026   */\n    tag_297:\n        /* \"#utility.yul\":16050:16128   */\n      tag_299\n        /* \"#utility.yul\":16120:16127   */\n      dup9\n        /* \"#utility.yul\":16111:16117   */\n      dup3\n        /* \"#utility.yul\":16100:16109   */\n      dup10\n        /* \"#utility.yul\":16096:16118   */\n      add\n        /* \"#utility.yul\":16050:16128   */\n      tag_112\n      jump\t// in\n    tag_299:\n        /* \"#utility.yul\":16040:16128   */\n      swap3\n      pop\n        /* \"#utility.yul\":15835:16138   */\n      pop\n        /* \"#utility.yul\":16205:16208   */\n      0x80\n        /* \"#utility.yul\":16194:16203   */\n      dup7\n        /* \"#utility.yul\":16190:16209   */\n      add\n        /* \"#utility.yul\":16177:16210   */\n      calldataload\n        /* \"#utility.yul\":16237:16255   */\n      0xffffffffffffffff\n        /* \"#utility.yul\":16229:16235   */\n      dup2\n        /* \"#utility.yul\":16226:16256   */\n      gt\n        /* \"#utility.yul\":16223:16340   */\n      iszero\n      tag_300\n      jumpi\n        /* \"#utility.yul\":16259:16338   */\n      tag_301\n      tag_87\n      jump\t// in\n    tag_301:\n        /* \"#utility.yul\":16223:16340   */\n    tag_300:\n        /* \"#utility.yul\":16364:16426   */\n      tag_302\n        /* \"#utility.yul\":16418:16425   */\n      dup9\n        /* \"#utility.yul\":16409:16415   */\n      dup3\n        /* \"#utility.yul\":16398:16407   */\n      dup10\n        /* \"#utility.yul\":16394:16416   */\n      add\n        /* \"#utility.yul\":16364:16426   */\n      tag_127\n      jump\t// in\n    tag_302:\n        /* \"#utility.yul\":16354:16426   */\n      swap2\n      pop\n        /* \"#utility.yul\":16148:16436   */\n      pop\n        /* \"#utility.yul\":14902:16443   */\n      swap3\n      swap6\n      pop\n      swap3\n      swap6\n      swap1\n      swap4\n      pop\n      jump\t// out\n        /* \"#utility.yul\":16449:16567   */\n    tag_128:\n        /* \"#utility.yul\":16536:16560   */\n      tag_304\n        /* \"#utility.yul\":16554:16559   */\n      dup2\n        /* \"#utility.yul\":16536:16560   */\n      tag_102\n      jump\t// in\n    tag_304:\n        /* \"#utility.yul\":16531:16534   */\n      dup3\n        /* \"#utility.yul\":16524:16561   */\n      mstore\n        /* \"#utility.yul\":16449:16567   */\n      pop\n      pop\n      jump\t// out\n        /* \"#utility.yul\":16573:16687   */\n    tag_129:\n        /* \"#utility.yul\":16640:16646   */\n      0x00\n        /* \"#utility.yul\":16674:16679   */\n      dup2\n        /* \"#utility.yul\":16668:16680   */\n      mload\n        /* \"#utility.yul\":16658:16680   */\n      swap1\n      pop\n        /* \"#utility.yul\":16573:16687   */\n      swap2\n      swap1\n      pop\n      jump\t// out\n        /* \"#utility.yul\":16693:16877   */\n    tag_130:\n        /* \"#utility.yul\":16792:16803   */\n      0x00\n        /* \"#utility.yul\":16826:16832   */\n      dup3\n        /* \"#utility.yul\":16821:16824   */\n      dup3\n        /* \"#utility.yul\":16814:16833   */\n      mstore\n        /* \"#utility.yul\":16866:16870   */\n      0x20\n        /* \"#utility.yul\":16861:16864   */\n      dup3\n        /* \"#utility.yul\":16857:16871   */\n      add\n        /* \"#utility.yul\":16842:16871   */\n      swap1\n      pop\n        /* \"#utility.yul\":16693:16877   */\n      swap3\n      swap2\n      pop\n      pop\n      jump\t// out\n        /* \"#utility.yul\":16883:17015   */\n    tag_131:\n        /* \"#utility.yul\":16950:16954   */\n      0x00\n        /* \"#utility.yul\":16973:16976   */\n      dup2\n        /* \"#utility.yul\":16965:16976   */\n      swap1\n      pop\n        /* \"#utility.yul\":17003:17007   */\n      0x20\n        /* \"#utility.yul\":16998:17001   */\n      dup3\n        /* \"#utility.yul\":16994:17008   */\n      add\n        /* \"#utility.yul\":16986:17008   */\n      swap1\n      pop\n        /* \"#utility.yul\":16883:17015   */\n      swap2\n      swap1\n      pop\n      jump\t// out\n        /* \"#utility.yul\":17021:17200   */\n    tag_132:\n        /* \"#utility.yul\":17090:17100   */\n      0x00\n        /* \"#utility.yul\":17111:17157   */\n      tag_309\n        /* \"#utility.yul\":17153:17156   */\n      dup4\n        /* \"#utility.yul\":17145:17151   */\n      dup4\n        /* \"#utility.yul\":17111:17157   */\n      tag_96\n      jump\t// in\n    tag_309:\n        /* \"#utility.yul\":17189:17193   */\n      0x20\n        /* \"#utility.yul\":17184:17187   */\n      dup4\n        /* \"#utility.yul\":17180:17194   */\n      add\n        /* \"#utility.yul\":17166:17194   */\n      swap1\n      pop\n        /* \"#utility.yul\":17021:17200   */\n      swap3\n      swap2\n      pop\n      pop\n      jump\t// out\n        /* \"#utility.yul\":17206:17319   */\n    tag_133:\n        /* \"#utility.yul\":17276:17280   */\n      0x00\n        /* \"#utility.yul\":17308:17312   */\n      0x20\n        /* \"#utility.yul\":17303:17306   */\n      dup3\n        /* \"#utility.yul\":17299:17313   */\n      add\n        /* \"#utility.yul\":17291:17313   */\n      swap1\n      pop\n        /* \"#utility.yul\":17206:17319   */\n      swap2\n      swap1\n      pop\n      jump\t// out\n        /* \"#utility.yul\":17355:18087   */\n    tag_134:\n        /* \"#utility.yul\":17474:17477   */\n      0x00\n        /* \"#utility.yul\":17503:17557   */\n      tag_312\n        /* \"#utility.yul\":17551:17556   */\n      dup3\n        /* \"#utility.yul\":17503:17557   */\n      tag_129\n      jump\t// in\n    tag_312:\n        /* \"#utility.yul\":17573:17659   */\n      tag_313\n        /* \"#utility.yul\":17652:17658   */\n      dup2\n        /* \"#utility.yul\":17647:17650   */\n      dup6\n        /* \"#utility.yul\":17573:17659   */\n      tag_130\n      jump\t// in\n    tag_313:\n        /* \"#utility.yul\":17566:17659   */\n      swap4\n      pop\n        /* \"#utility.yul\":17683:17739   */\n      tag_314\n        /* \"#utility.yul\":17733:17738   */\n      dup4\n        /* \"#utility.yul\":17683:17739   */\n      tag_131\n      jump\t// in\n    tag_314:\n        /* \"#utility.yul\":17762:17769   */\n      dup1\n        /* \"#utility.yul\":17793:17794   */\n      0x00\n        /* \"#utility.yul\":17778:18062   */\n    tag_315:\n        /* \"#utility.yul\":17803:17809   */\n      dup4\n        /* \"#utility.yul\":17800:17801   */\n      dup2\n        /* \"#utility.yul\":17797:17810   */\n      lt\n        /* \"#utility.yul\":17778:18062   */\n      iszero\n      tag_317\n      jumpi\n        /* \"#utility.yul\":17879:17885   */\n      dup2\n        /* \"#utility.yul\":17873:17886   */\n      mload\n        /* \"#utility.yul\":17906:17969   */\n      tag_318\n        /* \"#utility.yul\":17965:17968   */\n      dup9\n        /* \"#utility.yul\":17950:17963   */\n      dup3\n        /* \"#utility.yul\":17906:17969   */\n      tag_132\n      jump\t// in\n    tag_318:\n        /* \"#utility.yul\":17899:17969   */\n      swap8\n      pop\n        /* \"#utility.yul\":17992:18052   */\n      tag_319\n        /* \"#utility.yul\":18045:18051   */\n      dup4\n        /* \"#utility.yul\":17992:18052   */\n      tag_133\n      jump\t// in\n    tag_319:\n        /* \"#utility.yul\":17982:18052   */\n      swap3\n      pop\n        /* \"#utility.yul\":17838:18062   */\n      pop\n        /* \"#utility.yul\":17825:17826   */\n      0x01\n        /* \"#utility.yul\":17822:17823   */\n      dup2\n        /* \"#utility.yul\":17818:17827   */\n      add\n        /* \"#utility.yul\":17813:17827   */\n      swap1\n      pop\n        /* \"#utility.yul\":17778:18062   */\n      jump(tag_315)\n    tag_317:\n        /* \"#utility.yul\":17782:17796   */\n      pop\n        /* \"#utility.yul\":18078:18081   */\n      dup6\n        /* \"#utility.yul\":18071:18081   */\n      swap4\n      pop\n        /* \"#utility.yul\":17479:18087   */\n      pop\n      pop\n      pop\n        /* \"#utility.yul\":17355:18087   */\n      swap3\n      swap2\n      pop\n      pop\n      jump\t// out\n        /* \"#utility.yul\":18093:18191   */\n    tag_135:\n        /* \"#utility.yul\":18144:18150   */\n      0x00\n        /* \"#utility.yul\":18178:18183   */\n      dup2\n        /* \"#utility.yul\":18172:18184   */\n      mload\n        /* \"#utility.yul\":18162:18184   */\n      swap1\n      pop\n        /* \"#utility.yul\":18093:18191   */\n      swap2\n      swap1\n      pop\n      jump\t// out\n        /* \"#utility.yul\":18197:18365   */\n    tag_136:\n        /* \"#utility.yul\":18280:18291   */\n      0x00\n        /* \"#utility.yul\":18314:18320   */\n      dup3\n        /* \"#utility.yul\":18309:18312   */\n      dup3\n        /* \"#utility.yul\":18302:18321   */\n      mstore\n        /* \"#utility.yul\":18354:18358   */\n      0x20\n        /* \"#utility.yul\":18349:18352   */\n      dup3\n        /* \"#utility.yul\":18345:18359   */\n      add\n        /* \"#utility.yul\":18330:18359   */\n      swap1\n      pop\n        /* \"#utility.yul\":18197:18365   */\n      swap3\n      swap2\n      pop\n      pop\n      jump\t// out\n        /* \"#utility.yul\":18371:18510   */\n    tag_137:\n        /* \"#utility.yul\":18460:18466   */\n      dup3\n        /* \"#utility.yul\":18455:18458   */\n      dup2\n        /* \"#utility.yul\":18450:18453   */\n      dup4\n        /* \"#utility.yul\":18444:18467   */\n      mcopy\n        /* \"#utility.yul\":18501:18502   */\n      0x00\n        /* \"#utility.yul\":18492:18498   */\n      dup4\n        /* \"#utility.yul\":18487:18490   */\n      dup4\n        /* \"#utility.yul\":18483:18499   */\n      add\n        /* \"#utility.yul\":18476:18503   */\n      mstore\n        /* \"#utility.yul\":18371:18510   */\n      pop\n      pop\n      pop\n      jump\t// out\n        /* \"#utility.yul\":18516:18889   */\n    tag_138:\n        /* \"#utility.yul\":18602:18605   */\n      0x00\n        /* \"#utility.yul\":18630:18668   */\n      tag_324\n        /* \"#utility.yul\":18662:18667   */\n      dup3\n        /* \"#utility.yul\":18630:18668   */\n      tag_135\n      jump\t// in\n    tag_324:\n        /* \"#utility.yul\":18684:18754   */\n      tag_325\n        /* \"#utility.yul\":18747:18753   */\n      dup2\n        /* \"#utility.yul\":18742:18745   */\n      dup6\n        /* \"#utility.yul\":18684:18754   */\n      tag_136\n      jump\t// in\n    tag_325:\n        /* \"#utility.yul\":18677:18754   */\n      swap4\n      pop\n        /* \"#utility.yul\":18763:18828   */\n      tag_326\n        /* \"#utility.yul\":18821:18827   */\n      dup2\n        /* \"#utility.yul\":18816:18819   */\n      dup6\n        /* \"#utility.yul\":18809:18813   */\n      0x20\n        /* \"#utility.yul\":18802:18807   */\n      dup7\n        /* \"#utility.yul\":18798:18814   */\n      add\n        /* \"#utility.yul\":18763:18828   */\n      tag_137\n      jump\t// in\n    tag_326:\n        /* \"#utility.yul\":18853:18882   */\n      tag_327\n        /* \"#utility.yul\":18875:18881   */\n      dup2\n        /* \"#utility.yul\":18853:18882   */\n      tag_105\n      jump\t// in\n    tag_327:\n        /* \"#utility.yul\":18848:18851   */\n      dup5\n        /* \"#utility.yul\":18844:18883   */\n      add\n        /* \"#utility.yul\":18837:18883   */\n      swap2\n      pop\n        /* \"#utility.yul\":18606:18889   */\n      pop\n        /* \"#utility.yul\":18516:18889   */\n      swap3\n      swap2\n      pop\n      pop\n      jump\t// out\n        /* \"#utility.yul\":18895:19948   */\n    tag_34:\n        /* \"#utility.yul\":19218:19222   */\n      0x00\n        /* \"#utility.yul\":19256:19259   */\n      0xa0\n        /* \"#utility.yul\":19245:19254   */\n      dup3\n        /* \"#utility.yul\":19241:19260   */\n      add\n        /* \"#utility.yul\":19233:19260   */\n      swap1\n      pop\n        /* \"#utility.yul\":19270:19341   */\n      tag_329\n        /* \"#utility.yul\":19338:19339   */\n      0x00\n        /* \"#utility.yul\":19327:19336   */\n      dup4\n        /* \"#utility.yul\":19323:19340   */\n      add\n        /* \"#utility.yul\":19314:19320   */\n      dup9\n        /* \"#utility.yul\":19270:19341   */\n      tag_128\n      jump\t// in\n    tag_329:\n        /* \"#utility.yul\":19351:19423   */\n      tag_330\n        /* \"#utility.yul\":19419:19421   */\n      0x20\n        /* \"#utility.yul\":19408:19417   */\n      dup4\n        /* \"#utility.yul\":19404:19422   */\n      add\n        /* \"#utility.yul\":19395:19401   */\n      dup8\n        /* \"#utility.yul\":19351:19423   */\n      tag_128\n      jump\t// in\n    tag_330:\n        /* \"#utility.yul\":19470:19479   */\n      dup2\n        /* \"#utility.yul\":19464:19468   */\n      dup2\n        /* \"#utility.yul\":19460:19480   */\n      sub\n        /* \"#utility.yul\":19455:19457   */\n      0x40\n        /* \"#utility.yul\":19444:19453   */\n      dup4\n        /* \"#utility.yul\":19440:19458   */\n      add\n        /* \"#utility.yul\":19433:19481   */\n      mstore\n        /* \"#utility.yul\":19498:19606   */\n      tag_331\n        /* \"#utility.yul\":19601:19605   */\n      dup2\n        /* \"#utility.yul\":19592:19598   */\n      dup7\n        /* \"#utility.yul\":19498:19606   */\n      tag_134\n      jump\t// in\n    tag_331:\n        /* \"#utility.yul\":19490:19606   */\n      swap1\n      pop\n        /* \"#utility.yul\":19653:19662   */\n      dup2\n        /* \"#utility.yul\":19647:19651   */\n      dup2\n        /* \"#utility.yul\":19643:19663   */\n      sub\n        /* \"#utility.yul\":19638:19640   */\n      0x60\n        /* \"#utility.yul\":19627:19636   */\n      dup4\n        /* \"#utility.yul\":19623:19641   */\n      add\n        /* \"#utility.yul\":19616:19664   */\n      mstore\n        /* \"#utility.yul\":19681:19789   */\n      tag_332\n        /* \"#utility.yul\":19784:19788   */\n      dup2\n        /* \"#utility.yul\":19775:19781   */\n      dup6\n        /* \"#utility.yul\":19681:19789   */\n      tag_134\n      jump\t// in\n    tag_332:\n        /* \"#utility.yul\":19673:19789   */\n      swap1\n      pop\n        /* \"#utility.yul\":19837:19846   */\n      dup2\n        /* \"#utility.yul\":19831:19835   */\n      dup2\n        /* \"#utility.yul\":19827:19847   */\n      sub\n        /* \"#utility.yul\":19821:19824   */\n      0x80\n        /* \"#utility.yul\":19810:19819   */\n      dup4\n        /* \"#utility.yul\":19806:19825   */\n      add\n        /* \"#utility.yul\":19799:19848   */\n      mstore\n        /* \"#utility.yul\":19865:19941   */\n      tag_333\n        /* \"#utility.yul\":19936:19940   */\n      dup2\n        /* \"#utility.yul\":19927:19933   */\n      dup5\n        /* \"#utility.yul\":19865:19941   */\n      tag_138\n      jump\t// in\n    tag_333:\n        /* \"#utility.yul\":19857:19941   */\n      swap1\n      pop\n        /* \"#utility.yul\":18895:19948   */\n      swap7\n      swap6\n      pop\n      pop\n      pop\n      pop\n      pop\n      pop\n      jump\t// out\n        /* \"#utility.yul\":19954:20299   */\n    tag_47:\n        /* \"#utility.yul\":20021:20027   */\n      0x00\n        /* \"#utility.yul\":20070:20072   */\n      0x20\n        /* \"#utility.yul\":20058:20067   */\n      dup3\n        /* \"#utility.yul\":20049:20056   */\n      dup5\n        /* \"#utility.yul\":20045:20068   */\n      sub\n        /* \"#utility.yul\":20041:20073   */\n      slt\n        /* \"#utility.yul\":20038:20157   */\n      iszero\n      tag_335\n      jumpi\n        /* \"#utility.yul\":20076:20155   */\n      tag_336\n      tag_86\n      jump\t// in\n    tag_336:\n        /* \"#utility.yul\":20038:20157   */\n    tag_335:\n        /* \"#utility.yul\":20196:20197   */\n      0x00\n        /* \"#utility.yul\":20221:20282   */\n      tag_337\n        /* \"#utility.yul\":20274:20281   */\n      dup5\n        /* \"#utility.yul\":20265:20271   */\n      dup3\n        /* \"#utility.yul\":20254:20263   */\n      dup6\n        /* \"#utility.yul\":20250:20272   */\n      add\n        /* \"#utility.yul\":20221:20282   */\n      tag_122\n      jump\t// in\n    tag_337:\n        /* \"#utility.yul\":20211:20282   */\n      swap2\n      pop\n        /* \"#utility.yul\":20167:20292   */\n      pop\n        /* \"#utility.yul\":19954:20299   */\n      swap3\n      swap2\n      pop\n      pop\n      jump\t// out\n        /* \"#utility.yul\":20305:20888   */\n    tag_50:\n        /* \"#utility.yul\":20526:20530   */\n      0x00\n        /* \"#utility.yul\":20564:20566   */\n      0x40\n        /* \"#utility.yul\":20553:20562   */\n      dup3\n        /* \"#utility.yul\":20549:20567   */\n      add\n        /* \"#utility.yul\":20541:20567   */\n      swap1\n      pop\n        /* \"#utility.yul\":20577:20648   */\n      tag_339\n        /* \"#utility.yul\":20645:20646   */\n      0x00\n        /* \"#utility.yul\":20634:20643   */\n      dup4\n        /* \"#utility.yul\":20630:20647   */\n      add\n        /* \"#utility.yul\":20621:20627   */\n      dup6\n        /* \"#utility.yul\":20577:20648   */\n      tag_128\n      jump\t// in\n    tag_339:\n        /* \"#utility.yul\":20695:20704   */\n      dup2\n        /* \"#utility.yul\":20689:20693   */\n      dup2\n        /* \"#utility.yul\":20685:20705   */\n      sub\n        /* \"#utility.yul\":20680:20682   */\n      0x20\n        /* \"#utility.yul\":20669:20678   */\n      dup4\n        /* \"#utility.yul\":20665:20683   */\n      add\n        /* \"#utility.yul\":20658:20706   */\n      mstore\n        /* \"#utility.yul\":20723:20881   */\n      tag_340\n        /* \"#utility.yul\":20876:20880   */\n      dup2\n        /* \"#utility.yul\":20867:20873   */\n      dup5\n        /* \"#utility.yul\":20723:20881   */\n      tag_100\n      jump\t// in\n    tag_340:\n        /* \"#utility.yul\":20715:20881   */\n      swap1\n      pop\n        /* \"#utility.yul\":20305:20888   */\n      swap4\n      swap3\n      pop\n      pop\n      pop\n      jump\t// out\n        /* \"#utility.yul\":20894:21012   */\n    tag_139:\n        /* \"#utility.yul\":20981:21005   */\n      tag_342\n        /* \"#utility.yul\":20999:21004   */\n      dup2\n        /* \"#utility.yul\":20981:21005   */\n      tag_95\n      jump\t// in\n    tag_342:\n        /* \"#utility.yul\":20976:20979   */\n      dup3\n        /* \"#utility.yul\":20969:21006   */\n      mstore\n        /* \"#utility.yul\":20894:21012   */\n      pop\n      pop\n      jump\t// out\n        /* \"#utility.yul\":21018:21460   */\n    tag_60:\n        /* \"#utility.yul\":21167:21171   */\n      0x00\n        /* \"#utility.yul\":21205:21207   */\n      0x60\n        /* \"#utility.yul\":21194:21203   */\n      dup3\n        /* \"#utility.yul\":21190:21208   */\n      add\n        /* \"#utility.yul\":21182:21208   */\n      swap1\n      pop\n        /* \"#utility.yul\":21218:21289   */\n      tag_344\n        /* \"#utility.yul\":21286:21287   */\n      0x00\n        /* \"#utility.yul\":21275:21284   */\n      dup4\n        /* \"#utility.yul\":21271:21288   */\n      add\n        /* \"#utility.yul\":21262:21268   */\n      dup7\n        /* \"#utility.yul\":21218:21289   */\n      tag_128\n      jump\t// in\n    tag_344:\n        /* \"#utility.yul\":21299:21371   */\n      tag_345\n        /* \"#utility.yul\":21367:21369   */\n      0x20\n        /* \"#utility.yul\":21356:21365   */\n      dup4\n        /* \"#utility.yul\":21352:21370   */\n      add\n        /* \"#utility.yul\":21343:21349   */\n      dup6\n        /* \"#utility.yul\":21299:21371   */\n      tag_139\n      jump\t// in\n    tag_345:\n        /* \"#utility.yul\":21381:21453   */\n      tag_346\n        /* \"#utility.yul\":21449:21451   */\n      0x40\n        /* \"#utility.yul\":21438:21447   */\n      dup4\n        /* \"#utility.yul\":21434:21452   */\n      add\n        /* \"#utility.yul\":21425:21431   */\n      dup5\n        /* \"#utility.yul\":21381:21453   */\n      tag_139\n      jump\t// in\n    tag_346:\n        /* \"#utility.yul\":21018:21460   */\n      swap5\n      swap4\n      pop\n      pop\n      pop\n      pop\n      jump\t// out\n        /* \"#utility.yul\":21466:21646   */\n    tag_79:\n        /* \"#utility.yul\":21514:21591   */\n      0x4e487b7100000000000000000000000000000000000000000000000000000000\n        /* \"#utility.yul\":21511:21512   */\n      0x00\n        /* \"#utility.yul\":21504:21592   */\n      mstore\n        /* \"#utility.yul\":21611:21615   */\n      0x32\n        /* \"#utility.yul\":21608:21609   */\n      0x04\n        /* \"#utility.yul\":21601:21616   */\n      mstore\n        /* \"#utility.yul\":21635:21639   */\n      0x24\n        /* \"#utility.yul\":21632:21633   */\n      0x00\n        /* \"#utility.yul\":21625:21640   */\n      revert\n\n    auxdata: 0xa2646970667358221220666767c7d2ea7660f28954040508a5a00a9a5abc8071ddc8647496b3f9f3e28464736f6c634300081c0033\n}\n",
				"bytecode": {
					"linkReferences": {},
					"object": "60a060405234801561000f575f5ffd5b50604051611089380380611089833981810160405281019061003191906100dc565b808073ffffffffffffffffffffffffffffffffffffffff1660808173ffffffffffffffffffffffffffffffffffffffff16815250505050610107565b5f5ffd5b5f73ffffffffffffffffffffffffffffffffffffffff82169050919050565b5f61009a82610071565b9050919050565b5f6100ab82610090565b9050919050565b6100bb816100a1565b81146100c5575f5ffd5b50565b5f815190506100d6816100b2565b92915050565b5f602082840312156100f1576100f061006d565b5b5f6100fe848285016100c8565b91505092915050565b608051610f556101345f395f8181610107015281816102720152818161033a01526103e20152610f555ff3fe608060405234801561000f575f5ffd5b506004361061004a575f3560e01c8063a129568d1461004e578063bc197c8114610081578063f23a6e61146100b1578063fabe109a146100e1575b5f5ffd5b61006860048036038101906100639190610594565b6100ff565b60405161007894939291906106cc565b60405180910390f35b61009b600480360381019061009691906108f7565b61024f565b6040516100a891906109ff565b60405180910390f35b6100cb60048036038101906100c69190610a18565b610317565b6040516100d891906109ff565b60405180910390f35b6100e96103e0565b6040516100f69190610b09565b60405180910390f35b6060806060807f000000000000000000000000000000000000000000000000000000000000000073ffffffffffffffffffffffffffffffffffffffff163373ffffffffffffffffffffffffffffffffffffffff161461018a576040517f4ca8886700000000000000000000000000000000000000000000000000000000815260040160405180910390fd5b5f5f5f5f5f8a8a81019061019e9190610c0d565b945094509450945094508473ffffffffffffffffffffffffffffffffffffffff16632eb2c2d630868686866040518663ffffffff1660e01b81526004016101e9959493929190610def565b5f604051808303815f87803b158015610200575f5ffd5b505af1158015610212573d5f5f3e3d5ffd5b5050505061021e610404565b610229868585610409565b610231610404565b610239610404565b9850985098509850505050505092959194509250565b5f5f8690505f848490501461027057838381019061026d9190610e55565b90505b7f000000000000000000000000000000000000000000000000000000000000000073ffffffffffffffffffffffffffffffffffffffff1663f3178dd1826102b8338a8a610409565b6040518363ffffffff1660e01b81526004016102d5929190610e80565b5f604051808303815f87803b1580156102ec575f5ffd5b505af11580156102fe573d5f5f3e3d5ffd5b5050505063bc197c8160e01b9150509695505050505050565b5f5f8690505f84849050146103385783838101906103359190610e55565b90505b7f000000000000000000000000000000000000000000000000000000000000000073ffffffffffffffffffffffffffffffffffffffff1663156e29f68261037f338a6104f5565b886040518463ffffffff1660e01b815260040161039e93929190610ebd565b5f604051808303815f87803b1580156103b5575f5ffd5b505af11580156103c7573d5f5f3e3d5ffd5b5050505063f23a6e6160e01b9150509695505050505050565b7f000000000000000000000000000000000000000000000000000000000000000081565b606090565b6060825167ffffffffffffffff81111561042657610425610795565b5b60405190808252806020026020018201604052801561045f57816020015b61044c61050a565b8152602001906001900390816104445790505b5090505f5f90505b83518110156104ed57604051806040016040528061049f8787858151811061049257610491610ef2565b5b60200260200101516104f5565b81526020018483815181106104b7576104b6610ef2565b5b60200260200101518152508282815181106104d5576104d4610ef2565b5b60200260200101819052508080600101915050610467565b509392505050565b5f825f52816020526034600c20905092915050565b60405180604001604052805f81526020015f81525090565b5f604051905090565b5f5ffd5b5f5ffd5b5f5ffd5b5f5ffd5b5f5ffd5b5f5f83601f84011261055457610553610533565b5b8235905067ffffffffffffffff81111561057157610570610537565b5b60208301915083600182028301111561058d5761058c61053b565b5b9250929050565b5f5f602083850312156105aa576105a961052b565b5b5f83013567ffffffffffffffff8111156105c7576105c661052f565b5b6105d38582860161053f565b92509250509250929050565b5f81519050919050565b5f82825260208201905092915050565b5f819050602082019050919050565b5f819050919050565b61061a81610608565b82525050565b604082015f8201516106345f850182610611565b5060208201516106476020850182610611565b50505050565b5f6106588383610620565b60408301905092915050565b5f602082019050919050565b5f61067a826105df565b61068481856105e9565b935061068f836105f9565b805f5b838110156106bf5781516106a6888261064d565b97506106b183610664565b925050600181019050610692565b5085935050505092915050565b5f6080820190508181035f8301526106e48187610670565b905081810360208301526106f88186610670565b9050818103604083015261070c8185610670565b905081810360608301526107208184610670565b905095945050505050565b5f73ffffffffffffffffffffffffffffffffffffffff82169050919050565b5f6107548261072b565b9050919050565b6107648161074a565b811461076e575f5ffd5b50565b5f8135905061077f8161075b565b92915050565b5f601f19601f8301169050919050565b7f4e487b71000000000000000000000000000000000000000000000000000000005f52604160045260245ffd5b6107cb82610785565b810181811067ffffffffffffffff821117156107ea576107e9610795565b5b80604052505050565b5f6107fc610522565b905061080882826107c2565b919050565b5f67ffffffffffffffff82111561082757610826610795565b5b602082029050602081019050919050565b61084181610608565b811461084b575f5ffd5b50565b5f8135905061085c81610838565b92915050565b5f61087461086f8461080d565b6107f3565b905080838252602082019050602084028301858111156108975761089661053b565b5b835b818110156108c057806108ac888261084e565b845260208401935050602081019050610899565b5050509392505050565b5f82601f8301126108de576108dd610533565b5b81356108ee848260208601610862565b91505092915050565b5f5f5f5f5f5f60a087890312156109115761091061052b565b5b5f61091e89828a01610771565b965050602061092f89828a01610771565b955050604087013567ffffffffffffffff8111156109505761094f61052f565b5b61095c89828a016108ca565b945050606087013567ffffffffffffffff81111561097d5761097c61052f565b5b61098989828a016108ca565b935050608087013567ffffffffffffffff8111156109aa576109a961052f565b5b6109b689828a0161053f565b92509250509295509295509295565b5f7fffffffff0000000000000000000000000000000000000000000000000000000082169050919050565b6109f9816109c5565b82525050565b5f602082019050610a125f8301846109f0565b92915050565b5f5f5f5f5f5f60a08789031215610a3257610a3161052b565b5b5f610a3f89828a01610771565b9650506020610a5089828a01610771565b9550506040610a6189828a0161084e565b9450506060610a7289828a0161084e565b935050608087013567ffffffffffffffff811115610a9357610a9261052f565b5b610a9f89828a0161053f565b92509250509295509295509295565b5f819050919050565b5f610ad1610acc610ac78461072b565b610aae565b61072b565b9050919050565b5f610ae282610ab7565b9050919050565b5f610af382610ad8565b9050919050565b610b0381610ae9565b82525050565b5f602082019050610b1c5f830184610afa565b92915050565b5f610b2c8261072b565b9050919050565b610b3c81610b22565b8114610b46575f5ffd5b50565b5f81359050610b5781610b33565b92915050565b5f5ffd5b5f67ffffffffffffffff821115610b7b57610b7a610795565b5b610b8482610785565b9050602081019050919050565b828183375f83830152505050565b5f610bb1610bac84610b61565b6107f3565b905082815260208101848484011115610bcd57610bcc610b5d565b5b610bd8848285610b91565b509392505050565b5f82601f830112610bf457610bf3610533565b5b8135610c04848260208601610b9f565b91505092915050565b5f5f5f5f5f60a08688031215610c2657610c2561052b565b5b5f610c3388828901610b49565b9550506020610c4488828901610b49565b945050604086013567ffffffffffffffff811115610c6557610c6461052f565b5b610c71888289016108ca565b935050606086013567ffffffffffffffff811115610c9257610c9161052f565b5b610c9e888289016108ca565b925050608086013567ffffffffffffffff811115610cbf57610cbe61052f565b5b610ccb88828901610be0565b9150509295509295909350565b610ce18161074a565b82525050565b5f81519050919050565b5f82825260208201905092915050565b5f819050602082019050919050565b5f610d1b8383610611565b60208301905092915050565b5f602082019050919050565b5f610d3d82610ce7565b610d478185610cf1565b9350610d5283610d01565b805f5b83811015610d82578151610d698882610d10565b9750610d7483610d27565b925050600181019050610d55565b5085935050505092915050565b5f81519050919050565b5f82825260208201905092915050565b8281835e5f83830152505050565b5f610dc182610d8f565b610dcb8185610d99565b9350610ddb818560208601610da9565b610de481610785565b840191505092915050565b5f60a082019050610e025f830188610cd8565b610e0f6020830187610cd8565b8181036040830152610e218186610d33565b90508181036060830152610e358185610d33565b90508181036080830152610e498184610db7565b90509695505050505050565b5f60208284031215610e6a57610e6961052b565b5b5f610e7784828501610b49565b91505092915050565b5f604082019050610e935f830185610cd8565b8181036020830152610ea58184610670565b90509392505050565b610eb781610608565b82525050565b5f606082019050610ed05f830186610cd8565b610edd6020830185610eae565b610eea6040830184610eae565b949350505050565b7f4e487b71000000000000000000000000000000000000000000000000000000005f52603260045260245ffdfea2646970667358221220666767c7d2ea7660f28954040508a5a00a9a5abc8071ddc8647496b3f9f3e28464736f6c634300081c0033",
					"opcodes": "PUSH1 0xA0 PUSH1 0x40 MSTORE CALLVALUE DUP1 ISZERO PUSH2 0xF JUMPI PUSH0 PUSH0 REVERT JUMPDEST POP PUSH1 0x40 MLOAD PUSH2 0x1089 CODESIZE SUB DUP1 PUSH2 0x1089 DUP4 CODECOPY DUP2 DUP2 ADD PUSH1 0x40 MSTORE DUP2 ADD SWAP1 PUSH2 0x31 SWAP2 SWAP1 PUSH2 0xDC JUMP JUMPDEST DUP1 DUP1 PUSH20 0xFFFFFFFFFFFFFFFFFFFFFFFFFFFFFFFFFFFFFFFF AND PUSH1 0x80 DUP2 PUSH20 0xFFFFFFFFFFFFFFFFFFFFFFFFFFFFFFFFFFFFFFFF AND DUP2 MSTORE POP POP POP POP PUSH2 0x107 JUMP JUMPDEST PUSH0 PUSH0 REVERT JUMPDEST PUSH0 PUSH20 0xFFFFFFFFFFFFFFFFFFFFFFFFFFFFFFFFFFFFFFFF DUP3 AND SWAP1 POP SWAP2 SWAP1 POP JUMP JUMPDEST PUSH0 PUSH2 0x9A DUP3 PUSH2 0x71 JUMP JUMPDEST SWAP1 POP SWAP2 SWAP1 POP JUMP JUMPDEST PUSH0 PUSH2 0xAB DUP3 PUSH2 0x90 JUMP JUMPDEST SWAP1 POP SWAP2 SWAP1 POP JUMP JUMPDEST PUSH2 0xBB DUP2 PUSH2 0xA1 JUMP JUMPDEST DUP2 EQ PUSH2 0xC5 JUMPI PUSH0 PUSH0 REVERT JUMPDEST POP JUMP JUMPDEST PUSH0 DUP2 MLOAD SWAP1 POP PUSH2 0xD6 DUP2 PUSH2 0xB2 JUMP JUMPDEST SWAP3 SWAP2 POP POP JUMP JUMPDEST PUSH0 PUSH1 0x20 DUP3 DUP5 SUB SLT ISZERO PUSH2 0xF1 JUMPI PUSH2 0xF0 PUSH2 0x6D JUMP JUMPDEST JUMPDEST PUSH0 PUSH2 0xFE DUP5 DUP3 DUP6 ADD PUSH2 0xC8 JUMP JUMPDEST SWAP2 POP POP SWAP3 SWAP2 POP POP JUMP JUMPDEST PUSH1 0x80 MLOAD PUSH2 0xF55 PUSH2 0x134 PUSH0 CODECOPY PUSH0 DUP2 DUP2 PUSH2 0x107 ADD MSTORE DUP2 DUP2 PUSH2 0x272 ADD MSTORE DUP2 DUP2 PUSH2 0x33A ADD MSTORE PUSH2 0x3E2 ADD MSTORE PUSH2 0xF55 PUSH0 RETURN INVALID PUSH1 0x80 PUSH1 0x40 MSTORE CALLVALUE DUP1 ISZERO PUSH2 0xF JUMPI PUSH0 PUSH0 REVERT JUMPDEST POP PUSH1 0x4 CALLDATASIZE LT PUSH2 0x4A JUMPI PUSH0 CALLDATALOAD PUSH1 0xE0 SHR DUP1 PUSH4 0xA129568D EQ PUSH2 0x4E JUMPI DUP1 PUSH4 0xBC197C81 EQ PUSH2 0x81 JUMPI DUP1 PUSH4 0xF23A6E61 EQ PUSH2 0xB1 JUMPI DUP1 PUSH4 0xFABE109A EQ PUSH2 0xE1 JUMPI JUMPDEST PUSH0 PUSH0 REVERT JUMPDEST PUSH2 0x68 PUSH1 0x4 DUP1 CALLDATASIZE SUB DUP2 ADD SWAP1 PUSH2 0x63 SWAP2 SWAP1 PUSH2 0x594 JUMP JUMPDEST PUSH2 0xFF JUMP JUMPDEST PUSH1 0x40 MLOAD PUSH2 0x78 SWAP5 SWAP4 SWAP3 SWAP2 SWAP1 PUSH2 0x6CC JUMP JUMPDEST PUSH1 0x40 MLOAD DUP1 SWAP2 SUB SWAP1 RETURN JUMPDEST PUSH2 0x9B PUSH1 0x4 DUP1 CALLDATASIZE SUB DUP2 ADD SWAP1 PUSH2 0x96 SWAP2 SWAP1 PUSH2 0x8F7 JUMP JUMPDEST PUSH2 0x24F JUMP JUMPDEST PUSH1 0x40 MLOAD PUSH2 0xA8 SWAP2 SWAP1 PUSH2 0x9FF JUMP JUMPDEST PUSH1 0x40 MLOAD DUP1 SWAP2 SUB SWAP1 RETURN JUMPDEST PUSH2 0xCB PUSH1 0x4 DUP1 CALLDATASIZE SUB DUP2 ADD SWAP1 PUSH2 0xC6 SWAP2 SWAP1 PUSH2 0xA18 JUMP JUMPDEST PUSH2 0x317 JUMP JUMPDEST PUSH1 0x40 MLOAD PUSH2 0xD8 SWAP2 SWAP1 PUSH2 0x9FF JUMP JUMPDEST PUSH1 0x40 MLOAD DUP1 SWAP2 SUB SWAP1 RETURN JUMPDEST PUSH2 0xE9 PUSH2 0x3E0 JUMP JUMPDEST PUSH1 0x40 MLOAD PUSH2 0xF6 SWAP2 SWAP1 PUSH2 0xB09 JUMP JUMPDEST PUSH1 0x40 MLOAD DUP1 SWAP2 SUB SWAP1 RETURN JUMPDEST PUSH1 0x60 DUP1 PUSH1 0x60 DUP1 PUSH32 0x0 PUSH20 0xFFFFFFFFFFFFFFFFFFFFFFFFFFFFFFFFFFFFFFFF AND CALLER PUSH20 0xFFFFFFFFFFFFFFFFFFFFFFFFFFFFFFFFFFFFFFFF AND EQ PUSH2 0x18A JUMPI PUSH1 0x40 MLOAD PUSH32 0x4CA8886700000000000000000000000000000000000000000000000000000000 DUP2 MSTORE PUSH1 0x4 ADD PUSH1 0x40 MLOAD DUP1 SWAP2 SUB SWAP1 REVERT JUMPDEST PUSH0 PUSH0 PUSH0 PUSH0 PUSH0 DUP11 DUP11 DUP2 ADD SWAP1 PUSH2 0x19E SWAP2 SWAP1 PUSH2 0xC0D JUMP JUMPDEST SWAP5 POP SWAP5 POP SWAP5 POP SWAP5 POP SWAP5 POP DUP5 PUSH20 0xFFFFFFFFFFFFFFFFFFFFFFFFFFFFFFFFFFFFFFFF AND PUSH4 0x2EB2C2D6 ADDRESS DUP7 DUP7 DUP7 DUP7 PUSH1 0x40 MLOAD DUP7 PUSH4 0xFFFFFFFF AND PUSH1 0xE0 SHL DUP2 MSTORE PUSH1 0x4 ADD PUSH2 0x1E9 SWAP6 SWAP5 SWAP4 SWAP3 SWAP2 SWAP1 PUSH2 0xDEF JUMP JUMPDEST PUSH0 PUSH1 0x40 MLOAD DUP1 DUP4 SUB DUP2 PUSH0 DUP8 DUP1 EXTCODESIZE ISZERO DUP1 ISZERO PUSH2 0x200 JUMPI PUSH0 PUSH0 REVERT JUMPDEST POP GAS CALL ISZERO DUP1 ISZERO PUSH2 0x212 JUMPI RETURNDATASIZE PUSH0 PUSH0 RETURNDATACOPY RETURNDATASIZE PUSH0 REVERT JUMPDEST POP POP POP POP PUSH2 0x21E PUSH2 0x404 JUMP JUMPDEST PUSH2 0x229 DUP7 DUP6 DUP6 PUSH2 0x409 JUMP JUMPDEST PUSH2 0x231 PUSH2 0x404 JUMP JUMPDEST PUSH2 0x239 PUSH2 0x404 JUMP JUMPDEST SWAP9 POP SWAP9 POP SWAP9 POP SWAP9 POP POP POP POP POP POP SWAP3 SWAP6 SWAP2 SWAP5 POP SWAP3 POP JUMP JUMPDEST PUSH0 PUSH0 DUP7 SWAP1 POP PUSH0 DUP5 DUP5 SWAP1 POP EQ PUSH2 0x270 JUMPI DUP4 DUP4 DUP2 ADD SWAP1 PUSH2 0x26D SWAP2 SWAP1 PUSH2 0xE55 JUMP JUMPDEST SWAP1 POP JUMPDEST PUSH32 0x0 PUSH20 0xFFFFFFFFFFFFFFFFFFFFFFFFFFFFFFFFFFFFFFFF AND PUSH4 0xF3178DD1 DUP3 PUSH2 0x2B8 CALLER DUP11 DUP11 PUSH2 0x409 JUMP JUMPDEST PUSH1 0x40 MLOAD DUP4 PUSH4 0xFFFFFFFF AND PUSH1 0xE0 SHL DUP2 MSTORE PUSH1 0x4 ADD PUSH2 0x2D5 SWAP3 SWAP2 SWAP1 PUSH2 0xE80 JUMP JUMPDEST PUSH0 PUSH1 0x40 MLOAD DUP1 DUP4 SUB DUP2 PUSH0 DUP8 DUP1 EXTCODESIZE ISZERO DUP1 ISZERO PUSH2 0x2EC JUMPI PUSH0 PUSH0 REVERT JUMPDEST POP GAS CALL ISZERO DUP1 ISZERO PUSH2 0x2FE JUMPI RETURNDATASIZE PUSH0 PUSH0 RETURNDATACOPY RETURNDATASIZE PUSH0 REVERT JUMPDEST POP POP POP POP PUSH4 0xBC197C81 PUSH1 0xE0 SHL SWAP2 POP POP SWAP7 SWAP6 POP POP POP POP POP POP JUMP JUMPDEST PUSH0 PUSH0 DUP7 SWAP1 POP PUSH0 DUP5 DUP5 SWAP1 POP EQ PUSH2 0x338 JUMPI DUP4 DUP4 DUP2 ADD SWAP1 PUSH2 0x335 SWAP2 SWAP1 PUSH2 0xE55 JUMP JUMPDEST SWAP1 POP JUMPDEST PUSH32 0x0 PUSH20 0xFFFFFFFFFFFFFFFFFFFFFFFFFFFFFFFFFFFFFFFF AND PUSH4 0x156E29F6 DUP3 PUSH2 0x37F CALLER DUP11 PUSH2 0x4F5 JUMP JUMPDEST DUP9 PUSH1 0x40 MLOAD DUP5 PUSH4 0xFFFFFFFF AND PUSH1 0xE0 SHL DUP2 MSTORE PUSH1 0x4 ADD PUSH2 0x39E SWAP4 SWAP3 SWAP2 SWAP1 PUSH2 0xEBD JUMP JUMPDEST PUSH0 PUSH1 0x40 MLOAD DUP1 DUP4 SUB DUP2 PUSH0 DUP8 DUP1 EXTCODESIZE ISZERO DUP1 ISZERO PUSH2 0x3B5 JUMPI PUSH0 PUSH0 REVERT JUMPDEST POP GAS CALL ISZERO DUP1 ISZERO PUSH2 0x3C7 JUMPI RETURNDATASIZE PUSH0 PUSH0 RETURNDATACOPY RETURNDATASIZE PUSH0 REVERT JUMPDEST POP POP POP POP PUSH4 0xF23A6E61 PUSH1 0xE0 SHL SWAP2 POP POP SWAP7 SWAP6 POP POP POP POP POP POP JUMP JUMPDEST PUSH32 0x0 DUP2 JUMP JUMPDEST PUSH1 0x60 SWAP1 JUMP JUMPDEST PUSH1 0x60 DUP3 MLOAD PUSH8 0xFFFFFFFFFFFFFFFF DUP2 GT ISZERO PUSH2 0x426 JUMPI PUSH2 0x425 PUSH2 0x795 JUMP JUMPDEST JUMPDEST PUSH1 0x40 MLOAD SWAP1 DUP1 DUP3 MSTORE DUP1 PUSH1 0x20 MUL PUSH1 0x20 ADD DUP3 ADD PUSH1 0x40 MSTORE DUP1 ISZERO PUSH2 0x45F JUMPI DUP2 PUSH1 0x20 ADD JUMPDEST PUSH2 0x44C PUSH2 0x50A JUMP JUMPDEST DUP2 MSTORE PUSH1 0x20 ADD SWAP1 PUSH1 0x1 SWAP1 SUB SWAP1 DUP2 PUSH2 0x444 JUMPI SWAP1 POP JUMPDEST POP SWAP1 POP PUSH0 PUSH0 SWAP1 POP JUMPDEST DUP4 MLOAD DUP2 LT ISZERO PUSH2 0x4ED JUMPI PUSH1 0x40 MLOAD DUP1 PUSH1 0x40 ADD PUSH1 0x40 MSTORE DUP1 PUSH2 0x49F DUP8 DUP8 DUP6 DUP2 MLOAD DUP2 LT PUSH2 0x492 JUMPI PUSH2 0x491 PUSH2 0xEF2 JUMP JUMPDEST JUMPDEST PUSH1 0x20 MUL PUSH1 0x20 ADD ADD MLOAD PUSH2 0x4F5 JUMP JUMPDEST DUP2 MSTORE PUSH1 0x20 ADD DUP5 DUP4 DUP2 MLOAD DUP2 LT PUSH2 0x4B7 JUMPI PUSH2 0x4B6 PUSH2 0xEF2 JUMP JUMPDEST JUMPDEST PUSH1 0x20 MUL PUSH1 0x20 ADD ADD MLOAD DUP2 MSTORE POP DUP3 DUP3 DUP2 MLOAD DUP2 LT PUSH2 0x4D5 JUMPI PUSH2 0x4D4 PUSH2 0xEF2 JUMP JUMPDEST JUMPDEST PUSH1 0x20 MUL PUSH1 0x20 ADD ADD DUP2 SWAP1 MSTORE POP DUP1 DUP1 PUSH1 0x1 ADD SWAP2 POP POP PUSH2 0x467 JUMP JUMPDEST POP SWAP4 SWAP3 POP POP POP JUMP JUMPDEST PUSH0 DUP3 PUSH0 MSTORE DUP2 PUSH1 0x20 MSTORE PUSH1 0x34 PUSH1 0xC KECCAK256 SWAP1 POP SWAP3 SWAP2 POP POP JUMP JUMPDEST PUSH1 0x40 MLOAD DUP1 PUSH1 0x40 ADD PUSH1 0x40 MSTORE DUP1 PUSH0 DUP2 MSTORE PUSH1 0x20 ADD PUSH0 DUP2 MSTORE POP SWAP1 JUMP JUMPDEST PUSH0 PUSH1 0x40 MLOAD SWAP1 POP SWAP1 JUMP JUMPDEST PUSH0 PUSH0 REVERT JUMPDEST PUSH0 PUSH0 REVERT JUMPDEST PUSH0 PUSH0 REVERT JUMPDEST PUSH0 PUSH0 REVERT JUMPDEST PUSH0 PUSH0 REVERT JUMPDEST PUSH0 PUSH0 DUP4 PUSH1 0x1F DUP5 ADD SLT PUSH2 0x554 JUMPI PUSH2 0x553 PUSH2 0x533 JUMP JUMPDEST JUMPDEST DUP3 CALLDATALOAD SWAP1 POP PUSH8 0xFFFFFFFFFFFFFFFF DUP2 GT ISZERO PUSH2 0x571 JUMPI PUSH2 0x570 PUSH2 0x537 JUMP JUMPDEST JUMPDEST PUSH1 0x20 DUP4 ADD SWAP2 POP DUP4 PUSH1 0x1 DUP3 MUL DUP4 ADD GT ISZERO PUSH2 0x58D JUMPI PUSH2 0x58C PUSH2 0x53B JUMP JUMPDEST JUMPDEST SWAP3 POP SWAP3 SWAP1 POP JUMP JUMPDEST PUSH0 PUSH0 PUSH1 0x20 DUP4 DUP6 SUB SLT ISZERO PUSH2 0x5AA JUMPI PUSH2 0x5A9 PUSH2 0x52B JUMP JUMPDEST JUMPDEST PUSH0 DUP4 ADD CALLDATALOAD PUSH8 0xFFFFFFFFFFFFFFFF DUP2 GT ISZERO PUSH2 0x5C7 JUMPI PUSH2 0x5C6 PUSH2 0x52F JUMP JUMPDEST JUMPDEST PUSH2 0x5D3 DUP6 DUP3 DUP7 ADD PUSH2 0x53F JUMP JUMPDEST SWAP3 POP SWAP3 POP POP SWAP3 POP SWAP3 SWAP1 POP JUMP JUMPDEST PUSH0 DUP2 MLOAD SWAP1 POP SWAP2 SWAP1 POP JUMP JUMPDEST PUSH0 DUP3 DUP3 MSTORE PUSH1 0x20 DUP3 ADD SWAP1 POP SWAP3 SWAP2 POP POP JUMP JUMPDEST PUSH0 DUP2 SWAP1 POP PUSH1 0x20 DUP3 ADD SWAP1 POP SWAP2 SWAP1 POP JUMP JUMPDEST PUSH0 DUP2 SWAP1 POP SWAP2 SWAP1 POP JUMP JUMPDEST PUSH2 0x61A DUP2 PUSH2 0x608 JUMP JUMPDEST DUP3 MSTORE POP POP JUMP JUMPDEST PUSH1 0x40 DUP3 ADD PUSH0 DUP3 ADD MLOAD PUSH2 0x634 PUSH0 DUP6 ADD DUP3 PUSH2 0x611 JUMP JUMPDEST POP PUSH1 0x20 DUP3 ADD MLOAD PUSH2 0x647 PUSH1 0x20 DUP6 ADD DUP3 PUSH2 0x611 JUMP JUMPDEST POP POP POP POP JUMP JUMPDEST PUSH0 PUSH2 0x658 DUP4 DUP4 PUSH2 0x620 JUMP JUMPDEST PUSH1 0x40 DUP4 ADD SWAP1 POP SWAP3 SWAP2 POP POP JUMP JUMPDEST PUSH0 PUSH1 0x20 DUP3 ADD SWAP1 POP SWAP2 SWAP1 POP JUMP JUMPDEST PUSH0 PUSH2 0x67A DUP3 PUSH2 0x5DF JUMP JUMPDEST PUSH2 0x684 DUP2 DUP6 PUSH2 0x5E9 JUMP JUMPDEST SWAP4 POP PUSH2 0x68F DUP4 PUSH2 0x5F9 JUMP JUMPDEST DUP1 PUSH0 JUMPDEST DUP4 DUP2 LT ISZERO PUSH2 0x6BF JUMPI DUP2 MLOAD PUSH2 0x6A6 DUP9 DUP3 PUSH2 0x64D JUMP JUMPDEST SWAP8 POP PUSH2 0x6B1 DUP4 PUSH2 0x664 JUMP JUMPDEST SWAP3 POP POP PUSH1 0x1 DUP2 ADD SWAP1 POP PUSH2 0x692 JUMP JUMPDEST POP DUP6 SWAP4 POP POP POP POP SWAP3 SWAP2 POP POP JUMP JUMPDEST PUSH0 PUSH1 0x80 DUP3 ADD SWAP1 POP DUP2 DUP2 SUB PUSH0 DUP4 ADD MSTORE PUSH2 0x6E4 DUP2 DUP8 PUSH2 0x670 JUMP JUMPDEST SWAP1 POP DUP2 DUP2 SUB PUSH1 0x20 DUP4 ADD MSTORE PUSH2 0x6F8 DUP2 DUP7 PUSH2 0x670 JUMP JUMPDEST SWAP1 POP DUP2 DUP2 SUB PUSH1 0x40 DUP4 ADD MSTORE PUSH2 0x70C DUP2 DUP6 PUSH2 0x670 JUMP JUMPDEST SWAP1 POP DUP2 DUP2 SUB PUSH1 0x60 DUP4 ADD MSTORE PUSH2 0x720 DUP2 DUP5 PUSH2 0x670 JUMP JUMPDEST SWAP1 POP SWAP6 SWAP5 POP POP POP POP POP JUMP JUMPDEST PUSH0 PUSH20 0xFFFFFFFFFFFFFFFFFFFFFFFFFFFFFFFFFFFFFFFF DUP3 AND SWAP1 POP SWAP2 SWAP1 POP JUMP JUMPDEST PUSH0 PUSH2 0x754 DUP3 PUSH2 0x72B JUMP JUMPDEST SWAP1 POP SWAP2 SWAP1 POP JUMP JUMPDEST PUSH2 0x764 DUP2 PUSH2 0x74A JUMP JUMPDEST DUP2 EQ PUSH2 0x76E JUMPI PUSH0 PUSH0 REVERT JUMPDEST POP JUMP JUMPDEST PUSH0 DUP2 CALLDATALOAD SWAP1 POP PUSH2 0x77F DUP2 PUSH2 0x75B JUMP JUMPDEST SWAP3 SWAP2 POP POP JUMP JUMPDEST PUSH0 PUSH1 0x1F NOT PUSH1 0x1F DUP4 ADD AND SWAP1 POP SWAP2 SWAP1 POP JUMP JUMPDEST PUSH32 0x4E487B7100000000000000000000000000000000000000000000000000000000 PUSH0 MSTORE PUSH1 0x41 PUSH1 0x4 MSTORE PUSH1 0x24 PUSH0 REVERT JUMPDEST PUSH2 0x7CB DUP3 PUSH2 0x785 JUMP JUMPDEST DUP2 ADD DUP2 DUP2 LT PUSH8 0xFFFFFFFFFFFFFFFF DUP3 GT OR ISZERO PUSH2 0x7EA JUMPI PUSH2 0x7E9 PUSH2 0x795 JUMP JUMPDEST JUMPDEST DUP1 PUSH1 0x40 MSTORE POP POP POP JUMP JUMPDEST PUSH0 PUSH2 0x7FC PUSH2 0x522 JUMP JUMPDEST SWAP1 POP PUSH2 0x808 DUP3 DUP3 PUSH2 0x7C2 JUMP JUMPDEST SWAP2 SWAP1 POP JUMP JUMPDEST PUSH0 PUSH8 0xFFFFFFFFFFFFFFFF DUP3 GT ISZERO PUSH2 0x827 JUMPI PUSH2 0x826 PUSH2 0x795 JUMP JUMPDEST JUMPDEST PUSH1 0x20 DUP3 MUL SWAP1 POP PUSH1 0x20 DUP2 ADD SWAP1 POP SWAP2 SWAP1 POP JUMP JUMPDEST PUSH2 0x841 DUP2 PUSH2 0x608 JUMP JUMPDEST DUP2 EQ PUSH2 0x84B JUMPI PUSH0 PUSH0 REVERT JUMPDEST POP JUMP JUMPDEST PUSH0 DUP2 CALLDATALOAD SWAP1 POP PUSH2 0x85C DUP2 PUSH2 0x838 JUMP JUMPDEST SWAP3 SWAP2 POP POP JUMP JUMPDEST PUSH0 PUSH2 0x874 PUSH2 0x86F DUP5 PUSH2 0x80D JUMP JUMPDEST PUSH2 0x7F3 JUMP JUMPDEST SWAP1 POP DUP1 DUP4 DUP3 MSTORE PUSH1 0x20 DUP3 ADD SWAP1 POP PUSH1 0x20 DUP5 MUL DUP4 ADD DUP6 DUP2 GT ISZERO PUSH2 0x897 JUMPI PUSH2 0x896 PUSH2 0x53B JUMP JUMPDEST JUMPDEST DUP4 JUMPDEST DUP2 DUP2 LT ISZERO PUSH2 0x8C0 JUMPI DUP1 PUSH2 0x8AC DUP9 DUP3 PUSH2 0x84E JUMP JUMPDEST DUP5 MSTORE PUSH1 0x20 DUP5 ADD SWAP4 POP POP PUSH1 0x20 DUP2 ADD SWAP1 POP PUSH2 0x899 JUMP JUMPDEST POP POP POP SWAP4 SWAP3 POP POP POP JUMP JUMPDEST PUSH0 DUP3 PUSH1 0x1F DUP4 ADD SLT PUSH2 0x8DE JUMPI PUSH2 0x8DD PUSH2 0x533 JUMP JUMPDEST JUMPDEST DUP2 CALLDATALOAD PUSH2 0x8EE DUP5 DUP3 PUSH1 0x20 DUP7 ADD PUSH2 0x862 JUMP JUMPDEST SWAP2 POP POP SWAP3 SWAP2 POP POP JUMP JUMPDEST PUSH0 PUSH0 PUSH0 PUSH0 PUSH0 PUSH0 PUSH1 0xA0 DUP8 DUP10 SUB SLT ISZERO PUSH2 0x911 JUMPI PUSH2 0x910 PUSH2 0x52B JUMP JUMPDEST JUMPDEST PUSH0 PUSH2 0x91E DUP10 DUP3 DUP11 ADD PUSH2 0x771 JUMP JUMPDEST SWAP7 POP POP PUSH1 0x20 PUSH2 0x92F DUP10 DUP3 DUP11 ADD PUSH2 0x771 JUMP JUMPDEST SWAP6 POP POP PUSH1 0x40 DUP8 ADD CALLDATALOAD PUSH8 0xFFFFFFFFFFFFFFFF DUP2 GT ISZERO PUSH2 0x950 JUMPI PUSH2 0x94F PUSH2 0x52F JUMP JUMPDEST JUMPDEST PUSH2 0x95C DUP10 DUP3 DUP11 ADD PUSH2 0x8CA JUMP JUMPDEST SWAP5 POP POP PUSH1 0x60 DUP8 ADD CALLDATALOAD PUSH8 0xFFFFFFFFFFFFFFFF DUP2 GT ISZERO PUSH2 0x97D JUMPI PUSH2 0x97C PUSH2 0x52F JUMP JUMPDEST JUMPDEST PUSH2 0x989 DUP10 DUP3 DUP11 ADD PUSH2 0x8CA JUMP JUMPDEST SWAP4 POP POP PUSH1 0x80 DUP8 ADD CALLDATALOAD PUSH8 0xFFFFFFFFFFFFFFFF DUP2 GT ISZERO PUSH2 0x9AA JUMPI PUSH2 0x9A9 PUSH2 0x52F JUMP JUMPDEST JUMPDEST PUSH2 0x9B6 DUP10 DUP3 DUP11 ADD PUSH2 0x53F JUMP JUMPDEST SWAP3 POP SWAP3 POP POP SWAP3 SWAP6 POP SWAP3 SWAP6 POP SWAP3 SWAP6 JUMP JUMPDEST PUSH0 PUSH32 0xFFFFFFFF00000000000000000000000000000000000000000000000000000000 DUP3 AND SWAP1 POP SWAP2 SWAP1 POP JUMP JUMPDEST PUSH2 0x9F9 DUP2 PUSH2 0x9C5 JUMP JUMPDEST DUP3 MSTORE POP POP JUMP JUMPDEST PUSH0 PUSH1 0x20 DUP3 ADD SWAP1 POP PUSH2 0xA12 PUSH0 DUP4 ADD DUP5 PUSH2 0x9F0 JUMP JUMPDEST SWAP3 SWAP2 POP POP JUMP JUMPDEST PUSH0 PUSH0 PUSH0 PUSH0 PUSH0 PUSH0 PUSH1 0xA0 DUP8 DUP10 SUB SLT ISZERO PUSH2 0xA32 JUMPI PUSH2 0xA31 PUSH2 0x52B JUMP JUMPDEST JUMPDEST PUSH0 PUSH2 0xA3F DUP10 DUP3 DUP11 ADD PUSH2 0x771 JUMP JUMPDEST SWAP7 POP POP PUSH1 0x20 PUSH2 0xA50 DUP10 DUP3 DUP11 ADD PUSH2 0x771 JUMP JUMPDEST SWAP6 POP POP PUSH1 0x40 PUSH2 0xA61 DUP10 DUP3 DUP11 ADD PUSH2 0x84E JUMP JUMPDEST SWAP5 POP POP PUSH1 0x60 PUSH2 0xA72 DUP10 DUP3 DUP11 ADD PUSH2 0x84E JUMP JUMPDEST SWAP4 POP POP PUSH1 0x80 DUP8 ADD CALLDATALOAD PUSH8 0xFFFFFFFFFFFFFFFF DUP2 GT ISZERO PUSH2 0xA93 JUMPI PUSH2 0xA92 PUSH2 0x52F JUMP JUMPDEST JUMPDEST PUSH2 0xA9F DUP10 DUP3 DUP11 ADD PUSH2 0x53F JUMP JUMPDEST SWAP3 POP SWAP3 POP POP SWAP3 SWAP6 POP SWAP3 SWAP6 POP SWAP3 SWAP6 JUMP JUMPDEST PUSH0 DUP2 SWAP1 POP SWAP2 SWAP1 POP JUMP JUMPDEST PUSH0 PUSH2 0xAD1 PUSH2 0xACC PUSH2 0xAC7 DUP5 PUSH2 0x72B JUMP JUMPDEST PUSH2 0xAAE JUMP JUMPDEST PUSH2 0x72B JUMP JUMPDEST SWAP1 POP SWAP2 SWAP1 POP JUMP JUMPDEST PUSH0 PUSH2 0xAE2 DUP3 PUSH2 0xAB7 JUMP JUMPDEST SWAP1 POP SWAP2 SWAP1 POP JUMP JUMPDEST PUSH0 PUSH2 0xAF3 DUP3 PUSH2 0xAD8 JUMP JUMPDEST SWAP1 POP SWAP2 SWAP1 POP JUMP JUMPDEST PUSH2 0xB03 DUP2 PUSH2 0xAE9 JUMP JUMPDEST DUP3 MSTORE POP POP JUMP JUMPDEST PUSH0 PUSH1 0x20 DUP3 ADD SWAP1 POP PUSH2 0xB1C PUSH0 DUP4 ADD DUP5 PUSH2 0xAFA JUMP JUMPDEST SWAP3 SWAP2 POP POP JUMP JUMPDEST PUSH0 PUSH2 0xB2C DUP3 PUSH2 0x72B JUMP JUMPDEST SWAP1 POP SWAP2 SWAP1 POP JUMP JUMPDEST PUSH2 0xB3C DUP2 PUSH2 0xB22 JUMP JUMPDEST DUP2 EQ PUSH2 0xB46 JUMPI PUSH0 PUSH0 REVERT JUMPDEST POP JUMP JUMPDEST PUSH0 DUP2 CALLDATALOAD SWAP1 POP PUSH2 0xB57 DUP2 PUSH2 0xB33 JUMP JUMPDEST SWAP3 SWAP2 POP POP JUMP JUMPDEST PUSH0 PUSH0 REVERT JUMPDEST PUSH0 PUSH8 0xFFFFFFFFFFFFFFFF DUP3 GT ISZERO PUSH2 0xB7B JUMPI PUSH2 0xB7A PUSH2 0x795 JUMP JUMPDEST JUMPDEST PUSH2 0xB84 DUP3 PUSH2 0x785 JUMP JUMPDEST SWAP1 POP PUSH1 0x20 DUP2 ADD SWAP1 POP SWAP2 SWAP1 POP JUMP JUMPDEST DUP3 DUP2 DUP4 CALLDATACOPY PUSH0 DUP4 DUP4 ADD MSTORE POP POP POP JUMP JUMPDEST PUSH0 PUSH2 0xBB1 PUSH2 0xBAC DUP5 PUSH2 0xB61 JUMP JUMPDEST PUSH2 0x7F3 JUMP JUMPDEST SWAP1 POP DUP3 DUP2 MSTORE PUSH1 0x20 DUP2 ADD DUP5 DUP5 DUP5 ADD GT ISZERO PUSH2 0xBCD JUMPI PUSH2 0xBCC PUSH2 0xB5D JUMP JUMPDEST JUMPDEST PUSH2 0xBD8 DUP5 DUP3 DUP6 PUSH2 0xB91 JUMP JUMPDEST POP SWAP4 SWAP3 POP POP POP JUMP JUMPDEST PUSH0 DUP3 PUSH1 0x1F DUP4 ADD SLT PUSH2 0xBF4 JUMPI PUSH2 0xBF3 PUSH2 0x533 JUMP JUMPDEST JUMPDEST DUP2 CALLDATALOAD PUSH2 0xC04 DUP5 DUP3 PUSH1 0x20 DUP7 ADD PUSH2 0xB9F JUMP JUMPDEST SWAP2 POP POP SWAP3 SWAP2 POP POP JUMP JUMPDEST PUSH0 PUSH0 PUSH0 PUSH0 PUSH0 PUSH1 0xA0 DUP7 DUP9 SUB SLT ISZERO PUSH2 0xC26 JUMPI PUSH2 0xC25 PUSH2 0x52B JUMP JUMPDEST JUMPDEST PUSH0 PUSH2 0xC33 DUP9 DUP3 DUP10 ADD PUSH2 0xB49 JUMP JUMPDEST SWAP6 POP POP PUSH1 0x20 PUSH2 0xC44 DUP9 DUP3 DUP10 ADD PUSH2 0xB49 JUMP JUMPDEST SWAP5 POP POP PUSH1 0x40 DUP7 ADD CALLDATALOAD PUSH8 0xFFFFFFFFFFFFFFFF DUP2 GT ISZERO PUSH2 0xC65 JUMPI PUSH2 0xC64 PUSH2 0x52F JUMP JUMPDEST JUMPDEST PUSH2 0xC71 DUP9 DUP3 DUP10 ADD PUSH2 0x8CA JUMP JUMPDEST SWAP4 POP POP PUSH1 0x60 DUP7 ADD CALLDATALOAD PUSH8 0xFFFFFFFFFFFFFFFF DUP2 GT ISZERO PUSH2 0xC92 JUMPI PUSH2 0xC91 PUSH2 0x52F JUMP JUMPDEST JUMPDEST PUSH2 0xC9E DUP9 DUP3 DUP10 ADD PUSH2 0x8CA JUMP JUMPDEST SWAP3 POP POP PUSH1 0x80 DUP7 ADD CALLDATALOAD PUSH8 0xFFFFFFFFFFFFFFFF DUP2 GT ISZERO PUSH2 0xCBF JUMPI PUSH2 0xCBE PUSH2 0x52F JUMP JUMPDEST JUMPDEST PUSH2 0xCCB DUP9 DUP3 DUP10 ADD PUSH2 0xBE0 JUMP JUMPDEST SWAP2 POP POP SWAP3 SWAP6 POP SWAP3 SWAP6 SWAP1 SWAP4 POP JUMP JUMPDEST PUSH2 0xCE1 DUP2 PUSH2 0x74A JUMP JUMPDEST DUP3 MSTORE POP POP JUMP JUMPDEST PUSH0 DUP2 MLOAD SWAP1 POP SWAP2 SWAP1 POP JUMP JUMPDEST PUSH0 DUP3 DUP3 MSTORE PUSH1 0x20 DUP3 ADD SWAP1 POP SWAP3 SWAP2 POP POP JUMP JUMPDEST PUSH0 DUP2 SWAP1 POP PUSH1 0x20 DUP3 ADD SWAP1 POP SWAP2 SWAP1 POP JUMP JUMPDEST PUSH0 PUSH2 0xD1B DUP4 DUP4 PUSH2 0x611 JUMP JUMPDEST PUSH1 0x20 DUP4 ADD SWAP1 POP SWAP3 SWAP2 POP POP JUMP JUMPDEST PUSH0 PUSH1 0x20 DUP3 ADD SWAP1 POP SWAP2 SWAP1 POP JUMP JUMPDEST PUSH0 PUSH2 0xD3D DUP3 PUSH2 0xCE7 JUMP JUMPDEST PUSH2 0xD47 DUP2 DUP6 PUSH2 0xCF1 JUMP JUMPDEST SWAP4 POP PUSH2 0xD52 DUP4 PUSH2 0xD01 JUMP JUMPDEST DUP1 PUSH0 JUMPDEST DUP4 DUP2 LT ISZERO PUSH2 0xD82 JUMPI DUP2 MLOAD PUSH2 0xD69 DUP9 DUP3 PUSH2 0xD10 JUMP JUMPDEST SWAP8 POP PUSH2 0xD74 DUP4 PUSH2 0xD27 JUMP JUMPDEST SWAP3 POP POP PUSH1 0x1 DUP2 ADD SWAP1 POP PUSH2 0xD55 JUMP JUMPDEST POP DUP6 SWAP4 POP POP POP POP SWAP3 SWAP2 POP POP JUMP JUMPDEST PUSH0 DUP2 MLOAD SWAP1 POP SWAP2 SWAP1 POP JUMP JUMPDEST PUSH0 DUP3 DUP3 MSTORE PUSH1 0x20 DUP3 ADD SWAP1 POP SWAP3 SWAP2 POP POP JUMP JUMPDEST DUP3 DUP2 DUP4 MCOPY PUSH0 DUP4 DUP4 ADD MSTORE POP POP POP JUMP JUMPDEST PUSH0 PUSH2 0xDC1 DUP3 PUSH2 0xD8F JUMP JUMPDEST PUSH2 0xDCB DUP2 DUP6 PUSH2 0xD99 JUMP JUMPDEST SWAP4 POP PUSH2 0xDDB DUP2 DUP6 PUSH1 0x20 DUP7 ADD PUSH2 0xDA9 JUMP JUMPDEST PUSH2 0xDE4 DUP2 PUSH2 0x785 JUMP JUMPDEST DUP5 ADD SWAP2 POP POP SWAP3 SWAP2 POP POP JUMP JUMPDEST PUSH0 PUSH1 0xA0 DUP3 ADD SWAP1 POP PUSH2 0xE02 PUSH0 DUP4 ADD DUP9 PUSH2 0xCD8 JUMP JUMPDEST PUSH2 0xE0F PUSH1 0x20 DUP4 ADD DUP8 PUSH2 0xCD8 JUMP JUMPDEST DUP2 DUP2 SUB PUSH1 0x40 DUP4 ADD MSTORE PUSH2 0xE21 DUP2 DUP7 PUSH2 0xD33 JUMP JUMPDEST SWAP1 POP DUP2 DUP2 SUB PUSH1 0x60 DUP4 ADD MSTORE PUSH2 0xE35 DUP2 DUP6 PUSH2 0xD33 JUMP JUMPDEST SWAP1 POP DUP2 DUP2 SUB PUSH1 0x80 DUP4 ADD MSTORE PUSH2 0xE49 DUP2 DUP5 PUSH2 0xDB7 JUMP JUMPDEST SWAP1 POP SWAP7 SWAP6 POP POP POP POP POP POP JUMP JUMPDEST PUSH0 PUSH1 0x20 DUP3 DUP5 SUB SLT ISZERO PUSH2 0xE6A JUMPI PUSH2 0xE69 PUSH2 0x52B JUMP JUMPDEST JUMPDEST PUSH0 PUSH2 0xE77 DUP5 DUP3 DUP6 ADD PUSH2 0xB49 JUMP JUMPDEST SWAP2 POP POP SWAP3 SWAP2 POP POP JUMP JUMPDEST PUSH0 PUSH1 0x40 DUP3 ADD SWAP1 POP PUSH2 0xE93 PUSH0 DUP4 ADD DUP6 PUSH2 0xCD8 JUMP JUMPDEST DUP2 DUP2 SUB PUSH1 0x20 DUP4 ADD MSTORE PUSH2 0xEA5 DUP2 DUP5 PUSH2 0x670 JUMP JUMPDEST SWAP1 POP SWAP4 SWAP3 POP POP POP JUMP JUMPDEST PUSH2 0xEB7 DUP2 PUSH2 0x608 JUMP JUMPDEST DUP3 MSTORE POP POP JUMP JUMPDEST PUSH0 PUSH1 0x60 DUP3 ADD SWAP1 POP PUSH2 0xED0 PUSH0 DUP4 ADD DUP7 PUSH2 0xCD8 JUMP JUMPDEST PUSH2 0xEDD PUSH1 0x20 DUP4 ADD DUP6 PUSH2 0xEAE JUMP JUMPDEST PUSH2 0xEEA PUSH1 0x40 DUP4 ADD DUP5 PUSH2 0xEAE JUMP JUMPDEST SWAP5 SWAP4 POP POP POP POP JUMP JUMPDEST PUSH32 0x4E487B7100000000000000000000000000000000000000000000000000000000 PUSH0 MSTORE PUSH1 0x32 PUSH1 0x4 MSTORE PUSH1 0x24 PUSH0 REVERT INVALID LOG2 PUSH5 0x6970667358 0x22 SLT KECCAK256 PUSH7 0x6767C7D2EA7660 CALLCODE DUP10 SLOAD DIV SDIV ADDMOD 0xA5 LOG0 EXP SWAP11 GAS 0xBC DUP1 PUSH18 0xDDC8647496B3F9F3E28464736F6C63430008 SHR STOP CALLER "
				},
				"gasEstimates": {
					"creation": {
						"codeDepositCost": "785000",
						"executionCost": "infinite",
						"totalCost": "infinite"
					},
					"external": {
						"blueprintManager()": "infinite",
						"executeAction(bytes)": "infinite",
						"onERC1155BatchReceived(address,address,uint256[],uint256[],bytes)": "infinite",
						"onERC1155Received(address,address,uint256,uint256,bytes)": "infinite"
					},
					"internal": {
						"getOperations(address,uint256[] memory,uint256[] memory)": "infinite"
					}
				},
				"methodIdentifiers": {
					"blueprintManager()": "fabe109a",
					"executeAction(bytes)": "a129568d",
					"onERC1155BatchReceived(address,address,uint256[],uint256[],bytes)": "bc197c81",
					"onERC1155Received(address,address,uint256,uint256,bytes)": "f23a6e61"
				}
			},
			"storageLayout": {
				"storage": [],
				"types": null
			},
			"userdoc": {
				"kind": "user",
				"methods": {
					"executeAction(bytes)": {
						"notice": "executes an action in Blueprint"
					}
				},
				"version": 1
			}
		}
	}
}