{
	"src/blueprints/wrappers/NativeBlueprint.sol": {
		"NativeBlueprint": {
			"abi": [
				{
					"inputs": [
						{
							"internalType": "contract IBlueprintManager",
							"name": "_blueprintManager",
							"type": "address"
						}
					],
					"stateMutability": "nonpayable",
					"type": "constructor"
				},
				{
					"inputs": [],
					"name": "AccessDenied",
					"type": "error"
				},
				{
					"inputs": [],
					"name": "NativeTransferFailed",
					"type": "error"
				},
				{
					"inputs": [],
					"name": "blueprintManager",
					"outputs": [
						{
							"internalType": "contract IBlueprintManager",
							"name": "",
							"type": "address"
						}
					],
					"stateMutability": "view",
					"type": "function"
				},
				{
					"inputs": [
						{
							"internalType": "bytes",
							"name": "action",
							"type": "bytes"
						}
					],
					"name": "executeAction",
					"outputs": [
						{
							"components": [
								{
									"internalType": "uint256",
									"name": "tokenId",
									"type": "uint256"
								},
								{
									"internalType": "uint256",
									"name": "amount",
									"type": "uint256"
								}
							],
							"internalType": "struct TokenOp[]",
							"name": "",
							"type": "tuple[]"
						},
						{
							"components": [
								{
									"internalType": "uint256",
									"name": "tokenId",
									"type": "uint256"
								},
								{
									"internalType": "uint256",
									"name": "amount",
									"type": "uint256"
								}
							],
							"internalType": "struct TokenOp[]",
							"name": "",
							"type": "tuple[]"
						},
						{
							"components": [
								{
									"internalType": "uint256",
									"name": "tokenId",
									"type": "uint256"
								},
								{
									"internalType": "uint256",
									"name": "amount",
									"type": "uint256"
								}
							],
							"internalType": "struct TokenOp[]",
							"name": "",
							"type": "tuple[]"
						},
						{
							"components": [
								{
									"internalType": "uint256",
									"name": "tokenId",
									"type": "uint256"
								},
								{
									"internalType": "uint256",
									"name": "amount",
									"type": "uint256"
								}
							],
							"internalType": "struct TokenOp[]",
							"name": "",
							"type": "tuple[]"
						}
					],
					"stateMutability": "nonpayable",
					"type": "function"
				},
				{
					"inputs": [
						{
							"internalType": "address",
							"name": "to",
							"type": "address"
						}
					],
					"name": "mint",
					"outputs": [],
					"stateMutability": "payable",
					"type": "function"
				}
			],
			"devdoc": {
				"kind": "dev",
				"methods": {
					"executeAction(bytes)": {
						"params": {
							"action": "a description of the action being taken"
						}
					}
				},
				"version": 1
			},
			"evm": {
				"assembly": "    /* \"src/blueprints/wrappers/NativeBlueprint.sol\":147:848  contract NativeBlueprint is BasicBlueprint {... */\n  mstore(0x40, 0xa0)\n    /* \"src/blueprints/wrappers/NativeBlueprint.sol\":225:312  constructor(IBlueprintManager _blueprintManager)... */\n  callvalue\n  dup1\n  iszero\n  tag_1\n  jumpi\n  revert(0x00, 0x00)\ntag_1:\n  pop\n  mload(0x40)\n  sub(codesize, bytecodeSize)\n  dup1\n  bytecodeSize\n  dup4\n  codecopy\n  dup2\n  dup2\n  add\n  0x40\n  mstore\n  dup2\n  add\n  swap1\n  tag_2\n  swap2\n  swap1\n  tag_3\n  jump\t// in\ntag_2:\n    /* \"src/blueprints/wrappers/NativeBlueprint.sol\":291:308  _blueprintManager */\n  dup1\n    /* \"src/blueprints/BasicBlueprint.sol\":403:420  _blueprintManager */\n  dup1\n    /* \"src/blueprints/BasicBlueprint.sol\":384:420  blueprintManager = _blueprintManager */\n  0xffffffffffffffffffffffffffffffffffffffff\n  and\n  0x80\n  dup2\n  0xffffffffffffffffffffffffffffffffffffffff\n  and\n  dup2\n  mstore\n  pop\n  pop\n    /* \"src/blueprints/BasicBlueprint.sol\":331:424  constructor(IBlueprintManager _blueprintManager) {... */\n  pop\n    /* \"src/blueprints/wrappers/NativeBlueprint.sol\":225:312  constructor(IBlueprintManager _blueprintManager)... */\n  pop\n    /* \"src/blueprints/wrappers/NativeBlueprint.sol\":147:848  contract NativeBlueprint is BasicBlueprint {... */\n  jump(tag_8)\n    /* \"#utility.yul\":88:205   */\ntag_10:\n    /* \"#utility.yul\":197:198   */\n  0x00\n    /* \"#utility.yul\":194:195   */\n  0x00\n    /* \"#utility.yul\":187:199   */\n  revert\n    /* \"#utility.yul\":334:460   */\ntag_12:\n    /* \"#utility.yul\":371:378   */\n  0x00\n    /* \"#utility.yul\":411:453   */\n  0xffffffffffffffffffffffffffffffffffffffff\n    /* \"#utility.yul\":404:409   */\n  dup3\n    /* \"#utility.yul\":400:454   */\n  and\n    /* \"#utility.yul\":389:454   */\n  swap1\n  pop\n    /* \"#utility.yul\":334:460   */\n  swap2\n  swap1\n  pop\n  jump\t// out\n    /* \"#utility.yul\":466:562   */\ntag_13:\n    /* \"#utility.yul\":503:510   */\n  0x00\n    /* \"#utility.yul\":532:556   */\n  tag_23\n    /* \"#utility.yul\":550:555   */\n  dup3\n    /* \"#utility.yul\":532:556   */\n  tag_12\n  jump\t// in\ntag_23:\n    /* \"#utility.yul\":521:556   */\n  swap1\n  pop\n    /* \"#utility.yul\":466:562   */\n  swap2\n  swap1\n  pop\n  jump\t// out\n    /* \"#utility.yul\":568:689   */\ntag_14:\n    /* \"#utility.yul\":630:637   */\n  0x00\n    /* \"#utility.yul\":659:683   */\n  tag_25\n    /* \"#utility.yul\":677:682   */\n  dup3\n    /* \"#utility.yul\":659:683   */\n  tag_13\n  jump\t// in\ntag_25:\n    /* \"#utility.yul\":648:683   */\n  swap1\n  pop\n    /* \"#utility.yul\":568:689   */\n  swap2\n  swap1\n  pop\n  jump\t// out\n    /* \"#utility.yul\":695:867   */\ntag_15:\n    /* \"#utility.yul\":793:842   */\n  tag_27\n    /* \"#utility.yul\":836:841   */\n  dup2\n    /* \"#utility.yul\":793:842   */\n  tag_14\n  jump\t// in\ntag_27:\n    /* \"#utility.yul\":786:791   */\n  dup2\n    /* \"#utility.yul\":783:843   */\n  eq\n    /* \"#utility.yul\":773:861   */\n  tag_28\n  jumpi\n    /* \"#utility.yul\":857:858   */\n  0x00\n    /* \"#utility.yul\":854:855   */\n  0x00\n    /* \"#utility.yul\":847:859   */\n  revert\n    /* \"#utility.yul\":773:861   */\ntag_28:\n    /* \"#utility.yul\":695:867   */\n  pop\n  jump\t// out\n    /* \"#utility.yul\":873:1066   */\ntag_16:\n    /* \"#utility.yul\":955:960   */\n  0x00\n    /* \"#utility.yul\":986:992   */\n  dup2\n    /* \"#utility.yul\":980:993   */\n  mload\n    /* \"#utility.yul\":971:993   */\n  swap1\n  pop\n    /* \"#utility.yul\":1002:1060   */\n  tag_30\n    /* \"#utility.yul\":1054:1059   */\n  dup2\n    /* \"#utility.yul\":1002:1060   */\n  tag_15\n  jump\t// in\ntag_30:\n    /* \"#utility.yul\":873:1066   */\n  swap3\n  swap2\n  pop\n  pop\n  jump\t// out\n    /* \"#utility.yul\":1072:1473   */\ntag_3:\n    /* \"#utility.yul\":1167:1173   */\n  0x00\n    /* \"#utility.yul\":1216:1218   */\n  0x20\n    /* \"#utility.yul\":1204:1213   */\n  dup3\n    /* \"#utility.yul\":1195:1202   */\n  dup5\n    /* \"#utility.yul\":1191:1214   */\n  sub\n    /* \"#utility.yul\":1187:1219   */\n  slt\n    /* \"#utility.yul\":1184:1303   */\n  iszero\n  tag_32\n  jumpi\n    /* \"#utility.yul\":1222:1301   */\n  tag_33\n  tag_10\n  jump\t// in\ntag_33:\n    /* \"#utility.yul\":1184:1303   */\ntag_32:\n    /* \"#utility.yul\":1342:1343   */\n  0x00\n    /* \"#utility.yul\":1367:1456   */\n  tag_34\n    /* \"#utility.yul\":1448:1455   */\n  dup5\n    /* \"#utility.yul\":1439:1445   */\n  dup3\n    /* \"#utility.yul\":1428:1437   */\n  dup6\n    /* \"#utility.yul\":1424:1446   */\n  add\n    /* \"#utility.yul\":1367:1456   */\n  tag_16\n  jump\t// in\ntag_34:\n    /* \"#utility.yul\":1357:1456   */\n  swap2\n  pop\n    /* \"#utility.yul\":1313:1466   */\n  pop\n    /* \"#utility.yul\":1072:1473   */\n  swap3\n  swap2\n  pop\n  pop\n  jump\t// out\n    /* \"src/blueprints/wrappers/NativeBlueprint.sol\":147:848  contract NativeBlueprint is BasicBlueprint {... */\ntag_8:\n  mload(0x80)\n  codecopy(0x00, dataOffset(sub_0), dataSize(sub_0))\n  0x00\n  assignImmutable(\"0x7880aec93413f117ef14bd4e6d130875ab2c7d7d55a064fac3c2f7bd51516380\")\n  return(0x00, dataSize(sub_0))\nstop\n\nsub_0: assembly {\n        /* \"src/blueprints/wrappers/NativeBlueprint.sol\":147:848  contract NativeBlueprint is BasicBlueprint {... */\n      mstore(0x40, 0x80)\n      jumpi(tag_1, lt(calldatasize, 0x04))\n      shr(0xe0, calldataload(0x00))\n      dup1\n      0x6a627842\n      eq\n      tag_2\n      jumpi\n      dup1\n      0xa129568d\n      eq\n      tag_3\n      jumpi\n      dup1\n      0xfabe109a\n      eq\n      tag_4\n      jumpi\n    tag_1:\n      revert(0x00, 0x00)\n        /* \"src/blueprints/wrappers/NativeBlueprint.sol\":758:846  function mint(address to) public payable {... */\n    tag_2:\n      tag_5\n      0x04\n      dup1\n      calldatasize\n      sub\n      dup2\n      add\n      swap1\n      tag_6\n      swap2\n      swap1\n      tag_7\n      jump\t// in\n    tag_6:\n      tag_8\n      jump\t// in\n    tag_5:\n      stop\n        /* \"src/blueprints/wrappers/NativeBlueprint.sol\":315:755  function executeAction(bytes calldata action) external onlyManager returns (... */\n    tag_3:\n      callvalue\n      dup1\n      iszero\n      tag_9\n      jumpi\n      revert(0x00, 0x00)\n    tag_9:\n      pop\n      tag_10\n      0x04\n      dup1\n      calldatasize\n      sub\n      dup2\n      add\n      swap1\n      tag_11\n      swap2\n      swap1\n      tag_12\n      jump\t// in\n    tag_11:\n      tag_13\n      jump\t// in\n    tag_10:\n      mload(0x40)\n      tag_14\n      swap5\n      swap4\n      swap3\n      swap2\n      swap1\n      tag_15\n      jump\t// in\n    tag_14:\n      mload(0x40)\n      dup1\n      swap2\n      sub\n      swap1\n      return\n        /* \"src/blueprints/BasicBlueprint.sol\":252:303  IBlueprintManager immutable public blueprintManager */\n    tag_4:\n      callvalue\n      dup1\n      iszero\n      tag_16\n      jumpi\n      revert(0x00, 0x00)\n    tag_16:\n      pop\n      tag_17\n      tag_18\n      jump\t// in\n    tag_17:\n      mload(0x40)\n      tag_19\n      swap2\n      swap1\n      tag_20\n      jump\t// in\n    tag_19:\n      mload(0x40)\n      dup1\n      swap2\n      sub\n      swap1\n      return\n        /* \"src/blueprints/wrappers/NativeBlueprint.sol\":758:846  function mint(address to) public payable {... */\n    tag_8:\n        /* \"src/blueprints/wrappers/NativeBlueprint.sol\":803:819  blueprintManager */\n      immutable(\"0x7880aec93413f117ef14bd4e6d130875ab2c7d7d55a064fac3c2f7bd51516380\")\n        /* \"src/blueprints/wrappers/NativeBlueprint.sol\":803:824  blueprintManager.mint */\n      0xffffffffffffffffffffffffffffffffffffffff\n      and\n      0x156e29f6\n        /* \"src/blueprints/wrappers/NativeBlueprint.sol\":825:827  to */\n      dup3\n        /* \"src/blueprints/wrappers/NativeBlueprint.sol\":829:830  0 */\n      0x00\n        /* \"src/blueprints/wrappers/NativeBlueprint.sol\":832:841  msg.value */\n      callvalue\n        /* \"src/blueprints/wrappers/NativeBlueprint.sol\":803:842  blueprintManager.mint(to, 0, msg.value) */\n      mload(0x40)\n      dup5\n      0xffffffff\n      and\n      0xe0\n      shl\n      dup2\n      mstore\n      0x04\n      add\n      tag_22\n      swap4\n      swap3\n      swap2\n      swap1\n      tag_23\n      jump\t// in\n    tag_22:\n      0x00\n      mload(0x40)\n      dup1\n      dup4\n      sub\n      dup2\n      0x00\n      dup8\n      dup1\n      extcodesize\n      iszero\n      dup1\n      iszero\n      tag_24\n      jumpi\n      revert(0x00, 0x00)\n    tag_24:\n      pop\n      gas\n      call\n      iszero\n      dup1\n      iszero\n      tag_26\n      jumpi\n      returndatacopy(0x00, 0x00, returndatasize)\n      revert(0x00, returndatasize)\n    tag_26:\n      pop\n      pop\n      pop\n      pop\n        /* \"src/blueprints/wrappers/NativeBlueprint.sol\":758:846  function mint(address to) public payable {... */\n      pop\n      jump\t// out\n        /* \"src/blueprints/wrappers/NativeBlueprint.sol\":315:755  function executeAction(bytes calldata action) external onlyManager returns (... */\n    tag_13:\n        /* \"src/blueprints/wrappers/NativeBlueprint.sol\":394:410  TokenOp[] memory */\n      0x60\n        /* \"src/blueprints/wrappers/NativeBlueprint.sol\":423:439  TokenOp[] memory */\n      dup1\n        /* \"src/blueprints/wrappers/NativeBlueprint.sol\":452:468  TokenOp[] memory */\n      0x60\n        /* \"src/blueprints/wrappers/NativeBlueprint.sol\":481:497  TokenOp[] memory */\n      dup1\n        /* \"src/blueprints/BasicBlueprint.sol\":480:496  blueprintManager */\n      immutable(\"0x7880aec93413f117ef14bd4e6d130875ab2c7d7d55a064fac3c2f7bd51516380\")\n        /* \"src/blueprints/BasicBlueprint.sol\":458:497  msg.sender != address(blueprintManager) */\n      0xffffffffffffffffffffffffffffffffffffffff\n      and\n        /* \"src/blueprints/BasicBlueprint.sol\":458:468  msg.sender */\n      caller\n        /* \"src/blueprints/BasicBlueprint.sol\":458:497  msg.sender != address(blueprintManager) */\n      0xffffffffffffffffffffffffffffffffffffffff\n      and\n      eq\n        /* \"src/blueprints/BasicBlueprint.sol\":454:523  if (msg.sender != address(blueprintManager))... */\n      tag_28\n      jumpi\n        /* \"src/blueprints/BasicBlueprint.sol\":509:523  AccessDenied() */\n      mload(0x40)\n      0x4ca8886700000000000000000000000000000000000000000000000000000000\n      dup2\n      mstore\n      0x04\n      add\n      mload(0x40)\n      dup1\n      swap2\n      sub\n      swap1\n      revert\n        /* \"src/blueprints/BasicBlueprint.sol\":454:523  if (msg.sender != address(blueprintManager))... */\n    tag_28:\n        /* \"src/blueprints/wrappers/NativeBlueprint.sol\":515:525  address to */\n      0x00\n        /* \"src/blueprints/wrappers/NativeBlueprint.sol\":527:541  uint256 amount */\n      0x00\n        /* \"src/blueprints/wrappers/NativeBlueprint.sol\":559:565  action */\n      dup8\n      dup8\n        /* \"src/blueprints/wrappers/NativeBlueprint.sol\":548:586  abi.decode(action, (address, uint256)) */\n      dup2\n      add\n      swap1\n      tag_30\n      swap2\n      swap1\n      tag_31\n      jump\t// in\n    tag_30:\n        /* \"src/blueprints/wrappers/NativeBlueprint.sol\":514:586  (address to, uint256 amount) =... */\n      swap2\n      pop\n      swap2\n      pop\n        /* \"src/blueprints/wrappers/NativeBlueprint.sol\":592:604  bool success */\n      0x00\n        /* \"src/blueprints/wrappers/NativeBlueprint.sol\":609:611  to */\n      dup3\n        /* \"src/blueprints/wrappers/NativeBlueprint.sol\":609:616  to.call */\n      0xffffffffffffffffffffffffffffffffffffffff\n      and\n        /* \"src/blueprints/wrappers/NativeBlueprint.sol\":624:630  amount */\n      dup3\n        /* \"src/blueprints/wrappers/NativeBlueprint.sol\":609:635  to.call{value: amount}(\"\") */\n      mload(0x40)\n      tag_32\n      swap1\n      tag_33\n      jump\t// in\n    tag_32:\n      0x00\n      mload(0x40)\n      dup1\n      dup4\n      sub\n      dup2\n      dup6\n      dup8\n      gas\n      call\n      swap3\n      pop\n      pop\n      pop\n      returndatasize\n      dup1\n      0x00\n      dup2\n      eq\n      tag_36\n      jumpi\n      mload(0x40)\n      swap2\n      pop\n      and(add(returndatasize, 0x3f), not(0x1f))\n      dup3\n      add\n      0x40\n      mstore\n      returndatasize\n      dup3\n      mstore\n      returndatasize\n      0x00\n      0x20\n      dup5\n      add\n      returndatacopy\n      jump(tag_35)\n    tag_36:\n      0x60\n      swap2\n      pop\n    tag_35:\n      pop\n        /* \"src/blueprints/wrappers/NativeBlueprint.sol\":591:635  (bool success,) = to.call{value: amount}(\"\") */\n      pop\n      swap1\n      pop\n        /* \"src/blueprints/wrappers/NativeBlueprint.sol\":644:651  success */\n      dup1\n        /* \"src/blueprints/wrappers/NativeBlueprint.sol\":639:685  if (!success)... */\n      tag_37\n      jumpi\n        /* \"src/blueprints/wrappers/NativeBlueprint.sol\":663:685  NativeTransferFailed() */\n      mload(0x40)\n      0xf4b3b1bc00000000000000000000000000000000000000000000000000000000\n      dup2\n      mstore\n      0x04\n      add\n      mload(0x40)\n      dup1\n      swap2\n      sub\n      swap1\n      revert\n        /* \"src/blueprints/wrappers/NativeBlueprint.sol\":639:685  if (!success)... */\n    tag_37:\n        /* \"src/blueprints/wrappers/NativeBlueprint.sol\":698:704  zero() */\n      tag_38\n        /* \"src/blueprints/wrappers/NativeBlueprint.sol\":698:702  zero */\n      tag_39\n        /* \"src/blueprints/wrappers/NativeBlueprint.sol\":698:704  zero() */\n      jump\t// in\n    tag_38:\n        /* \"src/blueprints/wrappers/NativeBlueprint.sol\":706:734  oneOperationArray(0, amount) */\n      tag_40\n        /* \"src/blueprints/wrappers/NativeBlueprint.sol\":724:725  0 */\n      0x00\n        /* \"src/blueprints/wrappers/NativeBlueprint.sol\":727:733  amount */\n      dup5\n        /* \"src/blueprints/wrappers/NativeBlueprint.sol\":706:723  oneOperationArray */\n      tag_41\n        /* \"src/blueprints/wrappers/NativeBlueprint.sol\":706:734  oneOperationArray(0, amount) */\n      jump\t// in\n    tag_40:\n        /* \"src/blueprints/wrappers/NativeBlueprint.sol\":736:742  zero() */\n      tag_42\n        /* \"src/blueprints/wrappers/NativeBlueprint.sol\":736:740  zero */\n      tag_39\n        /* \"src/blueprints/wrappers/NativeBlueprint.sol\":736:742  zero() */\n      jump\t// in\n    tag_42:\n        /* \"src/blueprints/wrappers/NativeBlueprint.sol\":744:750  zero() */\n      tag_43\n        /* \"src/blueprints/wrappers/NativeBlueprint.sol\":744:748  zero */\n      tag_39\n        /* \"src/blueprints/wrappers/NativeBlueprint.sol\":744:750  zero() */\n      jump\t// in\n    tag_43:\n        /* \"src/blueprints/wrappers/NativeBlueprint.sol\":690:751  return (zero(), oneOperationArray(0, amount), zero(), zero()) */\n      swap7\n      pop\n      swap7\n      pop\n      swap7\n      pop\n      swap7\n      pop\n      pop\n      pop\n      pop\n        /* \"src/blueprints/wrappers/NativeBlueprint.sol\":315:755  function executeAction(bytes calldata action) external onlyManager returns (... */\n      swap3\n      swap6\n      swap2\n      swap5\n      pop\n      swap3\n      pop\n      jump\t// out\n        /* \"src/blueprints/BasicBlueprint.sol\":252:303  IBlueprintManager immutable public blueprintManager */\n    tag_18:\n      immutable(\"0x7880aec93413f117ef14bd4e6d130875ab2c7d7d55a064fac3c2f7bd51516380\")\n      dup2\n      jump\t// out\n        /* \"src/blueprints/BasicBlueprint.sol\":536:645  function zero() internal pure returns (TokenOp[] memory z) {... */\n    tag_39:\n        /* \"src/blueprints/BasicBlueprint.sol\":575:593  TokenOp[] memory z */\n      0x60\n        /* \"src/blueprints/BasicBlueprint.sol\":536:645  function zero() internal pure returns (TokenOp[] memory z) {... */\n      swap1\n      jump\t// out\n        /* \"src/blueprints/BasicBlueprint.sol\":648:1007  function oneOperationArray(... */\n    tag_41:\n        /* \"src/blueprints/BasicBlueprint.sol\":738:758  TokenOp[] memory res */\n      0x60\n        /* \"src/blueprints/BasicBlueprint.sol\":807:811  0x40 */\n      0x40\n        /* \"src/blueprints/BasicBlueprint.sol\":801:812  mload(0x40) */\n      mload\n        /* \"src/blueprints/BasicBlueprint.sol\":794:812  res := mload(0x40) */\n      swap1\n      pop\n        /* \"src/blueprints/BasicBlueprint.sol\":838:842  0x80 */\n      0x80\n        /* \"src/blueprints/BasicBlueprint.sol\":833:836  res */\n      dup2\n        /* \"src/blueprints/BasicBlueprint.sol\":829:843  add(res, 0x80) */\n      add\n        /* \"src/blueprints/BasicBlueprint.sol\":823:827  0x40 */\n      0x40\n        /* \"src/blueprints/BasicBlueprint.sol\":816:844  mstore(0x40, add(res, 0x80)) */\n      mstore\n        /* \"src/blueprints/BasicBlueprint.sol\":875:879  0x40 */\n      0x40\n        /* \"src/blueprints/BasicBlueprint.sol\":870:873  res */\n      dup2\n        /* \"src/blueprints/BasicBlueprint.sol\":866:880  add(res, 0x40) */\n      add\n        /* \"src/blueprints/BasicBlueprint.sol\":897:898  1 */\n      0x01\n        /* \"src/blueprints/BasicBlueprint.sol\":892:895  res */\n      dup3\n        /* \"src/blueprints/BasicBlueprint.sol\":885:899  mstore(res, 1) */\n      mstore\n        /* \"src/blueprints/BasicBlueprint.sol\":926:935  structPtr */\n      dup1\n        /* \"src/blueprints/BasicBlueprint.sol\":919:923  0x20 */\n      0x20\n        /* \"src/blueprints/BasicBlueprint.sol\":914:917  res */\n      dup4\n        /* \"src/blueprints/BasicBlueprint.sol\":910:924  add(res, 0x20) */\n      add\n        /* \"src/blueprints/BasicBlueprint.sol\":903:936  mstore(add(res, 0x20), structPtr) */\n      mstore\n        /* \"src/blueprints/BasicBlueprint.sol\":958:965  tokenId */\n      dup4\n        /* \"src/blueprints/BasicBlueprint.sol\":947:956  structPtr */\n      dup2\n        /* \"src/blueprints/BasicBlueprint.sol\":940:966  mstore(structPtr, tokenId) */\n      mstore\n        /* \"src/blueprints/BasicBlueprint.sol\":993:999  amount */\n      dup3\n        /* \"src/blueprints/BasicBlueprint.sol\":986:990  0x60 */\n      0x60\n        /* \"src/blueprints/BasicBlueprint.sol\":981:984  res */\n      dup4\n        /* \"src/blueprints/BasicBlueprint.sol\":977:991  add(res, 0x60) */\n      add\n        /* \"src/blueprints/BasicBlueprint.sol\":970:1000  mstore(add(res, 0x60), amount) */\n      mstore\n        /* \"src/blueprints/BasicBlueprint.sol\":789:1004  {... */\n      pop\n        /* \"src/blueprints/BasicBlueprint.sol\":648:1007  function oneOperationArray(... */\n      swap3\n      swap2\n      pop\n      pop\n      jump\t// out\n        /* \"#utility.yul\":88:205   */\n    tag_47:\n        /* \"#utility.yul\":197:198   */\n      0x00\n        /* \"#utility.yul\":194:195   */\n      0x00\n        /* \"#utility.yul\":187:199   */\n      revert\n        /* \"#utility.yul\":211:328   */\n    tag_48:\n        /* \"#utility.yul\":320:321   */\n      0x00\n        /* \"#utility.yul\":317:318   */\n      0x00\n        /* \"#utility.yul\":310:322   */\n      revert\n        /* \"#utility.yul\":334:460   */\n    tag_49:\n        /* \"#utility.yul\":371:378   */\n      0x00\n        /* \"#utility.yul\":411:453   */\n      0xffffffffffffffffffffffffffffffffffffffff\n        /* \"#utility.yul\":404:409   */\n      dup3\n        /* \"#utility.yul\":400:454   */\n      and\n        /* \"#utility.yul\":389:454   */\n      swap1\n      pop\n        /* \"#utility.yul\":334:460   */\n      swap2\n      swap1\n      pop\n      jump\t// out\n        /* \"#utility.yul\":466:562   */\n    tag_50:\n        /* \"#utility.yul\":503:510   */\n      0x00\n        /* \"#utility.yul\":532:556   */\n      tag_90\n        /* \"#utility.yul\":550:555   */\n      dup3\n        /* \"#utility.yul\":532:556   */\n      tag_49\n      jump\t// in\n    tag_90:\n        /* \"#utility.yul\":521:556   */\n      swap1\n      pop\n        /* \"#utility.yul\":466:562   */\n      swap2\n      swap1\n      pop\n      jump\t// out\n        /* \"#utility.yul\":568:690   */\n    tag_51:\n        /* \"#utility.yul\":641:665   */\n      tag_92\n        /* \"#utility.yul\":659:664   */\n      dup2\n        /* \"#utility.yul\":641:665   */\n      tag_50\n      jump\t// in\n    tag_92:\n        /* \"#utility.yul\":634:639   */\n      dup2\n        /* \"#utility.yul\":631:666   */\n      eq\n        /* \"#utility.yul\":621:684   */\n      tag_93\n      jumpi\n        /* \"#utility.yul\":680:681   */\n      0x00\n        /* \"#utility.yul\":677:678   */\n      0x00\n        /* \"#utility.yul\":670:682   */\n      revert\n        /* \"#utility.yul\":621:684   */\n    tag_93:\n        /* \"#utility.yul\":568:690   */\n      pop\n      jump\t// out\n        /* \"#utility.yul\":696:835   */\n    tag_52:\n        /* \"#utility.yul\":742:747   */\n      0x00\n        /* \"#utility.yul\":780:786   */\n      dup2\n        /* \"#utility.yul\":767:787   */\n      calldataload\n        /* \"#utility.yul\":758:787   */\n      swap1\n      pop\n        /* \"#utility.yul\":796:829   */\n      tag_95\n        /* \"#utility.yul\":823:828   */\n      dup2\n        /* \"#utility.yul\":796:829   */\n      tag_51\n      jump\t// in\n    tag_95:\n        /* \"#utility.yul\":696:835   */\n      swap3\n      swap2\n      pop\n      pop\n      jump\t// out\n        /* \"#utility.yul\":841:1170   */\n    tag_7:\n        /* \"#utility.yul\":900:906   */\n      0x00\n        /* \"#utility.yul\":949:951   */\n      0x20\n        /* \"#utility.yul\":937:946   */\n      dup3\n        /* \"#utility.yul\":928:935   */\n      dup5\n        /* \"#utility.yul\":924:947   */\n      sub\n        /* \"#utility.yul\":920:952   */\n      slt\n        /* \"#utility.yul\":917:1036   */\n      iszero\n      tag_97\n      jumpi\n        /* \"#utility.yul\":955:1034   */\n      tag_98\n      tag_47\n      jump\t// in\n    tag_98:\n        /* \"#utility.yul\":917:1036   */\n    tag_97:\n        /* \"#utility.yul\":1075:1076   */\n      0x00\n        /* \"#utility.yul\":1100:1153   */\n      tag_99\n        /* \"#utility.yul\":1145:1152   */\n      dup5\n        /* \"#utility.yul\":1136:1142   */\n      dup3\n        /* \"#utility.yul\":1125:1134   */\n      dup6\n        /* \"#utility.yul\":1121:1143   */\n      add\n        /* \"#utility.yul\":1100:1153   */\n      tag_52\n      jump\t// in\n    tag_99:\n        /* \"#utility.yul\":1090:1153   */\n      swap2\n      pop\n        /* \"#utility.yul\":1046:1163   */\n      pop\n        /* \"#utility.yul\":841:1170   */\n      swap3\n      swap2\n      pop\n      pop\n      jump\t// out\n        /* \"#utility.yul\":1176:1293   */\n    tag_53:\n        /* \"#utility.yul\":1285:1286   */\n      0x00\n        /* \"#utility.yul\":1282:1283   */\n      0x00\n        /* \"#utility.yul\":1275:1287   */\n      revert\n        /* \"#utility.yul\":1299:1416   */\n    tag_54:\n        /* \"#utility.yul\":1408:1409   */\n      0x00\n        /* \"#utility.yul\":1405:1406   */\n      0x00\n        /* \"#utility.yul\":1398:1410   */\n      revert\n        /* \"#utility.yul\":1422:1539   */\n    tag_55:\n        /* \"#utility.yul\":1531:1532   */\n      0x00\n        /* \"#utility.yul\":1528:1529   */\n      0x00\n        /* \"#utility.yul\":1521:1533   */\n      revert\n        /* \"#utility.yul\":1558:2110   */\n    tag_56:\n        /* \"#utility.yul\":1615:1623   */\n      0x00\n        /* \"#utility.yul\":1625:1631   */\n      0x00\n        /* \"#utility.yul\":1675:1678   */\n      dup4\n        /* \"#utility.yul\":1668:1672   */\n      0x1f\n        /* \"#utility.yul\":1660:1666   */\n      dup5\n        /* \"#utility.yul\":1656:1673   */\n      add\n        /* \"#utility.yul\":1652:1679   */\n      slt\n        /* \"#utility.yul\":1642:1764   */\n      tag_104\n      jumpi\n        /* \"#utility.yul\":1683:1762   */\n      tag_105\n      tag_53\n      jump\t// in\n    tag_105:\n        /* \"#utility.yul\":1642:1764   */\n    tag_104:\n        /* \"#utility.yul\":1796:1802   */\n      dup3\n        /* \"#utility.yul\":1783:1803   */\n      calldataload\n        /* \"#utility.yul\":1773:1803   */\n      swap1\n      pop\n        /* \"#utility.yul\":1826:1844   */\n      0xffffffffffffffff\n        /* \"#utility.yul\":1818:1824   */\n      dup2\n        /* \"#utility.yul\":1815:1845   */\n      gt\n        /* \"#utility.yul\":1812:1929   */\n      iszero\n      tag_106\n      jumpi\n        /* \"#utility.yul\":1848:1927   */\n      tag_107\n      tag_54\n      jump\t// in\n    tag_107:\n        /* \"#utility.yul\":1812:1929   */\n    tag_106:\n        /* \"#utility.yul\":1962:1966   */\n      0x20\n        /* \"#utility.yul\":1954:1960   */\n      dup4\n        /* \"#utility.yul\":1950:1967   */\n      add\n        /* \"#utility.yul\":1938:1967   */\n      swap2\n      pop\n        /* \"#utility.yul\":2016:2019   */\n      dup4\n        /* \"#utility.yul\":2008:2012   */\n      0x01\n        /* \"#utility.yul\":2000:2006   */\n      dup3\n        /* \"#utility.yul\":1996:2013   */\n      mul\n        /* \"#utility.yul\":1986:1994   */\n      dup4\n        /* \"#utility.yul\":1982:2014   */\n      add\n        /* \"#utility.yul\":1979:2020   */\n      gt\n        /* \"#utility.yul\":1976:2104   */\n      iszero\n      tag_108\n      jumpi\n        /* \"#utility.yul\":2023:2102   */\n      tag_109\n      tag_55\n      jump\t// in\n    tag_109:\n        /* \"#utility.yul\":1976:2104   */\n    tag_108:\n        /* \"#utility.yul\":1558:2110   */\n      swap3\n      pop\n      swap3\n      swap1\n      pop\n      jump\t// out\n        /* \"#utility.yul\":2116:2643   */\n    tag_12:\n        /* \"#utility.yul\":2186:2192   */\n      0x00\n        /* \"#utility.yul\":2194:2200   */\n      0x00\n        /* \"#utility.yul\":2243:2245   */\n      0x20\n        /* \"#utility.yul\":2231:2240   */\n      dup4\n        /* \"#utility.yul\":2222:2229   */\n      dup6\n        /* \"#utility.yul\":2218:2241   */\n      sub\n        /* \"#utility.yul\":2214:2246   */\n      slt\n        /* \"#utility.yul\":2211:2330   */\n      iszero\n      tag_111\n      jumpi\n        /* \"#utility.yul\":2249:2328   */\n      tag_112\n      tag_47\n      jump\t// in\n    tag_112:\n        /* \"#utility.yul\":2211:2330   */\n    tag_111:\n        /* \"#utility.yul\":2397:2398   */\n      0x00\n        /* \"#utility.yul\":2386:2395   */\n      dup4\n        /* \"#utility.yul\":2382:2399   */\n      add\n        /* \"#utility.yul\":2369:2400   */\n      calldataload\n        /* \"#utility.yul\":2427:2445   */\n      0xffffffffffffffff\n        /* \"#utility.yul\":2419:2425   */\n      dup2\n        /* \"#utility.yul\":2416:2446   */\n      gt\n        /* \"#utility.yul\":2413:2530   */\n      iszero\n      tag_113\n      jumpi\n        /* \"#utility.yul\":2449:2528   */\n      tag_114\n      tag_48\n      jump\t// in\n    tag_114:\n        /* \"#utility.yul\":2413:2530   */\n    tag_113:\n        /* \"#utility.yul\":2562:2626   */\n      tag_115\n        /* \"#utility.yul\":2618:2625   */\n      dup6\n        /* \"#utility.yul\":2609:2615   */\n      dup3\n        /* \"#utility.yul\":2598:2607   */\n      dup7\n        /* \"#utility.yul\":2594:2616   */\n      add\n        /* \"#utility.yul\":2562:2626   */\n      tag_56\n      jump\t// in\n    tag_115:\n        /* \"#utility.yul\":2544:2626   */\n      swap3\n      pop\n      swap3\n      pop\n        /* \"#utility.yul\":2340:2636   */\n      pop\n        /* \"#utility.yul\":2116:2643   */\n      swap3\n      pop\n      swap3\n      swap1\n      pop\n      jump\t// out\n        /* \"#utility.yul\":2649:2787   */\n    tag_57:\n        /* \"#utility.yul\":2740:2746   */\n      0x00\n        /* \"#utility.yul\":2774:2779   */\n      dup2\n        /* \"#utility.yul\":2768:2780   */\n      mload\n        /* \"#utility.yul\":2758:2780   */\n      swap1\n      pop\n        /* \"#utility.yul\":2649:2787   */\n      swap2\n      swap1\n      pop\n      jump\t// out\n        /* \"#utility.yul\":2793:3001   */\n    tag_58:\n        /* \"#utility.yul\":2916:2927   */\n      0x00\n        /* \"#utility.yul\":2950:2956   */\n      dup3\n        /* \"#utility.yul\":2945:2948   */\n      dup3\n        /* \"#utility.yul\":2938:2957   */\n      mstore\n        /* \"#utility.yul\":2990:2994   */\n      0x20\n        /* \"#utility.yul\":2985:2988   */\n      dup3\n        /* \"#utility.yul\":2981:2995   */\n      add\n        /* \"#utility.yul\":2966:2995   */\n      swap1\n      pop\n        /* \"#utility.yul\":2793:3001   */\n      swap3\n      swap2\n      pop\n      pop\n      jump\t// out\n        /* \"#utility.yul\":3007:3163   */\n    tag_59:\n        /* \"#utility.yul\":3098:3102   */\n      0x00\n        /* \"#utility.yul\":3121:3124   */\n      dup2\n        /* \"#utility.yul\":3113:3124   */\n      swap1\n      pop\n        /* \"#utility.yul\":3151:3155   */\n      0x20\n        /* \"#utility.yul\":3146:3149   */\n      dup3\n        /* \"#utility.yul\":3142:3156   */\n      add\n        /* \"#utility.yul\":3134:3156   */\n      swap1\n      pop\n        /* \"#utility.yul\":3007:3163   */\n      swap2\n      swap1\n      pop\n      jump\t// out\n        /* \"#utility.yul\":3169:3246   */\n    tag_60:\n        /* \"#utility.yul\":3206:3213   */\n      0x00\n        /* \"#utility.yul\":3235:3240   */\n      dup2\n        /* \"#utility.yul\":3224:3240   */\n      swap1\n      pop\n        /* \"#utility.yul\":3169:3246   */\n      swap2\n      swap1\n      pop\n      jump\t// out\n        /* \"#utility.yul\":3252:3360   */\n    tag_61:\n        /* \"#utility.yul\":3329:3353   */\n      tag_121\n        /* \"#utility.yul\":3347:3352   */\n      dup2\n        /* \"#utility.yul\":3329:3353   */\n      tag_60\n      jump\t// in\n    tag_121:\n        /* \"#utility.yul\":3324:3327   */\n      dup3\n        /* \"#utility.yul\":3317:3354   */\n      mstore\n        /* \"#utility.yul\":3252:3360   */\n      pop\n      pop\n      jump\t// out\n        /* \"#utility.yul\":3406:3906   */\n    tag_62:\n        /* \"#utility.yul\":3541:3545   */\n      0x40\n        /* \"#utility.yul\":3536:3539   */\n      dup3\n        /* \"#utility.yul\":3532:3546   */\n      add\n        /* \"#utility.yul\":3631:3635   */\n      0x00\n        /* \"#utility.yul\":3624:3629   */\n      dup3\n        /* \"#utility.yul\":3620:3636   */\n      add\n        /* \"#utility.yul\":3614:3637   */\n      mload\n        /* \"#utility.yul\":3650:3713   */\n      tag_123\n        /* \"#utility.yul\":3707:3711   */\n      0x00\n        /* \"#utility.yul\":3702:3705   */\n      dup6\n        /* \"#utility.yul\":3698:3712   */\n      add\n        /* \"#utility.yul\":3684:3696   */\n      dup3\n        /* \"#utility.yul\":3650:3713   */\n      tag_61\n      jump\t// in\n    tag_123:\n        /* \"#utility.yul\":3556:3723   */\n      pop\n        /* \"#utility.yul\":3807:3811   */\n      0x20\n        /* \"#utility.yul\":3800:3805   */\n      dup3\n        /* \"#utility.yul\":3796:3812   */\n      add\n        /* \"#utility.yul\":3790:3813   */\n      mload\n        /* \"#utility.yul\":3826:3889   */\n      tag_124\n        /* \"#utility.yul\":3883:3887   */\n      0x20\n        /* \"#utility.yul\":3878:3881   */\n      dup6\n        /* \"#utility.yul\":3874:3888   */\n      add\n        /* \"#utility.yul\":3860:3872   */\n      dup3\n        /* \"#utility.yul\":3826:3889   */\n      tag_61\n      jump\t// in\n    tag_124:\n        /* \"#utility.yul\":3733:3899   */\n      pop\n        /* \"#utility.yul\":3510:3906   */\n      pop\n        /* \"#utility.yul\":3406:3906   */\n      pop\n      pop\n      jump\t// out\n        /* \"#utility.yul\":3912:4187   */\n    tag_63:\n        /* \"#utility.yul\":4029:4039   */\n      0x00\n        /* \"#utility.yul\":4050:4144   */\n      tag_126\n        /* \"#utility.yul\":4140:4143   */\n      dup4\n        /* \"#utility.yul\":4132:4138   */\n      dup4\n        /* \"#utility.yul\":4050:4144   */\n      tag_62\n      jump\t// in\n    tag_126:\n        /* \"#utility.yul\":4176:4180   */\n      0x40\n        /* \"#utility.yul\":4171:4174   */\n      dup4\n        /* \"#utility.yul\":4167:4181   */\n      add\n        /* \"#utility.yul\":4153:4181   */\n      swap1\n      pop\n        /* \"#utility.yul\":3912:4187   */\n      swap3\n      swap2\n      pop\n      pop\n      jump\t// out\n        /* \"#utility.yul\":4193:4330   */\n    tag_64:\n        /* \"#utility.yul\":4287:4291   */\n      0x00\n        /* \"#utility.yul\":4319:4323   */\n      0x20\n        /* \"#utility.yul\":4314:4317   */\n      dup3\n        /* \"#utility.yul\":4310:4324   */\n      add\n        /* \"#utility.yul\":4302:4324   */\n      swap1\n      pop\n        /* \"#utility.yul\":4193:4330   */\n      swap2\n      swap1\n      pop\n      jump\t// out\n        /* \"#utility.yul\":4380:5304   */\n    tag_65:\n        /* \"#utility.yul\":4547:4550   */\n      0x00\n        /* \"#utility.yul\":4576:4654   */\n      tag_129\n        /* \"#utility.yul\":4648:4653   */\n      dup3\n        /* \"#utility.yul\":4576:4654   */\n      tag_57\n      jump\t// in\n    tag_129:\n        /* \"#utility.yul\":4670:4780   */\n      tag_130\n        /* \"#utility.yul\":4773:4779   */\n      dup2\n        /* \"#utility.yul\":4768:4771   */\n      dup6\n        /* \"#utility.yul\":4670:4780   */\n      tag_58\n      jump\t// in\n    tag_130:\n        /* \"#utility.yul\":4663:4780   */\n      swap4\n      pop\n        /* \"#utility.yul\":4804:4884   */\n      tag_131\n        /* \"#utility.yul\":4878:4883   */\n      dup4\n        /* \"#utility.yul\":4804:4884   */\n      tag_59\n      jump\t// in\n    tag_131:\n        /* \"#utility.yul\":4907:4914   */\n      dup1\n        /* \"#utility.yul\":4938:4939   */\n      0x00\n        /* \"#utility.yul\":4923:5279   */\n    tag_132:\n        /* \"#utility.yul\":4948:4954   */\n      dup4\n        /* \"#utility.yul\":4945:4946   */\n      dup2\n        /* \"#utility.yul\":4942:4955   */\n      lt\n        /* \"#utility.yul\":4923:5279   */\n      iszero\n      tag_134\n      jumpi\n        /* \"#utility.yul\":5024:5030   */\n      dup2\n        /* \"#utility.yul\":5018:5031   */\n      mload\n        /* \"#utility.yul\":5051:5162   */\n      tag_135\n        /* \"#utility.yul\":5158:5161   */\n      dup9\n        /* \"#utility.yul\":5143:5156   */\n      dup3\n        /* \"#utility.yul\":5051:5162   */\n      tag_63\n      jump\t// in\n    tag_135:\n        /* \"#utility.yul\":5044:5162   */\n      swap8\n      pop\n        /* \"#utility.yul\":5185:5269   */\n      tag_136\n        /* \"#utility.yul\":5262:5268   */\n      dup4\n        /* \"#utility.yul\":5185:5269   */\n      tag_64\n      jump\t// in\n    tag_136:\n        /* \"#utility.yul\":5175:5269   */\n      swap3\n      pop\n        /* \"#utility.yul\":4983:5279   */\n      pop\n        /* \"#utility.yul\":4970:4971   */\n      0x01\n        /* \"#utility.yul\":4967:4968   */\n      dup2\n        /* \"#utility.yul\":4963:4972   */\n      add\n        /* \"#utility.yul\":4958:4972   */\n      swap1\n      pop\n        /* \"#utility.yul\":4923:5279   */\n      jump(tag_132)\n    tag_134:\n        /* \"#utility.yul\":4927:4941   */\n      pop\n        /* \"#utility.yul\":5295:5298   */\n      dup6\n        /* \"#utility.yul\":5288:5298   */\n      swap4\n      pop\n        /* \"#utility.yul\":4552:5304   */\n      pop\n      pop\n      pop\n        /* \"#utility.yul\":4380:5304   */\n      swap3\n      swap2\n      pop\n      pop\n      jump\t// out\n        /* \"#utility.yul\":5310:6851   */\n    tag_15:\n        /* \"#utility.yul\":5879:5883   */\n      0x00\n        /* \"#utility.yul\":5917:5920   */\n      0x80\n        /* \"#utility.yul\":5906:5915   */\n      dup3\n        /* \"#utility.yul\":5902:5921   */\n      add\n        /* \"#utility.yul\":5894:5921   */\n      swap1\n      pop\n        /* \"#utility.yul\":5967:5976   */\n      dup2\n        /* \"#utility.yul\":5961:5965   */\n      dup2\n        /* \"#utility.yul\":5957:5977   */\n      sub\n        /* \"#utility.yul\":5953:5954   */\n      0x00\n        /* \"#utility.yul\":5942:5951   */\n      dup4\n        /* \"#utility.yul\":5938:5955   */\n      add\n        /* \"#utility.yul\":5931:5978   */\n      mstore\n        /* \"#utility.yul\":5995:6151   */\n      tag_138\n        /* \"#utility.yul\":6146:6150   */\n      dup2\n        /* \"#utility.yul\":6137:6143   */\n      dup8\n        /* \"#utility.yul\":5995:6151   */\n      tag_65\n      jump\t// in\n    tag_138:\n        /* \"#utility.yul\":5987:6151   */\n      swap1\n      pop\n        /* \"#utility.yul\":6198:6207   */\n      dup2\n        /* \"#utility.yul\":6192:6196   */\n      dup2\n        /* \"#utility.yul\":6188:6208   */\n      sub\n        /* \"#utility.yul\":6183:6185   */\n      0x20\n        /* \"#utility.yul\":6172:6181   */\n      dup4\n        /* \"#utility.yul\":6168:6186   */\n      add\n        /* \"#utility.yul\":6161:6209   */\n      mstore\n        /* \"#utility.yul\":6226:6382   */\n      tag_139\n        /* \"#utility.yul\":6377:6381   */\n      dup2\n        /* \"#utility.yul\":6368:6374   */\n      dup7\n        /* \"#utility.yul\":6226:6382   */\n      tag_65\n      jump\t// in\n    tag_139:\n        /* \"#utility.yul\":6218:6382   */\n      swap1\n      pop\n        /* \"#utility.yul\":6429:6438   */\n      dup2\n        /* \"#utility.yul\":6423:6427   */\n      dup2\n        /* \"#utility.yul\":6419:6439   */\n      sub\n        /* \"#utility.yul\":6414:6416   */\n      0x40\n        /* \"#utility.yul\":6403:6412   */\n      dup4\n        /* \"#utility.yul\":6399:6417   */\n      add\n        /* \"#utility.yul\":6392:6440   */\n      mstore\n        /* \"#utility.yul\":6457:6613   */\n      tag_140\n        /* \"#utility.yul\":6608:6612   */\n      dup2\n        /* \"#utility.yul\":6599:6605   */\n      dup6\n        /* \"#utility.yul\":6457:6613   */\n      tag_65\n      jump\t// in\n    tag_140:\n        /* \"#utility.yul\":6449:6613   */\n      swap1\n      pop\n        /* \"#utility.yul\":6660:6669   */\n      dup2\n        /* \"#utility.yul\":6654:6658   */\n      dup2\n        /* \"#utility.yul\":6650:6670   */\n      sub\n        /* \"#utility.yul\":6645:6647   */\n      0x60\n        /* \"#utility.yul\":6634:6643   */\n      dup4\n        /* \"#utility.yul\":6630:6648   */\n      add\n        /* \"#utility.yul\":6623:6671   */\n      mstore\n        /* \"#utility.yul\":6688:6844   */\n      tag_141\n        /* \"#utility.yul\":6839:6843   */\n      dup2\n        /* \"#utility.yul\":6830:6836   */\n      dup5\n        /* \"#utility.yul\":6688:6844   */\n      tag_65\n      jump\t// in\n    tag_141:\n        /* \"#utility.yul\":6680:6844   */\n      swap1\n      pop\n        /* \"#utility.yul\":5310:6851   */\n      swap6\n      swap5\n      pop\n      pop\n      pop\n      pop\n      pop\n      jump\t// out\n        /* \"#utility.yul\":6857:6917   */\n    tag_66:\n        /* \"#utility.yul\":6885:6888   */\n      0x00\n        /* \"#utility.yul\":6906:6911   */\n      dup2\n        /* \"#utility.yul\":6899:6911   */\n      swap1\n      pop\n        /* \"#utility.yul\":6857:6917   */\n      swap2\n      swap1\n      pop\n      jump\t// out\n        /* \"#utility.yul\":6923:7065   */\n    tag_67:\n        /* \"#utility.yul\":6973:6982   */\n      0x00\n        /* \"#utility.yul\":7006:7059   */\n      tag_144\n        /* \"#utility.yul\":7024:7058   */\n      tag_145\n        /* \"#utility.yul\":7033:7057   */\n      tag_146\n        /* \"#utility.yul\":7051:7056   */\n      dup5\n        /* \"#utility.yul\":7033:7057   */\n      tag_49\n      jump\t// in\n    tag_146:\n        /* \"#utility.yul\":7024:7058   */\n      tag_66\n      jump\t// in\n    tag_145:\n        /* \"#utility.yul\":7006:7059   */\n      tag_49\n      jump\t// in\n    tag_144:\n        /* \"#utility.yul\":6993:7059   */\n      swap1\n      pop\n        /* \"#utility.yul\":6923:7065   */\n      swap2\n      swap1\n      pop\n      jump\t// out\n        /* \"#utility.yul\":7071:7197   */\n    tag_68:\n        /* \"#utility.yul\":7121:7130   */\n      0x00\n        /* \"#utility.yul\":7154:7191   */\n      tag_148\n        /* \"#utility.yul\":7185:7190   */\n      dup3\n        /* \"#utility.yul\":7154:7191   */\n      tag_67\n      jump\t// in\n    tag_148:\n        /* \"#utility.yul\":7141:7191   */\n      swap1\n      pop\n        /* \"#utility.yul\":7071:7197   */\n      swap2\n      swap1\n      pop\n      jump\t// out\n        /* \"#utility.yul\":7203:7354   */\n    tag_69:\n        /* \"#utility.yul\":7278:7287   */\n      0x00\n        /* \"#utility.yul\":7311:7348   */\n      tag_150\n        /* \"#utility.yul\":7342:7347   */\n      dup3\n        /* \"#utility.yul\":7311:7348   */\n      tag_68\n      jump\t// in\n    tag_150:\n        /* \"#utility.yul\":7298:7348   */\n      swap1\n      pop\n        /* \"#utility.yul\":7203:7354   */\n      swap2\n      swap1\n      pop\n      jump\t// out\n        /* \"#utility.yul\":7360:7541   */\n    tag_70:\n        /* \"#utility.yul\":7472:7534   */\n      tag_152\n        /* \"#utility.yul\":7528:7533   */\n      dup2\n        /* \"#utility.yul\":7472:7534   */\n      tag_69\n      jump\t// in\n    tag_152:\n        /* \"#utility.yul\":7467:7470   */\n      dup3\n        /* \"#utility.yul\":7460:7535   */\n      mstore\n        /* \"#utility.yul\":7360:7541   */\n      pop\n      pop\n      jump\t// out\n        /* \"#utility.yul\":7547:7819   */\n    tag_20:\n        /* \"#utility.yul\":7665:7669   */\n      0x00\n        /* \"#utility.yul\":7703:7705   */\n      0x20\n        /* \"#utility.yul\":7692:7701   */\n      dup3\n        /* \"#utility.yul\":7688:7706   */\n      add\n        /* \"#utility.yul\":7680:7706   */\n      swap1\n      pop\n        /* \"#utility.yul\":7716:7812   */\n      tag_154\n        /* \"#utility.yul\":7809:7810   */\n      0x00\n        /* \"#utility.yul\":7798:7807   */\n      dup4\n        /* \"#utility.yul\":7794:7811   */\n      add\n        /* \"#utility.yul\":7785:7791   */\n      dup5\n        /* \"#utility.yul\":7716:7812   */\n      tag_70\n      jump\t// in\n    tag_154:\n        /* \"#utility.yul\":7547:7819   */\n      swap3\n      swap2\n      pop\n      pop\n      jump\t// out\n        /* \"#utility.yul\":7825:7943   */\n    tag_71:\n        /* \"#utility.yul\":7912:7936   */\n      tag_156\n        /* \"#utility.yul\":7930:7935   */\n      dup2\n        /* \"#utility.yul\":7912:7936   */\n      tag_50\n      jump\t// in\n    tag_156:\n        /* \"#utility.yul\":7907:7910   */\n      dup3\n        /* \"#utility.yul\":7900:7937   */\n      mstore\n        /* \"#utility.yul\":7825:7943   */\n      pop\n      pop\n      jump\t// out\n        /* \"#utility.yul\":7949:8034   */\n    tag_72:\n        /* \"#utility.yul\":7994:8001   */\n      0x00\n        /* \"#utility.yul\":8023:8028   */\n      dup2\n        /* \"#utility.yul\":8012:8028   */\n      swap1\n      pop\n        /* \"#utility.yul\":7949:8034   */\n      swap2\n      swap1\n      pop\n      jump\t// out\n        /* \"#utility.yul\":8040:8198   */\n    tag_73:\n        /* \"#utility.yul\":8098:8107   */\n      0x00\n        /* \"#utility.yul\":8131:8192   */\n      tag_159\n        /* \"#utility.yul\":8149:8191   */\n      tag_160\n        /* \"#utility.yul\":8158:8190   */\n      tag_161\n        /* \"#utility.yul\":8184:8189   */\n      dup5\n        /* \"#utility.yul\":8158:8190   */\n      tag_72\n      jump\t// in\n    tag_161:\n        /* \"#utility.yul\":8149:8191   */\n      tag_66\n      jump\t// in\n    tag_160:\n        /* \"#utility.yul\":8131:8192   */\n      tag_60\n      jump\t// in\n    tag_159:\n        /* \"#utility.yul\":8118:8192   */\n      swap1\n      pop\n        /* \"#utility.yul\":8040:8198   */\n      swap2\n      swap1\n      pop\n      jump\t// out\n        /* \"#utility.yul\":8204:8351   */\n    tag_74:\n        /* \"#utility.yul\":8299:8344   */\n      tag_163\n        /* \"#utility.yul\":8338:8343   */\n      dup2\n        /* \"#utility.yul\":8299:8344   */\n      tag_73\n      jump\t// in\n    tag_163:\n        /* \"#utility.yul\":8294:8297   */\n      dup3\n        /* \"#utility.yul\":8287:8345   */\n      mstore\n        /* \"#utility.yul\":8204:8351   */\n      pop\n      pop\n      jump\t// out\n        /* \"#utility.yul\":8357:8475   */\n    tag_75:\n        /* \"#utility.yul\":8444:8468   */\n      tag_165\n        /* \"#utility.yul\":8462:8467   */\n      dup2\n        /* \"#utility.yul\":8444:8468   */\n      tag_60\n      jump\t// in\n    tag_165:\n        /* \"#utility.yul\":8439:8442   */\n      dup3\n        /* \"#utility.yul\":8432:8469   */\n      mstore\n        /* \"#utility.yul\":8357:8475   */\n      pop\n      pop\n      jump\t// out\n        /* \"#utility.yul\":8481:8939   */\n    tag_23:\n        /* \"#utility.yul\":8638:8642   */\n      0x00\n        /* \"#utility.yul\":8676:8678   */\n      0x60\n        /* \"#utility.yul\":8665:8674   */\n      dup3\n        /* \"#utility.yul\":8661:8679   */\n      add\n        /* \"#utility.yul\":8653:8679   */\n      swap1\n      pop\n        /* \"#utility.yul\":8689:8760   */\n      tag_167\n        /* \"#utility.yul\":8757:8758   */\n      0x00\n        /* \"#utility.yul\":8746:8755   */\n      dup4\n        /* \"#utility.yul\":8742:8759   */\n      add\n        /* \"#utility.yul\":8733:8739   */\n      dup7\n        /* \"#utility.yul\":8689:8760   */\n      tag_71\n      jump\t// in\n    tag_167:\n        /* \"#utility.yul\":8770:8850   */\n      tag_168\n        /* \"#utility.yul\":8846:8848   */\n      0x20\n        /* \"#utility.yul\":8835:8844   */\n      dup4\n        /* \"#utility.yul\":8831:8849   */\n      add\n        /* \"#utility.yul\":8822:8828   */\n      dup6\n        /* \"#utility.yul\":8770:8850   */\n      tag_74\n      jump\t// in\n    tag_168:\n        /* \"#utility.yul\":8860:8932   */\n      tag_169\n        /* \"#utility.yul\":8928:8930   */\n      0x40\n        /* \"#utility.yul\":8917:8926   */\n      dup4\n        /* \"#utility.yul\":8913:8931   */\n      add\n        /* \"#utility.yul\":8904:8910   */\n      dup5\n        /* \"#utility.yul\":8860:8932   */\n      tag_75\n      jump\t// in\n    tag_169:\n        /* \"#utility.yul\":8481:8939   */\n      swap5\n      swap4\n      pop\n      pop\n      pop\n      pop\n      jump\t// out\n        /* \"#utility.yul\":8945:9049   */\n    tag_76:\n        /* \"#utility.yul\":8990:8997   */\n      0x00\n        /* \"#utility.yul\":9019:9043   */\n      tag_171\n        /* \"#utility.yul\":9037:9042   */\n      dup3\n        /* \"#utility.yul\":9019:9043   */\n      tag_49\n      jump\t// in\n    tag_171:\n        /* \"#utility.yul\":9008:9043   */\n      swap1\n      pop\n        /* \"#utility.yul\":8945:9049   */\n      swap2\n      swap1\n      pop\n      jump\t// out\n        /* \"#utility.yul\":9055:9193   */\n    tag_77:\n        /* \"#utility.yul\":9136:9168   */\n      tag_173\n        /* \"#utility.yul\":9162:9167   */\n      dup2\n        /* \"#utility.yul\":9136:9168   */\n      tag_76\n      jump\t// in\n    tag_173:\n        /* \"#utility.yul\":9129:9134   */\n      dup2\n        /* \"#utility.yul\":9126:9169   */\n      eq\n        /* \"#utility.yul\":9116:9187   */\n      tag_174\n      jumpi\n        /* \"#utility.yul\":9183:9184   */\n      0x00\n        /* \"#utility.yul\":9180:9181   */\n      0x00\n        /* \"#utility.yul\":9173:9185   */\n      revert\n        /* \"#utility.yul\":9116:9187   */\n    tag_174:\n        /* \"#utility.yul\":9055:9193   */\n      pop\n      jump\t// out\n        /* \"#utility.yul\":9199:9354   */\n    tag_78:\n        /* \"#utility.yul\":9253:9258   */\n      0x00\n        /* \"#utility.yul\":9291:9297   */\n      dup2\n        /* \"#utility.yul\":9278:9298   */\n      calldataload\n        /* \"#utility.yul\":9269:9298   */\n      swap1\n      pop\n        /* \"#utility.yul\":9307:9348   */\n      tag_176\n        /* \"#utility.yul\":9342:9347   */\n      dup2\n        /* \"#utility.yul\":9307:9348   */\n      tag_77\n      jump\t// in\n    tag_176:\n        /* \"#utility.yul\":9199:9354   */\n      swap3\n      swap2\n      pop\n      pop\n      jump\t// out\n        /* \"#utility.yul\":9360:9482   */\n    tag_79:\n        /* \"#utility.yul\":9433:9457   */\n      tag_178\n        /* \"#utility.yul\":9451:9456   */\n      dup2\n        /* \"#utility.yul\":9433:9457   */\n      tag_60\n      jump\t// in\n    tag_178:\n        /* \"#utility.yul\":9426:9431   */\n      dup2\n        /* \"#utility.yul\":9423:9458   */\n      eq\n        /* \"#utility.yul\":9413:9476   */\n      tag_179\n      jumpi\n        /* \"#utility.yul\":9472:9473   */\n      0x00\n        /* \"#utility.yul\":9469:9470   */\n      0x00\n        /* \"#utility.yul\":9462:9474   */\n      revert\n        /* \"#utility.yul\":9413:9476   */\n    tag_179:\n        /* \"#utility.yul\":9360:9482   */\n      pop\n      jump\t// out\n        /* \"#utility.yul\":9488:9627   */\n    tag_80:\n        /* \"#utility.yul\":9534:9539   */\n      0x00\n        /* \"#utility.yul\":9572:9578   */\n      dup2\n        /* \"#utility.yul\":9559:9579   */\n      calldataload\n        /* \"#utility.yul\":9550:9579   */\n      swap1\n      pop\n        /* \"#utility.yul\":9588:9621   */\n      tag_181\n        /* \"#utility.yul\":9615:9620   */\n      dup2\n        /* \"#utility.yul\":9588:9621   */\n      tag_79\n      jump\t// in\n    tag_181:\n        /* \"#utility.yul\":9488:9627   */\n      swap3\n      swap2\n      pop\n      pop\n      jump\t// out\n        /* \"#utility.yul\":9633:10123   */\n    tag_31:\n        /* \"#utility.yul\":9709:9715   */\n      0x00\n        /* \"#utility.yul\":9717:9723   */\n      0x00\n        /* \"#utility.yul\":9766:9768   */\n      0x40\n        /* \"#utility.yul\":9754:9763   */\n      dup4\n        /* \"#utility.yul\":9745:9752   */\n      dup6\n        /* \"#utility.yul\":9741:9764   */\n      sub\n        /* \"#utility.yul\":9737:9769   */\n      slt\n        /* \"#utility.yul\":9734:9853   */\n      iszero\n      tag_183\n      jumpi\n        /* \"#utility.yul\":9772:9851   */\n      tag_184\n      tag_47\n      jump\t// in\n    tag_184:\n        /* \"#utility.yul\":9734:9853   */\n    tag_183:\n        /* \"#utility.yul\":9892:9893   */\n      0x00\n        /* \"#utility.yul\":9917:9978   */\n      tag_185\n        /* \"#utility.yul\":9970:9977   */\n      dup6\n        /* \"#utility.yul\":9961:9967   */\n      dup3\n        /* \"#utility.yul\":9950:9959   */\n      dup7\n        /* \"#utility.yul\":9946:9968   */\n      add\n        /* \"#utility.yul\":9917:9978   */\n      tag_78\n      jump\t// in\n    tag_185:\n        /* \"#utility.yul\":9907:9978   */\n      swap3\n      pop\n        /* \"#utility.yul\":9863:9988   */\n      pop\n        /* \"#utility.yul\":10027:10029   */\n      0x20\n        /* \"#utility.yul\":10053:10106   */\n      tag_186\n        /* \"#utility.yul\":10098:10105   */\n      dup6\n        /* \"#utility.yul\":10089:10095   */\n      dup3\n        /* \"#utility.yul\":10078:10087   */\n      dup7\n        /* \"#utility.yul\":10074:10096   */\n      add\n        /* \"#utility.yul\":10053:10106   */\n      tag_80\n      jump\t// in\n    tag_186:\n        /* \"#utility.yul\":10043:10106   */\n      swap2\n      pop\n        /* \"#utility.yul\":9998:10116   */\n      pop\n        /* \"#utility.yul\":9633:10123   */\n      swap3\n      pop\n      swap3\n      swap1\n      pop\n      jump\t// out\n        /* \"#utility.yul\":10129:10276   */\n    tag_81:\n        /* \"#utility.yul\":10230:10241   */\n      0x00\n        /* \"#utility.yul\":10267:10270   */\n      dup2\n        /* \"#utility.yul\":10252:10270   */\n      swap1\n      pop\n        /* \"#utility.yul\":10129:10276   */\n      swap3\n      swap2\n      pop\n      pop\n      jump\t// out\n        /* \"#utility.yul\":10282:10396   */\n    tag_82:\n      pop\n      jump\t// out\n        /* \"#utility.yul\":10402:10800   */\n    tag_83:\n        /* \"#utility.yul\":10561:10564   */\n      0x00\n        /* \"#utility.yul\":10582:10665   */\n      tag_190\n        /* \"#utility.yul\":10663:10664   */\n      0x00\n        /* \"#utility.yul\":10658:10661   */\n      dup4\n        /* \"#utility.yul\":10582:10665   */\n      tag_81\n      jump\t// in\n    tag_190:\n        /* \"#utility.yul\":10575:10665   */\n      swap2\n      pop\n        /* \"#utility.yul\":10674:10767   */\n      tag_191\n        /* \"#utility.yul\":10763:10766   */\n      dup3\n        /* \"#utility.yul\":10674:10767   */\n      tag_82\n      jump\t// in\n    tag_191:\n        /* \"#utility.yul\":10792:10793   */\n      0x00\n        /* \"#utility.yul\":10787:10790   */\n      dup3\n        /* \"#utility.yul\":10783:10794   */\n      add\n        /* \"#utility.yul\":10776:10794   */\n      swap1\n      pop\n        /* \"#utility.yul\":10402:10800   */\n      swap2\n      swap1\n      pop\n      jump\t// out\n        /* \"#utility.yul\":10806:11185   */\n    tag_33:\n        /* \"#utility.yul\":10990:10993   */\n      0x00\n        /* \"#utility.yul\":11012:11159   */\n      tag_193\n        /* \"#utility.yul\":11155:11158   */\n      dup3\n        /* \"#utility.yul\":11012:11159   */\n      tag_83\n      jump\t// in\n    tag_193:\n        /* \"#utility.yul\":11005:11159   */\n      swap2\n      pop\n        /* \"#utility.yul\":11176:11179   */\n      dup2\n        /* \"#utility.yul\":11169:11179   */\n      swap1\n      pop\n        /* \"#utility.yul\":10806:11185   */\n      swap2\n      swap1\n      pop\n      jump\t// out\n\n    auxdata: 0xa2646970667358221220a3f64c47fc049318d5f1bd8e20fe0bd0b8e721527392e09c77ea1bc6695a0a1a64736f6c634300081c0033\n}\n",
				"bytecode": {
					"linkReferences": {},
					"object": "60a060405234801561000f575f5ffd5b506040516108de3803806108de833981810160405281019061003191906100dc565b808073ffffffffffffffffffffffffffffffffffffffff1660808173ffffffffffffffffffffffffffffffffffffffff16815250505050610107565b5f5ffd5b5f73ffffffffffffffffffffffffffffffffffffffff82169050919050565b5f61009a82610071565b9050919050565b5f6100ab82610090565b9050919050565b6100bb816100a1565b81146100c5575f5ffd5b50565b5f815190506100d6816100b2565b92915050565b5f602082840312156100f1576100f061006d565b5b5f6100fe848285016100c8565b91505092915050565b6080516107b261012c5f395f818160be0152818161015101526102c001526107b25ff3fe608060405260043610610033575f3560e01c80636a62784214610037578063a129568d14610053578063fabe109a14610092575b5f5ffd5b610051600480360381019061004c9190610375565b6100bc565b005b34801561005e575f5ffd5b5061007960048036038101906100749190610401565b610149565b6040516100899493929190610539565b60405180910390f35b34801561009d575f5ffd5b506100a66102be565b6040516100b391906105f3565b60405180910390f35b7f000000000000000000000000000000000000000000000000000000000000000073ffffffffffffffffffffffffffffffffffffffff1663156e29f6825f346040518463ffffffff1660e01b815260040161011993929190610663565b5f604051808303815f87803b158015610130575f5ffd5b505af1158015610142573d5f5f3e3d5ffd5b5050505050565b6060806060807f000000000000000000000000000000000000000000000000000000000000000073ffffffffffffffffffffffffffffffffffffffff163373ffffffffffffffffffffffffffffffffffffffff16146101d4576040517f4ca8886700000000000000000000000000000000000000000000000000000000815260040160405180910390fd5b5f5f87878101906101e591906106fd565b915091505f8273ffffffffffffffffffffffffffffffffffffffff168260405161020e90610768565b5f6040518083038185875af1925050503d805f8114610248576040519150601f19603f3d011682016040523d82523d5f602084013e61024d565b606091505b5050905080610288576040517ff4b3b1bc00000000000000000000000000000000000000000000000000000000815260040160405180910390fd5b6102906102e2565b61029a5f846102e7565b6102a26102e2565b6102aa6102e2565b965096509650965050505092959194509250565b7f000000000000000000000000000000000000000000000000000000000000000081565b606090565b606060405190506080810160405260408101600182528060208301528381528260608301525092915050565b5f5ffd5b5f5ffd5b5f73ffffffffffffffffffffffffffffffffffffffff82169050919050565b5f6103448261031b565b9050919050565b6103548161033a565b811461035e575f5ffd5b50565b5f8135905061036f8161034b565b92915050565b5f6020828403121561038a57610389610313565b5b5f61039784828501610361565b91505092915050565b5f5ffd5b5f5ffd5b5f5ffd5b5f5f83601f8401126103c1576103c06103a0565b5b8235905067ffffffffffffffff8111156103de576103dd6103a4565b5b6020830191508360018202830111156103fa576103f96103a8565b5b9250929050565b5f5f6020838503121561041757610416610313565b5b5f83013567ffffffffffffffff81111561043457610433610317565b5b610440858286016103ac565b92509250509250929050565b5f81519050919050565b5f82825260208201905092915050565b5f819050602082019050919050565b5f819050919050565b61048781610475565b82525050565b604082015f8201516104a15f85018261047e565b5060208201516104b4602085018261047e565b50505050565b5f6104c5838361048d565b60408301905092915050565b5f602082019050919050565b5f6104e78261044c565b6104f18185610456565b93506104fc83610466565b805f5b8381101561052c57815161051388826104ba565b975061051e836104d1565b9250506001810190506104ff565b5085935050505092915050565b5f6080820190508181035f83015261055181876104dd565b9050818103602083015261056581866104dd565b9050818103604083015261057981856104dd565b9050818103606083015261058d81846104dd565b905095945050505050565b5f819050919050565b5f6105bb6105b66105b18461031b565b610598565b61031b565b9050919050565b5f6105cc826105a1565b9050919050565b5f6105dd826105c2565b9050919050565b6105ed816105d3565b82525050565b5f6020820190506106065f8301846105e4565b92915050565b6106158161033a565b82525050565b5f819050919050565b5f61063e6106396106348461061b565b610598565b610475565b9050919050565b61064e81610624565b82525050565b61065d81610475565b82525050565b5f6060820190506106765f83018661060c565b6106836020830185610645565b6106906040830184610654565b949350505050565b5f6106a28261031b565b9050919050565b6106b281610698565b81146106bc575f5ffd5b50565b5f813590506106cd816106a9565b92915050565b6106dc81610475565b81146106e6575f5ffd5b50565b5f813590506106f7816106d3565b92915050565b5f5f6040838503121561071357610712610313565b5b5f610720858286016106bf565b9250506020610731858286016106e9565b9150509250929050565b5f81905092915050565b50565b5f6107535f8361073b565b915061075e82610745565b5f82019050919050565b5f61077282610748565b915081905091905056fea2646970667358221220a3f64c47fc049318d5f1bd8e20fe0bd0b8e721527392e09c77ea1bc6695a0a1a64736f6c634300081c0033",
					"opcodes": "PUSH1 0xA0 PUSH1 0x40 MSTORE CALLVALUE DUP1 ISZERO PUSH2 0xF JUMPI PUSH0 PUSH0 REVERT JUMPDEST POP PUSH1 0x40 MLOAD PUSH2 0x8DE CODESIZE SUB DUP1 PUSH2 0x8DE DUP4 CODECOPY DUP2 DUP2 ADD PUSH1 0x40 MSTORE DUP2 ADD SWAP1 PUSH2 0x31 SWAP2 SWAP1 PUSH2 0xDC JUMP JUMPDEST DUP1 DUP1 PUSH20 0xFFFFFFFFFFFFFFFFFFFFFFFFFFFFFFFFFFFFFFFF AND PUSH1 0x80 DUP2 PUSH20 0xFFFFFFFFFFFFFFFFFFFFFFFFFFFFFFFFFFFFFFFF AND DUP2 MSTORE POP POP POP POP PUSH2 0x107 JUMP JUMPDEST PUSH0 PUSH0 REVERT JUMPDEST PUSH0 PUSH20 0xFFFFFFFFFFFFFFFFFFFFFFFFFFFFFFFFFFFFFFFF DUP3 AND SWAP1 POP SWAP2 SWAP1 POP JUMP JUMPDEST PUSH0 PUSH2 0x9A DUP3 PUSH2 0x71 JUMP JUMPDEST SWAP1 POP SWAP2 SWAP1 POP JUMP JUMPDEST PUSH0 PUSH2 0xAB DUP3 PUSH2 0x90 JUMP JUMPDEST SWAP1 POP SWAP2 SWAP1 POP JUMP JUMPDEST PUSH2 0xBB DUP2 PUSH2 0xA1 JUMP JUMPDEST DUP2 EQ PUSH2 0xC5 JUMPI PUSH0 PUSH0 REVERT JUMPDEST POP JUMP JUMPDEST PUSH0 DUP2 MLOAD SWAP1 POP PUSH2 0xD6 DUP2 PUSH2 0xB2 JUMP JUMPDEST SWAP3 SWAP2 POP POP JUMP JUMPDEST PUSH0 PUSH1 0x20 DUP3 DUP5 SUB SLT ISZERO PUSH2 0xF1 JUMPI PUSH2 0xF0 PUSH2 0x6D JUMP JUMPDEST JUMPDEST PUSH0 PUSH2 0xFE DUP5 DUP3 DUP6 ADD PUSH2 0xC8 JUMP JUMPDEST SWAP2 POP POP SWAP3 SWAP2 POP POP JUMP JUMPDEST PUSH1 0x80 MLOAD PUSH2 0x7B2 PUSH2 0x12C PUSH0 CODECOPY PUSH0 DUP2 DUP2 PUSH1 0xBE ADD MSTORE DUP2 DUP2 PUSH2 0x151 ADD MSTORE PUSH2 0x2C0 ADD MSTORE PUSH2 0x7B2 PUSH0 RETURN INVALID PUSH1 0x80 PUSH1 0x40 MSTORE PUSH1 0x4 CALLDATASIZE LT PUSH2 0x33 JUMPI PUSH0 CALLDATALOAD PUSH1 0xE0 SHR DUP1 PUSH4 0x6A627842 EQ PUSH2 0x37 JUMPI DUP1 PUSH4 0xA129568D EQ PUSH2 0x53 JUMPI DUP1 PUSH4 0xFABE109A EQ PUSH2 0x92 JUMPI JUMPDEST PUSH0 PUSH0 REVERT JUMPDEST PUSH2 0x51 PUSH1 0x4 DUP1 CALLDATASIZE SUB DUP2 ADD SWAP1 PUSH2 0x4C SWAP2 SWAP1 PUSH2 0x375 JUMP JUMPDEST PUSH2 0xBC JUMP JUMPDEST STOP JUMPDEST CALLVALUE DUP1 ISZERO PUSH2 0x5E JUMPI PUSH0 PUSH0 REVERT JUMPDEST POP PUSH2 0x79 PUSH1 0x4 DUP1 CALLDATASIZE SUB DUP2 ADD SWAP1 PUSH2 0x74 SWAP2 SWAP1 PUSH2 0x401 JUMP JUMPDEST PUSH2 0x149 JUMP JUMPDEST PUSH1 0x40 MLOAD PUSH2 0x89 SWAP5 SWAP4 SWAP3 SWAP2 SWAP1 PUSH2 0x539 JUMP JUMPDEST PUSH1 0x40 MLOAD DUP1 SWAP2 SUB SWAP1 RETURN JUMPDEST CALLVALUE DUP1 ISZERO PUSH2 0x9D JUMPI PUSH0 PUSH0 REVERT JUMPDEST POP PUSH2 0xA6 PUSH2 0x2BE JUMP JUMPDEST PUSH1 0x40 MLOAD PUSH2 0xB3 SWAP2 SWAP1 PUSH2 0x5F3 JUMP JUMPDEST PUSH1 0x40 MLOAD DUP1 SWAP2 SUB SWAP1 RETURN JUMPDEST PUSH32 0x0 PUSH20 0xFFFFFFFFFFFFFFFFFFFFFFFFFFFFFFFFFFFFFFFF AND PUSH4 0x156E29F6 DUP3 PUSH0 CALLVALUE PUSH1 0x40 MLOAD DUP5 PUSH4 0xFFFFFFFF AND PUSH1 0xE0 SHL DUP2 MSTORE PUSH1 0x4 ADD PUSH2 0x119 SWAP4 SWAP3 SWAP2 SWAP1 PUSH2 0x663 JUMP JUMPDEST PUSH0 PUSH1 0x40 MLOAD DUP1 DUP4 SUB DUP2 PUSH0 DUP8 DUP1 EXTCODESIZE ISZERO DUP1 ISZERO PUSH2 0x130 JUMPI PUSH0 PUSH0 REVERT JUMPDEST POP GAS CALL ISZERO DUP1 ISZERO PUSH2 0x142 JUMPI RETURNDATASIZE PUSH0 PUSH0 RETURNDATACOPY RETURNDATASIZE PUSH0 REVERT JUMPDEST POP POP POP POP POP JUMP JUMPDEST PUSH1 0x60 DUP1 PUSH1 0x60 DUP1 PUSH32 0x0 PUSH20 0xFFFFFFFFFFFFFFFFFFFFFFFFFFFFFFFFFFFFFFFF AND CALLER PUSH20 0xFFFFFFFFFFFFFFFFFFFFFFFFFFFFFFFFFFFFFFFF AND EQ PUSH2 0x1D4 JUMPI PUSH1 0x40 MLOAD PUSH32 0x4CA8886700000000000000000000000000000000000000000000000000000000 DUP2 MSTORE PUSH1 0x4 ADD PUSH1 0x40 MLOAD DUP1 SWAP2 SUB SWAP1 REVERT JUMPDEST PUSH0 PUSH0 DUP8 DUP8 DUP2 ADD SWAP1 PUSH2 0x1E5 SWAP2 SWAP1 PUSH2 0x6FD JUMP JUMPDEST SWAP2 POP SWAP2 POP PUSH0 DUP3 PUSH20 0xFFFFFFFFFFFFFFFFFFFFFFFFFFFFFFFFFFFFFFFF AND DUP3 PUSH1 0x40 MLOAD PUSH2 0x20E SWAP1 PUSH2 0x768 JUMP JUMPDEST PUSH0 PUSH1 0x40 MLOAD DUP1 DUP4 SUB DUP2 DUP6 DUP8 GAS CALL SWAP3 POP POP POP RETURNDATASIZE DUP1 PUSH0 DUP2 EQ PUSH2 0x248 JUMPI PUSH1 0x40 MLOAD SWAP2 POP PUSH1 0x1F NOT PUSH1 0x3F RETURNDATASIZE ADD AND DUP3 ADD PUSH1 0x40 MSTORE RETURNDATASIZE DUP3 MSTORE RETURNDATASIZE PUSH0 PUSH1 0x20 DUP5 ADD RETURNDATACOPY PUSH2 0x24D JUMP JUMPDEST PUSH1 0x60 SWAP2 POP JUMPDEST POP POP SWAP1 POP DUP1 PUSH2 0x288 JUMPI PUSH1 0x40 MLOAD PUSH32 0xF4B3B1BC00000000000000000000000000000000000000000000000000000000 DUP2 MSTORE PUSH1 0x4 ADD PUSH1 0x40 MLOAD DUP1 SWAP2 SUB SWAP1 REVERT JUMPDEST PUSH2 0x290 PUSH2 0x2E2 JUMP JUMPDEST PUSH2 0x29A PUSH0 DUP5 PUSH2 0x2E7 JUMP JUMPDEST PUSH2 0x2A2 PUSH2 0x2E2 JUMP JUMPDEST PUSH2 0x2AA PUSH2 0x2E2 JUMP JUMPDEST SWAP7 POP SWAP7 POP SWAP7 POP SWAP7 POP POP POP POP SWAP3 SWAP6 SWAP2 SWAP5 POP SWAP3 POP JUMP JUMPDEST PUSH32 0x0 DUP2 JUMP JUMPDEST PUSH1 0x60 SWAP1 JUMP JUMPDEST PUSH1 0x60 PUSH1 0x40 MLOAD SWAP1 POP PUSH1 0x80 DUP2 ADD PUSH1 0x40 MSTORE PUSH1 0x40 DUP2 ADD PUSH1 0x1 DUP3 MSTORE DUP1 PUSH1 0x20 DUP4 ADD MSTORE DUP4 DUP2 MSTORE DUP3 PUSH1 0x60 DUP4 ADD MSTORE POP SWAP3 SWAP2 POP POP JUMP JUMPDEST PUSH0 PUSH0 REVERT JUMPDEST PUSH0 PUSH0 REVERT JUMPDEST PUSH0 PUSH20 0xFFFFFFFFFFFFFFFFFFFFFFFFFFFFFFFFFFFFFFFF DUP3 AND SWAP1 POP SWAP2 SWAP1 POP JUMP JUMPDEST PUSH0 PUSH2 0x344 DUP3 PUSH2 0x31B JUMP JUMPDEST SWAP1 POP SWAP2 SWAP1 POP JUMP JUMPDEST PUSH2 0x354 DUP2 PUSH2 0x33A JUMP JUMPDEST DUP2 EQ PUSH2 0x35E JUMPI PUSH0 PUSH0 REVERT JUMPDEST POP JUMP JUMPDEST PUSH0 DUP2 CALLDATALOAD SWAP1 POP PUSH2 0x36F DUP2 PUSH2 0x34B JUMP JUMPDEST SWAP3 SWAP2 POP POP JUMP JUMPDEST PUSH0 PUSH1 0x20 DUP3 DUP5 SUB SLT ISZERO PUSH2 0x38A JUMPI PUSH2 0x389 PUSH2 0x313 JUMP JUMPDEST JUMPDEST PUSH0 PUSH2 0x397 DUP5 DUP3 DUP6 ADD PUSH2 0x361 JUMP JUMPDEST SWAP2 POP POP SWAP3 SWAP2 POP POP JUMP JUMPDEST PUSH0 PUSH0 REVERT JUMPDEST PUSH0 PUSH0 REVERT JUMPDEST PUSH0 PUSH0 REVERT JUMPDEST PUSH0 PUSH0 DUP4 PUSH1 0x1F DUP5 ADD SLT PUSH2 0x3C1 JUMPI PUSH2 0x3C0 PUSH2 0x3A0 JUMP JUMPDEST JUMPDEST DUP3 CALLDATALOAD SWAP1 POP PUSH8 0xFFFFFFFFFFFFFFFF DUP2 GT ISZERO PUSH2 0x3DE JUMPI PUSH2 0x3DD PUSH2 0x3A4 JUMP JUMPDEST JUMPDEST PUSH1 0x20 DUP4 ADD SWAP2 POP DUP4 PUSH1 0x1 DUP3 MUL DUP4 ADD GT ISZERO PUSH2 0x3FA JUMPI PUSH2 0x3F9 PUSH2 0x3A8 JUMP JUMPDEST JUMPDEST SWAP3 POP SWAP3 SWAP1 POP JUMP JUMPDEST PUSH0 PUSH0 PUSH1 0x20 DUP4 DUP6 SUB SLT ISZERO PUSH2 0x417 JUMPI PUSH2 0x416 PUSH2 0x313 JUMP JUMPDEST JUMPDEST PUSH0 DUP4 ADD CALLDATALOAD PUSH8 0xFFFFFFFFFFFFFFFF DUP2 GT ISZERO PUSH2 0x434 JUMPI PUSH2 0x433 PUSH2 0x317 JUMP JUMPDEST JUMPDEST PUSH2 0x440 DUP6 DUP3 DUP7 ADD PUSH2 0x3AC JUMP JUMPDEST SWAP3 POP SWAP3 POP POP SWAP3 POP SWAP3 SWAP1 POP JUMP JUMPDEST PUSH0 DUP2 MLOAD SWAP1 POP SWAP2 SWAP1 POP JUMP JUMPDEST PUSH0 DUP3 DUP3 MSTORE PUSH1 0x20 DUP3 ADD SWAP1 POP SWAP3 SWAP2 POP POP JUMP JUMPDEST PUSH0 DUP2 SWAP1 POP PUSH1 0x20 DUP3 ADD SWAP1 POP SWAP2 SWAP1 POP JUMP JUMPDEST PUSH0 DUP2 SWAP1 POP SWAP2 SWAP1 POP JUMP JUMPDEST PUSH2 0x487 DUP2 PUSH2 0x475 JUMP JUMPDEST DUP3 MSTORE POP POP JUMP JUMPDEST PUSH1 0x40 DUP3 ADD PUSH0 DUP3 ADD MLOAD PUSH2 0x4A1 PUSH0 DUP6 ADD DUP3 PUSH2 0x47E JUMP JUMPDEST POP PUSH1 0x20 DUP3 ADD MLOAD PUSH2 0x4B4 PUSH1 0x20 DUP6 ADD DUP3 PUSH2 0x47E JUMP JUMPDEST POP POP POP POP JUMP JUMPDEST PUSH0 PUSH2 0x4C5 DUP4 DUP4 PUSH2 0x48D JUMP JUMPDEST PUSH1 0x40 DUP4 ADD SWAP1 POP SWAP3 SWAP2 POP POP JUMP JUMPDEST PUSH0 PUSH1 0x20 DUP3 ADD SWAP1 POP SWAP2 SWAP1 POP JUMP JUMPDEST PUSH0 PUSH2 0x4E7 DUP3 PUSH2 0x44C JUMP JUMPDEST PUSH2 0x4F1 DUP2 DUP6 PUSH2 0x456 JUMP JUMPDEST SWAP4 POP PUSH2 0x4FC DUP4 PUSH2 0x466 JUMP JUMPDEST DUP1 PUSH0 JUMPDEST DUP4 DUP2 LT ISZERO PUSH2 0x52C JUMPI DUP2 MLOAD PUSH2 0x513 DUP9 DUP3 PUSH2 0x4BA JUMP JUMPDEST SWAP8 POP PUSH2 0x51E DUP4 PUSH2 0x4D1 JUMP JUMPDEST SWAP3 POP POP PUSH1 0x1 DUP2 ADD SWAP1 POP PUSH2 0x4FF JUMP JUMPDEST POP DUP6 SWAP4 POP POP POP POP SWAP3 SWAP2 POP POP JUMP JUMPDEST PUSH0 PUSH1 0x80 DUP3 ADD SWAP1 POP DUP2 DUP2 SUB PUSH0 DUP4 ADD MSTORE PUSH2 0x551 DUP2 DUP8 PUSH2 0x4DD JUMP JUMPDEST SWAP1 POP DUP2 DUP2 SUB PUSH1 0x20 DUP4 ADD MSTORE PUSH2 0x565 DUP2 DUP7 PUSH2 0x4DD JUMP JUMPDEST SWAP1 POP DUP2 DUP2 SUB PUSH1 0x40 DUP4 ADD MSTORE PUSH2 0x579 DUP2 DUP6 PUSH2 0x4DD JUMP JUMPDEST SWAP1 POP DUP2 DUP2 SUB PUSH1 0x60 DUP4 ADD MSTORE PUSH2 0x58D DUP2 DUP5 PUSH2 0x4DD JUMP JUMPDEST SWAP1 POP SWAP6 SWAP5 POP POP POP POP POP JUMP JUMPDEST PUSH0 DUP2 SWAP1 POP SWAP2 SWAP1 POP JUMP JUMPDEST PUSH0 PUSH2 0x5BB PUSH2 0x5B6 PUSH2 0x5B1 DUP5 PUSH2 0x31B JUMP JUMPDEST PUSH2 0x598 JUMP JUMPDEST PUSH2 0x31B JUMP JUMPDEST SWAP1 POP SWAP2 SWAP1 POP JUMP JUMPDEST PUSH0 PUSH2 0x5CC DUP3 PUSH2 0x5A1 JUMP JUMPDEST SWAP1 POP SWAP2 SWAP1 POP JUMP JUMPDEST PUSH0 PUSH2 0x5DD DUP3 PUSH2 0x5C2 JUMP JUMPDEST SWAP1 POP SWAP2 SWAP1 POP JUMP JUMPDEST PUSH2 0x5ED DUP2 PUSH2 0x5D3 JUMP JUMPDEST DUP3 MSTORE POP POP JUMP JUMPDEST PUSH0 PUSH1 0x20 DUP3 ADD SWAP1 POP PUSH2 0x606 PUSH0 DUP4 ADD DUP5 PUSH2 0x5E4 JUMP JUMPDEST SWAP3 SWAP2 POP POP JUMP JUMPDEST PUSH2 0x615 DUP2 PUSH2 0x33A JUMP JUMPDEST DUP3 MSTORE POP POP JUMP JUMPDEST PUSH0 DUP2 SWAP1 POP SWAP2 SWAP1 POP JUMP JUMPDEST PUSH0 PUSH2 0x63E PUSH2 0x639 PUSH2 0x634 DUP5 PUSH2 0x61B JUMP JUMPDEST PUSH2 0x598 JUMP JUMPDEST PUSH2 0x475 JUMP JUMPDEST SWAP1 POP SWAP2 SWAP1 POP JUMP JUMPDEST PUSH2 0x64E DUP2 PUSH2 0x624 JUMP JUMPDEST DUP3 MSTORE POP POP JUMP JUMPDEST PUSH2 0x65D DUP2 PUSH2 0x475 JUMP JUMPDEST DUP3 MSTORE POP POP JUMP JUMPDEST PUSH0 PUSH1 0x60 DUP3 ADD SWAP1 POP PUSH2 0x676 PUSH0 DUP4 ADD DUP7 PUSH2 0x60C JUMP JUMPDEST PUSH2 0x683 PUSH1 0x20 DUP4 ADD DUP6 PUSH2 0x645 JUMP JUMPDEST PUSH2 0x690 PUSH1 0x40 DUP4 ADD DUP5 PUSH2 0x654 JUMP JUMPDEST SWAP5 SWAP4 POP POP POP POP JUMP JUMPDEST PUSH0 PUSH2 0x6A2 DUP3 PUSH2 0x31B JUMP JUMPDEST SWAP1 POP SWAP2 SWAP1 POP JUMP JUMPDEST PUSH2 0x6B2 DUP2 PUSH2 0x698 JUMP JUMPDEST DUP2 EQ PUSH2 0x6BC JUMPI PUSH0 PUSH0 REVERT JUMPDEST POP JUMP JUMPDEST PUSH0 DUP2 CALLDATALOAD SWAP1 POP PUSH2 0x6CD DUP2 PUSH2 0x6A9 JUMP JUMPDEST SWAP3 SWAP2 POP POP JUMP JUMPDEST PUSH2 0x6DC DUP2 PUSH2 0x475 JUMP JUMPDEST DUP2 EQ PUSH2 0x6E6 JUMPI PUSH0 PUSH0 REVERT JUMPDEST POP JUMP JUMPDEST PUSH0 DUP2 CALLDATALOAD SWAP1 POP PUSH2 0x6F7 DUP2 PUSH2 0x6D3 JUMP JUMPDEST SWAP3 SWAP2 POP POP JUMP JUMPDEST PUSH0 PUSH0 PUSH1 0x40 DUP4 DUP6 SUB SLT ISZERO PUSH2 0x713 JUMPI PUSH2 0x712 PUSH2 0x313 JUMP JUMPDEST JUMPDEST PUSH0 PUSH2 0x720 DUP6 DUP3 DUP7 ADD PUSH2 0x6BF JUMP JUMPDEST SWAP3 POP POP PUSH1 0x20 PUSH2 0x731 DUP6 DUP3 DUP7 ADD PUSH2 0x6E9 JUMP JUMPDEST SWAP2 POP POP SWAP3 POP SWAP3 SWAP1 POP JUMP JUMPDEST PUSH0 DUP2 SWAP1 POP SWAP3 SWAP2 POP POP JUMP JUMPDEST POP JUMP JUMPDEST PUSH0 PUSH2 0x753 PUSH0 DUP4 PUSH2 0x73B JUMP JUMPDEST SWAP2 POP PUSH2 0x75E DUP3 PUSH2 0x745 JUMP JUMPDEST PUSH0 DUP3 ADD SWAP1 POP SWAP2 SWAP1 POP JUMP JUMPDEST PUSH0 PUSH2 0x772 DUP3 PUSH2 0x748 JUMP JUMPDEST SWAP2 POP DUP2 SWAP1 POP SWAP2 SWAP1 POP JUMP INVALID LOG2 PUSH5 0x6970667358 0x22 SLT KECCAK256 LOG3 0xF6 0x4C SELFBALANCE 0xFC DIV SWAP4 XOR 0xD5 CALL 0xBD DUP15 KECCAK256 INVALID SIGNEXTEND 0xD0 0xB8 0xE7 0x21 MSTORE PUSH20 0x92E09C77EA1BC6695A0A1A64736F6C634300081C STOP CALLER "
				},
				"gasEstimates": {
					"creation": {
						"codeDepositCost": "394000",
						"executionCost": "infinite",
						"totalCost": "infinite"
					},
					"external": {
						"blueprintManager()": "infinite",
						"executeAction(bytes)": "infinite",
						"mint(address)": "infinite"
					}
				},
				"methodIdentifiers": {
					"blueprintManager()": "fabe109a",
					"executeAction(bytes)": "a129568d",
					"mint(address)": "6a627842"
				}
			},
			"storageLayout": {
				"storage": [],
				"types": null
			},
			"userdoc": {
				"kind": "user",
				"methods": {
					"executeAction(bytes)": {
						"notice": "executes an action in Blueprint"
					}
				},
				"version": 1
			}
		}
	}
}