{
	"src/blueprints/wrappers/ERC20Blueprint.sol": {
		"ERC20Blueprint": {
			"abi": [
				{
					"inputs": [
						{
							"internalType": "contract IBlueprintManager",
							"name": "manager",
							"type": "address"
						}
					],
					"stateMutability": "nonpayable",
					"type": "constructor"
				},
				{
					"inputs": [],
					"name": "AccessDenied",
					"type": "error"
				},
				{
					"inputs": [],
					"name": "BalanceOverflow",
					"type": "error"
				},
				{
					"inputs": [],
					"name": "ReentrantDeposit",
					"type": "error"
				},
				{
					"inputs": [],
					"name": "blueprintManager",
					"outputs": [
						{
							"internalType": "contract IBlueprintManager",
							"name": "",
							"type": "address"
						}
					],
					"stateMutability": "view",
					"type": "function"
				},
				{
					"inputs": [
						{
							"internalType": "address",
							"name": "erc20",
							"type": "address"
						},
						{
							"internalType": "address",
							"name": "to",
							"type": "address"
						},
						{
							"internalType": "uint256",
							"name": "amount",
							"type": "uint256"
						}
					],
					"name": "deposit",
					"outputs": [
						{
							"internalType": "uint256",
							"name": "deposited",
							"type": "uint256"
						}
					],
					"stateMutability": "nonpayable",
					"type": "function"
				},
				{
					"inputs": [
						{
							"internalType": "address",
							"name": "erc20",
							"type": "address"
						},
						{
							"internalType": "address",
							"name": "callback",
							"type": "address"
						},
						{
							"internalType": "bytes",
							"name": "callbackData",
							"type": "bytes"
						}
					],
					"name": "depositWithCallback",
					"outputs": [
						{
							"internalType": "uint256",
							"name": "deposited",
							"type": "uint256"
						}
					],
					"stateMutability": "nonpayable",
					"type": "function"
				},
				{
					"inputs": [
						{
							"internalType": "bytes",
							"name": "action",
							"type": "bytes"
						}
					],
					"name": "executeAction",
					"outputs": [
						{
							"components": [
								{
									"internalType": "uint256",
									"name": "tokenId",
									"type": "uint256"
								},
								{
									"internalType": "uint256",
									"name": "amount",
									"type": "uint256"
								}
							],
							"internalType": "struct TokenOp[]",
							"name": "",
							"type": "tuple[]"
						},
						{
							"components": [
								{
									"internalType": "uint256",
									"name": "tokenId",
									"type": "uint256"
								},
								{
									"internalType": "uint256",
									"name": "amount",
									"type": "uint256"
								}
							],
							"internalType": "struct TokenOp[]",
							"name": "",
							"type": "tuple[]"
						},
						{
							"components": [
								{
									"internalType": "uint256",
									"name": "tokenId",
									"type": "uint256"
								},
								{
									"internalType": "uint256",
									"name": "amount",
									"type": "uint256"
								}
							],
							"internalType": "struct TokenOp[]",
							"name": "",
							"type": "tuple[]"
						},
						{
							"components": [
								{
									"internalType": "uint256",
									"name": "tokenId",
									"type": "uint256"
								},
								{
									"internalType": "uint256",
									"name": "amount",
									"type": "uint256"
								}
							],
							"internalType": "struct TokenOp[]",
							"name": "",
							"type": "tuple[]"
						}
					],
					"stateMutability": "nonpayable",
					"type": "function"
				},
				{
					"inputs": [
						{
							"internalType": "address",
							"name": "erc20",
							"type": "address"
						},
						{
							"internalType": "address",
							"name": "to",
							"type": "address"
						},
						{
							"internalType": "uint256",
							"name": "amount",
							"type": "uint256"
						},
						{
							"internalType": "address",
							"name": "owner",
							"type": "address"
						},
						{
							"internalType": "uint256",
							"name": "deadline",
							"type": "uint256"
						},
						{
							"internalType": "uint8",
							"name": "v",
							"type": "uint8"
						},
						{
							"internalType": "bytes32",
							"name": "r",
							"type": "bytes32"
						},
						{
							"internalType": "bytes32",
							"name": "s",
							"type": "bytes32"
						}
					],
					"name": "permitDeposit",
					"outputs": [
						{
							"internalType": "uint256",
							"name": "deposited",
							"type": "uint256"
						}
					],
					"stateMutability": "nonpayable",
					"type": "function"
				},
				{
					"inputs": [],
					"name": "setERC1820Registry",
					"outputs": [],
					"stateMutability": "nonpayable",
					"type": "function"
				},
				{
					"inputs": [
						{
							"internalType": "address",
							"name": "operator",
							"type": "address"
						},
						{
							"internalType": "address",
							"name": "from",
							"type": "address"
						},
						{
							"internalType": "address",
							"name": "to",
							"type": "address"
						},
						{
							"internalType": "uint256",
							"name": "amount",
							"type": "uint256"
						},
						{
							"internalType": "bytes",
							"name": "data",
							"type": "bytes"
						},
						{
							"internalType": "bytes",
							"name": "",
							"type": "bytes"
						}
					],
					"name": "tokensReceived",
					"outputs": [],
					"stateMutability": "nonpayable",
					"type": "function"
				}
			],
			"devdoc": {
				"kind": "dev",
				"methods": {
					"executeAction(bytes)": {
						"params": {
							"action": "a description of the action being taken"
						}
					}
				},
				"version": 1
			},
			"evm": {
				"assembly": "    /* \"src/blueprints/wrappers/ERC20Blueprint.sol\":460:4214  contract ERC20Blueprint is BasicBlueprint {... */\n  mstore(0x40, 0xa0)\n    /* \"src/blueprints/wrappers/ERC20Blueprint.sol\":642:707  constructor(IBlueprintManager manager) BasicBlueprint(manager) {} */\n  callvalue\n  dup1\n  iszero\n  tag_1\n  jumpi\n  revert(0x00, 0x00)\ntag_1:\n  pop\n  mload(0x40)\n  sub(codesize, bytecodeSize)\n  dup1\n  bytecodeSize\n  dup4\n  codecopy\n  dup2\n  dup2\n  add\n  0x40\n  mstore\n  dup2\n  add\n  swap1\n  tag_2\n  swap2\n  swap1\n  tag_3\n  jump\t// in\ntag_2:\n    /* \"src/blueprints/wrappers/ERC20Blueprint.sol\":696:703  manager */\n  dup1\n    /* \"src/blueprints/BasicBlueprint.sol\":403:420  _blueprintManager */\n  dup1\n    /* \"src/blueprints/BasicBlueprint.sol\":384:420  blueprintManager = _blueprintManager */\n  0xffffffffffffffffffffffffffffffffffffffff\n  and\n  0x80\n  dup2\n  0xffffffffffffffffffffffffffffffffffffffff\n  and\n  dup2\n  mstore\n  pop\n  pop\n    /* \"src/blueprints/BasicBlueprint.sol\":331:424  constructor(IBlueprintManager _blueprintManager) {... */\n  pop\n    /* \"src/blueprints/wrappers/ERC20Blueprint.sol\":642:707  constructor(IBlueprintManager manager) BasicBlueprint(manager) {} */\n  pop\n    /* \"src/blueprints/wrappers/ERC20Blueprint.sol\":460:4214  contract ERC20Blueprint is BasicBlueprint {... */\n  jump(tag_8)\n    /* \"#utility.yul\":88:205   */\ntag_10:\n    /* \"#utility.yul\":197:198   */\n  0x00\n    /* \"#utility.yul\":194:195   */\n  0x00\n    /* \"#utility.yul\":187:199   */\n  revert\n    /* \"#utility.yul\":334:460   */\ntag_12:\n    /* \"#utility.yul\":371:378   */\n  0x00\n    /* \"#utility.yul\":411:453   */\n  0xffffffffffffffffffffffffffffffffffffffff\n    /* \"#utility.yul\":404:409   */\n  dup3\n    /* \"#utility.yul\":400:454   */\n  and\n    /* \"#utility.yul\":389:454   */\n  swap1\n  pop\n    /* \"#utility.yul\":334:460   */\n  swap2\n  swap1\n  pop\n  jump\t// out\n    /* \"#utility.yul\":466:562   */\ntag_13:\n    /* \"#utility.yul\":503:510   */\n  0x00\n    /* \"#utility.yul\":532:556   */\n  tag_23\n    /* \"#utility.yul\":550:555   */\n  dup3\n    /* \"#utility.yul\":532:556   */\n  tag_12\n  jump\t// in\ntag_23:\n    /* \"#utility.yul\":521:556   */\n  swap1\n  pop\n    /* \"#utility.yul\":466:562   */\n  swap2\n  swap1\n  pop\n  jump\t// out\n    /* \"#utility.yul\":568:690   */\ntag_14:\n    /* \"#utility.yul\":631:638   */\n  0x00\n    /* \"#utility.yul\":660:684   */\n  tag_25\n    /* \"#utility.yul\":678:683   */\n  dup3\n    /* \"#utility.yul\":660:684   */\n  tag_13\n  jump\t// in\ntag_25:\n    /* \"#utility.yul\":649:684   */\n  swap1\n  pop\n    /* \"#utility.yul\":568:690   */\n  swap2\n  swap1\n  pop\n  jump\t// out\n    /* \"#utility.yul\":696:870   */\ntag_15:\n    /* \"#utility.yul\":795:845   */\n  tag_27\n    /* \"#utility.yul\":839:844   */\n  dup2\n    /* \"#utility.yul\":795:845   */\n  tag_14\n  jump\t// in\ntag_27:\n    /* \"#utility.yul\":788:793   */\n  dup2\n    /* \"#utility.yul\":785:846   */\n  eq\n    /* \"#utility.yul\":775:864   */\n  tag_28\n  jumpi\n    /* \"#utility.yul\":860:861   */\n  0x00\n    /* \"#utility.yul\":857:858   */\n  0x00\n    /* \"#utility.yul\":850:862   */\n  revert\n    /* \"#utility.yul\":775:864   */\ntag_28:\n    /* \"#utility.yul\":696:870   */\n  pop\n  jump\t// out\n    /* \"#utility.yul\":876:1071   */\ntag_16:\n    /* \"#utility.yul\":959:964   */\n  0x00\n    /* \"#utility.yul\":990:996   */\n  dup2\n    /* \"#utility.yul\":984:997   */\n  mload\n    /* \"#utility.yul\":975:997   */\n  swap1\n  pop\n    /* \"#utility.yul\":1006:1065   */\n  tag_30\n    /* \"#utility.yul\":1059:1064   */\n  dup2\n    /* \"#utility.yul\":1006:1065   */\n  tag_15\n  jump\t// in\ntag_30:\n    /* \"#utility.yul\":876:1071   */\n  swap3\n  swap2\n  pop\n  pop\n  jump\t// out\n    /* \"#utility.yul\":1077:1480   */\ntag_3:\n    /* \"#utility.yul\":1173:1179   */\n  0x00\n    /* \"#utility.yul\":1222:1224   */\n  0x20\n    /* \"#utility.yul\":1210:1219   */\n  dup3\n    /* \"#utility.yul\":1201:1208   */\n  dup5\n    /* \"#utility.yul\":1197:1220   */\n  sub\n    /* \"#utility.yul\":1193:1225   */\n  slt\n    /* \"#utility.yul\":1190:1309   */\n  iszero\n  tag_32\n  jumpi\n    /* \"#utility.yul\":1228:1307   */\n  tag_33\n  tag_10\n  jump\t// in\ntag_33:\n    /* \"#utility.yul\":1190:1309   */\ntag_32:\n    /* \"#utility.yul\":1348:1349   */\n  0x00\n    /* \"#utility.yul\":1373:1463   */\n  tag_34\n    /* \"#utility.yul\":1455:1462   */\n  dup5\n    /* \"#utility.yul\":1446:1452   */\n  dup3\n    /* \"#utility.yul\":1435:1444   */\n  dup6\n    /* \"#utility.yul\":1431:1453   */\n  add\n    /* \"#utility.yul\":1373:1463   */\n  tag_16\n  jump\t// in\ntag_34:\n    /* \"#utility.yul\":1363:1463   */\n  swap2\n  pop\n    /* \"#utility.yul\":1319:1473   */\n  pop\n    /* \"#utility.yul\":1077:1480   */\n  swap3\n  swap2\n  pop\n  pop\n  jump\t// out\n    /* \"src/blueprints/wrappers/ERC20Blueprint.sol\":460:4214  contract ERC20Blueprint is BasicBlueprint {... */\ntag_8:\n  mload(0x80)\n  codecopy(0x00, dataOffset(sub_0), dataSize(sub_0))\n  0x00\n  assignImmutable(\"0xe96cc20f241c05b09b05be99fa40d483e0c60480c24cfabd29fea373217f3b30\")\n  return(0x00, dataSize(sub_0))\nstop\n\nsub_0: assembly {\n        /* \"src/blueprints/wrappers/ERC20Blueprint.sol\":460:4214  contract ERC20Blueprint is BasicBlueprint {... */\n      mstore(0x40, 0x80)\n      callvalue\n      dup1\n      iszero\n      tag_1\n      jumpi\n      revert(0x00, 0x00)\n    tag_1:\n      pop\n      jumpi(tag_2, lt(calldatasize, 0x04))\n      shr(0xe0, calldataload(0x00))\n      dup1\n      0x8340f549\n      gt\n      tag_10\n      jumpi\n      dup1\n      0x8340f549\n      eq\n      tag_6\n      jumpi\n      dup1\n      0xa129568d\n      eq\n      tag_7\n      jumpi\n      dup1\n      0xe80aed81\n      eq\n      tag_8\n      jumpi\n      dup1\n      0xfabe109a\n      eq\n      tag_9\n      jumpi\n      jump(tag_2)\n    tag_10:\n      dup1\n      0x23de29\n      eq\n      tag_3\n      jumpi\n      dup1\n      0x035c833a\n      eq\n      tag_4\n      jumpi\n      dup1\n      0x50e43439\n      eq\n      tag_5\n      jumpi\n    tag_2:\n      revert(0x00, 0x00)\n        /* \"src/blueprints/wrappers/ERC20Blueprint.sol\":1175:1928  function tokensReceived(... */\n    tag_3:\n      tag_11\n      0x04\n      dup1\n      calldatasize\n      sub\n      dup2\n      add\n      swap1\n      tag_12\n      swap2\n      swap1\n      tag_13\n      jump\t// in\n    tag_12:\n      tag_14\n      jump\t// in\n    tag_11:\n      stop\n        /* \"src/blueprints/wrappers/ERC20Blueprint.sol\":2085:2462  function permitDeposit(... */\n    tag_4:\n      tag_15\n      0x04\n      dup1\n      calldatasize\n      sub\n      dup2\n      add\n      swap1\n      tag_16\n      swap2\n      swap1\n      tag_17\n      jump\t// in\n    tag_16:\n      tag_18\n      jump\t// in\n    tag_15:\n      mload(0x40)\n      tag_19\n      swap2\n      swap1\n      tag_20\n      jump\t// in\n    tag_19:\n      mload(0x40)\n      dup1\n      swap2\n      sub\n      swap1\n      return\n        /* \"src/blueprints/wrappers/ERC20Blueprint.sol\":4036:4212  function setERC1820Registry() external {... */\n    tag_5:\n      tag_21\n      tag_22\n      jump\t// in\n    tag_21:\n      stop\n        /* \"src/blueprints/wrappers/ERC20Blueprint.sol\":1931:2082  function deposit(address erc20, address to, uint256 amount) external returns (uint256 deposited) {... */\n    tag_6:\n      tag_23\n      0x04\n      dup1\n      calldatasize\n      sub\n      dup2\n      add\n      swap1\n      tag_24\n      swap2\n      swap1\n      tag_25\n      jump\t// in\n    tag_24:\n      tag_26\n      jump\t// in\n    tag_23:\n      mload(0x40)\n      tag_27\n      swap2\n      swap1\n      tag_20\n      jump\t// in\n    tag_27:\n      mload(0x40)\n      dup1\n      swap2\n      sub\n      swap1\n      return\n        /* \"src/blueprints/wrappers/ERC20Blueprint.sol\":710:1172  function executeAction(bytes calldata action) external onlyManager returns (... */\n    tag_7:\n      tag_28\n      0x04\n      dup1\n      calldatasize\n      sub\n      dup2\n      add\n      swap1\n      tag_29\n      swap2\n      swap1\n      tag_30\n      jump\t// in\n    tag_29:\n      tag_31\n      jump\t// in\n    tag_28:\n      mload(0x40)\n      tag_32\n      swap5\n      swap4\n      swap3\n      swap2\n      swap1\n      tag_33\n      jump\t// in\n    tag_32:\n      mload(0x40)\n      dup1\n      swap2\n      sub\n      swap1\n      return\n        /* \"src/blueprints/wrappers/ERC20Blueprint.sol\":2465:2757  function depositWithCallback(... */\n    tag_8:\n      tag_34\n      0x04\n      dup1\n      calldatasize\n      sub\n      dup2\n      add\n      swap1\n      tag_35\n      swap2\n      swap1\n      tag_36\n      jump\t// in\n    tag_35:\n      tag_37\n      jump\t// in\n    tag_34:\n      mload(0x40)\n      tag_38\n      swap2\n      swap1\n      tag_20\n      jump\t// in\n    tag_38:\n      mload(0x40)\n      dup1\n      swap2\n      sub\n      swap1\n      return\n        /* \"src/blueprints/BasicBlueprint.sol\":252:303  IBlueprintManager immutable public blueprintManager */\n    tag_9:\n      tag_39\n      tag_40\n      jump\t// in\n    tag_39:\n      mload(0x40)\n      tag_41\n      swap2\n      swap1\n      tag_42\n      jump\t// in\n    tag_41:\n      mload(0x40)\n      dup1\n      swap2\n      sub\n      swap1\n      return\n        /* \"src/blueprints/wrappers/ERC20Blueprint.sol\":1175:1928  function tokensReceived(... */\n    tag_14:\n        /* \"src/blueprints/wrappers/ERC20Blueprint.sol\":1477:1481  this */\n      address\n        /* \"src/blueprints/wrappers/ERC20Blueprint.sol\":1457:1482  operator != address(this) */\n      0xffffffffffffffffffffffffffffffffffffffff\n      and\n        /* \"src/blueprints/wrappers/ERC20Blueprint.sol\":1457:1465  operator */\n      dup9\n        /* \"src/blueprints/wrappers/ERC20Blueprint.sol\":1457:1482  operator != address(this) */\n      0xffffffffffffffffffffffffffffffffffffffff\n      and\n      eq\n      iszero\n        /* \"src/blueprints/wrappers/ERC20Blueprint.sol\":1457:1505  operator != address(this) && to == address(this) */\n      dup1\n      iszero\n      tag_44\n      jumpi\n      pop\n        /* \"src/blueprints/wrappers/ERC20Blueprint.sol\":1500:1504  this */\n      address\n        /* \"src/blueprints/wrappers/ERC20Blueprint.sol\":1486:1505  to == address(this) */\n      0xffffffffffffffffffffffffffffffffffffffff\n      and\n        /* \"src/blueprints/wrappers/ERC20Blueprint.sol\":1486:1488  to */\n      dup7\n        /* \"src/blueprints/wrappers/ERC20Blueprint.sol\":1486:1505  to == address(this) */\n      0xffffffffffffffffffffffffffffffffffffffff\n      and\n      eq\n        /* \"src/blueprints/wrappers/ERC20Blueprint.sol\":1457:1505  operator != address(this) && to == address(this) */\n    tag_44:\n        /* \"src/blueprints/wrappers/ERC20Blueprint.sol\":1453:1925  if (operator != address(this) && to == address(this)) {... */\n      iszero\n      tag_45\n      jumpi\n        /* \"src/blueprints/wrappers/ERC20Blueprint.sol\":1512:1532  uint256 savedBalance */\n      0x00\n        /* \"src/blueprints/wrappers/ERC20Blueprint.sol\":1535:1563  _getSavedBalance(msg.sender) */\n      tag_46\n        /* \"src/blueprints/wrappers/ERC20Blueprint.sol\":1552:1562  msg.sender */\n      caller\n        /* \"src/blueprints/wrappers/ERC20Blueprint.sol\":1535:1551  _getSavedBalance */\n      tag_47\n        /* \"src/blueprints/wrappers/ERC20Blueprint.sol\":1535:1563  _getSavedBalance(msg.sender) */\n      jump\t// in\n    tag_46:\n        /* \"src/blueprints/wrappers/ERC20Blueprint.sol\":1512:1563  uint256 savedBalance = _getSavedBalance(msg.sender) */\n      swap1\n      pop\n        /* \"src/blueprints/wrappers/ERC20Blueprint.sol\":1642:1659  type(uint256).max */\n      0xffffffffffffffffffffffffffffffffffffffffffffffffffffffffffffffff\n        /* \"src/blueprints/wrappers/ERC20Blueprint.sol\":1626:1638  savedBalance */\n      dup2\n        /* \"src/blueprints/wrappers/ERC20Blueprint.sol\":1626:1659  savedBalance != type(uint256).max */\n      eq\n        /* \"src/blueprints/wrappers/ERC20Blueprint.sol\":1622:1712  if (savedBalance != type(uint256).max)... */\n      tag_48\n      jumpi\n        /* \"src/blueprints/wrappers/ERC20Blueprint.sol\":1665:1712  _saveBalance(msg.sender, savedBalance + amount) */\n      tag_49\n        /* \"src/blueprints/wrappers/ERC20Blueprint.sol\":1678:1688  msg.sender */\n      caller\n        /* \"src/blueprints/wrappers/ERC20Blueprint.sol\":1705:1711  amount */\n      dup8\n        /* \"src/blueprints/wrappers/ERC20Blueprint.sol\":1690:1702  savedBalance */\n      dup4\n        /* \"src/blueprints/wrappers/ERC20Blueprint.sol\":1690:1711  savedBalance + amount */\n      tag_50\n      swap2\n      swap1\n      tag_51\n      jump\t// in\n    tag_50:\n        /* \"src/blueprints/wrappers/ERC20Blueprint.sol\":1665:1677  _saveBalance */\n      tag_52\n        /* \"src/blueprints/wrappers/ERC20Blueprint.sol\":1665:1712  _saveBalance(msg.sender, savedBalance + amount) */\n      jump\t// in\n    tag_49:\n        /* \"src/blueprints/wrappers/ERC20Blueprint.sol\":1622:1712  if (savedBalance != type(uint256).max)... */\n    tag_48:\n        /* \"src/blueprints/wrappers/ERC20Blueprint.sol\":1805:1807  32 */\n      0x20\n        /* \"src/blueprints/wrappers/ERC20Blueprint.sol\":1790:1794  data */\n      dup6\n      dup6\n        /* \"src/blueprints/wrappers/ERC20Blueprint.sol\":1790:1801  data.length */\n      swap1\n      pop\n        /* \"src/blueprints/wrappers/ERC20Blueprint.sol\":1790:1807  data.length == 32 */\n      sub\n        /* \"src/blueprints/wrappers/ERC20Blueprint.sol\":1786:1849  if (data.length == 32)... */\n      tag_53\n      jumpi\n        /* \"src/blueprints/wrappers/ERC20Blueprint.sol\":1833:1837  data */\n      dup5\n      dup5\n        /* \"src/blueprints/wrappers/ERC20Blueprint.sol\":1822:1849  abi.decode(data, (address)) */\n      dup2\n      add\n      swap1\n      tag_54\n      swap2\n      swap1\n      tag_55\n      jump\t// in\n    tag_54:\n        /* \"src/blueprints/wrappers/ERC20Blueprint.sol\":1813:1849  (from) = abi.decode(data, (address)) */\n      swap8\n      pop\n        /* \"src/blueprints/wrappers/ERC20Blueprint.sol\":1786:1849  if (data.length == 32)... */\n    tag_53:\n        /* \"src/blueprints/wrappers/ERC20Blueprint.sol\":1855:1871  blueprintManager */\n      immutable(\"0xe96cc20f241c05b09b05be99fa40d483e0c60480c24cfabd29fea373217f3b30\")\n        /* \"src/blueprints/wrappers/ERC20Blueprint.sol\":1855:1876  blueprintManager.mint */\n      0xffffffffffffffffffffffffffffffffffffffff\n      and\n      0x156e29f6\n        /* \"src/blueprints/wrappers/ERC20Blueprint.sol\":1877:1881  from */\n      dup10\n        /* \"src/blueprints/wrappers/ERC20Blueprint.sol\":1899:1909  msg.sender */\n      caller\n        /* \"src/blueprints/wrappers/ERC20Blueprint.sol\":1883:1911  uint256(uint160(msg.sender)) */\n      0xffffffffffffffffffffffffffffffffffffffff\n      and\n        /* \"src/blueprints/wrappers/ERC20Blueprint.sol\":1913:1919  amount */\n      dup10\n        /* \"src/blueprints/wrappers/ERC20Blueprint.sol\":1855:1920  blueprintManager.mint(from, uint256(uint160(msg.sender)), amount) */\n      mload(0x40)\n      dup5\n      0xffffffff\n      and\n      0xe0\n      shl\n      dup2\n      mstore\n      0x04\n      add\n      tag_56\n      swap4\n      swap3\n      swap2\n      swap1\n      tag_57\n      jump\t// in\n    tag_56:\n      0x00\n      mload(0x40)\n      dup1\n      dup4\n      sub\n      dup2\n      0x00\n      dup8\n      dup1\n      extcodesize\n      iszero\n      dup1\n      iszero\n      tag_58\n      jumpi\n      revert(0x00, 0x00)\n    tag_58:\n      pop\n      gas\n      call\n      iszero\n      dup1\n      iszero\n      tag_60\n      jumpi\n      returndatacopy(0x00, 0x00, returndatasize)\n      revert(0x00, returndatasize)\n    tag_60:\n      pop\n      pop\n      pop\n      pop\n        /* \"src/blueprints/wrappers/ERC20Blueprint.sol\":1507:1925  {... */\n      pop\n        /* \"src/blueprints/wrappers/ERC20Blueprint.sol\":1453:1925  if (operator != address(this) && to == address(this)) {... */\n    tag_45:\n        /* \"src/blueprints/wrappers/ERC20Blueprint.sol\":1175:1928  function tokensReceived(... */\n      pop\n      pop\n      pop\n      pop\n      pop\n      pop\n      pop\n      pop\n      jump\t// out\n        /* \"src/blueprints/wrappers/ERC20Blueprint.sol\":2085:2462  function permitDeposit(... */\n    tag_18:\n        /* \"src/blueprints/wrappers/ERC20Blueprint.sol\":2252:2269  uint256 deposited */\n      0x00\n        /* \"src/blueprints/wrappers/ERC20Blueprint.sol\":2288:2290  to */\n      dup8\n        /* \"src/blueprints/wrappers/ERC20Blueprint.sol\":2279:2290  owner != to */\n      0xffffffffffffffffffffffffffffffffffffffff\n      and\n        /* \"src/blueprints/wrappers/ERC20Blueprint.sol\":2279:2284  owner */\n      dup7\n        /* \"src/blueprints/wrappers/ERC20Blueprint.sol\":2279:2290  owner != to */\n      0xffffffffffffffffffffffffffffffffffffffff\n      and\n      eq\n      iszero\n        /* \"src/blueprints/wrappers/ERC20Blueprint.sol\":2279:2313  owner != to && owner != msg.sender */\n      dup1\n      iszero\n      tag_62\n      jumpi\n      pop\n        /* \"src/blueprints/wrappers/ERC20Blueprint.sol\":2303:2313  msg.sender */\n      caller\n        /* \"src/blueprints/wrappers/ERC20Blueprint.sol\":2294:2313  owner != msg.sender */\n      0xffffffffffffffffffffffffffffffffffffffff\n      and\n        /* \"src/blueprints/wrappers/ERC20Blueprint.sol\":2294:2299  owner */\n      dup7\n        /* \"src/blueprints/wrappers/ERC20Blueprint.sol\":2294:2313  owner != msg.sender */\n      0xffffffffffffffffffffffffffffffffffffffff\n      and\n      eq\n      iszero\n        /* \"src/blueprints/wrappers/ERC20Blueprint.sol\":2279:2313  owner != to && owner != msg.sender */\n    tag_62:\n        /* \"src/blueprints/wrappers/ERC20Blueprint.sol\":2275:2339  if (owner != to && owner != msg.sender)... */\n      iszero\n      tag_63\n      jumpi\n        /* \"src/blueprints/wrappers/ERC20Blueprint.sol\":2325:2339  AccessDenied() */\n      mload(0x40)\n      0x4ca8886700000000000000000000000000000000000000000000000000000000\n      dup2\n      mstore\n      0x04\n      add\n      mload(0x40)\n      dup1\n      swap2\n      sub\n      swap1\n      revert\n        /* \"src/blueprints/wrappers/ERC20Blueprint.sol\":2275:2339  if (owner != to && owner != msg.sender)... */\n    tag_63:\n        /* \"src/blueprints/wrappers/ERC20Blueprint.sol\":2350:2355  erc20 */\n      dup9\n        /* \"src/blueprints/wrappers/ERC20Blueprint.sol\":2344:2363  ERC20(erc20).permit */\n      0xffffffffffffffffffffffffffffffffffffffff\n      and\n      0xd505accf\n        /* \"src/blueprints/wrappers/ERC20Blueprint.sol\":2364:2369  owner */\n      dup8\n        /* \"src/blueprints/wrappers/ERC20Blueprint.sol\":2379:2383  this */\n      address\n        /* \"src/blueprints/wrappers/ERC20Blueprint.sol\":2386:2392  amount */\n      dup11\n        /* \"src/blueprints/wrappers/ERC20Blueprint.sol\":2394:2402  deadline */\n      dup10\n        /* \"src/blueprints/wrappers/ERC20Blueprint.sol\":2404:2405  v */\n      dup10\n        /* \"src/blueprints/wrappers/ERC20Blueprint.sol\":2407:2408  r */\n      dup10\n        /* \"src/blueprints/wrappers/ERC20Blueprint.sol\":2410:2411  s */\n      dup10\n        /* \"src/blueprints/wrappers/ERC20Blueprint.sol\":2344:2412  ERC20(erc20).permit(owner, address(this), amount, deadline, v, r, s) */\n      mload(0x40)\n      dup9\n      0xffffffff\n      and\n      0xe0\n      shl\n      dup2\n      mstore\n      0x04\n      add\n      tag_64\n      swap8\n      swap7\n      swap6\n      swap5\n      swap4\n      swap3\n      swap2\n      swap1\n      tag_65\n      jump\t// in\n    tag_64:\n      0x00\n      mload(0x40)\n      dup1\n      dup4\n      sub\n      dup2\n      0x00\n      dup8\n      dup1\n      extcodesize\n      iszero\n      dup1\n      iszero\n      tag_66\n      jumpi\n      revert(0x00, 0x00)\n    tag_66:\n      pop\n      gas\n      call\n      iszero\n      dup1\n      iszero\n      tag_68\n      jumpi\n      returndatacopy(0x00, 0x00, returndatasize)\n      revert(0x00, returndatasize)\n    tag_68:\n      pop\n      pop\n      pop\n      pop\n        /* \"src/blueprints/wrappers/ERC20Blueprint.sol\":2424:2458  _deposit(erc20, owner, to, amount) */\n      tag_69\n        /* \"src/blueprints/wrappers/ERC20Blueprint.sol\":2433:2438  erc20 */\n      dup10\n        /* \"src/blueprints/wrappers/ERC20Blueprint.sol\":2440:2445  owner */\n      dup8\n        /* \"src/blueprints/wrappers/ERC20Blueprint.sol\":2447:2449  to */\n      dup11\n        /* \"src/blueprints/wrappers/ERC20Blueprint.sol\":2451:2457  amount */\n      dup11\n        /* \"src/blueprints/wrappers/ERC20Blueprint.sol\":2424:2432  _deposit */\n      tag_70\n        /* \"src/blueprints/wrappers/ERC20Blueprint.sol\":2424:2458  _deposit(erc20, owner, to, amount) */\n      jump\t// in\n    tag_69:\n        /* \"src/blueprints/wrappers/ERC20Blueprint.sol\":2417:2458  return _deposit(erc20, owner, to, amount) */\n      swap1\n      pop\n        /* \"src/blueprints/wrappers/ERC20Blueprint.sol\":2085:2462  function permitDeposit(... */\n      swap9\n      swap8\n      pop\n      pop\n      pop\n      pop\n      pop\n      pop\n      pop\n      pop\n      jump\t// out\n        /* \"src/blueprints/wrappers/ERC20Blueprint.sol\":4036:4212  function setERC1820Registry() external {... */\n    tag_22:\n        /* \"src/blueprints/wrappers/ERC20Blueprint.sol\":596:638  0x1820a4B7618BdE71Dce8cdc73aAB6C95905faD24 */\n      0x1820a4b7618bde71dce8cdc73aab6c95905fad24\n        /* \"src/blueprints/wrappers/ERC20Blueprint.sol\":4079:4129  IERC1820Registry(registry).setInterfaceImplementer */\n      0xffffffffffffffffffffffffffffffffffffffff\n      and\n      0x29965a1d\n        /* \"src/blueprints/wrappers/ERC20Blueprint.sol\":4142:4146  this */\n      address\n        /* \"src/blueprints/wrappers/ERC20Blueprint.sol\":4152:4186  keccak256(\"ERC777TokensRecipient\") */\n      0xb281fc8c12954d22544db45de3159a39272895b169a852b314f9cc762e44c53b\n        /* \"src/blueprints/wrappers/ERC20Blueprint.sol\":4199:4203  this */\n      address\n        /* \"src/blueprints/wrappers/ERC20Blueprint.sol\":4079:4208  IERC1820Registry(registry).setInterfaceImplementer(... */\n      mload(0x40)\n      dup5\n      0xffffffff\n      and\n      0xe0\n      shl\n      dup2\n      mstore\n      0x04\n      add\n      tag_72\n      swap4\n      swap3\n      swap2\n      swap1\n      tag_73\n      jump\t// in\n    tag_72:\n      0x00\n      mload(0x40)\n      dup1\n      dup4\n      sub\n      dup2\n      0x00\n      dup8\n      dup1\n      extcodesize\n      iszero\n      dup1\n      iszero\n      tag_74\n      jumpi\n      revert(0x00, 0x00)\n    tag_74:\n      pop\n      gas\n      call\n      iszero\n      dup1\n      iszero\n      tag_76\n      jumpi\n      returndatacopy(0x00, 0x00, returndatasize)\n      revert(0x00, returndatasize)\n    tag_76:\n      pop\n      pop\n      pop\n      pop\n        /* \"src/blueprints/wrappers/ERC20Blueprint.sol\":4036:4212  function setERC1820Registry() external {... */\n      jump\t// out\n        /* \"src/blueprints/wrappers/ERC20Blueprint.sol\":1931:2082  function deposit(address erc20, address to, uint256 amount) external returns (uint256 deposited) {... */\n    tag_26:\n        /* \"src/blueprints/wrappers/ERC20Blueprint.sol\":2009:2026  uint256 deposited */\n      0x00\n        /* \"src/blueprints/wrappers/ERC20Blueprint.sol\":2039:2078  _deposit(erc20, msg.sender, to, amount) */\n      tag_78\n        /* \"src/blueprints/wrappers/ERC20Blueprint.sol\":2048:2053  erc20 */\n      dup5\n        /* \"src/blueprints/wrappers/ERC20Blueprint.sol\":2055:2065  msg.sender */\n      caller\n        /* \"src/blueprints/wrappers/ERC20Blueprint.sol\":2067:2069  to */\n      dup6\n        /* \"src/blueprints/wrappers/ERC20Blueprint.sol\":2071:2077  amount */\n      dup6\n        /* \"src/blueprints/wrappers/ERC20Blueprint.sol\":2039:2047  _deposit */\n      tag_70\n        /* \"src/blueprints/wrappers/ERC20Blueprint.sol\":2039:2078  _deposit(erc20, msg.sender, to, amount) */\n      jump\t// in\n    tag_78:\n        /* \"src/blueprints/wrappers/ERC20Blueprint.sol\":2032:2078  return _deposit(erc20, msg.sender, to, amount) */\n      swap1\n      pop\n        /* \"src/blueprints/wrappers/ERC20Blueprint.sol\":1931:2082  function deposit(address erc20, address to, uint256 amount) external returns (uint256 deposited) {... */\n      swap4\n      swap3\n      pop\n      pop\n      pop\n      jump\t// out\n        /* \"src/blueprints/wrappers/ERC20Blueprint.sol\":710:1172  function executeAction(bytes calldata action) external onlyManager returns (... */\n    tag_31:\n        /* \"src/blueprints/wrappers/ERC20Blueprint.sol\":789:805  TokenOp[] memory */\n      0x60\n        /* \"src/blueprints/wrappers/ERC20Blueprint.sol\":818:834  TokenOp[] memory */\n      dup1\n        /* \"src/blueprints/wrappers/ERC20Blueprint.sol\":847:863  TokenOp[] memory */\n      0x60\n        /* \"src/blueprints/wrappers/ERC20Blueprint.sol\":876:892  TokenOp[] memory */\n      dup1\n        /* \"src/blueprints/BasicBlueprint.sol\":480:496  blueprintManager */\n      immutable(\"0xe96cc20f241c05b09b05be99fa40d483e0c60480c24cfabd29fea373217f3b30\")\n        /* \"src/blueprints/BasicBlueprint.sol\":458:497  msg.sender != address(blueprintManager) */\n      0xffffffffffffffffffffffffffffffffffffffff\n      and\n        /* \"src/blueprints/BasicBlueprint.sol\":458:468  msg.sender */\n      caller\n        /* \"src/blueprints/BasicBlueprint.sol\":458:497  msg.sender != address(blueprintManager) */\n      0xffffffffffffffffffffffffffffffffffffffff\n      and\n      eq\n        /* \"src/blueprints/BasicBlueprint.sol\":454:523  if (msg.sender != address(blueprintManager))... */\n      tag_80\n      jumpi\n        /* \"src/blueprints/BasicBlueprint.sol\":509:523  AccessDenied() */\n      mload(0x40)\n      0x4ca8886700000000000000000000000000000000000000000000000000000000\n      dup2\n      mstore\n      0x04\n      add\n      mload(0x40)\n      dup1\n      swap2\n      sub\n      swap1\n      revert\n        /* \"src/blueprints/BasicBlueprint.sol\":454:523  if (msg.sender != address(blueprintManager))... */\n    tag_80:\n        /* \"src/blueprints/wrappers/ERC20Blueprint.sol\":910:923  address erc20 */\n      0x00\n        /* \"src/blueprints/wrappers/ERC20Blueprint.sol\":925:935  address to */\n      0x00\n        /* \"src/blueprints/wrappers/ERC20Blueprint.sol\":937:951  uint256 amount */\n      0x00\n        /* \"src/blueprints/wrappers/ERC20Blueprint.sol\":969:975  action */\n      dup9\n      dup9\n        /* \"src/blueprints/wrappers/ERC20Blueprint.sol\":958:1005  abi.decode(action, (address, address, uint256)) */\n      dup2\n      add\n      swap1\n      tag_82\n      swap2\n      swap1\n      tag_83\n      jump\t// in\n    tag_82:\n        /* \"src/blueprints/wrappers/ERC20Blueprint.sol\":909:1005  (address erc20, address to, uint256 amount) =... */\n      swap3\n      pop\n      swap3\n      pop\n      swap3\n      pop\n        /* \"src/blueprints/wrappers/ERC20Blueprint.sol\":1010:1064  SafeTransferLib.safeTransfer(ERC20(erc20), to, amount) */\n      tag_84\n        /* \"src/blueprints/wrappers/ERC20Blueprint.sol\":1045:1050  erc20 */\n      dup4\n        /* \"src/blueprints/wrappers/ERC20Blueprint.sol\":1053:1055  to */\n      dup4\n        /* \"src/blueprints/wrappers/ERC20Blueprint.sol\":1057:1063  amount */\n      dup4\n        /* \"src/blueprints/wrappers/ERC20Blueprint.sol\":1010:1038  SafeTransferLib.safeTransfer */\n      tag_85\n        /* \"src/blueprints/wrappers/ERC20Blueprint.sol\":1010:1064  SafeTransferLib.safeTransfer(ERC20(erc20), to, amount) */\n      jump\t// in\n    tag_84:\n        /* \"src/blueprints/wrappers/ERC20Blueprint.sol\":1081:1087  zero() */\n      tag_86\n        /* \"src/blueprints/wrappers/ERC20Blueprint.sol\":1081:1085  zero */\n      tag_87\n        /* \"src/blueprints/wrappers/ERC20Blueprint.sol\":1081:1087  zero() */\n      jump\t// in\n    tag_86:\n        /* \"src/blueprints/wrappers/ERC20Blueprint.sol\":1092:1142  oneOperationArray(uint256(uint160(erc20)), amount) */\n      tag_88\n        /* \"src/blueprints/wrappers/ERC20Blueprint.sol\":1126:1131  erc20 */\n      dup5\n        /* \"src/blueprints/wrappers/ERC20Blueprint.sol\":1110:1133  uint256(uint160(erc20)) */\n      0xffffffffffffffffffffffffffffffffffffffff\n      and\n        /* \"src/blueprints/wrappers/ERC20Blueprint.sol\":1135:1141  amount */\n      dup4\n        /* \"src/blueprints/wrappers/ERC20Blueprint.sol\":1092:1109  oneOperationArray */\n      tag_89\n        /* \"src/blueprints/wrappers/ERC20Blueprint.sol\":1092:1142  oneOperationArray(uint256(uint160(erc20)), amount) */\n      jump\t// in\n    tag_88:\n        /* \"src/blueprints/wrappers/ERC20Blueprint.sol\":1147:1153  zero() */\n      tag_90\n        /* \"src/blueprints/wrappers/ERC20Blueprint.sol\":1147:1151  zero */\n      tag_87\n        /* \"src/blueprints/wrappers/ERC20Blueprint.sol\":1147:1153  zero() */\n      jump\t// in\n    tag_90:\n        /* \"src/blueprints/wrappers/ERC20Blueprint.sol\":1158:1164  zero() */\n      tag_91\n        /* \"src/blueprints/wrappers/ERC20Blueprint.sol\":1158:1162  zero */\n      tag_87\n        /* \"src/blueprints/wrappers/ERC20Blueprint.sol\":1158:1164  zero() */\n      jump\t// in\n    tag_91:\n        /* \"src/blueprints/wrappers/ERC20Blueprint.sol\":1069:1168  return (... */\n      swap7\n      pop\n      swap7\n      pop\n      swap7\n      pop\n      swap7\n      pop\n      pop\n      pop\n      pop\n        /* \"src/blueprints/wrappers/ERC20Blueprint.sol\":710:1172  function executeAction(bytes calldata action) external onlyManager returns (... */\n      swap3\n      swap6\n      swap2\n      swap5\n      pop\n      swap3\n      pop\n      jump\t// out\n        /* \"src/blueprints/wrappers/ERC20Blueprint.sol\":2465:2757  function depositWithCallback(... */\n    tag_37:\n        /* \"src/blueprints/wrappers/ERC20Blueprint.sol\":2583:2600  uint256 deposited */\n      0x00\n        /* \"src/blueprints/wrappers/ERC20Blueprint.sol\":2606:2645  _saveBalance(erc20, _getBalance(erc20)) */\n      tag_93\n        /* \"src/blueprints/wrappers/ERC20Blueprint.sol\":2619:2624  erc20 */\n      dup6\n        /* \"src/blueprints/wrappers/ERC20Blueprint.sol\":2626:2644  _getBalance(erc20) */\n      tag_94\n        /* \"src/blueprints/wrappers/ERC20Blueprint.sol\":2638:2643  erc20 */\n      dup8\n        /* \"src/blueprints/wrappers/ERC20Blueprint.sol\":2626:2637  _getBalance */\n      tag_95\n        /* \"src/blueprints/wrappers/ERC20Blueprint.sol\":2626:2644  _getBalance(erc20) */\n      jump\t// in\n    tag_94:\n        /* \"src/blueprints/wrappers/ERC20Blueprint.sol\":2606:2618  _saveBalance */\n      tag_52\n        /* \"src/blueprints/wrappers/ERC20Blueprint.sol\":2606:2645  _saveBalance(erc20, _getBalance(erc20)) */\n      jump\t// in\n    tag_93:\n        /* \"src/blueprints/wrappers/ERC20Blueprint.sol\":2661:2669  callback */\n      dup4\n        /* \"src/blueprints/wrappers/ERC20Blueprint.sol\":2650:2686  IDepositor(callback).depositCallback */\n      0xffffffffffffffffffffffffffffffffffffffff\n      and\n      0x83437d45\n        /* \"src/blueprints/wrappers/ERC20Blueprint.sol\":2687:2692  erc20 */\n      dup7\n        /* \"src/blueprints/wrappers/ERC20Blueprint.sol\":2694:2706  callbackData */\n      dup6\n      dup6\n        /* \"src/blueprints/wrappers/ERC20Blueprint.sol\":2650:2707  IDepositor(callback).depositCallback(erc20, callbackData) */\n      mload(0x40)\n      dup5\n      0xffffffff\n      and\n      0xe0\n      shl\n      dup2\n      mstore\n      0x04\n      add\n      tag_96\n      swap4\n      swap3\n      swap2\n      swap1\n      tag_97\n      jump\t// in\n    tag_96:\n      0x00\n      mload(0x40)\n      dup1\n      dup4\n      sub\n      dup2\n      0x00\n      dup8\n      dup1\n      extcodesize\n      iszero\n      dup1\n      iszero\n      tag_98\n      jumpi\n      revert(0x00, 0x00)\n    tag_98:\n      pop\n      gas\n      call\n      iszero\n      dup1\n      iszero\n      tag_100\n      jumpi\n      returndatacopy(0x00, 0x00, returndatasize)\n      revert(0x00, returndatasize)\n    tag_100:\n      pop\n      pop\n      pop\n      pop\n        /* \"src/blueprints/wrappers/ERC20Blueprint.sol\":2719:2753  _mintNewBalance(erc20, msg.sender) */\n      tag_101\n        /* \"src/blueprints/wrappers/ERC20Blueprint.sol\":2735:2740  erc20 */\n      dup6\n        /* \"src/blueprints/wrappers/ERC20Blueprint.sol\":2742:2752  msg.sender */\n      caller\n        /* \"src/blueprints/wrappers/ERC20Blueprint.sol\":2719:2734  _mintNewBalance */\n      tag_102\n        /* \"src/blueprints/wrappers/ERC20Blueprint.sol\":2719:2753  _mintNewBalance(erc20, msg.sender) */\n      jump\t// in\n    tag_101:\n        /* \"src/blueprints/wrappers/ERC20Blueprint.sol\":2712:2753  return _mintNewBalance(erc20, msg.sender) */\n      swap1\n      pop\n        /* \"src/blueprints/wrappers/ERC20Blueprint.sol\":2465:2757  function depositWithCallback(... */\n      swap5\n      swap4\n      pop\n      pop\n      pop\n      pop\n      jump\t// out\n        /* \"src/blueprints/BasicBlueprint.sol\":252:303  IBlueprintManager immutable public blueprintManager */\n    tag_40:\n      immutable(\"0xe96cc20f241c05b09b05be99fa40d483e0c60480c24cfabd29fea373217f3b30\")\n      dup2\n      jump\t// out\n        /* \"src/blueprints/wrappers/ERC20Blueprint.sol\":3435:3718  function _getSavedBalance(address erc20) internal view returns (uint256 _balance) {... */\n    tag_47:\n        /* \"src/blueprints/wrappers/ERC20Blueprint.sol\":3499:3515  uint256 _balance */\n      0x00\n        /* \"src/blueprints/wrappers/ERC20Blueprint.sol\":3595:3600  erc20 */\n      dup2\n        /* \"src/blueprints/wrappers/ERC20Blueprint.sol\":3591:3593  96 */\n      0x60\n        /* \"src/blueprints/wrappers/ERC20Blueprint.sol\":3587:3601  shl(96, erc20) */\n      shl\n        /* \"src/blueprints/wrappers/ERC20Blueprint.sol\":3583:3585  96 */\n      0x60\n        /* \"src/blueprints/wrappers/ERC20Blueprint.sol\":3579:3602  shr(96, shl(96, erc20)) */\n      shr\n        /* \"src/blueprints/wrappers/ERC20Blueprint.sol\":3570:3602  erc20 := shr(96, shl(96, erc20)) */\n      swap2\n      pop\n        /* \"src/blueprints/wrappers/ERC20Blueprint.sol\":3709:3710  1 */\n      0x01\n        /* \"src/blueprints/wrappers/ERC20Blueprint.sol\":3701:3706  erc20 */\n      dup3\n        /* \"src/blueprints/wrappers/ERC20Blueprint.sol\":3695:3707  tload(erc20) */\n      tload\n        /* \"src/blueprints/wrappers/ERC20Blueprint.sol\":3691:3711  sub(tload(erc20), 1) */\n      sub\n        /* \"src/blueprints/wrappers/ERC20Blueprint.sol\":3679:3711  _balance := sub(tload(erc20), 1) */\n      swap1\n      pop\n        /* \"src/blueprints/wrappers/ERC20Blueprint.sol\":3435:3718  function _getSavedBalance(address erc20) internal view returns (uint256 _balance) {... */\n      swap2\n      swap1\n      pop\n      jump\t// out\n        /* \"src/blueprints/wrappers/ERC20Blueprint.sol\":3174:3432  function _saveBalance(address erc20, uint256 _balance) internal {... */\n    tag_52:\n        /* \"src/blueprints/wrappers/ERC20Blueprint.sol\":3258:3275  type(uint256).max */\n      0xffffffffffffffffffffffffffffffffffffffffffffffffffffffffffffffff\n        /* \"src/blueprints/wrappers/ERC20Blueprint.sol\":3246:3254  _balance */\n      dup2\n        /* \"src/blueprints/wrappers/ERC20Blueprint.sol\":3246:3275  _balance == type(uint256).max */\n      sub\n        /* \"src/blueprints/wrappers/ERC20Blueprint.sol\":3242:3304  if (_balance == type(uint256).max)... */\n      tag_105\n      jumpi\n        /* \"src/blueprints/wrappers/ERC20Blueprint.sol\":3287:3304  BalanceOverflow() */\n      mload(0x40)\n      0x89560ca100000000000000000000000000000000000000000000000000000000\n      dup2\n      mstore\n      0x04\n      add\n      mload(0x40)\n      dup1\n      swap2\n      sub\n      swap1\n      revert\n        /* \"src/blueprints/wrappers/ERC20Blueprint.sol\":3242:3304  if (_balance == type(uint256).max)... */\n    tag_105:\n        /* \"src/blueprints/wrappers/ERC20Blueprint.sol\":3383:3388  erc20 */\n      dup2\n        /* \"src/blueprints/wrappers/ERC20Blueprint.sol\":3379:3381  96 */\n      0x60\n        /* \"src/blueprints/wrappers/ERC20Blueprint.sol\":3375:3389  shl(96, erc20) */\n      shl\n        /* \"src/blueprints/wrappers/ERC20Blueprint.sol\":3371:3373  96 */\n      0x60\n        /* \"src/blueprints/wrappers/ERC20Blueprint.sol\":3367:3390  shr(96, shl(96, erc20)) */\n      shr\n        /* \"src/blueprints/wrappers/ERC20Blueprint.sol\":3358:3390  erc20 := shr(96, shl(96, erc20)) */\n      swap2\n      pop\n        /* \"src/blueprints/wrappers/ERC20Blueprint.sol\":3422:3423  1 */\n      0x01\n        /* \"src/blueprints/wrappers/ERC20Blueprint.sol\":3412:3420  _balance */\n      dup2\n        /* \"src/blueprints/wrappers/ERC20Blueprint.sol\":3408:3424  add(_balance, 1) */\n      add\n        /* \"src/blueprints/wrappers/ERC20Blueprint.sol\":3401:3406  erc20 */\n      dup3\n        /* \"src/blueprints/wrappers/ERC20Blueprint.sol\":3394:3425  tstore(erc20, add(_balance, 1)) */\n      tstore\n        /* \"src/blueprints/wrappers/ERC20Blueprint.sol\":3174:3432  function _saveBalance(address erc20, uint256 _balance) internal {... */\n      pop\n      pop\n      jump\t// out\n        /* \"src/blueprints/wrappers/ERC20Blueprint.sol\":2760:3048  function _deposit(... */\n    tag_70:\n        /* \"src/blueprints/wrappers/ERC20Blueprint.sol\":2864:2881  uint256 deposited */\n      0x00\n        /* \"src/blueprints/wrappers/ERC20Blueprint.sol\":2887:2926  _saveBalance(erc20, _getBalance(erc20)) */\n      tag_107\n        /* \"src/blueprints/wrappers/ERC20Blueprint.sol\":2900:2905  erc20 */\n      dup6\n        /* \"src/blueprints/wrappers/ERC20Blueprint.sol\":2907:2925  _getBalance(erc20) */\n      tag_108\n        /* \"src/blueprints/wrappers/ERC20Blueprint.sol\":2919:2924  erc20 */\n      dup8\n        /* \"src/blueprints/wrappers/ERC20Blueprint.sol\":2907:2918  _getBalance */\n      tag_95\n        /* \"src/blueprints/wrappers/ERC20Blueprint.sol\":2907:2925  _getBalance(erc20) */\n      jump\t// in\n    tag_108:\n        /* \"src/blueprints/wrappers/ERC20Blueprint.sol\":2887:2899  _saveBalance */\n      tag_52\n        /* \"src/blueprints/wrappers/ERC20Blueprint.sol\":2887:2926  _saveBalance(erc20, _getBalance(erc20)) */\n      jump\t// in\n    tag_107:\n        /* \"src/blueprints/wrappers/ERC20Blueprint.sol\":2931:3006  SafeTransferLib.safeTransferFrom(ERC20(erc20), from, address(this), amount) */\n      tag_109\n        /* \"src/blueprints/wrappers/ERC20Blueprint.sol\":2970:2975  erc20 */\n      dup6\n        /* \"src/blueprints/wrappers/ERC20Blueprint.sol\":2978:2982  from */\n      dup6\n        /* \"src/blueprints/wrappers/ERC20Blueprint.sol\":2992:2996  this */\n      address\n        /* \"src/blueprints/wrappers/ERC20Blueprint.sol\":2999:3005  amount */\n      dup6\n        /* \"src/blueprints/wrappers/ERC20Blueprint.sol\":2931:2963  SafeTransferLib.safeTransferFrom */\n      tag_110\n        /* \"src/blueprints/wrappers/ERC20Blueprint.sol\":2931:3006  SafeTransferLib.safeTransferFrom(ERC20(erc20), from, address(this), amount) */\n      jump\t// in\n    tag_109:\n        /* \"src/blueprints/wrappers/ERC20Blueprint.sol\":3018:3044  _mintNewBalance(erc20, to) */\n      tag_111\n        /* \"src/blueprints/wrappers/ERC20Blueprint.sol\":3034:3039  erc20 */\n      dup6\n        /* \"src/blueprints/wrappers/ERC20Blueprint.sol\":3041:3043  to */\n      dup5\n        /* \"src/blueprints/wrappers/ERC20Blueprint.sol\":3018:3033  _mintNewBalance */\n      tag_102\n        /* \"src/blueprints/wrappers/ERC20Blueprint.sol\":3018:3044  _mintNewBalance(erc20, to) */\n      jump\t// in\n    tag_111:\n        /* \"src/blueprints/wrappers/ERC20Blueprint.sol\":3011:3044  return _mintNewBalance(erc20, to) */\n      swap1\n      pop\n        /* \"src/blueprints/wrappers/ERC20Blueprint.sol\":2760:3048  function _deposit(... */\n      swap5\n      swap4\n      pop\n      pop\n      pop\n      pop\n      jump\t// out\n        /* \"lib/solmate/src/utils/SafeTransferLib.sol\":2832:4296  function safeTransfer(... */\n    tag_85:\n        /* \"lib/solmate/src/utils/SafeTransferLib.sol\":2944:2956  bool success */\n      0x00\n        /* \"lib/solmate/src/utils/SafeTransferLib.sol\":3114:3118  0x40 */\n      0x40\n        /* \"lib/solmate/src/utils/SafeTransferLib.sol\":3108:3119  mload(0x40) */\n      mload\n        /* \"lib/solmate/src/utils/SafeTransferLib.sol\":3256:3322  0xa9059cbb00000000000000000000000000000000000000000000000000000000 */\n      0xa9059cbb00000000000000000000000000000000000000000000000000000000\n        /* \"lib/solmate/src/utils/SafeTransferLib.sol\":3237:3254  freeMemoryPointer */\n      dup2\n        /* \"lib/solmate/src/utils/SafeTransferLib.sol\":3230:3323  mstore(freeMemoryPointer, 0xa9059cbb00000000000000000000000000000000000000000000000000000000) */\n      mstore\n        /* \"lib/solmate/src/utils/SafeTransferLib.sol\":3378:3420  0xffffffffffffffffffffffffffffffffffffffff */\n      0xffffffffffffffffffffffffffffffffffffffff\n        /* \"lib/solmate/src/utils/SafeTransferLib.sol\":3374:3376  to */\n      dup5\n        /* \"lib/solmate/src/utils/SafeTransferLib.sol\":3370:3421  and(to, 0xffffffffffffffffffffffffffffffffffffffff) */\n      and\n        /* \"lib/solmate/src/utils/SafeTransferLib.sol\":3366:3367  4 */\n      0x04\n        /* \"lib/solmate/src/utils/SafeTransferLib.sol\":3347:3364  freeMemoryPointer */\n      dup3\n        /* \"lib/solmate/src/utils/SafeTransferLib.sol\":3343:3368  add(freeMemoryPointer, 4) */\n      add\n        /* \"lib/solmate/src/utils/SafeTransferLib.sol\":3336:3422  mstore(add(freeMemoryPointer, 4), and(to, 0xffffffffffffffffffffffffffffffffffffffff)) */\n      mstore\n        /* \"lib/solmate/src/utils/SafeTransferLib.sol\":3508:3514  amount */\n      dup3\n        /* \"lib/solmate/src/utils/SafeTransferLib.sol\":3503:3505  36 */\n      0x24\n        /* \"lib/solmate/src/utils/SafeTransferLib.sol\":3484:3501  freeMemoryPointer */\n      dup3\n        /* \"lib/solmate/src/utils/SafeTransferLib.sol\":3480:3506  add(freeMemoryPointer, 36) */\n      add\n        /* \"lib/solmate/src/utils/SafeTransferLib.sol\":3473:3515  mstore(add(freeMemoryPointer, 36), amount) */\n      mstore\n        /* \"lib/solmate/src/utils/SafeTransferLib.sol\":3855:3857  32 */\n      0x20\n        /* \"lib/solmate/src/utils/SafeTransferLib.sol\":3852:3853  0 */\n      0x00\n        /* \"lib/solmate/src/utils/SafeTransferLib.sol\":3848:3850  68 */\n      0x44\n        /* \"lib/solmate/src/utils/SafeTransferLib.sol\":3829:3846  freeMemoryPointer */\n      dup4\n        /* \"lib/solmate/src/utils/SafeTransferLib.sol\":3826:3827  0 */\n      0x00\n        /* \"lib/solmate/src/utils/SafeTransferLib.sol\":3819:3824  token */\n      dup10\n        /* \"lib/solmate/src/utils/SafeTransferLib.sol\":3812:3817  gas() */\n      gas\n        /* \"lib/solmate/src/utils/SafeTransferLib.sol\":3807:3858  call(gas(), token, 0, freeMemoryPointer, 68, 0, 32) */\n      call\n        /* \"lib/solmate/src/utils/SafeTransferLib.sol\":3796:3858  success := call(gas(), token, 0, freeMemoryPointer, 68, 0, 32) */\n      swap2\n      pop\n        /* \"lib/solmate/src/utils/SafeTransferLib.sol\":4125:4132  success */\n      dup2\n        /* \"lib/solmate/src/utils/SafeTransferLib.sol\":4118:4120  31 */\n      0x1f\n        /* \"lib/solmate/src/utils/SafeTransferLib.sol\":4100:4116  returndatasize() */\n      returndatasize\n        /* \"lib/solmate/src/utils/SafeTransferLib.sol\":4097:4121  gt(returndatasize(), 31) */\n      gt\n        /* \"lib/solmate/src/utils/SafeTransferLib.sol\":4093:4094  1 */\n      0x01\n        /* \"lib/solmate/src/utils/SafeTransferLib.sol\":4089:4090  0 */\n      0x00\n        /* \"lib/solmate/src/utils/SafeTransferLib.sol\":4083:4091  mload(0) */\n      mload\n        /* \"lib/solmate/src/utils/SafeTransferLib.sol\":4080:4095  eq(mload(0), 1) */\n      eq\n        /* \"lib/solmate/src/utils/SafeTransferLib.sol\":4076:4122  and(eq(mload(0), 1), gt(returndatasize(), 31)) */\n      and\n        /* \"lib/solmate/src/utils/SafeTransferLib.sol\":4069:4123  iszero(and(eq(mload(0), 1), gt(returndatasize(), 31))) */\n      iszero\n        /* \"lib/solmate/src/utils/SafeTransferLib.sol\":4065:4133  and(iszero(and(eq(mload(0), 1), gt(returndatasize(), 31))), success) */\n      and\n        /* \"lib/solmate/src/utils/SafeTransferLib.sol\":4062:4234  if and(iszero(and(eq(mload(0), 1), gt(returndatasize(), 31))), success) {... */\n      iszero\n      tag_113\n      jumpi\n        /* \"lib/solmate/src/utils/SafeTransferLib.sol\":4201:4217  returndatasize() */\n      returndatasize\n        /* \"lib/solmate/src/utils/SafeTransferLib.sol\":4192:4197  token */\n      dup6\n        /* \"lib/solmate/src/utils/SafeTransferLib.sol\":4180:4198  extcodesize(token) */\n      extcodesize\n        /* \"lib/solmate/src/utils/SafeTransferLib.sol\":4173:4199  iszero(extcodesize(token)) */\n      iszero\n        /* \"lib/solmate/src/utils/SafeTransferLib.sol\":4170:4218  or(iszero(extcodesize(token)), returndatasize()) */\n      or\n        /* \"lib/solmate/src/utils/SafeTransferLib.sol\":4163:4219  iszero(or(iszero(extcodesize(token)), returndatasize())) */\n      iszero\n        /* \"lib/solmate/src/utils/SafeTransferLib.sol\":4152:4219  success := iszero(or(iszero(extcodesize(token)), returndatasize())) */\n      swap2\n      pop\n        /* \"lib/solmate/src/utils/SafeTransferLib.sol\":4062:4234  if and(iszero(and(eq(mload(0), 1), gt(returndatasize(), 31))), success) {... */\n    tag_113:\n        /* \"lib/solmate/src/utils/SafeTransferLib.sol\":3019:4244  {... */\n      pop\n        /* \"lib/solmate/src/utils/SafeTransferLib.sol\":4262:4269  success */\n      dup1\n        /* \"lib/solmate/src/utils/SafeTransferLib.sol\":4254:4289  require(success, \"TRANSFER_FAILED\") */\n      tag_114\n      jumpi\n      mload(0x40)\n      0x08c379a000000000000000000000000000000000000000000000000000000000\n      dup2\n      mstore\n      0x04\n      add\n      tag_115\n      swap1\n      tag_116\n      jump\t// in\n    tag_115:\n      mload(0x40)\n      dup1\n      swap2\n      sub\n      swap1\n      revert\n    tag_114:\n        /* \"lib/solmate/src/utils/SafeTransferLib.sol\":2934:4296  {... */\n      pop\n        /* \"lib/solmate/src/utils/SafeTransferLib.sol\":2832:4296  function safeTransfer(... */\n      pop\n      pop\n      pop\n      jump\t// out\n        /* \"src/blueprints/BasicBlueprint.sol\":536:645  function zero() internal pure returns (TokenOp[] memory z) {... */\n    tag_87:\n        /* \"src/blueprints/BasicBlueprint.sol\":575:593  TokenOp[] memory z */\n      0x60\n        /* \"src/blueprints/BasicBlueprint.sol\":536:645  function zero() internal pure returns (TokenOp[] memory z) {... */\n      swap1\n      jump\t// out\n        /* \"src/blueprints/BasicBlueprint.sol\":648:1007  function oneOperationArray(... */\n    tag_89:\n        /* \"src/blueprints/BasicBlueprint.sol\":738:758  TokenOp[] memory res */\n      0x60\n        /* \"src/blueprints/BasicBlueprint.sol\":807:811  0x40 */\n      0x40\n        /* \"src/blueprints/BasicBlueprint.sol\":801:812  mload(0x40) */\n      mload\n        /* \"src/blueprints/BasicBlueprint.sol\":794:812  res := mload(0x40) */\n      swap1\n      pop\n        /* \"src/blueprints/BasicBlueprint.sol\":838:842  0x80 */\n      0x80\n        /* \"src/blueprints/BasicBlueprint.sol\":833:836  res */\n      dup2\n        /* \"src/blueprints/BasicBlueprint.sol\":829:843  add(res, 0x80) */\n      add\n        /* \"src/blueprints/BasicBlueprint.sol\":823:827  0x40 */\n      0x40\n        /* \"src/blueprints/BasicBlueprint.sol\":816:844  mstore(0x40, add(res, 0x80)) */\n      mstore\n        /* \"src/blueprints/BasicBlueprint.sol\":875:879  0x40 */\n      0x40\n        /* \"src/blueprints/BasicBlueprint.sol\":870:873  res */\n      dup2\n        /* \"src/blueprints/BasicBlueprint.sol\":866:880  add(res, 0x40) */\n      add\n        /* \"src/blueprints/BasicBlueprint.sol\":897:898  1 */\n      0x01\n        /* \"src/blueprints/BasicBlueprint.sol\":892:895  res */\n      dup3\n        /* \"src/blueprints/BasicBlueprint.sol\":885:899  mstore(res, 1) */\n      mstore\n        /* \"src/blueprints/BasicBlueprint.sol\":926:935  structPtr */\n      dup1\n        /* \"src/blueprints/BasicBlueprint.sol\":919:923  0x20 */\n      0x20\n        /* \"src/blueprints/BasicBlueprint.sol\":914:917  res */\n      dup4\n        /* \"src/blueprints/BasicBlueprint.sol\":910:924  add(res, 0x20) */\n      add\n        /* \"src/blueprints/BasicBlueprint.sol\":903:936  mstore(add(res, 0x20), structPtr) */\n      mstore\n        /* \"src/blueprints/BasicBlueprint.sol\":958:965  tokenId */\n      dup4\n        /* \"src/blueprints/BasicBlueprint.sol\":947:956  structPtr */\n      dup2\n        /* \"src/blueprints/BasicBlueprint.sol\":940:966  mstore(structPtr, tokenId) */\n      mstore\n        /* \"src/blueprints/BasicBlueprint.sol\":993:999  amount */\n      dup3\n        /* \"src/blueprints/BasicBlueprint.sol\":986:990  0x60 */\n      0x60\n        /* \"src/blueprints/BasicBlueprint.sol\":981:984  res */\n      dup4\n        /* \"src/blueprints/BasicBlueprint.sol\":977:991  add(res, 0x60) */\n      add\n        /* \"src/blueprints/BasicBlueprint.sol\":970:1000  mstore(add(res, 0x60), amount) */\n      mstore\n        /* \"src/blueprints/BasicBlueprint.sol\":789:1004  {... */\n      pop\n        /* \"src/blueprints/BasicBlueprint.sol\":648:1007  function oneOperationArray(... */\n      swap3\n      swap2\n      pop\n      pop\n      jump\t// out\n        /* \"src/blueprints/wrappers/ERC20Blueprint.sol\":3051:3171  function _getBalance(address erc20) internal view returns (uint256) {... */\n    tag_95:\n        /* \"src/blueprints/wrappers/ERC20Blueprint.sol\":3110:3117  uint256 */\n      0x00\n        /* \"src/blueprints/wrappers/ERC20Blueprint.sol\":3136:3141  erc20 */\n      dup2\n        /* \"src/blueprints/wrappers/ERC20Blueprint.sol\":3130:3152  ERC20(erc20).balanceOf */\n      0xffffffffffffffffffffffffffffffffffffffff\n      and\n      0x70a08231\n        /* \"src/blueprints/wrappers/ERC20Blueprint.sol\":3161:3165  this */\n      address\n        /* \"src/blueprints/wrappers/ERC20Blueprint.sol\":3130:3167  ERC20(erc20).balanceOf(address(this)) */\n      mload(0x40)\n      dup3\n      0xffffffff\n      and\n      0xe0\n      shl\n      dup2\n      mstore\n      0x04\n      add\n      tag_120\n      swap2\n      swap1\n      tag_121\n      jump\t// in\n    tag_120:\n      0x20\n      mload(0x40)\n      dup1\n      dup4\n      sub\n      dup2\n      dup7\n      gas\n      staticcall\n      iszero\n      dup1\n      iszero\n      tag_123\n      jumpi\n      returndatacopy(0x00, 0x00, returndatasize)\n      revert(0x00, returndatasize)\n    tag_123:\n      pop\n      pop\n      pop\n      pop\n      mload(0x40)\n      returndatasize\n      not(0x1f)\n      0x1f\n      dup3\n      add\n      and\n      dup3\n      add\n      dup1\n      0x40\n      mstore\n      pop\n      dup2\n      add\n      swap1\n      tag_124\n      swap2\n      swap1\n      tag_125\n      jump\t// in\n    tag_124:\n        /* \"src/blueprints/wrappers/ERC20Blueprint.sol\":3123:3167  return ERC20(erc20).balanceOf(address(this)) */\n      swap1\n      pop\n        /* \"src/blueprints/wrappers/ERC20Blueprint.sol\":3051:3171  function _getBalance(address erc20) internal view returns (uint256) {... */\n      swap2\n      swap1\n      pop\n      jump\t// out\n        /* \"src/blueprints/wrappers/ERC20Blueprint.sol\":3721:4033  function _mintNewBalance(address erc20, address to) internal returns (uint256 delta) {... */\n    tag_102:\n        /* \"src/blueprints/wrappers/ERC20Blueprint.sol\":3791:3804  uint256 delta */\n      0x00\n        /* \"src/blueprints/wrappers/ERC20Blueprint.sol\":3810:3828  uint256 newBalance */\n      0x00\n        /* \"src/blueprints/wrappers/ERC20Blueprint.sol\":3831:3849  _getBalance(erc20) */\n      tag_127\n        /* \"src/blueprints/wrappers/ERC20Blueprint.sol\":3843:3848  erc20 */\n      dup5\n        /* \"src/blueprints/wrappers/ERC20Blueprint.sol\":3831:3842  _getBalance */\n      tag_95\n        /* \"src/blueprints/wrappers/ERC20Blueprint.sol\":3831:3849  _getBalance(erc20) */\n      jump\t// in\n    tag_127:\n        /* \"src/blueprints/wrappers/ERC20Blueprint.sol\":3810:3849  uint256 newBalance = _getBalance(erc20) */\n      swap1\n      pop\n        /* \"src/blueprints/wrappers/ERC20Blueprint.sol\":3853:3871  uint256 oldBalance */\n      0x00\n        /* \"src/blueprints/wrappers/ERC20Blueprint.sol\":3874:3897  _getSavedBalance(erc20) */\n      tag_128\n        /* \"src/blueprints/wrappers/ERC20Blueprint.sol\":3891:3896  erc20 */\n      dup6\n        /* \"src/blueprints/wrappers/ERC20Blueprint.sol\":3874:3890  _getSavedBalance */\n      tag_47\n        /* \"src/blueprints/wrappers/ERC20Blueprint.sol\":3874:3897  _getSavedBalance(erc20) */\n      jump\t// in\n    tag_128:\n        /* \"src/blueprints/wrappers/ERC20Blueprint.sol\":3853:3897  uint256 oldBalance = _getSavedBalance(erc20) */\n      swap1\n      pop\n        /* \"src/blueprints/wrappers/ERC20Blueprint.sol\":3922:3932  oldBalance */\n      dup1\n        /* \"src/blueprints/wrappers/ERC20Blueprint.sol\":3909:3919  newBalance */\n      dup3\n        /* \"src/blueprints/wrappers/ERC20Blueprint.sol\":3909:3932  newBalance - oldBalance */\n      tag_129\n      swap2\n      swap1\n      tag_130\n      jump\t// in\n    tag_129:\n        /* \"src/blueprints/wrappers/ERC20Blueprint.sol\":3901:3932  delta = newBalance - oldBalance */\n      swap3\n      pop\n        /* \"src/blueprints/wrappers/ERC20Blueprint.sol\":3937:3953  blueprintManager */\n      immutable(\"0xe96cc20f241c05b09b05be99fa40d483e0c60480c24cfabd29fea373217f3b30\")\n        /* \"src/blueprints/wrappers/ERC20Blueprint.sol\":3937:3958  blueprintManager.mint */\n      0xffffffffffffffffffffffffffffffffffffffff\n      and\n      0x156e29f6\n        /* \"src/blueprints/wrappers/ERC20Blueprint.sol\":3959:3961  to */\n      dup6\n        /* \"src/blueprints/wrappers/ERC20Blueprint.sol\":3979:3984  erc20 */\n      dup8\n        /* \"src/blueprints/wrappers/ERC20Blueprint.sol\":3963:3986  uint256(uint160(erc20)) */\n      0xffffffffffffffffffffffffffffffffffffffff\n      and\n        /* \"src/blueprints/wrappers/ERC20Blueprint.sol\":3988:3993  delta */\n      dup7\n        /* \"src/blueprints/wrappers/ERC20Blueprint.sol\":3937:3994  blueprintManager.mint(to, uint256(uint160(erc20)), delta) */\n      mload(0x40)\n      dup5\n      0xffffffff\n      and\n      0xe0\n      shl\n      dup2\n      mstore\n      0x04\n      add\n      tag_131\n      swap4\n      swap3\n      swap2\n      swap1\n      tag_57\n      jump\t// in\n    tag_131:\n      0x00\n      mload(0x40)\n      dup1\n      dup4\n      sub\n      dup2\n      0x00\n      dup8\n      dup1\n      extcodesize\n      iszero\n      dup1\n      iszero\n      tag_132\n      jumpi\n      revert(0x00, 0x00)\n    tag_132:\n      pop\n      gas\n      call\n      iszero\n      dup1\n      iszero\n      tag_134\n      jumpi\n      returndatacopy(0x00, 0x00, returndatasize)\n      revert(0x00, returndatasize)\n    tag_134:\n      pop\n      pop\n      pop\n      pop\n        /* \"src/blueprints/wrappers/ERC20Blueprint.sol\":3998:4029  _saveBalance(erc20, newBalance) */\n      tag_135\n        /* \"src/blueprints/wrappers/ERC20Blueprint.sol\":4011:4016  erc20 */\n      dup6\n        /* \"src/blueprints/wrappers/ERC20Blueprint.sol\":4018:4028  newBalance */\n      dup4\n        /* \"src/blueprints/wrappers/ERC20Blueprint.sol\":3998:4010  _saveBalance */\n      tag_52\n        /* \"src/blueprints/wrappers/ERC20Blueprint.sol\":3998:4029  _saveBalance(erc20, newBalance) */\n      jump\t// in\n    tag_135:\n        /* \"src/blueprints/wrappers/ERC20Blueprint.sol\":3806:4033  {... */\n      pop\n      pop\n        /* \"src/blueprints/wrappers/ERC20Blueprint.sol\":3721:4033  function _mintNewBalance(address erc20, address to) internal returns (uint256 delta) {... */\n      swap3\n      swap2\n      pop\n      pop\n      jump\t// out\n        /* \"lib/solmate/src/utils/SafeTransferLib.sol\":1187:2826  function safeTransferFrom(... */\n    tag_110:\n        /* \"lib/solmate/src/utils/SafeTransferLib.sol\":1325:1337  bool success */\n      0x00\n        /* \"lib/solmate/src/utils/SafeTransferLib.sol\":1495:1499  0x40 */\n      0x40\n        /* \"lib/solmate/src/utils/SafeTransferLib.sol\":1489:1500  mload(0x40) */\n      mload\n        /* \"lib/solmate/src/utils/SafeTransferLib.sol\":1637:1703  0x23b872dd00000000000000000000000000000000000000000000000000000000 */\n      0x23b872dd00000000000000000000000000000000000000000000000000000000\n        /* \"lib/solmate/src/utils/SafeTransferLib.sol\":1618:1635  freeMemoryPointer */\n      dup2\n        /* \"lib/solmate/src/utils/SafeTransferLib.sol\":1611:1704  mstore(freeMemoryPointer, 0x23b872dd00000000000000000000000000000000000000000000000000000000) */\n      mstore\n        /* \"lib/solmate/src/utils/SafeTransferLib.sol\":1761:1803  0xffffffffffffffffffffffffffffffffffffffff */\n      0xffffffffffffffffffffffffffffffffffffffff\n        /* \"lib/solmate/src/utils/SafeTransferLib.sol\":1755:1759  from */\n      dup6\n        /* \"lib/solmate/src/utils/SafeTransferLib.sol\":1751:1804  and(from, 0xffffffffffffffffffffffffffffffffffffffff) */\n      and\n        /* \"lib/solmate/src/utils/SafeTransferLib.sol\":1747:1748  4 */\n      0x04\n        /* \"lib/solmate/src/utils/SafeTransferLib.sol\":1728:1745  freeMemoryPointer */\n      dup3\n        /* \"lib/solmate/src/utils/SafeTransferLib.sol\":1724:1749  add(freeMemoryPointer, 4) */\n      add\n        /* \"lib/solmate/src/utils/SafeTransferLib.sol\":1717:1805  mstore(add(freeMemoryPointer, 4), and(from, 0xffffffffffffffffffffffffffffffffffffffff)) */\n      mstore\n        /* \"lib/solmate/src/utils/SafeTransferLib.sol\":1901:1943  0xffffffffffffffffffffffffffffffffffffffff */\n      0xffffffffffffffffffffffffffffffffffffffff\n        /* \"lib/solmate/src/utils/SafeTransferLib.sol\":1897:1899  to */\n      dup5\n        /* \"lib/solmate/src/utils/SafeTransferLib.sol\":1893:1944  and(to, 0xffffffffffffffffffffffffffffffffffffffff) */\n      and\n        /* \"lib/solmate/src/utils/SafeTransferLib.sol\":1888:1890  36 */\n      0x24\n        /* \"lib/solmate/src/utils/SafeTransferLib.sol\":1869:1886  freeMemoryPointer */\n      dup3\n        /* \"lib/solmate/src/utils/SafeTransferLib.sol\":1865:1891  add(freeMemoryPointer, 36) */\n      add\n        /* \"lib/solmate/src/utils/SafeTransferLib.sol\":1858:1945  mstore(add(freeMemoryPointer, 36), and(to, 0xffffffffffffffffffffffffffffffffffffffff)) */\n      mstore\n        /* \"lib/solmate/src/utils/SafeTransferLib.sol\":2031:2037  amount */\n      dup3\n        /* \"lib/solmate/src/utils/SafeTransferLib.sol\":2026:2028  68 */\n      0x44\n        /* \"lib/solmate/src/utils/SafeTransferLib.sol\":2007:2024  freeMemoryPointer */\n      dup3\n        /* \"lib/solmate/src/utils/SafeTransferLib.sol\":2003:2029  add(freeMemoryPointer, 68) */\n      add\n        /* \"lib/solmate/src/utils/SafeTransferLib.sol\":1996:2038  mstore(add(freeMemoryPointer, 68), amount) */\n      mstore\n        /* \"lib/solmate/src/utils/SafeTransferLib.sol\":2380:2382  32 */\n      0x20\n        /* \"lib/solmate/src/utils/SafeTransferLib.sol\":2377:2378  0 */\n      0x00\n        /* \"lib/solmate/src/utils/SafeTransferLib.sol\":2372:2375  100 */\n      0x64\n        /* \"lib/solmate/src/utils/SafeTransferLib.sol\":2353:2370  freeMemoryPointer */\n      dup4\n        /* \"lib/solmate/src/utils/SafeTransferLib.sol\":2350:2351  0 */\n      0x00\n        /* \"lib/solmate/src/utils/SafeTransferLib.sol\":2343:2348  token */\n      dup11\n        /* \"lib/solmate/src/utils/SafeTransferLib.sol\":2336:2341  gas() */\n      gas\n        /* \"lib/solmate/src/utils/SafeTransferLib.sol\":2331:2383  call(gas(), token, 0, freeMemoryPointer, 100, 0, 32) */\n      call\n        /* \"lib/solmate/src/utils/SafeTransferLib.sol\":2320:2383  success := call(gas(), token, 0, freeMemoryPointer, 100, 0, 32) */\n      swap2\n      pop\n        /* \"lib/solmate/src/utils/SafeTransferLib.sol\":2650:2657  success */\n      dup2\n        /* \"lib/solmate/src/utils/SafeTransferLib.sol\":2643:2645  31 */\n      0x1f\n        /* \"lib/solmate/src/utils/SafeTransferLib.sol\":2625:2641  returndatasize() */\n      returndatasize\n        /* \"lib/solmate/src/utils/SafeTransferLib.sol\":2622:2646  gt(returndatasize(), 31) */\n      gt\n        /* \"lib/solmate/src/utils/SafeTransferLib.sol\":2618:2619  1 */\n      0x01\n        /* \"lib/solmate/src/utils/SafeTransferLib.sol\":2614:2615  0 */\n      0x00\n        /* \"lib/solmate/src/utils/SafeTransferLib.sol\":2608:2616  mload(0) */\n      mload\n        /* \"lib/solmate/src/utils/SafeTransferLib.sol\":2605:2620  eq(mload(0), 1) */\n      eq\n        /* \"lib/solmate/src/utils/SafeTransferLib.sol\":2601:2647  and(eq(mload(0), 1), gt(returndatasize(), 31)) */\n      and\n        /* \"lib/solmate/src/utils/SafeTransferLib.sol\":2594:2648  iszero(and(eq(mload(0), 1), gt(returndatasize(), 31))) */\n      iszero\n        /* \"lib/solmate/src/utils/SafeTransferLib.sol\":2590:2658  and(iszero(and(eq(mload(0), 1), gt(returndatasize(), 31))), success) */\n      and\n        /* \"lib/solmate/src/utils/SafeTransferLib.sol\":2587:2759  if and(iszero(and(eq(mload(0), 1), gt(returndatasize(), 31))), success) {... */\n      iszero\n      tag_137\n      jumpi\n        /* \"lib/solmate/src/utils/SafeTransferLib.sol\":2726:2742  returndatasize() */\n      returndatasize\n        /* \"lib/solmate/src/utils/SafeTransferLib.sol\":2717:2722  token */\n      dup7\n        /* \"lib/solmate/src/utils/SafeTransferLib.sol\":2705:2723  extcodesize(token) */\n      extcodesize\n        /* \"lib/solmate/src/utils/SafeTransferLib.sol\":2698:2724  iszero(extcodesize(token)) */\n      iszero\n        /* \"lib/solmate/src/utils/SafeTransferLib.sol\":2695:2743  or(iszero(extcodesize(token)), returndatasize()) */\n      or\n        /* \"lib/solmate/src/utils/SafeTransferLib.sol\":2688:2744  iszero(or(iszero(extcodesize(token)), returndatasize())) */\n      iszero\n        /* \"lib/solmate/src/utils/SafeTransferLib.sol\":2677:2744  success := iszero(or(iszero(extcodesize(token)), returndatasize())) */\n      swap2\n      pop\n        /* \"lib/solmate/src/utils/SafeTransferLib.sol\":2587:2759  if and(iszero(and(eq(mload(0), 1), gt(returndatasize(), 31))), success) {... */\n    tag_137:\n        /* \"lib/solmate/src/utils/SafeTransferLib.sol\":1400:2769  {... */\n      pop\n        /* \"lib/solmate/src/utils/SafeTransferLib.sol\":2787:2794  success */\n      dup1\n        /* \"lib/solmate/src/utils/SafeTransferLib.sol\":2779:2819  require(success, \"TRANSFER_FROM_FAILED\") */\n      tag_138\n      jumpi\n      mload(0x40)\n      0x08c379a000000000000000000000000000000000000000000000000000000000\n      dup2\n      mstore\n      0x04\n      add\n      tag_139\n      swap1\n      tag_140\n      jump\t// in\n    tag_139:\n      mload(0x40)\n      dup1\n      swap2\n      sub\n      swap1\n      revert\n    tag_138:\n        /* \"lib/solmate/src/utils/SafeTransferLib.sol\":1315:2826  {... */\n      pop\n        /* \"lib/solmate/src/utils/SafeTransferLib.sol\":1187:2826  function safeTransferFrom(... */\n      pop\n      pop\n      pop\n      pop\n      jump\t// out\n        /* \"#utility.yul\":88:205   */\n    tag_142:\n        /* \"#utility.yul\":197:198   */\n      0x00\n        /* \"#utility.yul\":194:195   */\n      0x00\n        /* \"#utility.yul\":187:199   */\n      revert\n        /* \"#utility.yul\":211:328   */\n    tag_143:\n        /* \"#utility.yul\":320:321   */\n      0x00\n        /* \"#utility.yul\":317:318   */\n      0x00\n        /* \"#utility.yul\":310:322   */\n      revert\n        /* \"#utility.yul\":334:460   */\n    tag_144:\n        /* \"#utility.yul\":371:378   */\n      0x00\n        /* \"#utility.yul\":411:453   */\n      0xffffffffffffffffffffffffffffffffffffffff\n        /* \"#utility.yul\":404:409   */\n      dup3\n        /* \"#utility.yul\":400:454   */\n      and\n        /* \"#utility.yul\":389:454   */\n      swap1\n      pop\n        /* \"#utility.yul\":334:460   */\n      swap2\n      swap1\n      pop\n      jump\t// out\n        /* \"#utility.yul\":466:562   */\n    tag_145:\n        /* \"#utility.yul\":503:510   */\n      0x00\n        /* \"#utility.yul\":532:556   */\n      tag_198\n        /* \"#utility.yul\":550:555   */\n      dup3\n        /* \"#utility.yul\":532:556   */\n      tag_144\n      jump\t// in\n    tag_198:\n        /* \"#utility.yul\":521:556   */\n      swap1\n      pop\n        /* \"#utility.yul\":466:562   */\n      swap2\n      swap1\n      pop\n      jump\t// out\n        /* \"#utility.yul\":568:690   */\n    tag_146:\n        /* \"#utility.yul\":641:665   */\n      tag_200\n        /* \"#utility.yul\":659:664   */\n      dup2\n        /* \"#utility.yul\":641:665   */\n      tag_145\n      jump\t// in\n    tag_200:\n        /* \"#utility.yul\":634:639   */\n      dup2\n        /* \"#utility.yul\":631:666   */\n      eq\n        /* \"#utility.yul\":621:684   */\n      tag_201\n      jumpi\n        /* \"#utility.yul\":680:681   */\n      0x00\n        /* \"#utility.yul\":677:678   */\n      0x00\n        /* \"#utility.yul\":670:682   */\n      revert\n        /* \"#utility.yul\":621:684   */\n    tag_201:\n        /* \"#utility.yul\":568:690   */\n      pop\n      jump\t// out\n        /* \"#utility.yul\":696:835   */\n    tag_147:\n        /* \"#utility.yul\":742:747   */\n      0x00\n        /* \"#utility.yul\":780:786   */\n      dup2\n        /* \"#utility.yul\":767:787   */\n      calldataload\n        /* \"#utility.yul\":758:787   */\n      swap1\n      pop\n        /* \"#utility.yul\":796:829   */\n      tag_203\n        /* \"#utility.yul\":823:828   */\n      dup2\n        /* \"#utility.yul\":796:829   */\n      tag_146\n      jump\t// in\n    tag_203:\n        /* \"#utility.yul\":696:835   */\n      swap3\n      swap2\n      pop\n      pop\n      jump\t// out\n        /* \"#utility.yul\":841:918   */\n    tag_148:\n        /* \"#utility.yul\":878:885   */\n      0x00\n        /* \"#utility.yul\":907:912   */\n      dup2\n        /* \"#utility.yul\":896:912   */\n      swap1\n      pop\n        /* \"#utility.yul\":841:918   */\n      swap2\n      swap1\n      pop\n      jump\t// out\n        /* \"#utility.yul\":924:1046   */\n    tag_149:\n        /* \"#utility.yul\":997:1021   */\n      tag_206\n        /* \"#utility.yul\":1015:1020   */\n      dup2\n        /* \"#utility.yul\":997:1021   */\n      tag_148\n      jump\t// in\n    tag_206:\n        /* \"#utility.yul\":990:995   */\n      dup2\n        /* \"#utility.yul\":987:1022   */\n      eq\n        /* \"#utility.yul\":977:1040   */\n      tag_207\n      jumpi\n        /* \"#utility.yul\":1036:1037   */\n      0x00\n        /* \"#utility.yul\":1033:1034   */\n      0x00\n        /* \"#utility.yul\":1026:1038   */\n      revert\n        /* \"#utility.yul\":977:1040   */\n    tag_207:\n        /* \"#utility.yul\":924:1046   */\n      pop\n      jump\t// out\n        /* \"#utility.yul\":1052:1191   */\n    tag_150:\n        /* \"#utility.yul\":1098:1103   */\n      0x00\n        /* \"#utility.yul\":1136:1142   */\n      dup2\n        /* \"#utility.yul\":1123:1143   */\n      calldataload\n        /* \"#utility.yul\":1114:1143   */\n      swap1\n      pop\n        /* \"#utility.yul\":1152:1185   */\n      tag_209\n        /* \"#utility.yul\":1179:1184   */\n      dup2\n        /* \"#utility.yul\":1152:1185   */\n      tag_149\n      jump\t// in\n    tag_209:\n        /* \"#utility.yul\":1052:1191   */\n      swap3\n      swap2\n      pop\n      pop\n      jump\t// out\n        /* \"#utility.yul\":1197:1314   */\n    tag_151:\n        /* \"#utility.yul\":1306:1307   */\n      0x00\n        /* \"#utility.yul\":1303:1304   */\n      0x00\n        /* \"#utility.yul\":1296:1308   */\n      revert\n        /* \"#utility.yul\":1320:1437   */\n    tag_152:\n        /* \"#utility.yul\":1429:1430   */\n      0x00\n        /* \"#utility.yul\":1426:1427   */\n      0x00\n        /* \"#utility.yul\":1419:1431   */\n      revert\n        /* \"#utility.yul\":1443:1560   */\n    tag_153:\n        /* \"#utility.yul\":1552:1553   */\n      0x00\n        /* \"#utility.yul\":1549:1550   */\n      0x00\n        /* \"#utility.yul\":1542:1554   */\n      revert\n        /* \"#utility.yul\":1579:2131   */\n    tag_154:\n        /* \"#utility.yul\":1636:1644   */\n      0x00\n        /* \"#utility.yul\":1646:1652   */\n      0x00\n        /* \"#utility.yul\":1696:1699   */\n      dup4\n        /* \"#utility.yul\":1689:1693   */\n      0x1f\n        /* \"#utility.yul\":1681:1687   */\n      dup5\n        /* \"#utility.yul\":1677:1694   */\n      add\n        /* \"#utility.yul\":1673:1700   */\n      slt\n        /* \"#utility.yul\":1663:1785   */\n      tag_214\n      jumpi\n        /* \"#utility.yul\":1704:1783   */\n      tag_215\n      tag_151\n      jump\t// in\n    tag_215:\n        /* \"#utility.yul\":1663:1785   */\n    tag_214:\n        /* \"#utility.yul\":1817:1823   */\n      dup3\n        /* \"#utility.yul\":1804:1824   */\n      calldataload\n        /* \"#utility.yul\":1794:1824   */\n      swap1\n      pop\n        /* \"#utility.yul\":1847:1865   */\n      0xffffffffffffffff\n        /* \"#utility.yul\":1839:1845   */\n      dup2\n        /* \"#utility.yul\":1836:1866   */\n      gt\n        /* \"#utility.yul\":1833:1950   */\n      iszero\n      tag_216\n      jumpi\n        /* \"#utility.yul\":1869:1948   */\n      tag_217\n      tag_152\n      jump\t// in\n    tag_217:\n        /* \"#utility.yul\":1833:1950   */\n    tag_216:\n        /* \"#utility.yul\":1983:1987   */\n      0x20\n        /* \"#utility.yul\":1975:1981   */\n      dup4\n        /* \"#utility.yul\":1971:1988   */\n      add\n        /* \"#utility.yul\":1959:1988   */\n      swap2\n      pop\n        /* \"#utility.yul\":2037:2040   */\n      dup4\n        /* \"#utility.yul\":2029:2033   */\n      0x01\n        /* \"#utility.yul\":2021:2027   */\n      dup3\n        /* \"#utility.yul\":2017:2034   */\n      mul\n        /* \"#utility.yul\":2007:2015   */\n      dup4\n        /* \"#utility.yul\":2003:2035   */\n      add\n        /* \"#utility.yul\":2000:2041   */\n      gt\n        /* \"#utility.yul\":1997:2125   */\n      iszero\n      tag_218\n      jumpi\n        /* \"#utility.yul\":2044:2123   */\n      tag_219\n      tag_153\n      jump\t// in\n    tag_219:\n        /* \"#utility.yul\":1997:2125   */\n    tag_218:\n        /* \"#utility.yul\":1579:2131   */\n      swap3\n      pop\n      swap3\n      swap1\n      pop\n      jump\t// out\n        /* \"#utility.yul\":2137:3590   */\n    tag_13:\n        /* \"#utility.yul\":2263:2269   */\n      0x00\n        /* \"#utility.yul\":2271:2277   */\n      0x00\n        /* \"#utility.yul\":2279:2285   */\n      0x00\n        /* \"#utility.yul\":2287:2293   */\n      0x00\n        /* \"#utility.yul\":2295:2301   */\n      0x00\n        /* \"#utility.yul\":2303:2309   */\n      0x00\n        /* \"#utility.yul\":2311:2317   */\n      0x00\n        /* \"#utility.yul\":2319:2325   */\n      0x00\n        /* \"#utility.yul\":2368:2371   */\n      0xc0\n        /* \"#utility.yul\":2356:2365   */\n      dup10\n        /* \"#utility.yul\":2347:2354   */\n      dup12\n        /* \"#utility.yul\":2343:2366   */\n      sub\n        /* \"#utility.yul\":2339:2372   */\n      slt\n        /* \"#utility.yul\":2336:2456   */\n      iszero\n      tag_221\n      jumpi\n        /* \"#utility.yul\":2375:2454   */\n      tag_222\n      tag_142\n      jump\t// in\n    tag_222:\n        /* \"#utility.yul\":2336:2456   */\n    tag_221:\n        /* \"#utility.yul\":2495:2496   */\n      0x00\n        /* \"#utility.yul\":2520:2573   */\n      tag_223\n        /* \"#utility.yul\":2565:2572   */\n      dup12\n        /* \"#utility.yul\":2556:2562   */\n      dup3\n        /* \"#utility.yul\":2545:2554   */\n      dup13\n        /* \"#utility.yul\":2541:2563   */\n      add\n        /* \"#utility.yul\":2520:2573   */\n      tag_147\n      jump\t// in\n    tag_223:\n        /* \"#utility.yul\":2510:2573   */\n      swap9\n      pop\n        /* \"#utility.yul\":2466:2583   */\n      pop\n        /* \"#utility.yul\":2622:2624   */\n      0x20\n        /* \"#utility.yul\":2648:2701   */\n      tag_224\n        /* \"#utility.yul\":2693:2700   */\n      dup12\n        /* \"#utility.yul\":2684:2690   */\n      dup3\n        /* \"#utility.yul\":2673:2682   */\n      dup13\n        /* \"#utility.yul\":2669:2691   */\n      add\n        /* \"#utility.yul\":2648:2701   */\n      tag_147\n      jump\t// in\n    tag_224:\n        /* \"#utility.yul\":2638:2701   */\n      swap8\n      pop\n        /* \"#utility.yul\":2593:2711   */\n      pop\n        /* \"#utility.yul\":2750:2752   */\n      0x40\n        /* \"#utility.yul\":2776:2829   */\n      tag_225\n        /* \"#utility.yul\":2821:2828   */\n      dup12\n        /* \"#utility.yul\":2812:2818   */\n      dup3\n        /* \"#utility.yul\":2801:2810   */\n      dup13\n        /* \"#utility.yul\":2797:2819   */\n      add\n        /* \"#utility.yul\":2776:2829   */\n      tag_147\n      jump\t// in\n    tag_225:\n        /* \"#utility.yul\":2766:2829   */\n      swap7\n      pop\n        /* \"#utility.yul\":2721:2839   */\n      pop\n        /* \"#utility.yul\":2878:2880   */\n      0x60\n        /* \"#utility.yul\":2904:2957   */\n      tag_226\n        /* \"#utility.yul\":2949:2956   */\n      dup12\n        /* \"#utility.yul\":2940:2946   */\n      dup3\n        /* \"#utility.yul\":2929:2938   */\n      dup13\n        /* \"#utility.yul\":2925:2947   */\n      add\n        /* \"#utility.yul\":2904:2957   */\n      tag_150\n      jump\t// in\n    tag_226:\n        /* \"#utility.yul\":2894:2957   */\n      swap6\n      pop\n        /* \"#utility.yul\":2849:2967   */\n      pop\n        /* \"#utility.yul\":3034:3037   */\n      0x80\n        /* \"#utility.yul\":3023:3032   */\n      dup10\n        /* \"#utility.yul\":3019:3038   */\n      add\n        /* \"#utility.yul\":3006:3039   */\n      calldataload\n        /* \"#utility.yul\":3066:3084   */\n      0xffffffffffffffff\n        /* \"#utility.yul\":3058:3064   */\n      dup2\n        /* \"#utility.yul\":3055:3085   */\n      gt\n        /* \"#utility.yul\":3052:3169   */\n      iszero\n      tag_227\n      jumpi\n        /* \"#utility.yul\":3088:3167   */\n      tag_228\n      tag_143\n      jump\t// in\n    tag_228:\n        /* \"#utility.yul\":3052:3169   */\n    tag_227:\n        /* \"#utility.yul\":3201:3265   */\n      tag_229\n        /* \"#utility.yul\":3257:3264   */\n      dup12\n        /* \"#utility.yul\":3248:3254   */\n      dup3\n        /* \"#utility.yul\":3237:3246   */\n      dup13\n        /* \"#utility.yul\":3233:3255   */\n      add\n        /* \"#utility.yul\":3201:3265   */\n      tag_154\n      jump\t// in\n    tag_229:\n        /* \"#utility.yul\":3183:3265   */\n      swap5\n      pop\n      swap5\n      pop\n        /* \"#utility.yul\":2977:3275   */\n      pop\n        /* \"#utility.yul\":3342:3345   */\n      0xa0\n        /* \"#utility.yul\":3331:3340   */\n      dup10\n        /* \"#utility.yul\":3327:3346   */\n      add\n        /* \"#utility.yul\":3314:3347   */\n      calldataload\n        /* \"#utility.yul\":3374:3392   */\n      0xffffffffffffffff\n        /* \"#utility.yul\":3366:3372   */\n      dup2\n        /* \"#utility.yul\":3363:3393   */\n      gt\n        /* \"#utility.yul\":3360:3477   */\n      iszero\n      tag_230\n      jumpi\n        /* \"#utility.yul\":3396:3475   */\n      tag_231\n      tag_143\n      jump\t// in\n    tag_231:\n        /* \"#utility.yul\":3360:3477   */\n    tag_230:\n        /* \"#utility.yul\":3509:3573   */\n      tag_232\n        /* \"#utility.yul\":3565:3572   */\n      dup12\n        /* \"#utility.yul\":3556:3562   */\n      dup3\n        /* \"#utility.yul\":3545:3554   */\n      dup13\n        /* \"#utility.yul\":3541:3563   */\n      add\n        /* \"#utility.yul\":3509:3573   */\n      tag_154\n      jump\t// in\n    tag_232:\n        /* \"#utility.yul\":3491:3573   */\n      swap3\n      pop\n      swap3\n      pop\n        /* \"#utility.yul\":3285:3583   */\n      pop\n        /* \"#utility.yul\":2137:3590   */\n      swap3\n      swap6\n      swap9\n      pop\n      swap3\n      swap6\n      swap9\n      swap1\n      swap4\n      swap7\n      pop\n      jump\t// out\n        /* \"#utility.yul\":3596:3682   */\n    tag_155:\n        /* \"#utility.yul\":3631:3638   */\n      0x00\n        /* \"#utility.yul\":3671:3675   */\n      0xff\n        /* \"#utility.yul\":3664:3669   */\n      dup3\n        /* \"#utility.yul\":3660:3676   */\n      and\n        /* \"#utility.yul\":3649:3676   */\n      swap1\n      pop\n        /* \"#utility.yul\":3596:3682   */\n      swap2\n      swap1\n      pop\n      jump\t// out\n        /* \"#utility.yul\":3688:3806   */\n    tag_156:\n        /* \"#utility.yul\":3759:3781   */\n      tag_235\n        /* \"#utility.yul\":3775:3780   */\n      dup2\n        /* \"#utility.yul\":3759:3781   */\n      tag_155\n      jump\t// in\n    tag_235:\n        /* \"#utility.yul\":3752:3757   */\n      dup2\n        /* \"#utility.yul\":3749:3782   */\n      eq\n        /* \"#utility.yul\":3739:3800   */\n      tag_236\n      jumpi\n        /* \"#utility.yul\":3796:3797   */\n      0x00\n        /* \"#utility.yul\":3793:3794   */\n      0x00\n        /* \"#utility.yul\":3786:3798   */\n      revert\n        /* \"#utility.yul\":3739:3800   */\n    tag_236:\n        /* \"#utility.yul\":3688:3806   */\n      pop\n      jump\t// out\n        /* \"#utility.yul\":3812:3947   */\n    tag_157:\n        /* \"#utility.yul\":3856:3861   */\n      0x00\n        /* \"#utility.yul\":3894:3900   */\n      dup2\n        /* \"#utility.yul\":3881:3901   */\n      calldataload\n        /* \"#utility.yul\":3872:3901   */\n      swap1\n      pop\n        /* \"#utility.yul\":3910:3941   */\n      tag_238\n        /* \"#utility.yul\":3935:3940   */\n      dup2\n        /* \"#utility.yul\":3910:3941   */\n      tag_156\n      jump\t// in\n    tag_238:\n        /* \"#utility.yul\":3812:3947   */\n      swap3\n      swap2\n      pop\n      pop\n      jump\t// out\n        /* \"#utility.yul\":3953:4030   */\n    tag_158:\n        /* \"#utility.yul\":3990:3997   */\n      0x00\n        /* \"#utility.yul\":4019:4024   */\n      dup2\n        /* \"#utility.yul\":4008:4024   */\n      swap1\n      pop\n        /* \"#utility.yul\":3953:4030   */\n      swap2\n      swap1\n      pop\n      jump\t// out\n        /* \"#utility.yul\":4036:4158   */\n    tag_159:\n        /* \"#utility.yul\":4109:4133   */\n      tag_241\n        /* \"#utility.yul\":4127:4132   */\n      dup2\n        /* \"#utility.yul\":4109:4133   */\n      tag_158\n      jump\t// in\n    tag_241:\n        /* \"#utility.yul\":4102:4107   */\n      dup2\n        /* \"#utility.yul\":4099:4134   */\n      eq\n        /* \"#utility.yul\":4089:4152   */\n      tag_242\n      jumpi\n        /* \"#utility.yul\":4148:4149   */\n      0x00\n        /* \"#utility.yul\":4145:4146   */\n      0x00\n        /* \"#utility.yul\":4138:4150   */\n      revert\n        /* \"#utility.yul\":4089:4152   */\n    tag_242:\n        /* \"#utility.yul\":4036:4158   */\n      pop\n      jump\t// out\n        /* \"#utility.yul\":4164:4303   */\n    tag_160:\n        /* \"#utility.yul\":4210:4215   */\n      0x00\n        /* \"#utility.yul\":4248:4254   */\n      dup2\n        /* \"#utility.yul\":4235:4255   */\n      calldataload\n        /* \"#utility.yul\":4226:4255   */\n      swap1\n      pop\n        /* \"#utility.yul\":4264:4297   */\n      tag_244\n        /* \"#utility.yul\":4291:4296   */\n      dup2\n        /* \"#utility.yul\":4264:4297   */\n      tag_159\n      jump\t// in\n    tag_244:\n        /* \"#utility.yul\":4164:4303   */\n      swap3\n      swap2\n      pop\n      pop\n      jump\t// out\n        /* \"#utility.yul\":4309:5654   */\n    tag_17:\n        /* \"#utility.yul\":4429:4435   */\n      0x00\n        /* \"#utility.yul\":4437:4443   */\n      0x00\n        /* \"#utility.yul\":4445:4451   */\n      0x00\n        /* \"#utility.yul\":4453:4459   */\n      0x00\n        /* \"#utility.yul\":4461:4467   */\n      0x00\n        /* \"#utility.yul\":4469:4475   */\n      0x00\n        /* \"#utility.yul\":4477:4483   */\n      0x00\n        /* \"#utility.yul\":4485:4491   */\n      0x00\n        /* \"#utility.yul\":4534:4537   */\n      0x0100\n        /* \"#utility.yul\":4522:4531   */\n      dup10\n        /* \"#utility.yul\":4513:4520   */\n      dup12\n        /* \"#utility.yul\":4509:4532   */\n      sub\n        /* \"#utility.yul\":4505:4538   */\n      slt\n        /* \"#utility.yul\":4502:4622   */\n      iszero\n      tag_246\n      jumpi\n        /* \"#utility.yul\":4541:4620   */\n      tag_247\n      tag_142\n      jump\t// in\n    tag_247:\n        /* \"#utility.yul\":4502:4622   */\n    tag_246:\n        /* \"#utility.yul\":4661:4662   */\n      0x00\n        /* \"#utility.yul\":4686:4739   */\n      tag_248\n        /* \"#utility.yul\":4731:4738   */\n      dup12\n        /* \"#utility.yul\":4722:4728   */\n      dup3\n        /* \"#utility.yul\":4711:4720   */\n      dup13\n        /* \"#utility.yul\":4707:4729   */\n      add\n        /* \"#utility.yul\":4686:4739   */\n      tag_147\n      jump\t// in\n    tag_248:\n        /* \"#utility.yul\":4676:4739   */\n      swap9\n      pop\n        /* \"#utility.yul\":4632:4749   */\n      pop\n        /* \"#utility.yul\":4788:4790   */\n      0x20\n        /* \"#utility.yul\":4814:4867   */\n      tag_249\n        /* \"#utility.yul\":4859:4866   */\n      dup12\n        /* \"#utility.yul\":4850:4856   */\n      dup3\n        /* \"#utility.yul\":4839:4848   */\n      dup13\n        /* \"#utility.yul\":4835:4857   */\n      add\n        /* \"#utility.yul\":4814:4867   */\n      tag_147\n      jump\t// in\n    tag_249:\n        /* \"#utility.yul\":4804:4867   */\n      swap8\n      pop\n        /* \"#utility.yul\":4759:4877   */\n      pop\n        /* \"#utility.yul\":4916:4918   */\n      0x40\n        /* \"#utility.yul\":4942:4995   */\n      tag_250\n        /* \"#utility.yul\":4987:4994   */\n      dup12\n        /* \"#utility.yul\":4978:4984   */\n      dup3\n        /* \"#utility.yul\":4967:4976   */\n      dup13\n        /* \"#utility.yul\":4963:4985   */\n      add\n        /* \"#utility.yul\":4942:4995   */\n      tag_150\n      jump\t// in\n    tag_250:\n        /* \"#utility.yul\":4932:4995   */\n      swap7\n      pop\n        /* \"#utility.yul\":4887:5005   */\n      pop\n        /* \"#utility.yul\":5044:5046   */\n      0x60\n        /* \"#utility.yul\":5070:5123   */\n      tag_251\n        /* \"#utility.yul\":5115:5122   */\n      dup12\n        /* \"#utility.yul\":5106:5112   */\n      dup3\n        /* \"#utility.yul\":5095:5104   */\n      dup13\n        /* \"#utility.yul\":5091:5113   */\n      add\n        /* \"#utility.yul\":5070:5123   */\n      tag_147\n      jump\t// in\n    tag_251:\n        /* \"#utility.yul\":5060:5123   */\n      swap6\n      pop\n        /* \"#utility.yul\":5015:5133   */\n      pop\n        /* \"#utility.yul\":5172:5175   */\n      0x80\n        /* \"#utility.yul\":5199:5252   */\n      tag_252\n        /* \"#utility.yul\":5244:5251   */\n      dup12\n        /* \"#utility.yul\":5235:5241   */\n      dup3\n        /* \"#utility.yul\":5224:5233   */\n      dup13\n        /* \"#utility.yul\":5220:5242   */\n      add\n        /* \"#utility.yul\":5199:5252   */\n      tag_150\n      jump\t// in\n    tag_252:\n        /* \"#utility.yul\":5189:5252   */\n      swap5\n      pop\n        /* \"#utility.yul\":5143:5262   */\n      pop\n        /* \"#utility.yul\":5301:5304   */\n      0xa0\n        /* \"#utility.yul\":5328:5379   */\n      tag_253\n        /* \"#utility.yul\":5371:5378   */\n      dup12\n        /* \"#utility.yul\":5362:5368   */\n      dup3\n        /* \"#utility.yul\":5351:5360   */\n      dup13\n        /* \"#utility.yul\":5347:5369   */\n      add\n        /* \"#utility.yul\":5328:5379   */\n      tag_157\n      jump\t// in\n    tag_253:\n        /* \"#utility.yul\":5318:5379   */\n      swap4\n      pop\n        /* \"#utility.yul\":5272:5389   */\n      pop\n        /* \"#utility.yul\":5428:5431   */\n      0xc0\n        /* \"#utility.yul\":5455:5508   */\n      tag_254\n        /* \"#utility.yul\":5500:5507   */\n      dup12\n        /* \"#utility.yul\":5491:5497   */\n      dup3\n        /* \"#utility.yul\":5480:5489   */\n      dup13\n        /* \"#utility.yul\":5476:5498   */\n      add\n        /* \"#utility.yul\":5455:5508   */\n      tag_160\n      jump\t// in\n    tag_254:\n        /* \"#utility.yul\":5445:5508   */\n      swap3\n      pop\n        /* \"#utility.yul\":5399:5518   */\n      pop\n        /* \"#utility.yul\":5557:5560   */\n      0xe0\n        /* \"#utility.yul\":5584:5637   */\n      tag_255\n        /* \"#utility.yul\":5629:5636   */\n      dup12\n        /* \"#utility.yul\":5620:5626   */\n      dup3\n        /* \"#utility.yul\":5609:5618   */\n      dup13\n        /* \"#utility.yul\":5605:5627   */\n      add\n        /* \"#utility.yul\":5584:5637   */\n      tag_160\n      jump\t// in\n    tag_255:\n        /* \"#utility.yul\":5574:5637   */\n      swap2\n      pop\n        /* \"#utility.yul\":5528:5647   */\n      pop\n        /* \"#utility.yul\":4309:5654   */\n      swap3\n      swap6\n      swap9\n      pop\n      swap3\n      swap6\n      swap9\n      swap1\n      swap4\n      swap7\n      pop\n      jump\t// out\n        /* \"#utility.yul\":5660:5778   */\n    tag_161:\n        /* \"#utility.yul\":5747:5771   */\n      tag_257\n        /* \"#utility.yul\":5765:5770   */\n      dup2\n        /* \"#utility.yul\":5747:5771   */\n      tag_148\n      jump\t// in\n    tag_257:\n        /* \"#utility.yul\":5742:5745   */\n      dup3\n        /* \"#utility.yul\":5735:5772   */\n      mstore\n        /* \"#utility.yul\":5660:5778   */\n      pop\n      pop\n      jump\t// out\n        /* \"#utility.yul\":5784:6006   */\n    tag_20:\n        /* \"#utility.yul\":5877:5881   */\n      0x00\n        /* \"#utility.yul\":5915:5917   */\n      0x20\n        /* \"#utility.yul\":5904:5913   */\n      dup3\n        /* \"#utility.yul\":5900:5918   */\n      add\n        /* \"#utility.yul\":5892:5918   */\n      swap1\n      pop\n        /* \"#utility.yul\":5928:5999   */\n      tag_259\n        /* \"#utility.yul\":5996:5997   */\n      0x00\n        /* \"#utility.yul\":5985:5994   */\n      dup4\n        /* \"#utility.yul\":5981:5998   */\n      add\n        /* \"#utility.yul\":5972:5978   */\n      dup5\n        /* \"#utility.yul\":5928:5999   */\n      tag_161\n      jump\t// in\n    tag_259:\n        /* \"#utility.yul\":5784:6006   */\n      swap3\n      swap2\n      pop\n      pop\n      jump\t// out\n        /* \"#utility.yul\":6012:6631   */\n    tag_25:\n        /* \"#utility.yul\":6089:6095   */\n      0x00\n        /* \"#utility.yul\":6097:6103   */\n      0x00\n        /* \"#utility.yul\":6105:6111   */\n      0x00\n        /* \"#utility.yul\":6154:6156   */\n      0x60\n        /* \"#utility.yul\":6142:6151   */\n      dup5\n        /* \"#utility.yul\":6133:6140   */\n      dup7\n        /* \"#utility.yul\":6129:6152   */\n      sub\n        /* \"#utility.yul\":6125:6157   */\n      slt\n        /* \"#utility.yul\":6122:6241   */\n      iszero\n      tag_261\n      jumpi\n        /* \"#utility.yul\":6160:6239   */\n      tag_262\n      tag_142\n      jump\t// in\n    tag_262:\n        /* \"#utility.yul\":6122:6241   */\n    tag_261:\n        /* \"#utility.yul\":6280:6281   */\n      0x00\n        /* \"#utility.yul\":6305:6358   */\n      tag_263\n        /* \"#utility.yul\":6350:6357   */\n      dup7\n        /* \"#utility.yul\":6341:6347   */\n      dup3\n        /* \"#utility.yul\":6330:6339   */\n      dup8\n        /* \"#utility.yul\":6326:6348   */\n      add\n        /* \"#utility.yul\":6305:6358   */\n      tag_147\n      jump\t// in\n    tag_263:\n        /* \"#utility.yul\":6295:6358   */\n      swap4\n      pop\n        /* \"#utility.yul\":6251:6368   */\n      pop\n        /* \"#utility.yul\":6407:6409   */\n      0x20\n        /* \"#utility.yul\":6433:6486   */\n      tag_264\n        /* \"#utility.yul\":6478:6485   */\n      dup7\n        /* \"#utility.yul\":6469:6475   */\n      dup3\n        /* \"#utility.yul\":6458:6467   */\n      dup8\n        /* \"#utility.yul\":6454:6476   */\n      add\n        /* \"#utility.yul\":6433:6486   */\n      tag_147\n      jump\t// in\n    tag_264:\n        /* \"#utility.yul\":6423:6486   */\n      swap3\n      pop\n        /* \"#utility.yul\":6378:6496   */\n      pop\n        /* \"#utility.yul\":6535:6537   */\n      0x40\n        /* \"#utility.yul\":6561:6614   */\n      tag_265\n        /* \"#utility.yul\":6606:6613   */\n      dup7\n        /* \"#utility.yul\":6597:6603   */\n      dup3\n        /* \"#utility.yul\":6586:6595   */\n      dup8\n        /* \"#utility.yul\":6582:6604   */\n      add\n        /* \"#utility.yul\":6561:6614   */\n      tag_150\n      jump\t// in\n    tag_265:\n        /* \"#utility.yul\":6551:6614   */\n      swap2\n      pop\n        /* \"#utility.yul\":6506:6624   */\n      pop\n        /* \"#utility.yul\":6012:6631   */\n      swap3\n      pop\n      swap3\n      pop\n      swap3\n      jump\t// out\n        /* \"#utility.yul\":6637:7164   */\n    tag_30:\n        /* \"#utility.yul\":6707:6713   */\n      0x00\n        /* \"#utility.yul\":6715:6721   */\n      0x00\n        /* \"#utility.yul\":6764:6766   */\n      0x20\n        /* \"#utility.yul\":6752:6761   */\n      dup4\n        /* \"#utility.yul\":6743:6750   */\n      dup6\n        /* \"#utility.yul\":6739:6762   */\n      sub\n        /* \"#utility.yul\":6735:6767   */\n      slt\n        /* \"#utility.yul\":6732:6851   */\n      iszero\n      tag_267\n      jumpi\n        /* \"#utility.yul\":6770:6849   */\n      tag_268\n      tag_142\n      jump\t// in\n    tag_268:\n        /* \"#utility.yul\":6732:6851   */\n    tag_267:\n        /* \"#utility.yul\":6918:6919   */\n      0x00\n        /* \"#utility.yul\":6907:6916   */\n      dup4\n        /* \"#utility.yul\":6903:6920   */\n      add\n        /* \"#utility.yul\":6890:6921   */\n      calldataload\n        /* \"#utility.yul\":6948:6966   */\n      0xffffffffffffffff\n        /* \"#utility.yul\":6940:6946   */\n      dup2\n        /* \"#utility.yul\":6937:6967   */\n      gt\n        /* \"#utility.yul\":6934:7051   */\n      iszero\n      tag_269\n      jumpi\n        /* \"#utility.yul\":6970:7049   */\n      tag_270\n      tag_143\n      jump\t// in\n    tag_270:\n        /* \"#utility.yul\":6934:7051   */\n    tag_269:\n        /* \"#utility.yul\":7083:7147   */\n      tag_271\n        /* \"#utility.yul\":7139:7146   */\n      dup6\n        /* \"#utility.yul\":7130:7136   */\n      dup3\n        /* \"#utility.yul\":7119:7128   */\n      dup7\n        /* \"#utility.yul\":7115:7137   */\n      add\n        /* \"#utility.yul\":7083:7147   */\n      tag_154\n      jump\t// in\n    tag_271:\n        /* \"#utility.yul\":7065:7147   */\n      swap3\n      pop\n      swap3\n      pop\n        /* \"#utility.yul\":6861:7157   */\n      pop\n        /* \"#utility.yul\":6637:7164   */\n      swap3\n      pop\n      swap3\n      swap1\n      pop\n      jump\t// out\n        /* \"#utility.yul\":7170:7309   */\n    tag_162:\n        /* \"#utility.yul\":7262:7268   */\n      0x00\n        /* \"#utility.yul\":7296:7301   */\n      dup2\n        /* \"#utility.yul\":7290:7302   */\n      mload\n        /* \"#utility.yul\":7280:7302   */\n      swap1\n      pop\n        /* \"#utility.yul\":7170:7309   */\n      swap2\n      swap1\n      pop\n      jump\t// out\n        /* \"#utility.yul\":7315:7524   */\n    tag_163:\n        /* \"#utility.yul\":7439:7450   */\n      0x00\n        /* \"#utility.yul\":7473:7479   */\n      dup3\n        /* \"#utility.yul\":7468:7471   */\n      dup3\n        /* \"#utility.yul\":7461:7480   */\n      mstore\n        /* \"#utility.yul\":7513:7517   */\n      0x20\n        /* \"#utility.yul\":7508:7511   */\n      dup3\n        /* \"#utility.yul\":7504:7518   */\n      add\n        /* \"#utility.yul\":7489:7518   */\n      swap1\n      pop\n        /* \"#utility.yul\":7315:7524   */\n      swap3\n      swap2\n      pop\n      pop\n      jump\t// out\n        /* \"#utility.yul\":7530:7687   */\n    tag_164:\n        /* \"#utility.yul\":7622:7626   */\n      0x00\n        /* \"#utility.yul\":7645:7648   */\n      dup2\n        /* \"#utility.yul\":7637:7648   */\n      swap1\n      pop\n        /* \"#utility.yul\":7675:7679   */\n      0x20\n        /* \"#utility.yul\":7670:7673   */\n      dup3\n        /* \"#utility.yul\":7666:7680   */\n      add\n        /* \"#utility.yul\":7658:7680   */\n      swap1\n      pop\n        /* \"#utility.yul\":7530:7687   */\n      swap2\n      swap1\n      pop\n      jump\t// out\n        /* \"#utility.yul\":7693:7801   */\n    tag_165:\n        /* \"#utility.yul\":7770:7794   */\n      tag_276\n        /* \"#utility.yul\":7788:7793   */\n      dup2\n        /* \"#utility.yul\":7770:7794   */\n      tag_148\n      jump\t// in\n    tag_276:\n        /* \"#utility.yul\":7765:7768   */\n      dup3\n        /* \"#utility.yul\":7758:7795   */\n      mstore\n        /* \"#utility.yul\":7693:7801   */\n      pop\n      pop\n      jump\t// out\n        /* \"#utility.yul\":7847:8349   */\n    tag_166:\n        /* \"#utility.yul\":7984:7988   */\n      0x40\n        /* \"#utility.yul\":7979:7982   */\n      dup3\n        /* \"#utility.yul\":7975:7989   */\n      add\n        /* \"#utility.yul\":8074:8078   */\n      0x00\n        /* \"#utility.yul\":8067:8072   */\n      dup3\n        /* \"#utility.yul\":8063:8079   */\n      add\n        /* \"#utility.yul\":8057:8080   */\n      mload\n        /* \"#utility.yul\":8093:8156   */\n      tag_278\n        /* \"#utility.yul\":8150:8154   */\n      0x00\n        /* \"#utility.yul\":8145:8148   */\n      dup6\n        /* \"#utility.yul\":8141:8155   */\n      add\n        /* \"#utility.yul\":8127:8139   */\n      dup3\n        /* \"#utility.yul\":8093:8156   */\n      tag_165\n      jump\t// in\n    tag_278:\n        /* \"#utility.yul\":7999:8166   */\n      pop\n        /* \"#utility.yul\":8250:8254   */\n      0x20\n        /* \"#utility.yul\":8243:8248   */\n      dup3\n        /* \"#utility.yul\":8239:8255   */\n      add\n        /* \"#utility.yul\":8233:8256   */\n      mload\n        /* \"#utility.yul\":8269:8332   */\n      tag_279\n        /* \"#utility.yul\":8326:8330   */\n      0x20\n        /* \"#utility.yul\":8321:8324   */\n      dup6\n        /* \"#utility.yul\":8317:8331   */\n      add\n        /* \"#utility.yul\":8303:8315   */\n      dup3\n        /* \"#utility.yul\":8269:8332   */\n      tag_165\n      jump\t// in\n    tag_279:\n        /* \"#utility.yul\":8176:8342   */\n      pop\n        /* \"#utility.yul\":7953:8349   */\n      pop\n        /* \"#utility.yul\":7847:8349   */\n      pop\n      pop\n      jump\t// out\n        /* \"#utility.yul\":8355:8634   */\n    tag_167:\n        /* \"#utility.yul\":8474:8484   */\n      0x00\n        /* \"#utility.yul\":8495:8591   */\n      tag_281\n        /* \"#utility.yul\":8587:8590   */\n      dup4\n        /* \"#utility.yul\":8579:8585   */\n      dup4\n        /* \"#utility.yul\":8495:8591   */\n      tag_166\n      jump\t// in\n    tag_281:\n        /* \"#utility.yul\":8623:8627   */\n      0x40\n        /* \"#utility.yul\":8618:8621   */\n      dup4\n        /* \"#utility.yul\":8614:8628   */\n      add\n        /* \"#utility.yul\":8600:8628   */\n      swap1\n      pop\n        /* \"#utility.yul\":8355:8634   */\n      swap3\n      swap2\n      pop\n      pop\n      jump\t// out\n        /* \"#utility.yul\":8640:8778   */\n    tag_168:\n        /* \"#utility.yul\":8735:8739   */\n      0x00\n        /* \"#utility.yul\":8767:8771   */\n      0x20\n        /* \"#utility.yul\":8762:8765   */\n      dup3\n        /* \"#utility.yul\":8758:8772   */\n      add\n        /* \"#utility.yul\":8750:8772   */\n      swap1\n      pop\n        /* \"#utility.yul\":8640:8778   */\n      swap2\n      swap1\n      pop\n      jump\t// out\n        /* \"#utility.yul\":8828:9760   */\n    tag_169:\n        /* \"#utility.yul\":8997:9000   */\n      0x00\n        /* \"#utility.yul\":9026:9105   */\n      tag_284\n        /* \"#utility.yul\":9099:9104   */\n      dup3\n        /* \"#utility.yul\":9026:9105   */\n      tag_162\n      jump\t// in\n    tag_284:\n        /* \"#utility.yul\":9121:9232   */\n      tag_285\n        /* \"#utility.yul\":9225:9231   */\n      dup2\n        /* \"#utility.yul\":9220:9223   */\n      dup6\n        /* \"#utility.yul\":9121:9232   */\n      tag_163\n      jump\t// in\n    tag_285:\n        /* \"#utility.yul\":9114:9232   */\n      swap4\n      pop\n        /* \"#utility.yul\":9256:9337   */\n      tag_286\n        /* \"#utility.yul\":9331:9336   */\n      dup4\n        /* \"#utility.yul\":9256:9337   */\n      tag_164\n      jump\t// in\n    tag_286:\n        /* \"#utility.yul\":9360:9367   */\n      dup1\n        /* \"#utility.yul\":9391:9392   */\n      0x00\n        /* \"#utility.yul\":9376:9735   */\n    tag_287:\n        /* \"#utility.yul\":9401:9407   */\n      dup4\n        /* \"#utility.yul\":9398:9399   */\n      dup2\n        /* \"#utility.yul\":9395:9408   */\n      lt\n        /* \"#utility.yul\":9376:9735   */\n      iszero\n      tag_289\n      jumpi\n        /* \"#utility.yul\":9477:9483   */\n      dup2\n        /* \"#utility.yul\":9471:9484   */\n      mload\n        /* \"#utility.yul\":9504:9617   */\n      tag_290\n        /* \"#utility.yul\":9613:9616   */\n      dup9\n        /* \"#utility.yul\":9598:9611   */\n      dup3\n        /* \"#utility.yul\":9504:9617   */\n      tag_167\n      jump\t// in\n    tag_290:\n        /* \"#utility.yul\":9497:9617   */\n      swap8\n      pop\n        /* \"#utility.yul\":9640:9725   */\n      tag_291\n        /* \"#utility.yul\":9718:9724   */\n      dup4\n        /* \"#utility.yul\":9640:9725   */\n      tag_168\n      jump\t// in\n    tag_291:\n        /* \"#utility.yul\":9630:9725   */\n      swap3\n      pop\n        /* \"#utility.yul\":9436:9735   */\n      pop\n        /* \"#utility.yul\":9423:9424   */\n      0x01\n        /* \"#utility.yul\":9420:9421   */\n      dup2\n        /* \"#utility.yul\":9416:9425   */\n      add\n        /* \"#utility.yul\":9411:9425   */\n      swap1\n      pop\n        /* \"#utility.yul\":9376:9735   */\n      jump(tag_287)\n    tag_289:\n        /* \"#utility.yul\":9380:9394   */\n      pop\n        /* \"#utility.yul\":9751:9754   */\n      dup6\n        /* \"#utility.yul\":9744:9754   */\n      swap4\n      pop\n        /* \"#utility.yul\":9002:9760   */\n      pop\n      pop\n      pop\n        /* \"#utility.yul\":8828:9760   */\n      swap3\n      swap2\n      pop\n      pop\n      jump\t// out\n        /* \"#utility.yul\":9766:11323   */\n    tag_33:\n        /* \"#utility.yul\":10343:10347   */\n      0x00\n        /* \"#utility.yul\":10381:10384   */\n      0x80\n        /* \"#utility.yul\":10370:10379   */\n      dup3\n        /* \"#utility.yul\":10366:10385   */\n      add\n        /* \"#utility.yul\":10358:10385   */\n      swap1\n      pop\n        /* \"#utility.yul\":10431:10440   */\n      dup2\n        /* \"#utility.yul\":10425:10429   */\n      dup2\n        /* \"#utility.yul\":10421:10441   */\n      sub\n        /* \"#utility.yul\":10417:10418   */\n      0x00\n        /* \"#utility.yul\":10406:10415   */\n      dup4\n        /* \"#utility.yul\":10402:10419   */\n      add\n        /* \"#utility.yul\":10395:10442   */\n      mstore\n        /* \"#utility.yul\":10459:10617   */\n      tag_293\n        /* \"#utility.yul\":10612:10616   */\n      dup2\n        /* \"#utility.yul\":10603:10609   */\n      dup8\n        /* \"#utility.yul\":10459:10617   */\n      tag_169\n      jump\t// in\n    tag_293:\n        /* \"#utility.yul\":10451:10617   */\n      swap1\n      pop\n        /* \"#utility.yul\":10664:10673   */\n      dup2\n        /* \"#utility.yul\":10658:10662   */\n      dup2\n        /* \"#utility.yul\":10654:10674   */\n      sub\n        /* \"#utility.yul\":10649:10651   */\n      0x20\n        /* \"#utility.yul\":10638:10647   */\n      dup4\n        /* \"#utility.yul\":10634:10652   */\n      add\n        /* \"#utility.yul\":10627:10675   */\n      mstore\n        /* \"#utility.yul\":10692:10850   */\n      tag_294\n        /* \"#utility.yul\":10845:10849   */\n      dup2\n        /* \"#utility.yul\":10836:10842   */\n      dup7\n        /* \"#utility.yul\":10692:10850   */\n      tag_169\n      jump\t// in\n    tag_294:\n        /* \"#utility.yul\":10684:10850   */\n      swap1\n      pop\n        /* \"#utility.yul\":10897:10906   */\n      dup2\n        /* \"#utility.yul\":10891:10895   */\n      dup2\n        /* \"#utility.yul\":10887:10907   */\n      sub\n        /* \"#utility.yul\":10882:10884   */\n      0x40\n        /* \"#utility.yul\":10871:10880   */\n      dup4\n        /* \"#utility.yul\":10867:10885   */\n      add\n        /* \"#utility.yul\":10860:10908   */\n      mstore\n        /* \"#utility.yul\":10925:11083   */\n      tag_295\n        /* \"#utility.yul\":11078:11082   */\n      dup2\n        /* \"#utility.yul\":11069:11075   */\n      dup6\n        /* \"#utility.yul\":10925:11083   */\n      tag_169\n      jump\t// in\n    tag_295:\n        /* \"#utility.yul\":10917:11083   */\n      swap1\n      pop\n        /* \"#utility.yul\":11130:11139   */\n      dup2\n        /* \"#utility.yul\":11124:11128   */\n      dup2\n        /* \"#utility.yul\":11120:11140   */\n      sub\n        /* \"#utility.yul\":11115:11117   */\n      0x60\n        /* \"#utility.yul\":11104:11113   */\n      dup4\n        /* \"#utility.yul\":11100:11118   */\n      add\n        /* \"#utility.yul\":11093:11141   */\n      mstore\n        /* \"#utility.yul\":11158:11316   */\n      tag_296\n        /* \"#utility.yul\":11311:11315   */\n      dup2\n        /* \"#utility.yul\":11302:11308   */\n      dup5\n        /* \"#utility.yul\":11158:11316   */\n      tag_169\n      jump\t// in\n    tag_296:\n        /* \"#utility.yul\":11150:11316   */\n      swap1\n      pop\n        /* \"#utility.yul\":9766:11323   */\n      swap6\n      swap5\n      pop\n      pop\n      pop\n      pop\n      pop\n      jump\t// out\n        /* \"#utility.yul\":11329:12146   */\n    tag_36:\n        /* \"#utility.yul\":11417:11423   */\n      0x00\n        /* \"#utility.yul\":11425:11431   */\n      0x00\n        /* \"#utility.yul\":11433:11439   */\n      0x00\n        /* \"#utility.yul\":11441:11447   */\n      0x00\n        /* \"#utility.yul\":11490:11492   */\n      0x60\n        /* \"#utility.yul\":11478:11487   */\n      dup6\n        /* \"#utility.yul\":11469:11476   */\n      dup8\n        /* \"#utility.yul\":11465:11488   */\n      sub\n        /* \"#utility.yul\":11461:11493   */\n      slt\n        /* \"#utility.yul\":11458:11577   */\n      iszero\n      tag_298\n      jumpi\n        /* \"#utility.yul\":11496:11575   */\n      tag_299\n      tag_142\n      jump\t// in\n    tag_299:\n        /* \"#utility.yul\":11458:11577   */\n    tag_298:\n        /* \"#utility.yul\":11616:11617   */\n      0x00\n        /* \"#utility.yul\":11641:11694   */\n      tag_300\n        /* \"#utility.yul\":11686:11693   */\n      dup8\n        /* \"#utility.yul\":11677:11683   */\n      dup3\n        /* \"#utility.yul\":11666:11675   */\n      dup9\n        /* \"#utility.yul\":11662:11684   */\n      add\n        /* \"#utility.yul\":11641:11694   */\n      tag_147\n      jump\t// in\n    tag_300:\n        /* \"#utility.yul\":11631:11694   */\n      swap5\n      pop\n        /* \"#utility.yul\":11587:11704   */\n      pop\n        /* \"#utility.yul\":11743:11745   */\n      0x20\n        /* \"#utility.yul\":11769:11822   */\n      tag_301\n        /* \"#utility.yul\":11814:11821   */\n      dup8\n        /* \"#utility.yul\":11805:11811   */\n      dup3\n        /* \"#utility.yul\":11794:11803   */\n      dup9\n        /* \"#utility.yul\":11790:11812   */\n      add\n        /* \"#utility.yul\":11769:11822   */\n      tag_147\n      jump\t// in\n    tag_301:\n        /* \"#utility.yul\":11759:11822   */\n      swap4\n      pop\n        /* \"#utility.yul\":11714:11832   */\n      pop\n        /* \"#utility.yul\":11899:11901   */\n      0x40\n        /* \"#utility.yul\":11888:11897   */\n      dup6\n        /* \"#utility.yul\":11884:11902   */\n      add\n        /* \"#utility.yul\":11871:11903   */\n      calldataload\n        /* \"#utility.yul\":11930:11948   */\n      0xffffffffffffffff\n        /* \"#utility.yul\":11922:11928   */\n      dup2\n        /* \"#utility.yul\":11919:11949   */\n      gt\n        /* \"#utility.yul\":11916:12033   */\n      iszero\n      tag_302\n      jumpi\n        /* \"#utility.yul\":11952:12031   */\n      tag_303\n      tag_143\n      jump\t// in\n    tag_303:\n        /* \"#utility.yul\":11916:12033   */\n    tag_302:\n        /* \"#utility.yul\":12065:12129   */\n      tag_304\n        /* \"#utility.yul\":12121:12128   */\n      dup8\n        /* \"#utility.yul\":12112:12118   */\n      dup3\n        /* \"#utility.yul\":12101:12110   */\n      dup9\n        /* \"#utility.yul\":12097:12119   */\n      add\n        /* \"#utility.yul\":12065:12129   */\n      tag_154\n      jump\t// in\n    tag_304:\n        /* \"#utility.yul\":12047:12129   */\n      swap3\n      pop\n      swap3\n      pop\n        /* \"#utility.yul\":11842:12139   */\n      pop\n        /* \"#utility.yul\":11329:12146   */\n      swap3\n      swap6\n      swap2\n      swap5\n      pop\n      swap3\n      pop\n      jump\t// out\n        /* \"#utility.yul\":12152:12212   */\n    tag_170:\n        /* \"#utility.yul\":12180:12183   */\n      0x00\n        /* \"#utility.yul\":12201:12206   */\n      dup2\n        /* \"#utility.yul\":12194:12206   */\n      swap1\n      pop\n        /* \"#utility.yul\":12152:12212   */\n      swap2\n      swap1\n      pop\n      jump\t// out\n        /* \"#utility.yul\":12218:12360   */\n    tag_171:\n        /* \"#utility.yul\":12268:12277   */\n      0x00\n        /* \"#utility.yul\":12301:12354   */\n      tag_307\n        /* \"#utility.yul\":12319:12353   */\n      tag_308\n        /* \"#utility.yul\":12328:12352   */\n      tag_309\n        /* \"#utility.yul\":12346:12351   */\n      dup5\n        /* \"#utility.yul\":12328:12352   */\n      tag_144\n      jump\t// in\n    tag_309:\n        /* \"#utility.yul\":12319:12353   */\n      tag_170\n      jump\t// in\n    tag_308:\n        /* \"#utility.yul\":12301:12354   */\n      tag_144\n      jump\t// in\n    tag_307:\n        /* \"#utility.yul\":12288:12354   */\n      swap1\n      pop\n        /* \"#utility.yul\":12218:12360   */\n      swap2\n      swap1\n      pop\n      jump\t// out\n        /* \"#utility.yul\":12366:12492   */\n    tag_172:\n        /* \"#utility.yul\":12416:12425   */\n      0x00\n        /* \"#utility.yul\":12449:12486   */\n      tag_311\n        /* \"#utility.yul\":12480:12485   */\n      dup3\n        /* \"#utility.yul\":12449:12486   */\n      tag_171\n      jump\t// in\n    tag_311:\n        /* \"#utility.yul\":12436:12486   */\n      swap1\n      pop\n        /* \"#utility.yul\":12366:12492   */\n      swap2\n      swap1\n      pop\n      jump\t// out\n        /* \"#utility.yul\":12498:12650   */\n    tag_173:\n        /* \"#utility.yul\":12574:12583   */\n      0x00\n        /* \"#utility.yul\":12607:12644   */\n      tag_313\n        /* \"#utility.yul\":12638:12643   */\n      dup3\n        /* \"#utility.yul\":12607:12644   */\n      tag_172\n      jump\t// in\n    tag_313:\n        /* \"#utility.yul\":12594:12644   */\n      swap1\n      pop\n        /* \"#utility.yul\":12498:12650   */\n      swap2\n      swap1\n      pop\n      jump\t// out\n        /* \"#utility.yul\":12656:12839   */\n    tag_174:\n        /* \"#utility.yul\":12769:12832   */\n      tag_315\n        /* \"#utility.yul\":12826:12831   */\n      dup2\n        /* \"#utility.yul\":12769:12832   */\n      tag_173\n      jump\t// in\n    tag_315:\n        /* \"#utility.yul\":12764:12767   */\n      dup3\n        /* \"#utility.yul\":12757:12833   */\n      mstore\n        /* \"#utility.yul\":12656:12839   */\n      pop\n      pop\n      jump\t// out\n        /* \"#utility.yul\":12845:13119   */\n    tag_42:\n        /* \"#utility.yul\":12964:12968   */\n      0x00\n        /* \"#utility.yul\":13002:13004   */\n      0x20\n        /* \"#utility.yul\":12991:13000   */\n      dup3\n        /* \"#utility.yul\":12987:13005   */\n      add\n        /* \"#utility.yul\":12979:13005   */\n      swap1\n      pop\n        /* \"#utility.yul\":13015:13112   */\n      tag_317\n        /* \"#utility.yul\":13109:13110   */\n      0x00\n        /* \"#utility.yul\":13098:13107   */\n      dup4\n        /* \"#utility.yul\":13094:13111   */\n      add\n        /* \"#utility.yul\":13085:13091   */\n      dup5\n        /* \"#utility.yul\":13015:13112   */\n      tag_174\n      jump\t// in\n    tag_317:\n        /* \"#utility.yul\":12845:13119   */\n      swap3\n      swap2\n      pop\n      pop\n      jump\t// out\n        /* \"#utility.yul\":13125:13305   */\n    tag_175:\n        /* \"#utility.yul\":13173:13250   */\n      0x4e487b7100000000000000000000000000000000000000000000000000000000\n        /* \"#utility.yul\":13170:13171   */\n      0x00\n        /* \"#utility.yul\":13163:13251   */\n      mstore\n        /* \"#utility.yul\":13270:13274   */\n      0x11\n        /* \"#utility.yul\":13267:13268   */\n      0x04\n        /* \"#utility.yul\":13260:13275   */\n      mstore\n        /* \"#utility.yul\":13294:13298   */\n      0x24\n        /* \"#utility.yul\":13291:13292   */\n      0x00\n        /* \"#utility.yul\":13284:13299   */\n      revert\n        /* \"#utility.yul\":13311:13502   */\n    tag_51:\n        /* \"#utility.yul\":13351:13354   */\n      0x00\n        /* \"#utility.yul\":13370:13390   */\n      tag_320\n        /* \"#utility.yul\":13388:13389   */\n      dup3\n        /* \"#utility.yul\":13370:13390   */\n      tag_148\n      jump\t// in\n    tag_320:\n        /* \"#utility.yul\":13365:13390   */\n      swap2\n      pop\n        /* \"#utility.yul\":13404:13424   */\n      tag_321\n        /* \"#utility.yul\":13422:13423   */\n      dup4\n        /* \"#utility.yul\":13404:13424   */\n      tag_148\n      jump\t// in\n    tag_321:\n        /* \"#utility.yul\":13399:13424   */\n      swap3\n      pop\n        /* \"#utility.yul\":13447:13448   */\n      dup3\n        /* \"#utility.yul\":13444:13445   */\n      dup3\n        /* \"#utility.yul\":13440:13449   */\n      add\n        /* \"#utility.yul\":13433:13449   */\n      swap1\n      pop\n        /* \"#utility.yul\":13468:13471   */\n      dup1\n        /* \"#utility.yul\":13465:13466   */\n      dup3\n        /* \"#utility.yul\":13462:13472   */\n      gt\n        /* \"#utility.yul\":13459:13495   */\n      iszero\n      tag_322\n      jumpi\n        /* \"#utility.yul\":13475:13493   */\n      tag_323\n      tag_175\n      jump\t// in\n    tag_323:\n        /* \"#utility.yul\":13459:13495   */\n    tag_322:\n        /* \"#utility.yul\":13311:13502   */\n      swap3\n      swap2\n      pop\n      pop\n      jump\t// out\n        /* \"#utility.yul\":13508:13612   */\n    tag_176:\n        /* \"#utility.yul\":13553:13560   */\n      0x00\n        /* \"#utility.yul\":13582:13606   */\n      tag_325\n        /* \"#utility.yul\":13600:13605   */\n      dup3\n        /* \"#utility.yul\":13582:13606   */\n      tag_144\n      jump\t// in\n    tag_325:\n        /* \"#utility.yul\":13571:13606   */\n      swap1\n      pop\n        /* \"#utility.yul\":13508:13612   */\n      swap2\n      swap1\n      pop\n      jump\t// out\n        /* \"#utility.yul\":13618:13756   */\n    tag_177:\n        /* \"#utility.yul\":13699:13731   */\n      tag_327\n        /* \"#utility.yul\":13725:13730   */\n      dup2\n        /* \"#utility.yul\":13699:13731   */\n      tag_176\n      jump\t// in\n    tag_327:\n        /* \"#utility.yul\":13692:13697   */\n      dup2\n        /* \"#utility.yul\":13689:13732   */\n      eq\n        /* \"#utility.yul\":13679:13750   */\n      tag_328\n      jumpi\n        /* \"#utility.yul\":13746:13747   */\n      0x00\n        /* \"#utility.yul\":13743:13744   */\n      0x00\n        /* \"#utility.yul\":13736:13748   */\n      revert\n        /* \"#utility.yul\":13679:13750   */\n    tag_328:\n        /* \"#utility.yul\":13618:13756   */\n      pop\n      jump\t// out\n        /* \"#utility.yul\":13762:13917   */\n    tag_178:\n        /* \"#utility.yul\":13816:13821   */\n      0x00\n        /* \"#utility.yul\":13854:13860   */\n      dup2\n        /* \"#utility.yul\":13841:13861   */\n      calldataload\n        /* \"#utility.yul\":13832:13861   */\n      swap1\n      pop\n        /* \"#utility.yul\":13870:13911   */\n      tag_330\n        /* \"#utility.yul\":13905:13910   */\n      dup2\n        /* \"#utility.yul\":13870:13911   */\n      tag_177\n      jump\t// in\n    tag_330:\n        /* \"#utility.yul\":13762:13917   */\n      swap3\n      swap2\n      pop\n      pop\n      jump\t// out\n        /* \"#utility.yul\":13923:14268   */\n    tag_55:\n        /* \"#utility.yul\":13990:13996   */\n      0x00\n        /* \"#utility.yul\":14039:14041   */\n      0x20\n        /* \"#utility.yul\":14027:14036   */\n      dup3\n        /* \"#utility.yul\":14018:14025   */\n      dup5\n        /* \"#utility.yul\":14014:14037   */\n      sub\n        /* \"#utility.yul\":14010:14042   */\n      slt\n        /* \"#utility.yul\":14007:14126   */\n      iszero\n      tag_332\n      jumpi\n        /* \"#utility.yul\":14045:14124   */\n      tag_333\n      tag_142\n      jump\t// in\n    tag_333:\n        /* \"#utility.yul\":14007:14126   */\n    tag_332:\n        /* \"#utility.yul\":14165:14166   */\n      0x00\n        /* \"#utility.yul\":14190:14251   */\n      tag_334\n        /* \"#utility.yul\":14243:14250   */\n      dup5\n        /* \"#utility.yul\":14234:14240   */\n      dup3\n        /* \"#utility.yul\":14223:14232   */\n      dup6\n        /* \"#utility.yul\":14219:14241   */\n      add\n        /* \"#utility.yul\":14190:14251   */\n      tag_178\n      jump\t// in\n    tag_334:\n        /* \"#utility.yul\":14180:14251   */\n      swap2\n      pop\n        /* \"#utility.yul\":14136:14261   */\n      pop\n        /* \"#utility.yul\":13923:14268   */\n      swap3\n      swap2\n      pop\n      pop\n      jump\t// out\n        /* \"#utility.yul\":14274:14392   */\n    tag_179:\n        /* \"#utility.yul\":14361:14385   */\n      tag_336\n        /* \"#utility.yul\":14379:14384   */\n      dup2\n        /* \"#utility.yul\":14361:14385   */\n      tag_145\n      jump\t// in\n    tag_336:\n        /* \"#utility.yul\":14356:14359   */\n      dup3\n        /* \"#utility.yul\":14349:14386   */\n      mstore\n        /* \"#utility.yul\":14274:14392   */\n      pop\n      pop\n      jump\t// out\n        /* \"#utility.yul\":14398:14840   */\n    tag_57:\n        /* \"#utility.yul\":14547:14551   */\n      0x00\n        /* \"#utility.yul\":14585:14587   */\n      0x60\n        /* \"#utility.yul\":14574:14583   */\n      dup3\n        /* \"#utility.yul\":14570:14588   */\n      add\n        /* \"#utility.yul\":14562:14588   */\n      swap1\n      pop\n        /* \"#utility.yul\":14598:14669   */\n      tag_338\n        /* \"#utility.yul\":14666:14667   */\n      0x00\n        /* \"#utility.yul\":14655:14664   */\n      dup4\n        /* \"#utility.yul\":14651:14668   */\n      add\n        /* \"#utility.yul\":14642:14648   */\n      dup7\n        /* \"#utility.yul\":14598:14669   */\n      tag_179\n      jump\t// in\n    tag_338:\n        /* \"#utility.yul\":14679:14751   */\n      tag_339\n        /* \"#utility.yul\":14747:14749   */\n      0x20\n        /* \"#utility.yul\":14736:14745   */\n      dup4\n        /* \"#utility.yul\":14732:14750   */\n      add\n        /* \"#utility.yul\":14723:14729   */\n      dup6\n        /* \"#utility.yul\":14679:14751   */\n      tag_161\n      jump\t// in\n    tag_339:\n        /* \"#utility.yul\":14761:14833   */\n      tag_340\n        /* \"#utility.yul\":14829:14831   */\n      0x40\n        /* \"#utility.yul\":14818:14827   */\n      dup4\n        /* \"#utility.yul\":14814:14832   */\n      add\n        /* \"#utility.yul\":14805:14811   */\n      dup5\n        /* \"#utility.yul\":14761:14833   */\n      tag_161\n      jump\t// in\n    tag_340:\n        /* \"#utility.yul\":14398:14840   */\n      swap5\n      swap4\n      pop\n      pop\n      pop\n      pop\n      jump\t// out\n        /* \"#utility.yul\":14846:14958   */\n    tag_180:\n        /* \"#utility.yul\":14929:14951   */\n      tag_342\n        /* \"#utility.yul\":14945:14950   */\n      dup2\n        /* \"#utility.yul\":14929:14951   */\n      tag_155\n      jump\t// in\n    tag_342:\n        /* \"#utility.yul\":14924:14927   */\n      dup3\n        /* \"#utility.yul\":14917:14952   */\n      mstore\n        /* \"#utility.yul\":14846:14958   */\n      pop\n      pop\n      jump\t// out\n        /* \"#utility.yul\":14964:15082   */\n    tag_181:\n        /* \"#utility.yul\":15051:15075   */\n      tag_344\n        /* \"#utility.yul\":15069:15074   */\n      dup2\n        /* \"#utility.yul\":15051:15075   */\n      tag_158\n      jump\t// in\n    tag_344:\n        /* \"#utility.yul\":15046:15049   */\n      dup3\n        /* \"#utility.yul\":15039:15076   */\n      mstore\n        /* \"#utility.yul\":14964:15082   */\n      pop\n      pop\n      jump\t// out\n        /* \"#utility.yul\":15088:15966   */\n    tag_65:\n        /* \"#utility.yul\":15345:15349   */\n      0x00\n        /* \"#utility.yul\":15383:15386   */\n      0xe0\n        /* \"#utility.yul\":15372:15381   */\n      dup3\n        /* \"#utility.yul\":15368:15387   */\n      add\n        /* \"#utility.yul\":15360:15387   */\n      swap1\n      pop\n        /* \"#utility.yul\":15397:15468   */\n      tag_346\n        /* \"#utility.yul\":15465:15466   */\n      0x00\n        /* \"#utility.yul\":15454:15463   */\n      dup4\n        /* \"#utility.yul\":15450:15467   */\n      add\n        /* \"#utility.yul\":15441:15447   */\n      dup11\n        /* \"#utility.yul\":15397:15468   */\n      tag_179\n      jump\t// in\n    tag_346:\n        /* \"#utility.yul\":15478:15550   */\n      tag_347\n        /* \"#utility.yul\":15546:15548   */\n      0x20\n        /* \"#utility.yul\":15535:15544   */\n      dup4\n        /* \"#utility.yul\":15531:15549   */\n      add\n        /* \"#utility.yul\":15522:15528   */\n      dup10\n        /* \"#utility.yul\":15478:15550   */\n      tag_179\n      jump\t// in\n    tag_347:\n        /* \"#utility.yul\":15560:15632   */\n      tag_348\n        /* \"#utility.yul\":15628:15630   */\n      0x40\n        /* \"#utility.yul\":15617:15626   */\n      dup4\n        /* \"#utility.yul\":15613:15631   */\n      add\n        /* \"#utility.yul\":15604:15610   */\n      dup9\n        /* \"#utility.yul\":15560:15632   */\n      tag_161\n      jump\t// in\n    tag_348:\n        /* \"#utility.yul\":15642:15714   */\n      tag_349\n        /* \"#utility.yul\":15710:15712   */\n      0x60\n        /* \"#utility.yul\":15699:15708   */\n      dup4\n        /* \"#utility.yul\":15695:15713   */\n      add\n        /* \"#utility.yul\":15686:15692   */\n      dup8\n        /* \"#utility.yul\":15642:15714   */\n      tag_161\n      jump\t// in\n    tag_349:\n        /* \"#utility.yul\":15724:15793   */\n      tag_350\n        /* \"#utility.yul\":15788:15791   */\n      0x80\n        /* \"#utility.yul\":15777:15786   */\n      dup4\n        /* \"#utility.yul\":15773:15792   */\n      add\n        /* \"#utility.yul\":15764:15770   */\n      dup7\n        /* \"#utility.yul\":15724:15793   */\n      tag_180\n      jump\t// in\n    tag_350:\n        /* \"#utility.yul\":15803:15876   */\n      tag_351\n        /* \"#utility.yul\":15871:15874   */\n      0xa0\n        /* \"#utility.yul\":15860:15869   */\n      dup4\n        /* \"#utility.yul\":15856:15875   */\n      add\n        /* \"#utility.yul\":15847:15853   */\n      dup6\n        /* \"#utility.yul\":15803:15876   */\n      tag_181\n      jump\t// in\n    tag_351:\n        /* \"#utility.yul\":15886:15959   */\n      tag_352\n        /* \"#utility.yul\":15954:15957   */\n      0xc0\n        /* \"#utility.yul\":15943:15952   */\n      dup4\n        /* \"#utility.yul\":15939:15958   */\n      add\n        /* \"#utility.yul\":15930:15936   */\n      dup5\n        /* \"#utility.yul\":15886:15959   */\n      tag_181\n      jump\t// in\n    tag_352:\n        /* \"#utility.yul\":15088:15966   */\n      swap9\n      swap8\n      pop\n      pop\n      pop\n      pop\n      pop\n      pop\n      pop\n      pop\n      jump\t// out\n        /* \"#utility.yul\":15972:16414   */\n    tag_73:\n        /* \"#utility.yul\":16121:16125   */\n      0x00\n        /* \"#utility.yul\":16159:16161   */\n      0x60\n        /* \"#utility.yul\":16148:16157   */\n      dup3\n        /* \"#utility.yul\":16144:16162   */\n      add\n        /* \"#utility.yul\":16136:16162   */\n      swap1\n      pop\n        /* \"#utility.yul\":16172:16243   */\n      tag_354\n        /* \"#utility.yul\":16240:16241   */\n      0x00\n        /* \"#utility.yul\":16229:16238   */\n      dup4\n        /* \"#utility.yul\":16225:16242   */\n      add\n        /* \"#utility.yul\":16216:16222   */\n      dup7\n        /* \"#utility.yul\":16172:16243   */\n      tag_179\n      jump\t// in\n    tag_354:\n        /* \"#utility.yul\":16253:16325   */\n      tag_355\n        /* \"#utility.yul\":16321:16323   */\n      0x20\n        /* \"#utility.yul\":16310:16319   */\n      dup4\n        /* \"#utility.yul\":16306:16324   */\n      add\n        /* \"#utility.yul\":16297:16303   */\n      dup6\n        /* \"#utility.yul\":16253:16325   */\n      tag_181\n      jump\t// in\n    tag_355:\n        /* \"#utility.yul\":16335:16407   */\n      tag_356\n        /* \"#utility.yul\":16403:16405   */\n      0x40\n        /* \"#utility.yul\":16392:16401   */\n      dup4\n        /* \"#utility.yul\":16388:16406   */\n      add\n        /* \"#utility.yul\":16379:16385   */\n      dup5\n        /* \"#utility.yul\":16335:16407   */\n      tag_179\n      jump\t// in\n    tag_356:\n        /* \"#utility.yul\":15972:16414   */\n      swap5\n      swap4\n      pop\n      pop\n      pop\n      pop\n      jump\t// out\n        /* \"#utility.yul\":16420:17071   */\n    tag_83:\n        /* \"#utility.yul\":16513:16519   */\n      0x00\n        /* \"#utility.yul\":16521:16527   */\n      0x00\n        /* \"#utility.yul\":16529:16535   */\n      0x00\n        /* \"#utility.yul\":16578:16580   */\n      0x60\n        /* \"#utility.yul\":16566:16575   */\n      dup5\n        /* \"#utility.yul\":16557:16564   */\n      dup7\n        /* \"#utility.yul\":16553:16576   */\n      sub\n        /* \"#utility.yul\":16549:16581   */\n      slt\n        /* \"#utility.yul\":16546:16665   */\n      iszero\n      tag_358\n      jumpi\n        /* \"#utility.yul\":16584:16663   */\n      tag_359\n      tag_142\n      jump\t// in\n    tag_359:\n        /* \"#utility.yul\":16546:16665   */\n    tag_358:\n        /* \"#utility.yul\":16704:16705   */\n      0x00\n        /* \"#utility.yul\":16729:16790   */\n      tag_360\n        /* \"#utility.yul\":16782:16789   */\n      dup7\n        /* \"#utility.yul\":16773:16779   */\n      dup3\n        /* \"#utility.yul\":16762:16771   */\n      dup8\n        /* \"#utility.yul\":16758:16780   */\n      add\n        /* \"#utility.yul\":16729:16790   */\n      tag_178\n      jump\t// in\n    tag_360:\n        /* \"#utility.yul\":16719:16790   */\n      swap4\n      pop\n        /* \"#utility.yul\":16675:16800   */\n      pop\n        /* \"#utility.yul\":16839:16841   */\n      0x20\n        /* \"#utility.yul\":16865:16926   */\n      tag_361\n        /* \"#utility.yul\":16918:16925   */\n      dup7\n        /* \"#utility.yul\":16909:16915   */\n      dup3\n        /* \"#utility.yul\":16898:16907   */\n      dup8\n        /* \"#utility.yul\":16894:16916   */\n      add\n        /* \"#utility.yul\":16865:16926   */\n      tag_178\n      jump\t// in\n    tag_361:\n        /* \"#utility.yul\":16855:16926   */\n      swap3\n      pop\n        /* \"#utility.yul\":16810:16936   */\n      pop\n        /* \"#utility.yul\":16975:16977   */\n      0x40\n        /* \"#utility.yul\":17001:17054   */\n      tag_362\n        /* \"#utility.yul\":17046:17053   */\n      dup7\n        /* \"#utility.yul\":17037:17043   */\n      dup3\n        /* \"#utility.yul\":17026:17035   */\n      dup8\n        /* \"#utility.yul\":17022:17044   */\n      add\n        /* \"#utility.yul\":17001:17054   */\n      tag_150\n      jump\t// in\n    tag_362:\n        /* \"#utility.yul\":16991:17054   */\n      swap2\n      pop\n        /* \"#utility.yul\":16946:17064   */\n      pop\n        /* \"#utility.yul\":16420:17071   */\n      swap3\n      pop\n      swap3\n      pop\n      swap3\n      jump\t// out\n        /* \"#utility.yul\":17077:17245   */\n    tag_182:\n        /* \"#utility.yul\":17160:17171   */\n      0x00\n        /* \"#utility.yul\":17194:17200   */\n      dup3\n        /* \"#utility.yul\":17189:17192   */\n      dup3\n        /* \"#utility.yul\":17182:17201   */\n      mstore\n        /* \"#utility.yul\":17234:17238   */\n      0x20\n        /* \"#utility.yul\":17229:17232   */\n      dup3\n        /* \"#utility.yul\":17225:17239   */\n      add\n        /* \"#utility.yul\":17210:17239   */\n      swap1\n      pop\n        /* \"#utility.yul\":17077:17245   */\n      swap3\n      swap2\n      pop\n      pop\n      jump\t// out\n        /* \"#utility.yul\":17251:17399   */\n    tag_183:\n        /* \"#utility.yul\":17349:17355   */\n      dup3\n        /* \"#utility.yul\":17344:17347   */\n      dup2\n        /* \"#utility.yul\":17339:17342   */\n      dup4\n        /* \"#utility.yul\":17326:17356   */\n      calldatacopy\n        /* \"#utility.yul\":17390:17391   */\n      0x00\n        /* \"#utility.yul\":17381:17387   */\n      dup4\n        /* \"#utility.yul\":17376:17379   */\n      dup4\n        /* \"#utility.yul\":17372:17388   */\n      add\n        /* \"#utility.yul\":17365:17392   */\n      mstore\n        /* \"#utility.yul\":17251:17399   */\n      pop\n      pop\n      pop\n      jump\t// out\n        /* \"#utility.yul\":17405:17507   */\n    tag_184:\n        /* \"#utility.yul\":17446:17452   */\n      0x00\n        /* \"#utility.yul\":17497:17499   */\n      0x1f\n        /* \"#utility.yul\":17493:17500   */\n      not\n        /* \"#utility.yul\":17488:17490   */\n      0x1f\n        /* \"#utility.yul\":17481:17486   */\n      dup4\n        /* \"#utility.yul\":17477:17491   */\n      add\n        /* \"#utility.yul\":17473:17501   */\n      and\n        /* \"#utility.yul\":17463:17501   */\n      swap1\n      pop\n        /* \"#utility.yul\":17405:17507   */\n      swap2\n      swap1\n      pop\n      jump\t// out\n        /* \"#utility.yul\":17535:17849   */\n    tag_185:\n        /* \"#utility.yul\":17631:17634   */\n      0x00\n        /* \"#utility.yul\":17652:17722   */\n      tag_367\n        /* \"#utility.yul\":17715:17721   */\n      dup4\n        /* \"#utility.yul\":17710:17713   */\n      dup6\n        /* \"#utility.yul\":17652:17722   */\n      tag_182\n      jump\t// in\n    tag_367:\n        /* \"#utility.yul\":17645:17722   */\n      swap4\n      pop\n        /* \"#utility.yul\":17732:17788   */\n      tag_368\n        /* \"#utility.yul\":17781:17787   */\n      dup4\n        /* \"#utility.yul\":17776:17779   */\n      dup6\n        /* \"#utility.yul\":17769:17774   */\n      dup5\n        /* \"#utility.yul\":17732:17788   */\n      tag_183\n      jump\t// in\n    tag_368:\n        /* \"#utility.yul\":17813:17842   */\n      tag_369\n        /* \"#utility.yul\":17835:17841   */\n      dup4\n        /* \"#utility.yul\":17813:17842   */\n      tag_184\n      jump\t// in\n    tag_369:\n        /* \"#utility.yul\":17808:17811   */\n      dup5\n        /* \"#utility.yul\":17804:17843   */\n      add\n        /* \"#utility.yul\":17797:17843   */\n      swap1\n      pop\n        /* \"#utility.yul\":17535:17849   */\n      swap4\n      swap3\n      pop\n      pop\n      pop\n      jump\t// out\n        /* \"#utility.yul\":17855:18294   */\n    tag_97:\n        /* \"#utility.yul\":18004:18008   */\n      0x00\n        /* \"#utility.yul\":18042:18044   */\n      0x40\n        /* \"#utility.yul\":18031:18040   */\n      dup3\n        /* \"#utility.yul\":18027:18045   */\n      add\n        /* \"#utility.yul\":18019:18045   */\n      swap1\n      pop\n        /* \"#utility.yul\":18055:18126   */\n      tag_371\n        /* \"#utility.yul\":18123:18124   */\n      0x00\n        /* \"#utility.yul\":18112:18121   */\n      dup4\n        /* \"#utility.yul\":18108:18125   */\n      add\n        /* \"#utility.yul\":18099:18105   */\n      dup7\n        /* \"#utility.yul\":18055:18126   */\n      tag_179\n      jump\t// in\n    tag_371:\n        /* \"#utility.yul\":18173:18182   */\n      dup2\n        /* \"#utility.yul\":18167:18171   */\n      dup2\n        /* \"#utility.yul\":18163:18183   */\n      sub\n        /* \"#utility.yul\":18158:18160   */\n      0x20\n        /* \"#utility.yul\":18147:18156   */\n      dup4\n        /* \"#utility.yul\":18143:18161   */\n      add\n        /* \"#utility.yul\":18136:18184   */\n      mstore\n        /* \"#utility.yul\":18201:18287   */\n      tag_372\n        /* \"#utility.yul\":18282:18286   */\n      dup2\n        /* \"#utility.yul\":18273:18279   */\n      dup5\n        /* \"#utility.yul\":18265:18271   */\n      dup7\n        /* \"#utility.yul\":18201:18287   */\n      tag_185\n      jump\t// in\n    tag_372:\n        /* \"#utility.yul\":18193:18287   */\n      swap1\n      pop\n        /* \"#utility.yul\":17855:18294   */\n      swap5\n      swap4\n      pop\n      pop\n      pop\n      pop\n      jump\t// out\n        /* \"#utility.yul\":18300:18469   */\n    tag_186:\n        /* \"#utility.yul\":18384:18395   */\n      0x00\n        /* \"#utility.yul\":18418:18424   */\n      dup3\n        /* \"#utility.yul\":18413:18416   */\n      dup3\n        /* \"#utility.yul\":18406:18425   */\n      mstore\n        /* \"#utility.yul\":18458:18462   */\n      0x20\n        /* \"#utility.yul\":18453:18456   */\n      dup3\n        /* \"#utility.yul\":18449:18463   */\n      add\n        /* \"#utility.yul\":18434:18463   */\n      swap1\n      pop\n        /* \"#utility.yul\":18300:18469   */\n      swap3\n      swap2\n      pop\n      pop\n      jump\t// out\n        /* \"#utility.yul\":18475:18640   */\n    tag_187:\n        /* \"#utility.yul\":18615:18632   */\n      0x5452414e534645525f4641494c45440000000000000000000000000000000000\n        /* \"#utility.yul\":18611:18612   */\n      0x00\n        /* \"#utility.yul\":18603:18609   */\n      dup3\n        /* \"#utility.yul\":18599:18613   */\n      add\n        /* \"#utility.yul\":18592:18633   */\n      mstore\n        /* \"#utility.yul\":18475:18640   */\n      pop\n      jump\t// out\n        /* \"#utility.yul\":18646:19012   */\n    tag_188:\n        /* \"#utility.yul\":18788:18791   */\n      0x00\n        /* \"#utility.yul\":18809:18876   */\n      tag_376\n        /* \"#utility.yul\":18873:18875   */\n      0x0f\n        /* \"#utility.yul\":18868:18871   */\n      dup4\n        /* \"#utility.yul\":18809:18876   */\n      tag_186\n      jump\t// in\n    tag_376:\n        /* \"#utility.yul\":18802:18876   */\n      swap2\n      pop\n        /* \"#utility.yul\":18885:18978   */\n      tag_377\n        /* \"#utility.yul\":18974:18977   */\n      dup3\n        /* \"#utility.yul\":18885:18978   */\n      tag_187\n      jump\t// in\n    tag_377:\n        /* \"#utility.yul\":19003:19005   */\n      0x20\n        /* \"#utility.yul\":18998:19001   */\n      dup3\n        /* \"#utility.yul\":18994:19006   */\n      add\n        /* \"#utility.yul\":18987:19006   */\n      swap1\n      pop\n        /* \"#utility.yul\":18646:19012   */\n      swap2\n      swap1\n      pop\n      jump\t// out\n        /* \"#utility.yul\":19018:19437   */\n    tag_116:\n        /* \"#utility.yul\":19184:19188   */\n      0x00\n        /* \"#utility.yul\":19222:19224   */\n      0x20\n        /* \"#utility.yul\":19211:19220   */\n      dup3\n        /* \"#utility.yul\":19207:19225   */\n      add\n        /* \"#utility.yul\":19199:19225   */\n      swap1\n      pop\n        /* \"#utility.yul\":19271:19280   */\n      dup2\n        /* \"#utility.yul\":19265:19269   */\n      dup2\n        /* \"#utility.yul\":19261:19281   */\n      sub\n        /* \"#utility.yul\":19257:19258   */\n      0x00\n        /* \"#utility.yul\":19246:19255   */\n      dup4\n        /* \"#utility.yul\":19242:19259   */\n      add\n        /* \"#utility.yul\":19235:19282   */\n      mstore\n        /* \"#utility.yul\":19299:19430   */\n      tag_379\n        /* \"#utility.yul\":19425:19429   */\n      dup2\n        /* \"#utility.yul\":19299:19430   */\n      tag_188\n      jump\t// in\n    tag_379:\n        /* \"#utility.yul\":19291:19430   */\n      swap1\n      pop\n        /* \"#utility.yul\":19018:19437   */\n      swap2\n      swap1\n      pop\n      jump\t// out\n        /* \"#utility.yul\":19443:19665   */\n    tag_121:\n        /* \"#utility.yul\":19536:19540   */\n      0x00\n        /* \"#utility.yul\":19574:19576   */\n      0x20\n        /* \"#utility.yul\":19563:19572   */\n      dup3\n        /* \"#utility.yul\":19559:19577   */\n      add\n        /* \"#utility.yul\":19551:19577   */\n      swap1\n      pop\n        /* \"#utility.yul\":19587:19658   */\n      tag_381\n        /* \"#utility.yul\":19655:19656   */\n      0x00\n        /* \"#utility.yul\":19644:19653   */\n      dup4\n        /* \"#utility.yul\":19640:19657   */\n      add\n        /* \"#utility.yul\":19631:19637   */\n      dup5\n        /* \"#utility.yul\":19587:19658   */\n      tag_179\n      jump\t// in\n    tag_381:\n        /* \"#utility.yul\":19443:19665   */\n      swap3\n      swap2\n      pop\n      pop\n      jump\t// out\n        /* \"#utility.yul\":19671:19814   */\n    tag_189:\n        /* \"#utility.yul\":19728:19733   */\n      0x00\n        /* \"#utility.yul\":19759:19765   */\n      dup2\n        /* \"#utility.yul\":19753:19766   */\n      mload\n        /* \"#utility.yul\":19744:19766   */\n      swap1\n      pop\n        /* \"#utility.yul\":19775:19808   */\n      tag_383\n        /* \"#utility.yul\":19802:19807   */\n      dup2\n        /* \"#utility.yul\":19775:19808   */\n      tag_149\n      jump\t// in\n    tag_383:\n        /* \"#utility.yul\":19671:19814   */\n      swap3\n      swap2\n      pop\n      pop\n      jump\t// out\n        /* \"#utility.yul\":19820:20171   */\n    tag_125:\n        /* \"#utility.yul\":19890:19896   */\n      0x00\n        /* \"#utility.yul\":19939:19941   */\n      0x20\n        /* \"#utility.yul\":19927:19936   */\n      dup3\n        /* \"#utility.yul\":19918:19925   */\n      dup5\n        /* \"#utility.yul\":19914:19937   */\n      sub\n        /* \"#utility.yul\":19910:19942   */\n      slt\n        /* \"#utility.yul\":19907:20026   */\n      iszero\n      tag_385\n      jumpi\n        /* \"#utility.yul\":19945:20024   */\n      tag_386\n      tag_142\n      jump\t// in\n    tag_386:\n        /* \"#utility.yul\":19907:20026   */\n    tag_385:\n        /* \"#utility.yul\":20065:20066   */\n      0x00\n        /* \"#utility.yul\":20090:20154   */\n      tag_387\n        /* \"#utility.yul\":20146:20153   */\n      dup5\n        /* \"#utility.yul\":20137:20143   */\n      dup3\n        /* \"#utility.yul\":20126:20135   */\n      dup6\n        /* \"#utility.yul\":20122:20144   */\n      add\n        /* \"#utility.yul\":20090:20154   */\n      tag_189\n      jump\t// in\n    tag_387:\n        /* \"#utility.yul\":20080:20154   */\n      swap2\n      pop\n        /* \"#utility.yul\":20036:20164   */\n      pop\n        /* \"#utility.yul\":19820:20171   */\n      swap3\n      swap2\n      pop\n      pop\n      jump\t// out\n        /* \"#utility.yul\":20177:20371   */\n    tag_130:\n        /* \"#utility.yul\":20217:20221   */\n      0x00\n        /* \"#utility.yul\":20237:20257   */\n      tag_389\n        /* \"#utility.yul\":20255:20256   */\n      dup3\n        /* \"#utility.yul\":20237:20257   */\n      tag_148\n      jump\t// in\n    tag_389:\n        /* \"#utility.yul\":20232:20257   */\n      swap2\n      pop\n        /* \"#utility.yul\":20271:20291   */\n      tag_390\n        /* \"#utility.yul\":20289:20290   */\n      dup4\n        /* \"#utility.yul\":20271:20291   */\n      tag_148\n      jump\t// in\n    tag_390:\n        /* \"#utility.yul\":20266:20291   */\n      swap3\n      pop\n        /* \"#utility.yul\":20315:20316   */\n      dup3\n        /* \"#utility.yul\":20312:20313   */\n      dup3\n        /* \"#utility.yul\":20308:20317   */\n      sub\n        /* \"#utility.yul\":20300:20317   */\n      swap1\n      pop\n        /* \"#utility.yul\":20339:20340   */\n      dup2\n        /* \"#utility.yul\":20333:20337   */\n      dup2\n        /* \"#utility.yul\":20330:20341   */\n      gt\n        /* \"#utility.yul\":20327:20364   */\n      iszero\n      tag_391\n      jumpi\n        /* \"#utility.yul\":20344:20362   */\n      tag_392\n      tag_175\n      jump\t// in\n    tag_392:\n        /* \"#utility.yul\":20327:20364   */\n    tag_391:\n        /* \"#utility.yul\":20177:20371   */\n      swap3\n      swap2\n      pop\n      pop\n      jump\t// out\n        /* \"#utility.yul\":20377:20547   */\n    tag_190:\n        /* \"#utility.yul\":20517:20539   */\n      0x5452414e534645525f46524f4d5f4641494c4544000000000000000000000000\n        /* \"#utility.yul\":20513:20514   */\n      0x00\n        /* \"#utility.yul\":20505:20511   */\n      dup3\n        /* \"#utility.yul\":20501:20515   */\n      add\n        /* \"#utility.yul\":20494:20540   */\n      mstore\n        /* \"#utility.yul\":20377:20547   */\n      pop\n      jump\t// out\n        /* \"#utility.yul\":20553:20919   */\n    tag_191:\n        /* \"#utility.yul\":20695:20698   */\n      0x00\n        /* \"#utility.yul\":20716:20783   */\n      tag_395\n        /* \"#utility.yul\":20780:20782   */\n      0x14\n        /* \"#utility.yul\":20775:20778   */\n      dup4\n        /* \"#utility.yul\":20716:20783   */\n      tag_186\n      jump\t// in\n    tag_395:\n        /* \"#utility.yul\":20709:20783   */\n      swap2\n      pop\n        /* \"#utility.yul\":20792:20885   */\n      tag_396\n        /* \"#utility.yul\":20881:20884   */\n      dup3\n        /* \"#utility.yul\":20792:20885   */\n      tag_190\n      jump\t// in\n    tag_396:\n        /* \"#utility.yul\":20910:20912   */\n      0x20\n        /* \"#utility.yul\":20905:20908   */\n      dup3\n        /* \"#utility.yul\":20901:20913   */\n      add\n        /* \"#utility.yul\":20894:20913   */\n      swap1\n      pop\n        /* \"#utility.yul\":20553:20919   */\n      swap2\n      swap1\n      pop\n      jump\t// out\n        /* \"#utility.yul\":20925:21344   */\n    tag_140:\n        /* \"#utility.yul\":21091:21095   */\n      0x00\n        /* \"#utility.yul\":21129:21131   */\n      0x20\n        /* \"#utility.yul\":21118:21127   */\n      dup3\n        /* \"#utility.yul\":21114:21132   */\n      add\n        /* \"#utility.yul\":21106:21132   */\n      swap1\n      pop\n        /* \"#utility.yul\":21178:21187   */\n      dup2\n        /* \"#utility.yul\":21172:21176   */\n      dup2\n        /* \"#utility.yul\":21168:21188   */\n      sub\n        /* \"#utility.yul\":21164:21165   */\n      0x00\n        /* \"#utility.yul\":21153:21162   */\n      dup4\n        /* \"#utility.yul\":21149:21166   */\n      add\n        /* \"#utility.yul\":21142:21189   */\n      mstore\n        /* \"#utility.yul\":21206:21337   */\n      tag_398\n        /* \"#utility.yul\":21332:21336   */\n      dup2\n        /* \"#utility.yul\":21206:21337   */\n      tag_191\n      jump\t// in\n    tag_398:\n        /* \"#utility.yul\":21198:21337   */\n      swap1\n      pop\n        /* \"#utility.yul\":20925:21344   */\n      swap2\n      swap1\n      pop\n      jump\t// out\n\n    auxdata: 0xa264697066735822122049912fecedce473200c963ba324e03edc4faaa331fcf8ffa80613619e60f2b5764736f6c634300081c0033\n}\n",
				"bytecode": {
					"linkReferences": {},
					"object": "60a060405234801561000f575f5ffd5b5060405161159c38038061159c833981810160405281019061003191906100dc565b808073ffffffffffffffffffffffffffffffffffffffff1660808173ffffffffffffffffffffffffffffffffffffffff16815250505050610107565b5f5ffd5b5f73ffffffffffffffffffffffffffffffffffffffff82169050919050565b5f61009a82610071565b9050919050565b5f6100ab82610090565b9050919050565b6100bb816100a1565b81146100c5575f5ffd5b50565b5f815190506100d6816100b2565b92915050565b5f602082840312156100f1576100f061006d565b5b5f6100fe848285016100c8565b91505092915050565b6080516114686101345f395f8181610259015281816104ed0152818161067201526108da01526114685ff3fe608060405234801561000f575f5ffd5b506004361061007a575f3560e01c80638340f549116100595780638340f549146100d4578063a129568d14610104578063e80aed8114610137578063fabe109a146101675761007a565b806223de291461007e578063035c833a1461009a57806350e43439146100ca575b5f5ffd5b61009860048036038101906100939190610b54565b610185565b005b6100b460048036038101906100af9190610c87565b610303565b6040516100c19190610d47565b60405180910390f35b6100d261042f565b005b6100ee60048036038101906100e99190610d60565b6104cf565b6040516100fb9190610d47565b60405180910390f35b61011e60048036038101906101199190610db0565b6104e5565b60405161012e9493929190610edf565b60405180910390f35b610151600480360381019061014c9190610f3e565b6105df565b60405161015e9190610d47565b60405180910390f35b61016f610670565b60405161017c919061100a565b60405180910390f35b3073ffffffffffffffffffffffffffffffffffffffff168873ffffffffffffffffffffffffffffffffffffffff16141580156101ec57503073ffffffffffffffffffffffffffffffffffffffff168673ffffffffffffffffffffffffffffffffffffffff16145b156102f9575f6101fb33610694565b90507fffffffffffffffffffffffffffffffffffffffffffffffffffffffffffffffff811461023a576102393387836102349190611050565b6106aa565b5b6020858590500361025757848481019061025491906110be565b97505b7f000000000000000000000000000000000000000000000000000000000000000073ffffffffffffffffffffffffffffffffffffffff1663156e29f6893373ffffffffffffffffffffffffffffffffffffffff16896040518463ffffffff1660e01b81526004016102ca939291906110f8565b5f604051808303815f87803b1580156102e1575f5ffd5b505af11580156102f3573d5f5f3e3d5ffd5b50505050505b5050505050505050565b5f8773ffffffffffffffffffffffffffffffffffffffff168673ffffffffffffffffffffffffffffffffffffffff161415801561036c57503373ffffffffffffffffffffffffffffffffffffffff168673ffffffffffffffffffffffffffffffffffffffff1614155b156103a3576040517f4ca8886700000000000000000000000000000000000000000000000000000000815260040160405180910390fd5b8873ffffffffffffffffffffffffffffffffffffffff1663d505accf87308a898989896040518863ffffffff1660e01b81526004016103e8979695949392919061114b565b5f604051808303815f87803b1580156103ff575f5ffd5b505af1158015610411573d5f5f3e3d5ffd5b5050505061042189878a8a610716565b905098975050505050505050565b731820a4b7618bde71dce8cdc73aab6c95905fad2473ffffffffffffffffffffffffffffffffffffffff166329965a1d307fb281fc8c12954d22544db45de3159a39272895b169a852b314f9cc762e44c53b306040518463ffffffff1660e01b81526004016104a0939291906111b8565b5f604051808303815f87803b1580156104b7575f5ffd5b505af11580156104c9573d5f5f3e3d5ffd5b50505050565b5f6104dc84338585610716565b90509392505050565b6060806060807f000000000000000000000000000000000000000000000000000000000000000073ffffffffffffffffffffffffffffffffffffffff163373ffffffffffffffffffffffffffffffffffffffff1614610570576040517f4ca8886700000000000000000000000000000000000000000000000000000000815260040160405180910390fd5b5f5f5f888881019061058291906111ed565b925092509250610593838383610749565b61059b610800565b6105bb8473ffffffffffffffffffffffffffffffffffffffff1683610805565b6105c3610800565b6105cb610800565b965096509650965050505092959194509250565b5f6105f2856105ed87610831565b6106aa565b8373ffffffffffffffffffffffffffffffffffffffff166383437d458685856040518463ffffffff1660e01b815260040161062f93929190611297565b5f604051808303815f87803b158015610646575f5ffd5b505af1158015610658573d5f5f3e3d5ffd5b5050505061066685336108b1565b9050949350505050565b7f000000000000000000000000000000000000000000000000000000000000000081565b5f8160601b60601c91506001825c039050919050565b7fffffffffffffffffffffffffffffffffffffffffffffffffffffffffffffffff8103610703576040517f89560ca100000000000000000000000000000000000000000000000000000000815260040160405180910390fd5b8160601b60601c915060018101825d5050565b5f6107298561072487610831565b6106aa565b6107358585308561098a565b61073f85846108b1565b9050949350505050565b5f6040517fa9059cbb00000000000000000000000000000000000000000000000000000000815273ffffffffffffffffffffffffffffffffffffffff8416600482015282602482015260205f6044835f895af1915081601f3d1160015f5114161516156107b9573d853b15171591505b50806107fa576040517f08c379a00000000000000000000000000000000000000000000000000000000081526004016107f190611321565b60405180910390fd5b50505050565b606090565b606060405190506080810160405260408101600182528060208301528381528260608301525092915050565b5f8173ffffffffffffffffffffffffffffffffffffffff166370a08231306040518263ffffffff1660e01b815260040161086b919061133f565b602060405180830381865afa158015610886573d5f5f3e3d5ffd5b505050506040513d601f19601f820116820180604052508101906108aa919061136c565b9050919050565b5f5f6108bc84610831565b90505f6108c885610694565b905080826108d69190611397565b92507f000000000000000000000000000000000000000000000000000000000000000073ffffffffffffffffffffffffffffffffffffffff1663156e29f6858773ffffffffffffffffffffffffffffffffffffffff16866040518463ffffffff1660e01b815260040161094b939291906110f8565b5f604051808303815f87803b158015610962575f5ffd5b505af1158015610974573d5f5f3e3d5ffd5b5050505061098285836106aa565b505092915050565b5f6040517f23b872dd00000000000000000000000000000000000000000000000000000000815273ffffffffffffffffffffffffffffffffffffffff8516600482015273ffffffffffffffffffffffffffffffffffffffff8416602482015282604482015260205f6064835f8a5af1915081601f3d1160015f511416151615610a16573d863b15171591505b5080610a57576040517f08c379a0000000000000000000000000000000000000000000000000000000008152600401610a4e90611414565b60405180910390fd5b5050505050565b5f5ffd5b5f5ffd5b5f73ffffffffffffffffffffffffffffffffffffffff82169050919050565b5f610a8f82610a66565b9050919050565b610a9f81610a85565b8114610aa9575f5ffd5b50565b5f81359050610aba81610a96565b92915050565b5f819050919050565b610ad281610ac0565b8114610adc575f5ffd5b50565b5f81359050610aed81610ac9565b92915050565b5f5ffd5b5f5ffd5b5f5ffd5b5f5f83601f840112610b1457610b13610af3565b5b8235905067ffffffffffffffff811115610b3157610b30610af7565b5b602083019150836001820283011115610b4d57610b4c610afb565b5b9250929050565b5f5f5f5f5f5f5f5f60c0898b031215610b7057610b6f610a5e565b5b5f610b7d8b828c01610aac565b9850506020610b8e8b828c01610aac565b9750506040610b9f8b828c01610aac565b9650506060610bb08b828c01610adf565b955050608089013567ffffffffffffffff811115610bd157610bd0610a62565b5b610bdd8b828c01610aff565b945094505060a089013567ffffffffffffffff811115610c0057610bff610a62565b5b610c0c8b828c01610aff565b92509250509295985092959890939650565b5f60ff82169050919050565b610c3381610c1e565b8114610c3d575f5ffd5b50565b5f81359050610c4e81610c2a565b92915050565b5f819050919050565b610c6681610c54565b8114610c70575f5ffd5b50565b5f81359050610c8181610c5d565b92915050565b5f5f5f5f5f5f5f5f610100898b031215610ca457610ca3610a5e565b5b5f610cb18b828c01610aac565b9850506020610cc28b828c01610aac565b9750506040610cd38b828c01610adf565b9650506060610ce48b828c01610aac565b9550506080610cf58b828c01610adf565b94505060a0610d068b828c01610c40565b93505060c0610d178b828c01610c73565b92505060e0610d288b828c01610c73565b9150509295985092959890939650565b610d4181610ac0565b82525050565b5f602082019050610d5a5f830184610d38565b92915050565b5f5f5f60608486031215610d7757610d76610a5e565b5b5f610d8486828701610aac565b9350506020610d9586828701610aac565b9250506040610da686828701610adf565b9150509250925092565b5f5f60208385031215610dc657610dc5610a5e565b5b5f83013567ffffffffffffffff811115610de357610de2610a62565b5b610def85828601610aff565b92509250509250929050565b5f81519050919050565b5f82825260208201905092915050565b5f819050602082019050919050565b610e2d81610ac0565b82525050565b604082015f820151610e475f850182610e24565b506020820151610e5a6020850182610e24565b50505050565b5f610e6b8383610e33565b60408301905092915050565b5f602082019050919050565b5f610e8d82610dfb565b610e978185610e05565b9350610ea283610e15565b805f5b83811015610ed2578151610eb98882610e60565b9750610ec483610e77565b925050600181019050610ea5565b5085935050505092915050565b5f6080820190508181035f830152610ef78187610e83565b90508181036020830152610f0b8186610e83565b90508181036040830152610f1f8185610e83565b90508181036060830152610f338184610e83565b905095945050505050565b5f5f5f5f60608587031215610f5657610f55610a5e565b5b5f610f6387828801610aac565b9450506020610f7487828801610aac565b935050604085013567ffffffffffffffff811115610f9557610f94610a62565b5b610fa187828801610aff565b925092505092959194509250565b5f819050919050565b5f610fd2610fcd610fc884610a66565b610faf565b610a66565b9050919050565b5f610fe382610fb8565b9050919050565b5f610ff482610fd9565b9050919050565b61100481610fea565b82525050565b5f60208201905061101d5f830184610ffb565b92915050565b7f4e487b71000000000000000000000000000000000000000000000000000000005f52601160045260245ffd5b5f61105a82610ac0565b915061106583610ac0565b925082820190508082111561107d5761107c611023565b5b92915050565b5f61108d82610a66565b9050919050565b61109d81611083565b81146110a7575f5ffd5b50565b5f813590506110b881611094565b92915050565b5f602082840312156110d3576110d2610a5e565b5b5f6110e0848285016110aa565b91505092915050565b6110f281610a85565b82525050565b5f60608201905061110b5f8301866110e9565b6111186020830185610d38565b6111256040830184610d38565b949350505050565b61113681610c1e565b82525050565b61114581610c54565b82525050565b5f60e08201905061115e5f83018a6110e9565b61116b60208301896110e9565b6111786040830188610d38565b6111856060830187610d38565b611192608083018661112d565b61119f60a083018561113c565b6111ac60c083018461113c565b98975050505050505050565b5f6060820190506111cb5f8301866110e9565b6111d8602083018561113c565b6111e560408301846110e9565b949350505050565b5f5f5f6060848603121561120457611203610a5e565b5b5f611211868287016110aa565b9350506020611222868287016110aa565b925050604061123386828701610adf565b9150509250925092565b5f82825260208201905092915050565b828183375f83830152505050565b5f601f19601f8301169050919050565b5f611276838561123d565b935061128383858461124d565b61128c8361125b565b840190509392505050565b5f6040820190506112aa5f8301866110e9565b81810360208301526112bd81848661126b565b9050949350505050565b5f82825260208201905092915050565b7f5452414e534645525f4641494c454400000000000000000000000000000000005f82015250565b5f61130b600f836112c7565b9150611316826112d7565b602082019050919050565b5f6020820190508181035f830152611338816112ff565b9050919050565b5f6020820190506113525f8301846110e9565b92915050565b5f8151905061136681610ac9565b92915050565b5f6020828403121561138157611380610a5e565b5b5f61138e84828501611358565b91505092915050565b5f6113a182610ac0565b91506113ac83610ac0565b92508282039050818111156113c4576113c3611023565b5b92915050565b7f5452414e534645525f46524f4d5f4641494c45440000000000000000000000005f82015250565b5f6113fe6014836112c7565b9150611409826113ca565b602082019050919050565b5f6020820190508181035f83015261142b816113f2565b905091905056fea264697066735822122049912fecedce473200c963ba324e03edc4faaa331fcf8ffa80613619e60f2b5764736f6c634300081c0033",
					"opcodes": "PUSH1 0xA0 PUSH1 0x40 MSTORE CALLVALUE DUP1 ISZERO PUSH2 0xF JUMPI PUSH0 PUSH0 REVERT JUMPDEST POP PUSH1 0x40 MLOAD PUSH2 0x159C CODESIZE SUB DUP1 PUSH2 0x159C DUP4 CODECOPY DUP2 DUP2 ADD PUSH1 0x40 MSTORE DUP2 ADD SWAP1 PUSH2 0x31 SWAP2 SWAP1 PUSH2 0xDC JUMP JUMPDEST DUP1 DUP1 PUSH20 0xFFFFFFFFFFFFFFFFFFFFFFFFFFFFFFFFFFFFFFFF AND PUSH1 0x80 DUP2 PUSH20 0xFFFFFFFFFFFFFFFFFFFFFFFFFFFFFFFFFFFFFFFF AND DUP2 MSTORE POP POP POP POP PUSH2 0x107 JUMP JUMPDEST PUSH0 PUSH0 REVERT JUMPDEST PUSH0 PUSH20 0xFFFFFFFFFFFFFFFFFFFFFFFFFFFFFFFFFFFFFFFF DUP3 AND SWAP1 POP SWAP2 SWAP1 POP JUMP JUMPDEST PUSH0 PUSH2 0x9A DUP3 PUSH2 0x71 JUMP JUMPDEST SWAP1 POP SWAP2 SWAP1 POP JUMP JUMPDEST PUSH0 PUSH2 0xAB DUP3 PUSH2 0x90 JUMP JUMPDEST SWAP1 POP SWAP2 SWAP1 POP JUMP JUMPDEST PUSH2 0xBB DUP2 PUSH2 0xA1 JUMP JUMPDEST DUP2 EQ PUSH2 0xC5 JUMPI PUSH0 PUSH0 REVERT JUMPDEST POP JUMP JUMPDEST PUSH0 DUP2 MLOAD SWAP1 POP PUSH2 0xD6 DUP2 PUSH2 0xB2 JUMP JUMPDEST SWAP3 SWAP2 POP POP JUMP JUMPDEST PUSH0 PUSH1 0x20 DUP3 DUP5 SUB SLT ISZERO PUSH2 0xF1 JUMPI PUSH2 0xF0 PUSH2 0x6D JUMP JUMPDEST JUMPDEST PUSH0 PUSH2 0xFE DUP5 DUP3 DUP6 ADD PUSH2 0xC8 JUMP JUMPDEST SWAP2 POP POP SWAP3 SWAP2 POP POP JUMP JUMPDEST PUSH1 0x80 MLOAD PUSH2 0x1468 PUSH2 0x134 PUSH0 CODECOPY PUSH0 DUP2 DUP2 PUSH2 0x259 ADD MSTORE DUP2 DUP2 PUSH2 0x4ED ADD MSTORE DUP2 DUP2 PUSH2 0x672 ADD MSTORE PUSH2 0x8DA ADD MSTORE PUSH2 0x1468 PUSH0 RETURN INVALID PUSH1 0x80 PUSH1 0x40 MSTORE CALLVALUE DUP1 ISZERO PUSH2 0xF JUMPI PUSH0 PUSH0 REVERT JUMPDEST POP PUSH1 0x4 CALLDATASIZE LT PUSH2 0x7A JUMPI PUSH0 CALLDATALOAD PUSH1 0xE0 SHR DUP1 PUSH4 0x8340F549 GT PUSH2 0x59 JUMPI DUP1 PUSH4 0x8340F549 EQ PUSH2 0xD4 JUMPI DUP1 PUSH4 0xA129568D EQ PUSH2 0x104 JUMPI DUP1 PUSH4 0xE80AED81 EQ PUSH2 0x137 JUMPI DUP1 PUSH4 0xFABE109A EQ PUSH2 0x167 JUMPI PUSH2 0x7A JUMP JUMPDEST DUP1 PUSH3 0x23DE29 EQ PUSH2 0x7E JUMPI DUP1 PUSH4 0x35C833A EQ PUSH2 0x9A JUMPI DUP1 PUSH4 0x50E43439 EQ PUSH2 0xCA JUMPI JUMPDEST PUSH0 PUSH0 REVERT JUMPDEST PUSH2 0x98 PUSH1 0x4 DUP1 CALLDATASIZE SUB DUP2 ADD SWAP1 PUSH2 0x93 SWAP2 SWAP1 PUSH2 0xB54 JUMP JUMPDEST PUSH2 0x185 JUMP JUMPDEST STOP JUMPDEST PUSH2 0xB4 PUSH1 0x4 DUP1 CALLDATASIZE SUB DUP2 ADD SWAP1 PUSH2 0xAF SWAP2 SWAP1 PUSH2 0xC87 JUMP JUMPDEST PUSH2 0x303 JUMP JUMPDEST PUSH1 0x40 MLOAD PUSH2 0xC1 SWAP2 SWAP1 PUSH2 0xD47 JUMP JUMPDEST PUSH1 0x40 MLOAD DUP1 SWAP2 SUB SWAP1 RETURN JUMPDEST PUSH2 0xD2 PUSH2 0x42F JUMP JUMPDEST STOP JUMPDEST PUSH2 0xEE PUSH1 0x4 DUP1 CALLDATASIZE SUB DUP2 ADD SWAP1 PUSH2 0xE9 SWAP2 SWAP1 PUSH2 0xD60 JUMP JUMPDEST PUSH2 0x4CF JUMP JUMPDEST PUSH1 0x40 MLOAD PUSH2 0xFB SWAP2 SWAP1 PUSH2 0xD47 JUMP JUMPDEST PUSH1 0x40 MLOAD DUP1 SWAP2 SUB SWAP1 RETURN JUMPDEST PUSH2 0x11E PUSH1 0x4 DUP1 CALLDATASIZE SUB DUP2 ADD SWAP1 PUSH2 0x119 SWAP2 SWAP1 PUSH2 0xDB0 JUMP JUMPDEST PUSH2 0x4E5 JUMP JUMPDEST PUSH1 0x40 MLOAD PUSH2 0x12E SWAP5 SWAP4 SWAP3 SWAP2 SWAP1 PUSH2 0xEDF JUMP JUMPDEST PUSH1 0x40 MLOAD DUP1 SWAP2 SUB SWAP1 RETURN JUMPDEST PUSH2 0x151 PUSH1 0x4 DUP1 CALLDATASIZE SUB DUP2 ADD SWAP1 PUSH2 0x14C SWAP2 SWAP1 PUSH2 0xF3E JUMP JUMPDEST PUSH2 0x5DF JUMP JUMPDEST PUSH1 0x40 MLOAD PUSH2 0x15E SWAP2 SWAP1 PUSH2 0xD47 JUMP JUMPDEST PUSH1 0x40 MLOAD DUP1 SWAP2 SUB SWAP1 RETURN JUMPDEST PUSH2 0x16F PUSH2 0x670 JUMP JUMPDEST PUSH1 0x40 MLOAD PUSH2 0x17C SWAP2 SWAP1 PUSH2 0x100A JUMP JUMPDEST PUSH1 0x40 MLOAD DUP1 SWAP2 SUB SWAP1 RETURN JUMPDEST ADDRESS PUSH20 0xFFFFFFFFFFFFFFFFFFFFFFFFFFFFFFFFFFFFFFFF AND DUP9 PUSH20 0xFFFFFFFFFFFFFFFFFFFFFFFFFFFFFFFFFFFFFFFF AND EQ ISZERO DUP1 ISZERO PUSH2 0x1EC JUMPI POP ADDRESS PUSH20 0xFFFFFFFFFFFFFFFFFFFFFFFFFFFFFFFFFFFFFFFF AND DUP7 PUSH20 0xFFFFFFFFFFFFFFFFFFFFFFFFFFFFFFFFFFFFFFFF AND EQ JUMPDEST ISZERO PUSH2 0x2F9 JUMPI PUSH0 PUSH2 0x1FB CALLER PUSH2 0x694 JUMP JUMPDEST SWAP1 POP PUSH32 0xFFFFFFFFFFFFFFFFFFFFFFFFFFFFFFFFFFFFFFFFFFFFFFFFFFFFFFFFFFFFFFFF DUP2 EQ PUSH2 0x23A JUMPI PUSH2 0x239 CALLER DUP8 DUP4 PUSH2 0x234 SWAP2 SWAP1 PUSH2 0x1050 JUMP JUMPDEST PUSH2 0x6AA JUMP JUMPDEST JUMPDEST PUSH1 0x20 DUP6 DUP6 SWAP1 POP SUB PUSH2 0x257 JUMPI DUP5 DUP5 DUP2 ADD SWAP1 PUSH2 0x254 SWAP2 SWAP1 PUSH2 0x10BE JUMP JUMPDEST SWAP8 POP JUMPDEST PUSH32 0x0 PUSH20 0xFFFFFFFFFFFFFFFFFFFFFFFFFFFFFFFFFFFFFFFF AND PUSH4 0x156E29F6 DUP10 CALLER PUSH20 0xFFFFFFFFFFFFFFFFFFFFFFFFFFFFFFFFFFFFFFFF AND DUP10 PUSH1 0x40 MLOAD DUP5 PUSH4 0xFFFFFFFF AND PUSH1 0xE0 SHL DUP2 MSTORE PUSH1 0x4 ADD PUSH2 0x2CA SWAP4 SWAP3 SWAP2 SWAP1 PUSH2 0x10F8 JUMP JUMPDEST PUSH0 PUSH1 0x40 MLOAD DUP1 DUP4 SUB DUP2 PUSH0 DUP8 DUP1 EXTCODESIZE ISZERO DUP1 ISZERO PUSH2 0x2E1 JUMPI PUSH0 PUSH0 REVERT JUMPDEST POP GAS CALL ISZERO DUP1 ISZERO PUSH2 0x2F3 JUMPI RETURNDATASIZE PUSH0 PUSH0 RETURNDATACOPY RETURNDATASIZE PUSH0 REVERT JUMPDEST POP POP POP POP POP JUMPDEST POP POP POP POP POP POP POP POP JUMP JUMPDEST PUSH0 DUP8 PUSH20 0xFFFFFFFFFFFFFFFFFFFFFFFFFFFFFFFFFFFFFFFF AND DUP7 PUSH20 0xFFFFFFFFFFFFFFFFFFFFFFFFFFFFFFFFFFFFFFFF AND EQ ISZERO DUP1 ISZERO PUSH2 0x36C JUMPI POP CALLER PUSH20 0xFFFFFFFFFFFFFFFFFFFFFFFFFFFFFFFFFFFFFFFF AND DUP7 PUSH20 0xFFFFFFFFFFFFFFFFFFFFFFFFFFFFFFFFFFFFFFFF AND EQ ISZERO JUMPDEST ISZERO PUSH2 0x3A3 JUMPI PUSH1 0x40 MLOAD PUSH32 0x4CA8886700000000000000000000000000000000000000000000000000000000 DUP2 MSTORE PUSH1 0x4 ADD PUSH1 0x40 MLOAD DUP1 SWAP2 SUB SWAP1 REVERT JUMPDEST DUP9 PUSH20 0xFFFFFFFFFFFFFFFFFFFFFFFFFFFFFFFFFFFFFFFF AND PUSH4 0xD505ACCF DUP8 ADDRESS DUP11 DUP10 DUP10 DUP10 DUP10 PUSH1 0x40 MLOAD DUP9 PUSH4 0xFFFFFFFF AND PUSH1 0xE0 SHL DUP2 MSTORE PUSH1 0x4 ADD PUSH2 0x3E8 SWAP8 SWAP7 SWAP6 SWAP5 SWAP4 SWAP3 SWAP2 SWAP1 PUSH2 0x114B JUMP JUMPDEST PUSH0 PUSH1 0x40 MLOAD DUP1 DUP4 SUB DUP2 PUSH0 DUP8 DUP1 EXTCODESIZE ISZERO DUP1 ISZERO PUSH2 0x3FF JUMPI PUSH0 PUSH0 REVERT JUMPDEST POP GAS CALL ISZERO DUP1 ISZERO PUSH2 0x411 JUMPI RETURNDATASIZE PUSH0 PUSH0 RETURNDATACOPY RETURNDATASIZE PUSH0 REVERT JUMPDEST POP POP POP POP PUSH2 0x421 DUP10 DUP8 DUP11 DUP11 PUSH2 0x716 JUMP JUMPDEST SWAP1 POP SWAP9 SWAP8 POP POP POP POP POP POP POP POP JUMP JUMPDEST PUSH20 0x1820A4B7618BDE71DCE8CDC73AAB6C95905FAD24 PUSH20 0xFFFFFFFFFFFFFFFFFFFFFFFFFFFFFFFFFFFFFFFF AND PUSH4 0x29965A1D ADDRESS PUSH32 0xB281FC8C12954D22544DB45DE3159A39272895B169A852B314F9CC762E44C53B ADDRESS PUSH1 0x40 MLOAD DUP5 PUSH4 0xFFFFFFFF AND PUSH1 0xE0 SHL DUP2 MSTORE PUSH1 0x4 ADD PUSH2 0x4A0 SWAP4 SWAP3 SWAP2 SWAP1 PUSH2 0x11B8 JUMP JUMPDEST PUSH0 PUSH1 0x40 MLOAD DUP1 DUP4 SUB DUP2 PUSH0 DUP8 DUP1 EXTCODESIZE ISZERO DUP1 ISZERO PUSH2 0x4B7 JUMPI PUSH0 PUSH0 REVERT JUMPDEST POP GAS CALL ISZERO DUP1 ISZERO PUSH2 0x4C9 JUMPI RETURNDATASIZE PUSH0 PUSH0 RETURNDATACOPY RETURNDATASIZE PUSH0 REVERT JUMPDEST POP POP POP POP JUMP JUMPDEST PUSH0 PUSH2 0x4DC DUP5 CALLER DUP6 DUP6 PUSH2 0x716 JUMP JUMPDEST SWAP1 POP SWAP4 SWAP3 POP POP POP JUMP JUMPDEST PUSH1 0x60 DUP1 PUSH1 0x60 DUP1 PUSH32 0x0 PUSH20 0xFFFFFFFFFFFFFFFFFFFFFFFFFFFFFFFFFFFFFFFF AND CALLER PUSH20 0xFFFFFFFFFFFFFFFFFFFFFFFFFFFFFFFFFFFFFFFF AND EQ PUSH2 0x570 JUMPI PUSH1 0x40 MLOAD PUSH32 0x4CA8886700000000000000000000000000000000000000000000000000000000 DUP2 MSTORE PUSH1 0x4 ADD PUSH1 0x40 MLOAD DUP1 SWAP2 SUB SWAP1 REVERT JUMPDEST PUSH0 PUSH0 PUSH0 DUP9 DUP9 DUP2 ADD SWAP1 PUSH2 0x582 SWAP2 SWAP1 PUSH2 0x11ED JUMP JUMPDEST SWAP3 POP SWAP3 POP SWAP3 POP PUSH2 0x593 DUP4 DUP4 DUP4 PUSH2 0x749 JUMP JUMPDEST PUSH2 0x59B PUSH2 0x800 JUMP JUMPDEST PUSH2 0x5BB DUP5 PUSH20 0xFFFFFFFFFFFFFFFFFFFFFFFFFFFFFFFFFFFFFFFF AND DUP4 PUSH2 0x805 JUMP JUMPDEST PUSH2 0x5C3 PUSH2 0x800 JUMP JUMPDEST PUSH2 0x5CB PUSH2 0x800 JUMP JUMPDEST SWAP7 POP SWAP7 POP SWAP7 POP SWAP7 POP POP POP POP SWAP3 SWAP6 SWAP2 SWAP5 POP SWAP3 POP JUMP JUMPDEST PUSH0 PUSH2 0x5F2 DUP6 PUSH2 0x5ED DUP8 PUSH2 0x831 JUMP JUMPDEST PUSH2 0x6AA JUMP JUMPDEST DUP4 PUSH20 0xFFFFFFFFFFFFFFFFFFFFFFFFFFFFFFFFFFFFFFFF AND PUSH4 0x83437D45 DUP7 DUP6 DUP6 PUSH1 0x40 MLOAD DUP5 PUSH4 0xFFFFFFFF AND PUSH1 0xE0 SHL DUP2 MSTORE PUSH1 0x4 ADD PUSH2 0x62F SWAP4 SWAP3 SWAP2 SWAP1 PUSH2 0x1297 JUMP JUMPDEST PUSH0 PUSH1 0x40 MLOAD DUP1 DUP4 SUB DUP2 PUSH0 DUP8 DUP1 EXTCODESIZE ISZERO DUP1 ISZERO PUSH2 0x646 JUMPI PUSH0 PUSH0 REVERT JUMPDEST POP GAS CALL ISZERO DUP1 ISZERO PUSH2 0x658 JUMPI RETURNDATASIZE PUSH0 PUSH0 RETURNDATACOPY RETURNDATASIZE PUSH0 REVERT JUMPDEST POP POP POP POP PUSH2 0x666 DUP6 CALLER PUSH2 0x8B1 JUMP JUMPDEST SWAP1 POP SWAP5 SWAP4 POP POP POP POP JUMP JUMPDEST PUSH32 0x0 DUP2 JUMP JUMPDEST PUSH0 DUP2 PUSH1 0x60 SHL PUSH1 0x60 SHR SWAP2 POP PUSH1 0x1 DUP3 TLOAD SUB SWAP1 POP SWAP2 SWAP1 POP JUMP JUMPDEST PUSH32 0xFFFFFFFFFFFFFFFFFFFFFFFFFFFFFFFFFFFFFFFFFFFFFFFFFFFFFFFFFFFFFFFF DUP2 SUB PUSH2 0x703 JUMPI PUSH1 0x40 MLOAD PUSH32 0x89560CA100000000000000000000000000000000000000000000000000000000 DUP2 MSTORE PUSH1 0x4 ADD PUSH1 0x40 MLOAD DUP1 SWAP2 SUB SWAP1 REVERT JUMPDEST DUP2 PUSH1 0x60 SHL PUSH1 0x60 SHR SWAP2 POP PUSH1 0x1 DUP2 ADD DUP3 TSTORE POP POP JUMP JUMPDEST PUSH0 PUSH2 0x729 DUP6 PUSH2 0x724 DUP8 PUSH2 0x831 JUMP JUMPDEST PUSH2 0x6AA JUMP JUMPDEST PUSH2 0x735 DUP6 DUP6 ADDRESS DUP6 PUSH2 0x98A JUMP JUMPDEST PUSH2 0x73F DUP6 DUP5 PUSH2 0x8B1 JUMP JUMPDEST SWAP1 POP SWAP5 SWAP4 POP POP POP POP JUMP JUMPDEST PUSH0 PUSH1 0x40 MLOAD PUSH32 0xA9059CBB00000000000000000000000000000000000000000000000000000000 DUP2 MSTORE PUSH20 0xFFFFFFFFFFFFFFFFFFFFFFFFFFFFFFFFFFFFFFFF DUP5 AND PUSH1 0x4 DUP3 ADD MSTORE DUP3 PUSH1 0x24 DUP3 ADD MSTORE PUSH1 0x20 PUSH0 PUSH1 0x44 DUP4 PUSH0 DUP10 GAS CALL SWAP2 POP DUP2 PUSH1 0x1F RETURNDATASIZE GT PUSH1 0x1 PUSH0 MLOAD EQ AND ISZERO AND ISZERO PUSH2 0x7B9 JUMPI RETURNDATASIZE DUP6 EXTCODESIZE ISZERO OR ISZERO SWAP2 POP JUMPDEST POP DUP1 PUSH2 0x7FA JUMPI PUSH1 0x40 MLOAD PUSH32 0x8C379A000000000000000000000000000000000000000000000000000000000 DUP2 MSTORE PUSH1 0x4 ADD PUSH2 0x7F1 SWAP1 PUSH2 0x1321 JUMP JUMPDEST PUSH1 0x40 MLOAD DUP1 SWAP2 SUB SWAP1 REVERT JUMPDEST POP POP POP POP JUMP JUMPDEST PUSH1 0x60 SWAP1 JUMP JUMPDEST PUSH1 0x60 PUSH1 0x40 MLOAD SWAP1 POP PUSH1 0x80 DUP2 ADD PUSH1 0x40 MSTORE PUSH1 0x40 DUP2 ADD PUSH1 0x1 DUP3 MSTORE DUP1 PUSH1 0x20 DUP4 ADD MSTORE DUP4 DUP2 MSTORE DUP3 PUSH1 0x60 DUP4 ADD MSTORE POP SWAP3 SWAP2 POP POP JUMP JUMPDEST PUSH0 DUP2 PUSH20 0xFFFFFFFFFFFFFFFFFFFFFFFFFFFFFFFFFFFFFFFF AND PUSH4 0x70A08231 ADDRESS PUSH1 0x40 MLOAD DUP3 PUSH4 0xFFFFFFFF AND PUSH1 0xE0 SHL DUP2 MSTORE PUSH1 0x4 ADD PUSH2 0x86B SWAP2 SWAP1 PUSH2 0x133F JUMP JUMPDEST PUSH1 0x20 PUSH1 0x40 MLOAD DUP1 DUP4 SUB DUP2 DUP7 GAS STATICCALL ISZERO DUP1 ISZERO PUSH2 0x886 JUMPI RETURNDATASIZE PUSH0 PUSH0 RETURNDATACOPY RETURNDATASIZE PUSH0 REVERT JUMPDEST POP POP POP POP PUSH1 0x40 MLOAD RETURNDATASIZE PUSH1 0x1F NOT PUSH1 0x1F DUP3 ADD AND DUP3 ADD DUP1 PUSH1 0x40 MSTORE POP DUP2 ADD SWAP1 PUSH2 0x8AA SWAP2 SWAP1 PUSH2 0x136C JUMP JUMPDEST SWAP1 POP SWAP2 SWAP1 POP JUMP JUMPDEST PUSH0 PUSH0 PUSH2 0x8BC DUP5 PUSH2 0x831 JUMP JUMPDEST SWAP1 POP PUSH0 PUSH2 0x8C8 DUP6 PUSH2 0x694 JUMP JUMPDEST SWAP1 POP DUP1 DUP3 PUSH2 0x8D6 SWAP2 SWAP1 PUSH2 0x1397 JUMP JUMPDEST SWAP3 POP PUSH32 0x0 PUSH20 0xFFFFFFFFFFFFFFFFFFFFFFFFFFFFFFFFFFFFFFFF AND PUSH4 0x156E29F6 DUP6 DUP8 PUSH20 0xFFFFFFFFFFFFFFFFFFFFFFFFFFFFFFFFFFFFFFFF AND DUP7 PUSH1 0x40 MLOAD DUP5 PUSH4 0xFFFFFFFF AND PUSH1 0xE0 SHL DUP2 MSTORE PUSH1 0x4 ADD PUSH2 0x94B SWAP4 SWAP3 SWAP2 SWAP1 PUSH2 0x10F8 JUMP JUMPDEST PUSH0 PUSH1 0x40 MLOAD DUP1 DUP4 SUB DUP2 PUSH0 DUP8 DUP1 EXTCODESIZE ISZERO DUP1 ISZERO PUSH2 0x962 JUMPI PUSH0 PUSH0 REVERT JUMPDEST POP GAS CALL ISZERO DUP1 ISZERO PUSH2 0x974 JUMPI RETURNDATASIZE PUSH0 PUSH0 RETURNDATACOPY RETURNDATASIZE PUSH0 REVERT JUMPDEST POP POP POP POP PUSH2 0x982 DUP6 DUP4 PUSH2 0x6AA JUMP JUMPDEST POP POP SWAP3 SWAP2 POP POP JUMP JUMPDEST PUSH0 PUSH1 0x40 MLOAD PUSH32 0x23B872DD00000000000000000000000000000000000000000000000000000000 DUP2 MSTORE PUSH20 0xFFFFFFFFFFFFFFFFFFFFFFFFFFFFFFFFFFFFFFFF DUP6 AND PUSH1 0x4 DUP3 ADD MSTORE PUSH20 0xFFFFFFFFFFFFFFFFFFFFFFFFFFFFFFFFFFFFFFFF DUP5 AND PUSH1 0x24 DUP3 ADD MSTORE DUP3 PUSH1 0x44 DUP3 ADD MSTORE PUSH1 0x20 PUSH0 PUSH1 0x64 DUP4 PUSH0 DUP11 GAS CALL SWAP2 POP DUP2 PUSH1 0x1F RETURNDATASIZE GT PUSH1 0x1 PUSH0 MLOAD EQ AND ISZERO AND ISZERO PUSH2 0xA16 JUMPI RETURNDATASIZE DUP7 EXTCODESIZE ISZERO OR ISZERO SWAP2 POP JUMPDEST POP DUP1 PUSH2 0xA57 JUMPI PUSH1 0x40 MLOAD PUSH32 0x8C379A000000000000000000000000000000000000000000000000000000000 DUP2 MSTORE PUSH1 0x4 ADD PUSH2 0xA4E SWAP1 PUSH2 0x1414 JUMP JUMPDEST PUSH1 0x40 MLOAD DUP1 SWAP2 SUB SWAP1 REVERT JUMPDEST POP POP POP POP POP JUMP JUMPDEST PUSH0 PUSH0 REVERT JUMPDEST PUSH0 PUSH0 REVERT JUMPDEST PUSH0 PUSH20 0xFFFFFFFFFFFFFFFFFFFFFFFFFFFFFFFFFFFFFFFF DUP3 AND SWAP1 POP SWAP2 SWAP1 POP JUMP JUMPDEST PUSH0 PUSH2 0xA8F DUP3 PUSH2 0xA66 JUMP JUMPDEST SWAP1 POP SWAP2 SWAP1 POP JUMP JUMPDEST PUSH2 0xA9F DUP2 PUSH2 0xA85 JUMP JUMPDEST DUP2 EQ PUSH2 0xAA9 JUMPI PUSH0 PUSH0 REVERT JUMPDEST POP JUMP JUMPDEST PUSH0 DUP2 CALLDATALOAD SWAP1 POP PUSH2 0xABA DUP2 PUSH2 0xA96 JUMP JUMPDEST SWAP3 SWAP2 POP POP JUMP JUMPDEST PUSH0 DUP2 SWAP1 POP SWAP2 SWAP1 POP JUMP JUMPDEST PUSH2 0xAD2 DUP2 PUSH2 0xAC0 JUMP JUMPDEST DUP2 EQ PUSH2 0xADC JUMPI PUSH0 PUSH0 REVERT JUMPDEST POP JUMP JUMPDEST PUSH0 DUP2 CALLDATALOAD SWAP1 POP PUSH2 0xAED DUP2 PUSH2 0xAC9 JUMP JUMPDEST SWAP3 SWAP2 POP POP JUMP JUMPDEST PUSH0 PUSH0 REVERT JUMPDEST PUSH0 PUSH0 REVERT JUMPDEST PUSH0 PUSH0 REVERT JUMPDEST PUSH0 PUSH0 DUP4 PUSH1 0x1F DUP5 ADD SLT PUSH2 0xB14 JUMPI PUSH2 0xB13 PUSH2 0xAF3 JUMP JUMPDEST JUMPDEST DUP3 CALLDATALOAD SWAP1 POP PUSH8 0xFFFFFFFFFFFFFFFF DUP2 GT ISZERO PUSH2 0xB31 JUMPI PUSH2 0xB30 PUSH2 0xAF7 JUMP JUMPDEST JUMPDEST PUSH1 0x20 DUP4 ADD SWAP2 POP DUP4 PUSH1 0x1 DUP3 MUL DUP4 ADD GT ISZERO PUSH2 0xB4D JUMPI PUSH2 0xB4C PUSH2 0xAFB JUMP JUMPDEST JUMPDEST SWAP3 POP SWAP3 SWAP1 POP JUMP JUMPDEST PUSH0 PUSH0 PUSH0 PUSH0 PUSH0 PUSH0 PUSH0 PUSH0 PUSH1 0xC0 DUP10 DUP12 SUB SLT ISZERO PUSH2 0xB70 JUMPI PUSH2 0xB6F PUSH2 0xA5E JUMP JUMPDEST JUMPDEST PUSH0 PUSH2 0xB7D DUP12 DUP3 DUP13 ADD PUSH2 0xAAC JUMP JUMPDEST SWAP9 POP POP PUSH1 0x20 PUSH2 0xB8E DUP12 DUP3 DUP13 ADD PUSH2 0xAAC JUMP JUMPDEST SWAP8 POP POP PUSH1 0x40 PUSH2 0xB9F DUP12 DUP3 DUP13 ADD PUSH2 0xAAC JUMP JUMPDEST SWAP7 POP POP PUSH1 0x60 PUSH2 0xBB0 DUP12 DUP3 DUP13 ADD PUSH2 0xADF JUMP JUMPDEST SWAP6 POP POP PUSH1 0x80 DUP10 ADD CALLDATALOAD PUSH8 0xFFFFFFFFFFFFFFFF DUP2 GT ISZERO PUSH2 0xBD1 JUMPI PUSH2 0xBD0 PUSH2 0xA62 JUMP JUMPDEST JUMPDEST PUSH2 0xBDD DUP12 DUP3 DUP13 ADD PUSH2 0xAFF JUMP JUMPDEST SWAP5 POP SWAP5 POP POP PUSH1 0xA0 DUP10 ADD CALLDATALOAD PUSH8 0xFFFFFFFFFFFFFFFF DUP2 GT ISZERO PUSH2 0xC00 JUMPI PUSH2 0xBFF PUSH2 0xA62 JUMP JUMPDEST JUMPDEST PUSH2 0xC0C DUP12 DUP3 DUP13 ADD PUSH2 0xAFF JUMP JUMPDEST SWAP3 POP SWAP3 POP POP SWAP3 SWAP6 SWAP9 POP SWAP3 SWAP6 SWAP9 SWAP1 SWAP4 SWAP7 POP JUMP JUMPDEST PUSH0 PUSH1 0xFF DUP3 AND SWAP1 POP SWAP2 SWAP1 POP JUMP JUMPDEST PUSH2 0xC33 DUP2 PUSH2 0xC1E JUMP JUMPDEST DUP2 EQ PUSH2 0xC3D JUMPI PUSH0 PUSH0 REVERT JUMPDEST POP JUMP JUMPDEST PUSH0 DUP2 CALLDATALOAD SWAP1 POP PUSH2 0xC4E DUP2 PUSH2 0xC2A JUMP JUMPDEST SWAP3 SWAP2 POP POP JUMP JUMPDEST PUSH0 DUP2 SWAP1 POP SWAP2 SWAP1 POP JUMP JUMPDEST PUSH2 0xC66 DUP2 PUSH2 0xC54 JUMP JUMPDEST DUP2 EQ PUSH2 0xC70 JUMPI PUSH0 PUSH0 REVERT JUMPDEST POP JUMP JUMPDEST PUSH0 DUP2 CALLDATALOAD SWAP1 POP PUSH2 0xC81 DUP2 PUSH2 0xC5D JUMP JUMPDEST SWAP3 SWAP2 POP POP JUMP JUMPDEST PUSH0 PUSH0 PUSH0 PUSH0 PUSH0 PUSH0 PUSH0 PUSH0 PUSH2 0x100 DUP10 DUP12 SUB SLT ISZERO PUSH2 0xCA4 JUMPI PUSH2 0xCA3 PUSH2 0xA5E JUMP JUMPDEST JUMPDEST PUSH0 PUSH2 0xCB1 DUP12 DUP3 DUP13 ADD PUSH2 0xAAC JUMP JUMPDEST SWAP9 POP POP PUSH1 0x20 PUSH2 0xCC2 DUP12 DUP3 DUP13 ADD PUSH2 0xAAC JUMP JUMPDEST SWAP8 POP POP PUSH1 0x40 PUSH2 0xCD3 DUP12 DUP3 DUP13 ADD PUSH2 0xADF JUMP JUMPDEST SWAP7 POP POP PUSH1 0x60 PUSH2 0xCE4 DUP12 DUP3 DUP13 ADD PUSH2 0xAAC JUMP JUMPDEST SWAP6 POP POP PUSH1 0x80 PUSH2 0xCF5 DUP12 DUP3 DUP13 ADD PUSH2 0xADF JUMP JUMPDEST SWAP5 POP POP PUSH1 0xA0 PUSH2 0xD06 DUP12 DUP3 DUP13 ADD PUSH2 0xC40 JUMP JUMPDEST SWAP4 POP POP PUSH1 0xC0 PUSH2 0xD17 DUP12 DUP3 DUP13 ADD PUSH2 0xC73 JUMP JUMPDEST SWAP3 POP POP PUSH1 0xE0 PUSH2 0xD28 DUP12 DUP3 DUP13 ADD PUSH2 0xC73 JUMP JUMPDEST SWAP2 POP POP SWAP3 SWAP6 SWAP9 POP SWAP3 SWAP6 SWAP9 SWAP1 SWAP4 SWAP7 POP JUMP JUMPDEST PUSH2 0xD41 DUP2 PUSH2 0xAC0 JUMP JUMPDEST DUP3 MSTORE POP POP JUMP JUMPDEST PUSH0 PUSH1 0x20 DUP3 ADD SWAP1 POP PUSH2 0xD5A PUSH0 DUP4 ADD DUP5 PUSH2 0xD38 JUMP JUMPDEST SWAP3 SWAP2 POP POP JUMP JUMPDEST PUSH0 PUSH0 PUSH0 PUSH1 0x60 DUP5 DUP7 SUB SLT ISZERO PUSH2 0xD77 JUMPI PUSH2 0xD76 PUSH2 0xA5E JUMP JUMPDEST JUMPDEST PUSH0 PUSH2 0xD84 DUP7 DUP3 DUP8 ADD PUSH2 0xAAC JUMP JUMPDEST SWAP4 POP POP PUSH1 0x20 PUSH2 0xD95 DUP7 DUP3 DUP8 ADD PUSH2 0xAAC JUMP JUMPDEST SWAP3 POP POP PUSH1 0x40 PUSH2 0xDA6 DUP7 DUP3 DUP8 ADD PUSH2 0xADF JUMP JUMPDEST SWAP2 POP POP SWAP3 POP SWAP3 POP SWAP3 JUMP JUMPDEST PUSH0 PUSH0 PUSH1 0x20 DUP4 DUP6 SUB SLT ISZERO PUSH2 0xDC6 JUMPI PUSH2 0xDC5 PUSH2 0xA5E JUMP JUMPDEST JUMPDEST PUSH0 DUP4 ADD CALLDATALOAD PUSH8 0xFFFFFFFFFFFFFFFF DUP2 GT ISZERO PUSH2 0xDE3 JUMPI PUSH2 0xDE2 PUSH2 0xA62 JUMP JUMPDEST JUMPDEST PUSH2 0xDEF DUP6 DUP3 DUP7 ADD PUSH2 0xAFF JUMP JUMPDEST SWAP3 POP SWAP3 POP POP SWAP3 POP SWAP3 SWAP1 POP JUMP JUMPDEST PUSH0 DUP2 MLOAD SWAP1 POP SWAP2 SWAP1 POP JUMP JUMPDEST PUSH0 DUP3 DUP3 MSTORE PUSH1 0x20 DUP3 ADD SWAP1 POP SWAP3 SWAP2 POP POP JUMP JUMPDEST PUSH0 DUP2 SWAP1 POP PUSH1 0x20 DUP3 ADD SWAP1 POP SWAP2 SWAP1 POP JUMP JUMPDEST PUSH2 0xE2D DUP2 PUSH2 0xAC0 JUMP JUMPDEST DUP3 MSTORE POP POP JUMP JUMPDEST PUSH1 0x40 DUP3 ADD PUSH0 DUP3 ADD MLOAD PUSH2 0xE47 PUSH0 DUP6 ADD DUP3 PUSH2 0xE24 JUMP JUMPDEST POP PUSH1 0x20 DUP3 ADD MLOAD PUSH2 0xE5A PUSH1 0x20 DUP6 ADD DUP3 PUSH2 0xE24 JUMP JUMPDEST POP POP POP POP JUMP JUMPDEST PUSH0 PUSH2 0xE6B DUP4 DUP4 PUSH2 0xE33 JUMP JUMPDEST PUSH1 0x40 DUP4 ADD SWAP1 POP SWAP3 SWAP2 POP POP JUMP JUMPDEST PUSH0 PUSH1 0x20 DUP3 ADD SWAP1 POP SWAP2 SWAP1 POP JUMP JUMPDEST PUSH0 PUSH2 0xE8D DUP3 PUSH2 0xDFB JUMP JUMPDEST PUSH2 0xE97 DUP2 DUP6 PUSH2 0xE05 JUMP JUMPDEST SWAP4 POP PUSH2 0xEA2 DUP4 PUSH2 0xE15 JUMP JUMPDEST DUP1 PUSH0 JUMPDEST DUP4 DUP2 LT ISZERO PUSH2 0xED2 JUMPI DUP2 MLOAD PUSH2 0xEB9 DUP9 DUP3 PUSH2 0xE60 JUMP JUMPDEST SWAP8 POP PUSH2 0xEC4 DUP4 PUSH2 0xE77 JUMP JUMPDEST SWAP3 POP POP PUSH1 0x1 DUP2 ADD SWAP1 POP PUSH2 0xEA5 JUMP JUMPDEST POP DUP6 SWAP4 POP POP POP POP SWAP3 SWAP2 POP POP JUMP JUMPDEST PUSH0 PUSH1 0x80 DUP3 ADD SWAP1 POP DUP2 DUP2 SUB PUSH0 DUP4 ADD MSTORE PUSH2 0xEF7 DUP2 DUP8 PUSH2 0xE83 JUMP JUMPDEST SWAP1 POP DUP2 DUP2 SUB PUSH1 0x20 DUP4 ADD MSTORE PUSH2 0xF0B DUP2 DUP7 PUSH2 0xE83 JUMP JUMPDEST SWAP1 POP DUP2 DUP2 SUB PUSH1 0x40 DUP4 ADD MSTORE PUSH2 0xF1F DUP2 DUP6 PUSH2 0xE83 JUMP JUMPDEST SWAP1 POP DUP2 DUP2 SUB PUSH1 0x60 DUP4 ADD MSTORE PUSH2 0xF33 DUP2 DUP5 PUSH2 0xE83 JUMP JUMPDEST SWAP1 POP SWAP6 SWAP5 POP POP POP POP POP JUMP JUMPDEST PUSH0 PUSH0 PUSH0 PUSH0 PUSH1 0x60 DUP6 DUP8 SUB SLT ISZERO PUSH2 0xF56 JUMPI PUSH2 0xF55 PUSH2 0xA5E JUMP JUMPDEST JUMPDEST PUSH0 PUSH2 0xF63 DUP8 DUP3 DUP9 ADD PUSH2 0xAAC JUMP JUMPDEST SWAP5 POP POP PUSH1 0x20 PUSH2 0xF74 DUP8 DUP3 DUP9 ADD PUSH2 0xAAC JUMP JUMPDEST SWAP4 POP POP PUSH1 0x40 DUP6 ADD CALLDATALOAD PUSH8 0xFFFFFFFFFFFFFFFF DUP2 GT ISZERO PUSH2 0xF95 JUMPI PUSH2 0xF94 PUSH2 0xA62 JUMP JUMPDEST JUMPDEST PUSH2 0xFA1 DUP8 DUP3 DUP9 ADD PUSH2 0xAFF JUMP JUMPDEST SWAP3 POP SWAP3 POP POP SWAP3 SWAP6 SWAP2 SWAP5 POP SWAP3 POP JUMP JUMPDEST PUSH0 DUP2 SWAP1 POP SWAP2 SWAP1 POP JUMP JUMPDEST PUSH0 PUSH2 0xFD2 PUSH2 0xFCD PUSH2 0xFC8 DUP5 PUSH2 0xA66 JUMP JUMPDEST PUSH2 0xFAF JUMP JUMPDEST PUSH2 0xA66 JUMP JUMPDEST SWAP1 POP SWAP2 SWAP1 POP JUMP JUMPDEST PUSH0 PUSH2 0xFE3 DUP3 PUSH2 0xFB8 JUMP JUMPDEST SWAP1 POP SWAP2 SWAP1 POP JUMP JUMPDEST PUSH0 PUSH2 0xFF4 DUP3 PUSH2 0xFD9 JUMP JUMPDEST SWAP1 POP SWAP2 SWAP1 POP JUMP JUMPDEST PUSH2 0x1004 DUP2 PUSH2 0xFEA JUMP JUMPDEST DUP3 MSTORE POP POP JUMP JUMPDEST PUSH0 PUSH1 0x20 DUP3 ADD SWAP1 POP PUSH2 0x101D PUSH0 DUP4 ADD DUP5 PUSH2 0xFFB JUMP JUMPDEST SWAP3 SWAP2 POP POP JUMP JUMPDEST PUSH32 0x4E487B7100000000000000000000000000000000000000000000000000000000 PUSH0 MSTORE PUSH1 0x11 PUSH1 0x4 MSTORE PUSH1 0x24 PUSH0 REVERT JUMPDEST PUSH0 PUSH2 0x105A DUP3 PUSH2 0xAC0 JUMP JUMPDEST SWAP2 POP PUSH2 0x1065 DUP4 PUSH2 0xAC0 JUMP JUMPDEST SWAP3 POP DUP3 DUP3 ADD SWAP1 POP DUP1 DUP3 GT ISZERO PUSH2 0x107D JUMPI PUSH2 0x107C PUSH2 0x1023 JUMP JUMPDEST JUMPDEST SWAP3 SWAP2 POP POP JUMP JUMPDEST PUSH0 PUSH2 0x108D DUP3 PUSH2 0xA66 JUMP JUMPDEST SWAP1 POP SWAP2 SWAP1 POP JUMP JUMPDEST PUSH2 0x109D DUP2 PUSH2 0x1083 JUMP JUMPDEST DUP2 EQ PUSH2 0x10A7 JUMPI PUSH0 PUSH0 REVERT JUMPDEST POP JUMP JUMPDEST PUSH0 DUP2 CALLDATALOAD SWAP1 POP PUSH2 0x10B8 DUP2 PUSH2 0x1094 JUMP JUMPDEST SWAP3 SWAP2 POP POP JUMP JUMPDEST PUSH0 PUSH1 0x20 DUP3 DUP5 SUB SLT ISZERO PUSH2 0x10D3 JUMPI PUSH2 0x10D2 PUSH2 0xA5E JUMP JUMPDEST JUMPDEST PUSH0 PUSH2 0x10E0 DUP5 DUP3 DUP6 ADD PUSH2 0x10AA JUMP JUMPDEST SWAP2 POP POP SWAP3 SWAP2 POP POP JUMP JUMPDEST PUSH2 0x10F2 DUP2 PUSH2 0xA85 JUMP JUMPDEST DUP3 MSTORE POP POP JUMP JUMPDEST PUSH0 PUSH1 0x60 DUP3 ADD SWAP1 POP PUSH2 0x110B PUSH0 DUP4 ADD DUP7 PUSH2 0x10E9 JUMP JUMPDEST PUSH2 0x1118 PUSH1 0x20 DUP4 ADD DUP6 PUSH2 0xD38 JUMP JUMPDEST PUSH2 0x1125 PUSH1 0x40 DUP4 ADD DUP5 PUSH2 0xD38 JUMP JUMPDEST SWAP5 SWAP4 POP POP POP POP JUMP JUMPDEST PUSH2 0x1136 DUP2 PUSH2 0xC1E JUMP JUMPDEST DUP3 MSTORE POP POP JUMP JUMPDEST PUSH2 0x1145 DUP2 PUSH2 0xC54 JUMP JUMPDEST DUP3 MSTORE POP POP JUMP JUMPDEST PUSH0 PUSH1 0xE0 DUP3 ADD SWAP1 POP PUSH2 0x115E PUSH0 DUP4 ADD DUP11 PUSH2 0x10E9 JUMP JUMPDEST PUSH2 0x116B PUSH1 0x20 DUP4 ADD DUP10 PUSH2 0x10E9 JUMP JUMPDEST PUSH2 0x1178 PUSH1 0x40 DUP4 ADD DUP9 PUSH2 0xD38 JUMP JUMPDEST PUSH2 0x1185 PUSH1 0x60 DUP4 ADD DUP8 PUSH2 0xD38 JUMP JUMPDEST PUSH2 0x1192 PUSH1 0x80 DUP4 ADD DUP7 PUSH2 0x112D JUMP JUMPDEST PUSH2 0x119F PUSH1 0xA0 DUP4 ADD DUP6 PUSH2 0x113C JUMP JUMPDEST PUSH2 0x11AC PUSH1 0xC0 DUP4 ADD DUP5 PUSH2 0x113C JUMP JUMPDEST SWAP9 SWAP8 POP POP POP POP POP POP POP POP JUMP JUMPDEST PUSH0 PUSH1 0x60 DUP3 ADD SWAP1 POP PUSH2 0x11CB PUSH0 DUP4 ADD DUP7 PUSH2 0x10E9 JUMP JUMPDEST PUSH2 0x11D8 PUSH1 0x20 DUP4 ADD DUP6 PUSH2 0x113C JUMP JUMPDEST PUSH2 0x11E5 PUSH1 0x40 DUP4 ADD DUP5 PUSH2 0x10E9 JUMP JUMPDEST SWAP5 SWAP4 POP POP POP POP JUMP JUMPDEST PUSH0 PUSH0 PUSH0 PUSH1 0x60 DUP5 DUP7 SUB SLT ISZERO PUSH2 0x1204 JUMPI PUSH2 0x1203 PUSH2 0xA5E JUMP JUMPDEST JUMPDEST PUSH0 PUSH2 0x1211 DUP7 DUP3 DUP8 ADD PUSH2 0x10AA JUMP JUMPDEST SWAP4 POP POP PUSH1 0x20 PUSH2 0x1222 DUP7 DUP3 DUP8 ADD PUSH2 0x10AA JUMP JUMPDEST SWAP3 POP POP PUSH1 0x40 PUSH2 0x1233 DUP7 DUP3 DUP8 ADD PUSH2 0xADF JUMP JUMPDEST SWAP2 POP POP SWAP3 POP SWAP3 POP SWAP3 JUMP JUMPDEST PUSH0 DUP3 DUP3 MSTORE PUSH1 0x20 DUP3 ADD SWAP1 POP SWAP3 SWAP2 POP POP JUMP JUMPDEST DUP3 DUP2 DUP4 CALLDATACOPY PUSH0 DUP4 DUP4 ADD MSTORE POP POP POP JUMP JUMPDEST PUSH0 PUSH1 0x1F NOT PUSH1 0x1F DUP4 ADD AND SWAP1 POP SWAP2 SWAP1 POP JUMP JUMPDEST PUSH0 PUSH2 0x1276 DUP4 DUP6 PUSH2 0x123D JUMP JUMPDEST SWAP4 POP PUSH2 0x1283 DUP4 DUP6 DUP5 PUSH2 0x124D JUMP JUMPDEST PUSH2 0x128C DUP4 PUSH2 0x125B JUMP JUMPDEST DUP5 ADD SWAP1 POP SWAP4 SWAP3 POP POP POP JUMP JUMPDEST PUSH0 PUSH1 0x40 DUP3 ADD SWAP1 POP PUSH2 0x12AA PUSH0 DUP4 ADD DUP7 PUSH2 0x10E9 JUMP JUMPDEST DUP2 DUP2 SUB PUSH1 0x20 DUP4 ADD MSTORE PUSH2 0x12BD DUP2 DUP5 DUP7 PUSH2 0x126B JUMP JUMPDEST SWAP1 POP SWAP5 SWAP4 POP POP POP POP JUMP JUMPDEST PUSH0 DUP3 DUP3 MSTORE PUSH1 0x20 DUP3 ADD SWAP1 POP SWAP3 SWAP2 POP POP JUMP JUMPDEST PUSH32 0x5452414E534645525F4641494C45440000000000000000000000000000000000 PUSH0 DUP3 ADD MSTORE POP JUMP JUMPDEST PUSH0 PUSH2 0x130B PUSH1 0xF DUP4 PUSH2 0x12C7 JUMP JUMPDEST SWAP2 POP PUSH2 0x1316 DUP3 PUSH2 0x12D7 JUMP JUMPDEST PUSH1 0x20 DUP3 ADD SWAP1 POP SWAP2 SWAP1 POP JUMP JUMPDEST PUSH0 PUSH1 0x20 DUP3 ADD SWAP1 POP DUP2 DUP2 SUB PUSH0 DUP4 ADD MSTORE PUSH2 0x1338 DUP2 PUSH2 0x12FF JUMP JUMPDEST SWAP1 POP SWAP2 SWAP1 POP JUMP JUMPDEST PUSH0 PUSH1 0x20 DUP3 ADD SWAP1 POP PUSH2 0x1352 PUSH0 DUP4 ADD DUP5 PUSH2 0x10E9 JUMP JUMPDEST SWAP3 SWAP2 POP POP JUMP JUMPDEST PUSH0 DUP2 MLOAD SWAP1 POP PUSH2 0x1366 DUP2 PUSH2 0xAC9 JUMP JUMPDEST SWAP3 SWAP2 POP POP JUMP JUMPDEST PUSH0 PUSH1 0x20 DUP3 DUP5 SUB SLT ISZERO PUSH2 0x1381 JUMPI PUSH2 0x1380 PUSH2 0xA5E JUMP JUMPDEST JUMPDEST PUSH0 PUSH2 0x138E DUP5 DUP3 DUP6 ADD PUSH2 0x1358 JUMP JUMPDEST SWAP2 POP POP SWAP3 SWAP2 POP POP JUMP JUMPDEST PUSH0 PUSH2 0x13A1 DUP3 PUSH2 0xAC0 JUMP JUMPDEST SWAP2 POP PUSH2 0x13AC DUP4 PUSH2 0xAC0 JUMP JUMPDEST SWAP3 POP DUP3 DUP3 SUB SWAP1 POP DUP2 DUP2 GT ISZERO PUSH2 0x13C4 JUMPI PUSH2 0x13C3 PUSH2 0x1023 JUMP JUMPDEST JUMPDEST SWAP3 SWAP2 POP POP JUMP JUMPDEST PUSH32 0x5452414E534645525F46524F4D5F4641494C4544000000000000000000000000 PUSH0 DUP3 ADD MSTORE POP JUMP JUMPDEST PUSH0 PUSH2 0x13FE PUSH1 0x14 DUP4 PUSH2 0x12C7 JUMP JUMPDEST SWAP2 POP PUSH2 0x1409 DUP3 PUSH2 0x13CA JUMP JUMPDEST PUSH1 0x20 DUP3 ADD SWAP1 POP SWAP2 SWAP1 POP JUMP JUMPDEST PUSH0 PUSH1 0x20 DUP3 ADD SWAP1 POP DUP2 DUP2 SUB PUSH0 DUP4 ADD MSTORE PUSH2 0x142B DUP2 PUSH2 0x13F2 JUMP JUMPDEST SWAP1 POP SWAP2 SWAP1 POP JUMP INVALID LOG2 PUSH5 0x6970667358 0x22 SLT KECCAK256 BLOBHASH SWAP2 0x2F 0xEC 0xED 0xCE SELFBALANCE ORIGIN STOP 0xC9 PUSH4 0xBA324E03 0xED 0xC4 STATICCALL 0xAA CALLER 0x1F 0xCF DUP16 STATICCALL DUP1 PUSH2 0x3619 0xE6 0xF 0x2B JUMPI PUSH5 0x736F6C6343 STOP ADDMOD SHR STOP CALLER "
				},
				"gasEstimates": {
					"creation": {
						"codeDepositCost": "1044800",
						"executionCost": "infinite",
						"totalCost": "infinite"
					},
					"external": {
						"blueprintManager()": "infinite",
						"deposit(address,address,uint256)": "infinite",
						"depositWithCallback(address,address,bytes)": "infinite",
						"executeAction(bytes)": "infinite",
						"permitDeposit(address,address,uint256,address,uint256,uint8,bytes32,bytes32)": "infinite",
						"setERC1820Registry()": "infinite",
						"tokensReceived(address,address,address,uint256,bytes,bytes)": "infinite"
					},
					"internal": {
						"_deposit(address,address,address,uint256)": "infinite",
						"_getBalance(address)": "infinite",
						"_getSavedBalance(address)": "153",
						"_mintNewBalance(address,address)": "infinite",
						"_saveBalance(address,uint256)": "infinite"
					}
				},
				"methodIdentifiers": {
					"blueprintManager()": "fabe109a",
					"deposit(address,address,uint256)": "8340f549",
					"depositWithCallback(address,address,bytes)": "e80aed81",
					"executeAction(bytes)": "a129568d",
					"permitDeposit(address,address,uint256,address,uint256,uint8,bytes32,bytes32)": "035c833a",
					"setERC1820Registry()": "50e43439",
					"tokensReceived(address,address,address,uint256,bytes,bytes)": "0023de29"
				}
			},
			"storageLayout": {
				"storage": [],
				"types": null
			},
			"userdoc": {
				"kind": "user",
				"methods": {
					"executeAction(bytes)": {
						"notice": "executes an action in Blueprint"
					}
				},
				"version": 1
			}
		}
	}
}