{
	"data": {
		"bytecode": {
			"linkReferences": {},
			"object": "6080604052348015600e575f5ffd5b5061029e8061001c5f395ff3fe608060405234801561000f575f5ffd5b5060043610610029575f3560e01c80634f2a01e81461002d575b5f5ffd5b61004760048036038101906100429190610193565b61005d565b60405161005491906101ff565b60405180910390f35b5f5f5f5f85858101906100709190610218565b9250925092505f42905060405183831184861117156100985788815260208101604052602081f35b828210156100af575f815260208101604052602081f35b838211156100c65788815260208101604052602081f35b848211156100e857848203858503818b02818104808552602085018552602085f35b5f815260208101604052602081f35b5f5ffd5b5f5ffd5b5f819050919050565b610111816100ff565b811461011b575f5ffd5b50565b5f8135905061012c81610108565b92915050565b5f5ffd5b5f5ffd5b5f5ffd5b5f5f83601f84011261015357610152610132565b5b8235905067ffffffffffffffff8111156101705761016f610136565b5b60208301915083600182028301111561018c5761018b61013a565b5b9250929050565b5f5f5f604084860312156101aa576101a96100f7565b5b5f6101b78682870161011e565b935050602084013567ffffffffffffffff8111156101d8576101d76100fb565b5b6101e48682870161013e565b92509250509250925092565b6101f9816100ff565b82525050565b5f6020820190506102125f8301846101f0565b92915050565b5f5f5f6060848603121561022f5761022e6100f7565b5b5f61023c8682870161011e565b935050602061024d8682870161011e565b925050604061025e8682870161011e565b915050925092509256fea264697066735822122035ed5fd156e6a2f4a60e418d1600e6b85139b2a23a8ae17016274fee49d6e30264736f6c634300081c0033",
			"opcodes": "PUSH1 0x80 PUSH1 0x40 MSTORE CALLVALUE DUP1 ISZERO PUSH1 0xE JUMPI PUSH0 PUSH0 REVERT JUMPDEST POP PUSH2 0x29E DUP1 PUSH2 0x1C PUSH0 CODECOPY PUSH0 RETURN INVALID PUSH1 0x80 PUSH1 0x40 MSTORE CALLVALUE DUP1 ISZERO PUSH2 0xF JUMPI PUSH0 PUSH0 REVERT JUMPDEST POP PUSH1 0x4 CALLDATASIZE LT PUSH2 0x29 JUMPI PUSH0 CALLDATALOAD PUSH1 0xE0 SHR DUP1 PUSH4 0x4F2A01E8 EQ PUSH2 0x2D JUMPI JUMPDEST PUSH0 PUSH0 REVERT JUMPDEST PUSH2 0x47 PUSH1 0x4 DUP1 CALLDATASIZE SUB DUP2 ADD SWAP1 PUSH2 0x42 SWAP2 SWAP1 PUSH2 0x193 JUMP JUMPDEST PUSH2 0x5D JUMP JUMPDEST PUSH1 0x40 MLOAD PUSH2 0x54 SWAP2 SWAP1 PUSH2 0x1FF JUMP JUMPDEST PUSH1 0x40 MLOAD DUP1 SWAP2 SUB SWAP1 RETURN JUMPDEST PUSH0 PUSH0 PUSH0 PUSH0 DUP6 DUP6 DUP2 ADD SWAP1 PUSH2 0x70 SWAP2 SWAP1 PUSH2 0x218 JUMP JUMPDEST SWAP3 POP SWAP3 POP SWAP3 POP PUSH0 TIMESTAMP SWAP1 POP PUSH1 0x40 MLOAD DUP4 DUP4 GT DUP5 DUP7 GT OR ISZERO PUSH2 0x98 JUMPI DUP9 DUP2 MSTORE PUSH1 0x20 DUP2 ADD PUSH1 0x40 MSTORE PUSH1 0x20 DUP2 RETURN JUMPDEST DUP3 DUP3 LT ISZERO PUSH2 0xAF JUMPI PUSH0 DUP2 MSTORE PUSH1 0x20 DUP2 ADD PUSH1 0x40 MSTORE PUSH1 0x20 DUP2 RETURN JUMPDEST DUP4 DUP3 GT ISZERO PUSH2 0xC6 JUMPI DUP9 DUP2 MSTORE PUSH1 0x20 DUP2 ADD PUSH1 0x40 MSTORE PUSH1 0x20 DUP2 RETURN JUMPDEST DUP5 DUP3 GT ISZERO PUSH2 0xE8 JUMPI DUP5 DUP3 SUB DUP6 DUP6 SUB DUP2 DUP12 MUL DUP2 DUP2 DIV DUP1 DUP6 MSTORE PUSH1 0x20 DUP6 ADD DUP6 MSTORE PUSH1 0x20 DUP6 RETURN JUMPDEST PUSH0 DUP2 MSTORE PUSH1 0x20 DUP2 ADD PUSH1 0x40 MSTORE PUSH1 0x20 DUP2 RETURN JUMPDEST PUSH0 PUSH0 REVERT JUMPDEST PUSH0 PUSH0 REVERT JUMPDEST PUSH0 DUP2 SWAP1 POP SWAP2 SWAP1 POP JUMP JUMPDEST PUSH2 0x111 DUP2 PUSH2 0xFF JUMP JUMPDEST DUP2 EQ PUSH2 0x11B JUMPI PUSH0 PUSH0 REVERT JUMPDEST POP JUMP JUMPDEST PUSH0 DUP2 CALLDATALOAD SWAP1 POP PUSH2 0x12C DUP2 PUSH2 0x108 JUMP JUMPDEST SWAP3 SWAP2 POP POP JUMP JUMPDEST PUSH0 PUSH0 REVERT JUMPDEST PUSH0 PUSH0 REVERT JUMPDEST PUSH0 PUSH0 REVERT JUMPDEST PUSH0 PUSH0 DUP4 PUSH1 0x1F DUP5 ADD SLT PUSH2 0x153 JUMPI PUSH2 0x152 PUSH2 0x132 JUMP JUMPDEST JUMPDEST DUP3 CALLDATALOAD SWAP1 POP PUSH8 0xFFFFFFFFFFFFFFFF DUP2 GT ISZERO PUSH2 0x170 JUMPI PUSH2 0x16F PUSH2 0x136 JUMP JUMPDEST JUMPDEST PUSH1 0x20 DUP4 ADD SWAP2 POP DUP4 PUSH1 0x1 DUP3 MUL DUP4 ADD GT ISZERO PUSH2 0x18C JUMPI PUSH2 0x18B PUSH2 0x13A JUMP JUMPDEST JUMPDEST SWAP3 POP SWAP3 SWAP1 POP JUMP JUMPDEST PUSH0 PUSH0 PUSH0 PUSH1 0x40 DUP5 DUP7 SUB SLT ISZERO PUSH2 0x1AA JUMPI PUSH2 0x1A9 PUSH2 0xF7 JUMP JUMPDEST JUMPDEST PUSH0 PUSH2 0x1B7 DUP7 DUP3 DUP8 ADD PUSH2 0x11E JUMP JUMPDEST SWAP4 POP POP PUSH1 0x20 DUP5 ADD CALLDATALOAD PUSH8 0xFFFFFFFFFFFFFFFF DUP2 GT ISZERO PUSH2 0x1D8 JUMPI PUSH2 0x1D7 PUSH2 0xFB JUMP JUMPDEST JUMPDEST PUSH2 0x1E4 DUP7 DUP3 DUP8 ADD PUSH2 0x13E JUMP JUMPDEST SWAP3 POP SWAP3 POP POP SWAP3 POP SWAP3 POP SWAP3 JUMP JUMPDEST PUSH2 0x1F9 DUP2 PUSH2 0xFF JUMP JUMPDEST DUP3 MSTORE POP POP JUMP JUMPDEST PUSH0 PUSH1 0x20 DUP3 ADD SWAP1 POP PUSH2 0x212 PUSH0 DUP4 ADD DUP5 PUSH2 0x1F0 JUMP JUMPDEST SWAP3 SWAP2 POP POP JUMP JUMPDEST PUSH0 PUSH0 PUSH0 PUSH1 0x60 DUP5 DUP7 SUB SLT ISZERO PUSH2 0x22F JUMPI PUSH2 0x22E PUSH2 0xF7 JUMP JUMPDEST JUMPDEST PUSH0 PUSH2 0x23C DUP7 DUP3 DUP8 ADD PUSH2 0x11E JUMP JUMPDEST SWAP4 POP POP PUSH1 0x20 PUSH2 0x24D DUP7 DUP3 DUP8 ADD PUSH2 0x11E JUMP JUMPDEST SWAP3 POP POP PUSH1 0x40 PUSH2 0x25E DUP7 DUP3 DUP8 ADD PUSH2 0x11E JUMP JUMPDEST SWAP2 POP POP SWAP3 POP SWAP3 POP SWAP3 JUMP INVALID LOG2 PUSH5 0x6970667358 0x22 SLT KECCAK256 CALLDATALOAD 0xED PUSH0 0xD1 JUMP 0xE6 LOG2 DELEGATECALL 0xA6 0xE COINBASE DUP14 AND STOP 0xE6 0xB8 MLOAD CODECOPY 0xB2 LOG2 GASPRICE DUP11 0xE1 PUSH17 0x16274FEE49D6E30264736F6C634300081C STOP CALLER "
		},
		"gasEstimates": {
			"creation": {
				"codeDepositCost": "134000",
				"executionCost": "175",
				"totalCost": "134175"
			},
			"external": {
				"getVestedTokens(uint256,bytes)": "infinite"
			}
		},
		"methodIdentifiers": {
			"getVestedTokens(uint256,bytes)": "4f2a01e8"
		}
	},
	"abi": [
		{
			"inputs": [
				{
					"internalType": "uint256",
					"name": "amount",
					"type": "uint256"
				},
				{
					"internalType": "bytes",
					"name": "scheduleArgs",
					"type": "bytes"
				}
			],
			"name": "getVestedTokens",
			"outputs": [
				{
					"internalType": "uint256",
					"name": "unlocked",
					"type": "uint256"
				}
			],
			"stateMutability": "view",
			"type": "function"
		}
	]
}